{
  "contractName": "BasicTicketCollection",
  "abi": [
    {
      "inputs": [
        {
          "internalType": "string",
          "name": "_name",
          "type": "string"
        },
        {
          "internalType": "string",
          "name": "_ticker",
          "type": "string"
        },
        {
          "internalType": "uint256",
          "name": "_price",
          "type": "uint256"
        }
      ],
      "stateMutability": "nonpayable",
      "type": "constructor"
    },
    {
      "anonymous": false,
      "inputs": [
        {
          "indexed": true,
          "internalType": "address",
          "name": "owner",
          "type": "address"
        },
        {
          "indexed": true,
          "internalType": "address",
          "name": "approved",
          "type": "address"
        },
        {
          "indexed": true,
          "internalType": "uint256",
          "name": "tokenId",
          "type": "uint256"
        }
      ],
      "name": "Approval",
      "type": "event"
    },
    {
      "anonymous": false,
      "inputs": [
        {
          "indexed": true,
          "internalType": "address",
          "name": "owner",
          "type": "address"
        },
        {
          "indexed": true,
          "internalType": "address",
          "name": "operator",
          "type": "address"
        },
        {
          "indexed": false,
          "internalType": "bool",
          "name": "approved",
          "type": "bool"
        }
      ],
      "name": "ApprovalForAll",
      "type": "event"
    },
    {
      "anonymous": false,
      "inputs": [
        {
          "indexed": true,
          "internalType": "address",
          "name": "previousOwner",
          "type": "address"
        },
        {
          "indexed": true,
          "internalType": "address",
          "name": "newOwner",
          "type": "address"
        }
      ],
      "name": "OwnershipTransferred",
      "type": "event"
    },
    {
      "anonymous": false,
      "inputs": [
        {
          "indexed": true,
          "internalType": "address",
          "name": "from",
          "type": "address"
        },
        {
          "indexed": true,
          "internalType": "address",
          "name": "to",
          "type": "address"
        },
        {
          "indexed": true,
          "internalType": "uint256",
          "name": "tokenId",
          "type": "uint256"
        }
      ],
      "name": "Transfer",
      "type": "event"
    },
    {
      "inputs": [],
      "name": "_owner",
      "outputs": [
        {
          "internalType": "address",
          "name": "",
          "type": "address"
        }
      ],
      "stateMutability": "view",
      "type": "function"
    },
    {
      "inputs": [
        {
          "internalType": "address",
          "name": "to",
          "type": "address"
        },
        {
          "internalType": "uint256",
          "name": "tokenId",
          "type": "uint256"
        }
      ],
      "name": "approve",
      "outputs": [],
      "stateMutability": "nonpayable",
      "type": "function"
    },
    {
      "inputs": [
        {
          "internalType": "address",
          "name": "owner",
          "type": "address"
        }
      ],
      "name": "balanceOf",
      "outputs": [
        {
          "internalType": "uint256",
          "name": "",
          "type": "uint256"
        }
      ],
      "stateMutability": "view",
      "type": "function"
    },
    {
      "inputs": [
        {
          "internalType": "uint256",
          "name": "tokenId",
          "type": "uint256"
        }
      ],
      "name": "getApproved",
      "outputs": [
        {
          "internalType": "address",
          "name": "",
          "type": "address"
        }
      ],
      "stateMutability": "view",
      "type": "function"
    },
    {
      "inputs": [
        {
          "internalType": "address",
          "name": "owner",
          "type": "address"
        },
        {
          "internalType": "address",
          "name": "operator",
          "type": "address"
        }
      ],
      "name": "isApprovedForAll",
      "outputs": [
        {
          "internalType": "bool",
          "name": "",
          "type": "bool"
        }
      ],
      "stateMutability": "view",
      "type": "function"
    },
    {
      "inputs": [],
      "name": "name",
      "outputs": [
        {
          "internalType": "string",
          "name": "",
          "type": "string"
        }
      ],
      "stateMutability": "view",
      "type": "function"
    },
    {
      "inputs": [],
      "name": "owner",
      "outputs": [
        {
          "internalType": "address",
          "name": "",
          "type": "address"
        }
      ],
      "stateMutability": "view",
      "type": "function"
    },
    {
      "inputs": [
        {
          "internalType": "uint256",
          "name": "tokenId",
          "type": "uint256"
        }
      ],
      "name": "ownerOf",
      "outputs": [
        {
          "internalType": "address",
          "name": "",
          "type": "address"
        }
      ],
      "stateMutability": "view",
      "type": "function"
    },
    {
      "inputs": [],
      "name": "renounceOwnership",
      "outputs": [],
      "stateMutability": "nonpayable",
      "type": "function"
    },
    {
      "inputs": [
        {
          "internalType": "address",
          "name": "from",
          "type": "address"
        },
        {
          "internalType": "address",
          "name": "to",
          "type": "address"
        },
        {
          "internalType": "uint256",
          "name": "tokenId",
          "type": "uint256"
        }
      ],
      "name": "safeTransferFrom",
      "outputs": [],
      "stateMutability": "nonpayable",
      "type": "function"
    },
    {
      "inputs": [
        {
          "internalType": "address",
          "name": "from",
          "type": "address"
        },
        {
          "internalType": "address",
          "name": "to",
          "type": "address"
        },
        {
          "internalType": "uint256",
          "name": "tokenId",
          "type": "uint256"
        },
        {
          "internalType": "bytes",
          "name": "_data",
          "type": "bytes"
        }
      ],
      "name": "safeTransferFrom",
      "outputs": [],
      "stateMutability": "nonpayable",
      "type": "function"
    },
    {
      "inputs": [
        {
          "internalType": "address",
          "name": "operator",
          "type": "address"
        },
        {
          "internalType": "bool",
          "name": "approved",
          "type": "bool"
        }
      ],
      "name": "setApprovalForAll",
      "outputs": [],
      "stateMutability": "nonpayable",
      "type": "function"
    },
    {
      "inputs": [
        {
          "internalType": "bytes4",
          "name": "interfaceId",
          "type": "bytes4"
        }
      ],
      "name": "supportsInterface",
      "outputs": [
        {
          "internalType": "bool",
          "name": "",
          "type": "bool"
        }
      ],
      "stateMutability": "view",
      "type": "function"
    },
    {
      "inputs": [],
      "name": "symbol",
      "outputs": [
        {
          "internalType": "string",
          "name": "",
          "type": "string"
        }
      ],
      "stateMutability": "view",
      "type": "function"
    },
    {
      "inputs": [
        {
          "internalType": "uint256",
          "name": "",
          "type": "uint256"
        }
      ],
      "name": "tickets",
      "outputs": [
        {
          "internalType": "uint256",
          "name": "id",
          "type": "uint256"
        },
        {
          "internalType": "string",
          "name": "identifier",
          "type": "string"
        },
        {
          "internalType": "uint256",
          "name": "price",
          "type": "uint256"
        }
      ],
      "stateMutability": "view",
      "type": "function"
    },
    {
      "inputs": [
        {
          "internalType": "uint256",
          "name": "tokenId",
          "type": "uint256"
        }
      ],
      "name": "tokenURI",
      "outputs": [
        {
          "internalType": "string",
          "name": "",
          "type": "string"
        }
      ],
      "stateMutability": "view",
      "type": "function"
    },
    {
      "inputs": [
        {
          "internalType": "address",
          "name": "from",
          "type": "address"
        },
        {
          "internalType": "address",
          "name": "to",
          "type": "address"
        },
        {
          "internalType": "uint256",
          "name": "tokenId",
          "type": "uint256"
        }
      ],
      "name": "transferFrom",
      "outputs": [],
      "stateMutability": "nonpayable",
      "type": "function"
    },
    {
      "inputs": [
        {
          "internalType": "address",
          "name": "newOwner",
          "type": "address"
        }
      ],
      "name": "transferOwnership",
      "outputs": [],
      "stateMutability": "nonpayable",
      "type": "function"
    },
    {
      "inputs": [
        {
          "internalType": "string",
          "name": "_tokenURI",
          "type": "string"
        },
        {
          "internalType": "string",
          "name": "identifier",
          "type": "string"
        }
      ],
      "name": "mint",
      "outputs": [
        {
          "internalType": "bool",
          "name": "",
          "type": "bool"
        }
      ],
      "stateMutability": "payable",
      "type": "function"
    },
    {
      "inputs": [
        {
          "internalType": "uint256",
          "name": "_id",
          "type": "uint256"
        }
      ],
      "name": "buyTicket",
      "outputs": [],
      "stateMutability": "payable",
      "type": "function"
    },
    {
      "inputs": [],
      "name": "getTickets",
      "outputs": [
        {
          "components": [
            {
              "internalType": "uint256",
              "name": "id",
              "type": "uint256"
            },
            {
              "internalType": "string",
              "name": "identifier",
              "type": "string"
            },
            {
              "internalType": "uint256",
              "name": "price",
              "type": "uint256"
            }
          ],
          "internalType": "struct BasicTicketCollection.Ticket[]",
          "name": "",
          "type": "tuple[]"
        }
      ],
      "stateMutability": "view",
      "type": "function"
    },
    {
      "inputs": [
        {
          "internalType": "address",
          "name": "_ownerAddress",
          "type": "address"
        }
      ],
      "name": "getOwnerTickets",
      "outputs": [
        {
          "components": [
            {
              "internalType": "uint256",
              "name": "id",
              "type": "uint256"
            },
            {
              "internalType": "string",
              "name": "identifier",
              "type": "string"
            },
            {
              "internalType": "uint256",
              "name": "price",
              "type": "uint256"
            }
          ],
          "internalType": "struct BasicTicketCollection.Ticket[]",
          "name": "",
          "type": "tuple[]"
        }
      ],
      "stateMutability": "view",
      "type": "function"
    }
  ],
  "bytecode": "0x60806040523480156200001157600080fd5b5060405162003ffe38038062003ffe833981810160405281019062000037919062000434565b8282816000908051906020019062000051929190620001ac565b5080600190805190602001906200006a929190620001ac565b5050506200008d62000081620000de60201b60201c565b620000e660201b60201c565b33600860006101000a81548173ffffffffffffffffffffffffffffffffffffffff021916908373ffffffffffffffffffffffffffffffffffffffff16021790555080600a8190555050505062000533565b600033905090565b6000600760009054906101000a900473ffffffffffffffffffffffffffffffffffffffff16905081600760006101000a81548173ffffffffffffffffffffffffffffffffffffffff021916908373ffffffffffffffffffffffffffffffffffffffff1602179055508173ffffffffffffffffffffffffffffffffffffffff168173ffffffffffffffffffffffffffffffffffffffff167f8be0079c531659141344cd1fd0a4f28419497f9722a3daafe3b4186f6b6457e060405160405180910390a35050565b828054620001ba90620004fd565b90600052602060002090601f016020900481019282620001de57600085556200022a565b82601f10620001f957805160ff19168380011785556200022a565b828001600101855582156200022a579182015b82811115620002295782518255916020019190600101906200020c565b5b5090506200023991906200023d565b5090565b5b80821115620002585760008160009055506001016200023e565b5090565b6000604051905090565b600080fd5b600080fd5b600080fd5b600080fd5b6000601f19601f8301169050919050565b7f4e487b7100000000000000000000000000000000000000000000000000000000600052604160045260246000fd5b620002c5826200027a565b810181811067ffffffffffffffff82111715620002e757620002e66200028b565b5b80604052505050565b6000620002fc6200025c565b90506200030a8282620002ba565b919050565b600067ffffffffffffffff8211156200032d576200032c6200028b565b5b62000338826200027a565b9050602081019050919050565b60005b838110156200036557808201518184015260208101905062000348565b8381111562000375576000848401525b50505050565b6000620003926200038c846200030f565b620002f0565b905082815260208101848484011115620003b157620003b062000275565b5b620003be84828562000345565b509392505050565b600082601f830112620003de57620003dd62000270565b5b8151620003f08482602086016200037b565b91505092915050565b6000819050919050565b6200040e81620003f9565b81146200041a57600080fd5b50565b6000815190506200042e8162000403565b92915050565b60008060006060848603121562000450576200044f62000266565b5b600084015167ffffffffffffffff8111156200047157620004706200026b565b5b6200047f86828701620003c6565b935050602084015167ffffffffffffffff811115620004a357620004a26200026b565b5b620004b186828701620003c6565b9250506040620004c4868287016200041d565b9150509250925092565b7f4e487b7100000000000000000000000000000000000000000000000000000000600052602260045260246000fd5b600060028204905060018216806200051657607f821691505b602082108114156200052d576200052c620004ce565b5b50919050565b613abb80620005436000396000f3fe6080604052600436106101355760003560e01c8063715018a6116100ab578063ade3e7281161006f578063ade3e72814610420578063b2bdfa7b1461045d578063b88d4fde14610488578063c87b56dd146104b1578063e985e9c5146104ee578063f2fde38b1461052b57610135565b8063715018a61461035a5780638aa0fdad146103715780638da5cb5b146103a157806395d89b41146103cc578063a22cb465146103f757610135565b806342842e0e116100fd57806342842e0e146102315780634ed026221461025a57806350b44712146102855780636352211e146102c457806367dd74ca1461030157806370a082311461031d57610135565b806301ffc9a71461013a57806306fdde0314610177578063081812fc146101a2578063095ea7b3146101df57806323b872dd14610208575b600080fd5b34801561014657600080fd5b50610161600480360381019061015c9190612460565b610554565b60405161016e91906124a8565b60405180910390f35b34801561018357600080fd5b5061018c610636565b604051610199919061255c565b60405180910390f35b3480156101ae57600080fd5b506101c960048036038101906101c491906125b4565b6106c8565b6040516101d69190612622565b60405180910390f35b3480156101eb57600080fd5b5061020660048036038101906102019190612669565b61074d565b005b34801561021457600080fd5b5061022f600480360381019061022a91906126a9565b610865565b005b34801561023d57600080fd5b50610258600480360381019061025391906126a9565b6108c5565b005b34801561026657600080fd5b5061026f6108e5565b60405161027c9190612867565b60405180910390f35b34801561029157600080fd5b506102ac60048036038101906102a791906125b4565b6109ea565b6040516102bb93929190612898565b60405180910390f35b3480156102d057600080fd5b506102eb60048036038101906102e691906125b4565b610aac565b6040516102f89190612622565b60405180910390f35b61031b600480360381019061031691906125b4565b610b5e565b005b34801561032957600080fd5b50610344600480360381019061033f91906128d6565b610b74565b6040516103519190612903565b60405180910390f35b34801561036657600080fd5b5061036f610c2c565b005b61038b60048036038101906103869190612a53565b610cb4565b60405161039891906124a8565b60405180910390f35b3480156103ad57600080fd5b506103b6610d89565b6040516103c39190612622565b60405180910390f35b3480156103d857600080fd5b506103e1610db3565b6040516103ee919061255c565b60405180910390f35b34801561040357600080fd5b5061041e60048036038101906104199190612af7565b610e45565b005b34801561042c57600080fd5b50610447600480360381019061044291906128d6565b610e5b565b6040516104549190612867565b60405180910390f35b34801561046957600080fd5b50610472611028565b60405161047f9190612622565b60405180910390f35b34801561049457600080fd5b506104af60048036038101906104aa9190612bd8565b61104e565b005b3480156104bd57600080fd5b506104d860048036038101906104d391906125b4565b6110b0565b6040516104e5919061255c565b60405180910390f35b3480156104fa57600080fd5b5061051560048036038101906105109190612c5b565b611202565b60405161052291906124a8565b60405180910390f35b34801561053757600080fd5b50610552600480360381019061054d91906128d6565b611296565b005b60007f80ac58cd000000000000000000000000000000000000000000000000000000007bffffffffffffffffffffffffffffffffffffffffffffffffffffffff1916827bffffffffffffffffffffffffffffffffffffffffffffffffffffffff1916148061061f57507f5b5e139f000000000000000000000000000000000000000000000000000000007bffffffffffffffffffffffffffffffffffffffffffffffffffffffff1916827bffffffffffffffffffffffffffffffffffffffffffffffffffffffff1916145b8061062f575061062e8261138e565b5b9050919050565b60606000805461064590612cca565b80601f016020809104026020016040519081016040528092919081815260200182805461067190612cca565b80156106be5780601f10610693576101008083540402835291602001916106be565b820191906000526020600020905b8154815290600101906020018083116106a157829003601f168201915b5050505050905090565b60006106d3826113f8565b610712576040517f08c379a000000000000000000000000000000000000000000000000000000000815260040161070990612d6e565b60405180910390fd5b6004600083815260200190815260200160002060009054906101000a900473ffffffffffffffffffffffffffffffffffffffff169050919050565b600061075882610aac565b90508073ffffffffffffffffffffffffffffffffffffffff168373ffffffffffffffffffffffffffffffffffffffff1614156107c9576040517f08c379a00000000000000000000000000000000000000000000000000000000081526004016107c090612e00565b60405180910390fd5b8073ffffffffffffffffffffffffffffffffffffffff166107e8611464565b73ffffffffffffffffffffffffffffffffffffffff161480610817575061081681610811611464565b611202565b5b610856576040517f08c379a000000000000000000000000000000000000000000000000000000000815260040161084d90612e92565b60405180910390fd5b610860838361146c565b505050565b610876610870611464565b82611525565b6108b5576040517f08c379a00000000000000000000000000000000000000000000000000000000081526004016108ac90612f24565b60405180910390fd5b6108c0838383611603565b505050565b6108e08383836040518060200160405280600081525061104e565b505050565b6060600b805480602002602001604051908101604052809291908181526020016000905b828210156109e157838290600052602060002090600302016040518060600160405290816000820154815260200160018201805461094690612cca565b80601f016020809104026020016040519081016040528092919081815260200182805461097290612cca565b80156109bf5780601f10610994576101008083540402835291602001916109bf565b820191906000526020600020905b8154815290600101906020018083116109a257829003601f168201915b5050505050815260200160028201548152505081526020019060010190610909565b50505050905090565b600b81815481106109fa57600080fd5b9060005260206000209060030201600091509050806000015490806001018054610a2390612cca565b80601f0160208091040260200160405190810160405280929190818152602001828054610a4f90612cca565b8015610a9c5780601f10610a7157610100808354040283529160200191610a9c565b820191906000526020600020905b815481529060010190602001808311610a7f57829003601f168201915b5050505050908060020154905083565b6000806002600084815260200190815260200160002060009054906101000a900473ffffffffffffffffffffffffffffffffffffffff169050600073ffffffffffffffffffffffffffffffffffffffff168173ffffffffffffffffffffffffffffffffffffffff161415610b55576040517f08c379a0000000000000000000000000000000000000000000000000000000008152600401610b4c90612fb6565b60405180910390fd5b80915050919050565b610b678161186a565b610b7081611923565b5050565b60008073ffffffffffffffffffffffffffffffffffffffff168273ffffffffffffffffffffffffffffffffffffffff161415610be5576040517f08c379a0000000000000000000000000000000000000000000000000000000008152600401610bdc90613048565b60405180910390fd5b600360008373ffffffffffffffffffffffffffffffffffffffff1673ffffffffffffffffffffffffffffffffffffffff168152602001908152602001600020549050919050565b610c34611464565b73ffffffffffffffffffffffffffffffffffffffff16610c52610d89565b73ffffffffffffffffffffffffffffffffffffffff1614610ca8576040517f08c379a0000000000000000000000000000000000000000000000000000000008152600401610c9f906130b4565b60405180910390fd5b610cb26000611a7f565b565b6000806009549050600060405180606001604052806009548152602001858152602001600a548152509050600b819080600181540180825580915050600190039060005260206000209060030201600090919091909150600082015181600001556020820151816001019080519060200190610d31929190612330565b50604082015181600201555050610d483083611b45565b610d528286611d1f565b60096000815480929190610d6590613103565b9190505550610d738261186a565b610d7c82611923565b5060019250505092915050565b6000600760009054906101000a900473ffffffffffffffffffffffffffffffffffffffff16905090565b606060018054610dc290612cca565b80601f0160208091040260200160405190810160405280929190818152602001828054610dee90612cca565b8015610e3b5780601f10610e1057610100808354040283529160200191610e3b565b820191906000526020600020905b815481529060010190602001808311610e1e57829003601f168201915b5050505050905090565b610e57610e50611464565b8383611d93565b5050565b60606000610e6883610b74565b67ffffffffffffffff811115610e8157610e80612928565b5b604051908082528060200260200182016040528015610eba57816020015b610ea76123b6565b815260200190600190039081610e9f5790505b5090506000805b600b8054905081101561101d578473ffffffffffffffffffffffffffffffffffffffff16610eee82610aac565b73ffffffffffffffffffffffffffffffffffffffff16141561100a57600b8181548110610f1e57610f1d61314c565b5b906000526020600020906003020160405180606001604052908160008201548152602001600182018054610f5190612cca565b80601f0160208091040260200160405190810160405280929190818152602001828054610f7d90612cca565b8015610fca5780601f10610f9f57610100808354040283529160200191610fca565b820191906000526020600020905b815481529060010190602001808311610fad57829003601f168201915b50505050508152602001600282015481525050838381518110610ff057610fef61314c565b5b6020026020010181905250818061100690613103565b9250505b808061101590613103565b915050610ec1565b508192505050919050565b600860009054906101000a900473ffffffffffffffffffffffffffffffffffffffff1681565b61105f611059611464565b83611525565b61109e576040517f08c379a000000000000000000000000000000000000000000000000000000000815260040161109590612f24565b60405180910390fd5b6110aa84848484611f00565b50505050565b60606110bb826113f8565b6110fa576040517f08c379a00000000000000000000000000000000000000000000000000000000081526004016110f1906131ed565b60405180910390fd5b600060066000848152602001908152602001600020805461111a90612cca565b80601f016020809104026020016040519081016040528092919081815260200182805461114690612cca565b80156111935780601f1061116857610100808354040283529160200191611193565b820191906000526020600020905b81548152906001019060200180831161117657829003601f168201915b5050505050905060006111a4611f5c565b90506000815114156111ba5781925050506111fd565b6000825111156111ef5780826040516020016111d7929190613249565b604051602081830303815290604052925050506111fd565b6111f884611f73565b925050505b919050565b6000600560008473ffffffffffffffffffffffffffffffffffffffff1673ffffffffffffffffffffffffffffffffffffffff16815260200190815260200160002060008373ffffffffffffffffffffffffffffffffffffffff1673ffffffffffffffffffffffffffffffffffffffff16815260200190815260200160002060009054906101000a900460ff16905092915050565b61129e611464565b73ffffffffffffffffffffffffffffffffffffffff166112bc610d89565b73ffffffffffffffffffffffffffffffffffffffff1614611312576040517f08c379a0000000000000000000000000000000000000000000000000000000008152600401611309906130b4565b60405180910390fd5b600073ffffffffffffffffffffffffffffffffffffffff168173ffffffffffffffffffffffffffffffffffffffff161415611382576040517f08c379a0000000000000000000000000000000000000000000000000000000008152600401611379906132df565b60405180910390fd5b61138b81611a7f565b50565b60007f01ffc9a7000000000000000000000000000000000000000000000000000000007bffffffffffffffffffffffffffffffffffffffffffffffffffffffff1916827bffffffffffffffffffffffffffffffffffffffffffffffffffffffff1916149050919050565b60008073ffffffffffffffffffffffffffffffffffffffff166002600084815260200190815260200160002060009054906101000a900473ffffffffffffffffffffffffffffffffffffffff1673ffffffffffffffffffffffffffffffffffffffff1614159050919050565b600033905090565b816004600083815260200190815260200160002060006101000a81548173ffffffffffffffffffffffffffffffffffffffff021916908373ffffffffffffffffffffffffffffffffffffffff160217905550808273ffffffffffffffffffffffffffffffffffffffff166114df83610aac565b73ffffffffffffffffffffffffffffffffffffffff167f8c5be1e5ebec7d5bd14f71427d1e84f3dd0314c0f7b2291e5b200ac8c7c3b92560405160405180910390a45050565b6000611530826113f8565b61156f576040517f08c379a000000000000000000000000000000000000000000000000000000000815260040161156690613371565b60405180910390fd5b600061157a83610aac565b90508073ffffffffffffffffffffffffffffffffffffffff168473ffffffffffffffffffffffffffffffffffffffff1614806115e957508373ffffffffffffffffffffffffffffffffffffffff166115d1846106c8565b73ffffffffffffffffffffffffffffffffffffffff16145b806115fa57506115f98185611202565b5b91505092915050565b8273ffffffffffffffffffffffffffffffffffffffff1661162382610aac565b73ffffffffffffffffffffffffffffffffffffffff1614611679576040517f08c379a000000000000000000000000000000000000000000000000000000000815260040161167090613403565b60405180910390fd5b600073ffffffffffffffffffffffffffffffffffffffff168273ffffffffffffffffffffffffffffffffffffffff1614156116e9576040517f08c379a00000000000000000000000000000000000000000000000000000000081526004016116e090613495565b60405180910390fd5b6116f483838361201a565b6116ff60008261146c565b6001600360008573ffffffffffffffffffffffffffffffffffffffff1673ffffffffffffffffffffffffffffffffffffffff168152602001908152602001600020600082825461174f91906134b5565b925050819055506001600360008473ffffffffffffffffffffffffffffffffffffffff1673ffffffffffffffffffffffffffffffffffffffff16815260200190815260200160002060008282546117a691906134e9565b92505081905550816002600083815260200190815260200160002060006101000a81548173ffffffffffffffffffffffffffffffffffffffff021916908373ffffffffffffffffffffffffffffffffffffffff160217905550808273ffffffffffffffffffffffffffffffffffffffff168473ffffffffffffffffffffffffffffffffffffffff167fddf252ad1be2c89b69c2b068fc378daa952ba7f163c4a11628f55a4df523b3ef60405160405180910390a461186583838361201f565b505050565b611873816113f8565b6118b2576040517f08c379a00000000000000000000000000000000000000000000000000000000081526004016118a99061358b565b60405180910390fd5b6000600b82815481106118c8576118c761314c565b5b90600052602060002090600302019050806002015434101561191f576040517f08c379a0000000000000000000000000000000000000000000000000000000008152600401611916906135f7565b60405180910390fd5b5050565b61192b6123b6565b611936303384611603565b600860009054906101000a900473ffffffffffffffffffffffffffffffffffffffff1673ffffffffffffffffffffffffffffffffffffffff166108fc349081150290604051600060405180830381858888f1935050505015801561199e573d6000803e3d6000fd5b506000600b83815481106119b5576119b461314c565b5b9060005260206000209060030201905080604051806060016040529081600082015481526020016001820180546119eb90612cca565b80601f0160208091040260200160405190810160405280929190818152602001828054611a1790612cca565b8015611a645780601f10611a3957610100808354040283529160200191611a64565b820191906000526020600020905b815481529060010190602001808311611a4757829003601f168201915b50505050508152602001600282015481525050915050919050565b6000600760009054906101000a900473ffffffffffffffffffffffffffffffffffffffff16905081600760006101000a81548173ffffffffffffffffffffffffffffffffffffffff021916908373ffffffffffffffffffffffffffffffffffffffff1602179055508173ffffffffffffffffffffffffffffffffffffffff168173ffffffffffffffffffffffffffffffffffffffff167f8be0079c531659141344cd1fd0a4f28419497f9722a3daafe3b4186f6b6457e060405160405180910390a35050565b600073ffffffffffffffffffffffffffffffffffffffff168273ffffffffffffffffffffffffffffffffffffffff161415611bb5576040517f08c379a0000000000000000000000000000000000000000000000000000000008152600401611bac90613663565b60405180910390fd5b611bbe816113f8565b15611bfe576040517f08c379a0000000000000000000000000000000000000000000000000000000008152600401611bf5906136cf565b60405180910390fd5b611c0a6000838361201a565b6001600360008473ffffffffffffffffffffffffffffffffffffffff1673ffffffffffffffffffffffffffffffffffffffff1681526020019081526020016000206000828254611c5a91906134e9565b92505081905550816002600083815260200190815260200160002060006101000a81548173ffffffffffffffffffffffffffffffffffffffff021916908373ffffffffffffffffffffffffffffffffffffffff160217905550808273ffffffffffffffffffffffffffffffffffffffff16600073ffffffffffffffffffffffffffffffffffffffff167fddf252ad1be2c89b69c2b068fc378daa952ba7f163c4a11628f55a4df523b3ef60405160405180910390a4611d1b6000838361201f565b5050565b611d28826113f8565b611d67576040517f08c379a0000000000000000000000000000000000000000000000000000000008152600401611d5e90613761565b60405180910390fd5b80600660008481526020019081526020016000209080519060200190611d8e929190612330565b505050565b8173ffffffffffffffffffffffffffffffffffffffff168373ffffffffffffffffffffffffffffffffffffffff161415611e02576040517f08c379a0000000000000000000000000000000000000000000000000000000008152600401611df9906137cd565b60405180910390fd5b80600560008573ffffffffffffffffffffffffffffffffffffffff1673ffffffffffffffffffffffffffffffffffffffff16815260200190815260200160002060008473ffffffffffffffffffffffffffffffffffffffff1673ffffffffffffffffffffffffffffffffffffffff16815260200190815260200160002060006101000a81548160ff0219169083151502179055508173ffffffffffffffffffffffffffffffffffffffff168373ffffffffffffffffffffffffffffffffffffffff167f17307eab39ab6107e8899845ad3d59bd9653f200f220920489ca2b5937696c3183604051611ef391906124a8565b60405180910390a3505050565b611f0b848484611603565b611f1784848484612024565b611f56576040517f08c379a0000000000000000000000000000000000000000000000000000000008152600401611f4d9061385f565b60405180910390fd5b50505050565b606060405180602001604052806000815250905090565b6060611f7e826113f8565b611fbd576040517f08c379a0000000000000000000000000000000000000000000000000000000008152600401611fb4906138f1565b60405180910390fd5b6000611fc7611f5c565b90506000815111611fe75760405180602001604052806000815250612012565b80611ff1846121ac565b604051602001612002929190613249565b6040516020818303038152906040525b915050919050565b505050565b505050565b60006120458473ffffffffffffffffffffffffffffffffffffffff1661230d565b1561219f578373ffffffffffffffffffffffffffffffffffffffff1663150b7a0261206e611464565b8786866040518563ffffffff1660e01b81526004016120909493929190613966565b6020604051808303816000875af19250505080156120cc57506040513d601f19601f820116820180604052508101906120c991906139c7565b60015b61214f573d80600081146120fc576040519150601f19603f3d011682016040523d82523d6000602084013e612101565b606091505b50600081511415612147576040517f08c379a000000000000000000000000000000000000000000000000000000000815260040161213e9061385f565b60405180910390fd5b805181602001fd5b63150b7a0260e01b7bffffffffffffffffffffffffffffffffffffffffffffffffffffffff1916817bffffffffffffffffffffffffffffffffffffffffffffffffffffffff1916149150506121a4565b600190505b949350505050565b606060008214156121f4576040518060400160405280600181526020017f30000000000000000000000000000000000000000000000000000000000000008152509050612308565b600082905060005b6000821461222657808061220f90613103565b915050600a8261221f9190613a23565b91506121fc565b60008167ffffffffffffffff81111561224257612241612928565b5b6040519080825280601f01601f1916602001820160405280156122745781602001600182028036833780820191505090505b5090505b600085146123015760018261228d91906134b5565b9150600a8561229c9190613a54565b60306122a891906134e9565b60f81b8183815181106122be576122bd61314c565b5b60200101907effffffffffffffffffffffffffffffffffffffffffffffffffffffffffffff1916908160001a905350600a856122fa9190613a23565b9450612278565b8093505050505b919050565b6000808273ffffffffffffffffffffffffffffffffffffffff163b119050919050565b82805461233c90612cca565b90600052602060002090601f01602090048101928261235e57600085556123a5565b82601f1061237757805160ff19168380011785556123a5565b828001600101855582156123a5579182015b828111156123a4578251825591602001919060010190612389565b5b5090506123b291906123d7565b5090565b60405180606001604052806000815260200160608152602001600081525090565b5b808211156123f05760008160009055506001016123d8565b5090565b6000604051905090565b600080fd5b600080fd5b60007fffffffff0000000000000000000000000000000000000000000000000000000082169050919050565b61243d81612408565b811461244857600080fd5b50565b60008135905061245a81612434565b92915050565b600060208284031215612476576124756123fe565b5b60006124848482850161244b565b91505092915050565b60008115159050919050565b6124a28161248d565b82525050565b60006020820190506124bd6000830184612499565b92915050565b600081519050919050565b600082825260208201905092915050565b60005b838110156124fd5780820151818401526020810190506124e2565b8381111561250c576000848401525b50505050565b6000601f19601f8301169050919050565b600061252e826124c3565b61253881856124ce565b93506125488185602086016124df565b61255181612512565b840191505092915050565b600060208201905081810360008301526125768184612523565b905092915050565b6000819050919050565b6125918161257e565b811461259c57600080fd5b50565b6000813590506125ae81612588565b92915050565b6000602082840312156125ca576125c96123fe565b5b60006125d88482850161259f565b91505092915050565b600073ffffffffffffffffffffffffffffffffffffffff82169050919050565b600061260c826125e1565b9050919050565b61261c81612601565b82525050565b60006020820190506126376000830184612613565b92915050565b61264681612601565b811461265157600080fd5b50565b6000813590506126638161263d565b92915050565b600080604083850312156126805761267f6123fe565b5b600061268e85828601612654565b925050602061269f8582860161259f565b9150509250929050565b6000806000606084860312156126c2576126c16123fe565b5b60006126d086828701612654565b93505060206126e186828701612654565b92505060406126f28682870161259f565b9150509250925092565b600081519050919050565b600082825260208201905092915050565b6000819050602082019050919050565b6127318161257e565b82525050565b600082825260208201905092915050565b6000612753826124c3565b61275d8185612737565b935061276d8185602086016124df565b61277681612512565b840191505092915050565b60006060830160008301516127996000860182612728565b50602083015184820360208601526127b18282612748565b91505060408301516127c66040860182612728565b508091505092915050565b60006127dd8383612781565b905092915050565b6000602082019050919050565b60006127fd826126fc565b6128078185612707565b93508360208202850161281985612718565b8060005b85811015612855578484038952815161283685826127d1565b9450612841836127e5565b925060208a0199505060018101905061281d565b50829750879550505050505092915050565b6000602082019050818103600083015261288181846127f2565b905092915050565b6128928161257e565b82525050565b60006060820190506128ad6000830186612889565b81810360208301526128bf8185612523565b90506128ce6040830184612889565b949350505050565b6000602082840312156128ec576128eb6123fe565b5b60006128fa84828501612654565b91505092915050565b60006020820190506129186000830184612889565b92915050565b600080fd5b600080fd5b7f4e487b7100000000000000000000000000000000000000000000000000000000600052604160045260246000fd5b61296082612512565b810181811067ffffffffffffffff8211171561297f5761297e612928565b5b80604052505050565b60006129926123f4565b905061299e8282612957565b919050565b600067ffffffffffffffff8211156129be576129bd612928565b5b6129c782612512565b9050602081019050919050565b82818337600083830152505050565b60006129f66129f1846129a3565b612988565b905082815260208101848484011115612a1257612a11612923565b5b612a1d8482856129d4565b509392505050565b600082601f830112612a3a57612a3961291e565b5b8135612a4a8482602086016129e3565b91505092915050565b60008060408385031215612a6a57612a696123fe565b5b600083013567ffffffffffffffff811115612a8857612a87612403565b5b612a9485828601612a25565b925050602083013567ffffffffffffffff811115612ab557612ab4612403565b5b612ac185828601612a25565b9150509250929050565b612ad48161248d565b8114612adf57600080fd5b50565b600081359050612af181612acb565b92915050565b60008060408385031215612b0e57612b0d6123fe565b5b6000612b1c85828601612654565b9250506020612b2d85828601612ae2565b9150509250929050565b600067ffffffffffffffff821115612b5257612b51612928565b5b612b5b82612512565b9050602081019050919050565b6000612b7b612b7684612b37565b612988565b905082815260208101848484011115612b9757612b96612923565b5b612ba28482856129d4565b509392505050565b600082601f830112612bbf57612bbe61291e565b5b8135612bcf848260208601612b68565b91505092915050565b60008060008060808587031215612bf257612bf16123fe565b5b6000612c0087828801612654565b9450506020612c1187828801612654565b9350506040612c228782880161259f565b925050606085013567ffffffffffffffff811115612c4357612c42612403565b5b612c4f87828801612baa565b91505092959194509250565b60008060408385031215612c7257612c716123fe565b5b6000612c8085828601612654565b9250506020612c9185828601612654565b9150509250929050565b7f4e487b7100000000000000000000000000000000000000000000000000000000600052602260045260246000fd5b60006002820490506001821680612ce257607f821691505b60208210811415612cf657612cf5612c9b565b5b50919050565b7f4552433732313a20617070726f76656420717565727920666f72206e6f6e657860008201527f697374656e7420746f6b656e0000000000000000000000000000000000000000602082015250565b6000612d58602c836124ce565b9150612d6382612cfc565b604082019050919050565b60006020820190508181036000830152612d8781612d4b565b9050919050565b7f4552433732313a20617070726f76616c20746f2063757272656e74206f776e6560008201527f7200000000000000000000000000000000000000000000000000000000000000602082015250565b6000612dea6021836124ce565b9150612df582612d8e565b604082019050919050565b60006020820190508181036000830152612e1981612ddd565b9050919050565b7f4552433732313a20617070726f76652063616c6c6572206973206e6f74206f7760008201527f6e6572206e6f7220617070726f76656420666f7220616c6c0000000000000000602082015250565b6000612e7c6038836124ce565b9150612e8782612e20565b604082019050919050565b60006020820190508181036000830152612eab81612e6f565b9050919050565b7f4552433732313a207472616e736665722063616c6c6572206973206e6f74206f60008201527f776e6572206e6f7220617070726f766564000000000000000000000000000000602082015250565b6000612f0e6031836124ce565b9150612f1982612eb2565b604082019050919050565b60006020820190508181036000830152612f3d81612f01565b9050919050565b7f4552433732313a206f776e657220717565727920666f72206e6f6e657869737460008201527f656e7420746f6b656e0000000000000000000000000000000000000000000000602082015250565b6000612fa06029836124ce565b9150612fab82612f44565b604082019050919050565b60006020820190508181036000830152612fcf81612f93565b9050919050565b7f4552433732313a2062616c616e636520717565727920666f7220746865207a6560008201527f726f206164647265737300000000000000000000000000000000000000000000602082015250565b6000613032602a836124ce565b915061303d82612fd6565b604082019050919050565b6000602082019050818103600083015261306181613025565b9050919050565b7f4f776e61626c653a2063616c6c6572206973206e6f7420746865206f776e6572600082015250565b600061309e6020836124ce565b91506130a982613068565b602082019050919050565b600060208201905081810360008301526130cd81613091565b9050919050565b7f4e487b7100000000000000000000000000000000000000000000000000000000600052601160045260246000fd5b600061310e8261257e565b91507fffffffffffffffffffffffffffffffffffffffffffffffffffffffffffffffff821415613141576131406130d4565b5b600182019050919050565b7f4e487b7100000000000000000000000000000000000000000000000000000000600052603260045260246000fd5b7f45524337323155524953746f726167653a2055524920717565727920666f722060008201527f6e6f6e6578697374656e7420746f6b656e000000000000000000000000000000602082015250565b60006131d76031836124ce565b91506131e28261317b565b604082019050919050565b60006020820190508181036000830152613206816131ca565b9050919050565b600081905092915050565b6000613223826124c3565b61322d818561320d565b935061323d8185602086016124df565b80840191505092915050565b60006132558285613218565b91506132618284613218565b91508190509392505050565b7f4f776e61626c653a206e6577206f776e657220697320746865207a65726f206160008201527f6464726573730000000000000000000000000000000000000000000000000000602082015250565b60006132c96026836124ce565b91506132d48261326d565b604082019050919050565b600060208201905081810360008301526132f8816132bc565b9050919050565b7f4552433732313a206f70657261746f7220717565727920666f72206e6f6e657860008201527f697374656e7420746f6b656e0000000000000000000000000000000000000000602082015250565b600061335b602c836124ce565b9150613366826132ff565b604082019050919050565b6000602082019050818103600083015261338a8161334e565b9050919050565b7f4552433732313a207472616e736665722066726f6d20696e636f72726563742060008201527f6f776e6572000000000000000000000000000000000000000000000000000000602082015250565b60006133ed6025836124ce565b91506133f882613391565b604082019050919050565b6000602082019050818103600083015261341c816133e0565b9050919050565b7f4552433732313a207472616e7366657220746f20746865207a65726f2061646460008201527f7265737300000000000000000000000000000000000000000000000000000000602082015250565b600061347f6024836124ce565b915061348a82613423565b604082019050919050565b600060208201905081810360008301526134ae81613472565b9050919050565b60006134c08261257e565b91506134cb8361257e565b9250828210156134de576134dd6130d4565b5b828203905092915050565b60006134f48261257e565b91506134ff8361257e565b9250827fffffffffffffffffffffffffffffffffffffffffffffffffffffffffffffffff03821115613534576135336130d4565b5b828201905092915050565b7f4572726f722c2077726f6e6720546f6b656e2069640000000000000000000000600082015250565b60006135756015836124ce565b91506135808261353f565b602082019050919050565b600060208201905081810360008301526135a481613568565b9050919050565b7f4572726f722c20546f6b656e20636f737473206d6f7265000000000000000000600082015250565b60006135e16017836124ce565b91506135ec826135ab565b602082019050919050565b60006020820190508181036000830152613610816135d4565b9050919050565b7f4552433732313a206d696e7420746f20746865207a65726f2061646472657373600082015250565b600061364d6020836124ce565b915061365882613617565b602082019050919050565b6000602082019050818103600083015261367c81613640565b9050919050565b7f4552433732313a20746f6b656e20616c7265616479206d696e74656400000000600082015250565b60006136b9601c836124ce565b91506136c482613683565b602082019050919050565b600060208201905081810360008301526136e8816136ac565b9050919050565b7f45524337323155524953746f726167653a2055524920736574206f66206e6f6e60008201527f6578697374656e7420746f6b656e000000000000000000000000000000000000602082015250565b600061374b602e836124ce565b9150613756826136ef565b604082019050919050565b6000602082019050818103600083015261377a8161373e565b9050919050565b7f4552433732313a20617070726f766520746f2063616c6c657200000000000000600082015250565b60006137b76019836124ce565b91506137c282613781565b602082019050919050565b600060208201905081810360008301526137e6816137aa565b9050919050565b7f4552433732313a207472616e7366657220746f206e6f6e20455243373231526560008201527f63656976657220696d706c656d656e7465720000000000000000000000000000602082015250565b60006138496032836124ce565b9150613854826137ed565b604082019050919050565b600060208201905081810360008301526138788161383c565b9050919050565b7f4552433732314d657461646174613a2055524920717565727920666f72206e6f60008201527f6e6578697374656e7420746f6b656e0000000000000000000000000000000000602082015250565b60006138db602f836124ce565b91506138e68261387f565b604082019050919050565b6000602082019050818103600083015261390a816138ce565b9050919050565b600081519050919050565b600082825260208201905092915050565b600061393882613911565b613942818561391c565b93506139528185602086016124df565b61395b81612512565b840191505092915050565b600060808201905061397b6000830187612613565b6139886020830186612613565b6139956040830185612889565b81810360608301526139a7818461392d565b905095945050505050565b6000815190506139c181612434565b92915050565b6000602082840312156139dd576139dc6123fe565b5b60006139eb848285016139b2565b91505092915050565b7f4e487b7100000000000000000000000000000000000000000000000000000000600052601260045260246000fd5b6000613a2e8261257e565b9150613a398361257e565b925082613a4957613a486139f4565b5b828204905092915050565b6000613a5f8261257e565b9150613a6a8361257e565b925082613a7a57613a796139f4565b5b82820690509291505056fea2646970667358221220b4e26b3966f4c0f7ad2ed789d8fcd225e919cf6716d59fa34937ceb4310d89d964736f6c634300080c0033",
  "immutableReferences": {},
  "source": "// SPDX-License-Identifier: GPL-3.0\npragma solidity >=0.6.0 <0.9.0;\n\nimport \"@openzeppelin/contracts/token/ERC721/ERC721.sol\";\nimport \"@openzeppelin/contracts/access/Ownable.sol\";\nimport \"@openzeppelin/contracts/token/ERC721/extensions/ERC721URIStorage.sol\";\n\ncontract BasicTicketCollection is ERC721URIStorage, Ownable {\n    address public _owner;\n    uint256 COUNTER;\n    uint256 price;\n\n    struct Ticket {\n        uint256 id;\n        string identifier;\n        uint256 price;\n    }\n\n    Ticket[] public tickets;\n\n    constructor(string memory _name, string memory _ticker, uint256 _price)\n        ERC721(_name, _ticker)\n    {\n        _owner = msg.sender;\n        price = _price;\n    }\n\n    function mint(\n        string memory _tokenURI,\n        string memory identifier\n    ) public payable returns (bool) {\n        uint256 _tokenId = COUNTER;\n        Ticket memory newTicket = Ticket(COUNTER, identifier, price);\n        tickets.push(newTicket);\n        _mint(address(this), _tokenId);\n        _setTokenURI(_tokenId, _tokenURI);\n        COUNTER++;\n         _validate(_tokenId);\n        _trade(_tokenId);        \n        return true;\n    }\n\n    function _validate(uint256 _id) internal {\n        require(_exists(_id), \"Error, wrong Token id\"); //not exists\n        Ticket storage ticket = tickets[_id];\n        require(msg.value >= ticket.price, \"Error, Token costs more\"); //costs more\n    }\n\n    function _trade(uint256 _id) internal returns (Ticket memory) {\n        _transfer(address(this), msg.sender, _id); //nft to user\n        payable(_owner).transfer(msg.value); //eth to owner\n        Ticket storage ticket = tickets[_id];\n        return ticket;\n    }\n\n    function buyTicket(uint256 _id) public payable {\n        _validate(_id);\n        _trade(_id);\n    }\n\n    function getTickets() public view returns (Ticket[] memory) {\n        return tickets;\n    }\n\n    function getOwnerTickets(address _ownerAddress) public view returns (Ticket[] memory) {\n        Ticket[] memory result = new Ticket[](balanceOf(_ownerAddress));\n        uint256 counter = 0;\n        for (uint256 i = 0; i < tickets.length; i++) {\n            if (ownerOf(i) == _ownerAddress) {\n                result[counter] = tickets[i];\n                counter++;\n            }\n        }\n        return result;\n    }\n}\n",
  "sourcePath": "/workspace/nft-ticketting/backend/contracts/BasicTicketCollection.sol",
  "compiler": {
    "name": "solc",
    "version": "0.8.12+commit.f00d7308.Emscripten.clang"
  },
  "schemaVersion": "3.4.5",
  "updatedAt": "2022-02-24T15:54:27.704Z",
  "devdoc": {
    "kind": "dev",
    "methods": {
      "approve(address,uint256)": {
        "details": "See {IERC721-approve}."
      },
      "balanceOf(address)": {
        "details": "See {IERC721-balanceOf}."
      },
      "getApproved(uint256)": {
        "details": "See {IERC721-getApproved}."
      },
      "isApprovedForAll(address,address)": {
        "details": "See {IERC721-isApprovedForAll}."
      },
      "name()": {
        "details": "See {IERC721Metadata-name}."
      },
      "owner()": {
        "details": "Returns the address of the current owner."
      },
      "ownerOf(uint256)": {
        "details": "See {IERC721-ownerOf}."
      },
      "renounceOwnership()": {
        "details": "Leaves the contract without owner. It will not be possible to call `onlyOwner` functions anymore. Can only be called by the current owner. NOTE: Renouncing ownership will leave the contract without an owner, thereby removing any functionality that is only available to the owner."
      },
      "safeTransferFrom(address,address,uint256)": {
        "details": "See {IERC721-safeTransferFrom}."
      },
      "safeTransferFrom(address,address,uint256,bytes)": {
        "details": "See {IERC721-safeTransferFrom}."
      },
      "setApprovalForAll(address,bool)": {
        "details": "See {IERC721-setApprovalForAll}."
      },
      "supportsInterface(bytes4)": {
        "details": "See {IERC165-supportsInterface}."
      },
      "symbol()": {
        "details": "See {IERC721Metadata-symbol}."
      },
      "tokenURI(uint256)": {
        "details": "See {IERC721Metadata-tokenURI}."
      },
      "transferFrom(address,address,uint256)": {
        "details": "See {IERC721-transferFrom}."
      },
      "transferOwnership(address)": {
        "details": "Transfers ownership of the contract to a new account (`newOwner`). Can only be called by the current owner."
      }
    },
    "version": 1
  },
  "userdoc": {
    "kind": "user",
    "methods": {},
    "version": 1
  }
}