{
  "contractName": "ClassifiedTicketCollection",
  "abi": [
    {
      "inputs": [
        {
          "internalType": "string",
          "name": "_name",
          "type": "string"
        },
        {
          "internalType": "string",
          "name": "_ticker",
          "type": "string"
        },
        {
          "components": [
            {
              "internalType": "uint256",
              "name": "price",
              "type": "uint256"
            },
            {
              "internalType": "string",
              "name": "label",
              "type": "string"
            }
          ],
          "internalType": "struct ClassifiedTicketCollection.TicketClass[]",
          "name": "_ticketClasses",
          "type": "tuple[]"
        }
      ],
      "stateMutability": "nonpayable",
      "type": "constructor"
    },
    {
      "anonymous": false,
      "inputs": [
        {
          "indexed": true,
          "internalType": "address",
          "name": "owner",
          "type": "address"
        },
        {
          "indexed": true,
          "internalType": "address",
          "name": "approved",
          "type": "address"
        },
        {
          "indexed": true,
          "internalType": "uint256",
          "name": "tokenId",
          "type": "uint256"
        }
      ],
      "name": "Approval",
      "type": "event"
    },
    {
      "anonymous": false,
      "inputs": [
        {
          "indexed": true,
          "internalType": "address",
          "name": "owner",
          "type": "address"
        },
        {
          "indexed": true,
          "internalType": "address",
          "name": "operator",
          "type": "address"
        },
        {
          "indexed": false,
          "internalType": "bool",
          "name": "approved",
          "type": "bool"
        }
      ],
      "name": "ApprovalForAll",
      "type": "event"
    },
    {
      "anonymous": false,
      "inputs": [
        {
          "indexed": true,
          "internalType": "address",
          "name": "previousOwner",
          "type": "address"
        },
        {
          "indexed": true,
          "internalType": "address",
          "name": "newOwner",
          "type": "address"
        }
      ],
      "name": "OwnershipTransferred",
      "type": "event"
    },
    {
      "anonymous": false,
      "inputs": [
        {
          "indexed": true,
          "internalType": "address",
          "name": "from",
          "type": "address"
        },
        {
          "indexed": true,
          "internalType": "address",
          "name": "to",
          "type": "address"
        },
        {
          "indexed": true,
          "internalType": "uint256",
          "name": "tokenId",
          "type": "uint256"
        }
      ],
      "name": "Transfer",
      "type": "event"
    },
    {
      "inputs": [],
      "name": "_owner",
      "outputs": [
        {
          "internalType": "address",
          "name": "",
          "type": "address"
        }
      ],
      "stateMutability": "view",
      "type": "function"
    },
    {
      "inputs": [
        {
          "internalType": "address",
          "name": "to",
          "type": "address"
        },
        {
          "internalType": "uint256",
          "name": "tokenId",
          "type": "uint256"
        }
      ],
      "name": "approve",
      "outputs": [],
      "stateMutability": "nonpayable",
      "type": "function"
    },
    {
      "inputs": [
        {
          "internalType": "address",
          "name": "owner",
          "type": "address"
        }
      ],
      "name": "balanceOf",
      "outputs": [
        {
          "internalType": "uint256",
          "name": "",
          "type": "uint256"
        }
      ],
      "stateMutability": "view",
      "type": "function"
    },
    {
      "inputs": [
        {
          "internalType": "uint256",
          "name": "tokenId",
          "type": "uint256"
        }
      ],
      "name": "getApproved",
      "outputs": [
        {
          "internalType": "address",
          "name": "",
          "type": "address"
        }
      ],
      "stateMutability": "view",
      "type": "function"
    },
    {
      "inputs": [
        {
          "internalType": "address",
          "name": "owner",
          "type": "address"
        },
        {
          "internalType": "address",
          "name": "operator",
          "type": "address"
        }
      ],
      "name": "isApprovedForAll",
      "outputs": [
        {
          "internalType": "bool",
          "name": "",
          "type": "bool"
        }
      ],
      "stateMutability": "view",
      "type": "function"
    },
    {
      "inputs": [],
      "name": "name",
      "outputs": [
        {
          "internalType": "string",
          "name": "",
          "type": "string"
        }
      ],
      "stateMutability": "view",
      "type": "function"
    },
    {
      "inputs": [],
      "name": "owner",
      "outputs": [
        {
          "internalType": "address",
          "name": "",
          "type": "address"
        }
      ],
      "stateMutability": "view",
      "type": "function"
    },
    {
      "inputs": [
        {
          "internalType": "uint256",
          "name": "tokenId",
          "type": "uint256"
        }
      ],
      "name": "ownerOf",
      "outputs": [
        {
          "internalType": "address",
          "name": "",
          "type": "address"
        }
      ],
      "stateMutability": "view",
      "type": "function"
    },
    {
      "inputs": [],
      "name": "renounceOwnership",
      "outputs": [],
      "stateMutability": "nonpayable",
      "type": "function"
    },
    {
      "inputs": [
        {
          "internalType": "address",
          "name": "from",
          "type": "address"
        },
        {
          "internalType": "address",
          "name": "to",
          "type": "address"
        },
        {
          "internalType": "uint256",
          "name": "tokenId",
          "type": "uint256"
        }
      ],
      "name": "safeTransferFrom",
      "outputs": [],
      "stateMutability": "nonpayable",
      "type": "function"
    },
    {
      "inputs": [
        {
          "internalType": "address",
          "name": "from",
          "type": "address"
        },
        {
          "internalType": "address",
          "name": "to",
          "type": "address"
        },
        {
          "internalType": "uint256",
          "name": "tokenId",
          "type": "uint256"
        },
        {
          "internalType": "bytes",
          "name": "_data",
          "type": "bytes"
        }
      ],
      "name": "safeTransferFrom",
      "outputs": [],
      "stateMutability": "nonpayable",
      "type": "function"
    },
    {
      "inputs": [
        {
          "internalType": "address",
          "name": "operator",
          "type": "address"
        },
        {
          "internalType": "bool",
          "name": "approved",
          "type": "bool"
        }
      ],
      "name": "setApprovalForAll",
      "outputs": [],
      "stateMutability": "nonpayable",
      "type": "function"
    },
    {
      "inputs": [
        {
          "internalType": "bytes4",
          "name": "interfaceId",
          "type": "bytes4"
        }
      ],
      "name": "supportsInterface",
      "outputs": [
        {
          "internalType": "bool",
          "name": "",
          "type": "bool"
        }
      ],
      "stateMutability": "view",
      "type": "function"
    },
    {
      "inputs": [],
      "name": "symbol",
      "outputs": [
        {
          "internalType": "string",
          "name": "",
          "type": "string"
        }
      ],
      "stateMutability": "view",
      "type": "function"
    },
    {
      "inputs": [
        {
          "internalType": "uint256",
          "name": "",
          "type": "uint256"
        }
      ],
      "name": "ticketClasses",
      "outputs": [
        {
          "internalType": "uint256",
          "name": "price",
          "type": "uint256"
        },
        {
          "internalType": "string",
          "name": "label",
          "type": "string"
        }
      ],
      "stateMutability": "view",
      "type": "function"
    },
    {
      "inputs": [
        {
          "internalType": "uint256",
          "name": "",
          "type": "uint256"
        }
      ],
      "name": "tickets",
      "outputs": [
        {
          "internalType": "uint256",
          "name": "id",
          "type": "uint256"
        },
        {
          "internalType": "string",
          "name": "identifier",
          "type": "string"
        },
        {
          "components": [
            {
              "internalType": "uint256",
              "name": "price",
              "type": "uint256"
            },
            {
              "internalType": "string",
              "name": "label",
              "type": "string"
            }
          ],
          "internalType": "struct ClassifiedTicketCollection.TicketClass",
          "name": "ticketClass",
          "type": "tuple"
        }
      ],
      "stateMutability": "view",
      "type": "function"
    },
    {
      "inputs": [
        {
          "internalType": "uint256",
          "name": "tokenId",
          "type": "uint256"
        }
      ],
      "name": "tokenURI",
      "outputs": [
        {
          "internalType": "string",
          "name": "",
          "type": "string"
        }
      ],
      "stateMutability": "view",
      "type": "function"
    },
    {
      "inputs": [
        {
          "internalType": "address",
          "name": "from",
          "type": "address"
        },
        {
          "internalType": "address",
          "name": "to",
          "type": "address"
        },
        {
          "internalType": "uint256",
          "name": "tokenId",
          "type": "uint256"
        }
      ],
      "name": "transferFrom",
      "outputs": [],
      "stateMutability": "nonpayable",
      "type": "function"
    },
    {
      "inputs": [
        {
          "internalType": "address",
          "name": "newOwner",
          "type": "address"
        }
      ],
      "name": "transferOwnership",
      "outputs": [],
      "stateMutability": "nonpayable",
      "type": "function"
    },
    {
      "inputs": [
        {
          "internalType": "string",
          "name": "_tokenURI",
          "type": "string"
        },
        {
          "internalType": "uint256",
          "name": "_ticketClassID",
          "type": "uint256"
        },
        {
          "internalType": "string",
          "name": "identifier",
          "type": "string"
        }
      ],
      "name": "mint",
      "outputs": [
        {
          "internalType": "bool",
          "name": "",
          "type": "bool"
        }
      ],
      "stateMutability": "payable",
      "type": "function"
    },
    {
      "inputs": [
        {
          "components": [
            {
              "internalType": "uint256",
              "name": "price",
              "type": "uint256"
            },
            {
              "internalType": "string",
              "name": "label",
              "type": "string"
            }
          ],
          "internalType": "struct ClassifiedTicketCollection.TicketClass[]",
          "name": "_ticketClasses",
          "type": "tuple[]"
        }
      ],
      "name": "addTicketClass",
      "outputs": [],
      "stateMutability": "nonpayable",
      "type": "function"
    },
    {
      "inputs": [
        {
          "internalType": "uint256",
          "name": "_id",
          "type": "uint256"
        }
      ],
      "name": "buyTicket",
      "outputs": [],
      "stateMutability": "payable",
      "type": "function"
    },
    {
      "inputs": [],
      "name": "getTickets",
      "outputs": [
        {
          "components": [
            {
              "internalType": "uint256",
              "name": "id",
              "type": "uint256"
            },
            {
              "internalType": "string",
              "name": "identifier",
              "type": "string"
            },
            {
              "components": [
                {
                  "internalType": "uint256",
                  "name": "price",
                  "type": "uint256"
                },
                {
                  "internalType": "string",
                  "name": "label",
                  "type": "string"
                }
              ],
              "internalType": "struct ClassifiedTicketCollection.TicketClass",
              "name": "ticketClass",
              "type": "tuple"
            }
          ],
          "internalType": "struct ClassifiedTicketCollection.Ticket[]",
          "name": "",
          "type": "tuple[]"
        }
      ],
      "stateMutability": "view",
      "type": "function"
    },
    {
      "inputs": [
        {
          "internalType": "address",
          "name": "_ownerAddress",
          "type": "address"
        }
      ],
      "name": "getOwnerTickets",
      "outputs": [
        {
          "components": [
            {
              "internalType": "uint256",
              "name": "id",
              "type": "uint256"
            },
            {
              "internalType": "string",
              "name": "identifier",
              "type": "string"
            },
            {
              "components": [
                {
                  "internalType": "uint256",
                  "name": "price",
                  "type": "uint256"
                },
                {
                  "internalType": "string",
                  "name": "label",
                  "type": "string"
                }
              ],
              "internalType": "struct ClassifiedTicketCollection.TicketClass",
              "name": "ticketClass",
              "type": "tuple"
            }
          ],
          "internalType": "struct ClassifiedTicketCollection.Ticket[]",
          "name": "",
          "type": "tuple[]"
        }
      ],
      "stateMutability": "view",
      "type": "function"
    }
  ],
  "bytecode": "0x60806040523480156200001157600080fd5b5060405162004b1b38038062004b1b833981810160405281019062000037919062000679565b828281600090805190602001906200005192919062000273565b5080600190805190602001906200006a92919062000273565b5050506200008d62000081620000e860201b60201c565b620000f060201b60201c565b33600860006101000a81548173ffffffffffffffffffffffffffffffffffffffff021916908373ffffffffffffffffffffffffffffffffffffffff160217905550620000df81620001b660201b60201c565b50505062000843565b600033905090565b6000600760009054906101000a900473ffffffffffffffffffffffffffffffffffffffff16905081600760006101000a81548173ffffffffffffffffffffffffffffffffffffffff021916908373ffffffffffffffffffffffffffffffffffffffff1602179055508173ffffffffffffffffffffffffffffffffffffffff168173ffffffffffffffffffffffffffffffffffffffff167f8be0079c531659141344cd1fd0a4f28419497f9722a3daafe3b4186f6b6457e060405160405180910390a35050565b60005b81518110156200026f576000828281518110620001db57620001da62000732565b5b60200260200101519050600b604051806040016040528083600001518152602001836020015181525090806001815401808255809150506001900390600052602060002090600202016000909190919091506000820151816000015560208201518160010190805190602001906200025592919062000273565b505050508080620002669062000790565b915050620001b9565b5050565b82805462000281906200080d565b90600052602060002090601f016020900481019282620002a55760008555620002f1565b82601f10620002c057805160ff1916838001178555620002f1565b82800160010185558215620002f1579182015b82811115620002f0578251825591602001919060010190620002d3565b5b50905062000300919062000304565b5090565b5b808211156200031f57600081600090555060010162000305565b5090565b6000604051905090565b600080fd5b600080fd5b600080fd5b600080fd5b6000601f19601f8301169050919050565b7f4e487b7100000000000000000000000000000000000000000000000000000000600052604160045260246000fd5b6200038c8262000341565b810181811067ffffffffffffffff82111715620003ae57620003ad62000352565b5b80604052505050565b6000620003c362000323565b9050620003d1828262000381565b919050565b600067ffffffffffffffff821115620003f457620003f362000352565b5b620003ff8262000341565b9050602081019050919050565b60005b838110156200042c5780820151818401526020810190506200040f565b838111156200043c576000848401525b50505050565b6000620004596200045384620003d6565b620003b7565b9050828152602081018484840111156200047857620004776200033c565b5b620004858482856200040c565b509392505050565b600082601f830112620004a557620004a462000337565b5b8151620004b784826020860162000442565b91505092915050565b600067ffffffffffffffff821115620004de57620004dd62000352565b5b602082029050602081019050919050565b600080fd5b600080fd5b600080fd5b6000819050919050565b6200051381620004fe565b81146200051f57600080fd5b50565b600081519050620005338162000508565b92915050565b600060408284031215620005525762000551620004f4565b5b6200055e6040620003b7565b90506000620005708482850162000522565b600083015250602082015167ffffffffffffffff811115620005975762000596620004f9565b5b620005a5848285016200048d565b60208301525092915050565b6000620005c8620005c284620004c0565b620003b7565b90508083825260208201905060208402830185811115620005ee57620005ed620004ef565b5b835b818110156200063c57805167ffffffffffffffff81111562000617576200061662000337565b5b80860162000626898262000539565b85526020850194505050602081019050620005f0565b5050509392505050565b600082601f8301126200065e576200065d62000337565b5b815162000670848260208601620005b1565b91505092915050565b6000806000606084860312156200069557620006946200032d565b5b600084015167ffffffffffffffff811115620006b657620006b562000332565b5b620006c4868287016200048d565b935050602084015167ffffffffffffffff811115620006e857620006e762000332565b5b620006f6868287016200048d565b925050604084015167ffffffffffffffff8111156200071a576200071962000332565b5b620007288682870162000646565b9150509250925092565b7f4e487b7100000000000000000000000000000000000000000000000000000000600052603260045260246000fd5b7f4e487b7100000000000000000000000000000000000000000000000000000000600052601160045260246000fd5b60006200079d82620004fe565b91507fffffffffffffffffffffffffffffffffffffffffffffffffffffffffffffffff821415620007d357620007d262000761565b5b600182019050919050565b7f4e487b7100000000000000000000000000000000000000000000000000000000600052602260045260246000fd5b600060028204905060018216806200082657607f821691505b602082108114156200083d576200083c620007de565b5b50919050565b6142c880620008536000396000f3fe60806040526004361061014b5760003560e01c806370a08231116100b6578063b2bdfa7b1161006f578063b2bdfa7b1461049c578063b88d4fde146104c7578063c263dc64146104f0578063c87b56dd1461052e578063e985e9c51461056b578063f2fde38b146105a85761014b565b806370a082311461038c578063715018a6146103c95780638da5cb5b146103e057806395d89b411461040b578063a22cb46514610436578063ade3e7281461045f5761014b565b8063277a403011610108578063277a40301461027757806342842e0e146102a05780634ed02622146102c957806350b44712146102f45780636352211e1461033357806367dd74ca146103705761014b565b806301ffc9a71461015057806306bdc9491461018d57806306fdde03146101bd578063081812fc146101e8578063095ea7b31461022557806323b872dd1461024e575b600080fd5b34801561015c57600080fd5b50610177600480360381019061017291906129fd565b6105d1565b6040516101849190612a45565b60405180910390f35b6101a760048036038101906101a29190612bdc565b6106b3565b6040516101b49190612a45565b60405180910390f35b3480156101c957600080fd5b506101d261087d565b6040516101df9190612cef565b60405180910390f35b3480156101f457600080fd5b5061020f600480360381019061020a9190612d11565b61090f565b60405161021c9190612d7f565b60405180910390f35b34801561023157600080fd5b5061024c60048036038101906102479190612dc6565b610994565b005b34801561025a57600080fd5b5061027560048036038101906102709190612e06565b610aac565b005b34801561028357600080fd5b5061029e60048036038101906102999190612fb5565b610b0c565b005b3480156102ac57600080fd5b506102c760048036038101906102c29190612e06565b610bc0565b005b3480156102d557600080fd5b506102de610be0565b6040516102eb91906131ad565b60405180910390f35b34801561030057600080fd5b5061031b60048036038101906103169190612d11565b610d8b565b60405161032a9392919061321b565b60405180910390f35b34801561033f57600080fd5b5061035a60048036038101906103559190612d11565b610ef3565b6040516103679190612d7f565b60405180910390f35b61038a60048036038101906103859190612d11565b610fa5565b005b34801561039857600080fd5b506103b360048036038101906103ae9190613260565b610fbb565b6040516103c0919061328d565b60405180910390f35b3480156103d557600080fd5b506103de611073565b005b3480156103ec57600080fd5b506103f56110fb565b6040516104029190612d7f565b60405180910390f35b34801561041757600080fd5b50610420611125565b60405161042d9190612cef565b60405180910390f35b34801561044257600080fd5b5061045d600480360381019061045891906132d4565b6111b7565b005b34801561046b57600080fd5b5061048660048036038101906104819190613260565b6111cd565b60405161049391906131ad565b60405180910390f35b3480156104a857600080fd5b506104b1611440565b6040516104be9190612d7f565b60405180910390f35b3480156104d357600080fd5b506104ee60048036038101906104e991906133b5565b611466565b005b3480156104fc57600080fd5b5061051760048036038101906105129190612d11565b6114c8565b604051610525929190613438565b60405180910390f35b34801561053a57600080fd5b5061055560048036038101906105509190612d11565b611584565b6040516105629190612cef565b60405180910390f35b34801561057757600080fd5b50610592600480360381019061058d9190613468565b6116d6565b60405161059f9190612a45565b60405180910390f35b3480156105b457600080fd5b506105cf60048036038101906105ca9190613260565b61176a565b005b60007f80ac58cd000000000000000000000000000000000000000000000000000000007bffffffffffffffffffffffffffffffffffffffffffffffffffffffff1916827bffffffffffffffffffffffffffffffffffffffffffffffffffffffff1916148061069c57507f5b5e139f000000000000000000000000000000000000000000000000000000007bffffffffffffffffffffffffffffffffffffffffffffffffffffffff1916827bffffffffffffffffffffffffffffffffffffffffffffffffffffffff1916145b806106ac57506106ab82611862565b5b9050919050565b60008060095490506000600b85815481106106d1576106d06134a8565b5b90600052602060002090600202016040518060400160405290816000820154815260200160018201805461070490613506565b80601f016020809104026020016040519081016040528092919081815260200182805461073090613506565b801561077d5780601f106107525761010080835404028352916020019161077d565b820191906000526020600020905b81548152906001019060200180831161076057829003601f168201915b5050505050815250509050600060405180606001604052806009548152602001868152602001838152509050600a8190806001815401808255809150506001900390600052602060002090600402016000909190919091506000820151816000015560208201518160010190805190602001906107fb9291906128ad565b5060408201518160020160008201518160000155602082015181600101908051906020019061082b9291906128ad565b505050505061083a30846118cc565b6108448388611aa6565b6009600081548092919061085790613567565b919050555061086583611b1a565b61086e83611bd6565b50600193505050509392505050565b60606000805461088c90613506565b80601f01602080910402602001604051908101604052809291908181526020018280546108b890613506565b80156109055780601f106108da57610100808354040283529160200191610905565b820191906000526020600020905b8154815290600101906020018083116108e857829003601f168201915b5050505050905090565b600061091a82611dd8565b610959576040517f08c379a000000000000000000000000000000000000000000000000000000000815260040161095090613622565b60405180910390fd5b6004600083815260200190815260200160002060009054906101000a900473ffffffffffffffffffffffffffffffffffffffff169050919050565b600061099f82610ef3565b90508073ffffffffffffffffffffffffffffffffffffffff168373ffffffffffffffffffffffffffffffffffffffff161415610a10576040517f08c379a0000000000000000000000000000000000000000000000000000000008152600401610a07906136b4565b60405180910390fd5b8073ffffffffffffffffffffffffffffffffffffffff16610a2f611e44565b73ffffffffffffffffffffffffffffffffffffffff161480610a5e5750610a5d81610a58611e44565b6116d6565b5b610a9d576040517f08c379a0000000000000000000000000000000000000000000000000000000008152600401610a9490613746565b60405180910390fd5b610aa78383611e4c565b505050565b610abd610ab7611e44565b82611f05565b610afc576040517f08c379a0000000000000000000000000000000000000000000000000000000008152600401610af3906137d8565b60405180910390fd5b610b07838383611fe3565b505050565b60005b8151811015610bbc576000828281518110610b2d57610b2c6134a8565b5b60200260200101519050600b60405180604001604052808360000151815260200183602001518152509080600181540180825580915050600190039060005260206000209060020201600090919091909150600082015181600001556020820151816001019080519060200190610ba59291906128ad565b505050508080610bb490613567565b915050610b0f565b5050565b610bdb83838360405180602001604052806000815250611466565b505050565b6060600a805480602002602001604051908101604052809291908181526020016000905b82821015610d82578382906000526020600020906004020160405180606001604052908160008201548152602001600182018054610c4190613506565b80601f0160208091040260200160405190810160405280929190818152602001828054610c6d90613506565b8015610cba5780601f10610c8f57610100808354040283529160200191610cba565b820191906000526020600020905b815481529060010190602001808311610c9d57829003601f168201915b505050505081526020016002820160405180604001604052908160008201548152602001600182018054610ced90613506565b80601f0160208091040260200160405190810160405280929190818152602001828054610d1990613506565b8015610d665780601f10610d3b57610100808354040283529160200191610d66565b820191906000526020600020905b815481529060010190602001808311610d4957829003601f168201915b5050505050815250508152505081526020019060010190610c04565b50505050905090565b600a8181548110610d9b57600080fd5b9060005260206000209060040201600091509050806000015490806001018054610dc490613506565b80601f0160208091040260200160405190810160405280929190818152602001828054610df090613506565b8015610e3d5780601f10610e1257610100808354040283529160200191610e3d565b820191906000526020600020905b815481529060010190602001808311610e2057829003601f168201915b5050505050908060020160405180604001604052908160008201548152602001600182018054610e6c90613506565b80601f0160208091040260200160405190810160405280929190818152602001828054610e9890613506565b8015610ee55780601f10610eba57610100808354040283529160200191610ee5565b820191906000526020600020905b815481529060010190602001808311610ec857829003601f168201915b505050505081525050905083565b6000806002600084815260200190815260200160002060009054906101000a900473ffffffffffffffffffffffffffffffffffffffff169050600073ffffffffffffffffffffffffffffffffffffffff168173ffffffffffffffffffffffffffffffffffffffff161415610f9c576040517f08c379a0000000000000000000000000000000000000000000000000000000008152600401610f939061386a565b60405180910390fd5b80915050919050565b610fae81611b1a565b610fb781611bd6565b5050565b60008073ffffffffffffffffffffffffffffffffffffffff168273ffffffffffffffffffffffffffffffffffffffff16141561102c576040517f08c379a0000000000000000000000000000000000000000000000000000000008152600401611023906138fc565b60405180910390fd5b600360008373ffffffffffffffffffffffffffffffffffffffff1673ffffffffffffffffffffffffffffffffffffffff168152602001908152602001600020549050919050565b61107b611e44565b73ffffffffffffffffffffffffffffffffffffffff166110996110fb565b73ffffffffffffffffffffffffffffffffffffffff16146110ef576040517f08c379a00000000000000000000000000000000000000000000000000000000081526004016110e690613968565b60405180910390fd5b6110f9600061224a565b565b6000600760009054906101000a900473ffffffffffffffffffffffffffffffffffffffff16905090565b60606001805461113490613506565b80601f016020809104026020016040519081016040528092919081815260200182805461116090613506565b80156111ad5780601f10611182576101008083540402835291602001916111ad565b820191906000526020600020905b81548152906001019060200180831161119057829003601f168201915b5050505050905090565b6111c96111c2611e44565b8383612310565b5050565b606060006111da83610fbb565b67ffffffffffffffff8111156111f3576111f2612a7b565b5b60405190808252806020026020018201604052801561122c57816020015b611219612933565b8152602001906001900390816112115790505b5090506000805b600a80549050811015611435578473ffffffffffffffffffffffffffffffffffffffff1661126082610ef3565b73ffffffffffffffffffffffffffffffffffffffff16141561142257600a81815481106112905761128f6134a8565b5b9060005260206000209060040201604051806060016040529081600082015481526020016001820180546112c390613506565b80601f01602080910402602001604051908101604052809291908181526020018280546112ef90613506565b801561133c5780601f106113115761010080835404028352916020019161133c565b820191906000526020600020905b81548152906001019060200180831161131f57829003601f168201915b50505050508152602001600282016040518060400160405290816000820154815260200160018201805461136f90613506565b80601f016020809104026020016040519081016040528092919081815260200182805461139b90613506565b80156113e85780601f106113bd576101008083540402835291602001916113e8565b820191906000526020600020905b8154815290600101906020018083116113cb57829003601f168201915b50505050508152505081525050838381518110611408576114076134a8565b5b6020026020010181905250818061141e90613567565b9250505b808061142d90613567565b915050611233565b508192505050919050565b600860009054906101000a900473ffffffffffffffffffffffffffffffffffffffff1681565b611477611471611e44565b83611f05565b6114b6576040517f08c379a00000000000000000000000000000000000000000000000000000000081526004016114ad906137d8565b60405180910390fd5b6114c28484848461247d565b50505050565b600b81815481106114d857600080fd5b906000526020600020906002020160009150905080600001549080600101805461150190613506565b80601f016020809104026020016040519081016040528092919081815260200182805461152d90613506565b801561157a5780601f1061154f5761010080835404028352916020019161157a565b820191906000526020600020905b81548152906001019060200180831161155d57829003601f168201915b5050505050905082565b606061158f82611dd8565b6115ce576040517f08c379a00000000000000000000000000000000000000000000000000000000081526004016115c5906139fa565b60405180910390fd5b60006006600084815260200190815260200160002080546115ee90613506565b80601f016020809104026020016040519081016040528092919081815260200182805461161a90613506565b80156116675780601f1061163c57610100808354040283529160200191611667565b820191906000526020600020905b81548152906001019060200180831161164a57829003601f168201915b5050505050905060006116786124d9565b905060008151141561168e5781925050506116d1565b6000825111156116c35780826040516020016116ab929190613a56565b604051602081830303815290604052925050506116d1565b6116cc846124f0565b925050505b919050565b6000600560008473ffffffffffffffffffffffffffffffffffffffff1673ffffffffffffffffffffffffffffffffffffffff16815260200190815260200160002060008373ffffffffffffffffffffffffffffffffffffffff1673ffffffffffffffffffffffffffffffffffffffff16815260200190815260200160002060009054906101000a900460ff16905092915050565b611772611e44565b73ffffffffffffffffffffffffffffffffffffffff166117906110fb565b73ffffffffffffffffffffffffffffffffffffffff16146117e6576040517f08c379a00000000000000000000000000000000000000000000000000000000081526004016117dd90613968565b60405180910390fd5b600073ffffffffffffffffffffffffffffffffffffffff168173ffffffffffffffffffffffffffffffffffffffff161415611856576040517f08c379a000000000000000000000000000000000000000000000000000000000815260040161184d90613aec565b60405180910390fd5b61185f8161224a565b50565b60007f01ffc9a7000000000000000000000000000000000000000000000000000000007bffffffffffffffffffffffffffffffffffffffffffffffffffffffff1916827bffffffffffffffffffffffffffffffffffffffffffffffffffffffff1916149050919050565b600073ffffffffffffffffffffffffffffffffffffffff168273ffffffffffffffffffffffffffffffffffffffff16141561193c576040517f08c379a000000000000000000000000000000000000000000000000000000000815260040161193390613b58565b60405180910390fd5b61194581611dd8565b15611985576040517f08c379a000000000000000000000000000000000000000000000000000000000815260040161197c90613bc4565b60405180910390fd5b61199160008383612597565b6001600360008473ffffffffffffffffffffffffffffffffffffffff1673ffffffffffffffffffffffffffffffffffffffff16815260200190815260200160002060008282546119e19190613be4565b92505081905550816002600083815260200190815260200160002060006101000a81548173ffffffffffffffffffffffffffffffffffffffff021916908373ffffffffffffffffffffffffffffffffffffffff160217905550808273ffffffffffffffffffffffffffffffffffffffff16600073ffffffffffffffffffffffffffffffffffffffff167fddf252ad1be2c89b69c2b068fc378daa952ba7f163c4a11628f55a4df523b3ef60405160405180910390a4611aa26000838361259c565b5050565b611aaf82611dd8565b611aee576040517f08c379a0000000000000000000000000000000000000000000000000000000008152600401611ae590613cac565b60405180910390fd5b80600660008481526020019081526020016000209080519060200190611b159291906128ad565b505050565b611b2381611dd8565b611b62576040517f08c379a0000000000000000000000000000000000000000000000000000000008152600401611b5990613d18565b60405180910390fd5b6000600a8281548110611b7857611b776134a8565b5b906000526020600020906004020190508060020160000154341015611bd2576040517f08c379a0000000000000000000000000000000000000000000000000000000008152600401611bc990613d84565b60405180910390fd5b5050565b611bde612933565b611be9303384611fe3565b600860009054906101000a900473ffffffffffffffffffffffffffffffffffffffff1673ffffffffffffffffffffffffffffffffffffffff166108fc349081150290604051600060405180830381858888f19350505050158015611c51573d6000803e3d6000fd5b506000600a8381548110611c6857611c676134a8565b5b906000526020600020906004020190508060405180606001604052908160008201548152602001600182018054611c9e90613506565b80601f0160208091040260200160405190810160405280929190818152602001828054611cca90613506565b8015611d175780601f10611cec57610100808354040283529160200191611d17565b820191906000526020600020905b815481529060010190602001808311611cfa57829003601f168201915b505050505081526020016002820160405180604001604052908160008201548152602001600182018054611d4a90613506565b80601f0160208091040260200160405190810160405280929190818152602001828054611d7690613506565b8015611dc35780601f10611d9857610100808354040283529160200191611dc3565b820191906000526020600020905b815481529060010190602001808311611da657829003601f168201915b50505050508152505081525050915050919050565b60008073ffffffffffffffffffffffffffffffffffffffff166002600084815260200190815260200160002060009054906101000a900473ffffffffffffffffffffffffffffffffffffffff1673ffffffffffffffffffffffffffffffffffffffff1614159050919050565b600033905090565b816004600083815260200190815260200160002060006101000a81548173ffffffffffffffffffffffffffffffffffffffff021916908373ffffffffffffffffffffffffffffffffffffffff160217905550808273ffffffffffffffffffffffffffffffffffffffff16611ebf83610ef3565b73ffffffffffffffffffffffffffffffffffffffff167f8c5be1e5ebec7d5bd14f71427d1e84f3dd0314c0f7b2291e5b200ac8c7c3b92560405160405180910390a45050565b6000611f1082611dd8565b611f4f576040517f08c379a0000000000000000000000000000000000000000000000000000000008152600401611f4690613e16565b60405180910390fd5b6000611f5a83610ef3565b90508073ffffffffffffffffffffffffffffffffffffffff168473ffffffffffffffffffffffffffffffffffffffff161480611fc957508373ffffffffffffffffffffffffffffffffffffffff16611fb18461090f565b73ffffffffffffffffffffffffffffffffffffffff16145b80611fda5750611fd981856116d6565b5b91505092915050565b8273ffffffffffffffffffffffffffffffffffffffff1661200382610ef3565b73ffffffffffffffffffffffffffffffffffffffff1614612059576040517f08c379a000000000000000000000000000000000000000000000000000000000815260040161205090613ea8565b60405180910390fd5b600073ffffffffffffffffffffffffffffffffffffffff168273ffffffffffffffffffffffffffffffffffffffff1614156120c9576040517f08c379a00000000000000000000000000000000000000000000000000000000081526004016120c090613f3a565b60405180910390fd5b6120d4838383612597565b6120df600082611e4c565b6001600360008573ffffffffffffffffffffffffffffffffffffffff1673ffffffffffffffffffffffffffffffffffffffff168152602001908152602001600020600082825461212f9190613f5a565b925050819055506001600360008473ffffffffffffffffffffffffffffffffffffffff1673ffffffffffffffffffffffffffffffffffffffff16815260200190815260200160002060008282546121869190613be4565b92505081905550816002600083815260200190815260200160002060006101000a81548173ffffffffffffffffffffffffffffffffffffffff021916908373ffffffffffffffffffffffffffffffffffffffff160217905550808273ffffffffffffffffffffffffffffffffffffffff168473ffffffffffffffffffffffffffffffffffffffff167fddf252ad1be2c89b69c2b068fc378daa952ba7f163c4a11628f55a4df523b3ef60405160405180910390a461224583838361259c565b505050565b6000600760009054906101000a900473ffffffffffffffffffffffffffffffffffffffff16905081600760006101000a81548173ffffffffffffffffffffffffffffffffffffffff021916908373ffffffffffffffffffffffffffffffffffffffff1602179055508173ffffffffffffffffffffffffffffffffffffffff168173ffffffffffffffffffffffffffffffffffffffff167f8be0079c531659141344cd1fd0a4f28419497f9722a3daafe3b4186f6b6457e060405160405180910390a35050565b8173ffffffffffffffffffffffffffffffffffffffff168373ffffffffffffffffffffffffffffffffffffffff16141561237f576040517f08c379a000000000000000000000000000000000000000000000000000000000815260040161237690613fda565b60405180910390fd5b80600560008573ffffffffffffffffffffffffffffffffffffffff1673ffffffffffffffffffffffffffffffffffffffff16815260200190815260200160002060008473ffffffffffffffffffffffffffffffffffffffff1673ffffffffffffffffffffffffffffffffffffffff16815260200190815260200160002060006101000a81548160ff0219169083151502179055508173ffffffffffffffffffffffffffffffffffffffff168373ffffffffffffffffffffffffffffffffffffffff167f17307eab39ab6107e8899845ad3d59bd9653f200f220920489ca2b5937696c31836040516124709190612a45565b60405180910390a3505050565b612488848484611fe3565b612494848484846125a1565b6124d3576040517f08c379a00000000000000000000000000000000000000000000000000000000081526004016124ca9061406c565b60405180910390fd5b50505050565b606060405180602001604052806000815250905090565b60606124fb82611dd8565b61253a576040517f08c379a0000000000000000000000000000000000000000000000000000000008152600401612531906140fe565b60405180910390fd5b60006125446124d9565b90506000815111612564576040518060200160405280600081525061258f565b8061256e84612729565b60405160200161257f929190613a56565b6040516020818303038152906040525b915050919050565b505050565b505050565b60006125c28473ffffffffffffffffffffffffffffffffffffffff1661288a565b1561271c578373ffffffffffffffffffffffffffffffffffffffff1663150b7a026125eb611e44565b8786866040518563ffffffff1660e01b815260040161260d9493929190614173565b6020604051808303816000875af192505050801561264957506040513d601f19601f8201168201806040525081019061264691906141d4565b60015b6126cc573d8060008114612679576040519150601f19603f3d011682016040523d82523d6000602084013e61267e565b606091505b506000815114156126c4576040517f08c379a00000000000000000000000000000000000000000000000000000000081526004016126bb9061406c565b60405180910390fd5b805181602001fd5b63150b7a0260e01b7bffffffffffffffffffffffffffffffffffffffffffffffffffffffff1916817bffffffffffffffffffffffffffffffffffffffffffffffffffffffff191614915050612721565b600190505b949350505050565b60606000821415612771576040518060400160405280600181526020017f30000000000000000000000000000000000000000000000000000000000000008152509050612885565b600082905060005b600082146127a357808061278c90613567565b915050600a8261279c9190614230565b9150612779565b60008167ffffffffffffffff8111156127bf576127be612a7b565b5b6040519080825280601f01601f1916602001820160405280156127f15781602001600182028036833780820191505090505b5090505b6000851461287e5760018261280a9190613f5a565b9150600a856128199190614261565b60306128259190613be4565b60f81b81838151811061283b5761283a6134a8565b5b60200101907effffffffffffffffffffffffffffffffffffffffffffffffffffffffffffff1916908160001a905350600a856128779190614230565b94506127f5565b8093505050505b919050565b6000808273ffffffffffffffffffffffffffffffffffffffff163b119050919050565b8280546128b990613506565b90600052602060002090601f0160209004810192826128db5760008555612922565b82601f106128f457805160ff1916838001178555612922565b82800160010185558215612922579182015b82811115612921578251825591602001919060010190612906565b5b50905061292f919061295a565b5090565b60405180606001604052806000815260200160608152602001612954612977565b81525090565b5b8082111561297357600081600090555060010161295b565b5090565b604051806040016040528060008152602001606081525090565b6000604051905090565b600080fd5b600080fd5b60007fffffffff0000000000000000000000000000000000000000000000000000000082169050919050565b6129da816129a5565b81146129e557600080fd5b50565b6000813590506129f7816129d1565b92915050565b600060208284031215612a1357612a1261299b565b5b6000612a21848285016129e8565b91505092915050565b60008115159050919050565b612a3f81612a2a565b82525050565b6000602082019050612a5a6000830184612a36565b92915050565b600080fd5b600080fd5b6000601f19601f8301169050919050565b7f4e487b7100000000000000000000000000000000000000000000000000000000600052604160045260246000fd5b612ab382612a6a565b810181811067ffffffffffffffff82111715612ad257612ad1612a7b565b5b80604052505050565b6000612ae5612991565b9050612af18282612aaa565b919050565b600067ffffffffffffffff821115612b1157612b10612a7b565b5b612b1a82612a6a565b9050602081019050919050565b82818337600083830152505050565b6000612b49612b4484612af6565b612adb565b905082815260208101848484011115612b6557612b64612a65565b5b612b70848285612b27565b509392505050565b600082601f830112612b8d57612b8c612a60565b5b8135612b9d848260208601612b36565b91505092915050565b6000819050919050565b612bb981612ba6565b8114612bc457600080fd5b50565b600081359050612bd681612bb0565b92915050565b600080600060608486031215612bf557612bf461299b565b5b600084013567ffffffffffffffff811115612c1357612c126129a0565b5b612c1f86828701612b78565b9350506020612c3086828701612bc7565b925050604084013567ffffffffffffffff811115612c5157612c506129a0565b5b612c5d86828701612b78565b9150509250925092565b600081519050919050565b600082825260208201905092915050565b60005b83811015612ca1578082015181840152602081019050612c86565b83811115612cb0576000848401525b50505050565b6000612cc182612c67565b612ccb8185612c72565b9350612cdb818560208601612c83565b612ce481612a6a565b840191505092915050565b60006020820190508181036000830152612d098184612cb6565b905092915050565b600060208284031215612d2757612d2661299b565b5b6000612d3584828501612bc7565b91505092915050565b600073ffffffffffffffffffffffffffffffffffffffff82169050919050565b6000612d6982612d3e565b9050919050565b612d7981612d5e565b82525050565b6000602082019050612d946000830184612d70565b92915050565b612da381612d5e565b8114612dae57600080fd5b50565b600081359050612dc081612d9a565b92915050565b60008060408385031215612ddd57612ddc61299b565b5b6000612deb85828601612db1565b9250506020612dfc85828601612bc7565b9150509250929050565b600080600060608486031215612e1f57612e1e61299b565b5b6000612e2d86828701612db1565b9350506020612e3e86828701612db1565b9250506040612e4f86828701612bc7565b9150509250925092565b600067ffffffffffffffff821115612e7457612e73612a7b565b5b602082029050602081019050919050565b600080fd5b600080fd5b600080fd5b600060408284031215612eaa57612ea9612e8a565b5b612eb46040612adb565b90506000612ec484828501612bc7565b600083015250602082013567ffffffffffffffff811115612ee857612ee7612e8f565b5b612ef484828501612b78565b60208301525092915050565b6000612f13612f0e84612e59565b612adb565b90508083825260208201905060208402830185811115612f3657612f35612e85565b5b835b81811015612f7d57803567ffffffffffffffff811115612f5b57612f5a612a60565b5b808601612f688982612e94565b85526020850194505050602081019050612f38565b5050509392505050565b600082601f830112612f9c57612f9b612a60565b5b8135612fac848260208601612f00565b91505092915050565b600060208284031215612fcb57612fca61299b565b5b600082013567ffffffffffffffff811115612fe957612fe86129a0565b5b612ff584828501612f87565b91505092915050565b600081519050919050565b600082825260208201905092915050565b6000819050602082019050919050565b61303381612ba6565b82525050565b600082825260208201905092915050565b600061305582612c67565b61305f8185613039565b935061306f818560208601612c83565b61307881612a6a565b840191505092915050565b600060408301600083015161309b600086018261302a565b50602083015184820360208601526130b3828261304a565b9150508091505092915050565b60006060830160008301516130d8600086018261302a565b50602083015184820360208601526130f0828261304a565b9150506040830151848203604086015261310a8282613083565b9150508091505092915050565b600061312383836130c0565b905092915050565b6000602082019050919050565b600061314382612ffe565b61314d8185613009565b93508360208202850161315f8561301a565b8060005b8581101561319b578484038952815161317c8582613117565b94506131878361312b565b925060208a01995050600181019050613163565b50829750879550505050505092915050565b600060208201905081810360008301526131c78184613138565b905092915050565b6131d881612ba6565b82525050565b60006040830160008301516131f6600086018261302a565b506020830151848203602086015261320e828261304a565b9150508091505092915050565b600060608201905061323060008301866131cf565b81810360208301526132428185612cb6565b9050818103604083015261325681846131de565b9050949350505050565b6000602082840312156132765761327561299b565b5b600061328484828501612db1565b91505092915050565b60006020820190506132a260008301846131cf565b92915050565b6132b181612a2a565b81146132bc57600080fd5b50565b6000813590506132ce816132a8565b92915050565b600080604083850312156132eb576132ea61299b565b5b60006132f985828601612db1565b925050602061330a858286016132bf565b9150509250929050565b600067ffffffffffffffff82111561332f5761332e612a7b565b5b61333882612a6a565b9050602081019050919050565b600061335861335384613314565b612adb565b90508281526020810184848401111561337457613373612a65565b5b61337f848285612b27565b509392505050565b600082601f83011261339c5761339b612a60565b5b81356133ac848260208601613345565b91505092915050565b600080600080608085870312156133cf576133ce61299b565b5b60006133dd87828801612db1565b94505060206133ee87828801612db1565b93505060406133ff87828801612bc7565b925050606085013567ffffffffffffffff8111156134205761341f6129a0565b5b61342c87828801613387565b91505092959194509250565b600060408201905061344d60008301856131cf565b818103602083015261345f8184612cb6565b90509392505050565b6000806040838503121561347f5761347e61299b565b5b600061348d85828601612db1565b925050602061349e85828601612db1565b9150509250929050565b7f4e487b7100000000000000000000000000000000000000000000000000000000600052603260045260246000fd5b7f4e487b7100000000000000000000000000000000000000000000000000000000600052602260045260246000fd5b6000600282049050600182168061351e57607f821691505b60208210811415613532576135316134d7565b5b50919050565b7f4e487b7100000000000000000000000000000000000000000000000000000000600052601160045260246000fd5b600061357282612ba6565b91507fffffffffffffffffffffffffffffffffffffffffffffffffffffffffffffffff8214156135a5576135a4613538565b5b600182019050919050565b7f4552433732313a20617070726f76656420717565727920666f72206e6f6e657860008201527f697374656e7420746f6b656e0000000000000000000000000000000000000000602082015250565b600061360c602c83612c72565b9150613617826135b0565b604082019050919050565b6000602082019050818103600083015261363b816135ff565b9050919050565b7f4552433732313a20617070726f76616c20746f2063757272656e74206f776e6560008201527f7200000000000000000000000000000000000000000000000000000000000000602082015250565b600061369e602183612c72565b91506136a982613642565b604082019050919050565b600060208201905081810360008301526136cd81613691565b9050919050565b7f4552433732313a20617070726f76652063616c6c6572206973206e6f74206f7760008201527f6e6572206e6f7220617070726f76656420666f7220616c6c0000000000000000602082015250565b6000613730603883612c72565b915061373b826136d4565b604082019050919050565b6000602082019050818103600083015261375f81613723565b9050919050565b7f4552433732313a207472616e736665722063616c6c6572206973206e6f74206f60008201527f776e6572206e6f7220617070726f766564000000000000000000000000000000602082015250565b60006137c2603183612c72565b91506137cd82613766565b604082019050919050565b600060208201905081810360008301526137f1816137b5565b9050919050565b7f4552433732313a206f776e657220717565727920666f72206e6f6e657869737460008201527f656e7420746f6b656e0000000000000000000000000000000000000000000000602082015250565b6000613854602983612c72565b915061385f826137f8565b604082019050919050565b6000602082019050818103600083015261388381613847565b9050919050565b7f4552433732313a2062616c616e636520717565727920666f7220746865207a6560008201527f726f206164647265737300000000000000000000000000000000000000000000602082015250565b60006138e6602a83612c72565b91506138f18261388a565b604082019050919050565b60006020820190508181036000830152613915816138d9565b9050919050565b7f4f776e61626c653a2063616c6c6572206973206e6f7420746865206f776e6572600082015250565b6000613952602083612c72565b915061395d8261391c565b602082019050919050565b6000602082019050818103600083015261398181613945565b9050919050565b7f45524337323155524953746f726167653a2055524920717565727920666f722060008201527f6e6f6e6578697374656e7420746f6b656e000000000000000000000000000000602082015250565b60006139e4603183612c72565b91506139ef82613988565b604082019050919050565b60006020820190508181036000830152613a13816139d7565b9050919050565b600081905092915050565b6000613a3082612c67565b613a3a8185613a1a565b9350613a4a818560208601612c83565b80840191505092915050565b6000613a628285613a25565b9150613a6e8284613a25565b91508190509392505050565b7f4f776e61626c653a206e6577206f776e657220697320746865207a65726f206160008201527f6464726573730000000000000000000000000000000000000000000000000000602082015250565b6000613ad6602683612c72565b9150613ae182613a7a565b604082019050919050565b60006020820190508181036000830152613b0581613ac9565b9050919050565b7f4552433732313a206d696e7420746f20746865207a65726f2061646472657373600082015250565b6000613b42602083612c72565b9150613b4d82613b0c565b602082019050919050565b60006020820190508181036000830152613b7181613b35565b9050919050565b7f4552433732313a20746f6b656e20616c7265616479206d696e74656400000000600082015250565b6000613bae601c83612c72565b9150613bb982613b78565b602082019050919050565b60006020820190508181036000830152613bdd81613ba1565b9050919050565b6000613bef82612ba6565b9150613bfa83612ba6565b9250827fffffffffffffffffffffffffffffffffffffffffffffffffffffffffffffffff03821115613c2f57613c2e613538565b5b828201905092915050565b7f45524337323155524953746f726167653a2055524920736574206f66206e6f6e60008201527f6578697374656e7420746f6b656e000000000000000000000000000000000000602082015250565b6000613c96602e83612c72565b9150613ca182613c3a565b604082019050919050565b60006020820190508181036000830152613cc581613c89565b9050919050565b7f4572726f722c2077726f6e6720546f6b656e2069640000000000000000000000600082015250565b6000613d02601583612c72565b9150613d0d82613ccc565b602082019050919050565b60006020820190508181036000830152613d3181613cf5565b9050919050565b7f4572726f722c20546f6b656e20636f737473206d6f7265000000000000000000600082015250565b6000613d6e601783612c72565b9150613d7982613d38565b602082019050919050565b60006020820190508181036000830152613d9d81613d61565b9050919050565b7f4552433732313a206f70657261746f7220717565727920666f72206e6f6e657860008201527f697374656e7420746f6b656e0000000000000000000000000000000000000000602082015250565b6000613e00602c83612c72565b9150613e0b82613da4565b604082019050919050565b60006020820190508181036000830152613e2f81613df3565b9050919050565b7f4552433732313a207472616e736665722066726f6d20696e636f72726563742060008201527f6f776e6572000000000000000000000000000000000000000000000000000000602082015250565b6000613e92602583612c72565b9150613e9d82613e36565b604082019050919050565b60006020820190508181036000830152613ec181613e85565b9050919050565b7f4552433732313a207472616e7366657220746f20746865207a65726f2061646460008201527f7265737300000000000000000000000000000000000000000000000000000000602082015250565b6000613f24602483612c72565b9150613f2f82613ec8565b604082019050919050565b60006020820190508181036000830152613f5381613f17565b9050919050565b6000613f6582612ba6565b9150613f7083612ba6565b925082821015613f8357613f82613538565b5b828203905092915050565b7f4552433732313a20617070726f766520746f2063616c6c657200000000000000600082015250565b6000613fc4601983612c72565b9150613fcf82613f8e565b602082019050919050565b60006020820190508181036000830152613ff381613fb7565b9050919050565b7f4552433732313a207472616e7366657220746f206e6f6e20455243373231526560008201527f63656976657220696d706c656d656e7465720000000000000000000000000000602082015250565b6000614056603283612c72565b915061406182613ffa565b604082019050919050565b6000602082019050818103600083015261408581614049565b9050919050565b7f4552433732314d657461646174613a2055524920717565727920666f72206e6f60008201527f6e6578697374656e7420746f6b656e0000000000000000000000000000000000602082015250565b60006140e8602f83612c72565b91506140f38261408c565b604082019050919050565b60006020820190508181036000830152614117816140db565b9050919050565b600081519050919050565b600082825260208201905092915050565b60006141458261411e565b61414f8185614129565b935061415f818560208601612c83565b61416881612a6a565b840191505092915050565b60006080820190506141886000830187612d70565b6141956020830186612d70565b6141a260408301856131cf565b81810360608301526141b4818461413a565b905095945050505050565b6000815190506141ce816129d1565b92915050565b6000602082840312156141ea576141e961299b565b5b60006141f8848285016141bf565b91505092915050565b7f4e487b7100000000000000000000000000000000000000000000000000000000600052601260045260246000fd5b600061423b82612ba6565b915061424683612ba6565b92508261425657614255614201565b5b828204905092915050565b600061426c82612ba6565b915061427783612ba6565b92508261428757614286614201565b5b82820690509291505056fea264697066735822122027d2c9aaa44c4a98f8b5532f22c4a98d12561ffaacb71a27f8e6c34e9bd4ce8f64736f6c634300080c0033",
  "immutableReferences": {},
  "source": "// SPDX-License-Identifier: GPL-3.0\npragma solidity >=0.6.0 <0.9.0;\n\nimport \"@openzeppelin/contracts/token/ERC721/ERC721.sol\";\nimport \"@openzeppelin/contracts/access/Ownable.sol\";\nimport \"@openzeppelin/contracts/token/ERC721/extensions/ERC721URIStorage.sol\";\n\ncontract ClassifiedTicketCollection is ERC721URIStorage, Ownable{\n    address public _owner;\n    uint256 COUNTER;\n\n    struct Ticket {\n        uint256 id;\n        string identifier;\n        TicketClass ticketClass;\n    }\n\n    struct TicketClass {\n        uint256 price;\n        string label;\n    }\n\n    Ticket[] public tickets;\n    TicketClass[] public ticketClasses;\n\n    constructor(string memory _name, string memory _ticker, TicketClass[] memory _ticketClasses)\n        ERC721(_name, _ticker)\n    {\n        _owner = msg.sender;\n        addTicketClass(_ticketClasses);\n    }\n\n    function mint(\n        string memory _tokenURI,\n        uint256 _ticketClassID,\n        string memory identifier\n    ) public payable returns (bool) {\n        uint256 _tokenId = COUNTER;\n        TicketClass memory _ticketClass = ticketClasses[_ticketClassID];\n        Ticket memory newTicket = Ticket(COUNTER, identifier, _ticketClass);\n        tickets.push(newTicket);\n        _mint(address(this), _tokenId);\n        _setTokenURI(_tokenId, _tokenURI);\n        COUNTER++;\n         _validate(_tokenId);\n        _trade(_tokenId);        \n        return true;\n    }\n\n    function addTicketClass(TicketClass[] memory _ticketClasses) public{\n        for (uint256 i = 0; i < _ticketClasses.length; i++) {\n            TicketClass memory ticketClass = _ticketClasses[i];\n            ticketClasses.push(TicketClass(ticketClass.price, ticketClass.label));\n        }\n    }\n\n    function _validate(uint256 _id) internal {\n        require(_exists(_id), \"Error, wrong Token id\"); //not exists\n        Ticket storage ticket = tickets[_id];\n        require(msg.value >= ticket.ticketClass.price, \"Error, Token costs more\"); //costs more\n    }\n\n    function _trade(uint256 _id) internal returns (Ticket memory) {\n        _transfer(address(this), msg.sender, _id); //nft to user\n        payable(_owner).transfer(msg.value); //eth to owner\n        Ticket storage ticket = tickets[_id];\n        return ticket;\n    }\n\n    function buyTicket(uint256 _id) public payable {\n        _validate(_id);\n        _trade(_id);\n    }\n\n    function getTickets() public view returns (Ticket[] memory) {\n        return tickets;\n    }\n\n    function getOwnerTickets(address _ownerAddress) public view returns (Ticket[] memory) {\n        Ticket[] memory result = new Ticket[](balanceOf(_ownerAddress));\n        uint256 counter = 0;\n        for (uint256 i = 0; i < tickets.length; i++) {\n            if (ownerOf(i) == _ownerAddress) {\n                result[counter] = tickets[i];\n                counter++;\n            }\n        }\n        return result;\n    }\n}\n",
  "sourcePath": "/workspace/nft-ticketting/backend/contracts/ClassifiedTicketCollection.sol",
  "compiler": {
    "name": "solc",
    "version": "0.8.12+commit.f00d7308.Emscripten.clang"
  },
  "schemaVersion": "3.4.5",
  "updatedAt": "2022-02-24T15:54:27.785Z",
  "devdoc": {
    "kind": "dev",
    "methods": {
      "approve(address,uint256)": {
        "details": "See {IERC721-approve}."
      },
      "balanceOf(address)": {
        "details": "See {IERC721-balanceOf}."
      },
      "getApproved(uint256)": {
        "details": "See {IERC721-getApproved}."
      },
      "isApprovedForAll(address,address)": {
        "details": "See {IERC721-isApprovedForAll}."
      },
      "name()": {
        "details": "See {IERC721Metadata-name}."
      },
      "owner()": {
        "details": "Returns the address of the current owner."
      },
      "ownerOf(uint256)": {
        "details": "See {IERC721-ownerOf}."
      },
      "renounceOwnership()": {
        "details": "Leaves the contract without owner. It will not be possible to call `onlyOwner` functions anymore. Can only be called by the current owner. NOTE: Renouncing ownership will leave the contract without an owner, thereby removing any functionality that is only available to the owner."
      },
      "safeTransferFrom(address,address,uint256)": {
        "details": "See {IERC721-safeTransferFrom}."
      },
      "safeTransferFrom(address,address,uint256,bytes)": {
        "details": "See {IERC721-safeTransferFrom}."
      },
      "setApprovalForAll(address,bool)": {
        "details": "See {IERC721-setApprovalForAll}."
      },
      "supportsInterface(bytes4)": {
        "details": "See {IERC165-supportsInterface}."
      },
      "symbol()": {
        "details": "See {IERC721Metadata-symbol}."
      },
      "tokenURI(uint256)": {
        "details": "See {IERC721Metadata-tokenURI}."
      },
      "transferFrom(address,address,uint256)": {
        "details": "See {IERC721-transferFrom}."
      },
      "transferOwnership(address)": {
        "details": "Transfers ownership of the contract to a new account (`newOwner`). Can only be called by the current owner."
      }
    },
    "version": 1
  },
  "userdoc": {
    "kind": "user",
    "methods": {},
    "version": 1
  }
}