{
  "contractName": "CustomNFTContract",
  "abi": [
    {
      "inputs": [
        {
          "internalType": "string",
          "name": "_name",
          "type": "string"
        },
        {
          "internalType": "string",
          "name": "_ticker",
          "type": "string"
        }
      ],
      "stateMutability": "nonpayable",
      "type": "constructor"
    },
    {
      "anonymous": false,
      "inputs": [
        {
          "indexed": true,
          "internalType": "address",
          "name": "owner",
          "type": "address"
        },
        {
          "indexed": true,
          "internalType": "address",
          "name": "approved",
          "type": "address"
        },
        {
          "indexed": true,
          "internalType": "uint256",
          "name": "tokenId",
          "type": "uint256"
        }
      ],
      "name": "Approval",
      "type": "event"
    },
    {
      "anonymous": false,
      "inputs": [
        {
          "indexed": true,
          "internalType": "address",
          "name": "owner",
          "type": "address"
        },
        {
          "indexed": true,
          "internalType": "address",
          "name": "operator",
          "type": "address"
        },
        {
          "indexed": false,
          "internalType": "bool",
          "name": "approved",
          "type": "bool"
        }
      ],
      "name": "ApprovalForAll",
      "type": "event"
    },
    {
      "anonymous": false,
      "inputs": [
        {
          "indexed": true,
          "internalType": "address",
          "name": "previousOwner",
          "type": "address"
        },
        {
          "indexed": true,
          "internalType": "address",
          "name": "newOwner",
          "type": "address"
        }
      ],
      "name": "OwnershipTransferred",
      "type": "event"
    },
    {
      "anonymous": false,
      "inputs": [
        {
          "indexed": true,
          "internalType": "address",
          "name": "from",
          "type": "address"
        },
        {
          "indexed": true,
          "internalType": "address",
          "name": "to",
          "type": "address"
        },
        {
          "indexed": true,
          "internalType": "uint256",
          "name": "tokenId",
          "type": "uint256"
        }
      ],
      "name": "Transfer",
      "type": "event"
    },
    {
      "inputs": [],
      "name": "_owner",
      "outputs": [
        {
          "internalType": "address",
          "name": "",
          "type": "address"
        }
      ],
      "stateMutability": "view",
      "type": "function"
    },
    {
      "inputs": [
        {
          "internalType": "address",
          "name": "to",
          "type": "address"
        },
        {
          "internalType": "uint256",
          "name": "tokenId",
          "type": "uint256"
        }
      ],
      "name": "approve",
      "outputs": [],
      "stateMutability": "nonpayable",
      "type": "function"
    },
    {
      "inputs": [
        {
          "internalType": "address",
          "name": "owner",
          "type": "address"
        }
      ],
      "name": "balanceOf",
      "outputs": [
        {
          "internalType": "uint256",
          "name": "",
          "type": "uint256"
        }
      ],
      "stateMutability": "view",
      "type": "function"
    },
    {
      "inputs": [
        {
          "internalType": "uint256",
          "name": "tokenId",
          "type": "uint256"
        }
      ],
      "name": "getApproved",
      "outputs": [
        {
          "internalType": "address",
          "name": "",
          "type": "address"
        }
      ],
      "stateMutability": "view",
      "type": "function"
    },
    {
      "inputs": [
        {
          "internalType": "address",
          "name": "owner",
          "type": "address"
        },
        {
          "internalType": "address",
          "name": "operator",
          "type": "address"
        }
      ],
      "name": "isApprovedForAll",
      "outputs": [
        {
          "internalType": "bool",
          "name": "",
          "type": "bool"
        }
      ],
      "stateMutability": "view",
      "type": "function"
    },
    {
      "inputs": [],
      "name": "name",
      "outputs": [
        {
          "internalType": "string",
          "name": "",
          "type": "string"
        }
      ],
      "stateMutability": "view",
      "type": "function"
    },
    {
      "inputs": [],
      "name": "owner",
      "outputs": [
        {
          "internalType": "address",
          "name": "",
          "type": "address"
        }
      ],
      "stateMutability": "view",
      "type": "function"
    },
    {
      "inputs": [
        {
          "internalType": "uint256",
          "name": "tokenId",
          "type": "uint256"
        }
      ],
      "name": "ownerOf",
      "outputs": [
        {
          "internalType": "address",
          "name": "",
          "type": "address"
        }
      ],
      "stateMutability": "view",
      "type": "function"
    },
    {
      "inputs": [],
      "name": "renounceOwnership",
      "outputs": [],
      "stateMutability": "nonpayable",
      "type": "function"
    },
    {
      "inputs": [
        {
          "internalType": "address",
          "name": "from",
          "type": "address"
        },
        {
          "internalType": "address",
          "name": "to",
          "type": "address"
        },
        {
          "internalType": "uint256",
          "name": "tokenId",
          "type": "uint256"
        }
      ],
      "name": "safeTransferFrom",
      "outputs": [],
      "stateMutability": "nonpayable",
      "type": "function"
    },
    {
      "inputs": [
        {
          "internalType": "address",
          "name": "from",
          "type": "address"
        },
        {
          "internalType": "address",
          "name": "to",
          "type": "address"
        },
        {
          "internalType": "uint256",
          "name": "tokenId",
          "type": "uint256"
        },
        {
          "internalType": "bytes",
          "name": "_data",
          "type": "bytes"
        }
      ],
      "name": "safeTransferFrom",
      "outputs": [],
      "stateMutability": "nonpayable",
      "type": "function"
    },
    {
      "inputs": [
        {
          "internalType": "address",
          "name": "operator",
          "type": "address"
        },
        {
          "internalType": "bool",
          "name": "approved",
          "type": "bool"
        }
      ],
      "name": "setApprovalForAll",
      "outputs": [],
      "stateMutability": "nonpayable",
      "type": "function"
    },
    {
      "inputs": [
        {
          "internalType": "bytes4",
          "name": "interfaceId",
          "type": "bytes4"
        }
      ],
      "name": "supportsInterface",
      "outputs": [
        {
          "internalType": "bool",
          "name": "",
          "type": "bool"
        }
      ],
      "stateMutability": "view",
      "type": "function"
    },
    {
      "inputs": [],
      "name": "symbol",
      "outputs": [
        {
          "internalType": "string",
          "name": "",
          "type": "string"
        }
      ],
      "stateMutability": "view",
      "type": "function"
    },
    {
      "inputs": [
        {
          "internalType": "uint256",
          "name": "",
          "type": "uint256"
        }
      ],
      "name": "tickets",
      "outputs": [
        {
          "internalType": "uint256",
          "name": "id",
          "type": "uint256"
        },
        {
          "internalType": "uint256",
          "name": "price",
          "type": "uint256"
        },
        {
          "internalType": "string",
          "name": "identifier",
          "type": "string"
        }
      ],
      "stateMutability": "view",
      "type": "function"
    },
    {
      "inputs": [
        {
          "internalType": "uint256",
          "name": "tokenId",
          "type": "uint256"
        }
      ],
      "name": "tokenURI",
      "outputs": [
        {
          "internalType": "string",
          "name": "",
          "type": "string"
        }
      ],
      "stateMutability": "view",
      "type": "function"
    },
    {
      "inputs": [
        {
          "internalType": "address",
          "name": "from",
          "type": "address"
        },
        {
          "internalType": "address",
          "name": "to",
          "type": "address"
        },
        {
          "internalType": "uint256",
          "name": "tokenId",
          "type": "uint256"
        }
      ],
      "name": "transferFrom",
      "outputs": [],
      "stateMutability": "nonpayable",
      "type": "function"
    },
    {
      "inputs": [
        {
          "internalType": "address",
          "name": "newOwner",
          "type": "address"
        }
      ],
      "name": "transferOwnership",
      "outputs": [],
      "stateMutability": "nonpayable",
      "type": "function"
    },
    {
      "inputs": [
        {
          "internalType": "string",
          "name": "_tokenURI",
          "type": "string"
        },
        {
          "internalType": "uint256",
          "name": "_price",
          "type": "uint256"
        },
        {
          "internalType": "string",
          "name": "identifier",
          "type": "string"
        }
      ],
      "name": "mint",
      "outputs": [
        {
          "internalType": "bool",
          "name": "",
          "type": "bool"
        }
      ],
      "stateMutability": "payable",
      "type": "function"
    },
    {
      "inputs": [
        {
          "internalType": "uint256",
          "name": "_id",
          "type": "uint256"
        }
      ],
      "name": "buyTicket",
      "outputs": [],
      "stateMutability": "payable",
      "type": "function"
    },
    {
      "inputs": [],
      "name": "getTickets",
      "outputs": [
        {
          "components": [
            {
              "internalType": "uint256",
              "name": "id",
              "type": "uint256"
            },
            {
              "internalType": "uint256",
              "name": "price",
              "type": "uint256"
            },
            {
              "internalType": "string",
              "name": "identifier",
              "type": "string"
            }
          ],
          "internalType": "struct CustomNFTContract.Ticket[]",
          "name": "",
          "type": "tuple[]"
        }
      ],
      "stateMutability": "view",
      "type": "function"
    },
    {
      "inputs": [
        {
          "internalType": "address",
          "name": "_ownerAddress",
          "type": "address"
        }
      ],
      "name": "getOwnerTickets",
      "outputs": [
        {
          "components": [
            {
              "internalType": "uint256",
              "name": "id",
              "type": "uint256"
            },
            {
              "internalType": "uint256",
              "name": "price",
              "type": "uint256"
            },
            {
              "internalType": "string",
              "name": "identifier",
              "type": "string"
            }
          ],
          "internalType": "struct CustomNFTContract.Ticket[]",
          "name": "",
          "type": "tuple[]"
        }
      ],
      "stateMutability": "view",
      "type": "function"
    }
  ],
  "bytecode": "0x60806040523480156200001157600080fd5b5060405162003fb838038062003fb88339818101604052810190620000379190620003f1565b8181816000908051906020019062000051929190620001a4565b5080600190805190602001906200006a929190620001a4565b5050506200008d62000081620000d660201b60201c565b620000de60201b60201c565b33600860006101000a81548173ffffffffffffffffffffffffffffffffffffffff021916908373ffffffffffffffffffffffffffffffffffffffff1602179055505050620004db565b600033905090565b6000600760009054906101000a900473ffffffffffffffffffffffffffffffffffffffff16905081600760006101000a81548173ffffffffffffffffffffffffffffffffffffffff021916908373ffffffffffffffffffffffffffffffffffffffff1602179055508173ffffffffffffffffffffffffffffffffffffffff168173ffffffffffffffffffffffffffffffffffffffff167f8be0079c531659141344cd1fd0a4f28419497f9722a3daafe3b4186f6b6457e060405160405180910390a35050565b828054620001b290620004a5565b90600052602060002090601f016020900481019282620001d6576000855562000222565b82601f10620001f157805160ff191683800117855562000222565b8280016001018555821562000222579182015b828111156200022157825182559160200191906001019062000204565b5b50905062000231919062000235565b5090565b5b808211156200025057600081600090555060010162000236565b5090565b6000604051905090565b600080fd5b600080fd5b600080fd5b600080fd5b6000601f19601f8301169050919050565b7f4e487b7100000000000000000000000000000000000000000000000000000000600052604160045260246000fd5b620002bd8262000272565b810181811067ffffffffffffffff82111715620002df57620002de62000283565b5b80604052505050565b6000620002f462000254565b9050620003028282620002b2565b919050565b600067ffffffffffffffff82111562000325576200032462000283565b5b620003308262000272565b9050602081019050919050565b60005b838110156200035d57808201518184015260208101905062000340565b838111156200036d576000848401525b50505050565b60006200038a620003848462000307565b620002e8565b905082815260208101848484011115620003a957620003a86200026d565b5b620003b68482856200033d565b509392505050565b600082601f830112620003d657620003d562000268565b5b8151620003e884826020860162000373565b91505092915050565b600080604083850312156200040b576200040a6200025e565b5b600083015167ffffffffffffffff8111156200042c576200042b62000263565b5b6200043a85828601620003be565b925050602083015167ffffffffffffffff8111156200045e576200045d62000263565b5b6200046c85828601620003be565b9150509250929050565b7f4e487b7100000000000000000000000000000000000000000000000000000000600052602260045260246000fd5b60006002820490506001821680620004be57607f821691505b60208210811415620004d557620004d462000476565b5b50919050565b613acd80620004eb6000396000f3fe6080604052600436106101355760003560e01c806370a08231116100ab578063ade3e7281161006f578063ade3e72814610420578063b2bdfa7b1461045d578063b88d4fde14610488578063c87b56dd146104b1578063e985e9c5146104ee578063f2fde38b1461052b57610135565b806370a082311461034d578063715018a61461038a5780638da5cb5b146103a157806395d89b41146103cc578063a22cb465146103f757610135565b806323b872dd116100fd57806323b872dd1461023857806342842e0e146102615780634ed026221461028a57806350b44712146102b55780636352211e146102f457806367dd74ca1461033157610135565b806301ffc9a71461013a57806306bdc9491461017757806306fdde03146101a7578063081812fc146101d2578063095ea7b31461020f575b600080fd5b34801561014657600080fd5b50610161600480360381019061015c919061245f565b610554565b60405161016e91906124a7565b60405180910390f35b610191600480360381019061018c919061263e565b610636565b60405161019e91906124a7565b60405180910390f35b3480156101b357600080fd5b506101bc61070a565b6040516101c99190612751565b60405180910390f35b3480156101de57600080fd5b506101f960048036038101906101f49190612773565b61079c565b60405161020691906127e1565b60405180910390f35b34801561021b57600080fd5b5061023660048036038101906102319190612828565b610821565b005b34801561024457600080fd5b5061025f600480360381019061025a9190612868565b610939565b005b34801561026d57600080fd5b5061028860048036038101906102839190612868565b610999565b005b34801561029657600080fd5b5061029f6109b9565b6040516102ac9190612a26565b60405180910390f35b3480156102c157600080fd5b506102dc60048036038101906102d79190612773565b610abe565b6040516102eb93929190612a57565b60405180910390f35b34801561030057600080fd5b5061031b60048036038101906103169190612773565b610b80565b60405161032891906127e1565b60405180910390f35b61034b60048036038101906103469190612773565b610c32565b005b34801561035957600080fd5b50610374600480360381019061036f9190612a95565b610c48565b6040516103819190612ac2565b60405180910390f35b34801561039657600080fd5b5061039f610d00565b005b3480156103ad57600080fd5b506103b6610d88565b6040516103c391906127e1565b60405180910390f35b3480156103d857600080fd5b506103e1610db2565b6040516103ee9190612751565b60405180910390f35b34801561040357600080fd5b5061041e60048036038101906104199190612b09565b610e44565b005b34801561042c57600080fd5b5061044760048036038101906104429190612a95565b610e5a565b6040516104549190612a26565b60405180910390f35b34801561046957600080fd5b50610472611027565b60405161047f91906127e1565b60405180910390f35b34801561049457600080fd5b506104af60048036038101906104aa9190612bea565b61104d565b005b3480156104bd57600080fd5b506104d860048036038101906104d39190612773565b6110af565b6040516104e59190612751565b60405180910390f35b3480156104fa57600080fd5b5061051560048036038101906105109190612c6d565b611201565b60405161052291906124a7565b60405180910390f35b34801561053757600080fd5b50610552600480360381019061054d9190612a95565b611295565b005b60007f80ac58cd000000000000000000000000000000000000000000000000000000007bffffffffffffffffffffffffffffffffffffffffffffffffffffffff1916827bffffffffffffffffffffffffffffffffffffffffffffffffffffffff1916148061061f57507f5b5e139f000000000000000000000000000000000000000000000000000000007bffffffffffffffffffffffffffffffffffffffffffffffffffffffff1916827bffffffffffffffffffffffffffffffffffffffffffffffffffffffff1916145b8061062f575061062e8261138d565b5b9050919050565b6000806009549050600060405180606001604052806009548152602001868152602001858152509050600a819080600181540180825580915050600190039060005260206000209060030201600090919091909150600082015181600001556020820151816001015560408201518160020190805190602001906106bb92919061232f565b5050506106c830836113f7565b6106d282876115d1565b600960008154809291906106e590612cdc565b91905055506106f382611645565b6106fc826116fe565b506001925050509392505050565b60606000805461071990612d54565b80601f016020809104026020016040519081016040528092919081815260200182805461074590612d54565b80156107925780601f1061076757610100808354040283529160200191610792565b820191906000526020600020905b81548152906001019060200180831161077557829003601f168201915b5050505050905090565b60006107a78261185a565b6107e6576040517f08c379a00000000000000000000000000000000000000000000000000000000081526004016107dd90612df8565b60405180910390fd5b6004600083815260200190815260200160002060009054906101000a900473ffffffffffffffffffffffffffffffffffffffff169050919050565b600061082c82610b80565b90508073ffffffffffffffffffffffffffffffffffffffff168373ffffffffffffffffffffffffffffffffffffffff16141561089d576040517f08c379a000000000000000000000000000000000000000000000000000000000815260040161089490612e8a565b60405180910390fd5b8073ffffffffffffffffffffffffffffffffffffffff166108bc6118c6565b73ffffffffffffffffffffffffffffffffffffffff1614806108eb57506108ea816108e56118c6565b611201565b5b61092a576040517f08c379a000000000000000000000000000000000000000000000000000000000815260040161092190612f1c565b60405180910390fd5b61093483836118ce565b505050565b61094a6109446118c6565b82611987565b610989576040517f08c379a000000000000000000000000000000000000000000000000000000000815260040161098090612fae565b60405180910390fd5b610994838383611a65565b505050565b6109b48383836040518060200160405280600081525061104d565b505050565b6060600a805480602002602001604051908101604052809291908181526020016000905b82821015610ab557838290600052602060002090600302016040518060600160405290816000820154815260200160018201548152602001600282018054610a2490612d54565b80601f0160208091040260200160405190810160405280929190818152602001828054610a5090612d54565b8015610a9d5780601f10610a7257610100808354040283529160200191610a9d565b820191906000526020600020905b815481529060010190602001808311610a8057829003601f168201915b505050505081525050815260200190600101906109dd565b50505050905090565b600a8181548110610ace57600080fd5b9060005260206000209060030201600091509050806000015490806001015490806002018054610afd90612d54565b80601f0160208091040260200160405190810160405280929190818152602001828054610b2990612d54565b8015610b765780601f10610b4b57610100808354040283529160200191610b76565b820191906000526020600020905b815481529060010190602001808311610b5957829003601f168201915b5050505050905083565b6000806002600084815260200190815260200160002060009054906101000a900473ffffffffffffffffffffffffffffffffffffffff169050600073ffffffffffffffffffffffffffffffffffffffff168173ffffffffffffffffffffffffffffffffffffffff161415610c29576040517f08c379a0000000000000000000000000000000000000000000000000000000008152600401610c2090613040565b60405180910390fd5b80915050919050565b610c3b81611645565b610c44816116fe565b5050565b60008073ffffffffffffffffffffffffffffffffffffffff168273ffffffffffffffffffffffffffffffffffffffff161415610cb9576040517f08c379a0000000000000000000000000000000000000000000000000000000008152600401610cb0906130d2565b60405180910390fd5b600360008373ffffffffffffffffffffffffffffffffffffffff1673ffffffffffffffffffffffffffffffffffffffff168152602001908152602001600020549050919050565b610d086118c6565b73ffffffffffffffffffffffffffffffffffffffff16610d26610d88565b73ffffffffffffffffffffffffffffffffffffffff1614610d7c576040517f08c379a0000000000000000000000000000000000000000000000000000000008152600401610d739061313e565b60405180910390fd5b610d866000611ccc565b565b6000600760009054906101000a900473ffffffffffffffffffffffffffffffffffffffff16905090565b606060018054610dc190612d54565b80601f0160208091040260200160405190810160405280929190818152602001828054610ded90612d54565b8015610e3a5780601f10610e0f57610100808354040283529160200191610e3a565b820191906000526020600020905b815481529060010190602001808311610e1d57829003601f168201915b5050505050905090565b610e56610e4f6118c6565b8383611d92565b5050565b60606000610e6783610c48565b67ffffffffffffffff811115610e8057610e7f6124dd565b5b604051908082528060200260200182016040528015610eb957816020015b610ea66123b5565b815260200190600190039081610e9e5790505b5090506000805b600a8054905081101561101c578473ffffffffffffffffffffffffffffffffffffffff16610eed82610b80565b73ffffffffffffffffffffffffffffffffffffffff16141561100957600a8181548110610f1d57610f1c61315e565b5b90600052602060002090600302016040518060600160405290816000820154815260200160018201548152602001600282018054610f5a90612d54565b80601f0160208091040260200160405190810160405280929190818152602001828054610f8690612d54565b8015610fd35780601f10610fa857610100808354040283529160200191610fd3565b820191906000526020600020905b815481529060010190602001808311610fb657829003601f168201915b505050505081525050838381518110610fef57610fee61315e565b5b6020026020010181905250818061100590612cdc565b9250505b808061101490612cdc565b915050610ec0565b508192505050919050565b600860009054906101000a900473ffffffffffffffffffffffffffffffffffffffff1681565b61105e6110586118c6565b83611987565b61109d576040517f08c379a000000000000000000000000000000000000000000000000000000000815260040161109490612fae565b60405180910390fd5b6110a984848484611eff565b50505050565b60606110ba8261185a565b6110f9576040517f08c379a00000000000000000000000000000000000000000000000000000000081526004016110f0906131ff565b60405180910390fd5b600060066000848152602001908152602001600020805461111990612d54565b80601f016020809104026020016040519081016040528092919081815260200182805461114590612d54565b80156111925780601f1061116757610100808354040283529160200191611192565b820191906000526020600020905b81548152906001019060200180831161117557829003601f168201915b5050505050905060006111a3611f5b565b90506000815114156111b95781925050506111fc565b6000825111156111ee5780826040516020016111d692919061325b565b604051602081830303815290604052925050506111fc565b6111f784611f72565b925050505b919050565b6000600560008473ffffffffffffffffffffffffffffffffffffffff1673ffffffffffffffffffffffffffffffffffffffff16815260200190815260200160002060008373ffffffffffffffffffffffffffffffffffffffff1673ffffffffffffffffffffffffffffffffffffffff16815260200190815260200160002060009054906101000a900460ff16905092915050565b61129d6118c6565b73ffffffffffffffffffffffffffffffffffffffff166112bb610d88565b73ffffffffffffffffffffffffffffffffffffffff1614611311576040517f08c379a00000000000000000000000000000000000000000000000000000000081526004016113089061313e565b60405180910390fd5b600073ffffffffffffffffffffffffffffffffffffffff168173ffffffffffffffffffffffffffffffffffffffff161415611381576040517f08c379a0000000000000000000000000000000000000000000000000000000008152600401611378906132f1565b60405180910390fd5b61138a81611ccc565b50565b60007f01ffc9a7000000000000000000000000000000000000000000000000000000007bffffffffffffffffffffffffffffffffffffffffffffffffffffffff1916827bffffffffffffffffffffffffffffffffffffffffffffffffffffffff1916149050919050565b600073ffffffffffffffffffffffffffffffffffffffff168273ffffffffffffffffffffffffffffffffffffffff161415611467576040517f08c379a000000000000000000000000000000000000000000000000000000000815260040161145e9061335d565b60405180910390fd5b6114708161185a565b156114b0576040517f08c379a00000000000000000000000000000000000000000000000000000000081526004016114a7906133c9565b60405180910390fd5b6114bc60008383612019565b6001600360008473ffffffffffffffffffffffffffffffffffffffff1673ffffffffffffffffffffffffffffffffffffffff168152602001908152602001600020600082825461150c91906133e9565b92505081905550816002600083815260200190815260200160002060006101000a81548173ffffffffffffffffffffffffffffffffffffffff021916908373ffffffffffffffffffffffffffffffffffffffff160217905550808273ffffffffffffffffffffffffffffffffffffffff16600073ffffffffffffffffffffffffffffffffffffffff167fddf252ad1be2c89b69c2b068fc378daa952ba7f163c4a11628f55a4df523b3ef60405160405180910390a46115cd6000838361201e565b5050565b6115da8261185a565b611619576040517f08c379a0000000000000000000000000000000000000000000000000000000008152600401611610906134b1565b60405180910390fd5b8060066000848152602001908152602001600020908051906020019061164092919061232f565b505050565b61164e8161185a565b61168d576040517f08c379a00000000000000000000000000000000000000000000000000000000081526004016116849061351d565b60405180910390fd5b6000600a82815481106116a3576116a261315e565b5b9060005260206000209060030201905080600101543410156116fa576040517f08c379a00000000000000000000000000000000000000000000000000000000081526004016116f190613589565b60405180910390fd5b5050565b6117066123b5565b611711303384611a65565b600860009054906101000a900473ffffffffffffffffffffffffffffffffffffffff1673ffffffffffffffffffffffffffffffffffffffff166108fc349081150290604051600060405180830381858888f19350505050158015611779573d6000803e3d6000fd5b506000600a83815481106117905761178f61315e565b5b906000526020600020906003020190508060405180606001604052908160008201548152602001600182015481526020016002820180546117d090612d54565b80601f01602080910402602001604051908101604052809291908181526020018280546117fc90612d54565b80156118495780601f1061181e57610100808354040283529160200191611849565b820191906000526020600020905b81548152906001019060200180831161182c57829003601f168201915b505050505081525050915050919050565b60008073ffffffffffffffffffffffffffffffffffffffff166002600084815260200190815260200160002060009054906101000a900473ffffffffffffffffffffffffffffffffffffffff1673ffffffffffffffffffffffffffffffffffffffff1614159050919050565b600033905090565b816004600083815260200190815260200160002060006101000a81548173ffffffffffffffffffffffffffffffffffffffff021916908373ffffffffffffffffffffffffffffffffffffffff160217905550808273ffffffffffffffffffffffffffffffffffffffff1661194183610b80565b73ffffffffffffffffffffffffffffffffffffffff167f8c5be1e5ebec7d5bd14f71427d1e84f3dd0314c0f7b2291e5b200ac8c7c3b92560405160405180910390a45050565b60006119928261185a565b6119d1576040517f08c379a00000000000000000000000000000000000000000000000000000000081526004016119c89061361b565b60405180910390fd5b60006119dc83610b80565b90508073ffffffffffffffffffffffffffffffffffffffff168473ffffffffffffffffffffffffffffffffffffffff161480611a4b57508373ffffffffffffffffffffffffffffffffffffffff16611a338461079c565b73ffffffffffffffffffffffffffffffffffffffff16145b80611a5c5750611a5b8185611201565b5b91505092915050565b8273ffffffffffffffffffffffffffffffffffffffff16611a8582610b80565b73ffffffffffffffffffffffffffffffffffffffff1614611adb576040517f08c379a0000000000000000000000000000000000000000000000000000000008152600401611ad2906136ad565b60405180910390fd5b600073ffffffffffffffffffffffffffffffffffffffff168273ffffffffffffffffffffffffffffffffffffffff161415611b4b576040517f08c379a0000000000000000000000000000000000000000000000000000000008152600401611b429061373f565b60405180910390fd5b611b56838383612019565b611b616000826118ce565b6001600360008573ffffffffffffffffffffffffffffffffffffffff1673ffffffffffffffffffffffffffffffffffffffff1681526020019081526020016000206000828254611bb1919061375f565b925050819055506001600360008473ffffffffffffffffffffffffffffffffffffffff1673ffffffffffffffffffffffffffffffffffffffff1681526020019081526020016000206000828254611c0891906133e9565b92505081905550816002600083815260200190815260200160002060006101000a81548173ffffffffffffffffffffffffffffffffffffffff021916908373ffffffffffffffffffffffffffffffffffffffff160217905550808273ffffffffffffffffffffffffffffffffffffffff168473ffffffffffffffffffffffffffffffffffffffff167fddf252ad1be2c89b69c2b068fc378daa952ba7f163c4a11628f55a4df523b3ef60405160405180910390a4611cc783838361201e565b505050565b6000600760009054906101000a900473ffffffffffffffffffffffffffffffffffffffff16905081600760006101000a81548173ffffffffffffffffffffffffffffffffffffffff021916908373ffffffffffffffffffffffffffffffffffffffff1602179055508173ffffffffffffffffffffffffffffffffffffffff168173ffffffffffffffffffffffffffffffffffffffff167f8be0079c531659141344cd1fd0a4f28419497f9722a3daafe3b4186f6b6457e060405160405180910390a35050565b8173ffffffffffffffffffffffffffffffffffffffff168373ffffffffffffffffffffffffffffffffffffffff161415611e01576040517f08c379a0000000000000000000000000000000000000000000000000000000008152600401611df8906137df565b60405180910390fd5b80600560008573ffffffffffffffffffffffffffffffffffffffff1673ffffffffffffffffffffffffffffffffffffffff16815260200190815260200160002060008473ffffffffffffffffffffffffffffffffffffffff1673ffffffffffffffffffffffffffffffffffffffff16815260200190815260200160002060006101000a81548160ff0219169083151502179055508173ffffffffffffffffffffffffffffffffffffffff168373ffffffffffffffffffffffffffffffffffffffff167f17307eab39ab6107e8899845ad3d59bd9653f200f220920489ca2b5937696c3183604051611ef291906124a7565b60405180910390a3505050565b611f0a848484611a65565b611f1684848484612023565b611f55576040517f08c379a0000000000000000000000000000000000000000000000000000000008152600401611f4c90613871565b60405180910390fd5b50505050565b606060405180602001604052806000815250905090565b6060611f7d8261185a565b611fbc576040517f08c379a0000000000000000000000000000000000000000000000000000000008152600401611fb390613903565b60405180910390fd5b6000611fc6611f5b565b90506000815111611fe65760405180602001604052806000815250612011565b80611ff0846121ab565b60405160200161200192919061325b565b6040516020818303038152906040525b915050919050565b505050565b505050565b60006120448473ffffffffffffffffffffffffffffffffffffffff1661230c565b1561219e578373ffffffffffffffffffffffffffffffffffffffff1663150b7a0261206d6118c6565b8786866040518563ffffffff1660e01b815260040161208f9493929190613978565b6020604051808303816000875af19250505080156120cb57506040513d601f19601f820116820180604052508101906120c891906139d9565b60015b61214e573d80600081146120fb576040519150601f19603f3d011682016040523d82523d6000602084013e612100565b606091505b50600081511415612146576040517f08c379a000000000000000000000000000000000000000000000000000000000815260040161213d90613871565b60405180910390fd5b805181602001fd5b63150b7a0260e01b7bffffffffffffffffffffffffffffffffffffffffffffffffffffffff1916817bffffffffffffffffffffffffffffffffffffffffffffffffffffffff1916149150506121a3565b600190505b949350505050565b606060008214156121f3576040518060400160405280600181526020017f30000000000000000000000000000000000000000000000000000000000000008152509050612307565b600082905060005b6000821461222557808061220e90612cdc565b915050600a8261221e9190613a35565b91506121fb565b60008167ffffffffffffffff811115612241576122406124dd565b5b6040519080825280601f01601f1916602001820160405280156122735781602001600182028036833780820191505090505b5090505b600085146123005760018261228c919061375f565b9150600a8561229b9190613a66565b60306122a791906133e9565b60f81b8183815181106122bd576122bc61315e565b5b60200101907effffffffffffffffffffffffffffffffffffffffffffffffffffffffffffff1916908160001a905350600a856122f99190613a35565b9450612277565b8093505050505b919050565b6000808273ffffffffffffffffffffffffffffffffffffffff163b119050919050565b82805461233b90612d54565b90600052602060002090601f01602090048101928261235d57600085556123a4565b82601f1061237657805160ff19168380011785556123a4565b828001600101855582156123a4579182015b828111156123a3578251825591602001919060010190612388565b5b5090506123b191906123d6565b5090565b60405180606001604052806000815260200160008152602001606081525090565b5b808211156123ef5760008160009055506001016123d7565b5090565b6000604051905090565b600080fd5b600080fd5b60007fffffffff0000000000000000000000000000000000000000000000000000000082169050919050565b61243c81612407565b811461244757600080fd5b50565b60008135905061245981612433565b92915050565b600060208284031215612475576124746123fd565b5b60006124838482850161244a565b91505092915050565b60008115159050919050565b6124a18161248c565b82525050565b60006020820190506124bc6000830184612498565b92915050565b600080fd5b600080fd5b6000601f19601f8301169050919050565b7f4e487b7100000000000000000000000000000000000000000000000000000000600052604160045260246000fd5b612515826124cc565b810181811067ffffffffffffffff82111715612534576125336124dd565b5b80604052505050565b60006125476123f3565b9050612553828261250c565b919050565b600067ffffffffffffffff821115612573576125726124dd565b5b61257c826124cc565b9050602081019050919050565b82818337600083830152505050565b60006125ab6125a684612558565b61253d565b9050828152602081018484840111156125c7576125c66124c7565b5b6125d2848285612589565b509392505050565b600082601f8301126125ef576125ee6124c2565b5b81356125ff848260208601612598565b91505092915050565b6000819050919050565b61261b81612608565b811461262657600080fd5b50565b60008135905061263881612612565b92915050565b600080600060608486031215612657576126566123fd565b5b600084013567ffffffffffffffff81111561267557612674612402565b5b612681868287016125da565b935050602061269286828701612629565b925050604084013567ffffffffffffffff8111156126b3576126b2612402565b5b6126bf868287016125da565b9150509250925092565b600081519050919050565b600082825260208201905092915050565b60005b838110156127035780820151818401526020810190506126e8565b83811115612712576000848401525b50505050565b6000612723826126c9565b61272d81856126d4565b935061273d8185602086016126e5565b612746816124cc565b840191505092915050565b6000602082019050818103600083015261276b8184612718565b905092915050565b600060208284031215612789576127886123fd565b5b600061279784828501612629565b91505092915050565b600073ffffffffffffffffffffffffffffffffffffffff82169050919050565b60006127cb826127a0565b9050919050565b6127db816127c0565b82525050565b60006020820190506127f660008301846127d2565b92915050565b612805816127c0565b811461281057600080fd5b50565b600081359050612822816127fc565b92915050565b6000806040838503121561283f5761283e6123fd565b5b600061284d85828601612813565b925050602061285e85828601612629565b9150509250929050565b600080600060608486031215612881576128806123fd565b5b600061288f86828701612813565b93505060206128a086828701612813565b92505060406128b186828701612629565b9150509250925092565b600081519050919050565b600082825260208201905092915050565b6000819050602082019050919050565b6128f081612608565b82525050565b600082825260208201905092915050565b6000612912826126c9565b61291c81856128f6565b935061292c8185602086016126e5565b612935816124cc565b840191505092915050565b600060608301600083015161295860008601826128e7565b50602083015161296b60208601826128e7565b50604083015184820360408601526129838282612907565b9150508091505092915050565b600061299c8383612940565b905092915050565b6000602082019050919050565b60006129bc826128bb565b6129c681856128c6565b9350836020820285016129d8856128d7565b8060005b85811015612a1457848403895281516129f58582612990565b9450612a00836129a4565b925060208a019950506001810190506129dc565b50829750879550505050505092915050565b60006020820190508181036000830152612a4081846129b1565b905092915050565b612a5181612608565b82525050565b6000606082019050612a6c6000830186612a48565b612a796020830185612a48565b8181036040830152612a8b8184612718565b9050949350505050565b600060208284031215612aab57612aaa6123fd565b5b6000612ab984828501612813565b91505092915050565b6000602082019050612ad76000830184612a48565b92915050565b612ae68161248c565b8114612af157600080fd5b50565b600081359050612b0381612add565b92915050565b60008060408385031215612b2057612b1f6123fd565b5b6000612b2e85828601612813565b9250506020612b3f85828601612af4565b9150509250929050565b600067ffffffffffffffff821115612b6457612b636124dd565b5b612b6d826124cc565b9050602081019050919050565b6000612b8d612b8884612b49565b61253d565b905082815260208101848484011115612ba957612ba86124c7565b5b612bb4848285612589565b509392505050565b600082601f830112612bd157612bd06124c2565b5b8135612be1848260208601612b7a565b91505092915050565b60008060008060808587031215612c0457612c036123fd565b5b6000612c1287828801612813565b9450506020612c2387828801612813565b9350506040612c3487828801612629565b925050606085013567ffffffffffffffff811115612c5557612c54612402565b5b612c6187828801612bbc565b91505092959194509250565b60008060408385031215612c8457612c836123fd565b5b6000612c9285828601612813565b9250506020612ca385828601612813565b9150509250929050565b7f4e487b7100000000000000000000000000000000000000000000000000000000600052601160045260246000fd5b6000612ce782612608565b91507fffffffffffffffffffffffffffffffffffffffffffffffffffffffffffffffff821415612d1a57612d19612cad565b5b600182019050919050565b7f4e487b7100000000000000000000000000000000000000000000000000000000600052602260045260246000fd5b60006002820490506001821680612d6c57607f821691505b60208210811415612d8057612d7f612d25565b5b50919050565b7f4552433732313a20617070726f76656420717565727920666f72206e6f6e657860008201527f697374656e7420746f6b656e0000000000000000000000000000000000000000602082015250565b6000612de2602c836126d4565b9150612ded82612d86565b604082019050919050565b60006020820190508181036000830152612e1181612dd5565b9050919050565b7f4552433732313a20617070726f76616c20746f2063757272656e74206f776e6560008201527f7200000000000000000000000000000000000000000000000000000000000000602082015250565b6000612e746021836126d4565b9150612e7f82612e18565b604082019050919050565b60006020820190508181036000830152612ea381612e67565b9050919050565b7f4552433732313a20617070726f76652063616c6c6572206973206e6f74206f7760008201527f6e6572206e6f7220617070726f76656420666f7220616c6c0000000000000000602082015250565b6000612f066038836126d4565b9150612f1182612eaa565b604082019050919050565b60006020820190508181036000830152612f3581612ef9565b9050919050565b7f4552433732313a207472616e736665722063616c6c6572206973206e6f74206f60008201527f776e6572206e6f7220617070726f766564000000000000000000000000000000602082015250565b6000612f986031836126d4565b9150612fa382612f3c565b604082019050919050565b60006020820190508181036000830152612fc781612f8b565b9050919050565b7f4552433732313a206f776e657220717565727920666f72206e6f6e657869737460008201527f656e7420746f6b656e0000000000000000000000000000000000000000000000602082015250565b600061302a6029836126d4565b915061303582612fce565b604082019050919050565b600060208201905081810360008301526130598161301d565b9050919050565b7f4552433732313a2062616c616e636520717565727920666f7220746865207a6560008201527f726f206164647265737300000000000000000000000000000000000000000000602082015250565b60006130bc602a836126d4565b91506130c782613060565b604082019050919050565b600060208201905081810360008301526130eb816130af565b9050919050565b7f4f776e61626c653a2063616c6c6572206973206e6f7420746865206f776e6572600082015250565b60006131286020836126d4565b9150613133826130f2565b602082019050919050565b600060208201905081810360008301526131578161311b565b9050919050565b7f4e487b7100000000000000000000000000000000000000000000000000000000600052603260045260246000fd5b7f45524337323155524953746f726167653a2055524920717565727920666f722060008201527f6e6f6e6578697374656e7420746f6b656e000000000000000000000000000000602082015250565b60006131e96031836126d4565b91506131f48261318d565b604082019050919050565b60006020820190508181036000830152613218816131dc565b9050919050565b600081905092915050565b6000613235826126c9565b61323f818561321f565b935061324f8185602086016126e5565b80840191505092915050565b6000613267828561322a565b9150613273828461322a565b91508190509392505050565b7f4f776e61626c653a206e6577206f776e657220697320746865207a65726f206160008201527f6464726573730000000000000000000000000000000000000000000000000000602082015250565b60006132db6026836126d4565b91506132e68261327f565b604082019050919050565b6000602082019050818103600083015261330a816132ce565b9050919050565b7f4552433732313a206d696e7420746f20746865207a65726f2061646472657373600082015250565b60006133476020836126d4565b915061335282613311565b602082019050919050565b600060208201905081810360008301526133768161333a565b9050919050565b7f4552433732313a20746f6b656e20616c7265616479206d696e74656400000000600082015250565b60006133b3601c836126d4565b91506133be8261337d565b602082019050919050565b600060208201905081810360008301526133e2816133a6565b9050919050565b60006133f482612608565b91506133ff83612608565b9250827fffffffffffffffffffffffffffffffffffffffffffffffffffffffffffffffff0382111561343457613433612cad565b5b828201905092915050565b7f45524337323155524953746f726167653a2055524920736574206f66206e6f6e60008201527f6578697374656e7420746f6b656e000000000000000000000000000000000000602082015250565b600061349b602e836126d4565b91506134a68261343f565b604082019050919050565b600060208201905081810360008301526134ca8161348e565b9050919050565b7f4572726f722c2077726f6e6720546f6b656e2069640000000000000000000000600082015250565b60006135076015836126d4565b9150613512826134d1565b602082019050919050565b60006020820190508181036000830152613536816134fa565b9050919050565b7f4572726f722c20546f6b656e20636f737473206d6f7265000000000000000000600082015250565b60006135736017836126d4565b915061357e8261353d565b602082019050919050565b600060208201905081810360008301526135a281613566565b9050919050565b7f4552433732313a206f70657261746f7220717565727920666f72206e6f6e657860008201527f697374656e7420746f6b656e0000000000000000000000000000000000000000602082015250565b6000613605602c836126d4565b9150613610826135a9565b604082019050919050565b60006020820190508181036000830152613634816135f8565b9050919050565b7f4552433732313a207472616e736665722066726f6d20696e636f72726563742060008201527f6f776e6572000000000000000000000000000000000000000000000000000000602082015250565b60006136976025836126d4565b91506136a28261363b565b604082019050919050565b600060208201905081810360008301526136c68161368a565b9050919050565b7f4552433732313a207472616e7366657220746f20746865207a65726f2061646460008201527f7265737300000000000000000000000000000000000000000000000000000000602082015250565b60006137296024836126d4565b9150613734826136cd565b604082019050919050565b600060208201905081810360008301526137588161371c565b9050919050565b600061376a82612608565b915061377583612608565b92508282101561378857613787612cad565b5b828203905092915050565b7f4552433732313a20617070726f766520746f2063616c6c657200000000000000600082015250565b60006137c96019836126d4565b91506137d482613793565b602082019050919050565b600060208201905081810360008301526137f8816137bc565b9050919050565b7f4552433732313a207472616e7366657220746f206e6f6e20455243373231526560008201527f63656976657220696d706c656d656e7465720000000000000000000000000000602082015250565b600061385b6032836126d4565b9150613866826137ff565b604082019050919050565b6000602082019050818103600083015261388a8161384e565b9050919050565b7f4552433732314d657461646174613a2055524920717565727920666f72206e6f60008201527f6e6578697374656e7420746f6b656e0000000000000000000000000000000000602082015250565b60006138ed602f836126d4565b91506138f882613891565b604082019050919050565b6000602082019050818103600083015261391c816138e0565b9050919050565b600081519050919050565b600082825260208201905092915050565b600061394a82613923565b613954818561392e565b93506139648185602086016126e5565b61396d816124cc565b840191505092915050565b600060808201905061398d60008301876127d2565b61399a60208301866127d2565b6139a76040830185612a48565b81810360608301526139b9818461393f565b905095945050505050565b6000815190506139d381612433565b92915050565b6000602082840312156139ef576139ee6123fd565b5b60006139fd848285016139c4565b91505092915050565b7f4e487b7100000000000000000000000000000000000000000000000000000000600052601260045260246000fd5b6000613a4082612608565b9150613a4b83612608565b925082613a5b57613a5a613a06565b5b828204905092915050565b6000613a7182612608565b9150613a7c83612608565b925082613a8c57613a8b613a06565b5b82820690509291505056fea2646970667358221220d98d1e5c266d68c4ba4fc148d1f618208cd67f920b03a39d63104bb48823b29264736f6c634300080c0033",
  "immutableReferences": {},
  "source": "// SPDX-License-Identifier: GPL-3.0\npragma solidity >=0.6.0 <0.9.0;\n\nimport \"@openzeppelin/contracts/token/ERC721/ERC721.sol\";\nimport \"@openzeppelin/contracts/access/Ownable.sol\";\nimport \"@openzeppelin/contracts/token/ERC721/extensions/ERC721URIStorage.sol\";\n\ncontract CustomNFTContract is ERC721URIStorage, Ownable {\n    address public _owner;\n    uint256 COUNTER;\n\n    struct Ticket {\n        uint256 id;\n        uint256 price;\n        string identifier;\n    }\n\n    Ticket[] public tickets;\n\n    constructor(string memory _name, string memory _ticker)\n        ERC721(_name, _ticker)\n    {\n        _owner = msg.sender;\n    }\n\n    function mint(\n        string memory _tokenURI,\n        uint256 _price,\n        string memory identifier\n    ) public payable returns (bool) {\n        uint256 _tokenId = COUNTER;\n        Ticket memory newTicket = Ticket(COUNTER, _price, identifier);\n        tickets.push(newTicket);\n        _mint(address(this), _tokenId);\n        _setTokenURI(_tokenId, _tokenURI);\n        COUNTER++;\n         _validate(_tokenId);\n        _trade(_tokenId);        \n        return true;\n    }\n\n    function _validate(uint256 _id) internal {\n        require(_exists(_id), \"Error, wrong Token id\"); //not exists\n        Ticket storage ticket = tickets[_id];\n        require(msg.value >= ticket.price, \"Error, Token costs more\"); //costs more\n    }\n\n    function _trade(uint256 _id) internal returns (Ticket memory) {\n        _transfer(address(this), msg.sender, _id); //nft to user\n        payable(_owner).transfer(msg.value); //eth to owner\n        Ticket storage ticket = tickets[_id];\n        return ticket;\n    }\n\n    function buyTicket(uint256 _id) public payable {\n        _validate(_id);\n        _trade(_id);\n    }\n\n    function getTickets() public view returns (Ticket[] memory) {\n        return tickets;\n    }\n\n    function getOwnerTickets(address _ownerAddress) public view returns (Ticket[] memory) {\n        Ticket[] memory result = new Ticket[](balanceOf(_ownerAddress));\n        uint256 counter = 0;\n        for (uint256 i = 0; i < tickets.length; i++) {\n            if (ownerOf(i) == _ownerAddress) {\n                result[counter] = tickets[i];\n                counter++;\n            }\n        }\n        return result;\n    }\n}\n",
  "sourcePath": "/workspace/nft-ticketting/backend/contracts/CustomCollection.sol",
  "compiler": {
    "name": "solc",
    "version": "0.8.12+commit.f00d7308.Emscripten.clang"
  },
  "schemaVersion": "3.4.5",
  "updatedAt": "2022-02-22T23:23:02.656Z",
  "devdoc": {
    "kind": "dev",
    "methods": {
      "approve(address,uint256)": {
        "details": "See {IERC721-approve}."
      },
      "balanceOf(address)": {
        "details": "See {IERC721-balanceOf}."
      },
      "getApproved(uint256)": {
        "details": "See {IERC721-getApproved}."
      },
      "isApprovedForAll(address,address)": {
        "details": "See {IERC721-isApprovedForAll}."
      },
      "name()": {
        "details": "See {IERC721Metadata-name}."
      },
      "owner()": {
        "details": "Returns the address of the current owner."
      },
      "ownerOf(uint256)": {
        "details": "See {IERC721-ownerOf}."
      },
      "renounceOwnership()": {
        "details": "Leaves the contract without owner. It will not be possible to call `onlyOwner` functions anymore. Can only be called by the current owner. NOTE: Renouncing ownership will leave the contract without an owner, thereby removing any functionality that is only available to the owner."
      },
      "safeTransferFrom(address,address,uint256)": {
        "details": "See {IERC721-safeTransferFrom}."
      },
      "safeTransferFrom(address,address,uint256,bytes)": {
        "details": "See {IERC721-safeTransferFrom}."
      },
      "setApprovalForAll(address,bool)": {
        "details": "See {IERC721-setApprovalForAll}."
      },
      "supportsInterface(bytes4)": {
        "details": "See {IERC165-supportsInterface}."
      },
      "symbol()": {
        "details": "See {IERC721Metadata-symbol}."
      },
      "tokenURI(uint256)": {
        "details": "See {IERC721Metadata-tokenURI}."
      },
      "transferFrom(address,address,uint256)": {
        "details": "See {IERC721-transferFrom}."
      },
      "transferOwnership(address)": {
        "details": "Transfers ownership of the contract to a new account (`newOwner`). Can only be called by the current owner."
      }
    },
    "version": 1
  },
  "userdoc": {
    "kind": "user",
    "methods": {},
    "version": 1
  }
}