{
  "contractName": "Event",
  "abi": [
    {
      "inputs": [
        {
          "internalType": "string",
          "name": "_name",
          "type": "string"
        },
        {
          "internalType": "string",
          "name": "_ticker",
          "type": "string"
        },
        {
          "internalType": "uint256",
          "name": "_networkId",
          "type": "uint256"
        },
        {
          "components": [
            {
              "internalType": "string",
              "name": "name",
              "type": "string"
            },
            {
              "internalType": "string",
              "name": "description",
              "type": "string"
            },
            {
              "internalType": "string",
              "name": "ticket_type",
              "type": "string"
            },
            {
              "internalType": "uint256",
              "name": "quantity_available",
              "type": "uint256"
            },
            {
              "internalType": "uint256",
              "name": "max_per_order",
              "type": "uint256"
            },
            {
              "internalType": "uint256",
              "name": "price",
              "type": "uint256"
            }
          ],
          "internalType": "struct Event.Ticket[]",
          "name": "tickets",
          "type": "tuple[]"
        }
      ],
      "stateMutability": "nonpayable",
      "type": "constructor"
    },
    {
      "anonymous": false,
      "inputs": [
        {
          "indexed": true,
          "internalType": "address",
          "name": "owner",
          "type": "address"
        },
        {
          "indexed": true,
          "internalType": "address",
          "name": "approved",
          "type": "address"
        },
        {
          "indexed": true,
          "internalType": "uint256",
          "name": "tokenId",
          "type": "uint256"
        }
      ],
      "name": "Approval",
      "type": "event"
    },
    {
      "anonymous": false,
      "inputs": [
        {
          "indexed": true,
          "internalType": "address",
          "name": "owner",
          "type": "address"
        },
        {
          "indexed": true,
          "internalType": "address",
          "name": "operator",
          "type": "address"
        },
        {
          "indexed": false,
          "internalType": "bool",
          "name": "approved",
          "type": "bool"
        }
      ],
      "name": "ApprovalForAll",
      "type": "event"
    },
    {
      "anonymous": false,
      "inputs": [
        {
          "indexed": true,
          "internalType": "address",
          "name": "previousOwner",
          "type": "address"
        },
        {
          "indexed": true,
          "internalType": "address",
          "name": "newOwner",
          "type": "address"
        }
      ],
      "name": "OwnershipTransferred",
      "type": "event"
    },
    {
      "anonymous": false,
      "inputs": [
        {
          "indexed": true,
          "internalType": "address",
          "name": "from",
          "type": "address"
        },
        {
          "indexed": true,
          "internalType": "address",
          "name": "to",
          "type": "address"
        },
        {
          "indexed": true,
          "internalType": "uint256",
          "name": "tokenId",
          "type": "uint256"
        }
      ],
      "name": "Transfer",
      "type": "event"
    },
    {
      "inputs": [],
      "name": "_owner",
      "outputs": [
        {
          "internalType": "address",
          "name": "",
          "type": "address"
        }
      ],
      "stateMutability": "view",
      "type": "function"
    },
    {
      "inputs": [
        {
          "internalType": "address",
          "name": "to",
          "type": "address"
        },
        {
          "internalType": "uint256",
          "name": "tokenId",
          "type": "uint256"
        }
      ],
      "name": "approve",
      "outputs": [],
      "stateMutability": "nonpayable",
      "type": "function"
    },
    {
      "inputs": [
        {
          "internalType": "address",
          "name": "owner",
          "type": "address"
        }
      ],
      "name": "balanceOf",
      "outputs": [
        {
          "internalType": "uint256",
          "name": "",
          "type": "uint256"
        }
      ],
      "stateMutability": "view",
      "type": "function"
    },
    {
      "inputs": [
        {
          "internalType": "uint256",
          "name": "tokenId",
          "type": "uint256"
        }
      ],
      "name": "getApproved",
      "outputs": [
        {
          "internalType": "address",
          "name": "",
          "type": "address"
        }
      ],
      "stateMutability": "view",
      "type": "function"
    },
    {
      "inputs": [
        {
          "internalType": "address",
          "name": "owner",
          "type": "address"
        },
        {
          "internalType": "address",
          "name": "operator",
          "type": "address"
        }
      ],
      "name": "isApprovedForAll",
      "outputs": [
        {
          "internalType": "bool",
          "name": "",
          "type": "bool"
        }
      ],
      "stateMutability": "view",
      "type": "function"
    },
    {
      "inputs": [],
      "name": "name",
      "outputs": [
        {
          "internalType": "string",
          "name": "",
          "type": "string"
        }
      ],
      "stateMutability": "view",
      "type": "function"
    },
    {
      "inputs": [],
      "name": "owner",
      "outputs": [
        {
          "internalType": "address",
          "name": "",
          "type": "address"
        }
      ],
      "stateMutability": "view",
      "type": "function"
    },
    {
      "inputs": [
        {
          "internalType": "uint256",
          "name": "tokenId",
          "type": "uint256"
        }
      ],
      "name": "ownerOf",
      "outputs": [
        {
          "internalType": "address",
          "name": "",
          "type": "address"
        }
      ],
      "stateMutability": "view",
      "type": "function"
    },
    {
      "inputs": [],
      "name": "renounceOwnership",
      "outputs": [],
      "stateMutability": "nonpayable",
      "type": "function"
    },
    {
      "inputs": [
        {
          "internalType": "address",
          "name": "from",
          "type": "address"
        },
        {
          "internalType": "address",
          "name": "to",
          "type": "address"
        },
        {
          "internalType": "uint256",
          "name": "tokenId",
          "type": "uint256"
        }
      ],
      "name": "safeTransferFrom",
      "outputs": [],
      "stateMutability": "nonpayable",
      "type": "function"
    },
    {
      "inputs": [
        {
          "internalType": "address",
          "name": "from",
          "type": "address"
        },
        {
          "internalType": "address",
          "name": "to",
          "type": "address"
        },
        {
          "internalType": "uint256",
          "name": "tokenId",
          "type": "uint256"
        },
        {
          "internalType": "bytes",
          "name": "_data",
          "type": "bytes"
        }
      ],
      "name": "safeTransferFrom",
      "outputs": [],
      "stateMutability": "nonpayable",
      "type": "function"
    },
    {
      "inputs": [
        {
          "internalType": "address",
          "name": "operator",
          "type": "address"
        },
        {
          "internalType": "bool",
          "name": "approved",
          "type": "bool"
        }
      ],
      "name": "setApprovalForAll",
      "outputs": [],
      "stateMutability": "nonpayable",
      "type": "function"
    },
    {
      "inputs": [
        {
          "internalType": "bytes4",
          "name": "interfaceId",
          "type": "bytes4"
        }
      ],
      "name": "supportsInterface",
      "outputs": [
        {
          "internalType": "bool",
          "name": "",
          "type": "bool"
        }
      ],
      "stateMutability": "view",
      "type": "function"
    },
    {
      "inputs": [],
      "name": "symbol",
      "outputs": [
        {
          "internalType": "string",
          "name": "",
          "type": "string"
        }
      ],
      "stateMutability": "view",
      "type": "function"
    },
    {
      "inputs": [
        {
          "internalType": "uint256",
          "name": "tokenId",
          "type": "uint256"
        }
      ],
      "name": "tokenURI",
      "outputs": [
        {
          "internalType": "string",
          "name": "",
          "type": "string"
        }
      ],
      "stateMutability": "view",
      "type": "function"
    },
    {
      "inputs": [
        {
          "internalType": "address",
          "name": "from",
          "type": "address"
        },
        {
          "internalType": "address",
          "name": "to",
          "type": "address"
        },
        {
          "internalType": "uint256",
          "name": "tokenId",
          "type": "uint256"
        }
      ],
      "name": "transferFrom",
      "outputs": [],
      "stateMutability": "nonpayable",
      "type": "function"
    },
    {
      "inputs": [
        {
          "internalType": "address",
          "name": "newOwner",
          "type": "address"
        }
      ],
      "name": "transferOwnership",
      "outputs": [],
      "stateMutability": "nonpayable",
      "type": "function"
    },
    {
      "inputs": [
        {
          "components": [
            {
              "internalType": "uint256",
              "name": "ticketId",
              "type": "uint256"
            },
            {
              "internalType": "string",
              "name": "tokenURI",
              "type": "string"
            },
            {
              "internalType": "address",
              "name": "owner",
              "type": "address"
            }
          ],
          "internalType": "struct Event.TicketPurchase[]",
          "name": "purchases",
          "type": "tuple[]"
        }
      ],
      "name": "mint",
      "outputs": [],
      "stateMutability": "payable",
      "type": "function"
    },
    {
      "inputs": [],
      "name": "category",
      "outputs": [
        {
          "internalType": "string",
          "name": "",
          "type": "string"
        }
      ],
      "stateMutability": "view",
      "type": "function"
    },
    {
      "inputs": [],
      "name": "network",
      "outputs": [
        {
          "internalType": "uint256",
          "name": "",
          "type": "uint256"
        }
      ],
      "stateMutability": "view",
      "type": "function"
    },
    {
      "inputs": [],
      "name": "visibility",
      "outputs": [
        {
          "internalType": "string",
          "name": "",
          "type": "string"
        }
      ],
      "stateMutability": "view",
      "type": "function"
    },
    {
      "inputs": [],
      "name": "cover_image_url",
      "outputs": [
        {
          "internalType": "string",
          "name": "",
          "type": "string"
        }
      ],
      "stateMutability": "view",
      "type": "function"
    },
    {
      "inputs": [],
      "name": "created_tickets",
      "outputs": [
        {
          "components": [
            {
              "internalType": "string",
              "name": "name",
              "type": "string"
            },
            {
              "internalType": "string",
              "name": "description",
              "type": "string"
            },
            {
              "internalType": "string",
              "name": "ticket_type",
              "type": "string"
            },
            {
              "internalType": "uint256",
              "name": "quantity_available",
              "type": "uint256"
            },
            {
              "internalType": "uint256",
              "name": "max_per_order",
              "type": "uint256"
            },
            {
              "internalType": "uint256",
              "name": "price",
              "type": "uint256"
            }
          ],
          "internalType": "struct Event.Ticket[]",
          "name": "",
          "type": "tuple[]"
        }
      ],
      "stateMutability": "view",
      "type": "function"
    },
    {
      "inputs": [
        {
          "components": [
            {
              "internalType": "string",
              "name": "name",
              "type": "string"
            },
            {
              "internalType": "string",
              "name": "description",
              "type": "string"
            },
            {
              "internalType": "string",
              "name": "ticket_type",
              "type": "string"
            },
            {
              "internalType": "uint256",
              "name": "quantity_available",
              "type": "uint256"
            },
            {
              "internalType": "uint256",
              "name": "max_per_order",
              "type": "uint256"
            },
            {
              "internalType": "uint256",
              "name": "price",
              "type": "uint256"
            }
          ],
          "internalType": "struct Event.Ticket[]",
          "name": "tickets",
          "type": "tuple[]"
        }
      ],
      "name": "storeTickets",
      "outputs": [],
      "stateMutability": "nonpayable",
      "type": "function"
    },
    {
      "inputs": [
        {
          "internalType": "address",
          "name": "_address",
          "type": "address"
        }
      ],
      "name": "getTicketsForAddress",
      "outputs": [
        {
          "components": [
            {
              "internalType": "uint256",
              "name": "id",
              "type": "uint256"
            },
            {
              "internalType": "address",
              "name": "owner",
              "type": "address"
            },
            {
              "internalType": "uint256",
              "name": "ticketId",
              "type": "uint256"
            }
          ],
          "internalType": "struct Event.SuccessfulPurchase[]",
          "name": "",
          "type": "tuple[]"
        }
      ],
      "stateMutability": "view",
      "type": "function"
    }
  ],
  "bytecode": "0x60806040523480156200001157600080fd5b5060405162005341380380620053418339818101604052810190620000379190620008fe565b838381600090805190602001906200005192919062000462565b5080600190805190602001906200006a92919062000462565b5050506200008d62000081620000f060201b60201c565b620000f860201b60201c565b33600860006101000a81548173ffffffffffffffffffffffffffffffffffffffff021916908373ffffffffffffffffffffffffffffffffffffffff16021790555081600b81905550620000e681620001be60201b60201c565b5050505062000c12565b600033905090565b6000600760009054906101000a900473ffffffffffffffffffffffffffffffffffffffff16905081600760006101000a81548173ffffffffffffffffffffffffffffffffffffffff021916908373ffffffffffffffffffffffffffffffffffffffff1602179055508173ffffffffffffffffffffffffffffffffffffffff168173ffffffffffffffffffffffffffffffffffffffff167f8be0079c531659141344cd1fd0a4f28419497f9722a3daafe3b4186f6b6457e060405160405180910390a35050565b60005b81518110156200045e576000828281518110620001e357620001e2620009cd565b5b602002602001015190506000604051602001620002009062000a57565b6040516020818303038152906040528051906020012082604001516040516020016200022d919062000ab0565b604051602081830303815290604052805190602001201415905060006040516020016200025a9062000b19565b60405160208183030381529060405280519060200120836040015160405160200162000287919062000ab0565b6040516020818303038152906040528051906020012014159050808015620002ac5750815b15620002f1576040518060400160405280600481526020017f667265650000000000000000000000000000000000000000000000000000000081525083604001819052505b604051602001620003029062000b19565b6040516020818303038152906040528051906020012083604001516040516020016200032f919062000ab0565b604051602081830303815290604052805190602001201415620003585760008360a00181815250505b600e6040518060c0016040528085600001518152602001856020015181526020018560400151815260200185606001518152602001856080015181526020018560a0015181525090806001815401808255809150506001900390600052602060002090600602016000909190919091506000820151816000019080519060200190620003e692919062000462565b5060208201518160010190805190602001906200040592919062000462565b5060408201518160020190805190602001906200042492919062000462565b50606082015181600301556080820151816004015560a0820151816005015550505050508080620004559062000b5f565b915050620001c1565b5050565b828054620004709062000bdc565b90600052602060002090601f016020900481019282620004945760008555620004e0565b82601f10620004af57805160ff1916838001178555620004e0565b82800160010185558215620004e0579182015b82811115620004df578251825591602001919060010190620004c2565b5b509050620004ef9190620004f3565b5090565b5b808211156200050e576000816000905550600101620004f4565b5090565b6000604051905090565b600080fd5b600080fd5b600080fd5b600080fd5b6000601f19601f8301169050919050565b7f4e487b7100000000000000000000000000000000000000000000000000000000600052604160045260246000fd5b6200057b8262000530565b810181811067ffffffffffffffff821117156200059d576200059c62000541565b5b80604052505050565b6000620005b262000512565b9050620005c0828262000570565b919050565b600067ffffffffffffffff821115620005e357620005e262000541565b5b620005ee8262000530565b9050602081019050919050565b60005b838110156200061b578082015181840152602081019050620005fe565b838111156200062b576000848401525b50505050565b6000620006486200064284620005c5565b620005a6565b9050828152602081018484840111156200066757620006666200052b565b5b62000674848285620005fb565b509392505050565b600082601f83011262000694576200069362000526565b5b8151620006a684826020860162000631565b91505092915050565b6000819050919050565b620006c481620006af565b8114620006d057600080fd5b50565b600081519050620006e481620006b9565b92915050565b600067ffffffffffffffff82111562000708576200070762000541565b5b602082029050602081019050919050565b600080fd5b600080fd5b600080fd5b600060c082840312156200074157620007406200071e565b5b6200074d60c0620005a6565b9050600082015167ffffffffffffffff81111562000770576200076f62000723565b5b6200077e848285016200067c565b600083015250602082015167ffffffffffffffff811115620007a557620007a462000723565b5b620007b3848285016200067c565b602083015250604082015167ffffffffffffffff811115620007da57620007d962000723565b5b620007e8848285016200067c565b6040830152506060620007fe84828501620006d3565b60608301525060806200081484828501620006d3565b60808301525060a06200082a84828501620006d3565b60a08301525092915050565b60006200084d6200084784620006ea565b620005a6565b9050808382526020820190506020840283018581111562000873576200087262000719565b5b835b81811015620008c157805167ffffffffffffffff8111156200089c576200089b62000526565b5b808601620008ab898262000728565b8552602085019450505060208101905062000875565b5050509392505050565b600082601f830112620008e357620008e262000526565b5b8151620008f584826020860162000836565b91505092915050565b600080600080608085870312156200091b576200091a6200051c565b5b600085015167ffffffffffffffff8111156200093c576200093b62000521565b5b6200094a878288016200067c565b945050602085015167ffffffffffffffff8111156200096e576200096d62000521565b5b6200097c878288016200067c565b93505060406200098f87828801620006d3565b925050606085015167ffffffffffffffff811115620009b357620009b262000521565b5b620009c187828801620008cb565b91505092959194509250565b7f4e487b7100000000000000000000000000000000000000000000000000000000600052603260045260246000fd5b600081905092915050565b7f7061696400000000000000000000000000000000000000000000000000000000600082015250565b600062000a3f600483620009fc565b915062000a4c8262000a07565b600482019050919050565b600062000a648262000a30565b9150819050919050565b600081519050919050565b600062000a868262000a6e565b62000a928185620009fc565b935062000aa4818560208601620005fb565b80840191505092915050565b600062000abe828462000a79565b915081905092915050565b7f6672656500000000000000000000000000000000000000000000000000000000600082015250565b600062000b01600483620009fc565b915062000b0e8262000ac9565b600482019050919050565b600062000b268262000af2565b9150819050919050565b7f4e487b7100000000000000000000000000000000000000000000000000000000600052601160045260246000fd5b600062000b6c82620006af565b91507fffffffffffffffffffffffffffffffffffffffffffffffffffffffffffffffff82141562000ba25762000ba162000b30565b5b600182019050919050565b7f4e487b7100000000000000000000000000000000000000000000000000000000600052602260045260246000fd5b6000600282049050600182168062000bf557607f821691505b6020821081141562000c0c5762000c0b62000bad565b5b50919050565b61471f8062000c226000396000f3fe6080604052600436106101665760003560e01c8063715018a6116100d1578063b88d4fde1161008a578063e985e9c511610064578063e985e9c51461052f578063ef430aa61461056c578063f2fde38b14610597578063fce9912b146105c057610166565b8063b88d4fde1461048c578063b9a8efb9146104b5578063c87b56dd146104f257610166565b8063715018a6146103a0578063776675e0146103b75780638da5cb5b146103e257806395d89b411461040d578063a22cb46514610438578063b2bdfa7b1461046157610166565b806329adec141161012357806329adec141461028b57806342842e0e146102b657806352cc6be6146102df5780636352211e146102fb5780636739afca1461033857806370a082311461036357610166565b806301ffc9a71461016b57806306fdde03146101a8578063081812fc146101d3578063095ea7b314610210578063130c1ab11461023957806323b872dd14610262575b600080fd5b34801561017757600080fd5b50610192600480360381019061018d9190612b61565b6105eb565b60405161019f9190612ba9565b60405180910390f35b3480156101b457600080fd5b506101bd6106cd565b6040516101ca9190612c5d565b60405180910390f35b3480156101df57600080fd5b506101fa60048036038101906101f59190612cb5565b61075f565b6040516102079190612d23565b60405180910390f35b34801561021c57600080fd5b5061023760048036038101906102329190612d6a565b6107e4565b005b34801561024557600080fd5b50610260600480360381019061025b91906130c3565b6108fc565b005b34801561026e57600080fd5b506102896004803603810190610284919061310c565b610b84565b005b34801561029757600080fd5b506102a0610be4565b6040516102ad9190612c5d565b60405180910390f35b3480156102c257600080fd5b506102dd60048036038101906102d8919061310c565b610c76565b005b6102f960048036038101906102f491906132c0565b610c96565b005b34801561030757600080fd5b50610322600480360381019061031d9190612cb5565b610eaa565b60405161032f9190612d23565b60405180910390f35b34801561034457600080fd5b5061034d610f5c565b60405161035a9190613318565b60405180910390f35b34801561036f57600080fd5b5061038a60048036038101906103859190613333565b610f66565b6040516103979190613318565b60405180910390f35b3480156103ac57600080fd5b506103b561101e565b005b3480156103c357600080fd5b506103cc6110a6565b6040516103d99190613512565b60405180910390f35b3480156103ee57600080fd5b506103f76112d9565b6040516104049190612d23565b60405180910390f35b34801561041957600080fd5b50610422611303565b60405161042f9190612c5d565b60405180910390f35b34801561044457600080fd5b5061045f600480360381019061045a9190613560565b611395565b005b34801561046d57600080fd5b506104766113ab565b6040516104839190612d23565b60405180910390f35b34801561049857600080fd5b506104b360048036038101906104ae9190613641565b6113d1565b005b3480156104c157600080fd5b506104dc60048036038101906104d79190613333565b611433565b6040516104e991906137c4565b60405180910390f35b3480156104fe57600080fd5b5061051960048036038101906105149190612cb5565b6115c4565b6040516105269190612c5d565b60405180910390f35b34801561053b57600080fd5b50610556600480360381019061055191906137e6565b611716565b6040516105639190612ba9565b60405180910390f35b34801561057857600080fd5b506105816117aa565b60405161058e9190612c5d565b60405180910390f35b3480156105a357600080fd5b506105be60048036038101906105b99190613333565b61183c565b005b3480156105cc57600080fd5b506105d5611934565b6040516105e29190612c5d565b60405180910390f35b60007f80ac58cd000000000000000000000000000000000000000000000000000000007bffffffffffffffffffffffffffffffffffffffffffffffffffffffff1916827bffffffffffffffffffffffffffffffffffffffffffffffffffffffff191614806106b657507f5b5e139f000000000000000000000000000000000000000000000000000000007bffffffffffffffffffffffffffffffffffffffffffffffffffffffff1916827bffffffffffffffffffffffffffffffffffffffffffffffffffffffff1916145b806106c657506106c5826119c6565b5b9050919050565b6060600080546106dc90613855565b80601f016020809104026020016040519081016040528092919081815260200182805461070890613855565b80156107555780601f1061072a57610100808354040283529160200191610755565b820191906000526020600020905b81548152906001019060200180831161073857829003601f168201915b5050505050905090565b600061076a82611a30565b6107a9576040517f08c379a00000000000000000000000000000000000000000000000000000000081526004016107a0906138f9565b60405180910390fd5b6004600083815260200190815260200160002060009054906101000a900473ffffffffffffffffffffffffffffffffffffffff169050919050565b60006107ef82610eaa565b90508073ffffffffffffffffffffffffffffffffffffffff168373ffffffffffffffffffffffffffffffffffffffff161415610860576040517f08c379a00000000000000000000000000000000000000000000000000000000081526004016108579061398b565b60405180910390fd5b8073ffffffffffffffffffffffffffffffffffffffff1661087f611a9c565b73ffffffffffffffffffffffffffffffffffffffff1614806108ae57506108ad816108a8611a9c565b611716565b5b6108ed576040517f08c379a00000000000000000000000000000000000000000000000000000000081526004016108e490613a1d565b60405180910390fd5b6108f78383611aa4565b505050565b60005b8151811015610b8057600082828151811061091d5761091c613a3d565b5b60200260200101519050600060405160200161093890613ac3565b6040516020818303038152906040528051906020012082604001516040516020016109639190613b09565b6040516020818303038152906040528051906020012014159050600060405160200161098e90613b6c565b6040516020818303038152906040528051906020012083604001516040516020016109b99190613b09565b60405160208183030381529060405280519060200120141590508080156109dd5750815b15610a21576040518060400160405280600481526020017f667265650000000000000000000000000000000000000000000000000000000081525083604001819052505b604051602001610a3090613b6c565b604051602081830303815290604052805190602001208360400151604051602001610a5b9190613b09565b604051602081830303815290604052805190602001201415610a835760008360a00181815250505b600e6040518060c0016040528085600001518152602001856020015181526020018560400151815260200185606001518152602001856080015181526020018560a0015181525090806001815401808255809150506001900390600052602060002090600602016000909190919091506000820151816000019080519060200190610b0f929190612a1b565b506020820151816001019080519060200190610b2c929190612a1b565b506040820151816002019080519060200190610b49929190612a1b565b50606082015181600301556080820151816004015560a0820151816005015550505050508080610b7890613bb0565b9150506108ff565b5050565b610b95610b8f611a9c565b82611b5d565b610bd4576040517f08c379a0000000000000000000000000000000000000000000000000000000008152600401610bcb90613c6b565b60405180910390fd5b610bdf838383611c3b565b505050565b6060600c8054610bf390613855565b80601f0160208091040260200160405190810160405280929190818152602001828054610c1f90613855565b8015610c6c5780601f10610c4157610100808354040283529160200191610c6c565b820191906000526020600020905b815481529060010190602001808311610c4f57829003601f168201915b5050505050905090565b610c91838383604051806020016040528060008152506113d1565b505050565b6000610ca182611ea2565b905080341015610ce6576040517f08c379a0000000000000000000000000000000000000000000000000000000008152600401610cdd90613cd7565b60405180910390fd5b60005b8251811015610e3c576000838281518110610d0757610d06613a3d565b5b6020026020010151905060006009549050610d223082612108565b610d308183602001516122e2565b60006040518060600160405280838152602001846040015173ffffffffffffffffffffffffffffffffffffffff16815260200184600001518152509050600f8190806001815401808255809150506001900390600052602060002090600302016000909190919091506000820151816000015560208201518160010160006101000a81548173ffffffffffffffffffffffffffffffffffffffff021916908373ffffffffffffffffffffffffffffffffffffffff160217905550604082015181600201555050610dff82612356565b50610e0e8284604001516123a9565b60096000815480929190610e2190613bb0565b91905055505050508080610e3490613bb0565b915050610ce9565b50600860009054906101000a900473ffffffffffffffffffffffffffffffffffffffff1673ffffffffffffffffffffffffffffffffffffffff166108fc349081150290604051600060405180830381858888f19350505050158015610ea5573d6000803e3d6000fd5b505050565b6000806002600084815260200190815260200160002060009054906101000a900473ffffffffffffffffffffffffffffffffffffffff169050600073ffffffffffffffffffffffffffffffffffffffff168173ffffffffffffffffffffffffffffffffffffffff161415610f53576040517f08c379a0000000000000000000000000000000000000000000000000000000008152600401610f4a90613d69565b60405180910390fd5b80915050919050565b6000600b54905090565b60008073ffffffffffffffffffffffffffffffffffffffff168273ffffffffffffffffffffffffffffffffffffffff161415610fd7576040517f08c379a0000000000000000000000000000000000000000000000000000000008152600401610fce90613dfb565b60405180910390fd5b600360008373ffffffffffffffffffffffffffffffffffffffff1673ffffffffffffffffffffffffffffffffffffffff168152602001908152602001600020549050919050565b611026611a9c565b73ffffffffffffffffffffffffffffffffffffffff166110446112d9565b73ffffffffffffffffffffffffffffffffffffffff161461109a576040517f08c379a000000000000000000000000000000000000000000000000000000000815260040161109190613e67565b60405180910390fd5b6110a460006123b8565b565b6060600e805480602002602001604051908101604052809291908181526020016000905b828210156112d057838290600052602060002090600602016040518060c00160405290816000820180546110fd90613855565b80601f016020809104026020016040519081016040528092919081815260200182805461112990613855565b80156111765780601f1061114b57610100808354040283529160200191611176565b820191906000526020600020905b81548152906001019060200180831161115957829003601f168201915b5050505050815260200160018201805461118f90613855565b80601f01602080910402602001604051908101604052809291908181526020018280546111bb90613855565b80156112085780601f106111dd57610100808354040283529160200191611208565b820191906000526020600020905b8154815290600101906020018083116111eb57829003601f168201915b5050505050815260200160028201805461122190613855565b80601f016020809104026020016040519081016040528092919081815260200182805461124d90613855565b801561129a5780601f1061126f5761010080835404028352916020019161129a565b820191906000526020600020905b81548152906001019060200180831161127d57829003601f168201915b505050505081526020016003820154815260200160048201548152602001600582015481525050815260200190600101906110ca565b50505050905090565b6000600760009054906101000a900473ffffffffffffffffffffffffffffffffffffffff16905090565b60606001805461131290613855565b80601f016020809104026020016040519081016040528092919081815260200182805461133e90613855565b801561138b5780601f106113605761010080835404028352916020019161138b565b820191906000526020600020905b81548152906001019060200180831161136e57829003601f168201915b5050505050905090565b6113a76113a0611a9c565b838361247e565b5050565b600860009054906101000a900473ffffffffffffffffffffffffffffffffffffffff1681565b6113e26113dc611a9c565b83611b5d565b611421576040517f08c379a000000000000000000000000000000000000000000000000000000000815260040161141890613c6b565b60405180910390fd5b61142d848484846125eb565b50505050565b6060600061144083610f66565b67ffffffffffffffff81111561145957611458612daf565b5b60405190808252806020026020018201604052801561149257816020015b61147f612aa1565b8152602001906001900390816114775790505b5090506000805b600f805490508110156115b9578473ffffffffffffffffffffffffffffffffffffffff166114c682610eaa565b73ffffffffffffffffffffffffffffffffffffffff1614156115a657600f81815481106114f6576114f5613a3d565b5b9060005260206000209060030201604051806060016040529081600082015481526020016001820160009054906101000a900473ffffffffffffffffffffffffffffffffffffffff1673ffffffffffffffffffffffffffffffffffffffff1673ffffffffffffffffffffffffffffffffffffffff16815260200160028201548152505083838151811061158c5761158b613a3d565b5b602002602001018190525081806115a290613bb0565b9250505b80806115b190613bb0565b915050611499565b508192505050919050565b60606115cf82611a30565b61160e576040517f08c379a000000000000000000000000000000000000000000000000000000000815260040161160590613ef9565b60405180910390fd5b600060066000848152602001908152602001600020805461162e90613855565b80601f016020809104026020016040519081016040528092919081815260200182805461165a90613855565b80156116a75780601f1061167c576101008083540402835291602001916116a7565b820191906000526020600020905b81548152906001019060200180831161168a57829003601f168201915b5050505050905060006116b8612647565b90506000815114156116ce578192505050611711565b6000825111156117035780826040516020016116eb929190613f19565b60405160208183030381529060405292505050611711565b61170c8461265e565b925050505b919050565b6000600560008473ffffffffffffffffffffffffffffffffffffffff1673ffffffffffffffffffffffffffffffffffffffff16815260200190815260200160002060008373ffffffffffffffffffffffffffffffffffffffff1673ffffffffffffffffffffffffffffffffffffffff16815260200190815260200160002060009054906101000a900460ff16905092915050565b6060600a80546117b990613855565b80601f01602080910402602001604051908101604052809291908181526020018280546117e590613855565b80156118325780601f1061180757610100808354040283529160200191611832565b820191906000526020600020905b81548152906001019060200180831161181557829003601f168201915b5050505050905090565b611844611a9c565b73ffffffffffffffffffffffffffffffffffffffff166118626112d9565b73ffffffffffffffffffffffffffffffffffffffff16146118b8576040517f08c379a00000000000000000000000000000000000000000000000000000000081526004016118af90613e67565b60405180910390fd5b600073ffffffffffffffffffffffffffffffffffffffff168173ffffffffffffffffffffffffffffffffffffffff161415611928576040517f08c379a000000000000000000000000000000000000000000000000000000000815260040161191f90613faf565b60405180910390fd5b611931816123b8565b50565b6060600d805461194390613855565b80601f016020809104026020016040519081016040528092919081815260200182805461196f90613855565b80156119bc5780601f10611991576101008083540402835291602001916119bc565b820191906000526020600020905b81548152906001019060200180831161199f57829003601f168201915b5050505050905090565b60007f01ffc9a7000000000000000000000000000000000000000000000000000000007bffffffffffffffffffffffffffffffffffffffffffffffffffffffff1916827bffffffffffffffffffffffffffffffffffffffffffffffffffffffff1916149050919050565b60008073ffffffffffffffffffffffffffffffffffffffff166002600084815260200190815260200160002060009054906101000a900473ffffffffffffffffffffffffffffffffffffffff1673ffffffffffffffffffffffffffffffffffffffff1614159050919050565b600033905090565b816004600083815260200190815260200160002060006101000a81548173ffffffffffffffffffffffffffffffffffffffff021916908373ffffffffffffffffffffffffffffffffffffffff160217905550808273ffffffffffffffffffffffffffffffffffffffff16611b1783610eaa565b73ffffffffffffffffffffffffffffffffffffffff167f8c5be1e5ebec7d5bd14f71427d1e84f3dd0314c0f7b2291e5b200ac8c7c3b92560405160405180910390a45050565b6000611b6882611a30565b611ba7576040517f08c379a0000000000000000000000000000000000000000000000000000000008152600401611b9e90614041565b60405180910390fd5b6000611bb283610eaa565b90508073ffffffffffffffffffffffffffffffffffffffff168473ffffffffffffffffffffffffffffffffffffffff161480611c2157508373ffffffffffffffffffffffffffffffffffffffff16611c098461075f565b73ffffffffffffffffffffffffffffffffffffffff16145b80611c325750611c318185611716565b5b91505092915050565b8273ffffffffffffffffffffffffffffffffffffffff16611c5b82610eaa565b73ffffffffffffffffffffffffffffffffffffffff1614611cb1576040517f08c379a0000000000000000000000000000000000000000000000000000000008152600401611ca8906140d3565b60405180910390fd5b600073ffffffffffffffffffffffffffffffffffffffff168273ffffffffffffffffffffffffffffffffffffffff161415611d21576040517f08c379a0000000000000000000000000000000000000000000000000000000008152600401611d1890614165565b60405180910390fd5b611d2c838383612705565b611d37600082611aa4565b6001600360008573ffffffffffffffffffffffffffffffffffffffff1673ffffffffffffffffffffffffffffffffffffffff1681526020019081526020016000206000828254611d879190614185565b925050819055506001600360008473ffffffffffffffffffffffffffffffffffffffff1673ffffffffffffffffffffffffffffffffffffffff1681526020019081526020016000206000828254611dde91906141b9565b92505081905550816002600083815260200190815260200160002060006101000a81548173ffffffffffffffffffffffffffffffffffffffff021916908373ffffffffffffffffffffffffffffffffffffffff160217905550808273ffffffffffffffffffffffffffffffffffffffff168473ffffffffffffffffffffffffffffffffffffffff167fddf252ad1be2c89b69c2b068fc378daa952ba7f163c4a11628f55a4df523b3ef60405160405180910390a4611e9d83838361270a565b505050565b6000806000905060005b83518110156120fe576000600e858381518110611ecc57611ecb613a3d565b5b60200260200101516000015181548110611ee957611ee8613a3d565b5b90600052602060002090600602016040518060c0016040529081600082018054611f1290613855565b80601f0160208091040260200160405190810160405280929190818152602001828054611f3e90613855565b8015611f8b5780601f10611f6057610100808354040283529160200191611f8b565b820191906000526020600020905b815481529060010190602001808311611f6e57829003601f168201915b50505050508152602001600182018054611fa490613855565b80601f0160208091040260200160405190810160405280929190818152602001828054611fd090613855565b801561201d5780601f10611ff25761010080835404028352916020019161201d565b820191906000526020600020905b81548152906001019060200180831161200057829003601f168201915b5050505050815260200160028201805461203690613855565b80601f016020809104026020016040519081016040528092919081815260200182805461206290613855565b80156120af5780601f10612084576101008083540402835291602001916120af565b820191906000526020600020905b81548152906001019060200180831161209257829003601f168201915b50505050508152602001600382015481526020016004820154815260200160058201548152505090508060a00151836120e891906141b9565b92505080806120f690613bb0565b915050611eac565b5080915050919050565b600073ffffffffffffffffffffffffffffffffffffffff168273ffffffffffffffffffffffffffffffffffffffff161415612178576040517f08c379a000000000000000000000000000000000000000000000000000000000815260040161216f9061425b565b60405180910390fd5b61218181611a30565b156121c1576040517f08c379a00000000000000000000000000000000000000000000000000000000081526004016121b8906142c7565b60405180910390fd5b6121cd60008383612705565b6001600360008473ffffffffffffffffffffffffffffffffffffffff1673ffffffffffffffffffffffffffffffffffffffff168152602001908152602001600020600082825461221d91906141b9565b92505081905550816002600083815260200190815260200160002060006101000a81548173ffffffffffffffffffffffffffffffffffffffff021916908373ffffffffffffffffffffffffffffffffffffffff160217905550808273ffffffffffffffffffffffffffffffffffffffff16600073ffffffffffffffffffffffffffffffffffffffff167fddf252ad1be2c89b69c2b068fc378daa952ba7f163c4a11628f55a4df523b3ef60405160405180910390a46122de6000838361270a565b5050565b6122eb82611a30565b61232a576040517f08c379a000000000000000000000000000000000000000000000000000000000815260040161232190614359565b60405180910390fd5b80600660008481526020019081526020016000209080519060200190612351929190612a1b565b505050565b600061236182611a30565b6123a0576040517f08c379a0000000000000000000000000000000000000000000000000000000008152600401612397906143c5565b60405180910390fd5b60019050919050565b6123b4308284611c3b565b5050565b6000600760009054906101000a900473ffffffffffffffffffffffffffffffffffffffff16905081600760006101000a81548173ffffffffffffffffffffffffffffffffffffffff021916908373ffffffffffffffffffffffffffffffffffffffff1602179055508173ffffffffffffffffffffffffffffffffffffffff168173ffffffffffffffffffffffffffffffffffffffff167f8be0079c531659141344cd1fd0a4f28419497f9722a3daafe3b4186f6b6457e060405160405180910390a35050565b8173ffffffffffffffffffffffffffffffffffffffff168373ffffffffffffffffffffffffffffffffffffffff1614156124ed576040517f08c379a00000000000000000000000000000000000000000000000000000000081526004016124e490614431565b60405180910390fd5b80600560008573ffffffffffffffffffffffffffffffffffffffff1673ffffffffffffffffffffffffffffffffffffffff16815260200190815260200160002060008473ffffffffffffffffffffffffffffffffffffffff1673ffffffffffffffffffffffffffffffffffffffff16815260200190815260200160002060006101000a81548160ff0219169083151502179055508173ffffffffffffffffffffffffffffffffffffffff168373ffffffffffffffffffffffffffffffffffffffff167f17307eab39ab6107e8899845ad3d59bd9653f200f220920489ca2b5937696c31836040516125de9190612ba9565b60405180910390a3505050565b6125f6848484611c3b565b6126028484848461270f565b612641576040517f08c379a0000000000000000000000000000000000000000000000000000000008152600401612638906144c3565b60405180910390fd5b50505050565b606060405180602001604052806000815250905090565b606061266982611a30565b6126a8576040517f08c379a000000000000000000000000000000000000000000000000000000000815260040161269f90614555565b60405180910390fd5b60006126b2612647565b905060008151116126d257604051806020016040528060008152506126fd565b806126dc84612897565b6040516020016126ed929190613f19565b6040516020818303038152906040525b915050919050565b505050565b505050565b60006127308473ffffffffffffffffffffffffffffffffffffffff166129f8565b1561288a578373ffffffffffffffffffffffffffffffffffffffff1663150b7a02612759611a9c565b8786866040518563ffffffff1660e01b815260040161277b94939291906145ca565b6020604051808303816000875af19250505080156127b757506040513d601f19601f820116820180604052508101906127b4919061462b565b60015b61283a573d80600081146127e7576040519150601f19603f3d011682016040523d82523d6000602084013e6127ec565b606091505b50600081511415612832576040517f08c379a0000000000000000000000000000000000000000000000000000000008152600401612829906144c3565b60405180910390fd5b805181602001fd5b63150b7a0260e01b7bffffffffffffffffffffffffffffffffffffffffffffffffffffffff1916817bffffffffffffffffffffffffffffffffffffffffffffffffffffffff19161491505061288f565b600190505b949350505050565b606060008214156128df576040518060400160405280600181526020017f300000000000000000000000000000000000000000000000000000000000000081525090506129f3565b600082905060005b600082146129115780806128fa90613bb0565b915050600a8261290a9190614687565b91506128e7565b60008167ffffffffffffffff81111561292d5761292c612daf565b5b6040519080825280601f01601f19166020018201604052801561295f5781602001600182028036833780820191505090505b5090505b600085146129ec576001826129789190614185565b9150600a8561298791906146b8565b603061299391906141b9565b60f81b8183815181106129a9576129a8613a3d565b5b60200101907effffffffffffffffffffffffffffffffffffffffffffffffffffffffffffff1916908160001a905350600a856129e59190614687565b9450612963565b8093505050505b919050565b6000808273ffffffffffffffffffffffffffffffffffffffff163b119050919050565b828054612a2790613855565b90600052602060002090601f016020900481019282612a495760008555612a90565b82601f10612a6257805160ff1916838001178555612a90565b82800160010185558215612a90579182015b82811115612a8f578251825591602001919060010190612a74565b5b509050612a9d9190612ad8565b5090565b604051806060016040528060008152602001600073ffffffffffffffffffffffffffffffffffffffff168152602001600081525090565b5b80821115612af1576000816000905550600101612ad9565b5090565b6000604051905090565b600080fd5b600080fd5b60007fffffffff0000000000000000000000000000000000000000000000000000000082169050919050565b612b3e81612b09565b8114612b4957600080fd5b50565b600081359050612b5b81612b35565b92915050565b600060208284031215612b7757612b76612aff565b5b6000612b8584828501612b4c565b91505092915050565b60008115159050919050565b612ba381612b8e565b82525050565b6000602082019050612bbe6000830184612b9a565b92915050565b600081519050919050565b600082825260208201905092915050565b60005b83811015612bfe578082015181840152602081019050612be3565b83811115612c0d576000848401525b50505050565b6000601f19601f8301169050919050565b6000612c2f82612bc4565b612c398185612bcf565b9350612c49818560208601612be0565b612c5281612c13565b840191505092915050565b60006020820190508181036000830152612c778184612c24565b905092915050565b6000819050919050565b612c9281612c7f565b8114612c9d57600080fd5b50565b600081359050612caf81612c89565b92915050565b600060208284031215612ccb57612cca612aff565b5b6000612cd984828501612ca0565b91505092915050565b600073ffffffffffffffffffffffffffffffffffffffff82169050919050565b6000612d0d82612ce2565b9050919050565b612d1d81612d02565b82525050565b6000602082019050612d386000830184612d14565b92915050565b612d4781612d02565b8114612d5257600080fd5b50565b600081359050612d6481612d3e565b92915050565b60008060408385031215612d8157612d80612aff565b5b6000612d8f85828601612d55565b9250506020612da085828601612ca0565b9150509250929050565b600080fd5b7f4e487b7100000000000000000000000000000000000000000000000000000000600052604160045260246000fd5b612de782612c13565b810181811067ffffffffffffffff82111715612e0657612e05612daf565b5b80604052505050565b6000612e19612af5565b9050612e258282612dde565b919050565b600067ffffffffffffffff821115612e4557612e44612daf565b5b602082029050602081019050919050565b600080fd5b600080fd5b600080fd5b600080fd5b600067ffffffffffffffff821115612e8557612e84612daf565b5b612e8e82612c13565b9050602081019050919050565b82818337600083830152505050565b6000612ebd612eb884612e6a565b612e0f565b905082815260208101848484011115612ed957612ed8612e65565b5b612ee4848285612e9b565b509392505050565b600082601f830112612f0157612f00612daa565b5b8135612f11848260208601612eaa565b91505092915050565b600060c08284031215612f3057612f2f612e5b565b5b612f3a60c0612e0f565b9050600082013567ffffffffffffffff811115612f5a57612f59612e60565b5b612f6684828501612eec565b600083015250602082013567ffffffffffffffff811115612f8a57612f89612e60565b5b612f9684828501612eec565b602083015250604082013567ffffffffffffffff811115612fba57612fb9612e60565b5b612fc684828501612eec565b6040830152506060612fda84828501612ca0565b6060830152506080612fee84828501612ca0565b60808301525060a061300284828501612ca0565b60a08301525092915050565b600061302161301c84612e2a565b612e0f565b9050808382526020820190506020840283018581111561304457613043612e56565b5b835b8181101561308b57803567ffffffffffffffff81111561306957613068612daa565b5b8086016130768982612f1a565b85526020850194505050602081019050613046565b5050509392505050565b600082601f8301126130aa576130a9612daa565b5b81356130ba84826020860161300e565b91505092915050565b6000602082840312156130d9576130d8612aff565b5b600082013567ffffffffffffffff8111156130f7576130f6612b04565b5b61310384828501613095565b91505092915050565b60008060006060848603121561312557613124612aff565b5b600061313386828701612d55565b935050602061314486828701612d55565b925050604061315586828701612ca0565b9150509250925092565b600067ffffffffffffffff82111561317a57613179612daf565b5b602082029050602081019050919050565b6000606082840312156131a1576131a0612e5b565b5b6131ab6060612e0f565b905060006131bb84828501612ca0565b600083015250602082013567ffffffffffffffff8111156131df576131de612e60565b5b6131eb84828501612eec565b60208301525060406131ff84828501612d55565b60408301525092915050565b600061321e6132198461315f565b612e0f565b9050808382526020820190506020840283018581111561324157613240612e56565b5b835b8181101561328857803567ffffffffffffffff81111561326657613265612daa565b5b808601613273898261318b565b85526020850194505050602081019050613243565b5050509392505050565b600082601f8301126132a7576132a6612daa565b5b81356132b784826020860161320b565b91505092915050565b6000602082840312156132d6576132d5612aff565b5b600082013567ffffffffffffffff8111156132f4576132f3612b04565b5b61330084828501613292565b91505092915050565b61331281612c7f565b82525050565b600060208201905061332d6000830184613309565b92915050565b60006020828403121561334957613348612aff565b5b600061335784828501612d55565b91505092915050565b600081519050919050565b600082825260208201905092915050565b6000819050602082019050919050565b600082825260208201905092915050565b60006133a882612bc4565b6133b2818561338c565b93506133c2818560208601612be0565b6133cb81612c13565b840191505092915050565b6133df81612c7f565b82525050565b600060c0830160008301518482036000860152613402828261339d565b9150506020830151848203602086015261341c828261339d565b91505060408301518482036040860152613436828261339d565b915050606083015161344b60608601826133d6565b50608083015161345e60808601826133d6565b5060a083015161347160a08601826133d6565b508091505092915050565b600061348883836133e5565b905092915050565b6000602082019050919050565b60006134a882613360565b6134b2818561336b565b9350836020820285016134c48561337c565b8060005b8581101561350057848403895281516134e1858261347c565b94506134ec83613490565b925060208a019950506001810190506134c8565b50829750879550505050505092915050565b6000602082019050818103600083015261352c818461349d565b905092915050565b61353d81612b8e565b811461354857600080fd5b50565b60008135905061355a81613534565b92915050565b6000806040838503121561357757613576612aff565b5b600061358585828601612d55565b92505060206135968582860161354b565b9150509250929050565b600067ffffffffffffffff8211156135bb576135ba612daf565b5b6135c482612c13565b9050602081019050919050565b60006135e46135df846135a0565b612e0f565b905082815260208101848484011115613600576135ff612e65565b5b61360b848285612e9b565b509392505050565b600082601f83011261362857613627612daa565b5b81356136388482602086016135d1565b91505092915050565b6000806000806080858703121561365b5761365a612aff565b5b600061366987828801612d55565b945050602061367a87828801612d55565b935050604061368b87828801612ca0565b925050606085013567ffffffffffffffff8111156136ac576136ab612b04565b5b6136b887828801613613565b91505092959194509250565b600081519050919050565b600082825260208201905092915050565b6000819050602082019050919050565b6136f981612d02565b82525050565b60608201600082015161371560008501826133d6565b50602082015161372860208501826136f0565b50604082015161373b60408501826133d6565b50505050565b600061374d83836136ff565b60608301905092915050565b6000602082019050919050565b6000613771826136c4565b61377b81856136cf565b9350613786836136e0565b8060005b838110156137b757815161379e8882613741565b97506137a983613759565b92505060018101905061378a565b5085935050505092915050565b600060208201905081810360008301526137de8184613766565b905092915050565b600080604083850312156137fd576137fc612aff565b5b600061380b85828601612d55565b925050602061381c85828601612d55565b9150509250929050565b7f4e487b7100000000000000000000000000000000000000000000000000000000600052602260045260246000fd5b6000600282049050600182168061386d57607f821691505b6020821081141561388157613880613826565b5b50919050565b7f4552433732313a20617070726f76656420717565727920666f72206e6f6e657860008201527f697374656e7420746f6b656e0000000000000000000000000000000000000000602082015250565b60006138e3602c83612bcf565b91506138ee82613887565b604082019050919050565b60006020820190508181036000830152613912816138d6565b9050919050565b7f4552433732313a20617070726f76616c20746f2063757272656e74206f776e6560008201527f7200000000000000000000000000000000000000000000000000000000000000602082015250565b6000613975602183612bcf565b915061398082613919565b604082019050919050565b600060208201905081810360008301526139a481613968565b9050919050565b7f4552433732313a20617070726f76652063616c6c6572206973206e6f74206f7760008201527f6e6572206e6f7220617070726f76656420666f7220616c6c0000000000000000602082015250565b6000613a07603883612bcf565b9150613a12826139ab565b604082019050919050565b60006020820190508181036000830152613a36816139fa565b9050919050565b7f4e487b7100000000000000000000000000000000000000000000000000000000600052603260045260246000fd5b600081905092915050565b7f7061696400000000000000000000000000000000000000000000000000000000600082015250565b6000613aad600483613a6c565b9150613ab882613a77565b600482019050919050565b6000613ace82613aa0565b9150819050919050565b6000613ae382612bc4565b613aed8185613a6c565b9350613afd818560208601612be0565b80840191505092915050565b6000613b158284613ad8565b915081905092915050565b7f6672656500000000000000000000000000000000000000000000000000000000600082015250565b6000613b56600483613a6c565b9150613b6182613b20565b600482019050919050565b6000613b7782613b49565b9150819050919050565b7f4e487b7100000000000000000000000000000000000000000000000000000000600052601160045260246000fd5b6000613bbb82612c7f565b91507fffffffffffffffffffffffffffffffffffffffffffffffffffffffffffffffff821415613bee57613bed613b81565b5b600182019050919050565b7f4552433732313a207472616e736665722063616c6c6572206973206e6f74206f60008201527f776e6572206e6f7220617070726f766564000000000000000000000000000000602082015250565b6000613c55603183612bcf565b9150613c6082613bf9565b604082019050919050565b60006020820190508181036000830152613c8481613c48565b9050919050565b7f546865207469636b65747320636f7374206d6f72650000000000000000000000600082015250565b6000613cc1601583612bcf565b9150613ccc82613c8b565b602082019050919050565b60006020820190508181036000830152613cf081613cb4565b9050919050565b7f4552433732313a206f776e657220717565727920666f72206e6f6e657869737460008201527f656e7420746f6b656e0000000000000000000000000000000000000000000000602082015250565b6000613d53602983612bcf565b9150613d5e82613cf7565b604082019050919050565b60006020820190508181036000830152613d8281613d46565b9050919050565b7f4552433732313a2062616c616e636520717565727920666f7220746865207a6560008201527f726f206164647265737300000000000000000000000000000000000000000000602082015250565b6000613de5602a83612bcf565b9150613df082613d89565b604082019050919050565b60006020820190508181036000830152613e1481613dd8565b9050919050565b7f4f776e61626c653a2063616c6c6572206973206e6f7420746865206f776e6572600082015250565b6000613e51602083612bcf565b9150613e5c82613e1b565b602082019050919050565b60006020820190508181036000830152613e8081613e44565b9050919050565b7f45524337323155524953746f726167653a2055524920717565727920666f722060008201527f6e6f6e6578697374656e7420746f6b656e000000000000000000000000000000602082015250565b6000613ee3603183612bcf565b9150613eee82613e87565b604082019050919050565b60006020820190508181036000830152613f1281613ed6565b9050919050565b6000613f258285613ad8565b9150613f318284613ad8565b91508190509392505050565b7f4f776e61626c653a206e6577206f776e657220697320746865207a65726f206160008201527f6464726573730000000000000000000000000000000000000000000000000000602082015250565b6000613f99602683612bcf565b9150613fa482613f3d565b604082019050919050565b60006020820190508181036000830152613fc881613f8c565b9050919050565b7f4552433732313a206f70657261746f7220717565727920666f72206e6f6e657860008201527f697374656e7420746f6b656e0000000000000000000000000000000000000000602082015250565b600061402b602c83612bcf565b915061403682613fcf565b604082019050919050565b6000602082019050818103600083015261405a8161401e565b9050919050565b7f4552433732313a207472616e736665722066726f6d20696e636f72726563742060008201527f6f776e6572000000000000000000000000000000000000000000000000000000602082015250565b60006140bd602583612bcf565b91506140c882614061565b604082019050919050565b600060208201905081810360008301526140ec816140b0565b9050919050565b7f4552433732313a207472616e7366657220746f20746865207a65726f2061646460008201527f7265737300000000000000000000000000000000000000000000000000000000602082015250565b600061414f602483612bcf565b915061415a826140f3565b604082019050919050565b6000602082019050818103600083015261417e81614142565b9050919050565b600061419082612c7f565b915061419b83612c7f565b9250828210156141ae576141ad613b81565b5b828203905092915050565b60006141c482612c7f565b91506141cf83612c7f565b9250827fffffffffffffffffffffffffffffffffffffffffffffffffffffffffffffffff0382111561420457614203613b81565b5b828201905092915050565b7f4552433732313a206d696e7420746f20746865207a65726f2061646472657373600082015250565b6000614245602083612bcf565b91506142508261420f565b602082019050919050565b6000602082019050818103600083015261427481614238565b9050919050565b7f4552433732313a20746f6b656e20616c7265616479206d696e74656400000000600082015250565b60006142b1601c83612bcf565b91506142bc8261427b565b602082019050919050565b600060208201905081810360008301526142e0816142a4565b9050919050565b7f45524337323155524953746f726167653a2055524920736574206f66206e6f6e60008201527f6578697374656e7420746f6b656e000000000000000000000000000000000000602082015250565b6000614343602e83612bcf565b915061434e826142e7565b604082019050919050565b6000602082019050818103600083015261437281614336565b9050919050565b7f4572726f722c2077726f6e6720546f6b656e2069640000000000000000000000600082015250565b60006143af601583612bcf565b91506143ba82614379565b602082019050919050565b600060208201905081810360008301526143de816143a2565b9050919050565b7f4552433732313a20617070726f766520746f2063616c6c657200000000000000600082015250565b600061441b601983612bcf565b9150614426826143e5565b602082019050919050565b6000602082019050818103600083015261444a8161440e565b9050919050565b7f4552433732313a207472616e7366657220746f206e6f6e20455243373231526560008201527f63656976657220696d706c656d656e7465720000000000000000000000000000602082015250565b60006144ad603283612bcf565b91506144b882614451565b604082019050919050565b600060208201905081810360008301526144dc816144a0565b9050919050565b7f4552433732314d657461646174613a2055524920717565727920666f72206e6f60008201527f6e6578697374656e7420746f6b656e0000000000000000000000000000000000602082015250565b600061453f602f83612bcf565b915061454a826144e3565b604082019050919050565b6000602082019050818103600083015261456e81614532565b9050919050565b600081519050919050565b600082825260208201905092915050565b600061459c82614575565b6145a68185614580565b93506145b6818560208601612be0565b6145bf81612c13565b840191505092915050565b60006080820190506145df6000830187612d14565b6145ec6020830186612d14565b6145f96040830185613309565b818103606083015261460b8184614591565b905095945050505050565b60008151905061462581612b35565b92915050565b60006020828403121561464157614640612aff565b5b600061464f84828501614616565b91505092915050565b7f4e487b7100000000000000000000000000000000000000000000000000000000600052601260045260246000fd5b600061469282612c7f565b915061469d83612c7f565b9250826146ad576146ac614658565b5b828204905092915050565b60006146c382612c7f565b91506146ce83612c7f565b9250826146de576146dd614658565b5b82820690509291505056fea264697066735822122087360e42277347540cedd86d16650fcba968980a246e55cb2caf7e51a030730464736f6c634300080c0033",
  "immutableReferences": {},
  "source": "// SPDX-License-Identifier: GPL-3.0\npragma solidity >=0.6.0 <0.9.0;\n\nimport \"@openzeppelin/contracts/token/ERC721/ERC721.sol\";\nimport \"@openzeppelin/contracts/access/Ownable.sol\";\nimport \"@openzeppelin/contracts/token/ERC721/extensions/ERC721URIStorage.sol\";\n\ncontract Event is ERC721URIStorage, Ownable {\n    address public _owner;\n    uint256 private COUNTER;\n    string private _category;\n    uint256 private _network_id;\n    string private _visibility;\n    string private _cover_image_url;\n\n    struct Ticket {\n        string name;\n        string description;\n        string ticket_type;\n        uint256 quantity_available;\n        uint256 max_per_order;\n        uint256 price;\n    }\n    Ticket[] private _tickets;\n    struct TicketPurchase {\n        uint256 ticketId;\n        string tokenURI;\n        address owner;\n    }\n    struct SuccessfulPurchase {\n        uint256 id;\n        address owner;\n        uint256 ticketId;\n    }\n    SuccessfulPurchase[] _sales;\n\n    constructor(\n        string memory _name,\n        string memory _ticker,\n        uint256 _networkId,\n        Ticket[] memory tickets\n    ) ERC721(_name, _ticker) {\n        _owner = msg.sender;\n        _network_id = _networkId;\n        storeTickets(tickets);\n    }\n\n    function _trade(uint256 _id, address owner) internal {\n        _transfer(address(this), owner, _id); //nft to user\n    }\n\n    function mint(TicketPurchase[] memory purchases) public payable {\n        uint256 totalCost = _getTotalCost(purchases);\n        require(msg.value >= totalCost, \"The tickets cost more\");\n        for (uint256 i = 0; i < purchases.length; i++) {\n            TicketPurchase memory purchase = purchases[i];\n            uint256 _tokenId = COUNTER;\n            _mint(address(this), _tokenId);\n            _setTokenURI(_tokenId, purchase.tokenURI);\n            SuccessfulPurchase memory sale = SuccessfulPurchase(\n                _tokenId,\n                purchase.owner,\n                purchase.ticketId\n            );\n            _sales.push(sale);\n            _validate(_tokenId);\n            _trade(_tokenId, purchase.owner);\n            COUNTER++;\n        }\n        payable(_owner).transfer(msg.value); //eth to owner\n    }\n\n    function category() public view returns (string memory) {\n        return _category;\n    }\n\n    function network() public view returns (uint256) {\n        return _network_id;\n    }\n\n    function visibility() public view returns (string memory) {\n        return _visibility;\n    }\n\n    function cover_image_url() public view returns (string memory) {\n        return _cover_image_url;\n    }\n\n    function created_tickets() public view returns (Ticket[] memory) {\n        return _tickets;\n    }\n\n    function _getTotalCost(TicketPurchase[] memory purchases)\n        internal\n        view\n        returns (uint256)\n    {\n        uint256 total = 0;\n        for (uint256 i = 0; i < purchases.length; i++) {\n            Ticket memory ticket = _tickets[purchases[i].ticketId];\n            total += ticket.price;\n        }\n        return total;\n    }\n\n    function storeTickets(Ticket[] memory tickets) public {\n        for (uint256 i = 0; i < tickets.length; i++) {\n            Ticket memory ticket = tickets[i];\n\n            bool isNotPaid = keccak256(abi.encodePacked(ticket.ticket_type)) !=\n                keccak256(abi.encodePacked(\"paid\"));\n            bool isNotFree = keccak256(abi.encodePacked(ticket.ticket_type)) !=\n                keccak256(abi.encodePacked(\"free\"));\n\n            if (isNotFree && isNotPaid) {\n                ticket.ticket_type = \"free\";\n            }\n\n            if (\n                keccak256(abi.encodePacked(ticket.ticket_type)) ==\n                keccak256(abi.encodePacked(\"free\"))\n            ) {\n                ticket.price = 0;\n            }\n\n            _tickets.push(\n                Ticket(\n                    ticket.name,\n                    ticket.description,\n                    ticket.ticket_type,\n                    ticket.quantity_available,\n                    ticket.max_per_order,\n                    ticket.price\n                )\n            );\n        }\n    }\n\n    function _validate(uint256 _id) internal view returns (bool) {\n        require(_exists(_id), \"Error, wrong Token id\");\n        return true;\n    }\n\n    function getTicketsForAddress(address _address)\n        public\n        view\n        returns (SuccessfulPurchase[] memory)\n    {\n        SuccessfulPurchase[] memory result = new SuccessfulPurchase[](\n            balanceOf(_address)\n        );\n        uint256 counter = 0;\n        for (uint256 i = 0; i < _sales.length; i++) {\n            if (ownerOf(i) == _address) {\n                result[counter] = _sales[i];\n                counter++;\n            }\n        }\n        return result;\n    }\n}\n",
  "sourcePath": "/workspace/nft-ticketting/backend/contracts/Event.sol",
  "compiler": {
    "name": "solc",
    "version": "0.8.12+commit.f00d7308.Emscripten.clang"
  },
  "schemaVersion": "3.4.5",
  "updatedAt": "2022-03-04T16:58:31.928Z",
  "devdoc": {
    "kind": "dev",
    "methods": {
      "approve(address,uint256)": {
        "details": "See {IERC721-approve}."
      },
      "balanceOf(address)": {
        "details": "See {IERC721-balanceOf}."
      },
      "getApproved(uint256)": {
        "details": "See {IERC721-getApproved}."
      },
      "isApprovedForAll(address,address)": {
        "details": "See {IERC721-isApprovedForAll}."
      },
      "name()": {
        "details": "See {IERC721Metadata-name}."
      },
      "owner()": {
        "details": "Returns the address of the current owner."
      },
      "ownerOf(uint256)": {
        "details": "See {IERC721-ownerOf}."
      },
      "renounceOwnership()": {
        "details": "Leaves the contract without owner. It will not be possible to call `onlyOwner` functions anymore. Can only be called by the current owner. NOTE: Renouncing ownership will leave the contract without an owner, thereby removing any functionality that is only available to the owner."
      },
      "safeTransferFrom(address,address,uint256)": {
        "details": "See {IERC721-safeTransferFrom}."
      },
      "safeTransferFrom(address,address,uint256,bytes)": {
        "details": "See {IERC721-safeTransferFrom}."
      },
      "setApprovalForAll(address,bool)": {
        "details": "See {IERC721-setApprovalForAll}."
      },
      "supportsInterface(bytes4)": {
        "details": "See {IERC165-supportsInterface}."
      },
      "symbol()": {
        "details": "See {IERC721Metadata-symbol}."
      },
      "tokenURI(uint256)": {
        "details": "See {IERC721Metadata-tokenURI}."
      },
      "transferFrom(address,address,uint256)": {
        "details": "See {IERC721-transferFrom}."
      },
      "transferOwnership(address)": {
        "details": "Transfers ownership of the contract to a new account (`newOwner`). Can only be called by the current owner."
      }
    },
    "version": 1
  },
  "userdoc": {
    "kind": "user",
    "methods": {},
    "version": 1
  }
}