{
  "contractName": "EventFactory",
  "abi": [
    {
      "inputs": [],
      "stateMutability": "nonpayable",
      "type": "constructor"
    },
    {
      "anonymous": false,
      "inputs": [
        {
          "indexed": false,
          "internalType": "address",
          "name": "contractAddress",
          "type": "address"
        }
      ],
      "name": "NewEvent",
      "type": "event"
    },
    {
      "inputs": [],
      "name": "PERCENTS_DIVIDER",
      "outputs": [
        {
          "internalType": "uint256",
          "name": "",
          "type": "uint256"
        }
      ],
      "stateMutability": "view",
      "type": "function"
    },
    {
      "inputs": [
        {
          "internalType": "uint256",
          "name": "",
          "type": "uint256"
        }
      ],
      "name": "_events",
      "outputs": [
        {
          "internalType": "address",
          "name": "",
          "type": "address"
        }
      ],
      "stateMutability": "view",
      "type": "function"
    },
    {
      "inputs": [],
      "name": "_owner",
      "outputs": [
        {
          "internalType": "address",
          "name": "",
          "type": "address"
        }
      ],
      "stateMutability": "view",
      "type": "function"
    },
    {
      "inputs": [],
      "name": "feesEarned",
      "outputs": [
        {
          "internalType": "uint256",
          "name": "",
          "type": "uint256"
        }
      ],
      "stateMutability": "view",
      "type": "function"
    },
    {
      "inputs": [],
      "name": "withdraw",
      "outputs": [],
      "stateMutability": "nonpayable",
      "type": "function"
    },
    {
      "inputs": [],
      "name": "allEvents",
      "outputs": [
        {
          "internalType": "address[]",
          "name": "",
          "type": "address[]"
        }
      ],
      "stateMutability": "view",
      "type": "function"
    },
    {
      "inputs": [
        {
          "internalType": "string",
          "name": "name",
          "type": "string"
        },
        {
          "internalType": "string",
          "name": "symbol",
          "type": "string"
        },
        {
          "components": [
            {
              "internalType": "string",
              "name": "name",
              "type": "string"
            },
            {
              "internalType": "string",
              "name": "description",
              "type": "string"
            },
            {
              "internalType": "enum BlocTick.TicketType",
              "name": "ticket_type",
              "type": "uint8"
            },
            {
              "internalType": "uint256",
              "name": "quantity_available",
              "type": "uint256"
            },
            {
              "internalType": "uint256",
              "name": "price",
              "type": "uint256"
            }
          ],
          "internalType": "struct BlocTick.Ticket[]",
          "name": "tickets",
          "type": "tuple[]"
        }
      ],
      "name": "addEvent",
      "outputs": [],
      "stateMutability": "nonpayable",
      "type": "function"
    },
    {
      "inputs": [
        {
          "internalType": "uint256",
          "name": "fee",
          "type": "uint256"
        }
      ],
      "name": "setPlatformPercent",
      "outputs": [],
      "stateMutability": "nonpayable",
      "type": "function"
    },
    {
      "inputs": [
        {
          "internalType": "address",
          "name": "eventContract",
          "type": "address"
        },
        {
          "components": [
            {
              "internalType": "string",
              "name": "purchaseId",
              "type": "string"
            },
            {
              "internalType": "uint256",
              "name": "ticketId",
              "type": "uint256"
            },
            {
              "internalType": "string",
              "name": "tokenURI",
              "type": "string"
            },
            {
              "internalType": "address",
              "name": "buyer",
              "type": "address"
            },
            {
              "internalType": "string",
              "name": "cost",
              "type": "string"
            }
          ],
          "internalType": "struct BlocTick.TicketPurchase[]",
          "name": "purchases",
          "type": "tuple[]"
        }
      ],
      "name": "mintTickets",
      "outputs": [],
      "stateMutability": "payable",
      "type": "function"
    }
  ],
  "bytecode": "0x6080604052601460035534801561001557600080fd5b50336000806101000a81548173ffffffffffffffffffffffffffffffffffffffff021916908373ffffffffffffffffffffffffffffffffffffffff1602179055506160a6806100656000396000f3fe608060405260043610620000925760003560e01c806396f229ca116200006157806396f229ca1462000131578063b2bdfa7b146200015f578063d50509f5146200018f578063f040d0f214620001bf578063ff001b3214620002035762000092565b806301c234a8146200009757806314d7c37514620000c75780633ccfd60b14620000f757806380f7668f1462000111575b600080fd5b348015620000a457600080fd5b50620000af62000231565b604051620000be9190620006f4565b60405180910390f35b348015620000d457600080fd5b50620000df62000237565b604051620000ee919062000813565b60405180910390f35b3480156200010457600080fd5b506200010f620002c7565b005b6200012f600480360381019062000129919062000c0d565b620003a4565b005b3480156200013e57600080fd5b506200015d600480360381019062000157919062000e6b565b6200046c565b005b3480156200016c57600080fd5b5062000177620005c6565b60405162000186919062000f35565b60405180910390f35b3480156200019c57600080fd5b50620001a7620005ea565b604051620001b69190620006f4565b60405180910390f35b348015620001cc57600080fd5b50620001eb6004803603810190620001e5919062000f52565b620005f0565b604051620001fa919062000f35565b60405180910390f35b3480156200021057600080fd5b506200022f600480360381019062000229919062000f52565b62000630565b005b6103e881565b60606002805480602002602001604051908101604052809291908181526020018280548015620002bd57602002820191906000526020600020905b8160009054906101000a900473ffffffffffffffffffffffffffffffffffffffff1673ffffffffffffffffffffffffffffffffffffffff168152602001906001019080831162000272575b5050505050905090565b60008054906101000a900473ffffffffffffffffffffffffffffffffffffffff1673ffffffffffffffffffffffffffffffffffffffff163373ffffffffffffffffffffffffffffffffffffffff161462000358576040517f08c379a00000000000000000000000000000000000000000000000000000000081526004016200034f9062000fe5565b60405180910390fd5b3373ffffffffffffffffffffffffffffffffffffffff166108fc6001549081150290604051600060405180830381858888f19350505050158015620003a1573d6000803e3d6000fd5b50565b600082905060006103e834600354620003be919062001036565b620003ca9190620010c6565b90508060016000828254620003e09190620010fe565b925050819055508173ffffffffffffffffffffffffffffffffffffffff16630a967bc6348584346200041391906200115b565b6040518463ffffffff1660e01b81526004016200043292919062001398565b6000604051808303818588803b1580156200044c57600080fd5b505af115801562000461573d6000803e3d6000fd5b505050505050505050565b60008383336040516200047f90620006cb565b6200048d939291906200140d565b604051809103906000f080158015620004aa573d6000803e3d6000fd5b5090508073ffffffffffffffffffffffffffffffffffffffff16633d181c7e83336040518363ffffffff1660e01b8152600401620004ea9291906200162f565b600060405180830381600087803b1580156200050557600080fd5b505af11580156200051a573d6000803e3d6000fd5b5050505060008190506002819080600181540180825580915050600190039060005260206000200160009091909190916101000a81548173ffffffffffffffffffffffffffffffffffffffff021916908373ffffffffffffffffffffffffffffffffffffffff1602179055507f0227e3b2fb10ea87b3ce0fe9b23554ad992c666dd128c13c0a6ef2d73dd80ba081604051620005b7919062000f35565b60405180910390a15050505050565b60008054906101000a900473ffffffffffffffffffffffffffffffffffffffff1681565b60015481565b600281815481106200060157600080fd5b906000526020600020016000915054906101000a900473ffffffffffffffffffffffffffffffffffffffff1681565b60008054906101000a900473ffffffffffffffffffffffffffffffffffffffff1673ffffffffffffffffffffffffffffffffffffffff163373ffffffffffffffffffffffffffffffffffffffff1614620006c1576040517f08c379a0000000000000000000000000000000000000000000000000000000008152600401620006b89062000fe5565b60405180910390fd5b8060038190555050565b614a0d806200166483390190565b6000819050919050565b620006ee81620006d9565b82525050565b60006020820190506200070b6000830184620006e3565b92915050565b600081519050919050565b600082825260208201905092915050565b6000819050602082019050919050565b600073ffffffffffffffffffffffffffffffffffffffff82169050919050565b60006200076a826200073d565b9050919050565b6200077c816200075d565b82525050565b600062000790838362000771565b60208301905092915050565b6000602082019050919050565b6000620007b68262000711565b620007c281856200071c565b9350620007cf836200072d565b8060005b8381101562000806578151620007ea888262000782565b9750620007f7836200079c565b925050600181019050620007d3565b5085935050505092915050565b600060208201905081810360008301526200082f8184620007a9565b905092915050565b6000604051905090565b600080fd5b600080fd5b62000856816200075d565b81146200086257600080fd5b50565b60008135905062000876816200084b565b92915050565b600080fd5b6000601f19601f8301169050919050565b7f4e487b7100000000000000000000000000000000000000000000000000000000600052604160045260246000fd5b620008cc8262000881565b810181811067ffffffffffffffff82111715620008ee57620008ed62000892565b5b80604052505050565b60006200090362000837565b9050620009118282620008c1565b919050565b600067ffffffffffffffff82111562000934576200093362000892565b5b602082029050602081019050919050565b600080fd5b600080fd5b600080fd5b600080fd5b600067ffffffffffffffff82111562000977576200097662000892565b5b620009828262000881565b9050602081019050919050565b82818337600083830152505050565b6000620009b5620009af8462000959565b620008f7565b905082815260208101848484011115620009d457620009d362000954565b5b620009e18482856200098f565b509392505050565b600082601f83011262000a015762000a006200087c565b5b813562000a138482602086016200099e565b91505092915050565b62000a2781620006d9565b811462000a3357600080fd5b50565b60008135905062000a478162000a1c565b92915050565b600060a0828403121562000a665762000a656200094a565b5b62000a7260a0620008f7565b9050600082013567ffffffffffffffff81111562000a955762000a946200094f565b5b62000aa384828501620009e9565b600083015250602062000ab98482850162000a36565b602083015250604082013567ffffffffffffffff81111562000ae05762000adf6200094f565b5b62000aee84828501620009e9565b604083015250606062000b048482850162000865565b606083015250608082013567ffffffffffffffff81111562000b2b5762000b2a6200094f565b5b62000b3984828501620009e9565b60808301525092915050565b600062000b5c62000b568462000916565b620008f7565b9050808382526020820190506020840283018581111562000b825762000b8162000945565b5b835b8181101562000bd057803567ffffffffffffffff81111562000bab5762000baa6200087c565b5b80860162000bba898262000a4d565b8552602085019450505060208101905062000b84565b5050509392505050565b600082601f83011262000bf25762000bf16200087c565b5b813562000c0484826020860162000b45565b91505092915050565b6000806040838503121562000c275762000c2662000841565b5b600062000c378582860162000865565b925050602083013567ffffffffffffffff81111562000c5b5762000c5a62000846565b5b62000c698582860162000bda565b9150509250929050565b600067ffffffffffffffff82111562000c915762000c9062000892565b5b602082029050602081019050919050565b6003811062000cb057600080fd5b50565b60008135905062000cc48162000ca2565b92915050565b600060a0828403121562000ce35762000ce26200094a565b5b62000cef60a0620008f7565b9050600082013567ffffffffffffffff81111562000d125762000d116200094f565b5b62000d2084828501620009e9565b600083015250602082013567ffffffffffffffff81111562000d475762000d466200094f565b5b62000d5584828501620009e9565b602083015250604062000d6b8482850162000cb3565b604083015250606062000d818482850162000a36565b606083015250608062000d978482850162000a36565b60808301525092915050565b600062000dba62000db48462000c73565b620008f7565b9050808382526020820190506020840283018581111562000de05762000ddf62000945565b5b835b8181101562000e2e57803567ffffffffffffffff81111562000e095762000e086200087c565b5b80860162000e18898262000cca565b8552602085019450505060208101905062000de2565b5050509392505050565b600082601f83011262000e505762000e4f6200087c565b5b813562000e6284826020860162000da3565b91505092915050565b60008060006060848603121562000e875762000e8662000841565b5b600084013567ffffffffffffffff81111562000ea85762000ea762000846565b5b62000eb686828701620009e9565b935050602084013567ffffffffffffffff81111562000eda5762000ed962000846565b5b62000ee886828701620009e9565b925050604084013567ffffffffffffffff81111562000f0c5762000f0b62000846565b5b62000f1a8682870162000e38565b9150509250925092565b62000f2f816200075d565b82525050565b600060208201905062000f4c600083018462000f24565b92915050565b60006020828403121562000f6b5762000f6a62000841565b5b600062000f7b8482850162000a36565b91505092915050565b600082825260208201905092915050565b7f4e6f204163636573730000000000000000000000000000000000000000000000600082015250565b600062000fcd60098362000f84565b915062000fda8262000f95565b602082019050919050565b60006020820190508181036000830152620010008162000fbe565b9050919050565b7f4e487b7100000000000000000000000000000000000000000000000000000000600052601160045260246000fd5b60006200104382620006d9565b91506200105083620006d9565b9250817fffffffffffffffffffffffffffffffffffffffffffffffffffffffffffffffff04831182151516156200108c576200108b62001007565b5b828202905092915050565b7f4e487b7100000000000000000000000000000000000000000000000000000000600052601260045260246000fd5b6000620010d382620006d9565b9150620010e083620006d9565b925082620010f357620010f262001097565b5b828204905092915050565b60006200110b82620006d9565b91506200111883620006d9565b9250827fffffffffffffffffffffffffffffffffffffffffffffffffffffffffffffffff0382111562001150576200114f62001007565b5b828201905092915050565b60006200116882620006d9565b91506200117583620006d9565b9250828210156200118b576200118a62001007565b5b828203905092915050565b600081519050919050565b600082825260208201905092915050565b6000819050602082019050919050565b600081519050919050565b600082825260208201905092915050565b60005b83811015620011fe578082015181840152602081019050620011e1565b838111156200120e576000848401525b50505050565b60006200122182620011c2565b6200122d8185620011cd565b93506200123f818560208601620011de565b6200124a8162000881565b840191505092915050565b6200126081620006d9565b82525050565b600060a083016000830151848203600086015262001285828262001214565b91505060208301516200129c602086018262001255565b5060408301518482036040860152620012b6828262001214565b9150506060830151620012cd606086018262000771565b5060808301518482036080860152620012e7828262001214565b9150508091505092915050565b600062001302838362001266565b905092915050565b6000602082019050919050565b6000620013248262001196565b620013308185620011a1565b9350836020820285016200134485620011b2565b8060005b85811015620013865784840389528151620013648582620012f4565b945062001371836200130a565b925060208a0199505060018101905062001348565b50829750879550505050505092915050565b60006040820190508181036000830152620013b4818562001317565b9050620013c56020830184620006e3565b9392505050565b6000620013d982620011c2565b620013e5818562000f84565b9350620013f7818560208601620011de565b620014028162000881565b840191505092915050565b60006060820190508181036000830152620014298186620013cc565b905081810360208301526200143f8185620013cc565b905062001450604083018462000f24565b949350505050565b600081519050919050565b600082825260208201905092915050565b6000819050602082019050919050565b7f4e487b7100000000000000000000000000000000000000000000000000000000600052602160045260246000fd5b60038110620014c757620014c662001484565b5b50565b6000819050620014da82620014b3565b919050565b6000620014ec82620014ca565b9050919050565b620014fe81620014df565b82525050565b600060a083016000830151848203600086015262001523828262001214565b915050602083015184820360208601526200153f828262001214565b9150506040830151620015566040860182620014f3565b5060608301516200156b606086018262001255565b50608083015162001580608086018262001255565b508091505092915050565b600062001599838362001504565b905092915050565b6000602082019050919050565b6000620015bb8262001458565b620015c7818562001463565b935083602082028501620015db8562001474565b8060005b858110156200161d5784840389528151620015fb85826200158b565b94506200160883620015a1565b925060208a01995050600181019050620015df565b50829750879550505050505092915050565b600060408201905081810360008301526200164b8185620015ae565b90506200165c602083018462000f24565b939250505056fe60806040526001600c60146101000a81548160ff0219169083151502179055503480156200002c57600080fd5b5060405162004a0d38038062004a0d8339818101604052810190620000529190620003c5565b828281600090805190602001906200006c92919062000113565b5080600190805190602001906200008592919062000113565b50505033600e60006101000a81548173ffffffffffffffffffffffffffffffffffffffff021916908373ffffffffffffffffffffffffffffffffffffffff16021790555080600c60006101000a81548173ffffffffffffffffffffffffffffffffffffffff021916908373ffffffffffffffffffffffffffffffffffffffff160217905550505050620004c3565b82805462000121906200048e565b90600052602060002090601f01602090048101928262000145576000855562000191565b82601f106200016057805160ff191683800117855562000191565b8280016001018555821562000191579182015b828111156200019057825182559160200191906001019062000173565b5b509050620001a09190620001a4565b5090565b5b80821115620001bf576000816000905550600101620001a5565b5090565b6000604051905090565b600080fd5b600080fd5b600080fd5b600080fd5b6000601f19601f8301169050919050565b7f4e487b7100000000000000000000000000000000000000000000000000000000600052604160045260246000fd5b6200022c82620001e1565b810181811067ffffffffffffffff821117156200024e576200024d620001f2565b5b80604052505050565b600062000263620001c3565b905062000271828262000221565b919050565b600067ffffffffffffffff821115620002945762000293620001f2565b5b6200029f82620001e1565b9050602081019050919050565b60005b83811015620002cc578082015181840152602081019050620002af565b83811115620002dc576000848401525b50505050565b6000620002f9620002f38462000276565b62000257565b905082815260208101848484011115620003185762000317620001dc565b5b62000325848285620002ac565b509392505050565b600082601f830112620003455762000344620001d7565b5b815162000357848260208601620002e2565b91505092915050565b600073ffffffffffffffffffffffffffffffffffffffff82169050919050565b60006200038d8262000360565b9050919050565b6200039f8162000380565b8114620003ab57600080fd5b50565b600081519050620003bf8162000394565b92915050565b600080600060608486031215620003e157620003e0620001cd565b5b600084015167ffffffffffffffff811115620004025762000401620001d2565b5b62000410868287016200032d565b935050602084015167ffffffffffffffff811115620004345762000433620001d2565b5b62000442868287016200032d565b92505060406200045586828701620003ae565b9150509250925092565b7f4e487b7100000000000000000000000000000000000000000000000000000000600052602260045260246000fd5b60006002820490506001821680620004a757607f821691505b602082108103620004bd57620004bc6200045f565b5b50919050565b61453a80620004d36000396000f3fe60806040526004361061011f5760003560e01c80636352211e116100a0578063b88d4fde11610064578063b88d4fde146103d7578063bba7723e14610400578063c87b56dd1461043d578063e985e9c51461047a578063eb8d2444146104b75761011f565b80636352211e146102de57806370a082311461031b57806395d89b4114610358578063a22cb46514610383578063b2bdfa7b146103ac5761011f565b80630a967bc6116100e75780630a967bc61461021b57806323b872dd146102375780633d181c7e1461026057806342842e0e146102895780635a9b0b89146102b25761011f565b806301ffc9a71461012457806302c889891461016157806306fdde031461018a578063081812fc146101b5578063095ea7b3146101f2575b600080fd5b34801561013057600080fd5b5061014b60048036038101906101469190612606565b6104e2565b604051610158919061264e565b60405180910390f35b34801561016d57600080fd5b5061018860048036038101906101839190612695565b6105c4565b005b34801561019657600080fd5b5061019f610673565b6040516101ac919061275b565b60405180910390f35b3480156101c157600080fd5b506101dc60048036038101906101d791906127b3565b610705565b6040516101e99190612821565b60405180910390f35b3480156101fe57600080fd5b5061021960048036038101906102149190612868565b61078a565b005b61023560048036038101906102309190612bad565b6108a1565b005b34801561024357600080fd5b5061025e60048036038101906102599190612c09565b610c1b565b005b34801561026c57600080fd5b5061028760048036038101906102829190612e26565b610c7b565b005b34801561029557600080fd5b506102b060048036038101906102ab9190612c09565b610e0d565b005b3480156102be57600080fd5b506102c7610e2d565b6040516102d5929190613038565b60405180910390f35b3480156102ea57600080fd5b50610305600480360381019061030091906127b3565b61109e565b6040516103129190612821565b60405180910390f35b34801561032757600080fd5b50610342600480360381019061033d9190613068565b61114f565b60405161034f9190613095565b60405180910390f35b34801561036457600080fd5b5061036d611206565b60405161037a919061275b565b60405180910390f35b34801561038f57600080fd5b506103aa60048036038101906103a591906130b0565b611298565b005b3480156103b857600080fd5b506103c16112ae565b6040516103ce9190612821565b60405180910390f35b3480156103e357600080fd5b506103fe60048036038101906103f99190613191565b6112d4565b005b34801561040c57600080fd5b5061042760048036038101906104229190613068565b611336565b60405161043491906132c3565b60405180910390f35b34801561044957600080fd5b50610464600480360381019061045f91906127b3565b61143b565b604051610471919061275b565b60405180910390f35b34801561048657600080fd5b506104a1600480360381019061049c91906132e5565b61158c565b6040516104ae919061264e565b60405180910390f35b3480156104c357600080fd5b506104cc611620565b6040516104d9919061264e565b60405180910390f35b60007f80ac58cd000000000000000000000000000000000000000000000000000000007bffffffffffffffffffffffffffffffffffffffffffffffffffffffff1916827bffffffffffffffffffffffffffffffffffffffffffffffffffffffff191614806105ad57507f5b5e139f000000000000000000000000000000000000000000000000000000007bffffffffffffffffffffffffffffffffffffffffffffffffffffffff1916827bffffffffffffffffffffffffffffffffffffffffffffffffffffffff1916145b806105bd57506105bc82611633565b5b9050919050565b33600c60009054906101000a900473ffffffffffffffffffffffffffffffffffffffff1673ffffffffffffffffffffffffffffffffffffffff168173ffffffffffffffffffffffffffffffffffffffff1614610655576040517f08c379a000000000000000000000000000000000000000000000000000000000815260040161064c90613371565b60405180910390fd5b81600c60146101000a81548160ff0219169083151502179055505050565b606060008054610682906133c0565b80601f01602080910402602001604051908101604052809291908181526020018280546106ae906133c0565b80156106fb5780601f106106d0576101008083540402835291602001916106fb565b820191906000526020600020905b8154815290600101906020018083116106de57829003601f168201915b5050505050905090565b60006107108261169d565b61074f576040517f08c379a000000000000000000000000000000000000000000000000000000000815260040161074690613463565b60405180910390fd5b6004600083815260200190815260200160002060009054906101000a900473ffffffffffffffffffffffffffffffffffffffff169050919050565b60006107958261109e565b90508073ffffffffffffffffffffffffffffffffffffffff168373ffffffffffffffffffffffffffffffffffffffff1603610805576040517f08c379a00000000000000000000000000000000000000000000000000000000081526004016107fc906134f5565b60405180910390fd5b8073ffffffffffffffffffffffffffffffffffffffff16610824611709565b73ffffffffffffffffffffffffffffffffffffffff16148061085357506108528161084d611709565b61158c565b5b610892576040517f08c379a000000000000000000000000000000000000000000000000000000000815260040161088990613587565b60405180910390fd5b61089c8383611711565b505050565b600e60009054906101000a900473ffffffffffffffffffffffffffffffffffffffff1673ffffffffffffffffffffffffffffffffffffffff163373ffffffffffffffffffffffffffffffffffffffff1614610931576040517f08c379a000000000000000000000000000000000000000000000000000000000815260040161092890613371565b60405180910390fd5b600c60149054906101000a900460ff1661094a57600080fd5b600873__TicketManager_________________________6341023a1e9091846040518363ffffffff1660e01b815260040161098692919061375c565b602060405180830381865af41580156109a3573d6000803e3d6000fd5b505050506040513d601f19601f820116820180604052508101906109c791906137a1565b341015610a09576040517f08c379a0000000000000000000000000000000000000000000000000000000008152600401610a009061381a565b60405180910390fd5b60005b8251811015610b94576000838281518110610a2a57610a2961383a565b5b602002602001015190506000610a4060076117ca565b9050610a4c30826117d8565b610a5660076119b1565b610a648183604001516119c7565b610a7330836060015183611a3b565b60086001016040518060a0016040528084600001518152602001846060015173ffffffffffffffffffffffffffffffffffffffff16815260200183815260200184602001518152602001846080015181525090806001815401808255809150506001900390600052602060002090600502016000909190919091506000820151816000019080519060200190610b0a9291906124f7565b5060208201518160010160006101000a81548173ffffffffffffffffffffffffffffffffffffffff021916908373ffffffffffffffffffffffffffffffffffffffff16021790555060408201518160020155606082015181600301556080820151816004019080519060200190610b829291906124f7565b50505082806001019350505050610a0c565b50600c60009054906101000a900473ffffffffffffffffffffffffffffffffffffffff1673ffffffffffffffffffffffffffffffffffffffff166108fc829081150290604051600060405180830381858888f19350505050158015610bfd573d6000803e3d6000fd5b5080600d6000828254610c109190613898565b925050819055505050565b610c2c610c26611709565b82611ca1565b610c6b576040517f08c379a0000000000000000000000000000000000000000000000000000000008152600401610c6290613960565b60405180910390fd5b610c76838383611a3b565b505050565b600e60009054906101000a900473ffffffffffffffffffffffffffffffffffffffff1673ffffffffffffffffffffffffffffffffffffffff163373ffffffffffffffffffffffffffffffffffffffff1614610d0b576040517f08c379a0000000000000000000000000000000000000000000000000000000008152600401610d0290613371565b60405180910390fd5b80600c60009054906101000a900473ffffffffffffffffffffffffffffffffffffffff1673ffffffffffffffffffffffffffffffffffffffff168173ffffffffffffffffffffffffffffffffffffffff1614610d9c576040517f08c379a0000000000000000000000000000000000000000000000000000000008152600401610d9390613371565b60405180910390fd5b600873__TicketManager_________________________63a2a93cbf9091856040518363ffffffff1660e01b8152600401610dd8929190613b36565b60006040518083038186803b158015610df057600080fd5b505af4158015610e04573d6000803e3d6000fd5b50505050505050565b610e28838383604051806020016040528060008152506112d4565b505050565b60006060600d54600873__TicketManager_________________________63957f0c8c90916040518263ffffffff1660e01b8152600401610e6e9190613b66565b602060405180830381865af4158015610e8b573d6000803e3d6000fd5b505050506040513d601f19601f82011682018060405250810190610eaf9190613bb7565b80805480602002602001604051908101604052809291908181526020016000905b8282101561109057838290600052602060002090600502016040518060a0016040529081600082018054610f03906133c0565b80601f0160208091040260200160405190810160405280929190818152602001828054610f2f906133c0565b8015610f7c5780601f10610f5157610100808354040283529160200191610f7c565b820191906000526020600020905b815481529060010190602001808311610f5f57829003601f168201915b505050505081526020016001820160009054906101000a900473ffffffffffffffffffffffffffffffffffffffff1673ffffffffffffffffffffffffffffffffffffffff1673ffffffffffffffffffffffffffffffffffffffff1681526020016002820154815260200160038201548152602001600482018054610fff906133c0565b80601f016020809104026020016040519081016040528092919081815260200182805461102b906133c0565b80156110785780601f1061104d57610100808354040283529160200191611078565b820191906000526020600020905b81548152906001019060200180831161105b57829003601f168201915b50505050508152505081526020019060010190610ed0565b505050509050915091509091565b6000806002600084815260200190815260200160002060009054906101000a900473ffffffffffffffffffffffffffffffffffffffff169050600073ffffffffffffffffffffffffffffffffffffffff168173ffffffffffffffffffffffffffffffffffffffff1603611146576040517f08c379a000000000000000000000000000000000000000000000000000000000815260040161113d90613c56565b60405180910390fd5b80915050919050565b60008073ffffffffffffffffffffffffffffffffffffffff168273ffffffffffffffffffffffffffffffffffffffff16036111bf576040517f08c379a00000000000000000000000000000000000000000000000000000000081526004016111b690613ce8565b60405180910390fd5b600360008373ffffffffffffffffffffffffffffffffffffffff1673ffffffffffffffffffffffffffffffffffffffff168152602001908152602001600020549050919050565b606060018054611215906133c0565b80601f0160208091040260200160405190810160405280929190818152602001828054611241906133c0565b801561128e5780601f106112635761010080835404028352916020019161128e565b820191906000526020600020905b81548152906001019060200180831161127157829003601f168201915b5050505050905090565b6112aa6112a3611709565b8383611d7f565b5050565b600c60009054906101000a900473ffffffffffffffffffffffffffffffffffffffff1681565b6112e56112df611709565b83611ca1565b611324576040517f08c379a000000000000000000000000000000000000000000000000000000000815260040161131b90613960565b60405180910390fd5b61133084848484611eeb565b50505050565b606060006113438361114f565b905060008167ffffffffffffffff811115611361576113606128ad565b5b60405190808252806020026020018201604052801561138f5781602001602082028036833780820191505090505b509050600082036113a4578092505050611436565b60005b8281101561142f57600a60000160008673ffffffffffffffffffffffffffffffffffffffff1673ffffffffffffffffffffffffffffffffffffffff1681526020019081526020016000206000828152602001908152602001600020548282815181106114165761141561383a565b5b60200260200101818152505080806001019150506113a7565b5080925050505b919050565b60606114468261169d565b611485576040517f08c379a000000000000000000000000000000000000000000000000000000000815260040161147c90613d7a565b60405180910390fd5b60006006600084815260200190815260200160002080546114a5906133c0565b80601f01602080910402602001604051908101604052809291908181526020018280546114d1906133c0565b801561151e5780601f106114f35761010080835404028352916020019161151e565b820191906000526020600020905b81548152906001019060200180831161150157829003601f168201915b50505050509050600061152f611f47565b90506000815103611544578192505050611587565b600082511115611579578082604051602001611561929190613dd6565b60405160208183030381529060405292505050611587565b61158284611f5e565b925050505b919050565b6000600560008473ffffffffffffffffffffffffffffffffffffffff1673ffffffffffffffffffffffffffffffffffffffff16815260200190815260200160002060008373ffffffffffffffffffffffffffffffffffffffff1673ffffffffffffffffffffffffffffffffffffffff16815260200190815260200160002060009054906101000a900460ff16905092915050565b600c60149054906101000a900460ff1681565b60007f01ffc9a7000000000000000000000000000000000000000000000000000000007bffffffffffffffffffffffffffffffffffffffffffffffffffffffff1916827bffffffffffffffffffffffffffffffffffffffffffffffffffffffff1916149050919050565b60008073ffffffffffffffffffffffffffffffffffffffff166002600084815260200190815260200160002060009054906101000a900473ffffffffffffffffffffffffffffffffffffffff1673ffffffffffffffffffffffffffffffffffffffff1614159050919050565b600033905090565b816004600083815260200190815260200160002060006101000a81548173ffffffffffffffffffffffffffffffffffffffff021916908373ffffffffffffffffffffffffffffffffffffffff160217905550808273ffffffffffffffffffffffffffffffffffffffff166117848361109e565b73ffffffffffffffffffffffffffffffffffffffff167f8c5be1e5ebec7d5bd14f71427d1e84f3dd0314c0f7b2291e5b200ac8c7c3b92560405160405180910390a45050565b600081600001549050919050565b600073ffffffffffffffffffffffffffffffffffffffff168273ffffffffffffffffffffffffffffffffffffffff1603611847576040517f08c379a000000000000000000000000000000000000000000000000000000000815260040161183e90613e46565b60405180910390fd5b6118508161169d565b15611890576040517f08c379a000000000000000000000000000000000000000000000000000000000815260040161188790613eb2565b60405180910390fd5b61189c60008383612005565b6001600360008473ffffffffffffffffffffffffffffffffffffffff1673ffffffffffffffffffffffffffffffffffffffff16815260200190815260200160002060008282546118ec9190613898565b92505081905550816002600083815260200190815260200160002060006101000a81548173ffffffffffffffffffffffffffffffffffffffff021916908373ffffffffffffffffffffffffffffffffffffffff160217905550808273ffffffffffffffffffffffffffffffffffffffff16600073ffffffffffffffffffffffffffffffffffffffff167fddf252ad1be2c89b69c2b068fc378daa952ba7f163c4a11628f55a4df523b3ef60405160405180910390a46119ad600083836121e3565b5050565b6001816000016000828254019250508190555050565b6119d08261169d565b611a0f576040517f08c379a0000000000000000000000000000000000000000000000000000000008152600401611a0690613f44565b60405180910390fd5b80600660008481526020019081526020016000209080519060200190611a369291906124f7565b505050565b8273ffffffffffffffffffffffffffffffffffffffff16611a5b8261109e565b73ffffffffffffffffffffffffffffffffffffffff1614611ab1576040517f08c379a0000000000000000000000000000000000000000000000000000000008152600401611aa890613fd6565b60405180910390fd5b600073ffffffffffffffffffffffffffffffffffffffff168273ffffffffffffffffffffffffffffffffffffffff1603611b20576040517f08c379a0000000000000000000000000000000000000000000000000000000008152600401611b1790614068565b60405180910390fd5b611b2b838383612005565b611b36600082611711565b6001600360008573ffffffffffffffffffffffffffffffffffffffff1673ffffffffffffffffffffffffffffffffffffffff1681526020019081526020016000206000828254611b869190614088565b925050819055506001600360008473ffffffffffffffffffffffffffffffffffffffff1673ffffffffffffffffffffffffffffffffffffffff1681526020019081526020016000206000828254611bdd9190613898565b92505081905550816002600083815260200190815260200160002060006101000a81548173ffffffffffffffffffffffffffffffffffffffff021916908373ffffffffffffffffffffffffffffffffffffffff160217905550808273ffffffffffffffffffffffffffffffffffffffff168473ffffffffffffffffffffffffffffffffffffffff167fddf252ad1be2c89b69c2b068fc378daa952ba7f163c4a11628f55a4df523b3ef60405160405180910390a4611c9c8383836121e3565b505050565b6000611cac8261169d565b611ceb576040517f08c379a0000000000000000000000000000000000000000000000000000000008152600401611ce29061412e565b60405180910390fd5b6000611cf68361109e565b90508073ffffffffffffffffffffffffffffffffffffffff168473ffffffffffffffffffffffffffffffffffffffff161480611d385750611d37818561158c565b5b80611d7657508373ffffffffffffffffffffffffffffffffffffffff16611d5e84610705565b73ffffffffffffffffffffffffffffffffffffffff16145b91505092915050565b8173ffffffffffffffffffffffffffffffffffffffff168373ffffffffffffffffffffffffffffffffffffffff1603611ded576040517f08c379a0000000000000000000000000000000000000000000000000000000008152600401611de49061419a565b60405180910390fd5b80600560008573ffffffffffffffffffffffffffffffffffffffff1673ffffffffffffffffffffffffffffffffffffffff16815260200190815260200160002060008473ffffffffffffffffffffffffffffffffffffffff1673ffffffffffffffffffffffffffffffffffffffff16815260200190815260200160002060006101000a81548160ff0219169083151502179055508173ffffffffffffffffffffffffffffffffffffffff168373ffffffffffffffffffffffffffffffffffffffff167f17307eab39ab6107e8899845ad3d59bd9653f200f220920489ca2b5937696c3183604051611ede919061264e565b60405180910390a3505050565b611ef6848484611a3b565b611f02848484846121e8565b611f41576040517f08c379a0000000000000000000000000000000000000000000000000000000008152600401611f389061422c565b60405180910390fd5b50505050565b606060405180602001604052806000815250905090565b6060611f698261169d565b611fa8576040517f08c379a0000000000000000000000000000000000000000000000000000000008152600401611f9f906142be565b60405180910390fd5b6000611fb2611f47565b90506000815111611fd25760405180602001604052806000815250611ffd565b80611fdc8461236f565b604051602001611fed929190613dd6565b6040516020818303038152906040525b915050919050565b6120108383836124cf565b8173ffffffffffffffffffffffffffffffffffffffff168373ffffffffffffffffffffffffffffffffffffffff16141580156120795750600073ffffffffffffffffffffffffffffffffffffffff168373ffffffffffffffffffffffffffffffffffffffff1614155b156120f757600a73__Enumerable____________________________630c7a534b909185846120a78861114f565b6040518563ffffffff1660e01b81526004016120c69493929190614303565b60006040518083038186803b1580156120de57600080fd5b505af41580156120f2573d6000803e3d6000fd5b505050505b8273ffffffffffffffffffffffffffffffffffffffff168273ffffffffffffffffffffffffffffffffffffffff16141580156121605750600073ffffffffffffffffffffffffffffffffffffffff168273ffffffffffffffffffffffffffffffffffffffff1614155b156121de57600a73__Enumerable____________________________6353f1b6a59091848461218e8761114f565b6040518563ffffffff1660e01b81526004016121ad9493929190614303565b60006040518083038186803b1580156121c557600080fd5b505af41580156121d9573d6000803e3d6000fd5b505050505b505050565b505050565b60006122098473ffffffffffffffffffffffffffffffffffffffff166124d4565b15612362578373ffffffffffffffffffffffffffffffffffffffff1663150b7a02612232611709565b8786866040518563ffffffff1660e01b8152600401612254949392919061439d565b6020604051808303816000875af192505050801561229057506040513d601f19601f8201168201806040525081019061228d91906143fe565b60015b612312573d80600081146122c0576040519150601f19603f3d011682016040523d82523d6000602084013e6122c5565b606091505b50600081510361230a576040517f08c379a00000000000000000000000000000000000000000000000000000000081526004016123019061422c565b60405180910390fd5b805181602001fd5b63150b7a0260e01b7bffffffffffffffffffffffffffffffffffffffffffffffffffffffff1916817bffffffffffffffffffffffffffffffffffffffffffffffffffffffff191614915050612367565b600190505b949350505050565b6060600082036123b6576040518060400160405280600181526020017f300000000000000000000000000000000000000000000000000000000000000081525090506124ca565b600082905060005b600082146123e85780806123d19061442b565b915050600a826123e191906144a2565b91506123be565b60008167ffffffffffffffff811115612404576124036128ad565b5b6040519080825280601f01601f1916602001820160405280156124365781602001600182028036833780820191505090505b5090505b600085146124c35760018261244f9190614088565b9150600a8561245e91906144d3565b603061246a9190613898565b60f81b8183815181106124805761247f61383a565b5b60200101907effffffffffffffffffffffffffffffffffffffffffffffffffffffffffffff1916908160001a905350600a856124bc91906144a2565b945061243a565b8093505050505b919050565b505050565b6000808273ffffffffffffffffffffffffffffffffffffffff163b119050919050565b828054612503906133c0565b90600052602060002090601f016020900481019282612525576000855561256c565b82601f1061253e57805160ff191683800117855561256c565b8280016001018555821561256c579182015b8281111561256b578251825591602001919060010190612550565b5b509050612579919061257d565b5090565b5b8082111561259657600081600090555060010161257e565b5090565b6000604051905090565b600080fd5b600080fd5b60007fffffffff0000000000000000000000000000000000000000000000000000000082169050919050565b6125e3816125ae565b81146125ee57600080fd5b50565b600081359050612600816125da565b92915050565b60006020828403121561261c5761261b6125a4565b5b600061262a848285016125f1565b91505092915050565b60008115159050919050565b61264881612633565b82525050565b6000602082019050612663600083018461263f565b92915050565b61267281612633565b811461267d57600080fd5b50565b60008135905061268f81612669565b92915050565b6000602082840312156126ab576126aa6125a4565b5b60006126b984828501612680565b91505092915050565b600081519050919050565b600082825260208201905092915050565b60005b838110156126fc5780820151818401526020810190506126e1565b8381111561270b576000848401525b50505050565b6000601f19601f8301169050919050565b600061272d826126c2565b61273781856126cd565b93506127478185602086016126de565b61275081612711565b840191505092915050565b600060208201905081810360008301526127758184612722565b905092915050565b6000819050919050565b6127908161277d565b811461279b57600080fd5b50565b6000813590506127ad81612787565b92915050565b6000602082840312156127c9576127c86125a4565b5b60006127d78482850161279e565b91505092915050565b600073ffffffffffffffffffffffffffffffffffffffff82169050919050565b600061280b826127e0565b9050919050565b61281b81612800565b82525050565b60006020820190506128366000830184612812565b92915050565b61284581612800565b811461285057600080fd5b50565b6000813590506128628161283c565b92915050565b6000806040838503121561287f5761287e6125a4565b5b600061288d85828601612853565b925050602061289e8582860161279e565b9150509250929050565b600080fd5b7f4e487b7100000000000000000000000000000000000000000000000000000000600052604160045260246000fd5b6128e582612711565b810181811067ffffffffffffffff82111715612904576129036128ad565b5b80604052505050565b600061291761259a565b905061292382826128dc565b919050565b600067ffffffffffffffff821115612943576129426128ad565b5b602082029050602081019050919050565b600080fd5b600080fd5b600080fd5b600080fd5b600067ffffffffffffffff821115612983576129826128ad565b5b61298c82612711565b9050602081019050919050565b82818337600083830152505050565b60006129bb6129b684612968565b61290d565b9050828152602081018484840111156129d7576129d6612963565b5b6129e2848285612999565b509392505050565b600082601f8301126129ff576129fe6128a8565b5b8135612a0f8482602086016129a8565b91505092915050565b600060a08284031215612a2e57612a2d612959565b5b612a3860a061290d565b9050600082013567ffffffffffffffff811115612a5857612a5761295e565b5b612a64848285016129ea565b6000830152506020612a788482850161279e565b602083015250604082013567ffffffffffffffff811115612a9c57612a9b61295e565b5b612aa8848285016129ea565b6040830152506060612abc84828501612853565b606083015250608082013567ffffffffffffffff811115612ae057612adf61295e565b5b612aec848285016129ea565b60808301525092915050565b6000612b0b612b0684612928565b61290d565b90508083825260208201905060208402830185811115612b2e57612b2d612954565b5b835b81811015612b7557803567ffffffffffffffff811115612b5357612b526128a8565b5b808601612b608982612a18565b85526020850194505050602081019050612b30565b5050509392505050565b600082601f830112612b9457612b936128a8565b5b8135612ba4848260208601612af8565b91505092915050565b60008060408385031215612bc457612bc36125a4565b5b600083013567ffffffffffffffff811115612be257612be16125a9565b5b612bee85828601612b7f565b9250506020612bff8582860161279e565b9150509250929050565b600080600060608486031215612c2257612c216125a4565b5b6000612c3086828701612853565b9350506020612c4186828701612853565b9250506040612c528682870161279e565b9150509250925092565b600067ffffffffffffffff821115612c7757612c766128ad565b5b602082029050602081019050919050565b60038110612c9557600080fd5b50565b600081359050612ca781612c88565b92915050565b600060a08284031215612cc357612cc2612959565b5b612ccd60a061290d565b9050600082013567ffffffffffffffff811115612ced57612cec61295e565b5b612cf9848285016129ea565b600083015250602082013567ffffffffffffffff811115612d1d57612d1c61295e565b5b612d29848285016129ea565b6020830152506040612d3d84828501612c98565b6040830152506060612d518482850161279e565b6060830152506080612d658482850161279e565b60808301525092915050565b6000612d84612d7f84612c5c565b61290d565b90508083825260208201905060208402830185811115612da757612da6612954565b5b835b81811015612dee57803567ffffffffffffffff811115612dcc57612dcb6128a8565b5b808601612dd98982612cad565b85526020850194505050602081019050612da9565b5050509392505050565b600082601f830112612e0d57612e0c6128a8565b5b8135612e1d848260208601612d71565b91505092915050565b60008060408385031215612e3d57612e3c6125a4565b5b600083013567ffffffffffffffff811115612e5b57612e5a6125a9565b5b612e6785828601612df8565b9250506020612e7885828601612853565b9150509250929050565b612e8b8161277d565b82525050565b600081519050919050565b600082825260208201905092915050565b6000819050602082019050919050565b600082825260208201905092915050565b6000612ed9826126c2565b612ee38185612ebd565b9350612ef38185602086016126de565b612efc81612711565b840191505092915050565b612f1081612800565b82525050565b612f1f8161277d565b82525050565b600060a0830160008301518482036000860152612f428282612ece565b9150506020830151612f576020860182612f07565b506040830151612f6a6040860182612f16565b506060830151612f7d6060860182612f16565b5060808301518482036080860152612f958282612ece565b9150508091505092915050565b6000612fae8383612f25565b905092915050565b6000602082019050919050565b6000612fce82612e91565b612fd88185612e9c565b935083602082028501612fea85612ead565b8060005b8581101561302657848403895281516130078582612fa2565b945061301283612fb6565b925060208a01995050600181019050612fee565b50829750879550505050505092915050565b600060408201905061304d6000830185612e82565b818103602083015261305f8184612fc3565b90509392505050565b60006020828403121561307e5761307d6125a4565b5b600061308c84828501612853565b91505092915050565b60006020820190506130aa6000830184612e82565b92915050565b600080604083850312156130c7576130c66125a4565b5b60006130d585828601612853565b92505060206130e685828601612680565b9150509250929050565b600067ffffffffffffffff82111561310b5761310a6128ad565b5b61311482612711565b9050602081019050919050565b600061313461312f846130f0565b61290d565b9050828152602081018484840111156131505761314f612963565b5b61315b848285612999565b509392505050565b600082601f830112613178576131776128a8565b5b8135613188848260208601613121565b91505092915050565b600080600080608085870312156131ab576131aa6125a4565b5b60006131b987828801612853565b94505060206131ca87828801612853565b93505060406131db8782880161279e565b925050606085013567ffffffffffffffff8111156131fc576131fb6125a9565b5b61320887828801613163565b91505092959194509250565b600081519050919050565b600082825260208201905092915050565b6000819050602082019050919050565b600061324c8383612f16565b60208301905092915050565b6000602082019050919050565b600061327082613214565b61327a818561321f565b935061328583613230565b8060005b838110156132b657815161329d8882613240565b97506132a883613258565b925050600181019050613289565b5085935050505092915050565b600060208201905081810360008301526132dd8184613265565b905092915050565b600080604083850312156132fc576132fb6125a4565b5b600061330a85828601612853565b925050602061331b85828601612853565b9150509250929050565b7f4163636573732064656e69656400000000000000000000000000000000000000600082015250565b600061335b600d836126cd565b915061336682613325565b602082019050919050565b6000602082019050818103600083015261338a8161334e565b9050919050565b7f4e487b7100000000000000000000000000000000000000000000000000000000600052602260045260246000fd5b600060028204905060018216806133d857607f821691505b6020821081036133eb576133ea613391565b5b50919050565b7f4552433732313a20617070726f76656420717565727920666f72206e6f6e657860008201527f697374656e7420746f6b656e0000000000000000000000000000000000000000602082015250565b600061344d602c836126cd565b9150613458826133f1565b604082019050919050565b6000602082019050818103600083015261347c81613440565b9050919050565b7f4552433732313a20617070726f76616c20746f2063757272656e74206f776e6560008201527f7200000000000000000000000000000000000000000000000000000000000000602082015250565b60006134df6021836126cd565b91506134ea82613483565b604082019050919050565b6000602082019050818103600083015261350e816134d2565b9050919050565b7f4552433732313a20617070726f76652063616c6c6572206973206e6f74206f7760008201527f6e6572206e6f7220617070726f76656420666f7220616c6c0000000000000000602082015250565b60006135716038836126cd565b915061357c82613515565b604082019050919050565b600060208201905081810360008301526135a081613564565b9050919050565b8082525050565b600081519050919050565b600082825260208201905092915050565b6000819050602082019050919050565b600082825260208201905092915050565b60006135f6826126c2565b61360081856135da565b93506136108185602086016126de565b61361981612711565b840191505092915050565b61362d8161277d565b82525050565b61363c81612800565b82525050565b600060a083016000830151848203600086015261365f82826135eb565b91505060208301516136746020860182613624565b506040830151848203604086015261368c82826135eb565b91505060608301516136a16060860182613633565b50608083015184820360808601526136b982826135eb565b9150508091505092915050565b60006136d28383613642565b905092915050565b6000602082019050919050565b60006136f2826135ae565b6136fc81856135b9565b93508360208202850161370e856135ca565b8060005b8581101561374a578484038952815161372b85826136c6565b9450613736836136da565b925060208a01995050600181019050613712565b50829750879550505050505092915050565b600060408201905061377160008301856135a7565b818103602083015261378381846136e7565b90509392505050565b60008151905061379b81612787565b92915050565b6000602082840312156137b7576137b66125a4565b5b60006137c58482850161378c565b91505092915050565b7f4c65737300000000000000000000000000000000000000000000000000000000600082015250565b60006138046004836126cd565b915061380f826137ce565b602082019050919050565b60006020820190508181036000830152613833816137f7565b9050919050565b7f4e487b7100000000000000000000000000000000000000000000000000000000600052603260045260246000fd5b7f4e487b7100000000000000000000000000000000000000000000000000000000600052601160045260246000fd5b60006138a38261277d565b91506138ae8361277d565b9250827fffffffffffffffffffffffffffffffffffffffffffffffffffffffffffffffff038211156138e3576138e2613869565b5b828201905092915050565b7f4552433732313a207472616e736665722063616c6c6572206973206e6f74206f60008201527f776e6572206e6f7220617070726f766564000000000000000000000000000000602082015250565b600061394a6031836126cd565b9150613955826138ee565b604082019050919050565b600060208201905081810360008301526139798161393d565b9050919050565b600081519050919050565b600082825260208201905092915050565b6000819050602082019050919050565b7f4e487b7100000000000000000000000000000000000000000000000000000000600052602160045260246000fd5b600381106139ec576139eb6139ac565b5b50565b60008190506139fd826139db565b919050565b6000613a0d826139ef565b9050919050565b613a1d81613a02565b82525050565b600060a0830160008301518482036000860152613a4082826135eb565b91505060208301518482036020860152613a5a82826135eb565b9150506040830151613a6f6040860182613a14565b506060830151613a826060860182613624565b506080830151613a956080860182613624565b508091505092915050565b6000613aac8383613a23565b905092915050565b6000602082019050919050565b6000613acc82613980565b613ad6818561398b565b935083602082028501613ae88561399c565b8060005b85811015613b245784840389528151613b058582613aa0565b9450613b1083613ab4565b925060208a01995050600181019050613aec565b50829750879550505050505092915050565b6000604082019050613b4b60008301856135a7565b8181036020830152613b5d8184613ac1565b90509392505050565b6000602082019050613b7b60008301846135a7565b92915050565b6000819050919050565b613b9481613b81565b8114613b9f57600080fd5b50565b600081519050613bb181613b8b565b92915050565b600060208284031215613bcd57613bcc6125a4565b5b6000613bdb84828501613ba2565b91505092915050565b7f4552433732313a206f776e657220717565727920666f72206e6f6e657869737460008201527f656e7420746f6b656e0000000000000000000000000000000000000000000000602082015250565b6000613c406029836126cd565b9150613c4b82613be4565b604082019050919050565b60006020820190508181036000830152613c6f81613c33565b9050919050565b7f4552433732313a2062616c616e636520717565727920666f7220746865207a6560008201527f726f206164647265737300000000000000000000000000000000000000000000602082015250565b6000613cd2602a836126cd565b9150613cdd82613c76565b604082019050919050565b60006020820190508181036000830152613d0181613cc5565b9050919050565b7f45524337323155524953746f726167653a2055524920717565727920666f722060008201527f6e6f6e6578697374656e7420746f6b656e000000000000000000000000000000602082015250565b6000613d646031836126cd565b9150613d6f82613d08565b604082019050919050565b60006020820190508181036000830152613d9381613d57565b9050919050565b600081905092915050565b6000613db0826126c2565b613dba8185613d9a565b9350613dca8185602086016126de565b80840191505092915050565b6000613de28285613da5565b9150613dee8284613da5565b91508190509392505050565b7f4552433732313a206d696e7420746f20746865207a65726f2061646472657373600082015250565b6000613e306020836126cd565b9150613e3b82613dfa565b602082019050919050565b60006020820190508181036000830152613e5f81613e23565b9050919050565b7f4552433732313a20746f6b656e20616c7265616479206d696e74656400000000600082015250565b6000613e9c601c836126cd565b9150613ea782613e66565b602082019050919050565b60006020820190508181036000830152613ecb81613e8f565b9050919050565b7f45524337323155524953746f726167653a2055524920736574206f66206e6f6e60008201527f6578697374656e7420746f6b656e000000000000000000000000000000000000602082015250565b6000613f2e602e836126cd565b9150613f3982613ed2565b604082019050919050565b60006020820190508181036000830152613f5d81613f21565b9050919050565b7f4552433732313a207472616e736665722066726f6d20696e636f72726563742060008201527f6f776e6572000000000000000000000000000000000000000000000000000000602082015250565b6000613fc06025836126cd565b9150613fcb82613f64565b604082019050919050565b60006020820190508181036000830152613fef81613fb3565b9050919050565b7f4552433732313a207472616e7366657220746f20746865207a65726f2061646460008201527f7265737300000000000000000000000000000000000000000000000000000000602082015250565b60006140526024836126cd565b915061405d82613ff6565b604082019050919050565b6000602082019050818103600083015261408181614045565b9050919050565b60006140938261277d565b915061409e8361277d565b9250828210156140b1576140b0613869565b5b828203905092915050565b7f4552433732313a206f70657261746f7220717565727920666f72206e6f6e657860008201527f697374656e7420746f6b656e0000000000000000000000000000000000000000602082015250565b6000614118602c836126cd565b9150614123826140bc565b604082019050919050565b600060208201905081810360008301526141478161410b565b9050919050565b7f4552433732313a20617070726f766520746f2063616c6c657200000000000000600082015250565b60006141846019836126cd565b915061418f8261414e565b602082019050919050565b600060208201905081810360008301526141b381614177565b9050919050565b7f4552433732313a207472616e7366657220746f206e6f6e20455243373231526560008201527f63656976657220696d706c656d656e7465720000000000000000000000000000602082015250565b60006142166032836126cd565b9150614221826141ba565b604082019050919050565b6000602082019050818103600083015261424581614209565b9050919050565b7f4552433732314d657461646174613a2055524920717565727920666f72206e6f60008201527f6e6578697374656e7420746f6b656e0000000000000000000000000000000000602082015250565b60006142a8602f836126cd565b91506142b38261424c565b604082019050919050565b600060208201905081810360008301526142d78161429b565b9050919050565b8082525050565b6142ee81612800565b82525050565b6142fd8161277d565b82525050565b600060808201905061431860008301876142de565b61432560208301866142e5565b61433260408301856142f4565b61433f60608301846142f4565b95945050505050565b600081519050919050565b600082825260208201905092915050565b600061436f82614348565b6143798185614353565b93506143898185602086016126de565b61439281612711565b840191505092915050565b60006080820190506143b26000830187612812565b6143bf6020830186612812565b6143cc6040830185612e82565b81810360608301526143de8184614364565b905095945050505050565b6000815190506143f8816125da565b92915050565b600060208284031215614414576144136125a4565b5b6000614422848285016143e9565b91505092915050565b60006144368261277d565b91507fffffffffffffffffffffffffffffffffffffffffffffffffffffffffffffffff820361446857614467613869565b5b600182019050919050565b7f4e487b7100000000000000000000000000000000000000000000000000000000600052601260045260246000fd5b60006144ad8261277d565b91506144b88361277d565b9250826144c8576144c7614473565b5b828204905092915050565b60006144de8261277d565b91506144e98361277d565b9250826144f9576144f8614473565b5b82820690509291505056fea2646970667358221220b4df1b61c8472f5f06b77c11a82749237c63a93243cff9f86a1ec275ccec0e1364736f6c634300080d0033a2646970667358221220cc49242731783ebfbcd7b29b0ef4a55e5031ae1819bc68b415c1a69f2804843864736f6c634300080d0033",
  "immutableReferences": {},
  "source": "// SPDX-License-Identifier: GPL-3.0\npragma solidity >=0.6.0 <0.9.0;\n\nimport \"./Event.sol\";\nimport \"./Administrator.sol\";\nimport \"./BlocTick.sol\";\n\ncontract EventFactory is Administrator {\n    address[] public _events;\n    uint256 platform_percent = 20;\n    uint256 constant public PERCENTS_DIVIDER = 1000;\n    event NewEvent(address contractAddress);\n\n    constructor() {\n        _owner = msg.sender;\n    }\n\n    function allEvents() external view returns (address[] memory) {\n        return _events;\n    }\n\n    function addEvent(\n        string memory name,\n        string memory symbol,\n        BlocTick.Ticket[] memory tickets\n    ) external {\n        Event e = new Event(name, symbol, msg.sender);\n        e.storeTickets(tickets, msg.sender);\n        address eventAddress = address(e);\n        _events.push(eventAddress);\n        emit NewEvent(eventAddress);\n    }\n\n    function setPlatformPercent(uint256 fee) external onlyAdministrator {\n        platform_percent = fee;\n    }\n\n    function mintTickets(\n        address eventContract,\n        BlocTick.TicketPurchase[] memory purchases\n    ) external payable {\n        Event e = Event(eventContract);\n        uint256 platform_fee = ((platform_percent * msg.value) / PERCENTS_DIVIDER);\n        feesEarned += platform_fee;\n        e.purchaseTickets{value: msg.value}(purchases, (msg.value - platform_fee));\n    }\n}\n",
  "sourcePath": "/Users/devjosh/Documents/Build/Blocverse/BlocTicks/blocticks-contracts/backend/contracts/EventFactory.sol",
  "compiler": {
    "name": "solc",
    "version": "0.8.13+commit.abaa5c0e.Emscripten.clang"
  },
  "schemaVersion": "3.4.7",
  "updatedAt": "2022-05-01T11:30:02.003Z",
  "devdoc": {
    "kind": "dev",
    "methods": {},
    "version": 1
  },
  "userdoc": {
    "kind": "user",
    "methods": {},
    "version": 1
  }
}