{
  "contractName": "EventFactory",
  "abi": [
    {
      "inputs": [
        {
          "internalType": "address",
          "name": "_tokenImplementation",
          "type": "address"
        }
      ],
      "stateMutability": "nonpayable",
      "type": "constructor"
    },
    {
      "anonymous": false,
      "inputs": [
        {
          "indexed": false,
          "internalType": "address",
          "name": "contractAddress",
          "type": "address"
        }
      ],
      "name": "NewEvent",
      "type": "event"
    },
    {
      "anonymous": false,
      "inputs": [
        {
          "indexed": true,
          "internalType": "address",
          "name": "previousOwner",
          "type": "address"
        },
        {
          "indexed": true,
          "internalType": "address",
          "name": "newOwner",
          "type": "address"
        }
      ],
      "name": "OwnershipTransferred",
      "type": "event"
    },
    {
      "inputs": [],
      "name": "feesEarned",
      "outputs": [
        {
          "internalType": "uint256",
          "name": "",
          "type": "uint256"
        }
      ],
      "stateMutability": "view",
      "type": "function",
      "constant": true
    },
    {
      "inputs": [],
      "name": "owner",
      "outputs": [
        {
          "internalType": "address",
          "name": "",
          "type": "address"
        }
      ],
      "stateMutability": "view",
      "type": "function",
      "constant": true
    },
    {
      "inputs": [],
      "name": "renounceOwnership",
      "outputs": [],
      "stateMutability": "nonpayable",
      "type": "function"
    },
    {
      "inputs": [
        {
          "internalType": "address",
          "name": "newOwner",
          "type": "address"
        }
      ],
      "name": "transferOwnership",
      "outputs": [],
      "stateMutability": "nonpayable",
      "type": "function"
    },
    {
      "inputs": [],
      "name": "allEvents",
      "outputs": [
        {
          "internalType": "contract Event[]",
          "name": "",
          "type": "address[]"
        }
      ],
      "stateMutability": "view",
      "type": "function",
      "constant": true
    },
    {
      "inputs": [
        {
          "internalType": "string",
          "name": "name",
          "type": "string"
        },
        {
          "internalType": "string",
          "name": "symbol",
          "type": "string"
        },
        {
          "components": [
            {
              "internalType": "string",
              "name": "name",
              "type": "string"
            },
            {
              "internalType": "string",
              "name": "description",
              "type": "string"
            },
            {
              "internalType": "enum BlocTick.TicketType",
              "name": "ticket_type",
              "type": "uint8"
            },
            {
              "internalType": "uint256",
              "name": "quantity_available",
              "type": "uint256"
            },
            {
              "internalType": "uint256",
              "name": "price",
              "type": "uint256"
            }
          ],
          "internalType": "struct BlocTick.Ticket[]",
          "name": "tickets",
          "type": "tuple[]"
        }
      ],
      "name": "addEvent",
      "outputs": [],
      "stateMutability": "nonpayable",
      "type": "function"
    },
    {
      "inputs": [
        {
          "internalType": "uint256",
          "name": "fee",
          "type": "uint256"
        }
      ],
      "name": "setPlatformPercent",
      "outputs": [],
      "stateMutability": "nonpayable",
      "type": "function"
    },
    {
      "inputs": [
        {
          "internalType": "contract Event",
          "name": "e",
          "type": "address"
        },
        {
          "components": [
            {
              "internalType": "string",
              "name": "purchaseId",
              "type": "string"
            },
            {
              "internalType": "uint256",
              "name": "ticketId",
              "type": "uint256"
            },
            {
              "internalType": "string",
              "name": "tokenURI",
              "type": "string"
            },
            {
              "internalType": "address",
              "name": "buyer",
              "type": "address"
            },
            {
              "internalType": "string",
              "name": "cost",
              "type": "string"
            }
          ],
          "internalType": "struct BlocTick.TicketPurchase[]",
          "name": "purchases",
          "type": "tuple[]"
        }
      ],
      "name": "mintTickets",
      "outputs": [],
      "stateMutability": "payable",
      "type": "function",
      "payable": true
    }
  ],
  "bytecode": "0x60a060405260326002553480156200001657600080fd5b5060405162001b2a38038062001b2a83398181016040528101906200003c9190620001cd565b6200005c620000506200009760201b60201c565b6200009f60201b60201c565b8073ffffffffffffffffffffffffffffffffffffffff1660808173ffffffffffffffffffffffffffffffffffffffff168152505050620001ff565b600033905090565b60008060009054906101000a900473ffffffffffffffffffffffffffffffffffffffff169050816000806101000a81548173ffffffffffffffffffffffffffffffffffffffff021916908373ffffffffffffffffffffffffffffffffffffffff1602179055508173ffffffffffffffffffffffffffffffffffffffff168173ffffffffffffffffffffffffffffffffffffffff167f8be0079c531659141344cd1fd0a4f28419497f9722a3daafe3b4186f6b6457e060405160405180910390a35050565b600080fd5b600073ffffffffffffffffffffffffffffffffffffffff82169050919050565b6000620001958262000168565b9050919050565b620001a78162000188565b8114620001b357600080fd5b50565b600081519050620001c7816200019c565b92915050565b600060208284031215620001e657620001e562000163565b5b6000620001f684828501620001b6565b91505092915050565b60805161190f6200021b60003960006103f9015261190f6000f3fe60806040526004361061007b5760003560e01c806396f229ca1161004e57806396f229ca14610109578063d50509f514610132578063f2fde38b1461015d578063ff001b32146101865761007b565b806314d7c37514610080578063715018a6146100ab57806380f7668f146100c25780638da5cb5b146100de575b600080fd5b34801561008c57600080fd5b506100956101af565b6040516100a291906109f2565b60405180910390f35b3480156100b757600080fd5b506100c061023d565b005b6100dc60048036038101906100d79190610df0565b6102c5565b005b3480156100ea57600080fd5b506100f36103c9565b6040516101009190610e5b565b60405180910390f35b34801561011557600080fd5b50610130600480360381019061012b9190611040565b6103f2565b005b34801561013e57600080fd5b506101476105a1565b60405161015491906110f6565b60405180910390f35b34801561016957600080fd5b50610184600480360381019061017f9190611111565b6105a7565b005b34801561019257600080fd5b506101ad60048036038101906101a8919061113e565b61069e565b005b6060600180548060200260200160405190810160405280929190818152602001828054801561023357602002820191906000526020600020905b8160009054906101000a900473ffffffffffffffffffffffffffffffffffffffff1673ffffffffffffffffffffffffffffffffffffffff16815260200190600101908083116101e9575b5050505050905090565b610245610724565b73ffffffffffffffffffffffffffffffffffffffff166102636103c9565b73ffffffffffffffffffffffffffffffffffffffff16146102b9576040517f08c379a00000000000000000000000000000000000000000000000000000000081526004016102b0906111c8565b60405180910390fd5b6102c3600061072c565b565b60006103e8346002546102d89190611217565b6102e291906112a0565b90506102ec6103c9565b73ffffffffffffffffffffffffffffffffffffffff166108fc829081150290604051600060405180830381858888f19350505050158015610331573d6000803e3d6000fd5b50806003600082825461034491906112d1565b925050819055508273ffffffffffffffffffffffffffffffffffffffff16630a967bc682346103739190611327565b84846040518463ffffffff1660e01b8152600401610392929190611547565b6000604051808303818588803b1580156103ab57600080fd5b505af11580156103bf573d6000803e3d6000fd5b5050505050505050565b60008060009054906101000a900473ffffffffffffffffffffffffffffffffffffffff16905090565b600061041d7f00000000000000000000000000000000000000000000000000000000000000006107f0565b905060008190508073ffffffffffffffffffffffffffffffffffffffff1663077f224a8686336040518463ffffffff1660e01b8152600401610461939291906115b0565b600060405180830381600087803b15801561047b57600080fd5b505af115801561048f573d6000803e3d6000fd5b505050508073ffffffffffffffffffffffffffffffffffffffff16633d181c7e84336040518363ffffffff1660e01b81526004016104ce9291906117ab565b600060405180830381600087803b1580156104e857600080fd5b505af11580156104fc573d6000803e3d6000fd5b505050506001819080600181540180825580915050600190039060005260206000200160009091909190916101000a81548173ffffffffffffffffffffffffffffffffffffffff021916908373ffffffffffffffffffffffffffffffffffffffff1602179055507f0227e3b2fb10ea87b3ce0fe9b23554ad992c666dd128c13c0a6ef2d73dd80ba0826040516105929190610e5b565b60405180910390a15050505050565b60035481565b6105af610724565b73ffffffffffffffffffffffffffffffffffffffff166105cd6103c9565b73ffffffffffffffffffffffffffffffffffffffff1614610623576040517f08c379a000000000000000000000000000000000000000000000000000000000815260040161061a906111c8565b60405180910390fd5b600073ffffffffffffffffffffffffffffffffffffffff168173ffffffffffffffffffffffffffffffffffffffff1603610692576040517f08c379a00000000000000000000000000000000000000000000000000000000081526004016106899061184d565b60405180910390fd5b61069b8161072c565b50565b6106a6610724565b73ffffffffffffffffffffffffffffffffffffffff166106c46103c9565b73ffffffffffffffffffffffffffffffffffffffff161461071a576040517f08c379a0000000000000000000000000000000000000000000000000000000008152600401610711906111c8565b60405180910390fd5b8060028190555050565b600033905090565b60008060009054906101000a900473ffffffffffffffffffffffffffffffffffffffff169050816000806101000a81548173ffffffffffffffffffffffffffffffffffffffff021916908373ffffffffffffffffffffffffffffffffffffffff1602179055508173ffffffffffffffffffffffffffffffffffffffff168173ffffffffffffffffffffffffffffffffffffffff167f8be0079c531659141344cd1fd0a4f28419497f9722a3daafe3b4186f6b6457e060405160405180910390a35050565b60006040517f3d602d80600a3d3981f3363d3d373d3d3d363d7300000000000000000000000081528260601b60148201527f5af43d82803e903d91602b57fd5bf3000000000000000000000000000000000060288201526037816000f0915050600073ffffffffffffffffffffffffffffffffffffffff168173ffffffffffffffffffffffffffffffffffffffff16036108bf576040517f08c379a00000000000000000000000000000000000000000000000000000000081526004016108b6906118b9565b60405180910390fd5b919050565b600081519050919050565b600082825260208201905092915050565b6000819050602082019050919050565b600073ffffffffffffffffffffffffffffffffffffffff82169050919050565b6000819050919050565b600061093561093061092b846108f0565b610910565b6108f0565b9050919050565b60006109478261091a565b9050919050565b60006109598261093c565b9050919050565b6109698161094e565b82525050565b600061097b8383610960565b60208301905092915050565b6000602082019050919050565b600061099f826108c4565b6109a981856108cf565b93506109b4836108e0565b8060005b838110156109e55781516109cc888261096f565b97506109d783610987565b9250506001810190506109b8565b5085935050505092915050565b60006020820190508181036000830152610a0c8184610994565b905092915050565b6000604051905090565b600080fd5b600080fd5b6000610a33826108f0565b9050919050565b6000610a4582610a28565b9050919050565b610a5581610a3a565b8114610a6057600080fd5b50565b600081359050610a7281610a4c565b92915050565b600080fd5b6000601f19601f8301169050919050565b7f4e487b7100000000000000000000000000000000000000000000000000000000600052604160045260246000fd5b610ac682610a7d565b810181811067ffffffffffffffff82111715610ae557610ae4610a8e565b5b80604052505050565b6000610af8610a14565b9050610b048282610abd565b919050565b600067ffffffffffffffff821115610b2457610b23610a8e565b5b602082029050602081019050919050565b600080fd5b600080fd5b600080fd5b600080fd5b600067ffffffffffffffff821115610b6457610b63610a8e565b5b610b6d82610a7d565b9050602081019050919050565b82818337600083830152505050565b6000610b9c610b9784610b49565b610aee565b905082815260208101848484011115610bb857610bb7610b44565b5b610bc3848285610b7a565b509392505050565b600082601f830112610be057610bdf610a78565b5b8135610bf0848260208601610b89565b91505092915050565b6000819050919050565b610c0c81610bf9565b8114610c1757600080fd5b50565b600081359050610c2981610c03565b92915050565b610c3881610a28565b8114610c4357600080fd5b50565b600081359050610c5581610c2f565b92915050565b600060a08284031215610c7157610c70610b3a565b5b610c7b60a0610aee565b9050600082013567ffffffffffffffff811115610c9b57610c9a610b3f565b5b610ca784828501610bcb565b6000830152506020610cbb84828501610c1a565b602083015250604082013567ffffffffffffffff811115610cdf57610cde610b3f565b5b610ceb84828501610bcb565b6040830152506060610cff84828501610c46565b606083015250608082013567ffffffffffffffff811115610d2357610d22610b3f565b5b610d2f84828501610bcb565b60808301525092915050565b6000610d4e610d4984610b09565b610aee565b90508083825260208201905060208402830185811115610d7157610d70610b35565b5b835b81811015610db857803567ffffffffffffffff811115610d9657610d95610a78565b5b808601610da38982610c5b565b85526020850194505050602081019050610d73565b5050509392505050565b600082601f830112610dd757610dd6610a78565b5b8135610de7848260208601610d3b565b91505092915050565b60008060408385031215610e0757610e06610a1e565b5b6000610e1585828601610a63565b925050602083013567ffffffffffffffff811115610e3657610e35610a23565b5b610e4285828601610dc2565b9150509250929050565b610e5581610a28565b82525050565b6000602082019050610e706000830184610e4c565b92915050565b600067ffffffffffffffff821115610e9157610e90610a8e565b5b602082029050602081019050919050565b60038110610eaf57600080fd5b50565b600081359050610ec181610ea2565b92915050565b600060a08284031215610edd57610edc610b3a565b5b610ee760a0610aee565b9050600082013567ffffffffffffffff811115610f0757610f06610b3f565b5b610f1384828501610bcb565b600083015250602082013567ffffffffffffffff811115610f3757610f36610b3f565b5b610f4384828501610bcb565b6020830152506040610f5784828501610eb2565b6040830152506060610f6b84828501610c1a565b6060830152506080610f7f84828501610c1a565b60808301525092915050565b6000610f9e610f9984610e76565b610aee565b90508083825260208201905060208402830185811115610fc157610fc0610b35565b5b835b8181101561100857803567ffffffffffffffff811115610fe657610fe5610a78565b5b808601610ff38982610ec7565b85526020850194505050602081019050610fc3565b5050509392505050565b600082601f83011261102757611026610a78565b5b8135611037848260208601610f8b565b91505092915050565b60008060006060848603121561105957611058610a1e565b5b600084013567ffffffffffffffff81111561107757611076610a23565b5b61108386828701610bcb565b935050602084013567ffffffffffffffff8111156110a4576110a3610a23565b5b6110b086828701610bcb565b925050604084013567ffffffffffffffff8111156110d1576110d0610a23565b5b6110dd86828701611012565b9150509250925092565b6110f081610bf9565b82525050565b600060208201905061110b60008301846110e7565b92915050565b60006020828403121561112757611126610a1e565b5b600061113584828501610c46565b91505092915050565b60006020828403121561115457611153610a1e565b5b600061116284828501610c1a565b91505092915050565b600082825260208201905092915050565b7f4f776e61626c653a2063616c6c6572206973206e6f7420746865206f776e6572600082015250565b60006111b260208361116b565b91506111bd8261117c565b602082019050919050565b600060208201905081810360008301526111e1816111a5565b9050919050565b7f4e487b7100000000000000000000000000000000000000000000000000000000600052601160045260246000fd5b600061122282610bf9565b915061122d83610bf9565b9250817fffffffffffffffffffffffffffffffffffffffffffffffffffffffffffffffff0483118215151615611266576112656111e8565b5b828202905092915050565b7f4e487b7100000000000000000000000000000000000000000000000000000000600052601260045260246000fd5b60006112ab82610bf9565b91506112b683610bf9565b9250826112c6576112c5611271565b5b828204905092915050565b60006112dc82610bf9565b91506112e783610bf9565b9250827fffffffffffffffffffffffffffffffffffffffffffffffffffffffffffffffff0382111561131c5761131b6111e8565b5b828201905092915050565b600061133282610bf9565b915061133d83610bf9565b9250828210156113505761134f6111e8565b5b828203905092915050565b600081519050919050565b600082825260208201905092915050565b6000819050602082019050919050565b600081519050919050565b600082825260208201905092915050565b60005b838110156113c15780820151818401526020810190506113a6565b838111156113d0576000848401525b50505050565b60006113e182611387565b6113eb8185611392565b93506113fb8185602086016113a3565b61140481610a7d565b840191505092915050565b61141881610bf9565b82525050565b61142781610a28565b82525050565b600060a083016000830151848203600086015261144a82826113d6565b915050602083015161145f602086018261140f565b506040830151848203604086015261147782826113d6565b915050606083015161148c606086018261141e565b50608083015184820360808601526114a482826113d6565b9150508091505092915050565b60006114bd838361142d565b905092915050565b6000602082019050919050565b60006114dd8261135b565b6114e78185611366565b9350836020820285016114f985611377565b8060005b85811015611535578484038952815161151685826114b1565b9450611521836114c5565b925060208a019950506001810190506114fd565b50829750879550505050505092915050565b6000604082019050818103600083015261156181856114d2565b905061157060208301846110e7565b9392505050565b600061158282611387565b61158c818561116b565b935061159c8185602086016113a3565b6115a581610a7d565b840191505092915050565b600060608201905081810360008301526115ca8186611577565b905081810360208301526115de8185611577565b90506115ed6040830184610e4c565b949350505050565b600081519050919050565b600082825260208201905092915050565b6000819050602082019050919050565b7f4e487b7100000000000000000000000000000000000000000000000000000000600052602160045260246000fd5b6003811061166157611660611621565b5b50565b600081905061167282611650565b919050565b600061168282611664565b9050919050565b61169281611677565b82525050565b600060a08301600083015184820360008601526116b582826113d6565b915050602083015184820360208601526116cf82826113d6565b91505060408301516116e46040860182611689565b5060608301516116f7606086018261140f565b50608083015161170a608086018261140f565b508091505092915050565b60006117218383611698565b905092915050565b6000602082019050919050565b6000611741826115f5565b61174b8185611600565b93508360208202850161175d85611611565b8060005b85811015611799578484038952815161177a8582611715565b945061178583611729565b925060208a01995050600181019050611761565b50829750879550505050505092915050565b600060408201905081810360008301526117c58185611736565b90506117d46020830184610e4c565b9392505050565b7f4f776e61626c653a206e6577206f776e657220697320746865207a65726f206160008201527f6464726573730000000000000000000000000000000000000000000000000000602082015250565b600061183760268361116b565b9150611842826117db565b604082019050919050565b600060208201905081810360008301526118668161182a565b9050919050565b7f455243313136373a20637265617465206661696c656400000000000000000000600082015250565b60006118a360168361116b565b91506118ae8261186d565b602082019050919050565b600060208201905081810360008301526118d281611896565b905091905056fea2646970667358221220821aef13328419762b45289375c9f86a2211afd316bef0d0492e93ac43886ef164736f6c634300080d0033",
  "immutableReferences": {
    "3133": [
      {
        "length": 32,
        "start": 1017
      }
    ]
  },
  "source": "// SPDX-License-Identifier: GPL-3.0\npragma solidity >=0.6.0 <0.9.0;\n\nimport \"./Event.sol\";\nimport \"./BlocTick.sol\";\nimport \"@openzeppelin/contracts/access/Ownable.sol\";\nimport \"@openzeppelin/contracts/proxy/Clones.sol\";\n\ncontract EventFactory is Ownable {\n    Event[] internal _events;\n    address immutable tokenImplementation;\n    uint256 internal platform_percent = 50;\n    uint256 private constant PERCENTS_DIVIDER = 1000;\n    uint256 public feesEarned;\n    event NewEvent(address contractAddress);\n\n    constructor(address _tokenImplementation) {\n        tokenImplementation = _tokenImplementation;\n    }\n\n    function allEvents() external view returns (Event[] memory) {\n        return _events;\n    }\n\n    function addEvent(\n        string memory name,\n        string memory symbol,\n        BlocTick.Ticket[] memory tickets\n    ) external {\n        address clone = Clones.clone(tokenImplementation);\n        Event e = Event(clone);\n        e.initialize(name, symbol, msg.sender);\n        e.storeTickets(tickets, msg.sender);\n        _events.push(e);\n        emit NewEvent(clone);\n    }\n\n    function setPlatformPercent(uint256 fee) external onlyOwner {\n        platform_percent = fee;\n    }\n\n    function mintTickets(Event e, BlocTick.TicketPurchase[] memory purchases)\n        external\n        payable\n    {\n        uint256 platform_fee = ((platform_percent * msg.value) /\n            PERCENTS_DIVIDER);\n        payable(Ownable.owner()).transfer(platform_fee);\n        feesEarned += platform_fee;\n        e.purchaseTickets{value: msg.value - platform_fee}(\n            purchases,\n            platform_fee\n        );\n    }\n}\n",
  "sourcePath": "/Users/devjosh/Documents/Build/Blocverse/BlocTicks/blocticks-contracts/backend/contracts/EventFactory.sol",
  "compiler": {
    "name": "solc",
    "version": "0.8.13+commit.abaa5c0e.Emscripten.clang"
  },
  "schemaVersion": "3.4.7",
  "updatedAt": "2022-05-12T19:11:21.988Z",
  "networkType": "ethereum",
  "devdoc": {
    "kind": "dev",
    "methods": {
      "owner()": {
        "details": "Returns the address of the current owner."
      },
      "renounceOwnership()": {
        "details": "Leaves the contract without owner. It will not be possible to call `onlyOwner` functions anymore. Can only be called by the current owner. NOTE: Renouncing ownership will leave the contract without an owner, thereby removing any functionality that is only available to the owner."
      },
      "transferOwnership(address)": {
        "details": "Transfers ownership of the contract to a new account (`newOwner`). Can only be called by the current owner."
      }
    },
    "version": 1
  },
  "userdoc": {
    "kind": "user",
    "methods": {},
    "version": 1
  }
}