{
  "contractName": "EventFactory",
  "abi": [
    {
      "inputs": [],
      "stateMutability": "nonpayable",
      "type": "constructor"
    },
    {
      "anonymous": false,
      "inputs": [
        {
          "indexed": false,
          "internalType": "address",
          "name": "contractAddress",
          "type": "address"
        }
      ],
      "name": "NewEvent",
      "type": "event"
    },
    {
      "inputs": [
        {
          "internalType": "uint256",
          "name": "",
          "type": "uint256"
        }
      ],
      "name": "_events",
      "outputs": [
        {
          "internalType": "contract Event",
          "name": "",
          "type": "address"
        }
      ],
      "stateMutability": "view",
      "type": "function",
      "constant": true
    },
    {
      "inputs": [],
      "name": "_owner",
      "outputs": [
        {
          "internalType": "address",
          "name": "",
          "type": "address"
        }
      ],
      "stateMutability": "view",
      "type": "function",
      "constant": true
    },
    {
      "inputs": [],
      "name": "allEvents",
      "outputs": [
        {
          "internalType": "contract Event[]",
          "name": "",
          "type": "address[]"
        }
      ],
      "stateMutability": "view",
      "type": "function",
      "constant": true
    },
    {
      "inputs": [
        {
          "internalType": "string",
          "name": "name",
          "type": "string"
        },
        {
          "internalType": "string",
          "name": "symbol",
          "type": "string"
        },
        {
          "components": [
            {
              "internalType": "string",
              "name": "name",
              "type": "string"
            },
            {
              "internalType": "string",
              "name": "description",
              "type": "string"
            },
            {
              "internalType": "enum BlocTick.TicketType",
              "name": "ticket_type",
              "type": "uint8"
            },
            {
              "internalType": "uint256",
              "name": "quantity_available",
              "type": "uint256"
            },
            {
              "internalType": "uint256",
              "name": "price",
              "type": "uint256"
            }
          ],
          "internalType": "struct BlocTick.Ticket[]",
          "name": "tickets",
          "type": "tuple[]"
        }
      ],
      "name": "addEvent",
      "outputs": [],
      "stateMutability": "nonpayable",
      "type": "function"
    },
    {
      "inputs": [
        {
          "internalType": "uint256",
          "name": "fee",
          "type": "uint256"
        }
      ],
      "name": "setPlatformPercent",
      "outputs": [],
      "stateMutability": "nonpayable",
      "type": "function"
    },
    {
      "inputs": [
        {
          "internalType": "address",
          "name": "eventContract",
          "type": "address"
        },
        {
          "components": [
            {
              "internalType": "string",
              "name": "purchaseId",
              "type": "string"
            },
            {
              "internalType": "uint256",
              "name": "ticketId",
              "type": "uint256"
            },
            {
              "internalType": "string",
              "name": "tokenURI",
              "type": "string"
            },
            {
              "internalType": "address",
              "name": "buyer",
              "type": "address"
            },
            {
              "internalType": "string",
              "name": "cost",
              "type": "string"
            }
          ],
          "internalType": "struct BlocTick.TicketPurchase[]",
          "name": "purchases",
          "type": "tuple[]"
        }
      ],
      "name": "mintTickets",
      "outputs": [],
      "stateMutability": "payable",
      "type": "function",
      "payable": true
    }
  ],
  "bytecode": "0x6080604052600a60025534801561001557600080fd5b50336000806101000a81548173ffffffffffffffffffffffffffffffffffffffff021916908373ffffffffffffffffffffffffffffffffffffffff160217905550615fda806100656000396000f3fe6080604052600436106200005c5760003560e01c806314d7c375146200006157806380f7668f146200009157806396f229ca14620000b1578063b2bdfa7b14620000df578063f040d0f2146200010f578063ff001b321462000153575b600080fd5b3480156200006e57600080fd5b506200007962000181565b604051620000889190620006d9565b60405180910390f35b620000af6004803603810190620000a9919062000af1565b62000211565b005b348015620000be57600080fd5b50620000dd6004803603810190620000d7919062000d4f565b62000330565b005b348015620000ec57600080fd5b50620000f762000484565b60405162000106919062000e19565b60405180910390f35b3480156200011c57600080fd5b506200013b600480360381019062000135919062000e36565b620004a8565b6040516200014a919062000e79565b60405180910390f35b3480156200016057600080fd5b506200017f600480360381019062000179919062000e36565b620004e8565b005b606060018054806020026020016040519081016040528092919081815260200182805480156200020757602002820191906000526020600020905b8160009054906101000a900473ffffffffffffffffffffffffffffffffffffffff1673ffffffffffffffffffffffffffffffffffffffff1681526020019060010190808311620001bc575b5050505050905090565b600082905060003460646002546200022a919062000ef4565b62000236919062000f2c565b3462000243919062000f8d565b90508173ffffffffffffffffffffffffffffffffffffffff16634b2e5dca82856040518363ffffffff1660e01b8152600401620002819190620011db565b6000604051808303818588803b1580156200029b57600080fd5b505af1158015620002b0573d6000803e3d6000fd5b505050505060008054906101000a900473ffffffffffffffffffffffffffffffffffffffff1673ffffffffffffffffffffffffffffffffffffffff166108fc8234620002fd919062000f8d565b9081150290604051600060405180830381858888f1935050505015801562000329573d6000803e3d6000fd5b5050505050565b6000838333604051620003439062000583565b620003519392919062001251565b604051809103906000f0801580156200036e573d6000803e3d6000fd5b5090508073ffffffffffffffffffffffffffffffffffffffff16633d181c7e83336040518363ffffffff1660e01b8152600401620003ae92919062001473565b600060405180830381600087803b158015620003c957600080fd5b505af1158015620003de573d6000803e3d6000fd5b505050506001819080600181540180825580915050600190039060005260206000200160009091909190916101000a81548173ffffffffffffffffffffffffffffffffffffffff021916908373ffffffffffffffffffffffffffffffffffffffff1602179055507f0227e3b2fb10ea87b3ce0fe9b23554ad992c666dd128c13c0a6ef2d73dd80ba08160405162000476919062000e19565b60405180910390a150505050565b60008054906101000a900473ffffffffffffffffffffffffffffffffffffffff1681565b60018181548110620004b957600080fd5b906000526020600020016000915054906101000a900473ffffffffffffffffffffffffffffffffffffffff1681565b60008054906101000a900473ffffffffffffffffffffffffffffffffffffffff1673ffffffffffffffffffffffffffffffffffffffff163373ffffffffffffffffffffffffffffffffffffffff161462000579576040517f08c379a00000000000000000000000000000000000000000000000000000000081526004016200057090620014f7565b60405180910390fd5b8060028190555050565b614a8b806200151a83390190565b600081519050919050565b600082825260208201905092915050565b6000819050602082019050919050565b600073ffffffffffffffffffffffffffffffffffffffff82169050919050565b6000819050919050565b60006200060862000602620005fc84620005bd565b620005dd565b620005bd565b9050919050565b60006200061c82620005e7565b9050919050565b600062000630826200060f565b9050919050565b620006428162000623565b82525050565b600062000656838362000637565b60208301905092915050565b6000602082019050919050565b60006200067c8262000591565b6200068881856200059c565b93506200069583620005ad565b8060005b83811015620006cc578151620006b0888262000648565b9750620006bd8362000662565b92505060018101905062000699565b5085935050505092915050565b60006020820190508181036000830152620006f581846200066f565b905092915050565b6000604051905090565b600080fd5b600080fd5b60006200071e82620005bd565b9050919050565b620007308162000711565b81146200073c57600080fd5b50565b600081359050620007508162000725565b92915050565b600080fd5b6000601f19601f8301169050919050565b7f4e487b7100000000000000000000000000000000000000000000000000000000600052604160045260246000fd5b620007a6826200075b565b810181811067ffffffffffffffff82111715620007c857620007c76200076c565b5b80604052505050565b6000620007dd620006fd565b9050620007eb82826200079b565b919050565b600067ffffffffffffffff8211156200080e576200080d6200076c565b5b602082029050602081019050919050565b600080fd5b600080fd5b600080fd5b600080fd5b600067ffffffffffffffff8211156200085157620008506200076c565b5b6200085c826200075b565b9050602081019050919050565b82818337600083830152505050565b60006200088f620008898462000833565b620007d1565b905082815260208101848484011115620008ae57620008ad6200082e565b5b620008bb84828562000869565b509392505050565b600082601f830112620008db57620008da62000756565b5b8135620008ed84826020860162000878565b91505092915050565b6000819050919050565b6200090b81620008f6565b81146200091757600080fd5b50565b6000813590506200092b8162000900565b92915050565b600060a082840312156200094a576200094962000824565b5b6200095660a0620007d1565b9050600082013567ffffffffffffffff81111562000979576200097862000829565b5b6200098784828501620008c3565b60008301525060206200099d848285016200091a565b602083015250604082013567ffffffffffffffff811115620009c457620009c362000829565b5b620009d284828501620008c3565b6040830152506060620009e8848285016200073f565b606083015250608082013567ffffffffffffffff81111562000a0f5762000a0e62000829565b5b62000a1d84828501620008c3565b60808301525092915050565b600062000a4062000a3a84620007f0565b620007d1565b9050808382526020820190506020840283018581111562000a665762000a656200081f565b5b835b8181101562000ab457803567ffffffffffffffff81111562000a8f5762000a8e62000756565b5b80860162000a9e898262000931565b8552602085019450505060208101905062000a68565b5050509392505050565b600082601f83011262000ad65762000ad562000756565b5b813562000ae884826020860162000a29565b91505092915050565b6000806040838503121562000b0b5762000b0a62000707565b5b600062000b1b858286016200073f565b925050602083013567ffffffffffffffff81111562000b3f5762000b3e6200070c565b5b62000b4d8582860162000abe565b9150509250929050565b600067ffffffffffffffff82111562000b755762000b746200076c565b5b602082029050602081019050919050565b6003811062000b9457600080fd5b50565b60008135905062000ba88162000b86565b92915050565b600060a0828403121562000bc75762000bc662000824565b5b62000bd360a0620007d1565b9050600082013567ffffffffffffffff81111562000bf65762000bf562000829565b5b62000c0484828501620008c3565b600083015250602082013567ffffffffffffffff81111562000c2b5762000c2a62000829565b5b62000c3984828501620008c3565b602083015250604062000c4f8482850162000b97565b604083015250606062000c65848285016200091a565b606083015250608062000c7b848285016200091a565b60808301525092915050565b600062000c9e62000c988462000b57565b620007d1565b9050808382526020820190506020840283018581111562000cc45762000cc36200081f565b5b835b8181101562000d1257803567ffffffffffffffff81111562000ced5762000cec62000756565b5b80860162000cfc898262000bae565b8552602085019450505060208101905062000cc6565b5050509392505050565b600082601f83011262000d345762000d3362000756565b5b813562000d4684826020860162000c87565b91505092915050565b60008060006060848603121562000d6b5762000d6a62000707565b5b600084013567ffffffffffffffff81111562000d8c5762000d8b6200070c565b5b62000d9a86828701620008c3565b935050602084013567ffffffffffffffff81111562000dbe5762000dbd6200070c565b5b62000dcc86828701620008c3565b925050604084013567ffffffffffffffff81111562000df05762000def6200070c565b5b62000dfe8682870162000d1c565b9150509250925092565b62000e138162000711565b82525050565b600060208201905062000e30600083018462000e08565b92915050565b60006020828403121562000e4f5762000e4e62000707565b5b600062000e5f848285016200091a565b91505092915050565b62000e738162000623565b82525050565b600060208201905062000e90600083018462000e68565b92915050565b7f4e487b7100000000000000000000000000000000000000000000000000000000600052601260045260246000fd5b7f4e487b7100000000000000000000000000000000000000000000000000000000600052601160045260246000fd5b600062000f0182620008f6565b915062000f0e83620008f6565b92508262000f215762000f2062000e96565b5b828204905092915050565b600062000f3982620008f6565b915062000f4683620008f6565b9250817fffffffffffffffffffffffffffffffffffffffffffffffffffffffffffffffff048311821515161562000f825762000f8162000ec5565b5b828202905092915050565b600062000f9a82620008f6565b915062000fa783620008f6565b92508282101562000fbd5762000fbc62000ec5565b5b828203905092915050565b600081519050919050565b600082825260208201905092915050565b6000819050602082019050919050565b600081519050919050565b600082825260208201905092915050565b60005b838110156200103057808201518184015260208101905062001013565b8381111562001040576000848401525b50505050565b6000620010538262000ff4565b6200105f818562000fff565b93506200107181856020860162001010565b6200107c816200075b565b840191505092915050565b6200109281620008f6565b82525050565b620010a38162000711565b82525050565b600060a0830160008301518482036000860152620010c8828262001046565b9150506020830151620010df602086018262001087565b5060408301518482036040860152620010f9828262001046565b915050606083015162001110606086018262001098565b50608083015184820360808601526200112a828262001046565b9150508091505092915050565b6000620011458383620010a9565b905092915050565b6000602082019050919050565b6000620011678262000fc8565b62001173818562000fd3565b935083602082028501620011878562000fe4565b8060005b85811015620011c95784840389528151620011a7858262001137565b9450620011b4836200114d565b925060208a019950506001810190506200118b565b50829750879550505050505092915050565b60006020820190508181036000830152620011f781846200115a565b905092915050565b600082825260208201905092915050565b60006200121d8262000ff4565b620012298185620011ff565b93506200123b81856020860162001010565b62001246816200075b565b840191505092915050565b600060608201905081810360008301526200126d818662001210565b9050818103602083015262001283818562001210565b905062001294604083018462000e08565b949350505050565b600081519050919050565b600082825260208201905092915050565b6000819050602082019050919050565b7f4e487b7100000000000000000000000000000000000000000000000000000000600052602160045260246000fd5b600381106200130b576200130a620012c8565b5b50565b60008190506200131e82620012f7565b919050565b600062001330826200130e565b9050919050565b620013428162001323565b82525050565b600060a083016000830151848203600086015262001367828262001046565b9150506020830151848203602086015262001383828262001046565b91505060408301516200139a604086018262001337565b506060830151620013af606086018262001087565b506080830151620013c4608086018262001087565b508091505092915050565b6000620013dd838362001348565b905092915050565b6000602082019050919050565b6000620013ff826200129c565b6200140b8185620012a7565b9350836020820285016200141f85620012b8565b8060005b858110156200146157848403895281516200143f8582620013cf565b94506200144c83620013e5565b925060208a0199505060018101905062001423565b50829750879550505050505092915050565b600060408201905081810360008301526200148f8185620013f2565b9050620014a0602083018462000e08565b9392505050565b7f4163636573732072657374726963746564210000000000000000000000000000600082015250565b6000620014df601283620011ff565b9150620014ec82620014a7565b602082019050919050565b600060208201905081810360008301526200151281620014d0565b905091905056fe60806040526001600c60146101000a81548160ff0219169083151502179055503480156200002c57600080fd5b5060405162004a8b38038062004a8b8339818101604052810190620000529190620003c5565b828281600090805190602001906200006c92919062000113565b5080600190805190602001906200008592919062000113565b50505033600e60006101000a81548173ffffffffffffffffffffffffffffffffffffffff021916908373ffffffffffffffffffffffffffffffffffffffff16021790555080600c60006101000a81548173ffffffffffffffffffffffffffffffffffffffff021916908373ffffffffffffffffffffffffffffffffffffffff160217905550505050620004c3565b82805462000121906200048e565b90600052602060002090601f01602090048101928262000145576000855562000191565b82601f106200016057805160ff191683800117855562000191565b8280016001018555821562000191579182015b828111156200019057825182559160200191906001019062000173565b5b509050620001a09190620001a4565b5090565b5b80821115620001bf576000816000905550600101620001a5565b5090565b6000604051905090565b600080fd5b600080fd5b600080fd5b600080fd5b6000601f19601f8301169050919050565b7f4e487b7100000000000000000000000000000000000000000000000000000000600052604160045260246000fd5b6200022c82620001e1565b810181811067ffffffffffffffff821117156200024e576200024d620001f2565b5b80604052505050565b600062000263620001c3565b905062000271828262000221565b919050565b600067ffffffffffffffff821115620002945762000293620001f2565b5b6200029f82620001e1565b9050602081019050919050565b60005b83811015620002cc578082015181840152602081019050620002af565b83811115620002dc576000848401525b50505050565b6000620002f9620002f38462000276565b62000257565b905082815260208101848484011115620003185762000317620001dc565b5b62000325848285620002ac565b509392505050565b600082601f830112620003455762000344620001d7565b5b815162000357848260208601620002e2565b91505092915050565b600073ffffffffffffffffffffffffffffffffffffffff82169050919050565b60006200038d8262000360565b9050919050565b6200039f8162000380565b8114620003ab57600080fd5b50565b600081519050620003bf8162000394565b92915050565b600080600060608486031215620003e157620003e0620001cd565b5b600084015167ffffffffffffffff811115620004025762000401620001d2565b5b62000410868287016200032d565b935050602084015167ffffffffffffffff811115620004345762000433620001d2565b5b62000442868287016200032d565b92505060406200045586828701620003ae565b9150509250925092565b7f4e487b7100000000000000000000000000000000000000000000000000000000600052602260045260246000fd5b60006002820490506001821680620004a757607f821691505b602082108103620004bd57620004bc6200045f565b5b50919050565b6145b880620004d36000396000f3fe60806040526004361061012a5760003560e01c80636352211e116100ab578063b88d4fde1161006f578063b88d4fde146103d0578063bba7723e146103f9578063c87b56dd14610436578063e985e9c514610473578063eb8d2444146104b0578063ee55efee146104db5761012a565b80636352211e146102d757806370a082311461031457806395d89b4114610351578063a22cb4651461037c578063b2bdfa7b146103a55761012a565b806323b872dd116100f257806323b872dd146102145780633d181c7e1461023d57806342842e0e146102665780634b2e5dca1461028f5780635a9b0b89146102ab5761012a565b806301ffc9a71461012f57806306fdde031461016c578063081812fc14610197578063095ea7b3146101d4578063167ff46f146101fd575b600080fd5b34801561013b57600080fd5b50610156600480360381019061015191906126c4565b6104f2565b604051610163919061270c565b60405180910390f35b34801561017857600080fd5b506101816105d4565b60405161018e91906127c0565b60405180910390f35b3480156101a357600080fd5b506101be60048036038101906101b99190612818565b610666565b6040516101cb9190612886565b60405180910390f35b3480156101e057600080fd5b506101fb60048036038101906101f691906128cd565b6106eb565b005b34801561020957600080fd5b50610212610802565b005b34801561022057600080fd5b5061023b6004803603810190610236919061290d565b6108b1565b005b34801561024957600080fd5b50610264600480360381019061025f9190612c6e565b610911565b005b34801561027257600080fd5b5061028d6004803603810190610288919061290d565b610aa3565b005b6102a960048036038101906102a49190612e8b565b610ac3565b005b3480156102b757600080fd5b506102c0610e3c565b6040516102ce92919061308a565b60405180910390f35b3480156102e357600080fd5b506102fe60048036038101906102f99190612818565b6110ad565b60405161030b9190612886565b60405180910390f35b34801561032057600080fd5b5061033b600480360381019061033691906130ba565b61115e565b60405161034891906130e7565b60405180910390f35b34801561035d57600080fd5b50610366611215565b60405161037391906127c0565b60405180910390f35b34801561038857600080fd5b506103a3600480360381019061039e919061312e565b6112a7565b005b3480156103b157600080fd5b506103ba6112bd565b6040516103c79190612886565b60405180910390f35b3480156103dc57600080fd5b506103f760048036038101906103f2919061320f565b6112e3565b005b34801561040557600080fd5b50610420600480360381019061041b91906130ba565b611345565b60405161042d9190613341565b60405180910390f35b34801561044257600080fd5b5061045d60048036038101906104589190612818565b61144a565b60405161046a91906127c0565b60405180910390f35b34801561047f57600080fd5b5061049a60048036038101906104959190613363565b61159b565b6040516104a7919061270c565b60405180910390f35b3480156104bc57600080fd5b506104c561162f565b6040516104d2919061270c565b60405180910390f35b3480156104e757600080fd5b506104f0611642565b005b60007f80ac58cd000000000000000000000000000000000000000000000000000000007bffffffffffffffffffffffffffffffffffffffffffffffffffffffff1916827bffffffffffffffffffffffffffffffffffffffffffffffffffffffff191614806105bd57507f5b5e139f000000000000000000000000000000000000000000000000000000007bffffffffffffffffffffffffffffffffffffffffffffffffffffffff1916827bffffffffffffffffffffffffffffffffffffffffffffffffffffffff1916145b806105cd57506105cc826116f1565b5b9050919050565b6060600080546105e3906133d2565b80601f016020809104026020016040519081016040528092919081815260200182805461060f906133d2565b801561065c5780601f106106315761010080835404028352916020019161065c565b820191906000526020600020905b81548152906001019060200180831161063f57829003601f168201915b5050505050905090565b60006106718261175b565b6106b0576040517f08c379a00000000000000000000000000000000000000000000000000000000081526004016106a790613475565b60405180910390fd5b6004600083815260200190815260200160002060009054906101000a900473ffffffffffffffffffffffffffffffffffffffff169050919050565b60006106f6826110ad565b90508073ffffffffffffffffffffffffffffffffffffffff168373ffffffffffffffffffffffffffffffffffffffff1603610766576040517f08c379a000000000000000000000000000000000000000000000000000000000815260040161075d90613507565b60405180910390fd5b8073ffffffffffffffffffffffffffffffffffffffff166107856117c7565b73ffffffffffffffffffffffffffffffffffffffff1614806107b457506107b3816107ae6117c7565b61159b565b5b6107f3576040517f08c379a00000000000000000000000000000000000000000000000000000000081526004016107ea90613599565b60405180910390fd5b6107fd83836117cf565b505050565b33600c60009054906101000a900473ffffffffffffffffffffffffffffffffffffffff1673ffffffffffffffffffffffffffffffffffffffff168173ffffffffffffffffffffffffffffffffffffffff1614610893576040517f08c379a000000000000000000000000000000000000000000000000000000000815260040161088a90613605565b60405180910390fd5b6001600c60146101000a81548160ff02191690831515021790555050565b6108c26108bc6117c7565b82611888565b610901576040517f08c379a00000000000000000000000000000000000000000000000000000000081526004016108f890613697565b60405180910390fd5b61090c838383611966565b505050565b600e60009054906101000a900473ffffffffffffffffffffffffffffffffffffffff1673ffffffffffffffffffffffffffffffffffffffff163373ffffffffffffffffffffffffffffffffffffffff16146109a1576040517f08c379a000000000000000000000000000000000000000000000000000000000815260040161099890613605565b60405180910390fd5b80600c60009054906101000a900473ffffffffffffffffffffffffffffffffffffffff1673ffffffffffffffffffffffffffffffffffffffff168173ffffffffffffffffffffffffffffffffffffffff1614610a32576040517f08c379a0000000000000000000000000000000000000000000000000000000008152600401610a2990613605565b60405180910390fd5b600873__TicketManager_________________________63a2a93cbf9091856040518363ffffffff1660e01b8152600401610a6e9291906138cd565b60006040518083038186803b158015610a8657600080fd5b505af4158015610a9a573d6000803e3d6000fd5b50505050505050565b610abe838383604051806020016040528060008152506112e3565b505050565b600e60009054906101000a900473ffffffffffffffffffffffffffffffffffffffff1673ffffffffffffffffffffffffffffffffffffffff163373ffffffffffffffffffffffffffffffffffffffff1614610b53576040517f08c379a0000000000000000000000000000000000000000000000000000000008152600401610b4a90613605565b60405180910390fd5b600c60149054906101000a900460ff16610b6c57600080fd5b600873__TicketManager_________________________6341023a1e9091836040518363ffffffff1660e01b8152600401610ba8929190613a52565b602060405180830381865af4158015610bc5573d6000803e3d6000fd5b505050506040513d601f19601f82011682018060405250810190610be99190613a97565b341015610c2b576040517f08c379a0000000000000000000000000000000000000000000000000000000008152600401610c2290613b10565b60405180910390fd5b60005b8151811015610db6576000828281518110610c4c57610c4b613b30565b5b602002602001015190506000610c626007611bcc565b9050610c6e3082611bda565b610c786007611db3565b610c86818360400151611dc9565b610c9530836060015183611966565b60086001016040518060a0016040528084600001518152602001846060015173ffffffffffffffffffffffffffffffffffffffff16815260200183815260200184602001518152602001846080015181525090806001815401808255809150506001900390600052602060002090600502016000909190919091506000820151816000019080519060200190610d2c9291906125b5565b5060208201518160010160006101000a81548173ffffffffffffffffffffffffffffffffffffffff021916908373ffffffffffffffffffffffffffffffffffffffff16021790555060408201518160020155606082015181600301556080820151816004019080519060200190610da49291906125b5565b50505082806001019350505050610c2e565b50600c60009054906101000a900473ffffffffffffffffffffffffffffffffffffffff1673ffffffffffffffffffffffffffffffffffffffff166108fc349081150290604051600060405180830381858888f19350505050158015610e1f573d6000803e3d6000fd5b5034600d6000828254610e329190613b8e565b9250508190555050565b60006060600d54600873__TicketManager_________________________63957f0c8c90916040518263ffffffff1660e01b8152600401610e7d9190613be4565b602060405180830381865af4158015610e9a573d6000803e3d6000fd5b505050506040513d601f19601f82011682018060405250810190610ebe9190613c35565b80805480602002602001604051908101604052809291908181526020016000905b8282101561109f57838290600052602060002090600502016040518060a0016040529081600082018054610f12906133d2565b80601f0160208091040260200160405190810160405280929190818152602001828054610f3e906133d2565b8015610f8b5780601f10610f6057610100808354040283529160200191610f8b565b820191906000526020600020905b815481529060010190602001808311610f6e57829003601f168201915b505050505081526020016001820160009054906101000a900473ffffffffffffffffffffffffffffffffffffffff1673ffffffffffffffffffffffffffffffffffffffff1673ffffffffffffffffffffffffffffffffffffffff168152602001600282015481526020016003820154815260200160048201805461100e906133d2565b80601f016020809104026020016040519081016040528092919081815260200182805461103a906133d2565b80156110875780601f1061105c57610100808354040283529160200191611087565b820191906000526020600020905b81548152906001019060200180831161106a57829003601f168201915b50505050508152505081526020019060010190610edf565b505050509050915091509091565b6000806002600084815260200190815260200160002060009054906101000a900473ffffffffffffffffffffffffffffffffffffffff169050600073ffffffffffffffffffffffffffffffffffffffff168173ffffffffffffffffffffffffffffffffffffffff1603611155576040517f08c379a000000000000000000000000000000000000000000000000000000000815260040161114c90613cd4565b60405180910390fd5b80915050919050565b60008073ffffffffffffffffffffffffffffffffffffffff168273ffffffffffffffffffffffffffffffffffffffff16036111ce576040517f08c379a00000000000000000000000000000000000000000000000000000000081526004016111c590613d66565b60405180910390fd5b600360008373ffffffffffffffffffffffffffffffffffffffff1673ffffffffffffffffffffffffffffffffffffffff168152602001908152602001600020549050919050565b606060018054611224906133d2565b80601f0160208091040260200160405190810160405280929190818152602001828054611250906133d2565b801561129d5780601f106112725761010080835404028352916020019161129d565b820191906000526020600020905b81548152906001019060200180831161128057829003601f168201915b5050505050905090565b6112b96112b26117c7565b8383611e3d565b5050565b600c60009054906101000a900473ffffffffffffffffffffffffffffffffffffffff1681565b6112f46112ee6117c7565b83611888565b611333576040517f08c379a000000000000000000000000000000000000000000000000000000000815260040161132a90613697565b60405180910390fd5b61133f84848484611fa9565b50505050565b606060006113528361115e565b905060008167ffffffffffffffff8111156113705761136f612965565b5b60405190808252806020026020018201604052801561139e5781602001602082028036833780820191505090505b509050600082036113b3578092505050611445565b60005b8281101561143e57600a60000160008673ffffffffffffffffffffffffffffffffffffffff1673ffffffffffffffffffffffffffffffffffffffff16815260200190815260200160002060008281526020019081526020016000205482828151811061142557611424613b30565b5b60200260200101818152505080806001019150506113b6565b5080925050505b919050565b60606114558261175b565b611494576040517f08c379a000000000000000000000000000000000000000000000000000000000815260040161148b90613df8565b60405180910390fd5b60006006600084815260200190815260200160002080546114b4906133d2565b80601f01602080910402602001604051908101604052809291908181526020018280546114e0906133d2565b801561152d5780601f106115025761010080835404028352916020019161152d565b820191906000526020600020905b81548152906001019060200180831161151057829003601f168201915b50505050509050600061153e612005565b90506000815103611553578192505050611596565b600082511115611588578082604051602001611570929190613e54565b60405160208183030381529060405292505050611596565b6115918461201c565b925050505b919050565b6000600560008473ffffffffffffffffffffffffffffffffffffffff1673ffffffffffffffffffffffffffffffffffffffff16815260200190815260200160002060008373ffffffffffffffffffffffffffffffffffffffff1673ffffffffffffffffffffffffffffffffffffffff16815260200190815260200160002060009054906101000a900460ff16905092915050565b600c60149054906101000a900460ff1681565b33600c60009054906101000a900473ffffffffffffffffffffffffffffffffffffffff1673ffffffffffffffffffffffffffffffffffffffff168173ffffffffffffffffffffffffffffffffffffffff16146116d3576040517f08c379a00000000000000000000000000000000000000000000000000000000081526004016116ca90613605565b60405180910390fd5b6000600c60146101000a81548160ff02191690831515021790555050565b60007f01ffc9a7000000000000000000000000000000000000000000000000000000007bffffffffffffffffffffffffffffffffffffffffffffffffffffffff1916827bffffffffffffffffffffffffffffffffffffffffffffffffffffffff1916149050919050565b60008073ffffffffffffffffffffffffffffffffffffffff166002600084815260200190815260200160002060009054906101000a900473ffffffffffffffffffffffffffffffffffffffff1673ffffffffffffffffffffffffffffffffffffffff1614159050919050565b600033905090565b816004600083815260200190815260200160002060006101000a81548173ffffffffffffffffffffffffffffffffffffffff021916908373ffffffffffffffffffffffffffffffffffffffff160217905550808273ffffffffffffffffffffffffffffffffffffffff16611842836110ad565b73ffffffffffffffffffffffffffffffffffffffff167f8c5be1e5ebec7d5bd14f71427d1e84f3dd0314c0f7b2291e5b200ac8c7c3b92560405160405180910390a45050565b60006118938261175b565b6118d2576040517f08c379a00000000000000000000000000000000000000000000000000000000081526004016118c990613eea565b60405180910390fd5b60006118dd836110ad565b90508073ffffffffffffffffffffffffffffffffffffffff168473ffffffffffffffffffffffffffffffffffffffff16148061191f575061191e818561159b565b5b8061195d57508373ffffffffffffffffffffffffffffffffffffffff1661194584610666565b73ffffffffffffffffffffffffffffffffffffffff16145b91505092915050565b8273ffffffffffffffffffffffffffffffffffffffff16611986826110ad565b73ffffffffffffffffffffffffffffffffffffffff16146119dc576040517f08c379a00000000000000000000000000000000000000000000000000000000081526004016119d390613f7c565b60405180910390fd5b600073ffffffffffffffffffffffffffffffffffffffff168273ffffffffffffffffffffffffffffffffffffffff1603611a4b576040517f08c379a0000000000000000000000000000000000000000000000000000000008152600401611a429061400e565b60405180910390fd5b611a568383836120c3565b611a616000826117cf565b6001600360008573ffffffffffffffffffffffffffffffffffffffff1673ffffffffffffffffffffffffffffffffffffffff1681526020019081526020016000206000828254611ab1919061402e565b925050819055506001600360008473ffffffffffffffffffffffffffffffffffffffff1673ffffffffffffffffffffffffffffffffffffffff1681526020019081526020016000206000828254611b089190613b8e565b92505081905550816002600083815260200190815260200160002060006101000a81548173ffffffffffffffffffffffffffffffffffffffff021916908373ffffffffffffffffffffffffffffffffffffffff160217905550808273ffffffffffffffffffffffffffffffffffffffff168473ffffffffffffffffffffffffffffffffffffffff167fddf252ad1be2c89b69c2b068fc378daa952ba7f163c4a11628f55a4df523b3ef60405160405180910390a4611bc78383836122a1565b505050565b600081600001549050919050565b600073ffffffffffffffffffffffffffffffffffffffff168273ffffffffffffffffffffffffffffffffffffffff1603611c49576040517f08c379a0000000000000000000000000000000000000000000000000000000008152600401611c40906140ae565b60405180910390fd5b611c528161175b565b15611c92576040517f08c379a0000000000000000000000000000000000000000000000000000000008152600401611c899061411a565b60405180910390fd5b611c9e600083836120c3565b6001600360008473ffffffffffffffffffffffffffffffffffffffff1673ffffffffffffffffffffffffffffffffffffffff1681526020019081526020016000206000828254611cee9190613b8e565b92505081905550816002600083815260200190815260200160002060006101000a81548173ffffffffffffffffffffffffffffffffffffffff021916908373ffffffffffffffffffffffffffffffffffffffff160217905550808273ffffffffffffffffffffffffffffffffffffffff16600073ffffffffffffffffffffffffffffffffffffffff167fddf252ad1be2c89b69c2b068fc378daa952ba7f163c4a11628f55a4df523b3ef60405160405180910390a4611daf600083836122a1565b5050565b6001816000016000828254019250508190555050565b611dd28261175b565b611e11576040517f08c379a0000000000000000000000000000000000000000000000000000000008152600401611e08906141ac565b60405180910390fd5b80600660008481526020019081526020016000209080519060200190611e389291906125b5565b505050565b8173ffffffffffffffffffffffffffffffffffffffff168373ffffffffffffffffffffffffffffffffffffffff1603611eab576040517f08c379a0000000000000000000000000000000000000000000000000000000008152600401611ea290614218565b60405180910390fd5b80600560008573ffffffffffffffffffffffffffffffffffffffff1673ffffffffffffffffffffffffffffffffffffffff16815260200190815260200160002060008473ffffffffffffffffffffffffffffffffffffffff1673ffffffffffffffffffffffffffffffffffffffff16815260200190815260200160002060006101000a81548160ff0219169083151502179055508173ffffffffffffffffffffffffffffffffffffffff168373ffffffffffffffffffffffffffffffffffffffff167f17307eab39ab6107e8899845ad3d59bd9653f200f220920489ca2b5937696c3183604051611f9c919061270c565b60405180910390a3505050565b611fb4848484611966565b611fc0848484846122a6565b611fff576040517f08c379a0000000000000000000000000000000000000000000000000000000008152600401611ff6906142aa565b60405180910390fd5b50505050565b606060405180602001604052806000815250905090565b60606120278261175b565b612066576040517f08c379a000000000000000000000000000000000000000000000000000000000815260040161205d9061433c565b60405180910390fd5b6000612070612005565b9050600081511161209057604051806020016040528060008152506120bb565b8061209a8461242d565b6040516020016120ab929190613e54565b6040516020818303038152906040525b915050919050565b6120ce83838361258d565b8173ffffffffffffffffffffffffffffffffffffffff168373ffffffffffffffffffffffffffffffffffffffff16141580156121375750600073ffffffffffffffffffffffffffffffffffffffff168373ffffffffffffffffffffffffffffffffffffffff1614155b156121b557600a73__Enumerable____________________________630c7a534b909185846121658861115e565b6040518563ffffffff1660e01b81526004016121849493929190614381565b60006040518083038186803b15801561219c57600080fd5b505af41580156121b0573d6000803e3d6000fd5b505050505b8273ffffffffffffffffffffffffffffffffffffffff168273ffffffffffffffffffffffffffffffffffffffff161415801561221e5750600073ffffffffffffffffffffffffffffffffffffffff168273ffffffffffffffffffffffffffffffffffffffff1614155b1561229c57600a73__Enumerable____________________________6353f1b6a59091848461224c8761115e565b6040518563ffffffff1660e01b815260040161226b9493929190614381565b60006040518083038186803b15801561228357600080fd5b505af4158015612297573d6000803e3d6000fd5b505050505b505050565b505050565b60006122c78473ffffffffffffffffffffffffffffffffffffffff16612592565b15612420578373ffffffffffffffffffffffffffffffffffffffff1663150b7a026122f06117c7565b8786866040518563ffffffff1660e01b8152600401612312949392919061441b565b6020604051808303816000875af192505050801561234e57506040513d601f19601f8201168201806040525081019061234b919061447c565b60015b6123d0573d806000811461237e576040519150601f19603f3d011682016040523d82523d6000602084013e612383565b606091505b5060008151036123c8576040517f08c379a00000000000000000000000000000000000000000000000000000000081526004016123bf906142aa565b60405180910390fd5b805181602001fd5b63150b7a0260e01b7bffffffffffffffffffffffffffffffffffffffffffffffffffffffff1916817bffffffffffffffffffffffffffffffffffffffffffffffffffffffff191614915050612425565b600190505b949350505050565b606060008203612474576040518060400160405280600181526020017f30000000000000000000000000000000000000000000000000000000000000008152509050612588565b600082905060005b600082146124a657808061248f906144a9565b915050600a8261249f9190614520565b915061247c565b60008167ffffffffffffffff8111156124c2576124c1612965565b5b6040519080825280601f01601f1916602001820160405280156124f45781602001600182028036833780820191505090505b5090505b600085146125815760018261250d919061402e565b9150600a8561251c9190614551565b60306125289190613b8e565b60f81b81838151811061253e5761253d613b30565b5b60200101907effffffffffffffffffffffffffffffffffffffffffffffffffffffffffffff1916908160001a905350600a8561257a9190614520565b94506124f8565b8093505050505b919050565b505050565b6000808273ffffffffffffffffffffffffffffffffffffffff163b119050919050565b8280546125c1906133d2565b90600052602060002090601f0160209004810192826125e3576000855561262a565b82601f106125fc57805160ff191683800117855561262a565b8280016001018555821561262a579182015b8281111561262957825182559160200191906001019061260e565b5b509050612637919061263b565b5090565b5b8082111561265457600081600090555060010161263c565b5090565b6000604051905090565b600080fd5b600080fd5b60007fffffffff0000000000000000000000000000000000000000000000000000000082169050919050565b6126a18161266c565b81146126ac57600080fd5b50565b6000813590506126be81612698565b92915050565b6000602082840312156126da576126d9612662565b5b60006126e8848285016126af565b91505092915050565b60008115159050919050565b612706816126f1565b82525050565b600060208201905061272160008301846126fd565b92915050565b600081519050919050565b600082825260208201905092915050565b60005b83811015612761578082015181840152602081019050612746565b83811115612770576000848401525b50505050565b6000601f19601f8301169050919050565b600061279282612727565b61279c8185612732565b93506127ac818560208601612743565b6127b581612776565b840191505092915050565b600060208201905081810360008301526127da8184612787565b905092915050565b6000819050919050565b6127f5816127e2565b811461280057600080fd5b50565b600081359050612812816127ec565b92915050565b60006020828403121561282e5761282d612662565b5b600061283c84828501612803565b91505092915050565b600073ffffffffffffffffffffffffffffffffffffffff82169050919050565b600061287082612845565b9050919050565b61288081612865565b82525050565b600060208201905061289b6000830184612877565b92915050565b6128aa81612865565b81146128b557600080fd5b50565b6000813590506128c7816128a1565b92915050565b600080604083850312156128e4576128e3612662565b5b60006128f2858286016128b8565b925050602061290385828601612803565b9150509250929050565b60008060006060848603121561292657612925612662565b5b6000612934868287016128b8565b9350506020612945868287016128b8565b925050604061295686828701612803565b9150509250925092565b600080fd5b7f4e487b7100000000000000000000000000000000000000000000000000000000600052604160045260246000fd5b61299d82612776565b810181811067ffffffffffffffff821117156129bc576129bb612965565b5b80604052505050565b60006129cf612658565b90506129db8282612994565b919050565b600067ffffffffffffffff8211156129fb576129fa612965565b5b602082029050602081019050919050565b600080fd5b600080fd5b600080fd5b600080fd5b600067ffffffffffffffff821115612a3b57612a3a612965565b5b612a4482612776565b9050602081019050919050565b82818337600083830152505050565b6000612a73612a6e84612a20565b6129c5565b905082815260208101848484011115612a8f57612a8e612a1b565b5b612a9a848285612a51565b509392505050565b600082601f830112612ab757612ab6612960565b5b8135612ac7848260208601612a60565b91505092915050565b60038110612add57600080fd5b50565b600081359050612aef81612ad0565b92915050565b600060a08284031215612b0b57612b0a612a11565b5b612b1560a06129c5565b9050600082013567ffffffffffffffff811115612b3557612b34612a16565b5b612b4184828501612aa2565b600083015250602082013567ffffffffffffffff811115612b6557612b64612a16565b5b612b7184828501612aa2565b6020830152506040612b8584828501612ae0565b6040830152506060612b9984828501612803565b6060830152506080612bad84828501612803565b60808301525092915050565b6000612bcc612bc7846129e0565b6129c5565b90508083825260208201905060208402830185811115612bef57612bee612a0c565b5b835b81811015612c3657803567ffffffffffffffff811115612c1457612c13612960565b5b808601612c218982612af5565b85526020850194505050602081019050612bf1565b5050509392505050565b600082601f830112612c5557612c54612960565b5b8135612c65848260208601612bb9565b91505092915050565b60008060408385031215612c8557612c84612662565b5b600083013567ffffffffffffffff811115612ca357612ca2612667565b5b612caf85828601612c40565b9250506020612cc0858286016128b8565b9150509250929050565b600067ffffffffffffffff821115612ce557612ce4612965565b5b602082029050602081019050919050565b600060a08284031215612d0c57612d0b612a11565b5b612d1660a06129c5565b9050600082013567ffffffffffffffff811115612d3657612d35612a16565b5b612d4284828501612aa2565b6000830152506020612d5684828501612803565b602083015250604082013567ffffffffffffffff811115612d7a57612d79612a16565b5b612d8684828501612aa2565b6040830152506060612d9a848285016128b8565b606083015250608082013567ffffffffffffffff811115612dbe57612dbd612a16565b5b612dca84828501612aa2565b60808301525092915050565b6000612de9612de484612cca565b6129c5565b90508083825260208201905060208402830185811115612e0c57612e0b612a0c565b5b835b81811015612e5357803567ffffffffffffffff811115612e3157612e30612960565b5b808601612e3e8982612cf6565b85526020850194505050602081019050612e0e565b5050509392505050565b600082601f830112612e7257612e71612960565b5b8135612e82848260208601612dd6565b91505092915050565b600060208284031215612ea157612ea0612662565b5b600082013567ffffffffffffffff811115612ebf57612ebe612667565b5b612ecb84828501612e5d565b91505092915050565b612edd816127e2565b82525050565b600081519050919050565b600082825260208201905092915050565b6000819050602082019050919050565b600082825260208201905092915050565b6000612f2b82612727565b612f358185612f0f565b9350612f45818560208601612743565b612f4e81612776565b840191505092915050565b612f6281612865565b82525050565b612f71816127e2565b82525050565b600060a0830160008301518482036000860152612f948282612f20565b9150506020830151612fa96020860182612f59565b506040830151612fbc6040860182612f68565b506060830151612fcf6060860182612f68565b5060808301518482036080860152612fe78282612f20565b9150508091505092915050565b60006130008383612f77565b905092915050565b6000602082019050919050565b600061302082612ee3565b61302a8185612eee565b93508360208202850161303c85612eff565b8060005b8581101561307857848403895281516130598582612ff4565b945061306483613008565b925060208a01995050600181019050613040565b50829750879550505050505092915050565b600060408201905061309f6000830185612ed4565b81810360208301526130b18184613015565b90509392505050565b6000602082840312156130d0576130cf612662565b5b60006130de848285016128b8565b91505092915050565b60006020820190506130fc6000830184612ed4565b92915050565b61310b816126f1565b811461311657600080fd5b50565b60008135905061312881613102565b92915050565b6000806040838503121561314557613144612662565b5b6000613153858286016128b8565b925050602061316485828601613119565b9150509250929050565b600067ffffffffffffffff82111561318957613188612965565b5b61319282612776565b9050602081019050919050565b60006131b26131ad8461316e565b6129c5565b9050828152602081018484840111156131ce576131cd612a1b565b5b6131d9848285612a51565b509392505050565b600082601f8301126131f6576131f5612960565b5b813561320684826020860161319f565b91505092915050565b6000806000806080858703121561322957613228612662565b5b6000613237878288016128b8565b9450506020613248878288016128b8565b935050604061325987828801612803565b925050606085013567ffffffffffffffff81111561327a57613279612667565b5b613286878288016131e1565b91505092959194509250565b600081519050919050565b600082825260208201905092915050565b6000819050602082019050919050565b60006132ca8383612f68565b60208301905092915050565b6000602082019050919050565b60006132ee82613292565b6132f8818561329d565b9350613303836132ae565b8060005b8381101561333457815161331b88826132be565b9750613326836132d6565b925050600181019050613307565b5085935050505092915050565b6000602082019050818103600083015261335b81846132e3565b905092915050565b6000806040838503121561337a57613379612662565b5b6000613388858286016128b8565b9250506020613399858286016128b8565b9150509250929050565b7f4e487b7100000000000000000000000000000000000000000000000000000000600052602260045260246000fd5b600060028204905060018216806133ea57607f821691505b6020821081036133fd576133fc6133a3565b5b50919050565b7f4552433732313a20617070726f76656420717565727920666f72206e6f6e657860008201527f697374656e7420746f6b656e0000000000000000000000000000000000000000602082015250565b600061345f602c83612732565b915061346a82613403565b604082019050919050565b6000602082019050818103600083015261348e81613452565b9050919050565b7f4552433732313a20617070726f76616c20746f2063757272656e74206f776e6560008201527f7200000000000000000000000000000000000000000000000000000000000000602082015250565b60006134f1602183612732565b91506134fc82613495565b604082019050919050565b60006020820190508181036000830152613520816134e4565b9050919050565b7f4552433732313a20617070726f76652063616c6c6572206973206e6f74206f7760008201527f6e6572206e6f7220617070726f76656420666f7220616c6c0000000000000000602082015250565b6000613583603883612732565b915061358e82613527565b604082019050919050565b600060208201905081810360008301526135b281613576565b9050919050565b7f4163636573732064656e69656400000000000000000000000000000000000000600082015250565b60006135ef600d83612732565b91506135fa826135b9565b602082019050919050565b6000602082019050818103600083015261361e816135e2565b9050919050565b7f4552433732313a207472616e736665722063616c6c6572206973206e6f74206f60008201527f776e6572206e6f7220617070726f766564000000000000000000000000000000602082015250565b6000613681603183612732565b915061368c82613625565b604082019050919050565b600060208201905081810360008301526136b081613674565b9050919050565b8082525050565b600081519050919050565b600082825260208201905092915050565b6000819050602082019050919050565b600082825260208201905092915050565b600061370682612727565b61371081856136ea565b9350613720818560208601612743565b61372981612776565b840191505092915050565b7f4e487b7100000000000000000000000000000000000000000000000000000000600052602160045260246000fd5b6003811061377457613773613734565b5b50565b600081905061378582613763565b919050565b600061379582613777565b9050919050565b6137a58161378a565b82525050565b6137b4816127e2565b82525050565b600060a08301600083015184820360008601526137d782826136fb565b915050602083015184820360208601526137f182826136fb565b9150506040830151613806604086018261379c565b50606083015161381960608601826137ab565b50608083015161382c60808601826137ab565b508091505092915050565b600061384383836137ba565b905092915050565b6000602082019050919050565b6000613863826136be565b61386d81856136c9565b93508360208202850161387f856136da565b8060005b858110156138bb578484038952815161389c8582613837565b94506138a78361384b565b925060208a01995050600181019050613883565b50829750879550505050505092915050565b60006040820190506138e260008301856136b7565b81810360208301526138f48184613858565b90509392505050565b600081519050919050565b600082825260208201905092915050565b6000819050602082019050919050565b61393281612865565b82525050565b600060a083016000830151848203600086015261395582826136fb565b915050602083015161396a60208601826137ab565b506040830151848203604086015261398282826136fb565b91505060608301516139976060860182613929565b50608083015184820360808601526139af82826136fb565b9150508091505092915050565b60006139c88383613938565b905092915050565b6000602082019050919050565b60006139e8826138fd565b6139f28185613908565b935083602082028501613a0485613919565b8060005b85811015613a405784840389528151613a2185826139bc565b9450613a2c836139d0565b925060208a01995050600181019050613a08565b50829750879550505050505092915050565b6000604082019050613a6760008301856136b7565b8181036020830152613a7981846139dd565b90509392505050565b600081519050613a91816127ec565b92915050565b600060208284031215613aad57613aac612662565b5b6000613abb84828501613a82565b91505092915050565b7f4c6573732076616c756500000000000000000000000000000000000000000000600082015250565b6000613afa600a83612732565b9150613b0582613ac4565b602082019050919050565b60006020820190508181036000830152613b2981613aed565b9050919050565b7f4e487b7100000000000000000000000000000000000000000000000000000000600052603260045260246000fd5b7f4e487b7100000000000000000000000000000000000000000000000000000000600052601160045260246000fd5b6000613b99826127e2565b9150613ba4836127e2565b9250827fffffffffffffffffffffffffffffffffffffffffffffffffffffffffffffffff03821115613bd957613bd8613b5f565b5b828201905092915050565b6000602082019050613bf960008301846136b7565b92915050565b6000819050919050565b613c1281613bff565b8114613c1d57600080fd5b50565b600081519050613c2f81613c09565b92915050565b600060208284031215613c4b57613c4a612662565b5b6000613c5984828501613c20565b91505092915050565b7f4552433732313a206f776e657220717565727920666f72206e6f6e657869737460008201527f656e7420746f6b656e0000000000000000000000000000000000000000000000602082015250565b6000613cbe602983612732565b9150613cc982613c62565b604082019050919050565b60006020820190508181036000830152613ced81613cb1565b9050919050565b7f4552433732313a2062616c616e636520717565727920666f7220746865207a6560008201527f726f206164647265737300000000000000000000000000000000000000000000602082015250565b6000613d50602a83612732565b9150613d5b82613cf4565b604082019050919050565b60006020820190508181036000830152613d7f81613d43565b9050919050565b7f45524337323155524953746f726167653a2055524920717565727920666f722060008201527f6e6f6e6578697374656e7420746f6b656e000000000000000000000000000000602082015250565b6000613de2603183612732565b9150613ded82613d86565b604082019050919050565b60006020820190508181036000830152613e1181613dd5565b9050919050565b600081905092915050565b6000613e2e82612727565b613e388185613e18565b9350613e48818560208601612743565b80840191505092915050565b6000613e608285613e23565b9150613e6c8284613e23565b91508190509392505050565b7f4552433732313a206f70657261746f7220717565727920666f72206e6f6e657860008201527f697374656e7420746f6b656e0000000000000000000000000000000000000000602082015250565b6000613ed4602c83612732565b9150613edf82613e78565b604082019050919050565b60006020820190508181036000830152613f0381613ec7565b9050919050565b7f4552433732313a207472616e736665722066726f6d20696e636f72726563742060008201527f6f776e6572000000000000000000000000000000000000000000000000000000602082015250565b6000613f66602583612732565b9150613f7182613f0a565b604082019050919050565b60006020820190508181036000830152613f9581613f59565b9050919050565b7f4552433732313a207472616e7366657220746f20746865207a65726f2061646460008201527f7265737300000000000000000000000000000000000000000000000000000000602082015250565b6000613ff8602483612732565b915061400382613f9c565b604082019050919050565b6000602082019050818103600083015261402781613feb565b9050919050565b6000614039826127e2565b9150614044836127e2565b92508282101561405757614056613b5f565b5b828203905092915050565b7f4552433732313a206d696e7420746f20746865207a65726f2061646472657373600082015250565b6000614098602083612732565b91506140a382614062565b602082019050919050565b600060208201905081810360008301526140c78161408b565b9050919050565b7f4552433732313a20746f6b656e20616c7265616479206d696e74656400000000600082015250565b6000614104601c83612732565b915061410f826140ce565b602082019050919050565b60006020820190508181036000830152614133816140f7565b9050919050565b7f45524337323155524953746f726167653a2055524920736574206f66206e6f6e60008201527f6578697374656e7420746f6b656e000000000000000000000000000000000000602082015250565b6000614196602e83612732565b91506141a18261413a565b604082019050919050565b600060208201905081810360008301526141c581614189565b9050919050565b7f4552433732313a20617070726f766520746f2063616c6c657200000000000000600082015250565b6000614202601983612732565b915061420d826141cc565b602082019050919050565b60006020820190508181036000830152614231816141f5565b9050919050565b7f4552433732313a207472616e7366657220746f206e6f6e20455243373231526560008201527f63656976657220696d706c656d656e7465720000000000000000000000000000602082015250565b6000614294603283612732565b915061429f82614238565b604082019050919050565b600060208201905081810360008301526142c381614287565b9050919050565b7f4552433732314d657461646174613a2055524920717565727920666f72206e6f60008201527f6e6578697374656e7420746f6b656e0000000000000000000000000000000000602082015250565b6000614326602f83612732565b9150614331826142ca565b604082019050919050565b6000602082019050818103600083015261435581614319565b9050919050565b8082525050565b61436c81612865565b82525050565b61437b816127e2565b82525050565b6000608082019050614396600083018761435c565b6143a36020830186614363565b6143b06040830185614372565b6143bd6060830184614372565b95945050505050565b600081519050919050565b600082825260208201905092915050565b60006143ed826143c6565b6143f781856143d1565b9350614407818560208601612743565b61441081612776565b840191505092915050565b60006080820190506144306000830187612877565b61443d6020830186612877565b61444a6040830185612ed4565b818103606083015261445c81846143e2565b905095945050505050565b60008151905061447681612698565b92915050565b60006020828403121561449257614491612662565b5b60006144a084828501614467565b91505092915050565b60006144b4826127e2565b91507fffffffffffffffffffffffffffffffffffffffffffffffffffffffffffffffff82036144e6576144e5613b5f565b5b600182019050919050565b7f4e487b7100000000000000000000000000000000000000000000000000000000600052601260045260246000fd5b600061452b826127e2565b9150614536836127e2565b925082614546576145456144f1565b5b828204905092915050565b600061455c826127e2565b9150614567836127e2565b925082614577576145766144f1565b5b82820690509291505056fea264697066735822122065cdf16b109f58722bdff5110edbc38d915013320b73b267c7313dc841a2748664736f6c634300080d0033a26469706673582212200d9ed992543db4a3b5e86a5c49303f8ea25e39a5b76e3463e061e4858f3aab2d64736f6c634300080d0033",
  "immutableReferences": {},
  "source": "// SPDX-License-Identifier: GPL-3.0\npragma solidity >=0.6.0 <0.9.0;\n\nimport \"./Event.sol\";\nimport \"./Administrator.sol\";\nimport \"./BlocTick.sol\";\n\ncontract EventFactory is Administrator {\n    Event[] public _events;\n    uint256 platform_percent = 10;\n    event NewEvent(address contractAddress);\n\n    constructor() {\n        _owner = msg.sender;\n    }\n\n    function allEvents() external view returns (Event[] memory) {\n        return _events;\n    }\n\n    function addEvent(\n        string memory name,\n        string memory symbol,\n        BlocTick.Ticket[] memory tickets\n    ) external {\n        Event e = new Event(name, symbol, msg.sender);\n        e.storeTickets(tickets, msg.sender);\n        _events.push(e);\n        emit NewEvent(address(e));\n    }\n\n    function setPlatformPercent(uint256 fee) external onlyAdministrator {\n        platform_percent = fee;\n    }\n\n    function mintTickets(\n        address eventContract,\n        BlocTick.TicketPurchase[] memory purchases\n    ) external payable {\n        Event e = Event(eventContract);\n        uint256 creator_fee = msg.value - ((platform_percent / 100) * msg.value);\n        e.purchaseTickets{value:creator_fee}(purchases);\n        payable(_owner).transfer(msg.value - creator_fee);\n    }\n}\n",
  "sourcePath": "/Users/devjosh/Documents/Build/Blocverse/BlocTicks/blocticks-contracts/backend/contracts/EventFactory.sol",
  "compiler": {
    "name": "solc",
    "version": "0.8.13+commit.abaa5c0e.Emscripten.clang"
  },
  "schemaVersion": "3.4.7",
  "updatedAt": "2022-04-30T08:38:51.433Z",
  "networkType": "ethereum",
  "devdoc": {
    "kind": "dev",
    "methods": {},
    "version": 1
  },
  "userdoc": {
    "kind": "user",
    "methods": {},
    "version": 1
  }
}