{
  "contractName": "EventFactory",
  "abi": [
    {
      "anonymous": false,
      "inputs": [
        {
          "indexed": false,
          "internalType": "address",
          "name": "contractAddress",
          "type": "address"
        }
      ],
      "name": "NewEvent",
      "type": "event"
    },
    {
      "inputs": [
        {
          "internalType": "uint256",
          "name": "",
          "type": "uint256"
        }
      ],
      "name": "_events",
      "outputs": [
        {
          "internalType": "contract Event",
          "name": "",
          "type": "address"
        }
      ],
      "stateMutability": "view",
      "type": "function",
      "constant": true
    },
    {
      "inputs": [],
      "name": "_owner",
      "outputs": [
        {
          "internalType": "address",
          "name": "",
          "type": "address"
        }
      ],
      "stateMutability": "view",
      "type": "function",
      "constant": true
    },
    {
      "inputs": [],
      "name": "allEvents",
      "outputs": [
        {
          "internalType": "contract Event[]",
          "name": "",
          "type": "address[]"
        }
      ],
      "stateMutability": "view",
      "type": "function",
      "constant": true
    },
    {
      "inputs": [
        {
          "internalType": "string",
          "name": "name",
          "type": "string"
        },
        {
          "internalType": "string",
          "name": "symbol",
          "type": "string"
        },
        {
          "components": [
            {
              "internalType": "string",
              "name": "name",
              "type": "string"
            },
            {
              "internalType": "string",
              "name": "description",
              "type": "string"
            },
            {
              "internalType": "enum BlocTick.TicketType",
              "name": "ticket_type",
              "type": "uint8"
            },
            {
              "internalType": "uint256",
              "name": "quantity_available",
              "type": "uint256"
            },
            {
              "internalType": "uint256",
              "name": "price",
              "type": "uint256"
            }
          ],
          "internalType": "struct BlocTick.Ticket[]",
          "name": "tickets",
          "type": "tuple[]"
        }
      ],
      "name": "addEvent",
      "outputs": [],
      "stateMutability": "nonpayable",
      "type": "function"
    },
    {
      "inputs": [
        {
          "internalType": "uint256",
          "name": "fee",
          "type": "uint256"
        }
      ],
      "name": "setPlatformPercent",
      "outputs": [],
      "stateMutability": "nonpayable",
      "type": "function"
    },
    {
      "inputs": [
        {
          "internalType": "address",
          "name": "eventContract",
          "type": "address"
        },
        {
          "components": [
            {
              "internalType": "string",
              "name": "purchaseId",
              "type": "string"
            },
            {
              "internalType": "uint256",
              "name": "ticketId",
              "type": "uint256"
            },
            {
              "internalType": "string",
              "name": "tokenURI",
              "type": "string"
            },
            {
              "internalType": "address",
              "name": "buyer",
              "type": "address"
            },
            {
              "internalType": "string",
              "name": "cost",
              "type": "string"
            }
          ],
          "internalType": "struct BlocTick.TicketPurchase[]",
          "name": "purchases",
          "type": "tuple[]"
        }
      ],
      "name": "mintTickets",
      "outputs": [],
      "stateMutability": "payable",
      "type": "function",
      "payable": true
    }
  ],
  "bytecode": "0x6080604052600a60025534801561001557600080fd5b50615fc2806100256000396000f3fe6080604052600436106200005c5760003560e01c806314d7c375146200006157806380f7668f146200009157806396f229ca14620000b1578063b2bdfa7b14620000df578063f040d0f2146200010f578063ff001b321462000153575b600080fd5b3480156200006e57600080fd5b506200007962000181565b60405162000088919062000784565b60405180910390f35b620000af6004803603810190620000a9919062000b9c565b62000211565b005b348015620000be57600080fd5b50620000dd6004803603810190620000d7919062000dfa565b620003db565b005b348015620000ec57600080fd5b50620000f76200052f565b60405162000106919062000ec4565b60405180910390f35b3480156200011c57600080fd5b506200013b600480360381019062000135919062000ee1565b62000553565b6040516200014a919062000f24565b60405180910390f35b3480156200016057600080fd5b506200017f600480360381019062000179919062000ee1565b62000593565b005b606060018054806020026020016040519081016040528092919081815260200182805480156200020757602002820191906000526020600020905b8160009054906101000a900473ffffffffffffffffffffffffffffffffffffffff1673ffffffffffffffffffffffffffffffffffffffff1681526020019060010190808311620001bc575b5050505050905090565b60008290508073ffffffffffffffffffffffffffffffffffffffff16634b2e5dca836040518263ffffffff1660e01b815260040162000251919062001154565b600060405180830381600087803b1580156200026c57600080fd5b505af115801562000281573d6000803e3d6000fd5b505050506000346064600254620002999190620011d6565b620002a591906200120e565b90508173ffffffffffffffffffffffffffffffffffffffff1663b2bdfa7b6040518163ffffffff1660e01b8152600401602060405180830381865afa158015620002f3573d6000803e3d6000fd5b505050506040513d601f19601f8201168201806040525081019062000319919062001286565b73ffffffffffffffffffffffffffffffffffffffff166108fc8234620003409190620012b8565b9081150290604051600060405180830381858888f193505050501580156200036c573d6000803e3d6000fd5b5060008054906101000a900473ffffffffffffffffffffffffffffffffffffffff1673ffffffffffffffffffffffffffffffffffffffff166108fc829081150290604051600060405180830381858888f19350505050158015620003d4573d6000803e3d6000fd5b5050505050565b6000838333604051620003ee906200062e565b620003fc9392919062001345565b604051809103906000f08015801562000419573d6000803e3d6000fd5b5090508073ffffffffffffffffffffffffffffffffffffffff16633d181c7e83336040518363ffffffff1660e01b81526004016200045992919062001567565b600060405180830381600087803b1580156200047457600080fd5b505af115801562000489573d6000803e3d6000fd5b505050506001819080600181540180825580915050600190039060005260206000200160009091909190916101000a81548173ffffffffffffffffffffffffffffffffffffffff021916908373ffffffffffffffffffffffffffffffffffffffff1602179055507f0227e3b2fb10ea87b3ce0fe9b23554ad992c666dd128c13c0a6ef2d73dd80ba08160405162000521919062000ec4565b60405180910390a150505050565b60008054906101000a900473ffffffffffffffffffffffffffffffffffffffff1681565b600181815481106200056457600080fd5b906000526020600020016000915054906101000a900473ffffffffffffffffffffffffffffffffffffffff1681565b60008054906101000a900473ffffffffffffffffffffffffffffffffffffffff1673ffffffffffffffffffffffffffffffffffffffff163373ffffffffffffffffffffffffffffffffffffffff161462000624576040517f08c379a00000000000000000000000000000000000000000000000000000000081526004016200061b90620015eb565b60405180910390fd5b8060028190555050565b61497f806200160e83390190565b600081519050919050565b600082825260208201905092915050565b6000819050602082019050919050565b600073ffffffffffffffffffffffffffffffffffffffff82169050919050565b6000819050919050565b6000620006b3620006ad620006a78462000668565b62000688565b62000668565b9050919050565b6000620006c78262000692565b9050919050565b6000620006db82620006ba565b9050919050565b620006ed81620006ce565b82525050565b6000620007018383620006e2565b60208301905092915050565b6000602082019050919050565b600062000727826200063c565b62000733818562000647565b9350620007408362000658565b8060005b83811015620007775781516200075b8882620006f3565b975062000768836200070d565b92505060018101905062000744565b5085935050505092915050565b60006020820190508181036000830152620007a081846200071a565b905092915050565b6000604051905090565b600080fd5b600080fd5b6000620007c98262000668565b9050919050565b620007db81620007bc565b8114620007e757600080fd5b50565b600081359050620007fb81620007d0565b92915050565b600080fd5b6000601f19601f8301169050919050565b7f4e487b7100000000000000000000000000000000000000000000000000000000600052604160045260246000fd5b620008518262000806565b810181811067ffffffffffffffff8211171562000873576200087262000817565b5b80604052505050565b600062000888620007a8565b905062000896828262000846565b919050565b600067ffffffffffffffff821115620008b957620008b862000817565b5b602082029050602081019050919050565b600080fd5b600080fd5b600080fd5b600080fd5b600067ffffffffffffffff821115620008fc57620008fb62000817565b5b620009078262000806565b9050602081019050919050565b82818337600083830152505050565b60006200093a6200093484620008de565b6200087c565b905082815260208101848484011115620009595762000958620008d9565b5b6200096684828562000914565b509392505050565b600082601f83011262000986576200098562000801565b5b81356200099884826020860162000923565b91505092915050565b6000819050919050565b620009b681620009a1565b8114620009c257600080fd5b50565b600081359050620009d681620009ab565b92915050565b600060a08284031215620009f557620009f4620008cf565b5b62000a0160a06200087c565b9050600082013567ffffffffffffffff81111562000a245762000a23620008d4565b5b62000a32848285016200096e565b600083015250602062000a4884828501620009c5565b602083015250604082013567ffffffffffffffff81111562000a6f5762000a6e620008d4565b5b62000a7d848285016200096e565b604083015250606062000a9384828501620007ea565b606083015250608082013567ffffffffffffffff81111562000aba5762000ab9620008d4565b5b62000ac8848285016200096e565b60808301525092915050565b600062000aeb62000ae5846200089b565b6200087c565b9050808382526020820190506020840283018581111562000b115762000b10620008ca565b5b835b8181101562000b5f57803567ffffffffffffffff81111562000b3a5762000b3962000801565b5b80860162000b498982620009dc565b8552602085019450505060208101905062000b13565b5050509392505050565b600082601f83011262000b815762000b8062000801565b5b813562000b9384826020860162000ad4565b91505092915050565b6000806040838503121562000bb65762000bb5620007b2565b5b600062000bc685828601620007ea565b925050602083013567ffffffffffffffff81111562000bea5762000be9620007b7565b5b62000bf88582860162000b69565b9150509250929050565b600067ffffffffffffffff82111562000c205762000c1f62000817565b5b602082029050602081019050919050565b6003811062000c3f57600080fd5b50565b60008135905062000c538162000c31565b92915050565b600060a0828403121562000c725762000c71620008cf565b5b62000c7e60a06200087c565b9050600082013567ffffffffffffffff81111562000ca15762000ca0620008d4565b5b62000caf848285016200096e565b600083015250602082013567ffffffffffffffff81111562000cd65762000cd5620008d4565b5b62000ce4848285016200096e565b602083015250604062000cfa8482850162000c42565b604083015250606062000d1084828501620009c5565b606083015250608062000d2684828501620009c5565b60808301525092915050565b600062000d4962000d438462000c02565b6200087c565b9050808382526020820190506020840283018581111562000d6f5762000d6e620008ca565b5b835b8181101562000dbd57803567ffffffffffffffff81111562000d985762000d9762000801565b5b80860162000da7898262000c59565b8552602085019450505060208101905062000d71565b5050509392505050565b600082601f83011262000ddf5762000dde62000801565b5b813562000df184826020860162000d32565b91505092915050565b60008060006060848603121562000e165762000e15620007b2565b5b600084013567ffffffffffffffff81111562000e375762000e36620007b7565b5b62000e45868287016200096e565b935050602084013567ffffffffffffffff81111562000e695762000e68620007b7565b5b62000e77868287016200096e565b925050604084013567ffffffffffffffff81111562000e9b5762000e9a620007b7565b5b62000ea98682870162000dc7565b9150509250925092565b62000ebe81620007bc565b82525050565b600060208201905062000edb600083018462000eb3565b92915050565b60006020828403121562000efa5762000ef9620007b2565b5b600062000f0a84828501620009c5565b91505092915050565b62000f1e81620006ce565b82525050565b600060208201905062000f3b600083018462000f13565b92915050565b600081519050919050565b600082825260208201905092915050565b6000819050602082019050919050565b600081519050919050565b600082825260208201905092915050565b60005b8381101562000fa957808201518184015260208101905062000f8c565b8381111562000fb9576000848401525b50505050565b600062000fcc8262000f6d565b62000fd8818562000f78565b935062000fea81856020860162000f89565b62000ff58162000806565b840191505092915050565b6200100b81620009a1565b82525050565b6200101c81620007bc565b82525050565b600060a083016000830151848203600086015262001041828262000fbf565b915050602083015162001058602086018262001000565b506040830151848203604086015262001072828262000fbf565b915050606083015162001089606086018262001011565b5060808301518482036080860152620010a3828262000fbf565b9150508091505092915050565b6000620010be838362001022565b905092915050565b6000602082019050919050565b6000620010e08262000f41565b620010ec818562000f4c565b935083602082028501620011008562000f5d565b8060005b85811015620011425784840389528151620011208582620010b0565b94506200112d83620010c6565b925060208a0199505060018101905062001104565b50829750879550505050505092915050565b60006020820190508181036000830152620011708184620010d3565b905092915050565b7f4e487b7100000000000000000000000000000000000000000000000000000000600052601260045260246000fd5b7f4e487b7100000000000000000000000000000000000000000000000000000000600052601160045260246000fd5b6000620011e382620009a1565b9150620011f083620009a1565b92508262001203576200120262001178565b5b828204905092915050565b60006200121b82620009a1565b91506200122883620009a1565b9250817fffffffffffffffffffffffffffffffffffffffffffffffffffffffffffffffff0483118215151615620012645762001263620011a7565b5b828202905092915050565b6000815190506200128081620007d0565b92915050565b6000602082840312156200129f576200129e620007b2565b5b6000620012af848285016200126f565b91505092915050565b6000620012c582620009a1565b9150620012d283620009a1565b925082821015620012e857620012e7620011a7565b5b828203905092915050565b600082825260208201905092915050565b6000620013118262000f6d565b6200131d8185620012f3565b93506200132f81856020860162000f89565b6200133a8162000806565b840191505092915050565b6000606082019050818103600083015262001361818662001304565b9050818103602083015262001377818562001304565b905062001388604083018462000eb3565b949350505050565b600081519050919050565b600082825260208201905092915050565b6000819050602082019050919050565b7f4e487b7100000000000000000000000000000000000000000000000000000000600052602160045260246000fd5b60038110620013ff57620013fe620013bc565b5b50565b60008190506200141282620013eb565b919050565b6000620014248262001402565b9050919050565b620014368162001417565b82525050565b600060a08301600083015184820360008601526200145b828262000fbf565b9150506020830151848203602086015262001477828262000fbf565b91505060408301516200148e60408601826200142b565b506060830151620014a3606086018262001000565b506080830151620014b8608086018262001000565b508091505092915050565b6000620014d183836200143c565b905092915050565b6000602082019050919050565b6000620014f38262001390565b620014ff81856200139b565b9350836020820285016200151385620013ac565b8060005b85811015620015555784840389528151620015338582620014c3565b94506200154083620014d9565b925060208a0199505060018101905062001517565b50829750879550505050505092915050565b60006040820190508181036000830152620015838185620014e6565b905062001594602083018462000eb3565b9392505050565b7f4163636573732072657374726963746564210000000000000000000000000000600082015250565b6000620015d3601283620012f3565b9150620015e0826200159b565b602082019050919050565b600060208201905081810360008301526200160681620015c4565b905091905056fe60806040526001600a60146101000a81548160ff0219169083151502179055503480156200002c57600080fd5b506040516200497f3803806200497f8339818101604052810190620000529190620003c5565b828281600090805190602001906200006c92919062000113565b5080600190805190602001906200008592919062000113565b50505033600c60006101000a81548173ffffffffffffffffffffffffffffffffffffffff021916908373ffffffffffffffffffffffffffffffffffffffff16021790555080600a60006101000a81548173ffffffffffffffffffffffffffffffffffffffff021916908373ffffffffffffffffffffffffffffffffffffffff160217905550505050620004c3565b82805462000121906200048e565b90600052602060002090601f01602090048101928262000145576000855562000191565b82601f106200016057805160ff191683800117855562000191565b8280016001018555821562000191579182015b828111156200019057825182559160200191906001019062000173565b5b509050620001a09190620001a4565b5090565b5b80821115620001bf576000816000905550600101620001a5565b5090565b6000604051905090565b600080fd5b600080fd5b600080fd5b600080fd5b6000601f19601f8301169050919050565b7f4e487b7100000000000000000000000000000000000000000000000000000000600052604160045260246000fd5b6200022c82620001e1565b810181811067ffffffffffffffff821117156200024e576200024d620001f2565b5b80604052505050565b600062000263620001c3565b905062000271828262000221565b919050565b600067ffffffffffffffff821115620002945762000293620001f2565b5b6200029f82620001e1565b9050602081019050919050565b60005b83811015620002cc578082015181840152602081019050620002af565b83811115620002dc576000848401525b50505050565b6000620002f9620002f38462000276565b62000257565b905082815260208101848484011115620003185762000317620001dc565b5b62000325848285620002ac565b509392505050565b600082601f830112620003455762000344620001d7565b5b815162000357848260208601620002e2565b91505092915050565b600073ffffffffffffffffffffffffffffffffffffffff82169050919050565b60006200038d8262000360565b9050919050565b6200039f8162000380565b8114620003ab57600080fd5b50565b600081519050620003bf8162000394565b92915050565b600080600060608486031215620003e157620003e0620001cd565b5b600084015167ffffffffffffffff811115620004025762000401620001d2565b5b62000410868287016200032d565b935050602084015167ffffffffffffffff811115620004345762000433620001d2565b5b62000442868287016200032d565b92505060406200045586828701620003ae565b9150509250925092565b7f4e487b7100000000000000000000000000000000000000000000000000000000600052602260045260246000fd5b60006002820490506001821680620004a757607f821691505b602082108103620004bd57620004bc6200045f565b5b50919050565b6144ac80620004d36000396000f3fe6080604052600436106101355760003560e01c80635a9b0b89116100ab578063b2bdfa7b1161006f578063b2bdfa7b1461042a578063b88d4fde14610455578063c87b56dd1461047e578063e985e9c5146104bb578063eb8d2444146104f8578063ee55efee1461052357610135565b80635a9b0b89146103305780636352211e1461035c57806370a082311461039957806395d89b41146103d6578063a22cb4651461040157610135565b8063150b7a02116100fd578063150b7a0214610245578063167ff46f1461028257806323b872dd146102995780633d181c7e146102c257806342842e0e146102eb5780634b2e5dca1461031457610135565b806301ffc9a71461013a57806306fdde0314610177578063081812fc146101a2578063095ea7b3146101df5780630ad182bc14610208575b600080fd5b34801561014657600080fd5b50610161600480360381019061015c919061263b565b61053a565b60405161016e9190612683565b60405180910390f35b34801561018357600080fd5b5061018c61061c565b6040516101999190612737565b60405180910390f35b3480156101ae57600080fd5b506101c960048036038101906101c4919061278f565b6106ae565b6040516101d691906127fd565b60405180910390f35b3480156101eb57600080fd5b5061020660048036038101906102019190612844565b610733565b005b34801561021457600080fd5b5061022f600480360381019061022a9190612884565b61084a565b60405161023c9190612a58565b60405180910390f35b34801561025157600080fd5b5061026c60048036038101906102679190612baf565b610ab5565b6040516102799190612c41565b60405180910390f35b34801561028e57600080fd5b50610297610ac9565b005b3480156102a557600080fd5b506102c060048036038101906102bb9190612c5c565b610b78565b005b3480156102ce57600080fd5b506102e960048036038101906102e49190612f29565b610bd8565b005b3480156102f757600080fd5b50610312600480360381019061030d9190612c5c565b610d6a565b005b61032e60048036038101906103299190613146565b610d8a565b005b34801561033c57600080fd5b50610345611096565b60405161035392919061319e565b60405180910390f35b34801561036857600080fd5b50610383600480360381019061037e919061278f565b611307565b60405161039091906127fd565b60405180910390f35b3480156103a557600080fd5b506103c060048036038101906103bb9190612884565b6113b8565b6040516103cd91906131ce565b60405180910390f35b3480156103e257600080fd5b506103eb61146f565b6040516103f89190612737565b60405180910390f35b34801561040d57600080fd5b5061042860048036038101906104239190613215565b611501565b005b34801561043657600080fd5b5061043f611517565b60405161044c91906127fd565b60405180910390f35b34801561046157600080fd5b5061047c60048036038101906104779190612baf565b61153d565b005b34801561048a57600080fd5b506104a560048036038101906104a0919061278f565b61159f565b6040516104b29190612737565b60405180910390f35b3480156104c757600080fd5b506104e260048036038101906104dd9190613255565b6116f0565b6040516104ef9190612683565b60405180910390f35b34801561050457600080fd5b5061050d611784565b60405161051a9190612683565b60405180910390f35b34801561052f57600080fd5b50610538611797565b005b60007f80ac58cd000000000000000000000000000000000000000000000000000000007bffffffffffffffffffffffffffffffffffffffffffffffffffffffff1916827bffffffffffffffffffffffffffffffffffffffffffffffffffffffff1916148061060557507f5b5e139f000000000000000000000000000000000000000000000000000000007bffffffffffffffffffffffffffffffffffffffffffffffffffffffff1916827bffffffffffffffffffffffffffffffffffffffffffffffffffffffff1916145b80610615575061061482611846565b5b9050919050565b60606000805461062b906132c4565b80601f0160208091040260200160405190810160405280929190818152602001828054610657906132c4565b80156106a45780601f10610679576101008083540402835291602001916106a4565b820191906000526020600020905b81548152906001019060200180831161068757829003601f168201915b5050505050905090565b60006106b9826118b0565b6106f8576040517f08c379a00000000000000000000000000000000000000000000000000000000081526004016106ef90613367565b60405180910390fd5b6004600083815260200190815260200160002060009054906101000a900473ffffffffffffffffffffffffffffffffffffffff169050919050565b600061073e82611307565b90508073ffffffffffffffffffffffffffffffffffffffff168373ffffffffffffffffffffffffffffffffffffffff16036107ae576040517f08c379a00000000000000000000000000000000000000000000000000000000081526004016107a5906133f9565b60405180910390fd5b8073ffffffffffffffffffffffffffffffffffffffff166107cd61191c565b73ffffffffffffffffffffffffffffffffffffffff1614806107fc57506107fb816107f661191c565b6116f0565b5b61083b576040517f08c379a00000000000000000000000000000000000000000000000000000000081526004016108329061348b565b60405180910390fd5b6108458383611924565b505050565b6060600080610858846113b8565b036108635750610ab0565b60005b61087060076119dd565b8111610aad5760006008600101828154811061088f5761088e6134ab565b5b90600052602060002090600502016040518060a00160405290816000820180546108b8906132c4565b80601f01602080910402602001604051908101604052809291908181526020018280546108e4906132c4565b80156109315780601f1061090657610100808354040283529160200191610931565b820191906000526020600020905b81548152906001019060200180831161091457829003601f168201915b505050505081526020016001820160009054906101000a900473ffffffffffffffffffffffffffffffffffffffff1673ffffffffffffffffffffffffffffffffffffffff1673ffffffffffffffffffffffffffffffffffffffff16815260200160028201548152602001600382015481526020016004820180546109b4906132c4565b80601f01602080910402602001604051908101604052809291908181526020018280546109e0906132c4565b8015610a2d5780601f10610a0257610100808354040283529160200191610a2d565b820191906000526020600020905b815481529060010190602001808311610a1057829003601f168201915b50505050508152505090508473ffffffffffffffffffffffffffffffffffffffff16610a5c8260400151611307565b73ffffffffffffffffffffffffffffffffffffffff1603610a9f5780848481518110610a8b57610a8a6134ab565b5b602002602001018190525082806001019350505b818060010192505050610866565b50505b919050565b600063150b7a0260e01b9050949350505050565b33600a60009054906101000a900473ffffffffffffffffffffffffffffffffffffffff1673ffffffffffffffffffffffffffffffffffffffff168173ffffffffffffffffffffffffffffffffffffffff1614610b5a576040517f08c379a0000000000000000000000000000000000000000000000000000000008152600401610b5190613526565b60405180910390fd5b6001600a60146101000a81548160ff02191690831515021790555050565b610b89610b8361191c565b826119eb565b610bc8576040517f08c379a0000000000000000000000000000000000000000000000000000000008152600401610bbf906135b8565b60405180910390fd5b610bd3838383611ac9565b505050565b600c60009054906101000a900473ffffffffffffffffffffffffffffffffffffffff1673ffffffffffffffffffffffffffffffffffffffff163373ffffffffffffffffffffffffffffffffffffffff1614610c68576040517f08c379a0000000000000000000000000000000000000000000000000000000008152600401610c5f90613624565b60405180910390fd5b80600a60009054906101000a900473ffffffffffffffffffffffffffffffffffffffff1673ffffffffffffffffffffffffffffffffffffffff168173ffffffffffffffffffffffffffffffffffffffff1614610cf9576040517f08c379a0000000000000000000000000000000000000000000000000000000008152600401610cf090613526565b60405180910390fd5b600873__TicketManager_________________________63a2a93cbf9091856040518363ffffffff1660e01b8152600401610d3592919061385a565b60006040518083038186803b158015610d4d57600080fd5b505af4158015610d61573d6000803e3d6000fd5b50505050505050565b610d858383836040518060200160405280600081525061153d565b505050565b600c60009054906101000a900473ffffffffffffffffffffffffffffffffffffffff1673ffffffffffffffffffffffffffffffffffffffff163373ffffffffffffffffffffffffffffffffffffffff1614610e1a576040517f08c379a0000000000000000000000000000000000000000000000000000000008152600401610e1190613624565b60405180910390fd5b600a60149054906101000a900460ff16610e3357600080fd5b600873__TicketManager_________________________6341023a1e9091836040518363ffffffff1660e01b8152600401610e6f9291906139df565b602060405180830381865af4158015610e8c573d6000803e3d6000fd5b505050506040513d601f19601f82011682018060405250810190610eb09190613a24565b341015610ef2576040517f08c379a0000000000000000000000000000000000000000000000000000000008152600401610ee990613a9d565b60405180910390fd5b60005b8151811015611079576000828281518110610f1357610f126134ab565b5b602002602001015190506000610f2960076119dd565b9050610f353082611d2f565b610f3f6007611f08565b610f4d818360400151611f1e565b610f58303383611ac9565b60086001016040518060a0016040528084600001518152602001846060015173ffffffffffffffffffffffffffffffffffffffff16815260200183815260200184602001518152602001846080015181525090806001815401808255809150506001900390600052602060002090600502016000909190919091506000820151816000019080519060200190610fef92919061252c565b5060208201518160010160006101000a81548173ffffffffffffffffffffffffffffffffffffffff021916908373ffffffffffffffffffffffffffffffffffffffff1602179055506040820151816002015560608201518160030155608082015181600401908051906020019061106792919061252c565b50505082806001019350505050610ef5565b5034600b600082825461108c9190613aec565b9250508190555050565b60006060600b54600873__TicketManager_________________________63957f0c8c90916040518263ffffffff1660e01b81526004016110d79190613b42565b602060405180830381865af41580156110f4573d6000803e3d6000fd5b505050506040513d601f19601f820116820180604052508101906111189190613b93565b80805480602002602001604051908101604052809291908181526020016000905b828210156112f957838290600052602060002090600502016040518060a001604052908160008201805461116c906132c4565b80601f0160208091040260200160405190810160405280929190818152602001828054611198906132c4565b80156111e55780601f106111ba576101008083540402835291602001916111e5565b820191906000526020600020905b8154815290600101906020018083116111c857829003601f168201915b505050505081526020016001820160009054906101000a900473ffffffffffffffffffffffffffffffffffffffff1673ffffffffffffffffffffffffffffffffffffffff1673ffffffffffffffffffffffffffffffffffffffff1681526020016002820154815260200160038201548152602001600482018054611268906132c4565b80601f0160208091040260200160405190810160405280929190818152602001828054611294906132c4565b80156112e15780601f106112b6576101008083540402835291602001916112e1565b820191906000526020600020905b8154815290600101906020018083116112c457829003601f168201915b50505050508152505081526020019060010190611139565b505050509050915091509091565b6000806002600084815260200190815260200160002060009054906101000a900473ffffffffffffffffffffffffffffffffffffffff169050600073ffffffffffffffffffffffffffffffffffffffff168173ffffffffffffffffffffffffffffffffffffffff16036113af576040517f08c379a00000000000000000000000000000000000000000000000000000000081526004016113a690613c32565b60405180910390fd5b80915050919050565b60008073ffffffffffffffffffffffffffffffffffffffff168273ffffffffffffffffffffffffffffffffffffffff1603611428576040517f08c379a000000000000000000000000000000000000000000000000000000000815260040161141f90613cc4565b60405180910390fd5b600360008373ffffffffffffffffffffffffffffffffffffffff1673ffffffffffffffffffffffffffffffffffffffff168152602001908152602001600020549050919050565b60606001805461147e906132c4565b80601f01602080910402602001604051908101604052809291908181526020018280546114aa906132c4565b80156114f75780601f106114cc576101008083540402835291602001916114f7565b820191906000526020600020905b8154815290600101906020018083116114da57829003601f168201915b5050505050905090565b61151361150c61191c565b8383611f92565b5050565b600a60009054906101000a900473ffffffffffffffffffffffffffffffffffffffff1681565b61154e61154861191c565b836119eb565b61158d576040517f08c379a0000000000000000000000000000000000000000000000000000000008152600401611584906135b8565b60405180910390fd5b611599848484846120fe565b50505050565b60606115aa826118b0565b6115e9576040517f08c379a00000000000000000000000000000000000000000000000000000000081526004016115e090613d56565b60405180910390fd5b6000600660008481526020019081526020016000208054611609906132c4565b80601f0160208091040260200160405190810160405280929190818152602001828054611635906132c4565b80156116825780601f1061165757610100808354040283529160200191611682565b820191906000526020600020905b81548152906001019060200180831161166557829003601f168201915b50505050509050600061169361215a565b905060008151036116a85781925050506116eb565b6000825111156116dd5780826040516020016116c5929190613db2565b604051602081830303815290604052925050506116eb565b6116e684612171565b925050505b919050565b6000600560008473ffffffffffffffffffffffffffffffffffffffff1673ffffffffffffffffffffffffffffffffffffffff16815260200190815260200160002060008373ffffffffffffffffffffffffffffffffffffffff1673ffffffffffffffffffffffffffffffffffffffff16815260200190815260200160002060009054906101000a900460ff16905092915050565b600a60149054906101000a900460ff1681565b33600a60009054906101000a900473ffffffffffffffffffffffffffffffffffffffff1673ffffffffffffffffffffffffffffffffffffffff168173ffffffffffffffffffffffffffffffffffffffff1614611828576040517f08c379a000000000000000000000000000000000000000000000000000000000815260040161181f90613526565b60405180910390fd5b6000600a60146101000a81548160ff02191690831515021790555050565b60007f01ffc9a7000000000000000000000000000000000000000000000000000000007bffffffffffffffffffffffffffffffffffffffffffffffffffffffff1916827bffffffffffffffffffffffffffffffffffffffffffffffffffffffff1916149050919050565b60008073ffffffffffffffffffffffffffffffffffffffff166002600084815260200190815260200160002060009054906101000a900473ffffffffffffffffffffffffffffffffffffffff1673ffffffffffffffffffffffffffffffffffffffff1614159050919050565b600033905090565b816004600083815260200190815260200160002060006101000a81548173ffffffffffffffffffffffffffffffffffffffff021916908373ffffffffffffffffffffffffffffffffffffffff160217905550808273ffffffffffffffffffffffffffffffffffffffff1661199783611307565b73ffffffffffffffffffffffffffffffffffffffff167f8c5be1e5ebec7d5bd14f71427d1e84f3dd0314c0f7b2291e5b200ac8c7c3b92560405160405180910390a45050565b600081600001549050919050565b60006119f6826118b0565b611a35576040517f08c379a0000000000000000000000000000000000000000000000000000000008152600401611a2c90613e48565b60405180910390fd5b6000611a4083611307565b90508073ffffffffffffffffffffffffffffffffffffffff168473ffffffffffffffffffffffffffffffffffffffff161480611a825750611a8181856116f0565b5b80611ac057508373ffffffffffffffffffffffffffffffffffffffff16611aa8846106ae565b73ffffffffffffffffffffffffffffffffffffffff16145b91505092915050565b8273ffffffffffffffffffffffffffffffffffffffff16611ae982611307565b73ffffffffffffffffffffffffffffffffffffffff1614611b3f576040517f08c379a0000000000000000000000000000000000000000000000000000000008152600401611b3690613eda565b60405180910390fd5b600073ffffffffffffffffffffffffffffffffffffffff168273ffffffffffffffffffffffffffffffffffffffff1603611bae576040517f08c379a0000000000000000000000000000000000000000000000000000000008152600401611ba590613f6c565b60405180910390fd5b611bb9838383612218565b611bc4600082611924565b6001600360008573ffffffffffffffffffffffffffffffffffffffff1673ffffffffffffffffffffffffffffffffffffffff1681526020019081526020016000206000828254611c149190613f8c565b925050819055506001600360008473ffffffffffffffffffffffffffffffffffffffff1673ffffffffffffffffffffffffffffffffffffffff1681526020019081526020016000206000828254611c6b9190613aec565b92505081905550816002600083815260200190815260200160002060006101000a81548173ffffffffffffffffffffffffffffffffffffffff021916908373ffffffffffffffffffffffffffffffffffffffff160217905550808273ffffffffffffffffffffffffffffffffffffffff168473ffffffffffffffffffffffffffffffffffffffff167fddf252ad1be2c89b69c2b068fc378daa952ba7f163c4a11628f55a4df523b3ef60405160405180910390a4611d2a83838361221d565b505050565b600073ffffffffffffffffffffffffffffffffffffffff168273ffffffffffffffffffffffffffffffffffffffff1603611d9e576040517f08c379a0000000000000000000000000000000000000000000000000000000008152600401611d959061400c565b60405180910390fd5b611da7816118b0565b15611de7576040517f08c379a0000000000000000000000000000000000000000000000000000000008152600401611dde90614078565b60405180910390fd5b611df360008383612218565b6001600360008473ffffffffffffffffffffffffffffffffffffffff1673ffffffffffffffffffffffffffffffffffffffff1681526020019081526020016000206000828254611e439190613aec565b92505081905550816002600083815260200190815260200160002060006101000a81548173ffffffffffffffffffffffffffffffffffffffff021916908373ffffffffffffffffffffffffffffffffffffffff160217905550808273ffffffffffffffffffffffffffffffffffffffff16600073ffffffffffffffffffffffffffffffffffffffff167fddf252ad1be2c89b69c2b068fc378daa952ba7f163c4a11628f55a4df523b3ef60405160405180910390a4611f046000838361221d565b5050565b6001816000016000828254019250508190555050565b611f27826118b0565b611f66576040517f08c379a0000000000000000000000000000000000000000000000000000000008152600401611f5d9061410a565b60405180910390fd5b80600660008481526020019081526020016000209080519060200190611f8d92919061252c565b505050565b8173ffffffffffffffffffffffffffffffffffffffff168373ffffffffffffffffffffffffffffffffffffffff1603612000576040517f08c379a0000000000000000000000000000000000000000000000000000000008152600401611ff790614176565b60405180910390fd5b80600560008573ffffffffffffffffffffffffffffffffffffffff1673ffffffffffffffffffffffffffffffffffffffff16815260200190815260200160002060008473ffffffffffffffffffffffffffffffffffffffff1673ffffffffffffffffffffffffffffffffffffffff16815260200190815260200160002060006101000a81548160ff0219169083151502179055508173ffffffffffffffffffffffffffffffffffffffff168373ffffffffffffffffffffffffffffffffffffffff167f17307eab39ab6107e8899845ad3d59bd9653f200f220920489ca2b5937696c31836040516120f19190612683565b60405180910390a3505050565b612109848484611ac9565b61211584848484612222565b612154576040517f08c379a000000000000000000000000000000000000000000000000000000000815260040161214b90614208565b60405180910390fd5b50505050565b606060405180602001604052806000815250905090565b606061217c826118b0565b6121bb576040517f08c379a00000000000000000000000000000000000000000000000000000000081526004016121b29061429a565b60405180910390fd5b60006121c561215a565b905060008151116121e55760405180602001604052806000815250612210565b806121ef846123a9565b604051602001612200929190613db2565b6040516020818303038152906040525b915050919050565b505050565b505050565b60006122438473ffffffffffffffffffffffffffffffffffffffff16612509565b1561239c578373ffffffffffffffffffffffffffffffffffffffff1663150b7a0261226c61191c565b8786866040518563ffffffff1660e01b815260040161228e949392919061430f565b6020604051808303816000875af19250505080156122ca57506040513d601f19601f820116820180604052508101906122c79190614370565b60015b61234c573d80600081146122fa576040519150601f19603f3d011682016040523d82523d6000602084013e6122ff565b606091505b506000815103612344576040517f08c379a000000000000000000000000000000000000000000000000000000000815260040161233b90614208565b60405180910390fd5b805181602001fd5b63150b7a0260e01b7bffffffffffffffffffffffffffffffffffffffffffffffffffffffff1916817bffffffffffffffffffffffffffffffffffffffffffffffffffffffff1916149150506123a1565b600190505b949350505050565b6060600082036123f0576040518060400160405280600181526020017f30000000000000000000000000000000000000000000000000000000000000008152509050612504565b600082905060005b6000821461242257808061240b9061439d565b915050600a8261241b9190614414565b91506123f8565b60008167ffffffffffffffff81111561243e5761243d612a84565b5b6040519080825280601f01601f1916602001820160405280156124705781602001600182028036833780820191505090505b5090505b600085146124fd576001826124899190613f8c565b9150600a856124989190614445565b60306124a49190613aec565b60f81b8183815181106124ba576124b96134ab565b5b60200101907effffffffffffffffffffffffffffffffffffffffffffffffffffffffffffff1916908160001a905350600a856124f69190614414565b9450612474565b8093505050505b919050565b6000808273ffffffffffffffffffffffffffffffffffffffff163b119050919050565b828054612538906132c4565b90600052602060002090601f01602090048101928261255a57600085556125a1565b82601f1061257357805160ff19168380011785556125a1565b828001600101855582156125a1579182015b828111156125a0578251825591602001919060010190612585565b5b5090506125ae91906125b2565b5090565b5b808211156125cb5760008160009055506001016125b3565b5090565b6000604051905090565b600080fd5b600080fd5b60007fffffffff0000000000000000000000000000000000000000000000000000000082169050919050565b612618816125e3565b811461262357600080fd5b50565b6000813590506126358161260f565b92915050565b600060208284031215612651576126506125d9565b5b600061265f84828501612626565b91505092915050565b60008115159050919050565b61267d81612668565b82525050565b60006020820190506126986000830184612674565b92915050565b600081519050919050565b600082825260208201905092915050565b60005b838110156126d85780820151818401526020810190506126bd565b838111156126e7576000848401525b50505050565b6000601f19601f8301169050919050565b60006127098261269e565b61271381856126a9565b93506127238185602086016126ba565b61272c816126ed565b840191505092915050565b6000602082019050818103600083015261275181846126fe565b905092915050565b6000819050919050565b61276c81612759565b811461277757600080fd5b50565b60008135905061278981612763565b92915050565b6000602082840312156127a5576127a46125d9565b5b60006127b38482850161277a565b91505092915050565b600073ffffffffffffffffffffffffffffffffffffffff82169050919050565b60006127e7826127bc565b9050919050565b6127f7816127dc565b82525050565b600060208201905061281260008301846127ee565b92915050565b612821816127dc565b811461282c57600080fd5b50565b60008135905061283e81612818565b92915050565b6000806040838503121561285b5761285a6125d9565b5b60006128698582860161282f565b925050602061287a8582860161277a565b9150509250929050565b60006020828403121561289a576128996125d9565b5b60006128a88482850161282f565b91505092915050565b600081519050919050565b600082825260208201905092915050565b6000819050602082019050919050565b600082825260208201905092915050565b60006128f98261269e565b61290381856128dd565b93506129138185602086016126ba565b61291c816126ed565b840191505092915050565b612930816127dc565b82525050565b61293f81612759565b82525050565b600060a083016000830151848203600086015261296282826128ee565b91505060208301516129776020860182612927565b50604083015161298a6040860182612936565b50606083015161299d6060860182612936565b50608083015184820360808601526129b582826128ee565b9150508091505092915050565b60006129ce8383612945565b905092915050565b6000602082019050919050565b60006129ee826128b1565b6129f881856128bc565b935083602082028501612a0a856128cd565b8060005b85811015612a465784840389528151612a2785826129c2565b9450612a32836129d6565b925060208a01995050600181019050612a0e565b50829750879550505050505092915050565b60006020820190508181036000830152612a7281846129e3565b905092915050565b600080fd5b600080fd5b7f4e487b7100000000000000000000000000000000000000000000000000000000600052604160045260246000fd5b612abc826126ed565b810181811067ffffffffffffffff82111715612adb57612ada612a84565b5b80604052505050565b6000612aee6125cf565b9050612afa8282612ab3565b919050565b600067ffffffffffffffff821115612b1a57612b19612a84565b5b612b23826126ed565b9050602081019050919050565b82818337600083830152505050565b6000612b52612b4d84612aff565b612ae4565b905082815260208101848484011115612b6e57612b6d612a7f565b5b612b79848285612b30565b509392505050565b600082601f830112612b9657612b95612a7a565b5b8135612ba6848260208601612b3f565b91505092915050565b60008060008060808587031215612bc957612bc86125d9565b5b6000612bd78782880161282f565b9450506020612be88782880161282f565b9350506040612bf98782880161277a565b925050606085013567ffffffffffffffff811115612c1a57612c196125de565b5b612c2687828801612b81565b91505092959194509250565b612c3b816125e3565b82525050565b6000602082019050612c566000830184612c32565b92915050565b600080600060608486031215612c7557612c746125d9565b5b6000612c838682870161282f565b9350506020612c948682870161282f565b9250506040612ca58682870161277a565b9150509250925092565b600067ffffffffffffffff821115612cca57612cc9612a84565b5b602082029050602081019050919050565b600080fd5b600080fd5b600080fd5b600067ffffffffffffffff821115612d0557612d04612a84565b5b612d0e826126ed565b9050602081019050919050565b6000612d2e612d2984612cea565b612ae4565b905082815260208101848484011115612d4a57612d49612a7f565b5b612d55848285612b30565b509392505050565b600082601f830112612d7257612d71612a7a565b5b8135612d82848260208601612d1b565b91505092915050565b60038110612d9857600080fd5b50565b600081359050612daa81612d8b565b92915050565b600060a08284031215612dc657612dc5612ce0565b5b612dd060a0612ae4565b9050600082013567ffffffffffffffff811115612df057612def612ce5565b5b612dfc84828501612d5d565b600083015250602082013567ffffffffffffffff811115612e2057612e1f612ce5565b5b612e2c84828501612d5d565b6020830152506040612e4084828501612d9b565b6040830152506060612e548482850161277a565b6060830152506080612e688482850161277a565b60808301525092915050565b6000612e87612e8284612caf565b612ae4565b90508083825260208201905060208402830185811115612eaa57612ea9612cdb565b5b835b81811015612ef157803567ffffffffffffffff811115612ecf57612ece612a7a565b5b808601612edc8982612db0565b85526020850194505050602081019050612eac565b5050509392505050565b600082601f830112612f1057612f0f612a7a565b5b8135612f20848260208601612e74565b91505092915050565b60008060408385031215612f4057612f3f6125d9565b5b600083013567ffffffffffffffff811115612f5e57612f5d6125de565b5b612f6a85828601612efb565b9250506020612f7b8582860161282f565b9150509250929050565b600067ffffffffffffffff821115612fa057612f9f612a84565b5b602082029050602081019050919050565b600060a08284031215612fc757612fc6612ce0565b5b612fd160a0612ae4565b9050600082013567ffffffffffffffff811115612ff157612ff0612ce5565b5b612ffd84828501612d5d565b60008301525060206130118482850161277a565b602083015250604082013567ffffffffffffffff81111561303557613034612ce5565b5b61304184828501612d5d565b60408301525060606130558482850161282f565b606083015250608082013567ffffffffffffffff81111561307957613078612ce5565b5b61308584828501612d5d565b60808301525092915050565b60006130a461309f84612f85565b612ae4565b905080838252602082019050602084028301858111156130c7576130c6612cdb565b5b835b8181101561310e57803567ffffffffffffffff8111156130ec576130eb612a7a565b5b8086016130f98982612fb1565b855260208501945050506020810190506130c9565b5050509392505050565b600082601f83011261312d5761312c612a7a565b5b813561313d848260208601613091565b91505092915050565b60006020828403121561315c5761315b6125d9565b5b600082013567ffffffffffffffff81111561317a576131796125de565b5b61318684828501613118565b91505092915050565b61319881612759565b82525050565b60006040820190506131b3600083018561318f565b81810360208301526131c581846129e3565b90509392505050565b60006020820190506131e3600083018461318f565b92915050565b6131f281612668565b81146131fd57600080fd5b50565b60008135905061320f816131e9565b92915050565b6000806040838503121561322c5761322b6125d9565b5b600061323a8582860161282f565b925050602061324b85828601613200565b9150509250929050565b6000806040838503121561326c5761326b6125d9565b5b600061327a8582860161282f565b925050602061328b8582860161282f565b9150509250929050565b7f4e487b7100000000000000000000000000000000000000000000000000000000600052602260045260246000fd5b600060028204905060018216806132dc57607f821691505b6020821081036132ef576132ee613295565b5b50919050565b7f4552433732313a20617070726f76656420717565727920666f72206e6f6e657860008201527f697374656e7420746f6b656e0000000000000000000000000000000000000000602082015250565b6000613351602c836126a9565b915061335c826132f5565b604082019050919050565b6000602082019050818103600083015261338081613344565b9050919050565b7f4552433732313a20617070726f76616c20746f2063757272656e74206f776e6560008201527f7200000000000000000000000000000000000000000000000000000000000000602082015250565b60006133e36021836126a9565b91506133ee82613387565b604082019050919050565b60006020820190508181036000830152613412816133d6565b9050919050565b7f4552433732313a20617070726f76652063616c6c6572206973206e6f74206f7760008201527f6e6572206e6f7220617070726f76656420666f7220616c6c0000000000000000602082015250565b60006134756038836126a9565b915061348082613419565b604082019050919050565b600060208201905081810360008301526134a481613468565b9050919050565b7f4e487b7100000000000000000000000000000000000000000000000000000000600052603260045260246000fd5b7f4163636573732072657374726963746564210000000000000000000000000000600082015250565b60006135106012836126a9565b915061351b826134da565b602082019050919050565b6000602082019050818103600083015261353f81613503565b9050919050565b7f4552433732313a207472616e736665722063616c6c6572206973206e6f74206f60008201527f776e6572206e6f7220617070726f766564000000000000000000000000000000602082015250565b60006135a26031836126a9565b91506135ad82613546565b604082019050919050565b600060208201905081810360008301526135d181613595565b9050919050565b7f596f75206e65656420746f207573652074686520666163746f72790000000000600082015250565b600061360e601b836126a9565b9150613619826135d8565b602082019050919050565b6000602082019050818103600083015261363d81613601565b9050919050565b8082525050565b600081519050919050565b600082825260208201905092915050565b6000819050602082019050919050565b600082825260208201905092915050565b60006136938261269e565b61369d8185613677565b93506136ad8185602086016126ba565b6136b6816126ed565b840191505092915050565b7f4e487b7100000000000000000000000000000000000000000000000000000000600052602160045260246000fd5b60038110613701576137006136c1565b5b50565b6000819050613712826136f0565b919050565b600061372282613704565b9050919050565b61373281613717565b82525050565b61374181612759565b82525050565b600060a08301600083015184820360008601526137648282613688565b9150506020830151848203602086015261377e8282613688565b91505060408301516137936040860182613729565b5060608301516137a66060860182613738565b5060808301516137b96080860182613738565b508091505092915050565b60006137d08383613747565b905092915050565b6000602082019050919050565b60006137f08261364b565b6137fa8185613656565b93508360208202850161380c85613667565b8060005b85811015613848578484038952815161382985826137c4565b9450613834836137d8565b925060208a01995050600181019050613810565b50829750879550505050505092915050565b600060408201905061386f6000830185613644565b818103602083015261388181846137e5565b90509392505050565b600081519050919050565b600082825260208201905092915050565b6000819050602082019050919050565b6138bf816127dc565b82525050565b600060a08301600083015184820360008601526138e28282613688565b91505060208301516138f76020860182613738565b506040830151848203604086015261390f8282613688565b915050606083015161392460608601826138b6565b506080830151848203608086015261393c8282613688565b9150508091505092915050565b600061395583836138c5565b905092915050565b6000602082019050919050565b60006139758261388a565b61397f8185613895565b935083602082028501613991856138a6565b8060005b858110156139cd57848403895281516139ae8582613949565b94506139b98361395d565b925060208a01995050600181019050613995565b50829750879550505050505092915050565b60006040820190506139f46000830185613644565b8181036020830152613a06818461396a565b90509392505050565b600081519050613a1e81612763565b92915050565b600060208284031215613a3a57613a396125d9565b5b6000613a4884828501613a0f565b91505092915050565b7f546865207469636b65747320636f7374206d6f72650000000000000000000000600082015250565b6000613a876015836126a9565b9150613a9282613a51565b602082019050919050565b60006020820190508181036000830152613ab681613a7a565b9050919050565b7f4e487b7100000000000000000000000000000000000000000000000000000000600052601160045260246000fd5b6000613af782612759565b9150613b0283612759565b9250827fffffffffffffffffffffffffffffffffffffffffffffffffffffffffffffffff03821115613b3757613b36613abd565b5b828201905092915050565b6000602082019050613b576000830184613644565b92915050565b6000819050919050565b613b7081613b5d565b8114613b7b57600080fd5b50565b600081519050613b8d81613b67565b92915050565b600060208284031215613ba957613ba86125d9565b5b6000613bb784828501613b7e565b91505092915050565b7f4552433732313a206f776e657220717565727920666f72206e6f6e657869737460008201527f656e7420746f6b656e0000000000000000000000000000000000000000000000602082015250565b6000613c1c6029836126a9565b9150613c2782613bc0565b604082019050919050565b60006020820190508181036000830152613c4b81613c0f565b9050919050565b7f4552433732313a2062616c616e636520717565727920666f7220746865207a6560008201527f726f206164647265737300000000000000000000000000000000000000000000602082015250565b6000613cae602a836126a9565b9150613cb982613c52565b604082019050919050565b60006020820190508181036000830152613cdd81613ca1565b9050919050565b7f45524337323155524953746f726167653a2055524920717565727920666f722060008201527f6e6f6e6578697374656e7420746f6b656e000000000000000000000000000000602082015250565b6000613d406031836126a9565b9150613d4b82613ce4565b604082019050919050565b60006020820190508181036000830152613d6f81613d33565b9050919050565b600081905092915050565b6000613d8c8261269e565b613d968185613d76565b9350613da68185602086016126ba565b80840191505092915050565b6000613dbe8285613d81565b9150613dca8284613d81565b91508190509392505050565b7f4552433732313a206f70657261746f7220717565727920666f72206e6f6e657860008201527f697374656e7420746f6b656e0000000000000000000000000000000000000000602082015250565b6000613e32602c836126a9565b9150613e3d82613dd6565b604082019050919050565b60006020820190508181036000830152613e6181613e25565b9050919050565b7f4552433732313a207472616e736665722066726f6d20696e636f72726563742060008201527f6f776e6572000000000000000000000000000000000000000000000000000000602082015250565b6000613ec46025836126a9565b9150613ecf82613e68565b604082019050919050565b60006020820190508181036000830152613ef381613eb7565b9050919050565b7f4552433732313a207472616e7366657220746f20746865207a65726f2061646460008201527f7265737300000000000000000000000000000000000000000000000000000000602082015250565b6000613f566024836126a9565b9150613f6182613efa565b604082019050919050565b60006020820190508181036000830152613f8581613f49565b9050919050565b6000613f9782612759565b9150613fa283612759565b925082821015613fb557613fb4613abd565b5b828203905092915050565b7f4552433732313a206d696e7420746f20746865207a65726f2061646472657373600082015250565b6000613ff66020836126a9565b915061400182613fc0565b602082019050919050565b6000602082019050818103600083015261402581613fe9565b9050919050565b7f4552433732313a20746f6b656e20616c7265616479206d696e74656400000000600082015250565b6000614062601c836126a9565b915061406d8261402c565b602082019050919050565b6000602082019050818103600083015261409181614055565b9050919050565b7f45524337323155524953746f726167653a2055524920736574206f66206e6f6e60008201527f6578697374656e7420746f6b656e000000000000000000000000000000000000602082015250565b60006140f4602e836126a9565b91506140ff82614098565b604082019050919050565b60006020820190508181036000830152614123816140e7565b9050919050565b7f4552433732313a20617070726f766520746f2063616c6c657200000000000000600082015250565b60006141606019836126a9565b915061416b8261412a565b602082019050919050565b6000602082019050818103600083015261418f81614153565b9050919050565b7f4552433732313a207472616e7366657220746f206e6f6e20455243373231526560008201527f63656976657220696d706c656d656e7465720000000000000000000000000000602082015250565b60006141f26032836126a9565b91506141fd82614196565b604082019050919050565b60006020820190508181036000830152614221816141e5565b9050919050565b7f4552433732314d657461646174613a2055524920717565727920666f72206e6f60008201527f6e6578697374656e7420746f6b656e0000000000000000000000000000000000602082015250565b6000614284602f836126a9565b915061428f82614228565b604082019050919050565b600060208201905081810360008301526142b381614277565b9050919050565b600081519050919050565b600082825260208201905092915050565b60006142e1826142ba565b6142eb81856142c5565b93506142fb8185602086016126ba565b614304816126ed565b840191505092915050565b600060808201905061432460008301876127ee565b61433160208301866127ee565b61433e604083018561318f565b818103606083015261435081846142d6565b905095945050505050565b60008151905061436a8161260f565b92915050565b600060208284031215614386576143856125d9565b5b60006143948482850161435b565b91505092915050565b60006143a882612759565b91507fffffffffffffffffffffffffffffffffffffffffffffffffffffffffffffffff82036143da576143d9613abd565b5b600182019050919050565b7f4e487b7100000000000000000000000000000000000000000000000000000000600052601260045260246000fd5b600061441f82612759565b915061442a83612759565b92508261443a576144396143e5565b5b828204905092915050565b600061445082612759565b915061445b83612759565b92508261446b5761446a6143e5565b5b82820690509291505056fea26469706673582212203255627f551818c6b3101ffe8252d5e70b2e2e6e8e4d4ba5ddb7eafe45e7148b64736f6c634300080d0033a26469706673582212207469bb70ae2a7a7523dc277ec910dbe22de7dc0de1d6fbad49975f9fdef92b5264736f6c634300080d0033",
  "immutableReferences": {},
  "source": "// SPDX-License-Identifier: GPL-3.0\npragma solidity >=0.6.0 <0.9.0;\n\nimport \"./Event.sol\";\nimport \"./Administrator.sol\";\nimport \"./BlocTick.sol\";\n\ncontract EventFactory is Administrator {\n    Event[] public _events;\n    uint256 platform_percent = 10;\n    event NewEvent(address contractAddress);\n\n    function allEvents() external view returns (Event[] memory) {\n        return _events;\n    }\n\n    function addEvent(\n        string memory name,\n        string memory symbol,\n        BlocTick.Ticket[] memory tickets\n    ) external {\n        Event e = new Event(name, symbol, msg.sender);\n        e.storeTickets(tickets, msg.sender);\n        _events.push(e);\n        emit NewEvent(address(e));\n    }\n\n    function setPlatformPercent(uint256 fee) external onlyAdministrator {\n        platform_percent = fee;\n    }\n\n    function mintTickets(\n        address eventContract,\n        BlocTick.TicketPurchase[] memory purchases\n    ) external payable {\n        Event e = Event(eventContract);\n        e.purchaseTickets(purchases);\n\n        uint256 platform_fee = (platform_percent / 100) * msg.value;\n        payable(e._owner()).transfer(msg.value - platform_fee);\n        payable(_owner).transfer(platform_fee);\n    }\n}\n",
  "sourcePath": "/Users/devjosh/Documents/Build/Blocverse/BlocTicks/blocticks-contracts/backend/contracts/EventFactory.sol",
  "compiler": {
    "name": "solc",
    "version": "0.8.13+commit.abaa5c0e.Emscripten.clang"
  },
  "schemaVersion": "3.4.7",
  "updatedAt": "2022-04-29T18:20:43.781Z",
  "networkType": "ethereum",
  "devdoc": {
    "kind": "dev",
    "methods": {},
    "version": 1
  },
  "userdoc": {
    "kind": "user",
    "methods": {},
    "version": 1
  }
}