{
  "contractName": "EventFactory",
  "abi": [
    {
      "inputs": [
        {
          "internalType": "address",
          "name": "_tokenImplementation",
          "type": "address"
        }
      ],
      "stateMutability": "nonpayable",
      "type": "constructor"
    },
    {
      "anonymous": false,
      "inputs": [
        {
          "indexed": false,
          "internalType": "address",
          "name": "contractAddress",
          "type": "address"
        }
      ],
      "name": "NewEvent",
      "type": "event"
    },
    {
      "anonymous": false,
      "inputs": [
        {
          "indexed": true,
          "internalType": "address",
          "name": "previousOwner",
          "type": "address"
        },
        {
          "indexed": true,
          "internalType": "address",
          "name": "newOwner",
          "type": "address"
        }
      ],
      "name": "OwnershipTransferred",
      "type": "event"
    },
    {
      "inputs": [],
      "name": "feesEarned",
      "outputs": [
        {
          "internalType": "uint256",
          "name": "",
          "type": "uint256"
        }
      ],
      "stateMutability": "view",
      "type": "function"
    },
    {
      "inputs": [],
      "name": "owner",
      "outputs": [
        {
          "internalType": "address",
          "name": "",
          "type": "address"
        }
      ],
      "stateMutability": "view",
      "type": "function"
    },
    {
      "inputs": [],
      "name": "platform_percent",
      "outputs": [
        {
          "internalType": "uint256",
          "name": "",
          "type": "uint256"
        }
      ],
      "stateMutability": "view",
      "type": "function"
    },
    {
      "inputs": [],
      "name": "renounceOwnership",
      "outputs": [],
      "stateMutability": "nonpayable",
      "type": "function"
    },
    {
      "inputs": [
        {
          "internalType": "address",
          "name": "newOwner",
          "type": "address"
        }
      ],
      "name": "transferOwnership",
      "outputs": [],
      "stateMutability": "nonpayable",
      "type": "function"
    },
    {
      "inputs": [],
      "name": "allEvents",
      "outputs": [
        {
          "internalType": "contract Event[]",
          "name": "",
          "type": "address[]"
        }
      ],
      "stateMutability": "view",
      "type": "function"
    },
    {
      "inputs": [
        {
          "internalType": "string",
          "name": "name",
          "type": "string"
        },
        {
          "internalType": "string",
          "name": "symbol",
          "type": "string"
        },
        {
          "components": [
            {
              "internalType": "string",
              "name": "name",
              "type": "string"
            },
            {
              "internalType": "string",
              "name": "description",
              "type": "string"
            },
            {
              "internalType": "enum BlocTick.TicketType",
              "name": "ticket_type",
              "type": "uint8"
            },
            {
              "internalType": "uint256",
              "name": "quantity_available",
              "type": "uint256"
            },
            {
              "internalType": "uint256",
              "name": "price",
              "type": "uint256"
            }
          ],
          "internalType": "struct BlocTick.Ticket[]",
          "name": "tickets",
          "type": "tuple[]"
        }
      ],
      "name": "addEvent",
      "outputs": [],
      "stateMutability": "nonpayable",
      "type": "function"
    },
    {
      "inputs": [
        {
          "internalType": "uint256",
          "name": "fee",
          "type": "uint256"
        }
      ],
      "name": "setPlatformPercent",
      "outputs": [],
      "stateMutability": "nonpayable",
      "type": "function"
    },
    {
      "inputs": [
        {
          "internalType": "contract Event",
          "name": "e",
          "type": "address"
        },
        {
          "components": [
            {
              "internalType": "string",
              "name": "purchaseId",
              "type": "string"
            },
            {
              "internalType": "uint256",
              "name": "ticketId",
              "type": "uint256"
            },
            {
              "internalType": "string",
              "name": "tokenURI",
              "type": "string"
            },
            {
              "internalType": "address",
              "name": "buyer",
              "type": "address"
            },
            {
              "internalType": "uint256",
              "name": "cost",
              "type": "uint256"
            }
          ],
          "internalType": "struct BlocTick.TicketPurchase[]",
          "name": "purchases",
          "type": "tuple[]"
        }
      ],
      "name": "mintTickets",
      "outputs": [],
      "stateMutability": "payable",
      "type": "function"
    }
  ],
  "bytecode": "0x60a060405260326002553480156200001657600080fd5b5060405162001a1e38038062001a1e83398181016040528101906200003c9190620001cd565b6200005c620000506200009760201b60201c565b6200009f60201b60201c565b8073ffffffffffffffffffffffffffffffffffffffff1660808173ffffffffffffffffffffffffffffffffffffffff168152505050620001ff565b600033905090565b60008060009054906101000a900473ffffffffffffffffffffffffffffffffffffffff169050816000806101000a81548173ffffffffffffffffffffffffffffffffffffffff021916908373ffffffffffffffffffffffffffffffffffffffff1602179055508173ffffffffffffffffffffffffffffffffffffffff168173ffffffffffffffffffffffffffffffffffffffff167f8be0079c531659141344cd1fd0a4f28419497f9722a3daafe3b4186f6b6457e060405160405180910390a35050565b600080fd5b600073ffffffffffffffffffffffffffffffffffffffff82169050919050565b6000620001958262000168565b9050919050565b620001a78162000188565b8114620001b357600080fd5b50565b600081519050620001c7816200019c565b92915050565b600060208284031215620001e657620001e562000163565b5b6000620001f684828501620001b6565b91505092915050565b6080516118036200021b600039600061033101526118036000f3fe6080604052600436106100865760003560e01c806396f229ca1161005957806396f229ca14610123578063d50509f51461014c578063e08aa14914610177578063f2fde38b14610193578063ff001b32146101bc57610086565b806314d7c3751461008b578063715018a6146100b657806378e2b424146100cd5780638da5cb5b146100f8575b600080fd5b34801561009757600080fd5b506100a06101e5565b6040516100ad91906109c3565b60405180910390f35b3480156100c257600080fd5b506100cb610273565b005b3480156100d957600080fd5b506100e26102fb565b6040516100ef91906109fe565b60405180910390f35b34801561010457600080fd5b5061010d610301565b60405161011a9190610a3a565b60405180910390f35b34801561012f57600080fd5b5061014a60048036038101906101459190610db4565b61032a565b005b34801561015857600080fd5b506101616104d9565b60405161016e91906109fe565b60405180910390f35b610191600480360381019061018c919061106a565b6104df565b005b34801561019f57600080fd5b506101ba60048036038101906101b591906110c6565b610578565b005b3480156101c857600080fd5b506101e360048036038101906101de91906110f3565b61066f565b005b6060600180548060200260200160405190810160405280929190818152602001828054801561026957602002820191906000526020600020905b8160009054906101000a900473ffffffffffffffffffffffffffffffffffffffff1673ffffffffffffffffffffffffffffffffffffffff168152602001906001019080831161021f575b5050505050905090565b61027b6106f5565b73ffffffffffffffffffffffffffffffffffffffff16610299610301565b73ffffffffffffffffffffffffffffffffffffffff16146102ef576040517f08c379a00000000000000000000000000000000000000000000000000000000081526004016102e69061117d565b60405180910390fd5b6102f960006106fd565b565b60025481565b60008060009054906101000a900473ffffffffffffffffffffffffffffffffffffffff16905090565b60006103557f00000000000000000000000000000000000000000000000000000000000000006107c1565b905060008190508073ffffffffffffffffffffffffffffffffffffffff1663077f224a8686336040518463ffffffff1660e01b815260040161039993929190611214565b600060405180830381600087803b1580156103b357600080fd5b505af11580156103c7573d6000803e3d6000fd5b505050508073ffffffffffffffffffffffffffffffffffffffff16633d181c7e84336040518363ffffffff1660e01b8152600401610406929190611468565b600060405180830381600087803b15801561042057600080fd5b505af1158015610434573d6000803e3d6000fd5b505050506001819080600181540180825580915050600190039060005260206000200160009091909190916101000a81548173ffffffffffffffffffffffffffffffffffffffff021916908373ffffffffffffffffffffffffffffffffffffffff1602179055507f0227e3b2fb10ea87b3ce0fe9b23554ad992c666dd128c13c0a6ef2d73dd80ba0826040516104ca9190610a3a565b60405180910390a15050505050565b60035481565b8173ffffffffffffffffffffffffffffffffffffffff1663c63197ce34836040518363ffffffff1660e01b815260040161051991906115e6565b60206040518083038185885af1158015610537573d6000803e3d6000fd5b50505050506040513d601f19601f8201168201806040525081019061055c919061161d565b6003600082825461056d9190611679565b925050819055505050565b6105806106f5565b73ffffffffffffffffffffffffffffffffffffffff1661059e610301565b73ffffffffffffffffffffffffffffffffffffffff16146105f4576040517f08c379a00000000000000000000000000000000000000000000000000000000081526004016105eb9061117d565b60405180910390fd5b600073ffffffffffffffffffffffffffffffffffffffff168173ffffffffffffffffffffffffffffffffffffffff1603610663576040517f08c379a000000000000000000000000000000000000000000000000000000000815260040161065a90611741565b60405180910390fd5b61066c816106fd565b50565b6106776106f5565b73ffffffffffffffffffffffffffffffffffffffff16610695610301565b73ffffffffffffffffffffffffffffffffffffffff16146106eb576040517f08c379a00000000000000000000000000000000000000000000000000000000081526004016106e29061117d565b60405180910390fd5b8060028190555050565b600033905090565b60008060009054906101000a900473ffffffffffffffffffffffffffffffffffffffff169050816000806101000a81548173ffffffffffffffffffffffffffffffffffffffff021916908373ffffffffffffffffffffffffffffffffffffffff1602179055508173ffffffffffffffffffffffffffffffffffffffff168173ffffffffffffffffffffffffffffffffffffffff167f8be0079c531659141344cd1fd0a4f28419497f9722a3daafe3b4186f6b6457e060405160405180910390a35050565b60006040517f3d602d80600a3d3981f3363d3d373d3d3d363d7300000000000000000000000081528260601b60148201527f5af43d82803e903d91602b57fd5bf3000000000000000000000000000000000060288201526037816000f0915050600073ffffffffffffffffffffffffffffffffffffffff168173ffffffffffffffffffffffffffffffffffffffff1603610890576040517f08c379a0000000000000000000000000000000000000000000000000000000008152600401610887906117ad565b60405180910390fd5b919050565b600081519050919050565b600082825260208201905092915050565b6000819050602082019050919050565b600073ffffffffffffffffffffffffffffffffffffffff82169050919050565b6000819050919050565b60006109066109016108fc846108c1565b6108e1565b6108c1565b9050919050565b6000610918826108eb565b9050919050565b600061092a8261090d565b9050919050565b61093a8161091f565b82525050565b600061094c8383610931565b60208301905092915050565b6000602082019050919050565b600061097082610895565b61097a81856108a0565b9350610985836108b1565b8060005b838110156109b657815161099d8882610940565b97506109a883610958565b925050600181019050610989565b5085935050505092915050565b600060208201905081810360008301526109dd8184610965565b905092915050565b6000819050919050565b6109f8816109e5565b82525050565b6000602082019050610a1360008301846109ef565b92915050565b6000610a24826108c1565b9050919050565b610a3481610a19565b82525050565b6000602082019050610a4f6000830184610a2b565b92915050565b6000604051905090565b600080fd5b600080fd5b600080fd5b600080fd5b6000601f19601f8301169050919050565b7f4e487b7100000000000000000000000000000000000000000000000000000000600052604160045260246000fd5b610abc82610a73565b810181811067ffffffffffffffff82111715610adb57610ada610a84565b5b80604052505050565b6000610aee610a55565b9050610afa8282610ab3565b919050565b600067ffffffffffffffff821115610b1a57610b19610a84565b5b610b2382610a73565b9050602081019050919050565b82818337600083830152505050565b6000610b52610b4d84610aff565b610ae4565b905082815260208101848484011115610b6e57610b6d610a6e565b5b610b79848285610b30565b509392505050565b600082601f830112610b9657610b95610a69565b5b8135610ba6848260208601610b3f565b91505092915050565b600067ffffffffffffffff821115610bca57610bc9610a84565b5b602082029050602081019050919050565b600080fd5b600080fd5b600080fd5b60038110610bf757600080fd5b50565b600081359050610c0981610bea565b92915050565b610c18816109e5565b8114610c2357600080fd5b50565b600081359050610c3581610c0f565b92915050565b600060a08284031215610c5157610c50610be0565b5b610c5b60a0610ae4565b9050600082013567ffffffffffffffff811115610c7b57610c7a610be5565b5b610c8784828501610b81565b600083015250602082013567ffffffffffffffff811115610cab57610caa610be5565b5b610cb784828501610b81565b6020830152506040610ccb84828501610bfa565b6040830152506060610cdf84828501610c26565b6060830152506080610cf384828501610c26565b60808301525092915050565b6000610d12610d0d84610baf565b610ae4565b90508083825260208201905060208402830185811115610d3557610d34610bdb565b5b835b81811015610d7c57803567ffffffffffffffff811115610d5a57610d59610a69565b5b808601610d678982610c3b565b85526020850194505050602081019050610d37565b5050509392505050565b600082601f830112610d9b57610d9a610a69565b5b8135610dab848260208601610cff565b91505092915050565b600080600060608486031215610dcd57610dcc610a5f565b5b600084013567ffffffffffffffff811115610deb57610dea610a64565b5b610df786828701610b81565b935050602084013567ffffffffffffffff811115610e1857610e17610a64565b5b610e2486828701610b81565b925050604084013567ffffffffffffffff811115610e4557610e44610a64565b5b610e5186828701610d86565b9150509250925092565b6000610e6682610a19565b9050919050565b610e7681610e5b565b8114610e8157600080fd5b50565b600081359050610e9381610e6d565b92915050565b600067ffffffffffffffff821115610eb457610eb3610a84565b5b602082029050602081019050919050565b610ece81610a19565b8114610ed957600080fd5b50565b600081359050610eeb81610ec5565b92915050565b600060a08284031215610f0757610f06610be0565b5b610f1160a0610ae4565b9050600082013567ffffffffffffffff811115610f3157610f30610be5565b5b610f3d84828501610b81565b6000830152506020610f5184828501610c26565b602083015250604082013567ffffffffffffffff811115610f7557610f74610be5565b5b610f8184828501610b81565b6040830152506060610f9584828501610edc565b6060830152506080610fa984828501610c26565b60808301525092915050565b6000610fc8610fc384610e99565b610ae4565b90508083825260208201905060208402830185811115610feb57610fea610bdb565b5b835b8181101561103257803567ffffffffffffffff8111156110105761100f610a69565b5b80860161101d8982610ef1565b85526020850194505050602081019050610fed565b5050509392505050565b600082601f83011261105157611050610a69565b5b8135611061848260208601610fb5565b91505092915050565b6000806040838503121561108157611080610a5f565b5b600061108f85828601610e84565b925050602083013567ffffffffffffffff8111156110b0576110af610a64565b5b6110bc8582860161103c565b9150509250929050565b6000602082840312156110dc576110db610a5f565b5b60006110ea84828501610edc565b91505092915050565b60006020828403121561110957611108610a5f565b5b600061111784828501610c26565b91505092915050565b600082825260208201905092915050565b7f4f776e61626c653a2063616c6c6572206973206e6f7420746865206f776e6572600082015250565b6000611167602083611120565b915061117282611131565b602082019050919050565b600060208201905081810360008301526111968161115a565b9050919050565b600081519050919050565b60005b838110156111c65780820151818401526020810190506111ab565b838111156111d5576000848401525b50505050565b60006111e68261119d565b6111f08185611120565b93506112008185602086016111a8565b61120981610a73565b840191505092915050565b6000606082019050818103600083015261122e81866111db565b9050818103602083015261124281856111db565b90506112516040830184610a2b565b949350505050565b600081519050919050565b600082825260208201905092915050565b6000819050602082019050919050565b600082825260208201905092915050565b60006112a18261119d565b6112ab8185611285565b93506112bb8185602086016111a8565b6112c481610a73565b840191505092915050565b7f4e487b7100000000000000000000000000000000000000000000000000000000600052602160045260246000fd5b6003811061130f5761130e6112cf565b5b50565b6000819050611320826112fe565b919050565b600061133082611312565b9050919050565b61134081611325565b82525050565b61134f816109e5565b82525050565b600060a08301600083015184820360008601526113728282611296565b9150506020830151848203602086015261138c8282611296565b91505060408301516113a16040860182611337565b5060608301516113b46060860182611346565b5060808301516113c76080860182611346565b508091505092915050565b60006113de8383611355565b905092915050565b6000602082019050919050565b60006113fe82611259565b6114088185611264565b93508360208202850161141a85611275565b8060005b85811015611456578484038952815161143785826113d2565b9450611442836113e6565b925060208a0199505060018101905061141e565b50829750879550505050505092915050565b6000604082019050818103600083015261148281856113f3565b90506114916020830184610a2b565b9392505050565b600081519050919050565b600082825260208201905092915050565b6000819050602082019050919050565b6114cd81610a19565b82525050565b600060a08301600083015184820360008601526114f08282611296565b91505060208301516115056020860182611346565b506040830151848203604086015261151d8282611296565b915050606083015161153260608601826114c4565b5060808301516115456080860182611346565b508091505092915050565b600061155c83836114d3565b905092915050565b6000602082019050919050565b600061157c82611498565b61158681856114a3565b935083602082028501611598856114b4565b8060005b858110156115d457848403895281516115b58582611550565b94506115c083611564565b925060208a0199505060018101905061159c565b50829750879550505050505092915050565b600060208201905081810360008301526116008184611571565b905092915050565b60008151905061161781610c0f565b92915050565b60006020828403121561163357611632610a5f565b5b600061164184828501611608565b91505092915050565b7f4e487b7100000000000000000000000000000000000000000000000000000000600052601160045260246000fd5b6000611684826109e5565b915061168f836109e5565b9250827fffffffffffffffffffffffffffffffffffffffffffffffffffffffffffffffff038211156116c4576116c361164a565b5b828201905092915050565b7f4f776e61626c653a206e6577206f776e657220697320746865207a65726f206160008201527f6464726573730000000000000000000000000000000000000000000000000000602082015250565b600061172b602683611120565b9150611736826116cf565b604082019050919050565b6000602082019050818103600083015261175a8161171e565b9050919050565b7f455243313136373a20637265617465206661696c656400000000000000000000600082015250565b6000611797601683611120565b91506117a282611761565b602082019050919050565b600060208201905081810360008301526117c68161178a565b905091905056fea264697066735822122077c8c26e943ddfb92ab33eb5e7bc8b84b42ba47b9a703444bea697f7a9fc400364736f6c634300080d0033",
  "immutableReferences": {
    "3237": [
      {
        "length": 32,
        "start": 817
      }
    ]
  },
  "source": "// SPDX-License-Identifier: GPL-3.0\npragma solidity >=0.6.0 <0.9.0;\n\nimport \"./Event.sol\";\nimport \"./BlocTick.sol\";\nimport \"@openzeppelin/contracts/access/Ownable.sol\";\nimport \"@openzeppelin/contracts/proxy/Clones.sol\";\n\ncontract EventFactory is Ownable {\n    Event[] internal _events;\n    address immutable tokenImplementation;\n    uint256 public platform_percent = 50;\n    uint256 public feesEarned;\n    event NewEvent(address contractAddress);\n\n    constructor(address _tokenImplementation) {\n        tokenImplementation = _tokenImplementation;\n    }\n\n    function allEvents() external view returns (Event[] memory) {\n        return _events;\n    }\n\n    function addEvent(\n        string memory name,\n        string memory symbol,\n        BlocTick.Ticket[] memory tickets\n    ) external {\n        address clone = Clones.clone(tokenImplementation);\n        Event e = Event(clone);\n        e.initialize(name, symbol, msg.sender);\n        e.storeTickets(tickets, msg.sender);\n        _events.push(e);\n        emit NewEvent(clone);\n    }\n\n    function setPlatformPercent(uint256 fee) external onlyOwner {\n        platform_percent = fee;\n    }\n\n    function mintTickets(Event e, BlocTick.TicketPurchase[] memory purchases)\n        external\n        payable\n    {\n        feesEarned += e.purchaseTickets{value: msg.value}(purchases);\n    }\n}\n",
  "sourcePath": "/Users/devjosh/Documents/Build/Blocverse/BlocTicks/blocticks-contracts/backend/contracts/EventFactory.sol",
  "compiler": {
    "name": "solc",
    "version": "0.8.13+commit.abaa5c0e.Emscripten.clang"
  },
  "schemaVersion": "3.4.7",
  "updatedAt": "2022-05-13T00:18:16.737Z",
  "devdoc": {
    "kind": "dev",
    "methods": {
      "owner()": {
        "details": "Returns the address of the current owner."
      },
      "renounceOwnership()": {
        "details": "Leaves the contract without owner. It will not be possible to call `onlyOwner` functions anymore. Can only be called by the current owner. NOTE: Renouncing ownership will leave the contract without an owner, thereby removing any functionality that is only available to the owner."
      },
      "transferOwnership(address)": {
        "details": "Transfers ownership of the contract to a new account (`newOwner`). Can only be called by the current owner."
      }
    },
    "version": 1
  },
  "userdoc": {
    "kind": "user",
    "methods": {},
    "version": 1
  }
}