{
  "contractName": "EventFactory",
  "abi": [
    {
      "inputs": [],
      "stateMutability": "nonpayable",
      "type": "constructor"
    },
    {
      "anonymous": false,
      "inputs": [
        {
          "indexed": false,
          "internalType": "address",
          "name": "contractAddress",
          "type": "address"
        }
      ],
      "name": "NewEvent",
      "type": "event"
    },
    {
      "anonymous": false,
      "inputs": [
        {
          "indexed": true,
          "internalType": "address",
          "name": "previousOwner",
          "type": "address"
        },
        {
          "indexed": true,
          "internalType": "address",
          "name": "newOwner",
          "type": "address"
        }
      ],
      "name": "OwnershipTransferred",
      "type": "event"
    },
    {
      "inputs": [],
      "name": "feesEarned",
      "outputs": [
        {
          "internalType": "uint256",
          "name": "",
          "type": "uint256"
        }
      ],
      "stateMutability": "view",
      "type": "function"
    },
    {
      "inputs": [],
      "name": "owner",
      "outputs": [
        {
          "internalType": "address",
          "name": "",
          "type": "address"
        }
      ],
      "stateMutability": "view",
      "type": "function"
    },
    {
      "inputs": [],
      "name": "renounceOwnership",
      "outputs": [],
      "stateMutability": "nonpayable",
      "type": "function"
    },
    {
      "inputs": [
        {
          "internalType": "address",
          "name": "newOwner",
          "type": "address"
        }
      ],
      "name": "transferOwnership",
      "outputs": [],
      "stateMutability": "nonpayable",
      "type": "function"
    },
    {
      "inputs": [],
      "name": "allEvents",
      "outputs": [
        {
          "internalType": "contract Event[]",
          "name": "",
          "type": "address[]"
        }
      ],
      "stateMutability": "view",
      "type": "function"
    },
    {
      "inputs": [
        {
          "internalType": "string",
          "name": "name",
          "type": "string"
        },
        {
          "internalType": "string",
          "name": "symbol",
          "type": "string"
        },
        {
          "components": [
            {
              "internalType": "string",
              "name": "name",
              "type": "string"
            },
            {
              "internalType": "string",
              "name": "description",
              "type": "string"
            },
            {
              "internalType": "enum BlocTick.TicketType",
              "name": "ticket_type",
              "type": "uint8"
            },
            {
              "internalType": "uint256",
              "name": "quantity_available",
              "type": "uint256"
            },
            {
              "internalType": "uint256",
              "name": "price",
              "type": "uint256"
            }
          ],
          "internalType": "struct BlocTick.Ticket[]",
          "name": "tickets",
          "type": "tuple[]"
        }
      ],
      "name": "addEvent",
      "outputs": [],
      "stateMutability": "nonpayable",
      "type": "function"
    },
    {
      "inputs": [
        {
          "internalType": "uint256",
          "name": "fee",
          "type": "uint256"
        }
      ],
      "name": "setPlatformPercent",
      "outputs": [],
      "stateMutability": "nonpayable",
      "type": "function"
    },
    {
      "inputs": [
        {
          "internalType": "contract Event",
          "name": "e",
          "type": "address"
        },
        {
          "components": [
            {
              "internalType": "string",
              "name": "purchaseId",
              "type": "string"
            },
            {
              "internalType": "uint256",
              "name": "ticketId",
              "type": "uint256"
            },
            {
              "internalType": "string",
              "name": "tokenURI",
              "type": "string"
            },
            {
              "internalType": "address",
              "name": "buyer",
              "type": "address"
            },
            {
              "internalType": "string",
              "name": "cost",
              "type": "string"
            }
          ],
          "internalType": "struct BlocTick.TicketPurchase[]",
          "name": "purchases",
          "type": "tuple[]"
        }
      ],
      "name": "mintTickets",
      "outputs": [],
      "stateMutability": "payable",
      "type": "function"
    }
  ],
  "bytecode": "0x60a060405260326002553480156200001657600080fd5b50620000376200002b6200009c60201b60201c565b620000a460201b60201c565b604051620000459062000168565b604051809103906000f08015801562000062573d6000803e3d6000fd5b5073ffffffffffffffffffffffffffffffffffffffff1660808173ffffffffffffffffffffffffffffffffffffffff168152505062000176565b600033905090565b60008060009054906101000a900473ffffffffffffffffffffffffffffffffffffffff169050816000806101000a81548173ffffffffffffffffffffffffffffffffffffffff021916908373ffffffffffffffffffffffffffffffffffffffff1602179055508173ffffffffffffffffffffffffffffffffffffffff168173ffffffffffffffffffffffffffffffffffffffff167f8be0079c531659141344cd1fd0a4f28419497f9722a3daafe3b4186f6b6457e060405160405180910390a35050565b61587d8062001aa183390190565b60805161190f6200019260003960006103f9015261190f6000f3fe60806040526004361061007b5760003560e01c806396f229ca1161004e57806396f229ca14610109578063d50509f514610132578063f2fde38b1461015d578063ff001b32146101865761007b565b806314d7c37514610080578063715018a6146100ab57806380f7668f146100c25780638da5cb5b146100de575b600080fd5b34801561008c57600080fd5b506100956101af565b6040516100a291906109f2565b60405180910390f35b3480156100b757600080fd5b506100c061023d565b005b6100dc60048036038101906100d79190610df0565b6102c5565b005b3480156100ea57600080fd5b506100f36103c9565b6040516101009190610e5b565b60405180910390f35b34801561011557600080fd5b50610130600480360381019061012b9190611040565b6103f2565b005b34801561013e57600080fd5b506101476105a1565b60405161015491906110f6565b60405180910390f35b34801561016957600080fd5b50610184600480360381019061017f9190611111565b6105a7565b005b34801561019257600080fd5b506101ad60048036038101906101a8919061113e565b61069e565b005b6060600180548060200260200160405190810160405280929190818152602001828054801561023357602002820191906000526020600020905b8160009054906101000a900473ffffffffffffffffffffffffffffffffffffffff1673ffffffffffffffffffffffffffffffffffffffff16815260200190600101908083116101e9575b5050505050905090565b610245610724565b73ffffffffffffffffffffffffffffffffffffffff166102636103c9565b73ffffffffffffffffffffffffffffffffffffffff16146102b9576040517f08c379a00000000000000000000000000000000000000000000000000000000081526004016102b0906111c8565b60405180910390fd5b6102c3600061072c565b565b60006103e8346002546102d89190611217565b6102e291906112a0565b90506102ec6103c9565b73ffffffffffffffffffffffffffffffffffffffff166108fc829081150290604051600060405180830381858888f19350505050158015610331573d6000803e3d6000fd5b50806003600082825461034491906112d1565b925050819055508273ffffffffffffffffffffffffffffffffffffffff16630a967bc682346103739190611327565b84846040518463ffffffff1660e01b8152600401610392929190611547565b6000604051808303818588803b1580156103ab57600080fd5b505af11580156103bf573d6000803e3d6000fd5b5050505050505050565b60008060009054906101000a900473ffffffffffffffffffffffffffffffffffffffff16905090565b600061041d7f00000000000000000000000000000000000000000000000000000000000000006107f0565b905060008190508073ffffffffffffffffffffffffffffffffffffffff1663077f224a8686336040518463ffffffff1660e01b8152600401610461939291906115b0565b600060405180830381600087803b15801561047b57600080fd5b505af115801561048f573d6000803e3d6000fd5b505050508073ffffffffffffffffffffffffffffffffffffffff16633d181c7e84336040518363ffffffff1660e01b81526004016104ce9291906117ab565b600060405180830381600087803b1580156104e857600080fd5b505af11580156104fc573d6000803e3d6000fd5b505050506001819080600181540180825580915050600190039060005260206000200160009091909190916101000a81548173ffffffffffffffffffffffffffffffffffffffff021916908373ffffffffffffffffffffffffffffffffffffffff1602179055507f0227e3b2fb10ea87b3ce0fe9b23554ad992c666dd128c13c0a6ef2d73dd80ba0826040516105929190610e5b565b60405180910390a15050505050565b60035481565b6105af610724565b73ffffffffffffffffffffffffffffffffffffffff166105cd6103c9565b73ffffffffffffffffffffffffffffffffffffffff1614610623576040517f08c379a000000000000000000000000000000000000000000000000000000000815260040161061a906111c8565b60405180910390fd5b600073ffffffffffffffffffffffffffffffffffffffff168173ffffffffffffffffffffffffffffffffffffffff1603610692576040517f08c379a00000000000000000000000000000000000000000000000000000000081526004016106899061184d565b60405180910390fd5b61069b8161072c565b50565b6106a6610724565b73ffffffffffffffffffffffffffffffffffffffff166106c46103c9565b73ffffffffffffffffffffffffffffffffffffffff161461071a576040517f08c379a0000000000000000000000000000000000000000000000000000000008152600401610711906111c8565b60405180910390fd5b8060028190555050565b600033905090565b60008060009054906101000a900473ffffffffffffffffffffffffffffffffffffffff169050816000806101000a81548173ffffffffffffffffffffffffffffffffffffffff021916908373ffffffffffffffffffffffffffffffffffffffff1602179055508173ffffffffffffffffffffffffffffffffffffffff168173ffffffffffffffffffffffffffffffffffffffff167f8be0079c531659141344cd1fd0a4f28419497f9722a3daafe3b4186f6b6457e060405160405180910390a35050565b60006040517f3d602d80600a3d3981f3363d3d373d3d3d363d7300000000000000000000000081528260601b60148201527f5af43d82803e903d91602b57fd5bf3000000000000000000000000000000000060288201526037816000f0915050600073ffffffffffffffffffffffffffffffffffffffff168173ffffffffffffffffffffffffffffffffffffffff16036108bf576040517f08c379a00000000000000000000000000000000000000000000000000000000081526004016108b6906118b9565b60405180910390fd5b919050565b600081519050919050565b600082825260208201905092915050565b6000819050602082019050919050565b600073ffffffffffffffffffffffffffffffffffffffff82169050919050565b6000819050919050565b600061093561093061092b846108f0565b610910565b6108f0565b9050919050565b60006109478261091a565b9050919050565b60006109598261093c565b9050919050565b6109698161094e565b82525050565b600061097b8383610960565b60208301905092915050565b6000602082019050919050565b600061099f826108c4565b6109a981856108cf565b93506109b4836108e0565b8060005b838110156109e55781516109cc888261096f565b97506109d783610987565b9250506001810190506109b8565b5085935050505092915050565b60006020820190508181036000830152610a0c8184610994565b905092915050565b6000604051905090565b600080fd5b600080fd5b6000610a33826108f0565b9050919050565b6000610a4582610a28565b9050919050565b610a5581610a3a565b8114610a6057600080fd5b50565b600081359050610a7281610a4c565b92915050565b600080fd5b6000601f19601f8301169050919050565b7f4e487b7100000000000000000000000000000000000000000000000000000000600052604160045260246000fd5b610ac682610a7d565b810181811067ffffffffffffffff82111715610ae557610ae4610a8e565b5b80604052505050565b6000610af8610a14565b9050610b048282610abd565b919050565b600067ffffffffffffffff821115610b2457610b23610a8e565b5b602082029050602081019050919050565b600080fd5b600080fd5b600080fd5b600080fd5b600067ffffffffffffffff821115610b6457610b63610a8e565b5b610b6d82610a7d565b9050602081019050919050565b82818337600083830152505050565b6000610b9c610b9784610b49565b610aee565b905082815260208101848484011115610bb857610bb7610b44565b5b610bc3848285610b7a565b509392505050565b600082601f830112610be057610bdf610a78565b5b8135610bf0848260208601610b89565b91505092915050565b6000819050919050565b610c0c81610bf9565b8114610c1757600080fd5b50565b600081359050610c2981610c03565b92915050565b610c3881610a28565b8114610c4357600080fd5b50565b600081359050610c5581610c2f565b92915050565b600060a08284031215610c7157610c70610b3a565b5b610c7b60a0610aee565b9050600082013567ffffffffffffffff811115610c9b57610c9a610b3f565b5b610ca784828501610bcb565b6000830152506020610cbb84828501610c1a565b602083015250604082013567ffffffffffffffff811115610cdf57610cde610b3f565b5b610ceb84828501610bcb565b6040830152506060610cff84828501610c46565b606083015250608082013567ffffffffffffffff811115610d2357610d22610b3f565b5b610d2f84828501610bcb565b60808301525092915050565b6000610d4e610d4984610b09565b610aee565b90508083825260208201905060208402830185811115610d7157610d70610b35565b5b835b81811015610db857803567ffffffffffffffff811115610d9657610d95610a78565b5b808601610da38982610c5b565b85526020850194505050602081019050610d73565b5050509392505050565b600082601f830112610dd757610dd6610a78565b5b8135610de7848260208601610d3b565b91505092915050565b60008060408385031215610e0757610e06610a1e565b5b6000610e1585828601610a63565b925050602083013567ffffffffffffffff811115610e3657610e35610a23565b5b610e4285828601610dc2565b9150509250929050565b610e5581610a28565b82525050565b6000602082019050610e706000830184610e4c565b92915050565b600067ffffffffffffffff821115610e9157610e90610a8e565b5b602082029050602081019050919050565b60038110610eaf57600080fd5b50565b600081359050610ec181610ea2565b92915050565b600060a08284031215610edd57610edc610b3a565b5b610ee760a0610aee565b9050600082013567ffffffffffffffff811115610f0757610f06610b3f565b5b610f1384828501610bcb565b600083015250602082013567ffffffffffffffff811115610f3757610f36610b3f565b5b610f4384828501610bcb565b6020830152506040610f5784828501610eb2565b6040830152506060610f6b84828501610c1a565b6060830152506080610f7f84828501610c1a565b60808301525092915050565b6000610f9e610f9984610e76565b610aee565b90508083825260208201905060208402830185811115610fc157610fc0610b35565b5b835b8181101561100857803567ffffffffffffffff811115610fe657610fe5610a78565b5b808601610ff38982610ec7565b85526020850194505050602081019050610fc3565b5050509392505050565b600082601f83011261102757611026610a78565b5b8135611037848260208601610f8b565b91505092915050565b60008060006060848603121561105957611058610a1e565b5b600084013567ffffffffffffffff81111561107757611076610a23565b5b61108386828701610bcb565b935050602084013567ffffffffffffffff8111156110a4576110a3610a23565b5b6110b086828701610bcb565b925050604084013567ffffffffffffffff8111156110d1576110d0610a23565b5b6110dd86828701611012565b9150509250925092565b6110f081610bf9565b82525050565b600060208201905061110b60008301846110e7565b92915050565b60006020828403121561112757611126610a1e565b5b600061113584828501610c46565b91505092915050565b60006020828403121561115457611153610a1e565b5b600061116284828501610c1a565b91505092915050565b600082825260208201905092915050565b7f4f776e61626c653a2063616c6c6572206973206e6f7420746865206f776e6572600082015250565b60006111b260208361116b565b91506111bd8261117c565b602082019050919050565b600060208201905081810360008301526111e1816111a5565b9050919050565b7f4e487b7100000000000000000000000000000000000000000000000000000000600052601160045260246000fd5b600061122282610bf9565b915061122d83610bf9565b9250817fffffffffffffffffffffffffffffffffffffffffffffffffffffffffffffffff0483118215151615611266576112656111e8565b5b828202905092915050565b7f4e487b7100000000000000000000000000000000000000000000000000000000600052601260045260246000fd5b60006112ab82610bf9565b91506112b683610bf9565b9250826112c6576112c5611271565b5b828204905092915050565b60006112dc82610bf9565b91506112e783610bf9565b9250827fffffffffffffffffffffffffffffffffffffffffffffffffffffffffffffffff0382111561131c5761131b6111e8565b5b828201905092915050565b600061133282610bf9565b915061133d83610bf9565b9250828210156113505761134f6111e8565b5b828203905092915050565b600081519050919050565b600082825260208201905092915050565b6000819050602082019050919050565b600081519050919050565b600082825260208201905092915050565b60005b838110156113c15780820151818401526020810190506113a6565b838111156113d0576000848401525b50505050565b60006113e182611387565b6113eb8185611392565b93506113fb8185602086016113a3565b61140481610a7d565b840191505092915050565b61141881610bf9565b82525050565b61142781610a28565b82525050565b600060a083016000830151848203600086015261144a82826113d6565b915050602083015161145f602086018261140f565b506040830151848203604086015261147782826113d6565b915050606083015161148c606086018261141e565b50608083015184820360808601526114a482826113d6565b9150508091505092915050565b60006114bd838361142d565b905092915050565b6000602082019050919050565b60006114dd8261135b565b6114e78185611366565b9350836020820285016114f985611377565b8060005b85811015611535578484038952815161151685826114b1565b9450611521836114c5565b925060208a019950506001810190506114fd565b50829750879550505050505092915050565b6000604082019050818103600083015261156181856114d2565b905061157060208301846110e7565b9392505050565b600061158282611387565b61158c818561116b565b935061159c8185602086016113a3565b6115a581610a7d565b840191505092915050565b600060608201905081810360008301526115ca8186611577565b905081810360208301526115de8185611577565b90506115ed6040830184610e4c565b949350505050565b600081519050919050565b600082825260208201905092915050565b6000819050602082019050919050565b7f4e487b7100000000000000000000000000000000000000000000000000000000600052602160045260246000fd5b6003811061166157611660611621565b5b50565b600081905061167282611650565b919050565b600061168282611664565b9050919050565b61169281611677565b82525050565b600060a08301600083015184820360008601526116b582826113d6565b915050602083015184820360208601526116cf82826113d6565b91505060408301516116e46040860182611689565b5060608301516116f7606086018261140f565b50608083015161170a608086018261140f565b508091505092915050565b60006117218383611698565b905092915050565b6000602082019050919050565b6000611741826115f5565b61174b8185611600565b93508360208202850161175d85611611565b8060005b85811015611799578484038952815161177a8582611715565b945061178583611729565b925060208a01995050600181019050611761565b50829750879550505050505092915050565b600060408201905081810360008301526117c58185611736565b90506117d46020830184610e4c565b9392505050565b7f4f776e61626c653a206e6577206f776e657220697320746865207a65726f206160008201527f6464726573730000000000000000000000000000000000000000000000000000602082015250565b600061183760268361116b565b9150611842826117db565b604082019050919050565b600060208201905081810360008301526118668161182a565b9050919050565b7f455243313136373a20637265617465206661696c656400000000000000000000600082015250565b60006118a360168361116b565b91506118ae8261186d565b602082019050919050565b600060208201905081810360008301526118d281611896565b905091905056fea264697066735822122097670b44730cc185281ef37f79c8a33d9b3ac07d6b3dd5946b356f4bd76ef82964736f6c634300080d00336080604052600161013060146101000a81548160ff02191690831515021790555034801561002c57600080fd5b50615840806200003d6000396000f3fe60806040526004361061019c5760003560e01c80635a9b0b89116100ec578063b2bdfa7b1161008a578063c87b56dd11610064578063c87b56dd146105cb578063e985e9c514610608578063eb8d244414610645578063f2fde38b146106705761019c565b8063b2bdfa7b1461053a578063b88d4fde14610565578063bba7723e1461058e5761019c565b8063715018a6116100c6578063715018a6146104a45780638da5cb5b146104bb57806395d89b41146104e6578063a22cb465146105115761019c565b80635a9b0b89146103fd5780636352211e1461042a57806370a08231146104675761019c565b80630a967bc6116101595780632f745c59116101335780632f745c59146103315780633d181c7e1461036e57806342842e0e146103975780634f6ccce7146103c05761019c565b80630a967bc6146102c157806318160ddd146102dd57806323b872dd146103085761019c565b806301ffc9a7146101a157806302c88989146101de57806306fdde0314610207578063077f224a14610232578063081812fc1461025b578063095ea7b314610298575b600080fd5b3480156101ad57600080fd5b506101c860048036038101906101c391906133e0565b610699565b6040516101d59190613428565b60405180910390f35b3480156101ea57600080fd5b506102056004803603810190610200919061346f565b6106ab565b005b34801561021357600080fd5b5061021c610745565b6040516102299190613535565b60405180910390f35b34801561023e57600080fd5b50610259600480360381019061025491906136ea565b6107d7565b005b34801561026757600080fd5b50610282600480360381019061027d91906137ab565b610905565b60405161028f91906137e7565b60405180910390f35b3480156102a457600080fd5b506102bf60048036038101906102ba9190613802565b61098a565b005b6102db60048036038101906102d69190613a12565b610aa1565b005b3480156102e957600080fd5b506102f2610e55565b6040516102ff9190613a7d565b60405180910390f35b34801561031457600080fd5b5061032f600480360381019061032a9190613a98565b610e62565b005b34801561033d57600080fd5b5061035860048036038101906103539190613802565b610ec2565b6040516103659190613a7d565b60405180910390f35b34801561037a57600080fd5b5061039560048036038101906103909190613cb5565b610f67565b005b3480156103a357600080fd5b506103be60048036038101906103b99190613a98565b6110fc565b005b3480156103cc57600080fd5b506103e760048036038101906103e291906137ab565b61111c565b6040516103f49190613a7d565b60405180910390f35b34801561040957600080fd5b5061041261118d565b6040516104219392919061406e565b60405180910390f35b34801561043657600080fd5b50610451600480360381019061044c91906137ab565b611560565b60405161045e91906137e7565b60405180910390f35b34801561047357600080fd5b5061048e600480360381019061048991906140b3565b611611565b60405161049b9190613a7d565b60405180910390f35b3480156104b057600080fd5b506104b96116c8565b005b3480156104c757600080fd5b506104d0611750565b6040516104dd91906137e7565b60405180910390f35b3480156104f257600080fd5b506104fb61177a565b6040516105089190613535565b60405180910390f35b34801561051d57600080fd5b50610538600480360381019061053391906140e0565b61180c565b005b34801561054657600080fd5b5061054f611822565b60405161055c91906137e7565b60405180910390f35b34801561057157600080fd5b5061058c600480360381019061058791906141c1565b611849565b005b34801561059a57600080fd5b506105b560048036038101906105b091906140b3565b6118ab565b6040516105c291906142f3565b60405180910390f35b3480156105d757600080fd5b506105f260048036038101906105ed91906137ab565b611966565b6040516105ff9190613535565b60405180910390f35b34801561061457600080fd5b5061062f600480360381019061062a9190614315565b611978565b60405161063c9190613428565b60405180910390f35b34801561065157600080fd5b5061065a611a0c565b6040516106679190613428565b60405180910390f35b34801561067c57600080fd5b50610697600480360381019061069291906140b3565b611a20565b005b60006106a482611b17565b9050919050565b6106b3611b91565b73ffffffffffffffffffffffffffffffffffffffff166106d1611750565b73ffffffffffffffffffffffffffffffffffffffff1614610727576040517f08c379a000000000000000000000000000000000000000000000000000000000815260040161071e906143a1565b60405180910390fd5b8061013060146101000a81548160ff02191690831515021790555050565b606060658054610754906143f0565b80601f0160208091040260200160405190810160405280929190818152602001828054610780906143f0565b80156107cd5780601f106107a2576101008083540402835291602001916107cd565b820191906000526020600020905b8154815290600101906020018083116107b057829003601f168201915b5050505050905090565b60006107e36001611b99565b90508015610807576001600060016101000a81548160ff0219169083151502179055505b3361013260006101000a81548173ffffffffffffffffffffffffffffffffffffffff021916908373ffffffffffffffffffffffffffffffffffffffff1602179055508161013060006101000a81548173ffffffffffffffffffffffffffffffffffffffff021916908373ffffffffffffffffffffffffffffffffffffffff1602179055506108958484611c89565b61089d611ce6565b6108a682611a20565b80156108ff5760008060016101000a81548160ff0219169083151502179055507f7f26b83ff96e1f2b6a682f133852f6798a09c465da95921460cefb384740249860016040516108f69190614473565b60405180910390a15b50505050565b600061091082611d3f565b61094f576040517f08c379a000000000000000000000000000000000000000000000000000000000815260040161094690614500565b60405180910390fd5b6069600083815260200190815260200160002060009054906101000a900473ffffffffffffffffffffffffffffffffffffffff169050919050565b600061099582611560565b90508073ffffffffffffffffffffffffffffffffffffffff168373ffffffffffffffffffffffffffffffffffffffff1603610a05576040517f08c379a00000000000000000000000000000000000000000000000000000000081526004016109fc90614592565b60405180910390fd5b8073ffffffffffffffffffffffffffffffffffffffff16610a24611b91565b73ffffffffffffffffffffffffffffffffffffffff161480610a535750610a5281610a4d611b91565b611978565b5b610a92576040517f08c379a0000000000000000000000000000000000000000000000000000000008152600401610a8990614624565b60405180910390fd5b610a9c8383611dab565b505050565b61013260009054906101000a900473ffffffffffffffffffffffffffffffffffffffff1673ffffffffffffffffffffffffffffffffffffffff163373ffffffffffffffffffffffffffffffffffffffff1614610b32576040517f08c379a0000000000000000000000000000000000000000000000000000000008152600401610b2990614690565b60405180910390fd5b61013060149054906101000a900460ff16610b4c57600080fd5b61012e73__TicketManager_________________________6341023a1e9091846040518363ffffffff1660e01b8152600401610b89929190614865565b602060405180830381865af4158015610ba6573d6000803e3d6000fd5b505050506040513d601f19601f82011682018060405250810190610bca91906148aa565b8134610bd69190614906565b1015610c17576040517f08c379a0000000000000000000000000000000000000000000000000000000008152600401610c0e906149a8565b60405180910390fd5b60005b8251811015610dcc576000838281518110610c3857610c376149c8565b5b60200260200101519050610c5b816020015161012e611e6490919063ffffffff16565b6000610c6861012d611ed2565b9050610c78826060015182611ee0565b610c91826020015161012e6120b990919063ffffffff16565b610c9c61012d6120fc565b610caa818360400151612112565b61012e6001016040518060a0016040528084600001518152602001846060015173ffffffffffffffffffffffffffffffffffffffff16815260200183815260200184602001518152602001846080015181525090806001815401808255809150506001900390600052602060002090600502016000909190919091506000820151816000019080519060200190610d429291906132d1565b5060208201518160010160006101000a81548173ffffffffffffffffffffffffffffffffffffffff021916908373ffffffffffffffffffffffffffffffffffffffff16021790555060408201518160020155606082015181600301556080820151816004019080519060200190610dba9291906132d1565b50505082806001019350505050610c1a565b5061013060009054906101000a900473ffffffffffffffffffffffffffffffffffffffff1673ffffffffffffffffffffffffffffffffffffffff166108fc349081150290604051600060405180830381858888f19350505050158015610e36573d6000803e3d6000fd5b50346101316000828254610e4a9190614906565b925050819055505050565b600060fd80549050905090565b610e73610e6d611b91565b82612186565b610eb2576040517f08c379a0000000000000000000000000000000000000000000000000000000008152600401610ea990614a69565b60405180910390fd5b610ebd838383612264565b505050565b6000610ecd83611611565b8210610f0e576040517f08c379a0000000000000000000000000000000000000000000000000000000008152600401610f0590614afb565b60405180910390fd5b60fb60008473ffffffffffffffffffffffffffffffffffffffff1673ffffffffffffffffffffffffffffffffffffffff168152602001908152602001600020600083815260200190815260200160002054905092915050565b61013260009054906101000a900473ffffffffffffffffffffffffffffffffffffffff1673ffffffffffffffffffffffffffffffffffffffff163373ffffffffffffffffffffffffffffffffffffffff1614610ff8576040517f08c379a0000000000000000000000000000000000000000000000000000000008152600401610fef90614690565b60405180910390fd5b8061013060009054906101000a900473ffffffffffffffffffffffffffffffffffffffff1673ffffffffffffffffffffffffffffffffffffffff168173ffffffffffffffffffffffffffffffffffffffff161461108a576040517f08c379a000000000000000000000000000000000000000000000000000000000815260040161108190614690565b60405180910390fd5b61012e73__TicketManager_________________________63a2a93cbf9091856040518363ffffffff1660e01b81526004016110c7929190614c41565b60006040518083038186803b1580156110df57600080fd5b505af41580156110f3573d6000803e3d6000fd5b50505050505050565b61111783838360405180602001604052806000815250611849565b505050565b6000611126610e55565b8210611167576040517f08c379a000000000000000000000000000000000000000000000000000000000815260040161115e90614ce3565b60405180910390fd5b60fd828154811061117b5761117a6149c8565b5b90600052602060002001549050919050565b60006060806101315461012e60010161012e60000181805480602002602001604051908101604052809291908181526020016000905b8282101561138357838290600052602060002090600502016040518060a00160405290816000820180546111f6906143f0565b80601f0160208091040260200160405190810160405280929190818152602001828054611222906143f0565b801561126f5780601f106112445761010080835404028352916020019161126f565b820191906000526020600020905b81548152906001019060200180831161125257829003601f168201915b505050505081526020016001820160009054906101000a900473ffffffffffffffffffffffffffffffffffffffff1673ffffffffffffffffffffffffffffffffffffffff1673ffffffffffffffffffffffffffffffffffffffff16815260200160028201548152602001600382015481526020016004820180546112f2906143f0565b80601f016020809104026020016040519081016040528092919081815260200182805461131e906143f0565b801561136b5780601f106113405761010080835404028352916020019161136b565b820191906000526020600020905b81548152906001019060200180831161134e57829003601f168201915b505050505081525050815260200190600101906111c3565b50505050915080805480602002602001604051908101604052809291908181526020016000905b8282101561154f57838290600052602060002090600502016040518060a00160405290816000820180546113dd906143f0565b80601f0160208091040260200160405190810160405280929190818152602001828054611409906143f0565b80156114565780601f1061142b57610100808354040283529160200191611456565b820191906000526020600020905b81548152906001019060200180831161143957829003601f168201915b5050505050815260200160018201805461146f906143f0565b80601f016020809104026020016040519081016040528092919081815260200182805461149b906143f0565b80156114e85780601f106114bd576101008083540402835291602001916114e8565b820191906000526020600020905b8154815290600101906020018083116114cb57829003601f168201915b505050505081526020016002820160009054906101000a900460ff16600281111561151657611515613ee4565b5b600281111561152857611527613ee4565b5b815260200160038201548152602001600482015481525050815260200190600101906113aa565b505050509050925092509250909192565b6000806067600084815260200190815260200160002060009054906101000a900473ffffffffffffffffffffffffffffffffffffffff169050600073ffffffffffffffffffffffffffffffffffffffff168173ffffffffffffffffffffffffffffffffffffffff1603611608576040517f08c379a00000000000000000000000000000000000000000000000000000000081526004016115ff90614d75565b60405180910390fd5b80915050919050565b60008073ffffffffffffffffffffffffffffffffffffffff168273ffffffffffffffffffffffffffffffffffffffff1603611681576040517f08c379a000000000000000000000000000000000000000000000000000000000815260040161167890614e07565b60405180910390fd5b606860008373ffffffffffffffffffffffffffffffffffffffff1673ffffffffffffffffffffffffffffffffffffffff168152602001908152602001600020549050919050565b6116d0611b91565b73ffffffffffffffffffffffffffffffffffffffff166116ee611750565b73ffffffffffffffffffffffffffffffffffffffff1614611744576040517f08c379a000000000000000000000000000000000000000000000000000000000815260040161173b906143a1565b60405180910390fd5b61174e60006124ca565b565b600060c960009054906101000a900473ffffffffffffffffffffffffffffffffffffffff16905090565b606060668054611789906143f0565b80601f01602080910402602001604051908101604052809291908181526020018280546117b5906143f0565b80156118025780601f106117d757610100808354040283529160200191611802565b820191906000526020600020905b8154815290600101906020018083116117e557829003601f168201915b5050505050905090565b61181e611817611b91565b8383612590565b5050565b61013060009054906101000a900473ffffffffffffffffffffffffffffffffffffffff1681565b61185a611854611b91565b83612186565b611899576040517f08c379a000000000000000000000000000000000000000000000000000000000815260040161189090614a69565b60405180910390fd5b6118a5848484846126fc565b50505050565b606060006118b883611611565b905060008167ffffffffffffffff8111156118d6576118d5613561565b5b6040519080825280602002602001820160405280156119045781602001602082028036833780820191505090505b50905060008203611919578092505050611961565b60005b8281101561195a5761192e8582610ec2565b828281518110611941576119406149c8565b5b602002602001018181525050808060010191505061191c565b5080925050505b919050565b606061197182612758565b9050919050565b6000606a60008473ffffffffffffffffffffffffffffffffffffffff1673ffffffffffffffffffffffffffffffffffffffff16815260200190815260200160002060008373ffffffffffffffffffffffffffffffffffffffff1673ffffffffffffffffffffffffffffffffffffffff16815260200190815260200160002060009054906101000a900460ff16905092915050565b61013060149054906101000a900460ff1681565b611a28611b91565b73ffffffffffffffffffffffffffffffffffffffff16611a46611750565b73ffffffffffffffffffffffffffffffffffffffff1614611a9c576040517f08c379a0000000000000000000000000000000000000000000000000000000008152600401611a93906143a1565b60405180910390fd5b600073ffffffffffffffffffffffffffffffffffffffff168173ffffffffffffffffffffffffffffffffffffffff1603611b0b576040517f08c379a0000000000000000000000000000000000000000000000000000000008152600401611b0290614e99565b60405180910390fd5b611b14816124ca565b50565b60007f780e9d63000000000000000000000000000000000000000000000000000000007bffffffffffffffffffffffffffffffffffffffffffffffffffffffff1916827bffffffffffffffffffffffffffffffffffffffffffffffffffffffff19161480611b8a5750611b89826128a9565b5b9050919050565b600033905090565b60008060019054906101000a900460ff1615611c105760018260ff16148015611bc85750611bc63061298b565b155b611c07576040517f08c379a0000000000000000000000000000000000000000000000000000000008152600401611bfe90614f2b565b60405180910390fd5b60009050611c84565b8160ff1660008054906101000a900460ff1660ff1610611c65576040517f08c379a0000000000000000000000000000000000000000000000000000000008152600401611c5c90614f2b565b60405180910390fd5b816000806101000a81548160ff021916908360ff160217905550600190505b919050565b600060019054906101000a900460ff16611cd8576040517f08c379a0000000000000000000000000000000000000000000000000000000008152600401611ccf90614fbd565b60405180910390fd5b611ce282826129ae565b5050565b600060019054906101000a900460ff16611d35576040517f08c379a0000000000000000000000000000000000000000000000000000000008152600401611d2c90614fbd565b60405180910390fd5b611d3d612a2f565b565b60008073ffffffffffffffffffffffffffffffffffffffff166067600084815260200190815260200160002060009054906101000a900473ffffffffffffffffffffffffffffffffffffffff1673ffffffffffffffffffffffffffffffffffffffff1614159050919050565b816069600083815260200190815260200160002060006101000a81548173ffffffffffffffffffffffffffffffffffffffff021916908373ffffffffffffffffffffffffffffffffffffffff160217905550808273ffffffffffffffffffffffffffffffffffffffff16611e1e83611560565b73ffffffffffffffffffffffffffffffffffffffff167f8c5be1e5ebec7d5bd14f71427d1e84f3dd0314c0f7b2291e5b200ac8c7c3b92560405160405180910390a45050565b6000826000018281548110611e7c57611e7b6149c8565b5b90600052602060002090600502016003015411611ece576040517f08c379a0000000000000000000000000000000000000000000000000000000008152600401611ec590615029565b60405180910390fd5b5050565b600081600001549050919050565b600073ffffffffffffffffffffffffffffffffffffffff168273ffffffffffffffffffffffffffffffffffffffff1603611f4f576040517f08c379a0000000000000000000000000000000000000000000000000000000008152600401611f4690615095565b60405180910390fd5b611f5881611d3f565b15611f98576040517f08c379a0000000000000000000000000000000000000000000000000000000008152600401611f8f90615101565b60405180910390fd5b611fa460008383612a90565b6001606860008473ffffffffffffffffffffffffffffffffffffffff1673ffffffffffffffffffffffffffffffffffffffff1681526020019081526020016000206000828254611ff49190614906565b92505081905550816067600083815260200190815260200160002060006101000a81548173ffffffffffffffffffffffffffffffffffffffff021916908373ffffffffffffffffffffffffffffffffffffffff160217905550808273ffffffffffffffffffffffffffffffffffffffff16600073ffffffffffffffffffffffffffffffffffffffff167fddf252ad1be2c89b69c2b068fc378daa952ba7f163c4a11628f55a4df523b3ef60405160405180910390a46120b560008383612aa0565b5050565b60018260000182815481106120d1576120d06149c8565b5b906000526020600020906005020160030160008282546120f19190615121565b925050819055505050565b6001816000016000828254019250508190555050565b61211b82611d3f565b61215a576040517f08c379a0000000000000000000000000000000000000000000000000000000008152600401612151906151c7565b60405180910390fd5b806097600084815260200190815260200160002090805190602001906121819291906132d1565b505050565b600061219182611d3f565b6121d0576040517f08c379a00000000000000000000000000000000000000000000000000000000081526004016121c790615259565b60405180910390fd5b60006121db83611560565b90508073ffffffffffffffffffffffffffffffffffffffff168473ffffffffffffffffffffffffffffffffffffffff16148061221d575061221c8185611978565b5b8061225b57508373ffffffffffffffffffffffffffffffffffffffff1661224384610905565b73ffffffffffffffffffffffffffffffffffffffff16145b91505092915050565b8273ffffffffffffffffffffffffffffffffffffffff1661228482611560565b73ffffffffffffffffffffffffffffffffffffffff16146122da576040517f08c379a00000000000000000000000000000000000000000000000000000000081526004016122d1906152eb565b60405180910390fd5b600073ffffffffffffffffffffffffffffffffffffffff168273ffffffffffffffffffffffffffffffffffffffff1603612349576040517f08c379a00000000000000000000000000000000000000000000000000000000081526004016123409061537d565b60405180910390fd5b612354838383612a90565b61235f600082611dab565b6001606860008573ffffffffffffffffffffffffffffffffffffffff1673ffffffffffffffffffffffffffffffffffffffff16815260200190815260200160002060008282546123af9190615121565b925050819055506001606860008473ffffffffffffffffffffffffffffffffffffffff1673ffffffffffffffffffffffffffffffffffffffff16815260200190815260200160002060008282546124069190614906565b92505081905550816067600083815260200190815260200160002060006101000a81548173ffffffffffffffffffffffffffffffffffffffff021916908373ffffffffffffffffffffffffffffffffffffffff160217905550808273ffffffffffffffffffffffffffffffffffffffff168473ffffffffffffffffffffffffffffffffffffffff167fddf252ad1be2c89b69c2b068fc378daa952ba7f163c4a11628f55a4df523b3ef60405160405180910390a46124c5838383612aa0565b505050565b600060c960009054906101000a900473ffffffffffffffffffffffffffffffffffffffff1690508160c960006101000a81548173ffffffffffffffffffffffffffffffffffffffff021916908373ffffffffffffffffffffffffffffffffffffffff1602179055508173ffffffffffffffffffffffffffffffffffffffff168173ffffffffffffffffffffffffffffffffffffffff167f8be0079c531659141344cd1fd0a4f28419497f9722a3daafe3b4186f6b6457e060405160405180910390a35050565b8173ffffffffffffffffffffffffffffffffffffffff168373ffffffffffffffffffffffffffffffffffffffff16036125fe576040517f08c379a00000000000000000000000000000000000000000000000000000000081526004016125f5906153e9565b60405180910390fd5b80606a60008573ffffffffffffffffffffffffffffffffffffffff1673ffffffffffffffffffffffffffffffffffffffff16815260200190815260200160002060008473ffffffffffffffffffffffffffffffffffffffff1673ffffffffffffffffffffffffffffffffffffffff16815260200190815260200160002060006101000a81548160ff0219169083151502179055508173ffffffffffffffffffffffffffffffffffffffff168373ffffffffffffffffffffffffffffffffffffffff167f17307eab39ab6107e8899845ad3d59bd9653f200f220920489ca2b5937696c31836040516126ef9190613428565b60405180910390a3505050565b612707848484612264565b61271384848484612aa5565b612752576040517f08c379a00000000000000000000000000000000000000000000000000000000081526004016127499061547b565b60405180910390fd5b50505050565b606061276382611d3f565b6127a2576040517f08c379a00000000000000000000000000000000000000000000000000000000081526004016127999061550d565b60405180910390fd5b60006097600084815260200190815260200160002080546127c2906143f0565b80601f01602080910402602001604051908101604052809291908181526020018280546127ee906143f0565b801561283b5780601f106128105761010080835404028352916020019161283b565b820191906000526020600020905b81548152906001019060200180831161281e57829003601f168201915b50505050509050600061284c612c2c565b905060008151036128615781925050506128a4565b60008251111561289657808260405160200161287e929190615569565b604051602081830303815290604052925050506128a4565b61289f84612c43565b925050505b919050565b60007f80ac58cd000000000000000000000000000000000000000000000000000000007bffffffffffffffffffffffffffffffffffffffffffffffffffffffff1916827bffffffffffffffffffffffffffffffffffffffffffffffffffffffff1916148061297457507f5b5e139f000000000000000000000000000000000000000000000000000000007bffffffffffffffffffffffffffffffffffffffffffffffffffffffff1916827bffffffffffffffffffffffffffffffffffffffffffffffffffffffff1916145b80612984575061298382612cea565b5b9050919050565b6000808273ffffffffffffffffffffffffffffffffffffffff163b119050919050565b600060019054906101000a900460ff166129fd576040517f08c379a00000000000000000000000000000000000000000000000000000000081526004016129f490614fbd565b60405180910390fd5b8160659080519060200190612a139291906132d1565b508060669080519060200190612a2a9291906132d1565b505050565b600060019054906101000a900460ff16612a7e576040517f08c379a0000000000000000000000000000000000000000000000000000000008152600401612a7590614fbd565b60405180910390fd5b612a8e612a89611b91565b6124ca565b565b612a9b838383612d54565b505050565b505050565b6000612ac68473ffffffffffffffffffffffffffffffffffffffff1661298b565b15612c1f578373ffffffffffffffffffffffffffffffffffffffff1663150b7a02612aef611b91565b8786866040518563ffffffff1660e01b8152600401612b1194939291906155e2565b6020604051808303816000875af1925050508015612b4d57506040513d601f19601f82011682018060405250810190612b4a9190615643565b60015b612bcf573d8060008114612b7d576040519150601f19603f3d011682016040523d82523d6000602084013e612b82565b606091505b506000815103612bc7576040517f08c379a0000000000000000000000000000000000000000000000000000000008152600401612bbe9061547b565b60405180910390fd5b805181602001fd5b63150b7a0260e01b7bffffffffffffffffffffffffffffffffffffffffffffffffffffffff1916817bffffffffffffffffffffffffffffffffffffffffffffffffffffffff191614915050612c24565b600190505b949350505050565b606060405180602001604052806000815250905090565b6060612c4e82611d3f565b612c8d576040517f08c379a0000000000000000000000000000000000000000000000000000000008152600401612c84906156e2565b60405180910390fd5b6000612c97612c2c565b90506000815111612cb75760405180602001604052806000815250612ce2565b80612cc184612e66565b604051602001612cd2929190615569565b6040516020818303038152906040525b915050919050565b60007f01ffc9a7000000000000000000000000000000000000000000000000000000007bffffffffffffffffffffffffffffffffffffffffffffffffffffffff1916827bffffffffffffffffffffffffffffffffffffffffffffffffffffffff1916149050919050565b612d5f838383612fc6565b600073ffffffffffffffffffffffffffffffffffffffff168373ffffffffffffffffffffffffffffffffffffffff1603612da157612d9c81612fcb565b612de0565b8173ffffffffffffffffffffffffffffffffffffffff168373ffffffffffffffffffffffffffffffffffffffff1614612ddf57612dde8382613014565b5b5b600073ffffffffffffffffffffffffffffffffffffffff168273ffffffffffffffffffffffffffffffffffffffff1603612e2257612e1d81613181565b612e61565b8273ffffffffffffffffffffffffffffffffffffffff168273ffffffffffffffffffffffffffffffffffffffff1614612e6057612e5f8282613252565b5b5b505050565b606060008203612ead576040518060400160405280600181526020017f30000000000000000000000000000000000000000000000000000000000000008152509050612fc1565b600082905060005b60008214612edf578080612ec890615702565b915050600a82612ed89190615779565b9150612eb5565b60008167ffffffffffffffff811115612efb57612efa613561565b5b6040519080825280601f01601f191660200182016040528015612f2d5781602001600182028036833780820191505090505b5090505b60008514612fba57600182612f469190615121565b9150600a85612f5591906157aa565b6030612f619190614906565b60f81b818381518110612f7757612f766149c8565b5b60200101907effffffffffffffffffffffffffffffffffffffffffffffffffffffffffffff1916908160001a905350600a85612fb39190615779565b9450612f31565b8093505050505b919050565b505050565b60fd8054905060fe60008381526020019081526020016000208190555060fd81908060018154018082558091505060019003906000526020600020016000909190919091505550565b6000600161302184611611565b61302b9190615121565b9050600060fc600084815260200190815260200160002054905081811461311057600060fb60008673ffffffffffffffffffffffffffffffffffffffff1673ffffffffffffffffffffffffffffffffffffffff16815260200190815260200160002060008481526020019081526020016000205490508060fb60008773ffffffffffffffffffffffffffffffffffffffff1673ffffffffffffffffffffffffffffffffffffffff1681526020019081526020016000206000848152602001908152602001600020819055508160fc600083815260200190815260200160002081905550505b60fc60008481526020019081526020016000206000905560fb60008573ffffffffffffffffffffffffffffffffffffffff1673ffffffffffffffffffffffffffffffffffffffff16815260200190815260200160002060008381526020019081526020016000206000905550505050565b6000600160fd805490506131959190615121565b9050600060fe6000848152602001908152602001600020549050600060fd83815481106131c5576131c46149c8565b5b906000526020600020015490508060fd83815481106131e7576131e66149c8565b5b90600052602060002001819055508160fe60008381526020019081526020016000208190555060fe60008581526020019081526020016000206000905560fd805480613236576132356157db565b5b6001900381819060005260206000200160009055905550505050565b600061325d83611611565b90508160fb60008573ffffffffffffffffffffffffffffffffffffffff1673ffffffffffffffffffffffffffffffffffffffff1681526020019081526020016000206000838152602001908152602001600020819055508060fc600084815260200190815260200160002081905550505050565b8280546132dd906143f0565b90600052602060002090601f0160209004810192826132ff5760008555613346565b82601f1061331857805160ff1916838001178555613346565b82800160010185558215613346579182015b8281111561334557825182559160200191906001019061332a565b5b5090506133539190613357565b5090565b5b80821115613370576000816000905550600101613358565b5090565b6000604051905090565b600080fd5b600080fd5b60007fffffffff0000000000000000000000000000000000000000000000000000000082169050919050565b6133bd81613388565b81146133c857600080fd5b50565b6000813590506133da816133b4565b92915050565b6000602082840312156133f6576133f561337e565b5b6000613404848285016133cb565b91505092915050565b60008115159050919050565b6134228161340d565b82525050565b600060208201905061343d6000830184613419565b92915050565b61344c8161340d565b811461345757600080fd5b50565b60008135905061346981613443565b92915050565b6000602082840312156134855761348461337e565b5b60006134938482850161345a565b91505092915050565b600081519050919050565b600082825260208201905092915050565b60005b838110156134d65780820151818401526020810190506134bb565b838111156134e5576000848401525b50505050565b6000601f19601f8301169050919050565b60006135078261349c565b61351181856134a7565b93506135218185602086016134b8565b61352a816134eb565b840191505092915050565b6000602082019050818103600083015261354f81846134fc565b905092915050565b600080fd5b600080fd5b7f4e487b7100000000000000000000000000000000000000000000000000000000600052604160045260246000fd5b613599826134eb565b810181811067ffffffffffffffff821117156135b8576135b7613561565b5b80604052505050565b60006135cb613374565b90506135d78282613590565b919050565b600067ffffffffffffffff8211156135f7576135f6613561565b5b613600826134eb565b9050602081019050919050565b82818337600083830152505050565b600061362f61362a846135dc565b6135c1565b90508281526020810184848401111561364b5761364a61355c565b5b61365684828561360d565b509392505050565b600082601f83011261367357613672613557565b5b813561368384826020860161361c565b91505092915050565b600073ffffffffffffffffffffffffffffffffffffffff82169050919050565b60006136b78261368c565b9050919050565b6136c7816136ac565b81146136d257600080fd5b50565b6000813590506136e4816136be565b92915050565b6000806000606084860312156137035761370261337e565b5b600084013567ffffffffffffffff81111561372157613720613383565b5b61372d8682870161365e565b935050602084013567ffffffffffffffff81111561374e5761374d613383565b5b61375a8682870161365e565b925050604061376b868287016136d5565b9150509250925092565b6000819050919050565b61378881613775565b811461379357600080fd5b50565b6000813590506137a58161377f565b92915050565b6000602082840312156137c1576137c061337e565b5b60006137cf84828501613796565b91505092915050565b6137e1816136ac565b82525050565b60006020820190506137fc60008301846137d8565b92915050565b600080604083850312156138195761381861337e565b5b6000613827858286016136d5565b925050602061383885828601613796565b9150509250929050565b600067ffffffffffffffff82111561385d5761385c613561565b5b602082029050602081019050919050565b600080fd5b600080fd5b600080fd5b600060a0828403121561389357613892613873565b5b61389d60a06135c1565b9050600082013567ffffffffffffffff8111156138bd576138bc613878565b5b6138c98482850161365e565b60008301525060206138dd84828501613796565b602083015250604082013567ffffffffffffffff81111561390157613900613878565b5b61390d8482850161365e565b6040830152506060613921848285016136d5565b606083015250608082013567ffffffffffffffff81111561394557613944613878565b5b6139518482850161365e565b60808301525092915050565b600061397061396b84613842565b6135c1565b905080838252602082019050602084028301858111156139935761399261386e565b5b835b818110156139da57803567ffffffffffffffff8111156139b8576139b7613557565b5b8086016139c5898261387d565b85526020850194505050602081019050613995565b5050509392505050565b600082601f8301126139f9576139f8613557565b5b8135613a0984826020860161395d565b91505092915050565b60008060408385031215613a2957613a2861337e565b5b600083013567ffffffffffffffff811115613a4757613a46613383565b5b613a53858286016139e4565b9250506020613a6485828601613796565b9150509250929050565b613a7781613775565b82525050565b6000602082019050613a926000830184613a6e565b92915050565b600080600060608486031215613ab157613ab061337e565b5b6000613abf868287016136d5565b9350506020613ad0868287016136d5565b9250506040613ae186828701613796565b9150509250925092565b600067ffffffffffffffff821115613b0657613b05613561565b5b602082029050602081019050919050565b60038110613b2457600080fd5b50565b600081359050613b3681613b17565b92915050565b600060a08284031215613b5257613b51613873565b5b613b5c60a06135c1565b9050600082013567ffffffffffffffff811115613b7c57613b7b613878565b5b613b888482850161365e565b600083015250602082013567ffffffffffffffff811115613bac57613bab613878565b5b613bb88482850161365e565b6020830152506040613bcc84828501613b27565b6040830152506060613be084828501613796565b6060830152506080613bf484828501613796565b60808301525092915050565b6000613c13613c0e84613aeb565b6135c1565b90508083825260208201905060208402830185811115613c3657613c3561386e565b5b835b81811015613c7d57803567ffffffffffffffff811115613c5b57613c5a613557565b5b808601613c688982613b3c565b85526020850194505050602081019050613c38565b5050509392505050565b600082601f830112613c9c57613c9b613557565b5b8135613cac848260208601613c00565b91505092915050565b60008060408385031215613ccc57613ccb61337e565b5b600083013567ffffffffffffffff811115613cea57613ce9613383565b5b613cf685828601613c87565b9250506020613d07858286016136d5565b9150509250929050565b600081519050919050565b600082825260208201905092915050565b6000819050602082019050919050565b600082825260208201905092915050565b6000613d598261349c565b613d638185613d3d565b9350613d738185602086016134b8565b613d7c816134eb565b840191505092915050565b613d90816136ac565b82525050565b613d9f81613775565b82525050565b600060a0830160008301518482036000860152613dc28282613d4e565b9150506020830151613dd76020860182613d87565b506040830151613dea6040860182613d96565b506060830151613dfd6060860182613d96565b5060808301518482036080860152613e158282613d4e565b9150508091505092915050565b6000613e2e8383613da5565b905092915050565b6000602082019050919050565b6000613e4e82613d11565b613e588185613d1c565b935083602082028501613e6a85613d2d565b8060005b85811015613ea65784840389528151613e878582613e22565b9450613e9283613e36565b925060208a01995050600181019050613e6e565b50829750879550505050505092915050565b600081519050919050565b600082825260208201905092915050565b6000819050602082019050919050565b7f4e487b7100000000000000000000000000000000000000000000000000000000600052602160045260246000fd5b60038110613f2457613f23613ee4565b5b50565b6000819050613f3582613f13565b919050565b6000613f4582613f27565b9050919050565b613f5581613f3a565b82525050565b600060a0830160008301518482036000860152613f788282613d4e565b91505060208301518482036020860152613f928282613d4e565b9150506040830151613fa76040860182613f4c565b506060830151613fba6060860182613d96565b506080830151613fcd6080860182613d96565b508091505092915050565b6000613fe48383613f5b565b905092915050565b6000602082019050919050565b600061400482613eb8565b61400e8185613ec3565b93508360208202850161402085613ed4565b8060005b8581101561405c578484038952815161403d8582613fd8565b945061404883613fec565b925060208a01995050600181019050614024565b50829750879550505050505092915050565b60006060820190506140836000830186613a6e565b81810360208301526140958185613e43565b905081810360408301526140a98184613ff9565b9050949350505050565b6000602082840312156140c9576140c861337e565b5b60006140d7848285016136d5565b91505092915050565b600080604083850312156140f7576140f661337e565b5b6000614105858286016136d5565b92505060206141168582860161345a565b9150509250929050565b600067ffffffffffffffff82111561413b5761413a613561565b5b614144826134eb565b9050602081019050919050565b600061416461415f84614120565b6135c1565b9050828152602081018484840111156141805761417f61355c565b5b61418b84828561360d565b509392505050565b600082601f8301126141a8576141a7613557565b5b81356141b8848260208601614151565b91505092915050565b600080600080608085870312156141db576141da61337e565b5b60006141e9878288016136d5565b94505060206141fa878288016136d5565b935050604061420b87828801613796565b925050606085013567ffffffffffffffff81111561422c5761422b613383565b5b61423887828801614193565b91505092959194509250565b600081519050919050565b600082825260208201905092915050565b6000819050602082019050919050565b600061427c8383613d96565b60208301905092915050565b6000602082019050919050565b60006142a082614244565b6142aa818561424f565b93506142b583614260565b8060005b838110156142e65781516142cd8882614270565b97506142d883614288565b9250506001810190506142b9565b5085935050505092915050565b6000602082019050818103600083015261430d8184614295565b905092915050565b6000806040838503121561432c5761432b61337e565b5b600061433a858286016136d5565b925050602061434b858286016136d5565b9150509250929050565b7f4f776e61626c653a2063616c6c6572206973206e6f7420746865206f776e6572600082015250565b600061438b6020836134a7565b915061439682614355565b602082019050919050565b600060208201905081810360008301526143ba8161437e565b9050919050565b7f4e487b7100000000000000000000000000000000000000000000000000000000600052602260045260246000fd5b6000600282049050600182168061440857607f821691505b60208210810361441b5761441a6143c1565b5b50919050565b6000819050919050565b600060ff82169050919050565b6000819050919050565b600061445d61445861445384614421565b614438565b61442b565b9050919050565b61446d81614442565b82525050565b60006020820190506144886000830184614464565b92915050565b7f4552433732313a20617070726f76656420717565727920666f72206e6f6e657860008201527f697374656e7420746f6b656e0000000000000000000000000000000000000000602082015250565b60006144ea602c836134a7565b91506144f58261448e565b604082019050919050565b60006020820190508181036000830152614519816144dd565b9050919050565b7f4552433732313a20617070726f76616c20746f2063757272656e74206f776e6560008201527f7200000000000000000000000000000000000000000000000000000000000000602082015250565b600061457c6021836134a7565b915061458782614520565b604082019050919050565b600060208201905081810360008301526145ab8161456f565b9050919050565b7f4552433732313a20617070726f76652063616c6c6572206973206e6f74206f7760008201527f6e6572206e6f7220617070726f76656420666f7220616c6c0000000000000000602082015250565b600061460e6038836134a7565b9150614619826145b2565b604082019050919050565b6000602082019050818103600083015261463d81614601565b9050919050565b7f4552525f41434345535300000000000000000000000000000000000000000000600082015250565b600061467a600a836134a7565b915061468582614644565b602082019050919050565b600060208201905081810360008301526146a98161466d565b9050919050565b8082525050565b600081519050919050565b600082825260208201905092915050565b6000819050602082019050919050565b600082825260208201905092915050565b60006146ff8261349c565b61470981856146e3565b93506147198185602086016134b8565b614722816134eb565b840191505092915050565b61473681613775565b82525050565b614745816136ac565b82525050565b600060a083016000830151848203600086015261476882826146f4565b915050602083015161477d602086018261472d565b506040830151848203604086015261479582826146f4565b91505060608301516147aa606086018261473c565b50608083015184820360808601526147c282826146f4565b9150508091505092915050565b60006147db838361474b565b905092915050565b6000602082019050919050565b60006147fb826146b7565b61480581856146c2565b935083602082028501614817856146d3565b8060005b85811015614853578484038952815161483485826147cf565b945061483f836147e3565b925060208a0199505060018101905061481b565b50829750879550505050505092915050565b600060408201905061487a60008301856146b0565b818103602083015261488c81846147f0565b90509392505050565b6000815190506148a48161377f565b92915050565b6000602082840312156148c0576148bf61337e565b5b60006148ce84828501614895565b91505092915050565b7f4e487b7100000000000000000000000000000000000000000000000000000000600052601160045260246000fd5b600061491182613775565b915061491c83613775565b9250827fffffffffffffffffffffffffffffffffffffffffffffffffffffffffffffffff03821115614951576149506148d7565b5b828201905092915050565b7f4552525f554e4445525052494345440000000000000000000000000000000000600082015250565b6000614992600f836134a7565b915061499d8261495c565b602082019050919050565b600060208201905081810360008301526149c181614985565b9050919050565b7f4e487b7100000000000000000000000000000000000000000000000000000000600052603260045260246000fd5b7f4552433732313a207472616e736665722063616c6c6572206973206e6f74206f60008201527f776e6572206e6f7220617070726f766564000000000000000000000000000000602082015250565b6000614a536031836134a7565b9150614a5e826149f7565b604082019050919050565b60006020820190508181036000830152614a8281614a46565b9050919050565b7f455243373231456e756d657261626c653a206f776e657220696e646578206f7560008201527f74206f6620626f756e6473000000000000000000000000000000000000000000602082015250565b6000614ae5602b836134a7565b9150614af082614a89565b604082019050919050565b60006020820190508181036000830152614b1481614ad8565b9050919050565b600082825260208201905092915050565b614b3581613f3a565b82525050565b600060a0830160008301518482036000860152614b5882826146f4565b91505060208301518482036020860152614b7282826146f4565b9150506040830151614b876040860182614b2c565b506060830151614b9a606086018261472d565b506080830151614bad608086018261472d565b508091505092915050565b6000614bc48383614b3b565b905092915050565b6000614bd782613eb8565b614be18185614b1b565b935083602082028501614bf385613ed4565b8060005b85811015614c2f5784840389528151614c108582614bb8565b9450614c1b83613fec565b925060208a01995050600181019050614bf7565b50829750879550505050505092915050565b6000604082019050614c5660008301856146b0565b8181036020830152614c688184614bcc565b90509392505050565b7f455243373231456e756d657261626c653a20676c6f62616c20696e646578206f60008201527f7574206f6620626f756e64730000000000000000000000000000000000000000602082015250565b6000614ccd602c836134a7565b9150614cd882614c71565b604082019050919050565b60006020820190508181036000830152614cfc81614cc0565b9050919050565b7f4552433732313a206f776e657220717565727920666f72206e6f6e657869737460008201527f656e7420746f6b656e0000000000000000000000000000000000000000000000602082015250565b6000614d5f6029836134a7565b9150614d6a82614d03565b604082019050919050565b60006020820190508181036000830152614d8e81614d52565b9050919050565b7f4552433732313a2062616c616e636520717565727920666f7220746865207a6560008201527f726f206164647265737300000000000000000000000000000000000000000000602082015250565b6000614df1602a836134a7565b9150614dfc82614d95565b604082019050919050565b60006020820190508181036000830152614e2081614de4565b9050919050565b7f4f776e61626c653a206e6577206f776e657220697320746865207a65726f206160008201527f6464726573730000000000000000000000000000000000000000000000000000602082015250565b6000614e836026836134a7565b9150614e8e82614e27565b604082019050919050565b60006020820190508181036000830152614eb281614e76565b9050919050565b7f496e697469616c697a61626c653a20636f6e747261637420697320616c72656160008201527f647920696e697469616c697a6564000000000000000000000000000000000000602082015250565b6000614f15602e836134a7565b9150614f2082614eb9565b604082019050919050565b60006020820190508181036000830152614f4481614f08565b9050919050565b7f496e697469616c697a61626c653a20636f6e7472616374206973206e6f74206960008201527f6e697469616c697a696e67000000000000000000000000000000000000000000602082015250565b6000614fa7602b836134a7565b9150614fb282614f4b565b604082019050919050565b60006020820190508181036000830152614fd681614f9a565b9050919050565b7f5449434b45545f534f4c445f4f55540000000000000000000000000000000000600082015250565b6000615013600f836134a7565b915061501e82614fdd565b602082019050919050565b6000602082019050818103600083015261504281615006565b9050919050565b7f4552433732313a206d696e7420746f20746865207a65726f2061646472657373600082015250565b600061507f6020836134a7565b915061508a82615049565b602082019050919050565b600060208201905081810360008301526150ae81615072565b9050919050565b7f4552433732313a20746f6b656e20616c7265616479206d696e74656400000000600082015250565b60006150eb601c836134a7565b91506150f6826150b5565b602082019050919050565b6000602082019050818103600083015261511a816150de565b9050919050565b600061512c82613775565b915061513783613775565b92508282101561514a576151496148d7565b5b828203905092915050565b7f45524337323155524953746f726167653a2055524920736574206f66206e6f6e60008201527f6578697374656e7420746f6b656e000000000000000000000000000000000000602082015250565b60006151b1602e836134a7565b91506151bc82615155565b604082019050919050565b600060208201905081810360008301526151e0816151a4565b9050919050565b7f4552433732313a206f70657261746f7220717565727920666f72206e6f6e657860008201527f697374656e7420746f6b656e0000000000000000000000000000000000000000602082015250565b6000615243602c836134a7565b915061524e826151e7565b604082019050919050565b6000602082019050818103600083015261527281615236565b9050919050565b7f4552433732313a207472616e736665722066726f6d20696e636f72726563742060008201527f6f776e6572000000000000000000000000000000000000000000000000000000602082015250565b60006152d56025836134a7565b91506152e082615279565b604082019050919050565b60006020820190508181036000830152615304816152c8565b9050919050565b7f4552433732313a207472616e7366657220746f20746865207a65726f2061646460008201527f7265737300000000000000000000000000000000000000000000000000000000602082015250565b60006153676024836134a7565b91506153728261530b565b604082019050919050565b600060208201905081810360008301526153968161535a565b9050919050565b7f4552433732313a20617070726f766520746f2063616c6c657200000000000000600082015250565b60006153d36019836134a7565b91506153de8261539d565b602082019050919050565b60006020820190508181036000830152615402816153c6565b9050919050565b7f4552433732313a207472616e7366657220746f206e6f6e20455243373231526560008201527f63656976657220696d706c656d656e7465720000000000000000000000000000602082015250565b60006154656032836134a7565b915061547082615409565b604082019050919050565b6000602082019050818103600083015261549481615458565b9050919050565b7f45524337323155524953746f726167653a2055524920717565727920666f722060008201527f6e6f6e6578697374656e7420746f6b656e000000000000000000000000000000602082015250565b60006154f76031836134a7565b91506155028261549b565b604082019050919050565b60006020820190508181036000830152615526816154ea565b9050919050565b600081905092915050565b60006155438261349c565b61554d818561552d565b935061555d8185602086016134b8565b80840191505092915050565b60006155758285615538565b91506155818284615538565b91508190509392505050565b600081519050919050565b600082825260208201905092915050565b60006155b48261558d565b6155be8185615598565b93506155ce8185602086016134b8565b6155d7816134eb565b840191505092915050565b60006080820190506155f760008301876137d8565b61560460208301866137d8565b6156116040830185613a6e565b818103606083015261562381846155a9565b905095945050505050565b60008151905061563d816133b4565b92915050565b6000602082840312156156595761565861337e565b5b60006156678482850161562e565b91505092915050565b7f4552433732314d657461646174613a2055524920717565727920666f72206e6f60008201527f6e6578697374656e7420746f6b656e0000000000000000000000000000000000602082015250565b60006156cc602f836134a7565b91506156d782615670565b604082019050919050565b600060208201905081810360008301526156fb816156bf565b9050919050565b600061570d82613775565b91507fffffffffffffffffffffffffffffffffffffffffffffffffffffffffffffffff820361573f5761573e6148d7565b5b600182019050919050565b7f4e487b7100000000000000000000000000000000000000000000000000000000600052601260045260246000fd5b600061578482613775565b915061578f83613775565b92508261579f5761579e61574a565b5b828204905092915050565b60006157b582613775565b91506157c083613775565b9250826157d0576157cf61574a565b5b828206905092915050565b7f4e487b7100000000000000000000000000000000000000000000000000000000600052603160045260246000fdfea2646970667358221220557c48b7a330d0b4f8cbb0a41e986ed912d33c0767de41a42e42e2d0b3f009e664736f6c634300080d0033",
  "immutableReferences": {
    "3133": [
      {
        "length": 32,
        "start": 1017
      }
    ]
  },
  "source": "// SPDX-License-Identifier: GPL-3.0\npragma solidity >=0.6.0 <0.9.0;\n\nimport \"./Event.sol\";\nimport \"./BlocTick.sol\";\nimport \"@openzeppelin/contracts/access/Ownable.sol\";\nimport \"@openzeppelin/contracts/proxy/Clones.sol\";\n\ncontract EventFactory is Ownable {\n    Event[] internal _events;\n    address immutable tokenImplementation;\n    uint256 internal platform_percent = 50;\n    uint256 private constant PERCENTS_DIVIDER = 1000;\n    uint256 public feesEarned;\n    event NewEvent(address contractAddress);\n\n    constructor() {\n        tokenImplementation = address(new Event());\n    }\n\n    function allEvents() external view returns (Event[] memory) {\n        return _events;\n    }\n\n    function addEvent(\n        string memory name,\n        string memory symbol,\n        BlocTick.Ticket[] memory tickets\n    ) external {\n        address clone = Clones.clone(tokenImplementation);\n        Event e = Event(clone);\n        e.initialize(name, symbol, msg.sender);\n        e.storeTickets(tickets, msg.sender);\n        _events.push(e);\n        emit NewEvent(clone);\n    }\n\n    function setPlatformPercent(uint256 fee) external onlyOwner {\n        platform_percent = fee;\n    }\n\n    function mintTickets(Event e, BlocTick.TicketPurchase[] memory purchases)\n        external\n        payable\n    {\n        uint256 platform_fee = ((platform_percent * msg.value) /\n            PERCENTS_DIVIDER);\n        payable(Ownable.owner()).transfer(platform_fee);\n        feesEarned += platform_fee;\n        e.purchaseTickets{value: msg.value - platform_fee}(\n            purchases,\n            platform_fee\n        );\n    }\n}\n",
  "sourcePath": "/workspace/blocticks-contracts/backend/contracts/EventFactory.sol",
  "compiler": {
    "name": "solc",
    "version": "0.8.13+commit.abaa5c0e.Emscripten.clang"
  },
  "schemaVersion": "3.4.7",
  "updatedAt": "2022-05-12T16:25:41.142Z",
  "devdoc": {
    "kind": "dev",
    "methods": {
      "owner()": {
        "details": "Returns the address of the current owner."
      },
      "renounceOwnership()": {
        "details": "Leaves the contract without owner. It will not be possible to call `onlyOwner` functions anymore. Can only be called by the current owner. NOTE: Renouncing ownership will leave the contract without an owner, thereby removing any functionality that is only available to the owner."
      },
      "transferOwnership(address)": {
        "details": "Transfers ownership of the contract to a new account (`newOwner`). Can only be called by the current owner."
      }
    },
    "version": 1
  },
  "userdoc": {
    "kind": "user",
    "methods": {},
    "version": 1
  }
}