{
  "contractName": "Event",
  "abi": [
    {
      "inputs": [
        {
          "internalType": "string",
          "name": "name",
          "type": "string"
        },
        {
          "internalType": "string",
          "name": "symbol",
          "type": "string"
        },
        {
          "internalType": "address",
          "name": "__owner",
          "type": "address"
        }
      ],
      "stateMutability": "nonpayable",
      "type": "constructor"
    },
    {
      "anonymous": false,
      "inputs": [
        {
          "indexed": true,
          "internalType": "address",
          "name": "owner",
          "type": "address"
        },
        {
          "indexed": true,
          "internalType": "address",
          "name": "approved",
          "type": "address"
        },
        {
          "indexed": true,
          "internalType": "uint256",
          "name": "tokenId",
          "type": "uint256"
        }
      ],
      "name": "Approval",
      "type": "event"
    },
    {
      "anonymous": false,
      "inputs": [
        {
          "indexed": true,
          "internalType": "address",
          "name": "owner",
          "type": "address"
        },
        {
          "indexed": true,
          "internalType": "address",
          "name": "operator",
          "type": "address"
        },
        {
          "indexed": false,
          "internalType": "bool",
          "name": "approved",
          "type": "bool"
        }
      ],
      "name": "ApprovalForAll",
      "type": "event"
    },
    {
      "anonymous": false,
      "inputs": [
        {
          "indexed": true,
          "internalType": "address",
          "name": "from",
          "type": "address"
        },
        {
          "indexed": true,
          "internalType": "address",
          "name": "to",
          "type": "address"
        },
        {
          "indexed": true,
          "internalType": "uint256",
          "name": "tokenId",
          "type": "uint256"
        }
      ],
      "name": "Transfer",
      "type": "event"
    },
    {
      "inputs": [],
      "name": "_owner",
      "outputs": [
        {
          "internalType": "address",
          "name": "",
          "type": "address"
        }
      ],
      "stateMutability": "view",
      "type": "function"
    },
    {
      "inputs": [
        {
          "internalType": "address",
          "name": "to",
          "type": "address"
        },
        {
          "internalType": "uint256",
          "name": "tokenId",
          "type": "uint256"
        }
      ],
      "name": "approve",
      "outputs": [],
      "stateMutability": "nonpayable",
      "type": "function"
    },
    {
      "inputs": [
        {
          "internalType": "address",
          "name": "owner",
          "type": "address"
        }
      ],
      "name": "balanceOf",
      "outputs": [
        {
          "internalType": "uint256",
          "name": "",
          "type": "uint256"
        }
      ],
      "stateMutability": "view",
      "type": "function"
    },
    {
      "inputs": [
        {
          "internalType": "uint256",
          "name": "tokenId",
          "type": "uint256"
        }
      ],
      "name": "getApproved",
      "outputs": [
        {
          "internalType": "address",
          "name": "",
          "type": "address"
        }
      ],
      "stateMutability": "view",
      "type": "function"
    },
    {
      "inputs": [
        {
          "internalType": "address",
          "name": "owner",
          "type": "address"
        },
        {
          "internalType": "address",
          "name": "operator",
          "type": "address"
        }
      ],
      "name": "isApprovedForAll",
      "outputs": [
        {
          "internalType": "bool",
          "name": "",
          "type": "bool"
        }
      ],
      "stateMutability": "view",
      "type": "function"
    },
    {
      "inputs": [],
      "name": "name",
      "outputs": [
        {
          "internalType": "string",
          "name": "",
          "type": "string"
        }
      ],
      "stateMutability": "view",
      "type": "function"
    },
    {
      "inputs": [
        {
          "internalType": "uint256",
          "name": "tokenId",
          "type": "uint256"
        }
      ],
      "name": "ownerOf",
      "outputs": [
        {
          "internalType": "address",
          "name": "",
          "type": "address"
        }
      ],
      "stateMutability": "view",
      "type": "function"
    },
    {
      "inputs": [
        {
          "internalType": "address",
          "name": "from",
          "type": "address"
        },
        {
          "internalType": "address",
          "name": "to",
          "type": "address"
        },
        {
          "internalType": "uint256",
          "name": "tokenId",
          "type": "uint256"
        }
      ],
      "name": "safeTransferFrom",
      "outputs": [],
      "stateMutability": "nonpayable",
      "type": "function"
    },
    {
      "inputs": [
        {
          "internalType": "address",
          "name": "from",
          "type": "address"
        },
        {
          "internalType": "address",
          "name": "to",
          "type": "address"
        },
        {
          "internalType": "uint256",
          "name": "tokenId",
          "type": "uint256"
        },
        {
          "internalType": "bytes",
          "name": "_data",
          "type": "bytes"
        }
      ],
      "name": "safeTransferFrom",
      "outputs": [],
      "stateMutability": "nonpayable",
      "type": "function"
    },
    {
      "inputs": [],
      "name": "saleIsActive",
      "outputs": [
        {
          "internalType": "bool",
          "name": "",
          "type": "bool"
        }
      ],
      "stateMutability": "view",
      "type": "function"
    },
    {
      "inputs": [
        {
          "internalType": "address",
          "name": "operator",
          "type": "address"
        },
        {
          "internalType": "bool",
          "name": "approved",
          "type": "bool"
        }
      ],
      "name": "setApprovalForAll",
      "outputs": [],
      "stateMutability": "nonpayable",
      "type": "function"
    },
    {
      "inputs": [
        {
          "internalType": "bytes4",
          "name": "interfaceId",
          "type": "bytes4"
        }
      ],
      "name": "supportsInterface",
      "outputs": [
        {
          "internalType": "bool",
          "name": "",
          "type": "bool"
        }
      ],
      "stateMutability": "view",
      "type": "function"
    },
    {
      "inputs": [],
      "name": "symbol",
      "outputs": [
        {
          "internalType": "string",
          "name": "",
          "type": "string"
        }
      ],
      "stateMutability": "view",
      "type": "function"
    },
    {
      "inputs": [
        {
          "internalType": "uint256",
          "name": "tokenId",
          "type": "uint256"
        }
      ],
      "name": "tokenURI",
      "outputs": [
        {
          "internalType": "string",
          "name": "",
          "type": "string"
        }
      ],
      "stateMutability": "view",
      "type": "function"
    },
    {
      "inputs": [
        {
          "internalType": "address",
          "name": "from",
          "type": "address"
        },
        {
          "internalType": "address",
          "name": "to",
          "type": "address"
        },
        {
          "internalType": "uint256",
          "name": "tokenId",
          "type": "uint256"
        }
      ],
      "name": "transferFrom",
      "outputs": [],
      "stateMutability": "nonpayable",
      "type": "function"
    },
    {
      "inputs": [
        {
          "components": [
            {
              "internalType": "string",
              "name": "purchaseId",
              "type": "string"
            },
            {
              "internalType": "uint256",
              "name": "ticketId",
              "type": "uint256"
            },
            {
              "internalType": "string",
              "name": "tokenURI",
              "type": "string"
            },
            {
              "internalType": "address",
              "name": "buyer",
              "type": "address"
            },
            {
              "internalType": "uint256",
              "name": "cost",
              "type": "uint256"
            }
          ],
          "internalType": "struct BlocTick.TicketPurchase[]",
          "name": "purchases",
          "type": "tuple[]"
        }
      ],
      "name": "purchaseTickets",
      "outputs": [],
      "stateMutability": "payable",
      "type": "function"
    },
    {
      "inputs": [],
      "name": "getEventInfo",
      "outputs": [
        {
          "internalType": "uint256",
          "name": "",
          "type": "uint256"
        },
        {
          "components": [
            {
              "internalType": "string",
              "name": "purchaseId",
              "type": "string"
            },
            {
              "internalType": "address",
              "name": "buyer",
              "type": "address"
            },
            {
              "internalType": "uint256",
              "name": "tokenId",
              "type": "uint256"
            },
            {
              "internalType": "uint256",
              "name": "ticketId",
              "type": "uint256"
            },
            {
              "internalType": "uint256",
              "name": "cost",
              "type": "uint256"
            }
          ],
          "internalType": "struct BlocTick.SuccessfulPurchase[]",
          "name": "",
          "type": "tuple[]"
        }
      ],
      "stateMutability": "view",
      "type": "function"
    },
    {
      "inputs": [
        {
          "components": [
            {
              "internalType": "string",
              "name": "name",
              "type": "string"
            },
            {
              "internalType": "string",
              "name": "description",
              "type": "string"
            },
            {
              "internalType": "enum BlocTick.TicketType",
              "name": "ticket_type",
              "type": "uint8"
            },
            {
              "internalType": "uint256",
              "name": "quantity_available",
              "type": "uint256"
            },
            {
              "internalType": "uint256",
              "name": "price",
              "type": "uint256"
            }
          ],
          "internalType": "struct BlocTick.Ticket[]",
          "name": "tickets",
          "type": "tuple[]"
        },
        {
          "internalType": "address",
          "name": "caller",
          "type": "address"
        }
      ],
      "name": "storeTickets",
      "outputs": [],
      "stateMutability": "nonpayable",
      "type": "function"
    },
    {
      "inputs": [],
      "name": "openSale",
      "outputs": [],
      "stateMutability": "nonpayable",
      "type": "function"
    },
    {
      "inputs": [],
      "name": "closeSale",
      "outputs": [],
      "stateMutability": "nonpayable",
      "type": "function"
    },
    {
      "inputs": [
        {
          "internalType": "address",
          "name": "caller",
          "type": "address"
        }
      ],
      "name": "getMyTickets",
      "outputs": [
        {
          "components": [
            {
              "internalType": "string",
              "name": "purchaseId",
              "type": "string"
            },
            {
              "internalType": "address",
              "name": "buyer",
              "type": "address"
            },
            {
              "internalType": "uint256",
              "name": "tokenId",
              "type": "uint256"
            },
            {
              "internalType": "uint256",
              "name": "ticketId",
              "type": "uint256"
            },
            {
              "internalType": "uint256",
              "name": "cost",
              "type": "uint256"
            }
          ],
          "internalType": "struct BlocTick.SuccessfulPurchase[]",
          "name": "result",
          "type": "tuple[]"
        }
      ],
      "stateMutability": "view",
      "type": "function"
    }
  ],
  "bytecode": "0x60806040526001600a60146101000a81548160ff0219169083151502179055503480156200002c57600080fd5b5060405162004838380380620048388339818101604052810190620000529190620003c5565b828281600090805190602001906200006c92919062000113565b5080600190805190602001906200008592919062000113565b50505033600c60006101000a81548173ffffffffffffffffffffffffffffffffffffffff021916908373ffffffffffffffffffffffffffffffffffffffff16021790555080600a60006101000a81548173ffffffffffffffffffffffffffffffffffffffff021916908373ffffffffffffffffffffffffffffffffffffffff160217905550505050620004c3565b82805462000121906200048e565b90600052602060002090601f01602090048101928262000145576000855562000191565b82601f106200016057805160ff191683800117855562000191565b8280016001018555821562000191579182015b828111156200019057825182559160200191906001019062000173565b5b509050620001a09190620001a4565b5090565b5b80821115620001bf576000816000905550600101620001a5565b5090565b6000604051905090565b600080fd5b600080fd5b600080fd5b600080fd5b6000601f19601f8301169050919050565b7f4e487b7100000000000000000000000000000000000000000000000000000000600052604160045260246000fd5b6200022c82620001e1565b810181811067ffffffffffffffff821117156200024e576200024d620001f2565b5b80604052505050565b600062000263620001c3565b905062000271828262000221565b919050565b600067ffffffffffffffff821115620002945762000293620001f2565b5b6200029f82620001e1565b9050602081019050919050565b60005b83811015620002cc578082015181840152602081019050620002af565b83811115620002dc576000848401525b50505050565b6000620002f9620002f38462000276565b62000257565b905082815260208101848484011115620003185762000317620001dc565b5b62000325848285620002ac565b509392505050565b600082601f830112620003455762000344620001d7565b5b815162000357848260208601620002e2565b91505092915050565b600073ffffffffffffffffffffffffffffffffffffffff82169050919050565b60006200038d8262000360565b9050919050565b6200039f8162000380565b8114620003ab57600080fd5b50565b600081519050620003bf8162000394565b92915050565b600080600060608486031215620003e157620003e0620001cd565b5b600084015167ffffffffffffffff811115620004025762000401620001d2565b5b62000410868287016200032d565b935050602084015167ffffffffffffffff811115620004345762000433620001d2565b5b62000442868287016200032d565b92505060406200045586828701620003ae565b9150509250925092565b7f4e487b7100000000000000000000000000000000000000000000000000000000600052602260045260246000fd5b60006002820490506001821680620004a757607f821691505b602082108103620004bd57620004bc6200045f565b5b50919050565b61436580620004d36000396000f3fe60806040526004361061012a5760003560e01c806370a08231116100ab578063b88d4fde1161006f578063b88d4fde146103f1578063c63197ce1461041a578063c87b56dd14610436578063e985e9c514610473578063eb8d2444146104b0578063ee55efee146104db5761012a565b806370a08231146102f85780638aaf26861461033557806395d89b4114610372578063a22cb4651461039d578063b2bdfa7b146103c65761012a565b806323b872dd116100f257806323b872dd146102145780633d181c7e1461023d57806342842e0e146102665780636352211e1461028f5780636d00fa68146102cc5761012a565b806301ffc9a71461012f57806306fdde031461016c578063081812fc14610197578063095ea7b3146101d4578063167ff46f146101fd575b600080fd5b34801561013b57600080fd5b5061015660048036038101906101519190612708565b6104f2565b6040516101639190612750565b60405180910390f35b34801561017857600080fd5b506101816105d4565b60405161018e9190612804565b60405180910390f35b3480156101a357600080fd5b506101be60048036038101906101b9919061285c565b610666565b6040516101cb91906128ca565b60405180910390f35b3480156101e057600080fd5b506101fb60048036038101906101f69190612911565b6106eb565b005b34801561020957600080fd5b50610212610802565b005b34801561022057600080fd5b5061023b60048036038101906102369190612951565b6108b1565b005b34801561024957600080fd5b50610264600480360381019061025f9190612cb2565b610911565b005b34801561027257600080fd5b5061028d60048036038101906102889190612951565b610aa3565b005b34801561029b57600080fd5b506102b660048036038101906102b1919061285c565b610ac3565b6040516102c391906128ca565b60405180910390f35b3480156102d857600080fd5b506102e1610b74565b6040516102ef929190612ebd565b60405180910390f35b34801561030457600080fd5b5061031f600480360381019061031a9190612eed565b610d5d565b60405161032c9190612f1a565b60405180910390f35b34801561034157600080fd5b5061035c60048036038101906103579190612eed565b610e14565b6040516103699190612f35565b60405180910390f35b34801561037e57600080fd5b50610387610ff7565b6040516103949190612804565b60405180910390f35b3480156103a957600080fd5b506103c460048036038101906103bf9190612f83565b611089565b005b3480156103d257600080fd5b506103db61109f565b6040516103e891906128ca565b60405180910390f35b3480156103fd57600080fd5b5061041860048036038101906104139190613064565b6110c5565b005b610434600480360381019061042f919061328c565b611127565b005b34801561044257600080fd5b5061045d6004803603810190610458919061285c565b6113bb565b60405161046a9190612804565b60405180910390f35b34801561047f57600080fd5b5061049a600480360381019061049591906132d5565b61150c565b6040516104a79190612750565b60405180910390f35b3480156104bc57600080fd5b506104c56115a0565b6040516104d29190612750565b60405180910390f35b3480156104e757600080fd5b506104f06115b3565b005b60007f80ac58cd000000000000000000000000000000000000000000000000000000007bffffffffffffffffffffffffffffffffffffffffffffffffffffffff1916827bffffffffffffffffffffffffffffffffffffffffffffffffffffffff191614806105bd57507f5b5e139f000000000000000000000000000000000000000000000000000000007bffffffffffffffffffffffffffffffffffffffffffffffffffffffff1916827bffffffffffffffffffffffffffffffffffffffffffffffffffffffff1916145b806105cd57506105cc82611662565b5b9050919050565b6060600080546105e390613344565b80601f016020809104026020016040519081016040528092919081815260200182805461060f90613344565b801561065c5780601f106106315761010080835404028352916020019161065c565b820191906000526020600020905b81548152906001019060200180831161063f57829003601f168201915b5050505050905090565b6000610671826116cc565b6106b0576040517f08c379a00000000000000000000000000000000000000000000000000000000081526004016106a7906133e7565b60405180910390fd5b6004600083815260200190815260200160002060009054906101000a900473ffffffffffffffffffffffffffffffffffffffff169050919050565b60006106f682610ac3565b90508073ffffffffffffffffffffffffffffffffffffffff168373ffffffffffffffffffffffffffffffffffffffff1603610766576040517f08c379a000000000000000000000000000000000000000000000000000000000815260040161075d90613479565b60405180910390fd5b8073ffffffffffffffffffffffffffffffffffffffff16610785611738565b73ffffffffffffffffffffffffffffffffffffffff1614806107b457506107b3816107ae611738565b61150c565b5b6107f3576040517f08c379a00000000000000000000000000000000000000000000000000000000081526004016107ea9061350b565b60405180910390fd5b6107fd8383611740565b505050565b33600a60009054906101000a900473ffffffffffffffffffffffffffffffffffffffff1673ffffffffffffffffffffffffffffffffffffffff168173ffffffffffffffffffffffffffffffffffffffff1614610893576040517f08c379a000000000000000000000000000000000000000000000000000000000815260040161088a90613577565b60405180910390fd5b6001600a60146101000a81548160ff02191690831515021790555050565b6108c26108bc611738565b826117f9565b610901576040517f08c379a00000000000000000000000000000000000000000000000000000000081526004016108f890613609565b60405180910390fd5b61090c8383836118d7565b505050565b600c60009054906101000a900473ffffffffffffffffffffffffffffffffffffffff1673ffffffffffffffffffffffffffffffffffffffff163373ffffffffffffffffffffffffffffffffffffffff16146109a1576040517f08c379a000000000000000000000000000000000000000000000000000000000815260040161099890613675565b60405180910390fd5b80600a60009054906101000a900473ffffffffffffffffffffffffffffffffffffffff1673ffffffffffffffffffffffffffffffffffffffff168173ffffffffffffffffffffffffffffffffffffffff1614610a32576040517f08c379a0000000000000000000000000000000000000000000000000000000008152600401610a2990613577565b60405180910390fd5b600873__TicketManager_________________________63a2a93cbf9091856040518363ffffffff1660e01b8152600401610a6e9291906138ab565b60006040518083038186803b158015610a8657600080fd5b505af4158015610a9a573d6000803e3d6000fd5b50505050505050565b610abe838383604051806020016040528060008152506110c5565b505050565b6000806002600084815260200190815260200160002060009054906101000a900473ffffffffffffffffffffffffffffffffffffffff169050600073ffffffffffffffffffffffffffffffffffffffff168173ffffffffffffffffffffffffffffffffffffffff1603610b6b576040517f08c379a0000000000000000000000000000000000000000000000000000000008152600401610b629061394d565b60405180910390fd5b80915050919050565b60006060600b54600873__TicketManager_________________________63957f0c8c90916040518263ffffffff1660e01b8152600401610bb5919061396d565b602060405180830381865af4158015610bd2573d6000803e3d6000fd5b505050506040513d601f19601f82011682018060405250810190610bf691906139be565b80805480602002602001604051908101604052809291908181526020016000905b82821015610d4f57838290600052602060002090600502016040518060a0016040529081600082018054610c4a90613344565b80601f0160208091040260200160405190810160405280929190818152602001828054610c7690613344565b8015610cc35780601f10610c9857610100808354040283529160200191610cc3565b820191906000526020600020905b815481529060010190602001808311610ca657829003601f168201915b505050505081526020016001820160009054906101000a900473ffffffffffffffffffffffffffffffffffffffff1673ffffffffffffffffffffffffffffffffffffffff1673ffffffffffffffffffffffffffffffffffffffff168152602001600282015481526020016003820154815260200160048201548152505081526020019060010190610c17565b505050509050915091509091565b60008073ffffffffffffffffffffffffffffffffffffffff168273ffffffffffffffffffffffffffffffffffffffff1603610dcd576040517f08c379a0000000000000000000000000000000000000000000000000000000008152600401610dc490613a5d565b60405180910390fd5b600360008373ffffffffffffffffffffffffffffffffffffffff1673ffffffffffffffffffffffffffffffffffffffff168152602001908152602001600020549050919050565b6060600080610e2284610d5d565b03610e2d5750610ff2565b60005b610e3a6007611b3d565b8111610fef57600060086001018281548110610e5957610e58613a7d565b5b90600052602060002090600502016040518060a0016040529081600082018054610e8290613344565b80601f0160208091040260200160405190810160405280929190818152602001828054610eae90613344565b8015610efb5780601f10610ed057610100808354040283529160200191610efb565b820191906000526020600020905b815481529060010190602001808311610ede57829003601f168201915b505050505081526020016001820160009054906101000a900473ffffffffffffffffffffffffffffffffffffffff1673ffffffffffffffffffffffffffffffffffffffff1673ffffffffffffffffffffffffffffffffffffffff168152602001600282015481526020016003820154815260200160048201548152505090508473ffffffffffffffffffffffffffffffffffffffff16610f9e8260400151610ac3565b73ffffffffffffffffffffffffffffffffffffffff1603610fe15780848481518110610fcd57610fcc613a7d565b5b602002602001018190525082806001019350505b818060010192505050610e30565b50505b919050565b60606001805461100690613344565b80601f016020809104026020016040519081016040528092919081815260200182805461103290613344565b801561107f5780601f106110545761010080835404028352916020019161107f565b820191906000526020600020905b81548152906001019060200180831161106257829003601f168201915b5050505050905090565b61109b611094611738565b8383611b4b565b5050565b600a60009054906101000a900473ffffffffffffffffffffffffffffffffffffffff1681565b6110d66110d0611738565b836117f9565b611115576040517f08c379a000000000000000000000000000000000000000000000000000000000815260040161110c90613609565b60405180910390fd5b61112184848484611cb7565b50505050565b600c60009054906101000a900473ffffffffffffffffffffffffffffffffffffffff1673ffffffffffffffffffffffffffffffffffffffff163373ffffffffffffffffffffffffffffffffffffffff16146111b7576040517f08c379a00000000000000000000000000000000000000000000000000000000081526004016111ae90613675565b60405180910390fd5b600a60149054906101000a900460ff166111d057600080fd5b6111e4816008611d1390919063ffffffff16565b341015611226576040517f08c379a000000000000000000000000000000000000000000000000000000000815260040161121d90613af8565b60405180910390fd5b60005b815181101561139e57600082828151811061124757611246613a7d565b5b60200260200101519050600061125d6007611b3d565b90506112693082611f4b565b6112736007611f69565b611281818360400151611f7f565b61129030836060015183610aa3565b60086001016040518060a0016040528084600001518152602001846060015173ffffffffffffffffffffffffffffffffffffffff168152602001838152602001846020015181526020018460800151815250908060018154018082558091505060019003906000526020600020906005020160009091909190915060008201518160000190805190602001906113279291906125f9565b5060208201518160010160006101000a81548173ffffffffffffffffffffffffffffffffffffffff021916908373ffffffffffffffffffffffffffffffffffffffff160217905550604082015181600201556060820151816003015560808201518160040155505082806001019350505050611229565b5034600b60008282546113b19190613b47565b9250508190555050565b60606113c6826116cc565b611405576040517f08c379a00000000000000000000000000000000000000000000000000000000081526004016113fc90613c0f565b60405180910390fd5b600060066000848152602001908152602001600020805461142590613344565b80601f016020809104026020016040519081016040528092919081815260200182805461145190613344565b801561149e5780601f106114735761010080835404028352916020019161149e565b820191906000526020600020905b81548152906001019060200180831161148157829003601f168201915b5050505050905060006114af611ff3565b905060008151036114c4578192505050611507565b6000825111156114f95780826040516020016114e1929190613c6b565b60405160208183030381529060405292505050611507565b6115028461200a565b925050505b919050565b6000600560008473ffffffffffffffffffffffffffffffffffffffff1673ffffffffffffffffffffffffffffffffffffffff16815260200190815260200160002060008373ffffffffffffffffffffffffffffffffffffffff1673ffffffffffffffffffffffffffffffffffffffff16815260200190815260200160002060009054906101000a900460ff16905092915050565b600a60149054906101000a900460ff1681565b33600a60009054906101000a900473ffffffffffffffffffffffffffffffffffffffff1673ffffffffffffffffffffffffffffffffffffffff168173ffffffffffffffffffffffffffffffffffffffff1614611644576040517f08c379a000000000000000000000000000000000000000000000000000000000815260040161163b90613577565b60405180910390fd5b6000600a60146101000a81548160ff02191690831515021790555050565b60007f01ffc9a7000000000000000000000000000000000000000000000000000000007bffffffffffffffffffffffffffffffffffffffffffffffffffffffff1916827bffffffffffffffffffffffffffffffffffffffffffffffffffffffff1916149050919050565b60008073ffffffffffffffffffffffffffffffffffffffff166002600084815260200190815260200160002060009054906101000a900473ffffffffffffffffffffffffffffffffffffffff1673ffffffffffffffffffffffffffffffffffffffff1614159050919050565b600033905090565b816004600083815260200190815260200160002060006101000a81548173ffffffffffffffffffffffffffffffffffffffff021916908373ffffffffffffffffffffffffffffffffffffffff160217905550808273ffffffffffffffffffffffffffffffffffffffff166117b383610ac3565b73ffffffffffffffffffffffffffffffffffffffff167f8c5be1e5ebec7d5bd14f71427d1e84f3dd0314c0f7b2291e5b200ac8c7c3b92560405160405180910390a45050565b6000611804826116cc565b611843576040517f08c379a000000000000000000000000000000000000000000000000000000000815260040161183a90613d01565b60405180910390fd5b600061184e83610ac3565b90508073ffffffffffffffffffffffffffffffffffffffff168473ffffffffffffffffffffffffffffffffffffffff1614806118bd57508373ffffffffffffffffffffffffffffffffffffffff166118a584610666565b73ffffffffffffffffffffffffffffffffffffffff16145b806118ce57506118cd818561150c565b5b91505092915050565b8273ffffffffffffffffffffffffffffffffffffffff166118f782610ac3565b73ffffffffffffffffffffffffffffffffffffffff161461194d576040517f08c379a000000000000000000000000000000000000000000000000000000000815260040161194490613d93565b60405180910390fd5b600073ffffffffffffffffffffffffffffffffffffffff168273ffffffffffffffffffffffffffffffffffffffff16036119bc576040517f08c379a00000000000000000000000000000000000000000000000000000000081526004016119b390613e25565b60405180910390fd5b6119c78383836120b1565b6119d2600082611740565b6001600360008573ffffffffffffffffffffffffffffffffffffffff1673ffffffffffffffffffffffffffffffffffffffff1681526020019081526020016000206000828254611a229190613e45565b925050819055506001600360008473ffffffffffffffffffffffffffffffffffffffff1673ffffffffffffffffffffffffffffffffffffffff1681526020019081526020016000206000828254611a799190613b47565b92505081905550816002600083815260200190815260200160002060006101000a81548173ffffffffffffffffffffffffffffffffffffffff021916908373ffffffffffffffffffffffffffffffffffffffff160217905550808273ffffffffffffffffffffffffffffffffffffffff168473ffffffffffffffffffffffffffffffffffffffff167fddf252ad1be2c89b69c2b068fc378daa952ba7f163c4a11628f55a4df523b3ef60405160405180910390a4611b388383836120b6565b505050565b600081600001549050919050565b8173ffffffffffffffffffffffffffffffffffffffff168373ffffffffffffffffffffffffffffffffffffffff1603611bb9576040517f08c379a0000000000000000000000000000000000000000000000000000000008152600401611bb090613ec5565b60405180910390fd5b80600560008573ffffffffffffffffffffffffffffffffffffffff1673ffffffffffffffffffffffffffffffffffffffff16815260200190815260200160002060008473ffffffffffffffffffffffffffffffffffffffff1673ffffffffffffffffffffffffffffffffffffffff16815260200190815260200160002060006101000a81548160ff0219169083151502179055508173ffffffffffffffffffffffffffffffffffffffff168373ffffffffffffffffffffffffffffffffffffffff167f17307eab39ab6107e8899845ad3d59bd9653f200f220920489ca2b5937696c3183604051611caa9190612750565b60405180910390a3505050565b611cc28484846118d7565b611cce848484846120bb565b611d0d576040517f08c379a0000000000000000000000000000000000000000000000000000000008152600401611d0490613f57565b60405180910390fd5b50505050565b600080600090505b82518160ff161015611f4457600084600001848360ff1681518110611d4357611d42613a7d565b5b60200260200101516020015181548110611d6057611d5f613a7d565b5b90600052602060002090600502016040518060a0016040529081600082018054611d8990613344565b80601f0160208091040260200160405190810160405280929190818152602001828054611db590613344565b8015611e025780601f10611dd757610100808354040283529160200191611e02565b820191906000526020600020905b815481529060010190602001808311611de557829003601f168201915b50505050508152602001600182018054611e1b90613344565b80601f0160208091040260200160405190810160405280929190818152602001828054611e4790613344565b8015611e945780601f10611e6957610100808354040283529160200191611e94565b820191906000526020600020905b815481529060010190602001808311611e7757829003601f168201915b505050505081526020016002820160009054906101000a900460ff166002811115611ec257611ec1613712565b5b6002811115611ed457611ed3613712565b5b8152602001600382015481526020016004820154815250509050600280811115611f0157611f00613712565b5b81604001516002811115611f1857611f17613712565b5b03611f235750611f3f565b806080015183611f339190613b47565b92508180600101925050505b611d1b565b5092915050565b611f65828260405180602001604052806000815250612242565b5050565b6001816000016000828254019250508190555050565b611f88826116cc565b611fc7576040517f08c379a0000000000000000000000000000000000000000000000000000000008152600401611fbe90613fe9565b60405180910390fd5b80600660008481526020019081526020016000209080519060200190611fee9291906125f9565b505050565b606060405180602001604052806000815250905090565b6060612015826116cc565b612054576040517f08c379a000000000000000000000000000000000000000000000000000000000815260040161204b9061407b565b60405180910390fd5b600061205e611ff3565b9050600081511161207e57604051806020016040528060008152506120a9565b806120888461229d565b604051602001612099929190613c6b565b6040516020818303038152906040525b915050919050565b505050565b505050565b60006120dc8473ffffffffffffffffffffffffffffffffffffffff166123fd565b15612235578373ffffffffffffffffffffffffffffffffffffffff1663150b7a02612105611738565b8786866040518563ffffffff1660e01b815260040161212794939291906140f0565b6020604051808303816000875af192505050801561216357506040513d601f19601f820116820180604052508101906121609190614151565b60015b6121e5573d8060008114612193576040519150601f19603f3d011682016040523d82523d6000602084013e612198565b606091505b5060008151036121dd576040517f08c379a00000000000000000000000000000000000000000000000000000000081526004016121d490613f57565b60405180910390fd5b805181602001fd5b63150b7a0260e01b7bffffffffffffffffffffffffffffffffffffffffffffffffffffffff1916817bffffffffffffffffffffffffffffffffffffffffffffffffffffffff19161491505061223a565b600190505b949350505050565b61224c8383612420565b61225960008484846120bb565b612298576040517f08c379a000000000000000000000000000000000000000000000000000000000815260040161228f90613f57565b60405180910390fd5b505050565b6060600082036122e4576040518060400160405280600181526020017f300000000000000000000000000000000000000000000000000000000000000081525090506123f8565b600082905060005b600082146123165780806122ff9061417e565b915050600a8261230f91906141f5565b91506122ec565b60008167ffffffffffffffff811115612332576123316129a9565b5b6040519080825280601f01601f1916602001820160405280156123645781602001600182028036833780820191505090505b5090505b600085146123f15760018261237d9190613e45565b9150600a8561238c9190614226565b60306123989190613b47565b60f81b8183815181106123ae576123ad613a7d565b5b60200101907effffffffffffffffffffffffffffffffffffffffffffffffffffffffffffff1916908160001a905350600a856123ea91906141f5565b9450612368565b8093505050505b919050565b6000808273ffffffffffffffffffffffffffffffffffffffff163b119050919050565b600073ffffffffffffffffffffffffffffffffffffffff168273ffffffffffffffffffffffffffffffffffffffff160361248f576040517f08c379a0000000000000000000000000000000000000000000000000000000008152600401612486906142a3565b60405180910390fd5b612498816116cc565b156124d8576040517f08c379a00000000000000000000000000000000000000000000000000000000081526004016124cf9061430f565b60405180910390fd5b6124e4600083836120b1565b6001600360008473ffffffffffffffffffffffffffffffffffffffff1673ffffffffffffffffffffffffffffffffffffffff16815260200190815260200160002060008282546125349190613b47565b92505081905550816002600083815260200190815260200160002060006101000a81548173ffffffffffffffffffffffffffffffffffffffff021916908373ffffffffffffffffffffffffffffffffffffffff160217905550808273ffffffffffffffffffffffffffffffffffffffff16600073ffffffffffffffffffffffffffffffffffffffff167fddf252ad1be2c89b69c2b068fc378daa952ba7f163c4a11628f55a4df523b3ef60405160405180910390a46125f5600083836120b6565b5050565b82805461260590613344565b90600052602060002090601f016020900481019282612627576000855561266e565b82601f1061264057805160ff191683800117855561266e565b8280016001018555821561266e579182015b8281111561266d578251825591602001919060010190612652565b5b50905061267b919061267f565b5090565b5b80821115612698576000816000905550600101612680565b5090565b6000604051905090565b600080fd5b600080fd5b60007fffffffff0000000000000000000000000000000000000000000000000000000082169050919050565b6126e5816126b0565b81146126f057600080fd5b50565b600081359050612702816126dc565b92915050565b60006020828403121561271e5761271d6126a6565b5b600061272c848285016126f3565b91505092915050565b60008115159050919050565b61274a81612735565b82525050565b60006020820190506127656000830184612741565b92915050565b600081519050919050565b600082825260208201905092915050565b60005b838110156127a557808201518184015260208101905061278a565b838111156127b4576000848401525b50505050565b6000601f19601f8301169050919050565b60006127d68261276b565b6127e08185612776565b93506127f0818560208601612787565b6127f9816127ba565b840191505092915050565b6000602082019050818103600083015261281e81846127cb565b905092915050565b6000819050919050565b61283981612826565b811461284457600080fd5b50565b60008135905061285681612830565b92915050565b600060208284031215612872576128716126a6565b5b600061288084828501612847565b91505092915050565b600073ffffffffffffffffffffffffffffffffffffffff82169050919050565b60006128b482612889565b9050919050565b6128c4816128a9565b82525050565b60006020820190506128df60008301846128bb565b92915050565b6128ee816128a9565b81146128f957600080fd5b50565b60008135905061290b816128e5565b92915050565b60008060408385031215612928576129276126a6565b5b6000612936858286016128fc565b925050602061294785828601612847565b9150509250929050565b60008060006060848603121561296a576129696126a6565b5b6000612978868287016128fc565b9350506020612989868287016128fc565b925050604061299a86828701612847565b9150509250925092565b600080fd5b7f4e487b7100000000000000000000000000000000000000000000000000000000600052604160045260246000fd5b6129e1826127ba565b810181811067ffffffffffffffff82111715612a00576129ff6129a9565b5b80604052505050565b6000612a1361269c565b9050612a1f82826129d8565b919050565b600067ffffffffffffffff821115612a3f57612a3e6129a9565b5b602082029050602081019050919050565b600080fd5b600080fd5b600080fd5b600080fd5b600067ffffffffffffffff821115612a7f57612a7e6129a9565b5b612a88826127ba565b9050602081019050919050565b82818337600083830152505050565b6000612ab7612ab284612a64565b612a09565b905082815260208101848484011115612ad357612ad2612a5f565b5b612ade848285612a95565b509392505050565b600082601f830112612afb57612afa6129a4565b5b8135612b0b848260208601612aa4565b91505092915050565b60038110612b2157600080fd5b50565b600081359050612b3381612b14565b92915050565b600060a08284031215612b4f57612b4e612a55565b5b612b5960a0612a09565b9050600082013567ffffffffffffffff811115612b7957612b78612a5a565b5b612b8584828501612ae6565b600083015250602082013567ffffffffffffffff811115612ba957612ba8612a5a565b5b612bb584828501612ae6565b6020830152506040612bc984828501612b24565b6040830152506060612bdd84828501612847565b6060830152506080612bf184828501612847565b60808301525092915050565b6000612c10612c0b84612a24565b612a09565b90508083825260208201905060208402830185811115612c3357612c32612a50565b5b835b81811015612c7a57803567ffffffffffffffff811115612c5857612c576129a4565b5b808601612c658982612b39565b85526020850194505050602081019050612c35565b5050509392505050565b600082601f830112612c9957612c986129a4565b5b8135612ca9848260208601612bfd565b91505092915050565b60008060408385031215612cc957612cc86126a6565b5b600083013567ffffffffffffffff811115612ce757612ce66126ab565b5b612cf385828601612c84565b9250506020612d04858286016128fc565b9150509250929050565b612d1781612826565b82525050565b600081519050919050565b600082825260208201905092915050565b6000819050602082019050919050565b600082825260208201905092915050565b6000612d658261276b565b612d6f8185612d49565b9350612d7f818560208601612787565b612d88816127ba565b840191505092915050565b612d9c816128a9565b82525050565b612dab81612826565b82525050565b600060a0830160008301518482036000860152612dce8282612d5a565b9150506020830151612de36020860182612d93565b506040830151612df66040860182612da2565b506060830151612e096060860182612da2565b506080830151612e1c6080860182612da2565b508091505092915050565b6000612e338383612db1565b905092915050565b6000602082019050919050565b6000612e5382612d1d565b612e5d8185612d28565b935083602082028501612e6f85612d39565b8060005b85811015612eab5784840389528151612e8c8582612e27565b9450612e9783612e3b565b925060208a01995050600181019050612e73565b50829750879550505050505092915050565b6000604082019050612ed26000830185612d0e565b8181036020830152612ee48184612e48565b90509392505050565b600060208284031215612f0357612f026126a6565b5b6000612f11848285016128fc565b91505092915050565b6000602082019050612f2f6000830184612d0e565b92915050565b60006020820190508181036000830152612f4f8184612e48565b905092915050565b612f6081612735565b8114612f6b57600080fd5b50565b600081359050612f7d81612f57565b92915050565b60008060408385031215612f9a57612f996126a6565b5b6000612fa8858286016128fc565b9250506020612fb985828601612f6e565b9150509250929050565b600067ffffffffffffffff821115612fde57612fdd6129a9565b5b612fe7826127ba565b9050602081019050919050565b600061300761300284612fc3565b612a09565b90508281526020810184848401111561302357613022612a5f565b5b61302e848285612a95565b509392505050565b600082601f83011261304b5761304a6129a4565b5b813561305b848260208601612ff4565b91505092915050565b6000806000806080858703121561307e5761307d6126a6565b5b600061308c878288016128fc565b945050602061309d878288016128fc565b93505060406130ae87828801612847565b925050606085013567ffffffffffffffff8111156130cf576130ce6126ab565b5b6130db87828801613036565b91505092959194509250565b600067ffffffffffffffff821115613102576131016129a9565b5b602082029050602081019050919050565b600060a0828403121561312957613128612a55565b5b61313360a0612a09565b9050600082013567ffffffffffffffff81111561315357613152612a5a565b5b61315f84828501612ae6565b600083015250602061317384828501612847565b602083015250604082013567ffffffffffffffff81111561319757613196612a5a565b5b6131a384828501612ae6565b60408301525060606131b7848285016128fc565b60608301525060806131cb84828501612847565b60808301525092915050565b60006131ea6131e5846130e7565b612a09565b9050808382526020820190506020840283018581111561320d5761320c612a50565b5b835b8181101561325457803567ffffffffffffffff811115613232576132316129a4565b5b80860161323f8982613113565b8552602085019450505060208101905061320f565b5050509392505050565b600082601f830112613273576132726129a4565b5b81356132838482602086016131d7565b91505092915050565b6000602082840312156132a2576132a16126a6565b5b600082013567ffffffffffffffff8111156132c0576132bf6126ab565b5b6132cc8482850161325e565b91505092915050565b600080604083850312156132ec576132eb6126a6565b5b60006132fa858286016128fc565b925050602061330b858286016128fc565b9150509250929050565b7f4e487b7100000000000000000000000000000000000000000000000000000000600052602260045260246000fd5b6000600282049050600182168061335c57607f821691505b60208210810361336f5761336e613315565b5b50919050565b7f4552433732313a20617070726f76656420717565727920666f72206e6f6e657860008201527f697374656e7420746f6b656e0000000000000000000000000000000000000000602082015250565b60006133d1602c83612776565b91506133dc82613375565b604082019050919050565b60006020820190508181036000830152613400816133c4565b9050919050565b7f4552433732313a20617070726f76616c20746f2063757272656e74206f776e6560008201527f7200000000000000000000000000000000000000000000000000000000000000602082015250565b6000613463602183612776565b915061346e82613407565b604082019050919050565b6000602082019050818103600083015261349281613456565b9050919050565b7f4552433732313a20617070726f76652063616c6c6572206973206e6f74206f7760008201527f6e6572206e6f7220617070726f76656420666f7220616c6c0000000000000000602082015250565b60006134f5603883612776565b915061350082613499565b604082019050919050565b60006020820190508181036000830152613524816134e8565b9050919050565b7f4163636573732072657374726963746564210000000000000000000000000000600082015250565b6000613561601283612776565b915061356c8261352b565b602082019050919050565b6000602082019050818103600083015261359081613554565b9050919050565b7f4552433732313a207472616e736665722063616c6c6572206973206e6f74206f60008201527f776e6572206e6f7220617070726f766564000000000000000000000000000000602082015250565b60006135f3603183612776565b91506135fe82613597565b604082019050919050565b60006020820190508181036000830152613622816135e6565b9050919050565b7f596f75206e65656420746f207573652074686520666163746f72790000000000600082015250565b600061365f601b83612776565b915061366a82613629565b602082019050919050565b6000602082019050818103600083015261368e81613652565b9050919050565b8082525050565b600081519050919050565b600082825260208201905092915050565b6000819050602082019050919050565b600082825260208201905092915050565b60006136e48261276b565b6136ee81856136c8565b93506136fe818560208601612787565b613707816127ba565b840191505092915050565b7f4e487b7100000000000000000000000000000000000000000000000000000000600052602160045260246000fd5b6003811061375257613751613712565b5b50565b600081905061376382613741565b919050565b600061377382613755565b9050919050565b61378381613768565b82525050565b61379281612826565b82525050565b600060a08301600083015184820360008601526137b582826136d9565b915050602083015184820360208601526137cf82826136d9565b91505060408301516137e4604086018261377a565b5060608301516137f76060860182613789565b50608083015161380a6080860182613789565b508091505092915050565b60006138218383613798565b905092915050565b6000602082019050919050565b60006138418261369c565b61384b81856136a7565b93508360208202850161385d856136b8565b8060005b85811015613899578484038952815161387a8582613815565b945061388583613829565b925060208a01995050600181019050613861565b50829750879550505050505092915050565b60006040820190506138c06000830185613695565b81810360208301526138d28184613836565b90509392505050565b7f4552433732313a206f776e657220717565727920666f72206e6f6e657869737460008201527f656e7420746f6b656e0000000000000000000000000000000000000000000000602082015250565b6000613937602983612776565b9150613942826138db565b604082019050919050565b600060208201905081810360008301526139668161392a565b9050919050565b60006020820190506139826000830184613695565b92915050565b6000819050919050565b61399b81613988565b81146139a657600080fd5b50565b6000815190506139b881613992565b92915050565b6000602082840312156139d4576139d36126a6565b5b60006139e2848285016139a9565b91505092915050565b7f4552433732313a2062616c616e636520717565727920666f7220746865207a6560008201527f726f206164647265737300000000000000000000000000000000000000000000602082015250565b6000613a47602a83612776565b9150613a52826139eb565b604082019050919050565b60006020820190508181036000830152613a7681613a3a565b9050919050565b7f4e487b7100000000000000000000000000000000000000000000000000000000600052603260045260246000fd5b7f546865207469636b65747320636f7374206d6f72650000000000000000000000600082015250565b6000613ae2601583612776565b9150613aed82613aac565b602082019050919050565b60006020820190508181036000830152613b1181613ad5565b9050919050565b7f4e487b7100000000000000000000000000000000000000000000000000000000600052601160045260246000fd5b6000613b5282612826565b9150613b5d83612826565b9250827fffffffffffffffffffffffffffffffffffffffffffffffffffffffffffffffff03821115613b9257613b91613b18565b5b828201905092915050565b7f45524337323155524953746f726167653a2055524920717565727920666f722060008201527f6e6f6e6578697374656e7420746f6b656e000000000000000000000000000000602082015250565b6000613bf9603183612776565b9150613c0482613b9d565b604082019050919050565b60006020820190508181036000830152613c2881613bec565b9050919050565b600081905092915050565b6000613c458261276b565b613c4f8185613c2f565b9350613c5f818560208601612787565b80840191505092915050565b6000613c778285613c3a565b9150613c838284613c3a565b91508190509392505050565b7f4552433732313a206f70657261746f7220717565727920666f72206e6f6e657860008201527f697374656e7420746f6b656e0000000000000000000000000000000000000000602082015250565b6000613ceb602c83612776565b9150613cf682613c8f565b604082019050919050565b60006020820190508181036000830152613d1a81613cde565b9050919050565b7f4552433732313a207472616e736665722066726f6d20696e636f72726563742060008201527f6f776e6572000000000000000000000000000000000000000000000000000000602082015250565b6000613d7d602583612776565b9150613d8882613d21565b604082019050919050565b60006020820190508181036000830152613dac81613d70565b9050919050565b7f4552433732313a207472616e7366657220746f20746865207a65726f2061646460008201527f7265737300000000000000000000000000000000000000000000000000000000602082015250565b6000613e0f602483612776565b9150613e1a82613db3565b604082019050919050565b60006020820190508181036000830152613e3e81613e02565b9050919050565b6000613e5082612826565b9150613e5b83612826565b925082821015613e6e57613e6d613b18565b5b828203905092915050565b7f4552433732313a20617070726f766520746f2063616c6c657200000000000000600082015250565b6000613eaf601983612776565b9150613eba82613e79565b602082019050919050565b60006020820190508181036000830152613ede81613ea2565b9050919050565b7f4552433732313a207472616e7366657220746f206e6f6e20455243373231526560008201527f63656976657220696d706c656d656e7465720000000000000000000000000000602082015250565b6000613f41603283612776565b9150613f4c82613ee5565b604082019050919050565b60006020820190508181036000830152613f7081613f34565b9050919050565b7f45524337323155524953746f726167653a2055524920736574206f66206e6f6e60008201527f6578697374656e7420746f6b656e000000000000000000000000000000000000602082015250565b6000613fd3602e83612776565b9150613fde82613f77565b604082019050919050565b6000602082019050818103600083015261400281613fc6565b9050919050565b7f4552433732314d657461646174613a2055524920717565727920666f72206e6f60008201527f6e6578697374656e7420746f6b656e0000000000000000000000000000000000602082015250565b6000614065602f83612776565b915061407082614009565b604082019050919050565b6000602082019050818103600083015261409481614058565b9050919050565b600081519050919050565b600082825260208201905092915050565b60006140c28261409b565b6140cc81856140a6565b93506140dc818560208601612787565b6140e5816127ba565b840191505092915050565b600060808201905061410560008301876128bb565b61411260208301866128bb565b61411f6040830185612d0e565b818103606083015261413181846140b7565b905095945050505050565b60008151905061414b816126dc565b92915050565b600060208284031215614167576141666126a6565b5b60006141758482850161413c565b91505092915050565b600061418982612826565b91507fffffffffffffffffffffffffffffffffffffffffffffffffffffffffffffffff82036141bb576141ba613b18565b5b600182019050919050565b7f4e487b7100000000000000000000000000000000000000000000000000000000600052601260045260246000fd5b600061420082612826565b915061420b83612826565b92508261421b5761421a6141c6565b5b828204905092915050565b600061423182612826565b915061423c83612826565b92508261424c5761424b6141c6565b5b828206905092915050565b7f4552433732313a206d696e7420746f20746865207a65726f2061646472657373600082015250565b600061428d602083612776565b915061429882614257565b602082019050919050565b600060208201905081810360008301526142bc81614280565b9050919050565b7f4552433732313a20746f6b656e20616c7265616479206d696e74656400000000600082015250565b60006142f9601c83612776565b9150614304826142c3565b602082019050919050565b60006020820190508181036000830152614328816142ec565b905091905056fea2646970667358221220dd5ff57d6e3544abf1c050d3849182676534b5b0a2e1d93050601ab67fc5a1bc64736f6c634300080d0033",
  "immutableReferences": {},
  "source": "// SPDX-License-Identifier: GPL-3.0\npragma solidity >=0.6.0 <0.9.0;\n\nimport \"@openzeppelin/contracts/token/ERC721/ERC721.sol\";\nimport \"@openzeppelin/contracts/token/ERC721/extensions/ERC721URIStorage.sol\";\nimport \"@openzeppelin/contracts/utils/Counters.sol\";\nimport \"./TicketManager.sol\";\nimport \"./BlocTick.sol\";\n\ncontract Event is ERC721URIStorage {\n    using Counters for Counters.Counter;\n    using TicketManager for TicketManager.Manager;\n    Counters.Counter private tokenCounter;\n    TicketManager.Manager private ticketManager;\n\n    address public _owner;\n    bool public saleIsActive = true;\n    uint256 private totalSold;\n    address private _factory;\n\n    modifier onlyFactory() {\n        require(msg.sender == _factory, \"You need to use the factory\");\n        _;\n    }\n\n    modifier onlyEventCreator(address caller) {\n        require(caller == _owner, \"Access restricted!\");\n        _;\n    }\n\n    constructor(\n        string memory name,\n        string memory symbol,\n        address __owner\n    ) ERC721(name, symbol) {\n        _factory = msg.sender;\n        _owner = __owner;\n    }\n\n    function purchaseTickets(BlocTick.TicketPurchase[] memory purchases)\n        external\n        payable\n        onlyFactory\n    {\n        require(saleIsActive);\n        require(\n            msg.value >= ticketManager._getTotalCost(purchases),\n            \"The tickets cost more\"\n        );\n        for (uint256 i = 0; i < purchases.length; ) {\n            BlocTick.TicketPurchase memory purchase = purchases[i];\n            uint256 _tokenId = tokenCounter.current();\n            _safeMint(address(this), _tokenId);\n            tokenCounter.increment();\n            _setTokenURI(_tokenId, purchase.tokenURI);\n            safeTransferFrom(address(this), purchase.buyer, _tokenId); //nft to user\n            ticketManager._sales.push(\n                BlocTick.SuccessfulPurchase(\n                    purchase.purchaseId,\n                    purchase.buyer,\n                    _tokenId,\n                    purchase.ticketId,\n                    purchase.cost\n                )\n            );\n            unchecked {\n                i++;\n            }\n        }\n        totalSold += msg.value;\n    }\n\n    function getEventInfo()\n        external\n        view\n        returns (uint256, BlocTick.SuccessfulPurchase[] memory)\n    {\n        return (totalSold, ticketManager.getSales());\n    }\n\n    function storeTickets(BlocTick.Ticket[] memory tickets, address caller)\n        external\n        onlyFactory\n        onlyEventCreator(caller)\n    {\n        ticketManager._storeTickets(tickets);\n    }\n\n    function openSale() external onlyEventCreator(msg.sender) {\n        saleIsActive = true;\n    }\n\n    function closeSale() external onlyEventCreator(msg.sender) {\n        saleIsActive = false;\n    }\n\n    function getMyTickets(address caller)\n        external\n        view\n        returns (BlocTick.SuccessfulPurchase[] memory result)\n    {\n        uint256 counter = 0;\n        if (balanceOf(caller) == 0) {\n            return result;\n        }\n        for (uint256 i = 0; i <= tokenCounter.current(); ) {\n            BlocTick.SuccessfulPurchase memory sale = ticketManager._sales[i];\n            if (ownerOf(sale.tokenId) == caller) {\n                result[counter] = sale;\n                unchecked {\n                    counter++;\n                }\n            }\n            unchecked {\n                i++;\n            }\n        }\n        return result;\n    }\n}\n",
  "sourcePath": "/workspace/nft-ticketting-contracts/backend/contracts/Event.sol",
  "compiler": {
    "name": "solc",
    "version": "0.8.13+commit.abaa5c0e.Emscripten.clang"
  },
  "schemaVersion": "3.4.7",
  "updatedAt": "2022-04-26T07:41:59.186Z",
  "devdoc": {
    "kind": "dev",
    "methods": {
      "approve(address,uint256)": {
        "details": "See {IERC721-approve}."
      },
      "balanceOf(address)": {
        "details": "See {IERC721-balanceOf}."
      },
      "getApproved(uint256)": {
        "details": "See {IERC721-getApproved}."
      },
      "isApprovedForAll(address,address)": {
        "details": "See {IERC721-isApprovedForAll}."
      },
      "name()": {
        "details": "See {IERC721Metadata-name}."
      },
      "ownerOf(uint256)": {
        "details": "See {IERC721-ownerOf}."
      },
      "safeTransferFrom(address,address,uint256)": {
        "details": "See {IERC721-safeTransferFrom}."
      },
      "safeTransferFrom(address,address,uint256,bytes)": {
        "details": "See {IERC721-safeTransferFrom}."
      },
      "setApprovalForAll(address,bool)": {
        "details": "See {IERC721-setApprovalForAll}."
      },
      "supportsInterface(bytes4)": {
        "details": "See {IERC165-supportsInterface}."
      },
      "symbol()": {
        "details": "See {IERC721Metadata-symbol}."
      },
      "tokenURI(uint256)": {
        "details": "See {IERC721Metadata-tokenURI}."
      },
      "transferFrom(address,address,uint256)": {
        "details": "See {IERC721-transferFrom}."
      }
    },
    "version": 1
  },
  "userdoc": {
    "kind": "user",
    "methods": {},
    "version": 1
  }
}