{
  "contractName": "Event",
  "abi": [
    {
      "inputs": [
        {
          "internalType": "string",
          "name": "name",
          "type": "string"
        },
        {
          "internalType": "string",
          "name": "symbol",
          "type": "string"
        },
        {
          "internalType": "address",
          "name": "__owner",
          "type": "address"
        }
      ],
      "stateMutability": "nonpayable",
      "type": "constructor"
    },
    {
      "anonymous": false,
      "inputs": [
        {
          "indexed": true,
          "internalType": "address",
          "name": "owner",
          "type": "address"
        },
        {
          "indexed": true,
          "internalType": "address",
          "name": "approved",
          "type": "address"
        },
        {
          "indexed": true,
          "internalType": "uint256",
          "name": "tokenId",
          "type": "uint256"
        }
      ],
      "name": "Approval",
      "type": "event"
    },
    {
      "anonymous": false,
      "inputs": [
        {
          "indexed": true,
          "internalType": "address",
          "name": "owner",
          "type": "address"
        },
        {
          "indexed": true,
          "internalType": "address",
          "name": "operator",
          "type": "address"
        },
        {
          "indexed": false,
          "internalType": "bool",
          "name": "approved",
          "type": "bool"
        }
      ],
      "name": "ApprovalForAll",
      "type": "event"
    },
    {
      "anonymous": false,
      "inputs": [
        {
          "indexed": true,
          "internalType": "address",
          "name": "from",
          "type": "address"
        },
        {
          "indexed": true,
          "internalType": "address",
          "name": "to",
          "type": "address"
        },
        {
          "indexed": true,
          "internalType": "uint256",
          "name": "tokenId",
          "type": "uint256"
        }
      ],
      "name": "Transfer",
      "type": "event"
    },
    {
      "inputs": [],
      "name": "_factory",
      "outputs": [
        {
          "internalType": "address",
          "name": "",
          "type": "address"
        }
      ],
      "stateMutability": "view",
      "type": "function"
    },
    {
      "inputs": [],
      "name": "_owner",
      "outputs": [
        {
          "internalType": "address",
          "name": "",
          "type": "address"
        }
      ],
      "stateMutability": "view",
      "type": "function"
    },
    {
      "inputs": [],
      "name": "_status",
      "outputs": [
        {
          "internalType": "string",
          "name": "",
          "type": "string"
        }
      ],
      "stateMutability": "view",
      "type": "function"
    },
    {
      "inputs": [
        {
          "internalType": "address",
          "name": "to",
          "type": "address"
        },
        {
          "internalType": "uint256",
          "name": "tokenId",
          "type": "uint256"
        }
      ],
      "name": "approve",
      "outputs": [],
      "stateMutability": "nonpayable",
      "type": "function"
    },
    {
      "inputs": [
        {
          "internalType": "address",
          "name": "owner",
          "type": "address"
        }
      ],
      "name": "balanceOf",
      "outputs": [
        {
          "internalType": "uint256",
          "name": "",
          "type": "uint256"
        }
      ],
      "stateMutability": "view",
      "type": "function"
    },
    {
      "inputs": [
        {
          "internalType": "uint256",
          "name": "tokenId",
          "type": "uint256"
        }
      ],
      "name": "getApproved",
      "outputs": [
        {
          "internalType": "address",
          "name": "",
          "type": "address"
        }
      ],
      "stateMutability": "view",
      "type": "function"
    },
    {
      "inputs": [
        {
          "internalType": "address",
          "name": "owner",
          "type": "address"
        },
        {
          "internalType": "address",
          "name": "operator",
          "type": "address"
        }
      ],
      "name": "isApprovedForAll",
      "outputs": [
        {
          "internalType": "bool",
          "name": "",
          "type": "bool"
        }
      ],
      "stateMutability": "view",
      "type": "function"
    },
    {
      "inputs": [],
      "name": "name",
      "outputs": [
        {
          "internalType": "string",
          "name": "",
          "type": "string"
        }
      ],
      "stateMutability": "view",
      "type": "function"
    },
    {
      "inputs": [
        {
          "internalType": "uint256",
          "name": "tokenId",
          "type": "uint256"
        }
      ],
      "name": "ownerOf",
      "outputs": [
        {
          "internalType": "address",
          "name": "",
          "type": "address"
        }
      ],
      "stateMutability": "view",
      "type": "function"
    },
    {
      "inputs": [
        {
          "internalType": "address",
          "name": "from",
          "type": "address"
        },
        {
          "internalType": "address",
          "name": "to",
          "type": "address"
        },
        {
          "internalType": "uint256",
          "name": "tokenId",
          "type": "uint256"
        }
      ],
      "name": "safeTransferFrom",
      "outputs": [],
      "stateMutability": "nonpayable",
      "type": "function"
    },
    {
      "inputs": [
        {
          "internalType": "address",
          "name": "from",
          "type": "address"
        },
        {
          "internalType": "address",
          "name": "to",
          "type": "address"
        },
        {
          "internalType": "uint256",
          "name": "tokenId",
          "type": "uint256"
        },
        {
          "internalType": "bytes",
          "name": "_data",
          "type": "bytes"
        }
      ],
      "name": "safeTransferFrom",
      "outputs": [],
      "stateMutability": "nonpayable",
      "type": "function"
    },
    {
      "inputs": [
        {
          "internalType": "address",
          "name": "operator",
          "type": "address"
        },
        {
          "internalType": "bool",
          "name": "approved",
          "type": "bool"
        }
      ],
      "name": "setApprovalForAll",
      "outputs": [],
      "stateMutability": "nonpayable",
      "type": "function"
    },
    {
      "inputs": [
        {
          "internalType": "bytes4",
          "name": "interfaceId",
          "type": "bytes4"
        }
      ],
      "name": "supportsInterface",
      "outputs": [
        {
          "internalType": "bool",
          "name": "",
          "type": "bool"
        }
      ],
      "stateMutability": "view",
      "type": "function"
    },
    {
      "inputs": [],
      "name": "symbol",
      "outputs": [
        {
          "internalType": "string",
          "name": "",
          "type": "string"
        }
      ],
      "stateMutability": "view",
      "type": "function"
    },
    {
      "inputs": [
        {
          "internalType": "uint256",
          "name": "tokenId",
          "type": "uint256"
        }
      ],
      "name": "tokenURI",
      "outputs": [
        {
          "internalType": "string",
          "name": "",
          "type": "string"
        }
      ],
      "stateMutability": "view",
      "type": "function"
    },
    {
      "inputs": [
        {
          "internalType": "address",
          "name": "from",
          "type": "address"
        },
        {
          "internalType": "address",
          "name": "to",
          "type": "address"
        },
        {
          "internalType": "uint256",
          "name": "tokenId",
          "type": "uint256"
        }
      ],
      "name": "transferFrom",
      "outputs": [],
      "stateMutability": "nonpayable",
      "type": "function"
    },
    {
      "inputs": [
        {
          "components": [
            {
              "internalType": "string",
              "name": "purchaseId",
              "type": "string"
            },
            {
              "internalType": "uint8",
              "name": "ticketId",
              "type": "uint8"
            },
            {
              "internalType": "string",
              "name": "tokenURI",
              "type": "string"
            },
            {
              "internalType": "address",
              "name": "buyer",
              "type": "address"
            },
            {
              "internalType": "uint256",
              "name": "cost",
              "type": "uint256"
            }
          ],
          "internalType": "struct BlocTick.TicketPurchase[]",
          "name": "purchases",
          "type": "tuple[]"
        }
      ],
      "name": "purchaseTickets",
      "outputs": [],
      "stateMutability": "payable",
      "type": "function"
    },
    {
      "inputs": [],
      "name": "getEventTickets",
      "outputs": [
        {
          "components": [
            {
              "internalType": "string",
              "name": "name",
              "type": "string"
            },
            {
              "internalType": "string",
              "name": "description",
              "type": "string"
            },
            {
              "internalType": "enum BlocTick.TicketType",
              "name": "ticket_type",
              "type": "uint8"
            },
            {
              "internalType": "uint256",
              "name": "quantity_available",
              "type": "uint256"
            },
            {
              "internalType": "uint256",
              "name": "price",
              "type": "uint256"
            }
          ],
          "internalType": "struct BlocTick.Ticket[]",
          "name": "",
          "type": "tuple[]"
        }
      ],
      "stateMutability": "view",
      "type": "function"
    },
    {
      "inputs": [
        {
          "components": [
            {
              "internalType": "string",
              "name": "name",
              "type": "string"
            },
            {
              "internalType": "string",
              "name": "description",
              "type": "string"
            },
            {
              "internalType": "enum BlocTick.TicketType",
              "name": "ticket_type",
              "type": "uint8"
            },
            {
              "internalType": "uint256",
              "name": "quantity_available",
              "type": "uint256"
            },
            {
              "internalType": "uint256",
              "name": "price",
              "type": "uint256"
            }
          ],
          "internalType": "struct BlocTick.Ticket[]",
          "name": "tickets",
          "type": "tuple[]"
        },
        {
          "internalType": "address",
          "name": "caller",
          "type": "address"
        }
      ],
      "name": "storeTickets",
      "outputs": [],
      "stateMutability": "nonpayable",
      "type": "function"
    },
    {
      "inputs": [
        {
          "internalType": "string",
          "name": "__status",
          "type": "string"
        }
      ],
      "name": "setStatus",
      "outputs": [],
      "stateMutability": "nonpayable",
      "type": "function"
    },
    {
      "inputs": [
        {
          "internalType": "address",
          "name": "caller",
          "type": "address"
        }
      ],
      "name": "getMyTickets",
      "outputs": [
        {
          "components": [
            {
              "internalType": "string",
              "name": "purchaseId",
              "type": "string"
            },
            {
              "internalType": "address",
              "name": "buyer",
              "type": "address"
            },
            {
              "internalType": "uint256",
              "name": "tokenId",
              "type": "uint256"
            },
            {
              "internalType": "uint8",
              "name": "ticketId",
              "type": "uint8"
            },
            {
              "internalType": "uint256",
              "name": "cost",
              "type": "uint256"
            }
          ],
          "internalType": "struct BlocTick.SuccessfulPurchase[]",
          "name": "result",
          "type": "tuple[]"
        }
      ],
      "stateMutability": "view",
      "type": "function"
    }
  ],
  "bytecode": "0x60806040523480156200001157600080fd5b50604051620049f6380380620049f68339818101604052810190620000379190620003f8565b828281600090805190602001906200005192919062000146565b5080600190805190602001906200006a92919062000146565b50505033600c60006101000a81548173ffffffffffffffffffffffffffffffffffffffff021916908373ffffffffffffffffffffffffffffffffffffffff16021790555080600a60006101000a81548173ffffffffffffffffffffffffffffffffffffffff021916908373ffffffffffffffffffffffffffffffffffffffff1602179055506040518060400160405280600681526020017f6163746976650000000000000000000000000000000000000000000000000000815250600b90805190602001906200013c92919062000146565b50505050620004f6565b8280546200015490620004c1565b90600052602060002090601f016020900481019282620001785760008555620001c4565b82601f106200019357805160ff1916838001178555620001c4565b82800160010185558215620001c4579182015b82811115620001c3578251825591602001919060010190620001a6565b5b509050620001d39190620001d7565b5090565b5b80821115620001f2576000816000905550600101620001d8565b5090565b6000604051905090565b600080fd5b600080fd5b600080fd5b600080fd5b6000601f19601f8301169050919050565b7f4e487b7100000000000000000000000000000000000000000000000000000000600052604160045260246000fd5b6200025f8262000214565b810181811067ffffffffffffffff8211171562000281576200028062000225565b5b80604052505050565b600062000296620001f6565b9050620002a4828262000254565b919050565b600067ffffffffffffffff821115620002c757620002c662000225565b5b620002d28262000214565b9050602081019050919050565b60005b83811015620002ff578082015181840152602081019050620002e2565b838111156200030f576000848401525b50505050565b60006200032c6200032684620002a9565b6200028a565b9050828152602081018484840111156200034b576200034a6200020f565b5b62000358848285620002df565b509392505050565b600082601f8301126200037857620003776200020a565b5b81516200038a84826020860162000315565b91505092915050565b600073ffffffffffffffffffffffffffffffffffffffff82169050919050565b6000620003c08262000393565b9050919050565b620003d281620003b3565b8114620003de57600080fd5b50565b600081519050620003f281620003c7565b92915050565b60008060006060848603121562000414576200041362000200565b5b600084015167ffffffffffffffff81111562000435576200043462000205565b5b620004438682870162000360565b935050602084015167ffffffffffffffff81111562000467576200046662000205565b5b620004758682870162000360565b92505060406200048886828701620003e1565b9150509250925092565b7f4e487b7100000000000000000000000000000000000000000000000000000000600052602260045260246000fd5b60006002820490506001821680620004da57607f821691505b602082108103620004f057620004ef62000492565b5b50919050565b6144f080620005066000396000f3fe60806040526004361061012a5760003560e01c80636352211e116100ab578063a22cb4651161006f578063a22cb465146103f5578063b2bdfa7b1461041e578063b88d4fde14610449578063c5cc6b6a14610472578063c87b56dd1461049d578063e985e9c5146104da5761012a565b80636352211e146102ea57806370a08231146103275780637d2211d6146103645780638aaf26861461038d57806395d89b41146103ca5761012a565b80631e02a4e3116100f25780631e02a4e31461022857806323b872dd146102445780632c4dd21e1461026d5780633d181c7e1461029857806342842e0e146102c15761012a565b806301ffc9a71461012f57806306fdde031461016c578063081812fc14610197578063095ea7b3146101d45780630fb3844c146101fd575b600080fd5b34801561013b57600080fd5b50610156600480360381019061015191906126ea565b610517565b6040516101639190612732565b60405180910390f35b34801561017857600080fd5b506101816105f9565b60405161018e91906127e6565b60405180910390f35b3480156101a357600080fd5b506101be60048036038101906101b9919061283e565b61068b565b6040516101cb91906128ac565b60405180910390f35b3480156101e057600080fd5b506101fb60048036038101906101f691906128f3565b610710565b005b34801561020957600080fd5b50610212610827565b60405161021f91906127e6565b60405180910390f35b610242600480360381019061023d9190612c55565b6108b5565b005b34801561025057600080fd5b5061026b60048036038101906102669190612c9e565b610aa1565b005b34801561027957600080fd5b50610282610b01565b60405161028f9190612f00565b60405180910390f35b3480156102a457600080fd5b506102bf60048036038101906102ba91906130ec565b610d4c565b005b3480156102cd57600080fd5b506102e860048036038101906102e39190612c9e565b610ede565b005b3480156102f657600080fd5b50610311600480360381019061030c919061283e565b610efe565b60405161031e91906128ac565b60405180910390f35b34801561033357600080fd5b5061034e60048036038101906103499190613148565b610faf565b60405161035b9190613184565b60405180910390f35b34801561037057600080fd5b5061038b6004803603810190610386919061319f565b611066565b005b34801561039957600080fd5b506103b460048036038101906103af9190613148565b611110565b6040516103c1919061333e565b60405180910390f35b3480156103d657600080fd5b506103df611306565b6040516103ec91906127e6565b60405180910390f35b34801561040157600080fd5b5061041c6004803603810190610417919061338c565b611398565b005b34801561042a57600080fd5b506104336113ae565b60405161044091906128ac565b60405180910390f35b34801561045557600080fd5b50610470600480360381019061046b919061346d565b6113d4565b005b34801561047e57600080fd5b50610487611436565b60405161049491906128ac565b60405180910390f35b3480156104a957600080fd5b506104c460048036038101906104bf919061283e565b61145c565b6040516104d191906127e6565b60405180910390f35b3480156104e657600080fd5b5061050160048036038101906104fc91906134f0565b6115ad565b60405161050e9190612732565b60405180910390f35b60007f80ac58cd000000000000000000000000000000000000000000000000000000007bffffffffffffffffffffffffffffffffffffffffffffffffffffffff1916827bffffffffffffffffffffffffffffffffffffffffffffffffffffffff191614806105e257507f5b5e139f000000000000000000000000000000000000000000000000000000007bffffffffffffffffffffffffffffffffffffffffffffffffffffffff1916827bffffffffffffffffffffffffffffffffffffffffffffffffffffffff1916145b806105f257506105f182611641565b5b9050919050565b6060600080546106089061355f565b80601f01602080910402602001604051908101604052809291908181526020018280546106349061355f565b80156106815780601f1061065657610100808354040283529160200191610681565b820191906000526020600020905b81548152906001019060200180831161066457829003601f168201915b5050505050905090565b6000610696826116ab565b6106d5576040517f08c379a00000000000000000000000000000000000000000000000000000000081526004016106cc90613602565b60405180910390fd5b6004600083815260200190815260200160002060009054906101000a900473ffffffffffffffffffffffffffffffffffffffff169050919050565b600061071b82610efe565b90508073ffffffffffffffffffffffffffffffffffffffff168373ffffffffffffffffffffffffffffffffffffffff160361078b576040517f08c379a000000000000000000000000000000000000000000000000000000000815260040161078290613694565b60405180910390fd5b8073ffffffffffffffffffffffffffffffffffffffff166107aa611717565b73ffffffffffffffffffffffffffffffffffffffff1614806107d957506107d8816107d3611717565b6115ad565b5b610818576040517f08c379a000000000000000000000000000000000000000000000000000000000815260040161080f90613726565b60405180910390fd5b610822838361171f565b505050565b600b80546108349061355f565b80601f01602080910402602001604051908101604052809291908181526020018280546108609061355f565b80156108ad5780601f10610882576101008083540402835291602001916108ad565b820191906000526020600020905b81548152906001019060200180831161089057829003601f168201915b505050505081565b6108c98160086117d890919063ffffffff16565b34101561090b576040517f08c379a000000000000000000000000000000000000000000000000000000000815260040161090290613792565b60405180910390fd5b60005b8151811015610a9d57600082828151811061092c5761092b6137b2565b5b6020026020010151905060006109426007611a13565b905061094e3082611a21565b6109586007611a3f565b610966818360400151611a55565b61097530836060015183610ede565b60086001016040518060a0016040528084600001518152602001846060015173ffffffffffffffffffffffffffffffffffffffff168152602001838152602001846020015160ff168152602001846080015181525090806001815401808255809150506001900390600052602060002090600502016000909190919091506000820151816000019080519060200190610a0f9291906125db565b5060208201518160010160006101000a81548173ffffffffffffffffffffffffffffffffffffffff021916908373ffffffffffffffffffffffffffffffffffffffff1602179055506040820151816002015560608201518160030160006101000a81548160ff021916908360ff1602179055506080820151816004015550508280600101935050505061090e565b5050565b610ab2610aac611717565b82611ac9565b610af1576040517f08c379a0000000000000000000000000000000000000000000000000000000008152600401610ae890613853565b60405180910390fd5b610afc838383611ba7565b505050565b6060600873__TicketManager_________________________63583ede5290916040518263ffffffff1660e01b8152600401610b3d919061387a565b602060405180830381865af4158015610b5a573d6000803e3d6000fd5b505050506040513d601f19601f82011682018060405250810190610b7e91906138cb565b805480602002602001604051908101604052809291908181526020016000905b82821015610d4357838290600052602060002090600502016040518060a0016040529081600082018054610bd19061355f565b80601f0160208091040260200160405190810160405280929190818152602001828054610bfd9061355f565b8015610c4a5780601f10610c1f57610100808354040283529160200191610c4a565b820191906000526020600020905b815481529060010190602001808311610c2d57829003601f168201915b50505050508152602001600182018054610c639061355f565b80601f0160208091040260200160405190810160405280929190818152602001828054610c8f9061355f565b8015610cdc5780601f10610cb157610100808354040283529160200191610cdc565b820191906000526020600020905b815481529060010190602001808311610cbf57829003601f168201915b505050505081526020016002820160009054906101000a900460ff166002811115610d0a57610d09612d67565b5b6002811115610d1c57610d1b612d67565b5b81526020016003820154815260200160048201548152505081526020019060010190610b9e565b50505050905090565b600c60009054906101000a900473ffffffffffffffffffffffffffffffffffffffff1673ffffffffffffffffffffffffffffffffffffffff163373ffffffffffffffffffffffffffffffffffffffff1614610ddc576040517f08c379a0000000000000000000000000000000000000000000000000000000008152600401610dd390613944565b60405180910390fd5b80600a60009054906101000a900473ffffffffffffffffffffffffffffffffffffffff1673ffffffffffffffffffffffffffffffffffffffff168173ffffffffffffffffffffffffffffffffffffffff1614610e6d576040517f08c379a0000000000000000000000000000000000000000000000000000000008152600401610e64906139b0565b60405180910390fd5b600873__TicketManager_________________________63a2a93cbf9091856040518363ffffffff1660e01b8152600401610ea9929190613b4f565b60006040518083038186803b158015610ec157600080fd5b505af4158015610ed5573d6000803e3d6000fd5b50505050505050565b610ef9838383604051806020016040528060008152506113d4565b505050565b6000806002600084815260200190815260200160002060009054906101000a900473ffffffffffffffffffffffffffffffffffffffff169050600073ffffffffffffffffffffffffffffffffffffffff168173ffffffffffffffffffffffffffffffffffffffff1603610fa6576040517f08c379a0000000000000000000000000000000000000000000000000000000008152600401610f9d90613bf1565b60405180910390fd5b80915050919050565b60008073ffffffffffffffffffffffffffffffffffffffff168273ffffffffffffffffffffffffffffffffffffffff160361101f576040517f08c379a000000000000000000000000000000000000000000000000000000000815260040161101690613c83565b60405180910390fd5b600360008373ffffffffffffffffffffffffffffffffffffffff1673ffffffffffffffffffffffffffffffffffffffff168152602001908152602001600020549050919050565b600c60009054906101000a900473ffffffffffffffffffffffffffffffffffffffff1673ffffffffffffffffffffffffffffffffffffffff163373ffffffffffffffffffffffffffffffffffffffff16146110f6576040517f08c379a00000000000000000000000000000000000000000000000000000000081526004016110ed90613944565b60405180910390fd5b80600b908051906020019061110c9291906125db565b5050565b606060008061111e84610faf565b036111295750611301565b60005b6111366007611a13565b81116112fe57600060086001018281548110611155576111546137b2565b5b90600052602060002090600502016040518060a001604052908160008201805461117e9061355f565b80601f01602080910402602001604051908101604052809291908181526020018280546111aa9061355f565b80156111f75780601f106111cc576101008083540402835291602001916111f7565b820191906000526020600020905b8154815290600101906020018083116111da57829003601f168201915b505050505081526020016001820160009054906101000a900473ffffffffffffffffffffffffffffffffffffffff1673ffffffffffffffffffffffffffffffffffffffff1673ffffffffffffffffffffffffffffffffffffffff168152602001600282015481526020016003820160009054906101000a900460ff1660ff1660ff16815260200160048201548152505090508473ffffffffffffffffffffffffffffffffffffffff166112ad8260400151610efe565b73ffffffffffffffffffffffffffffffffffffffff16036112f057808484815181106112dc576112db6137b2565b5b602002602001018190525082806001019350505b81806001019250505061112c565b50505b919050565b6060600180546113159061355f565b80601f01602080910402602001604051908101604052809291908181526020018280546113419061355f565b801561138e5780601f106113635761010080835404028352916020019161138e565b820191906000526020600020905b81548152906001019060200180831161137157829003601f168201915b5050505050905090565b6113aa6113a3611717565b8383611e0d565b5050565b600a60009054906101000a900473ffffffffffffffffffffffffffffffffffffffff1681565b6113e56113df611717565b83611ac9565b611424576040517f08c379a000000000000000000000000000000000000000000000000000000000815260040161141b90613853565b60405180910390fd5b61143084848484611f79565b50505050565b600c60009054906101000a900473ffffffffffffffffffffffffffffffffffffffff1681565b6060611467826116ab565b6114a6576040517f08c379a000000000000000000000000000000000000000000000000000000000815260040161149d90613d15565b60405180910390fd5b60006006600084815260200190815260200160002080546114c69061355f565b80601f01602080910402602001604051908101604052809291908181526020018280546114f29061355f565b801561153f5780601f106115145761010080835404028352916020019161153f565b820191906000526020600020905b81548152906001019060200180831161152257829003601f168201915b505050505090506000611550611fd5565b905060008151036115655781925050506115a8565b60008251111561159a578082604051602001611582929190613d71565b604051602081830303815290604052925050506115a8565b6115a384611fec565b925050505b919050565b6000600560008473ffffffffffffffffffffffffffffffffffffffff1673ffffffffffffffffffffffffffffffffffffffff16815260200190815260200160002060008373ffffffffffffffffffffffffffffffffffffffff1673ffffffffffffffffffffffffffffffffffffffff16815260200190815260200160002060009054906101000a900460ff16905092915050565b60007f01ffc9a7000000000000000000000000000000000000000000000000000000007bffffffffffffffffffffffffffffffffffffffffffffffffffffffff1916827bffffffffffffffffffffffffffffffffffffffffffffffffffffffff1916149050919050565b60008073ffffffffffffffffffffffffffffffffffffffff166002600084815260200190815260200160002060009054906101000a900473ffffffffffffffffffffffffffffffffffffffff1673ffffffffffffffffffffffffffffffffffffffff1614159050919050565b600033905090565b816004600083815260200190815260200160002060006101000a81548173ffffffffffffffffffffffffffffffffffffffff021916908373ffffffffffffffffffffffffffffffffffffffff160217905550808273ffffffffffffffffffffffffffffffffffffffff1661179283610efe565b73ffffffffffffffffffffffffffffffffffffffff167f8c5be1e5ebec7d5bd14f71427d1e84f3dd0314c0f7b2291e5b200ac8c7c3b92560405160405180910390a45050565b600080600090505b82518160ff161015611a0c57600084600001848360ff1681518110611808576118076137b2565b5b60200260200101516020015160ff1681548110611828576118276137b2565b5b90600052602060002090600502016040518060a00160405290816000820180546118519061355f565b80601f016020809104026020016040519081016040528092919081815260200182805461187d9061355f565b80156118ca5780601f1061189f576101008083540402835291602001916118ca565b820191906000526020600020905b8154815290600101906020018083116118ad57829003601f168201915b505050505081526020016001820180546118e39061355f565b80601f016020809104026020016040519081016040528092919081815260200182805461190f9061355f565b801561195c5780601f106119315761010080835404028352916020019161195c565b820191906000526020600020905b81548152906001019060200180831161193f57829003601f168201915b505050505081526020016002820160009054906101000a900460ff16600281111561198a57611989612d67565b5b600281111561199c5761199b612d67565b5b81526020016003820154815260200160048201548152505090506002808111156119c9576119c8612d67565b5b816040015160028111156119e0576119df612d67565b5b036119eb5750611a07565b8060800151836119fb9190613dc4565b92508180600101925050505b6117e0565b5092915050565b600081600001549050919050565b611a3b828260405180602001604052806000815250612093565b5050565b6001816000016000828254019250508190555050565b611a5e826116ab565b611a9d576040517f08c379a0000000000000000000000000000000000000000000000000000000008152600401611a9490613e8c565b60405180910390fd5b80600660008481526020019081526020016000209080519060200190611ac49291906125db565b505050565b6000611ad4826116ab565b611b13576040517f08c379a0000000000000000000000000000000000000000000000000000000008152600401611b0a90613f1e565b60405180910390fd5b6000611b1e83610efe565b90508073ffffffffffffffffffffffffffffffffffffffff168473ffffffffffffffffffffffffffffffffffffffff161480611b8d57508373ffffffffffffffffffffffffffffffffffffffff16611b758461068b565b73ffffffffffffffffffffffffffffffffffffffff16145b80611b9e5750611b9d81856115ad565b5b91505092915050565b8273ffffffffffffffffffffffffffffffffffffffff16611bc782610efe565b73ffffffffffffffffffffffffffffffffffffffff1614611c1d576040517f08c379a0000000000000000000000000000000000000000000000000000000008152600401611c1490613fb0565b60405180910390fd5b600073ffffffffffffffffffffffffffffffffffffffff168273ffffffffffffffffffffffffffffffffffffffff1603611c8c576040517f08c379a0000000000000000000000000000000000000000000000000000000008152600401611c8390614042565b60405180910390fd5b611c978383836120ee565b611ca260008261171f565b6001600360008573ffffffffffffffffffffffffffffffffffffffff1673ffffffffffffffffffffffffffffffffffffffff1681526020019081526020016000206000828254611cf29190614062565b925050819055506001600360008473ffffffffffffffffffffffffffffffffffffffff1673ffffffffffffffffffffffffffffffffffffffff1681526020019081526020016000206000828254611d499190613dc4565b92505081905550816002600083815260200190815260200160002060006101000a81548173ffffffffffffffffffffffffffffffffffffffff021916908373ffffffffffffffffffffffffffffffffffffffff160217905550808273ffffffffffffffffffffffffffffffffffffffff168473ffffffffffffffffffffffffffffffffffffffff167fddf252ad1be2c89b69c2b068fc378daa952ba7f163c4a11628f55a4df523b3ef60405160405180910390a4611e088383836120f3565b505050565b8173ffffffffffffffffffffffffffffffffffffffff168373ffffffffffffffffffffffffffffffffffffffff1603611e7b576040517f08c379a0000000000000000000000000000000000000000000000000000000008152600401611e72906140e2565b60405180910390fd5b80600560008573ffffffffffffffffffffffffffffffffffffffff1673ffffffffffffffffffffffffffffffffffffffff16815260200190815260200160002060008473ffffffffffffffffffffffffffffffffffffffff1673ffffffffffffffffffffffffffffffffffffffff16815260200190815260200160002060006101000a81548160ff0219169083151502179055508173ffffffffffffffffffffffffffffffffffffffff168373ffffffffffffffffffffffffffffffffffffffff167f17307eab39ab6107e8899845ad3d59bd9653f200f220920489ca2b5937696c3183604051611f6c9190612732565b60405180910390a3505050565b611f84848484611ba7565b611f90848484846120f8565b611fcf576040517f08c379a0000000000000000000000000000000000000000000000000000000008152600401611fc690614174565b60405180910390fd5b50505050565b606060405180602001604052806000815250905090565b6060611ff7826116ab565b612036576040517f08c379a000000000000000000000000000000000000000000000000000000000815260040161202d90614206565b60405180910390fd5b6000612040611fd5565b90506000815111612060576040518060200160405280600081525061208b565b8061206a8461227f565b60405160200161207b929190613d71565b6040516020818303038152906040525b915050919050565b61209d83836123df565b6120aa60008484846120f8565b6120e9576040517f08c379a00000000000000000000000000000000000000000000000000000000081526004016120e090614174565b60405180910390fd5b505050565b505050565b505050565b60006121198473ffffffffffffffffffffffffffffffffffffffff166125b8565b15612272578373ffffffffffffffffffffffffffffffffffffffff1663150b7a02612142611717565b8786866040518563ffffffff1660e01b8152600401612164949392919061427b565b6020604051808303816000875af19250505080156121a057506040513d601f19601f8201168201806040525081019061219d91906142dc565b60015b612222573d80600081146121d0576040519150601f19603f3d011682016040523d82523d6000602084013e6121d5565b606091505b50600081510361221a576040517f08c379a000000000000000000000000000000000000000000000000000000000815260040161221190614174565b60405180910390fd5b805181602001fd5b63150b7a0260e01b7bffffffffffffffffffffffffffffffffffffffffffffffffffffffff1916817bffffffffffffffffffffffffffffffffffffffffffffffffffffffff191614915050612277565b600190505b949350505050565b6060600082036122c6576040518060400160405280600181526020017f300000000000000000000000000000000000000000000000000000000000000081525090506123da565b600082905060005b600082146122f85780806122e190614309565b915050600a826122f19190614380565b91506122ce565b60008167ffffffffffffffff81111561231457612313612938565b5b6040519080825280601f01601f1916602001820160405280156123465781602001600182028036833780820191505090505b5090505b600085146123d35760018261235f9190614062565b9150600a8561236e91906143b1565b603061237a9190613dc4565b60f81b8183815181106123905761238f6137b2565b5b60200101907effffffffffffffffffffffffffffffffffffffffffffffffffffffffffffff1916908160001a905350600a856123cc9190614380565b945061234a565b8093505050505b919050565b600073ffffffffffffffffffffffffffffffffffffffff168273ffffffffffffffffffffffffffffffffffffffff160361244e576040517f08c379a00000000000000000000000000000000000000000000000000000000081526004016124459061442e565b60405180910390fd5b612457816116ab565b15612497576040517f08c379a000000000000000000000000000000000000000000000000000000000815260040161248e9061449a565b60405180910390fd5b6124a3600083836120ee565b6001600360008473ffffffffffffffffffffffffffffffffffffffff1673ffffffffffffffffffffffffffffffffffffffff16815260200190815260200160002060008282546124f39190613dc4565b92505081905550816002600083815260200190815260200160002060006101000a81548173ffffffffffffffffffffffffffffffffffffffff021916908373ffffffffffffffffffffffffffffffffffffffff160217905550808273ffffffffffffffffffffffffffffffffffffffff16600073ffffffffffffffffffffffffffffffffffffffff167fddf252ad1be2c89b69c2b068fc378daa952ba7f163c4a11628f55a4df523b3ef60405160405180910390a46125b4600083836120f3565b5050565b6000808273ffffffffffffffffffffffffffffffffffffffff163b119050919050565b8280546125e79061355f565b90600052602060002090601f0160209004810192826126095760008555612650565b82601f1061262257805160ff1916838001178555612650565b82800160010185558215612650579182015b8281111561264f578251825591602001919060010190612634565b5b50905061265d9190612661565b5090565b5b8082111561267a576000816000905550600101612662565b5090565b6000604051905090565b600080fd5b600080fd5b60007fffffffff0000000000000000000000000000000000000000000000000000000082169050919050565b6126c781612692565b81146126d257600080fd5b50565b6000813590506126e4816126be565b92915050565b600060208284031215612700576126ff612688565b5b600061270e848285016126d5565b91505092915050565b60008115159050919050565b61272c81612717565b82525050565b60006020820190506127476000830184612723565b92915050565b600081519050919050565b600082825260208201905092915050565b60005b8381101561278757808201518184015260208101905061276c565b83811115612796576000848401525b50505050565b6000601f19601f8301169050919050565b60006127b88261274d565b6127c28185612758565b93506127d2818560208601612769565b6127db8161279c565b840191505092915050565b6000602082019050818103600083015261280081846127ad565b905092915050565b6000819050919050565b61281b81612808565b811461282657600080fd5b50565b60008135905061283881612812565b92915050565b60006020828403121561285457612853612688565b5b600061286284828501612829565b91505092915050565b600073ffffffffffffffffffffffffffffffffffffffff82169050919050565b60006128968261286b565b9050919050565b6128a68161288b565b82525050565b60006020820190506128c1600083018461289d565b92915050565b6128d08161288b565b81146128db57600080fd5b50565b6000813590506128ed816128c7565b92915050565b6000806040838503121561290a57612909612688565b5b6000612918858286016128de565b925050602061292985828601612829565b9150509250929050565b600080fd5b7f4e487b7100000000000000000000000000000000000000000000000000000000600052604160045260246000fd5b6129708261279c565b810181811067ffffffffffffffff8211171561298f5761298e612938565b5b80604052505050565b60006129a261267e565b90506129ae8282612967565b919050565b600067ffffffffffffffff8211156129ce576129cd612938565b5b602082029050602081019050919050565b600080fd5b600080fd5b600080fd5b600080fd5b600067ffffffffffffffff821115612a0e57612a0d612938565b5b612a178261279c565b9050602081019050919050565b82818337600083830152505050565b6000612a46612a41846129f3565b612998565b905082815260208101848484011115612a6257612a616129ee565b5b612a6d848285612a24565b509392505050565b600082601f830112612a8a57612a89612933565b5b8135612a9a848260208601612a33565b91505092915050565b600060ff82169050919050565b612ab981612aa3565b8114612ac457600080fd5b50565b600081359050612ad681612ab0565b92915050565b600060a08284031215612af257612af16129e4565b5b612afc60a0612998565b9050600082013567ffffffffffffffff811115612b1c57612b1b6129e9565b5b612b2884828501612a75565b6000830152506020612b3c84828501612ac7565b602083015250604082013567ffffffffffffffff811115612b6057612b5f6129e9565b5b612b6c84828501612a75565b6040830152506060612b80848285016128de565b6060830152506080612b9484828501612829565b60808301525092915050565b6000612bb3612bae846129b3565b612998565b90508083825260208201905060208402830185811115612bd657612bd56129df565b5b835b81811015612c1d57803567ffffffffffffffff811115612bfb57612bfa612933565b5b808601612c088982612adc565b85526020850194505050602081019050612bd8565b5050509392505050565b600082601f830112612c3c57612c3b612933565b5b8135612c4c848260208601612ba0565b91505092915050565b600060208284031215612c6b57612c6a612688565b5b600082013567ffffffffffffffff811115612c8957612c8861268d565b5b612c9584828501612c27565b91505092915050565b600080600060608486031215612cb757612cb6612688565b5b6000612cc5868287016128de565b9350506020612cd6868287016128de565b9250506040612ce786828701612829565b9150509250925092565b600081519050919050565b600082825260208201905092915050565b6000819050602082019050919050565b600082825260208201905092915050565b6000612d398261274d565b612d438185612d1d565b9350612d53818560208601612769565b612d5c8161279c565b840191505092915050565b7f4e487b7100000000000000000000000000000000000000000000000000000000600052602160045260246000fd5b60038110612da757612da6612d67565b5b50565b6000819050612db882612d96565b919050565b6000612dc882612daa565b9050919050565b612dd881612dbd565b82525050565b612de781612808565b82525050565b600060a0830160008301518482036000860152612e0a8282612d2e565b91505060208301518482036020860152612e248282612d2e565b9150506040830151612e396040860182612dcf565b506060830151612e4c6060860182612dde565b506080830151612e5f6080860182612dde565b508091505092915050565b6000612e768383612ded565b905092915050565b6000602082019050919050565b6000612e9682612cf1565b612ea08185612cfc565b935083602082028501612eb285612d0d565b8060005b85811015612eee5784840389528151612ecf8582612e6a565b9450612eda83612e7e565b925060208a01995050600181019050612eb6565b50829750879550505050505092915050565b60006020820190508181036000830152612f1a8184612e8b565b905092915050565b600067ffffffffffffffff821115612f3d57612f3c612938565b5b602082029050602081019050919050565b60038110612f5b57600080fd5b50565b600081359050612f6d81612f4e565b92915050565b600060a08284031215612f8957612f886129e4565b5b612f9360a0612998565b9050600082013567ffffffffffffffff811115612fb357612fb26129e9565b5b612fbf84828501612a75565b600083015250602082013567ffffffffffffffff811115612fe357612fe26129e9565b5b612fef84828501612a75565b602083015250604061300384828501612f5e565b604083015250606061301784828501612829565b606083015250608061302b84828501612829565b60808301525092915050565b600061304a61304584612f22565b612998565b9050808382526020820190506020840283018581111561306d5761306c6129df565b5b835b818110156130b457803567ffffffffffffffff81111561309257613091612933565b5b80860161309f8982612f73565b8552602085019450505060208101905061306f565b5050509392505050565b600082601f8301126130d3576130d2612933565b5b81356130e3848260208601613037565b91505092915050565b6000806040838503121561310357613102612688565b5b600083013567ffffffffffffffff8111156131215761312061268d565b5b61312d858286016130be565b925050602061313e858286016128de565b9150509250929050565b60006020828403121561315e5761315d612688565b5b600061316c848285016128de565b91505092915050565b61317e81612808565b82525050565b60006020820190506131996000830184613175565b92915050565b6000602082840312156131b5576131b4612688565b5b600082013567ffffffffffffffff8111156131d3576131d261268d565b5b6131df84828501612a75565b91505092915050565b600081519050919050565b600082825260208201905092915050565b6000819050602082019050919050565b61321d8161288b565b82525050565b61322c81612aa3565b82525050565b600060a083016000830151848203600086015261324f8282612d2e565b91505060208301516132646020860182613214565b5060408301516132776040860182612dde565b50606083015161328a6060860182613223565b50608083015161329d6080860182612dde565b508091505092915050565b60006132b48383613232565b905092915050565b6000602082019050919050565b60006132d4826131e8565b6132de81856131f3565b9350836020820285016132f085613204565b8060005b8581101561332c578484038952815161330d85826132a8565b9450613318836132bc565b925060208a019950506001810190506132f4565b50829750879550505050505092915050565b6000602082019050818103600083015261335881846132c9565b905092915050565b61336981612717565b811461337457600080fd5b50565b60008135905061338681613360565b92915050565b600080604083850312156133a3576133a2612688565b5b60006133b1858286016128de565b92505060206133c285828601613377565b9150509250929050565b600067ffffffffffffffff8211156133e7576133e6612938565b5b6133f08261279c565b9050602081019050919050565b600061341061340b846133cc565b612998565b90508281526020810184848401111561342c5761342b6129ee565b5b613437848285612a24565b509392505050565b600082601f83011261345457613453612933565b5b81356134648482602086016133fd565b91505092915050565b6000806000806080858703121561348757613486612688565b5b6000613495878288016128de565b94505060206134a6878288016128de565b93505060406134b787828801612829565b925050606085013567ffffffffffffffff8111156134d8576134d761268d565b5b6134e48782880161343f565b91505092959194509250565b6000806040838503121561350757613506612688565b5b6000613515858286016128de565b9250506020613526858286016128de565b9150509250929050565b7f4e487b7100000000000000000000000000000000000000000000000000000000600052602260045260246000fd5b6000600282049050600182168061357757607f821691505b60208210810361358a57613589613530565b5b50919050565b7f4552433732313a20617070726f76656420717565727920666f72206e6f6e657860008201527f697374656e7420746f6b656e0000000000000000000000000000000000000000602082015250565b60006135ec602c83612758565b91506135f782613590565b604082019050919050565b6000602082019050818103600083015261361b816135df565b9050919050565b7f4552433732313a20617070726f76616c20746f2063757272656e74206f776e6560008201527f7200000000000000000000000000000000000000000000000000000000000000602082015250565b600061367e602183612758565b915061368982613622565b604082019050919050565b600060208201905081810360008301526136ad81613671565b9050919050565b7f4552433732313a20617070726f76652063616c6c6572206973206e6f74206f7760008201527f6e6572206e6f7220617070726f76656420666f7220616c6c0000000000000000602082015250565b6000613710603883612758565b915061371b826136b4565b604082019050919050565b6000602082019050818103600083015261373f81613703565b9050919050565b7f546865207469636b65747320636f7374206d6f72650000000000000000000000600082015250565b600061377c601583612758565b915061378782613746565b602082019050919050565b600060208201905081810360008301526137ab8161376f565b9050919050565b7f4e487b7100000000000000000000000000000000000000000000000000000000600052603260045260246000fd5b7f4552433732313a207472616e736665722063616c6c6572206973206e6f74206f60008201527f776e6572206e6f7220617070726f766564000000000000000000000000000000602082015250565b600061383d603183612758565b9150613848826137e1565b604082019050919050565b6000602082019050818103600083015261386c81613830565b9050919050565b8082525050565b600060208201905061388f6000830184613873565b92915050565b6000819050919050565b6138a881613895565b81146138b357600080fd5b50565b6000815190506138c58161389f565b92915050565b6000602082840312156138e1576138e0612688565b5b60006138ef848285016138b6565b91505092915050565b7f596f75206e65656420746f207573652074686520666163746f72790000000000600082015250565b600061392e601b83612758565b9150613939826138f8565b602082019050919050565b6000602082019050818103600083015261395d81613921565b9050919050565b7f4163636573732072657374726963746564210000000000000000000000000000600082015250565b600061399a601283612758565b91506139a582613964565b602082019050919050565b600060208201905081810360008301526139c98161398d565b9050919050565b600082825260208201905092915050565b600082825260208201905092915050565b60006139fd8261274d565b613a0781856139e1565b9350613a17818560208601612769565b613a208161279c565b840191505092915050565b613a3481612dbd565b82525050565b613a4381612808565b82525050565b600060a0830160008301518482036000860152613a6682826139f2565b91505060208301518482036020860152613a8082826139f2565b9150506040830151613a956040860182613a2b565b506060830151613aa86060860182613a3a565b506080830151613abb6080860182613a3a565b508091505092915050565b6000613ad28383613a49565b905092915050565b6000613ae582612cf1565b613aef81856139d0565b935083602082028501613b0185612d0d565b8060005b85811015613b3d5784840389528151613b1e8582613ac6565b9450613b2983612e7e565b925060208a01995050600181019050613b05565b50829750879550505050505092915050565b6000604082019050613b646000830185613873565b8181036020830152613b768184613ada565b90509392505050565b7f4552433732313a206f776e657220717565727920666f72206e6f6e657869737460008201527f656e7420746f6b656e0000000000000000000000000000000000000000000000602082015250565b6000613bdb602983612758565b9150613be682613b7f565b604082019050919050565b60006020820190508181036000830152613c0a81613bce565b9050919050565b7f4552433732313a2062616c616e636520717565727920666f7220746865207a6560008201527f726f206164647265737300000000000000000000000000000000000000000000602082015250565b6000613c6d602a83612758565b9150613c7882613c11565b604082019050919050565b60006020820190508181036000830152613c9c81613c60565b9050919050565b7f45524337323155524953746f726167653a2055524920717565727920666f722060008201527f6e6f6e6578697374656e7420746f6b656e000000000000000000000000000000602082015250565b6000613cff603183612758565b9150613d0a82613ca3565b604082019050919050565b60006020820190508181036000830152613d2e81613cf2565b9050919050565b600081905092915050565b6000613d4b8261274d565b613d558185613d35565b9350613d65818560208601612769565b80840191505092915050565b6000613d7d8285613d40565b9150613d898284613d40565b91508190509392505050565b7f4e487b7100000000000000000000000000000000000000000000000000000000600052601160045260246000fd5b6000613dcf82612808565b9150613dda83612808565b9250827fffffffffffffffffffffffffffffffffffffffffffffffffffffffffffffffff03821115613e0f57613e0e613d95565b5b828201905092915050565b7f45524337323155524953746f726167653a2055524920736574206f66206e6f6e60008201527f6578697374656e7420746f6b656e000000000000000000000000000000000000602082015250565b6000613e76602e83612758565b9150613e8182613e1a565b604082019050919050565b60006020820190508181036000830152613ea581613e69565b9050919050565b7f4552433732313a206f70657261746f7220717565727920666f72206e6f6e657860008201527f697374656e7420746f6b656e0000000000000000000000000000000000000000602082015250565b6000613f08602c83612758565b9150613f1382613eac565b604082019050919050565b60006020820190508181036000830152613f3781613efb565b9050919050565b7f4552433732313a207472616e736665722066726f6d20696e636f72726563742060008201527f6f776e6572000000000000000000000000000000000000000000000000000000602082015250565b6000613f9a602583612758565b9150613fa582613f3e565b604082019050919050565b60006020820190508181036000830152613fc981613f8d565b9050919050565b7f4552433732313a207472616e7366657220746f20746865207a65726f2061646460008201527f7265737300000000000000000000000000000000000000000000000000000000602082015250565b600061402c602483612758565b915061403782613fd0565b604082019050919050565b6000602082019050818103600083015261405b8161401f565b9050919050565b600061406d82612808565b915061407883612808565b92508282101561408b5761408a613d95565b5b828203905092915050565b7f4552433732313a20617070726f766520746f2063616c6c657200000000000000600082015250565b60006140cc601983612758565b91506140d782614096565b602082019050919050565b600060208201905081810360008301526140fb816140bf565b9050919050565b7f4552433732313a207472616e7366657220746f206e6f6e20455243373231526560008201527f63656976657220696d706c656d656e7465720000000000000000000000000000602082015250565b600061415e603283612758565b915061416982614102565b604082019050919050565b6000602082019050818103600083015261418d81614151565b9050919050565b7f4552433732314d657461646174613a2055524920717565727920666f72206e6f60008201527f6e6578697374656e7420746f6b656e0000000000000000000000000000000000602082015250565b60006141f0602f83612758565b91506141fb82614194565b604082019050919050565b6000602082019050818103600083015261421f816141e3565b9050919050565b600081519050919050565b600082825260208201905092915050565b600061424d82614226565b6142578185614231565b9350614267818560208601612769565b6142708161279c565b840191505092915050565b6000608082019050614290600083018761289d565b61429d602083018661289d565b6142aa6040830185613175565b81810360608301526142bc8184614242565b905095945050505050565b6000815190506142d6816126be565b92915050565b6000602082840312156142f2576142f1612688565b5b6000614300848285016142c7565b91505092915050565b600061431482612808565b91507fffffffffffffffffffffffffffffffffffffffffffffffffffffffffffffffff820361434657614345613d95565b5b600182019050919050565b7f4e487b7100000000000000000000000000000000000000000000000000000000600052601260045260246000fd5b600061438b82612808565b915061439683612808565b9250826143a6576143a5614351565b5b828204905092915050565b60006143bc82612808565b91506143c783612808565b9250826143d7576143d6614351565b5b828206905092915050565b7f4552433732313a206d696e7420746f20746865207a65726f2061646472657373600082015250565b6000614418602083612758565b9150614423826143e2565b602082019050919050565b600060208201905081810360008301526144478161440b565b9050919050565b7f4552433732313a20746f6b656e20616c7265616479206d696e74656400000000600082015250565b6000614484601c83612758565b915061448f8261444e565b602082019050919050565b600060208201905081810360008301526144b381614477565b905091905056fea2646970667358221220ece8e2b17562060c0dc60c5634b957498b8ef352233b2a7e71e6de909ddb808764736f6c634300080d0033",
  "immutableReferences": {},
  "source": "// SPDX-License-Identifier: GPL-3.0\npragma solidity >=0.6.0 <0.9.0;\n\nimport \"@openzeppelin/contracts/token/ERC721/ERC721.sol\";\nimport \"@openzeppelin/contracts/token/ERC721/extensions/ERC721URIStorage.sol\";\nimport \"@openzeppelin/contracts/utils/Counters.sol\";\nimport \"../library/TicketManager.sol\";\n\ncontract Event is ERC721URIStorage {\n    using Counters for Counters.Counter;\n    using TicketManager for TicketManager.Manager;\n    Counters.Counter tokenCounter;\n    TicketManager.Manager ticketManager;\n    address public _owner;\n    string public _status;\n    address public _factory;\n\n    modifier onlyFactory() {\n        require(msg.sender == _factory, \"You need to use the factory\");\n        _;\n    }\n\n    modifier onlyEventCreator(address caller) {\n        require(caller == _owner, \"Access restricted!\");\n        _;\n    }\n\n    constructor(\n        string memory name,\n        string memory symbol,\n        address __owner\n    ) ERC721(name, symbol) {\n        _factory = msg.sender;\n        _owner = __owner;\n        _status = \"active\";\n    }\n\n    function purchaseTickets(BlocTick.TicketPurchase[] memory purchases)\n        external\n        payable\n    {\n        require(\n            msg.value >= ticketManager._getTotalCost(purchases),\n            \"The tickets cost more\"\n        );\n        for (uint256 i = 0; i < purchases.length; ) {\n            BlocTick.TicketPurchase memory purchase = purchases[i];\n            uint256 _tokenId = tokenCounter.current();\n            _safeMint(address(this), _tokenId);\n            tokenCounter.increment();\n            _setTokenURI(_tokenId, purchase.tokenURI);\n            safeTransferFrom(address(this), purchase.buyer, _tokenId); //nft to user\n            ticketManager._sales.push(\n                BlocTick.SuccessfulPurchase(\n                    purchase.purchaseId,\n                    purchase.buyer,\n                    _tokenId,\n                    purchase.ticketId,\n                    purchase.cost\n                )\n            );\n            unchecked {\n                i++;\n            }\n        }\n    }\n\n    function getEventTickets()\n        external\n        view\n        returns (BlocTick.Ticket[] memory)\n    {\n        return ticketManager.getTickets();\n    }\n\n    function storeTickets(BlocTick.Ticket[] memory tickets, address caller)\n        external\n        onlyFactory\n        onlyEventCreator(caller)\n    {\n        ticketManager._storeTickets(tickets);\n    }\n\n    function setStatus(string memory __status) external onlyFactory {\n        _status = __status;\n    }\n\n    function getMyTickets(address caller)\n        external\n        view\n        returns (BlocTick.SuccessfulPurchase[] memory result)\n    {\n        uint256 counter = 0;\n        if (balanceOf(caller) == 0) {\n            return result;\n        }\n        for (uint256 i = 0; i <= tokenCounter.current(); ) {\n            BlocTick.SuccessfulPurchase memory sale = ticketManager._sales[i];\n            if (ownerOf(sale.tokenId) == caller) {\n                result[counter] = sale;\n                unchecked {\n                    counter++;\n                }\n            }\n            unchecked {\n                i++;\n            }\n        }\n        return result;\n    }\n}\n",
  "sourcePath": "/workspace/nft-ticketting-contracts/backend/contracts/Event.sol",
  "compiler": {
    "name": "solc",
    "version": "0.8.13+commit.abaa5c0e.Emscripten.clang"
  },
  "schemaVersion": "3.4.7",
  "updatedAt": "2022-04-22T01:21:44.441Z",
  "devdoc": {
    "kind": "dev",
    "methods": {
      "approve(address,uint256)": {
        "details": "See {IERC721-approve}."
      },
      "balanceOf(address)": {
        "details": "See {IERC721-balanceOf}."
      },
      "getApproved(uint256)": {
        "details": "See {IERC721-getApproved}."
      },
      "isApprovedForAll(address,address)": {
        "details": "See {IERC721-isApprovedForAll}."
      },
      "name()": {
        "details": "See {IERC721Metadata-name}."
      },
      "ownerOf(uint256)": {
        "details": "See {IERC721-ownerOf}."
      },
      "safeTransferFrom(address,address,uint256)": {
        "details": "See {IERC721-safeTransferFrom}."
      },
      "safeTransferFrom(address,address,uint256,bytes)": {
        "details": "See {IERC721-safeTransferFrom}."
      },
      "setApprovalForAll(address,bool)": {
        "details": "See {IERC721-setApprovalForAll}."
      },
      "supportsInterface(bytes4)": {
        "details": "See {IERC165-supportsInterface}."
      },
      "symbol()": {
        "details": "See {IERC721Metadata-symbol}."
      },
      "tokenURI(uint256)": {
        "details": "See {IERC721Metadata-tokenURI}."
      },
      "transferFrom(address,address,uint256)": {
        "details": "See {IERC721-transferFrom}."
      }
    },
    "version": 1
  },
  "userdoc": {
    "kind": "user",
    "methods": {},
    "version": 1
  }
}