{
  "contractName": "Event",
  "abi": [
    {
      "anonymous": false,
      "inputs": [
        {
          "indexed": true,
          "internalType": "address",
          "name": "owner",
          "type": "address"
        },
        {
          "indexed": true,
          "internalType": "address",
          "name": "approved",
          "type": "address"
        },
        {
          "indexed": true,
          "internalType": "uint256",
          "name": "tokenId",
          "type": "uint256"
        }
      ],
      "name": "Approval",
      "type": "event"
    },
    {
      "anonymous": false,
      "inputs": [
        {
          "indexed": true,
          "internalType": "address",
          "name": "owner",
          "type": "address"
        },
        {
          "indexed": true,
          "internalType": "address",
          "name": "operator",
          "type": "address"
        },
        {
          "indexed": false,
          "internalType": "bool",
          "name": "approved",
          "type": "bool"
        }
      ],
      "name": "ApprovalForAll",
      "type": "event"
    },
    {
      "anonymous": false,
      "inputs": [
        {
          "indexed": false,
          "internalType": "uint8",
          "name": "version",
          "type": "uint8"
        }
      ],
      "name": "Initialized",
      "type": "event"
    },
    {
      "anonymous": false,
      "inputs": [
        {
          "indexed": true,
          "internalType": "address",
          "name": "previousOwner",
          "type": "address"
        },
        {
          "indexed": true,
          "internalType": "address",
          "name": "newOwner",
          "type": "address"
        }
      ],
      "name": "OwnershipTransferred",
      "type": "event"
    },
    {
      "anonymous": false,
      "inputs": [
        {
          "indexed": true,
          "internalType": "address",
          "name": "from",
          "type": "address"
        },
        {
          "indexed": true,
          "internalType": "address",
          "name": "to",
          "type": "address"
        },
        {
          "indexed": true,
          "internalType": "uint256",
          "name": "tokenId",
          "type": "uint256"
        }
      ],
      "name": "Transfer",
      "type": "event"
    },
    {
      "inputs": [],
      "name": "_owner",
      "outputs": [
        {
          "internalType": "address",
          "name": "",
          "type": "address"
        }
      ],
      "stateMutability": "view",
      "type": "function"
    },
    {
      "inputs": [
        {
          "internalType": "address",
          "name": "to",
          "type": "address"
        },
        {
          "internalType": "uint256",
          "name": "tokenId",
          "type": "uint256"
        }
      ],
      "name": "approve",
      "outputs": [],
      "stateMutability": "nonpayable",
      "type": "function"
    },
    {
      "inputs": [
        {
          "internalType": "address",
          "name": "owner",
          "type": "address"
        }
      ],
      "name": "balanceOf",
      "outputs": [
        {
          "internalType": "uint256",
          "name": "",
          "type": "uint256"
        }
      ],
      "stateMutability": "view",
      "type": "function"
    },
    {
      "inputs": [
        {
          "internalType": "uint256",
          "name": "tokenId",
          "type": "uint256"
        }
      ],
      "name": "getApproved",
      "outputs": [
        {
          "internalType": "address",
          "name": "",
          "type": "address"
        }
      ],
      "stateMutability": "view",
      "type": "function"
    },
    {
      "inputs": [
        {
          "internalType": "address",
          "name": "owner",
          "type": "address"
        },
        {
          "internalType": "address",
          "name": "operator",
          "type": "address"
        }
      ],
      "name": "isApprovedForAll",
      "outputs": [
        {
          "internalType": "bool",
          "name": "",
          "type": "bool"
        }
      ],
      "stateMutability": "view",
      "type": "function"
    },
    {
      "inputs": [],
      "name": "name",
      "outputs": [
        {
          "internalType": "string",
          "name": "",
          "type": "string"
        }
      ],
      "stateMutability": "view",
      "type": "function"
    },
    {
      "inputs": [],
      "name": "owner",
      "outputs": [
        {
          "internalType": "address",
          "name": "",
          "type": "address"
        }
      ],
      "stateMutability": "view",
      "type": "function"
    },
    {
      "inputs": [
        {
          "internalType": "uint256",
          "name": "tokenId",
          "type": "uint256"
        }
      ],
      "name": "ownerOf",
      "outputs": [
        {
          "internalType": "address",
          "name": "",
          "type": "address"
        }
      ],
      "stateMutability": "view",
      "type": "function"
    },
    {
      "inputs": [],
      "name": "renounceOwnership",
      "outputs": [],
      "stateMutability": "nonpayable",
      "type": "function"
    },
    {
      "inputs": [
        {
          "internalType": "address",
          "name": "from",
          "type": "address"
        },
        {
          "internalType": "address",
          "name": "to",
          "type": "address"
        },
        {
          "internalType": "uint256",
          "name": "tokenId",
          "type": "uint256"
        }
      ],
      "name": "safeTransferFrom",
      "outputs": [],
      "stateMutability": "nonpayable",
      "type": "function"
    },
    {
      "inputs": [
        {
          "internalType": "address",
          "name": "from",
          "type": "address"
        },
        {
          "internalType": "address",
          "name": "to",
          "type": "address"
        },
        {
          "internalType": "uint256",
          "name": "tokenId",
          "type": "uint256"
        },
        {
          "internalType": "bytes",
          "name": "_data",
          "type": "bytes"
        }
      ],
      "name": "safeTransferFrom",
      "outputs": [],
      "stateMutability": "nonpayable",
      "type": "function"
    },
    {
      "inputs": [],
      "name": "saleIsActive",
      "outputs": [
        {
          "internalType": "bool",
          "name": "",
          "type": "bool"
        }
      ],
      "stateMutability": "view",
      "type": "function"
    },
    {
      "inputs": [
        {
          "internalType": "address",
          "name": "operator",
          "type": "address"
        },
        {
          "internalType": "bool",
          "name": "approved",
          "type": "bool"
        }
      ],
      "name": "setApprovalForAll",
      "outputs": [],
      "stateMutability": "nonpayable",
      "type": "function"
    },
    {
      "inputs": [],
      "name": "symbol",
      "outputs": [
        {
          "internalType": "string",
          "name": "",
          "type": "string"
        }
      ],
      "stateMutability": "view",
      "type": "function"
    },
    {
      "inputs": [
        {
          "internalType": "uint256",
          "name": "index",
          "type": "uint256"
        }
      ],
      "name": "tokenByIndex",
      "outputs": [
        {
          "internalType": "uint256",
          "name": "",
          "type": "uint256"
        }
      ],
      "stateMutability": "view",
      "type": "function"
    },
    {
      "inputs": [
        {
          "internalType": "address",
          "name": "owner",
          "type": "address"
        },
        {
          "internalType": "uint256",
          "name": "index",
          "type": "uint256"
        }
      ],
      "name": "tokenOfOwnerByIndex",
      "outputs": [
        {
          "internalType": "uint256",
          "name": "",
          "type": "uint256"
        }
      ],
      "stateMutability": "view",
      "type": "function"
    },
    {
      "inputs": [],
      "name": "totalSupply",
      "outputs": [
        {
          "internalType": "uint256",
          "name": "",
          "type": "uint256"
        }
      ],
      "stateMutability": "view",
      "type": "function"
    },
    {
      "inputs": [
        {
          "internalType": "address",
          "name": "from",
          "type": "address"
        },
        {
          "internalType": "address",
          "name": "to",
          "type": "address"
        },
        {
          "internalType": "uint256",
          "name": "tokenId",
          "type": "uint256"
        }
      ],
      "name": "transferFrom",
      "outputs": [],
      "stateMutability": "nonpayable",
      "type": "function"
    },
    {
      "inputs": [
        {
          "internalType": "address",
          "name": "newOwner",
          "type": "address"
        }
      ],
      "name": "transferOwnership",
      "outputs": [],
      "stateMutability": "nonpayable",
      "type": "function"
    },
    {
      "inputs": [
        {
          "internalType": "string",
          "name": "name",
          "type": "string"
        },
        {
          "internalType": "string",
          "name": "symbol",
          "type": "string"
        },
        {
          "internalType": "address",
          "name": "__owner",
          "type": "address"
        }
      ],
      "name": "initialize",
      "outputs": [],
      "stateMutability": "nonpayable",
      "type": "function"
    },
    {
      "inputs": [
        {
          "components": [
            {
              "internalType": "string",
              "name": "purchaseId",
              "type": "string"
            },
            {
              "internalType": "uint256",
              "name": "ticketId",
              "type": "uint256"
            },
            {
              "internalType": "string",
              "name": "tokenURI",
              "type": "string"
            },
            {
              "internalType": "address",
              "name": "buyer",
              "type": "address"
            },
            {
              "internalType": "string",
              "name": "cost",
              "type": "string"
            }
          ],
          "internalType": "struct BlocTick.TicketPurchase[]",
          "name": "purchases",
          "type": "tuple[]"
        },
        {
          "internalType": "uint256",
          "name": "platform_fee",
          "type": "uint256"
        }
      ],
      "name": "purchaseTickets",
      "outputs": [],
      "stateMutability": "payable",
      "type": "function"
    },
    {
      "inputs": [
        {
          "internalType": "uint256",
          "name": "tokenId",
          "type": "uint256"
        }
      ],
      "name": "tokenURI",
      "outputs": [
        {
          "internalType": "string",
          "name": "",
          "type": "string"
        }
      ],
      "stateMutability": "view",
      "type": "function"
    },
    {
      "inputs": [
        {
          "internalType": "bytes4",
          "name": "interfaceId",
          "type": "bytes4"
        }
      ],
      "name": "supportsInterface",
      "outputs": [
        {
          "internalType": "bool",
          "name": "",
          "type": "bool"
        }
      ],
      "stateMutability": "view",
      "type": "function"
    },
    {
      "inputs": [],
      "name": "getInfo",
      "outputs": [
        {
          "internalType": "uint256",
          "name": "",
          "type": "uint256"
        },
        {
          "components": [
            {
              "internalType": "string",
              "name": "purchaseId",
              "type": "string"
            },
            {
              "internalType": "address",
              "name": "buyer",
              "type": "address"
            },
            {
              "internalType": "uint256",
              "name": "tokenId",
              "type": "uint256"
            },
            {
              "internalType": "uint256",
              "name": "ticketId",
              "type": "uint256"
            },
            {
              "internalType": "string",
              "name": "cost",
              "type": "string"
            }
          ],
          "internalType": "struct BlocTick.SuccessfulPurchase[]",
          "name": "",
          "type": "tuple[]"
        },
        {
          "components": [
            {
              "internalType": "string",
              "name": "name",
              "type": "string"
            },
            {
              "internalType": "string",
              "name": "description",
              "type": "string"
            },
            {
              "internalType": "enum BlocTick.TicketType",
              "name": "ticket_type",
              "type": "uint8"
            },
            {
              "internalType": "uint256",
              "name": "quantity_available",
              "type": "uint256"
            },
            {
              "internalType": "uint256",
              "name": "price",
              "type": "uint256"
            }
          ],
          "internalType": "struct BlocTick.Ticket[]",
          "name": "",
          "type": "tuple[]"
        }
      ],
      "stateMutability": "view",
      "type": "function"
    },
    {
      "inputs": [
        {
          "components": [
            {
              "internalType": "string",
              "name": "name",
              "type": "string"
            },
            {
              "internalType": "string",
              "name": "description",
              "type": "string"
            },
            {
              "internalType": "enum BlocTick.TicketType",
              "name": "ticket_type",
              "type": "uint8"
            },
            {
              "internalType": "uint256",
              "name": "quantity_available",
              "type": "uint256"
            },
            {
              "internalType": "uint256",
              "name": "price",
              "type": "uint256"
            }
          ],
          "internalType": "struct BlocTick.Ticket[]",
          "name": "tickets",
          "type": "tuple[]"
        },
        {
          "internalType": "address",
          "name": "caller",
          "type": "address"
        }
      ],
      "name": "storeTickets",
      "outputs": [],
      "stateMutability": "nonpayable",
      "type": "function"
    },
    {
      "inputs": [
        {
          "internalType": "bool",
          "name": "_saleIsActive",
          "type": "bool"
        }
      ],
      "name": "setSaleIsActive",
      "outputs": [],
      "stateMutability": "nonpayable",
      "type": "function"
    },
    {
      "inputs": [
        {
          "internalType": "address",
          "name": "caller",
          "type": "address"
        }
      ],
      "name": "ownerTokens",
      "outputs": [
        {
          "internalType": "uint256[]",
          "name": "",
          "type": "uint256[]"
        }
      ],
      "stateMutability": "view",
      "type": "function"
    }
  ],
  "bytecode": "0x6080604052600161013060146101000a81548160ff02191690831515021790555034801561002c57600080fd5b50615775806200003d6000396000f3fe60806040526004361061019c5760003560e01c80635a9b0b89116100ec578063b2bdfa7b1161008a578063c87b56dd11610064578063c87b56dd146105cb578063e985e9c514610608578063eb8d244414610645578063f2fde38b146106705761019c565b8063b2bdfa7b1461053a578063b88d4fde14610565578063bba7723e1461058e5761019c565b8063715018a6116100c6578063715018a6146104a45780638da5cb5b146104bb57806395d89b41146104e6578063a22cb465146105115761019c565b80635a9b0b89146103fd5780636352211e1461042a57806370a08231146104675761019c565b80630a967bc6116101595780632f745c59116101335780632f745c59146103315780633d181c7e1461036e57806342842e0e146103975780634f6ccce7146103c05761019c565b80630a967bc6146102c157806318160ddd146102dd57806323b872dd146103085761019c565b806301ffc9a7146101a157806302c88989146101de57806306fdde0314610207578063077f224a14610232578063081812fc1461025b578063095ea7b314610298575b600080fd5b3480156101ad57600080fd5b506101c860048036038101906101c39190613315565b610699565b6040516101d5919061335d565b60405180910390f35b3480156101ea57600080fd5b50610205600480360381019061020091906133a4565b6106ab565b005b34801561021357600080fd5b5061021c610745565b604051610229919061346a565b60405180910390f35b34801561023e57600080fd5b506102596004803603810190610254919061361f565b6107d7565b005b34801561026757600080fd5b50610282600480360381019061027d91906136e0565b6108f4565b60405161028f919061371c565b60405180910390f35b3480156102a457600080fd5b506102bf60048036038101906102ba9190613737565b610979565b005b6102db60048036038101906102d69190613947565b610a90565b005b3480156102e957600080fd5b506102f2610e44565b6040516102ff91906139b2565b60405180910390f35b34801561031457600080fd5b5061032f600480360381019061032a91906139cd565b610e51565b005b34801561033d57600080fd5b5061035860048036038101906103539190613737565b610eb1565b60405161036591906139b2565b60405180910390f35b34801561037a57600080fd5b5061039560048036038101906103909190613bea565b610f56565b005b3480156103a357600080fd5b506103be60048036038101906103b991906139cd565b6110eb565b005b3480156103cc57600080fd5b506103e760048036038101906103e291906136e0565b61110b565b6040516103f491906139b2565b60405180910390f35b34801561040957600080fd5b5061041261117c565b60405161042193929190613fa3565b60405180910390f35b34801561043657600080fd5b50610451600480360381019061044c91906136e0565b61154f565b60405161045e919061371c565b60405180910390f35b34801561047357600080fd5b5061048e60048036038101906104899190613fe8565b611600565b60405161049b91906139b2565b60405180910390f35b3480156104b057600080fd5b506104b96116b7565b005b3480156104c757600080fd5b506104d061173f565b6040516104dd919061371c565b60405180910390f35b3480156104f257600080fd5b506104fb611769565b604051610508919061346a565b60405180910390f35b34801561051d57600080fd5b5061053860048036038101906105339190614015565b6117fb565b005b34801561054657600080fd5b5061054f611811565b60405161055c919061371c565b60405180910390f35b34801561057157600080fd5b5061058c600480360381019061058791906140f6565b611838565b005b34801561059a57600080fd5b506105b560048036038101906105b09190613fe8565b61189a565b6040516105c29190614228565b60405180910390f35b3480156105d757600080fd5b506105f260048036038101906105ed91906136e0565b611955565b6040516105ff919061346a565b60405180910390f35b34801561061457600080fd5b5061062f600480360381019061062a919061424a565b611967565b60405161063c919061335d565b60405180910390f35b34801561065157600080fd5b5061065a6119fb565b604051610667919061335d565b60405180910390f35b34801561067c57600080fd5b5061069760048036038101906106929190613fe8565b611a0f565b005b60006106a482611b06565b9050919050565b6106b3611b80565b73ffffffffffffffffffffffffffffffffffffffff166106d161173f565b73ffffffffffffffffffffffffffffffffffffffff1614610727576040517f08c379a000000000000000000000000000000000000000000000000000000000815260040161071e906142d6565b60405180910390fd5b8061013060146101000a81548160ff02191690831515021790555050565b60606065805461075490614325565b80601f016020809104026020016040519081016040528092919081815260200182805461078090614325565b80156107cd5780601f106107a2576101008083540402835291602001916107cd565b820191906000526020600020905b8154815290600101906020018083116107b057829003601f168201915b5050505050905090565b60006107e36001611b88565b90508015610807576001600060016101000a81548160ff0219169083151502179055505b3361013260006101000a81548173ffffffffffffffffffffffffffffffffffffffff021916908373ffffffffffffffffffffffffffffffffffffffff1602179055508161013060006101000a81548173ffffffffffffffffffffffffffffffffffffffff021916908373ffffffffffffffffffffffffffffffffffffffff1602179055506108958484611c78565b80156108ee5760008060016101000a81548160ff0219169083151502179055507f7f26b83ff96e1f2b6a682f133852f6798a09c465da95921460cefb384740249860016040516108e591906143a8565b60405180910390a15b50505050565b60006108ff82611cd5565b61093e576040517f08c379a000000000000000000000000000000000000000000000000000000000815260040161093590614435565b60405180910390fd5b6069600083815260200190815260200160002060009054906101000a900473ffffffffffffffffffffffffffffffffffffffff169050919050565b60006109848261154f565b90508073ffffffffffffffffffffffffffffffffffffffff168373ffffffffffffffffffffffffffffffffffffffff16036109f4576040517f08c379a00000000000000000000000000000000000000000000000000000000081526004016109eb906144c7565b60405180910390fd5b8073ffffffffffffffffffffffffffffffffffffffff16610a13611b80565b73ffffffffffffffffffffffffffffffffffffffff161480610a425750610a4181610a3c611b80565b611967565b5b610a81576040517f08c379a0000000000000000000000000000000000000000000000000000000008152600401610a7890614559565b60405180910390fd5b610a8b8383611d41565b505050565b61013260009054906101000a900473ffffffffffffffffffffffffffffffffffffffff1673ffffffffffffffffffffffffffffffffffffffff163373ffffffffffffffffffffffffffffffffffffffff1614610b21576040517f08c379a0000000000000000000000000000000000000000000000000000000008152600401610b18906145c5565b60405180910390fd5b61013060149054906101000a900460ff16610b3b57600080fd5b61012e73__TicketManager_________________________6341023a1e9091846040518363ffffffff1660e01b8152600401610b7892919061479a565b602060405180830381865af4158015610b95573d6000803e3d6000fd5b505050506040513d601f19601f82011682018060405250810190610bb991906147df565b8134610bc5919061483b565b1015610c06576040517f08c379a0000000000000000000000000000000000000000000000000000000008152600401610bfd906148dd565b60405180910390fd5b60005b8251811015610dbb576000838281518110610c2757610c266148fd565b5b60200260200101519050610c4a816020015161012e611dfa90919063ffffffff16565b6000610c5761012d611e68565b9050610c67826060015182611e76565b610c80826020015161012e61204f90919063ffffffff16565b610c8b61012d612092565b610c998183604001516120a8565b61012e6001016040518060a0016040528084600001518152602001846060015173ffffffffffffffffffffffffffffffffffffffff16815260200183815260200184602001518152602001846080015181525090806001815401808255809150506001900390600052602060002090600502016000909190919091506000820151816000019080519060200190610d31929190613206565b5060208201518160010160006101000a81548173ffffffffffffffffffffffffffffffffffffffff021916908373ffffffffffffffffffffffffffffffffffffffff16021790555060408201518160020155606082015181600301556080820151816004019080519060200190610da9929190613206565b50505082806001019350505050610c09565b5061013060009054906101000a900473ffffffffffffffffffffffffffffffffffffffff1673ffffffffffffffffffffffffffffffffffffffff166108fc349081150290604051600060405180830381858888f19350505050158015610e25573d6000803e3d6000fd5b50346101316000828254610e39919061483b565b925050819055505050565b600060fd80549050905090565b610e62610e5c611b80565b8261211c565b610ea1576040517f08c379a0000000000000000000000000000000000000000000000000000000008152600401610e989061499e565b60405180910390fd5b610eac8383836121fa565b505050565b6000610ebc83611600565b8210610efd576040517f08c379a0000000000000000000000000000000000000000000000000000000008152600401610ef490614a30565b60405180910390fd5b60fb60008473ffffffffffffffffffffffffffffffffffffffff1673ffffffffffffffffffffffffffffffffffffffff168152602001908152602001600020600083815260200190815260200160002054905092915050565b61013260009054906101000a900473ffffffffffffffffffffffffffffffffffffffff1673ffffffffffffffffffffffffffffffffffffffff163373ffffffffffffffffffffffffffffffffffffffff1614610fe7576040517f08c379a0000000000000000000000000000000000000000000000000000000008152600401610fde906145c5565b60405180910390fd5b8061013060009054906101000a900473ffffffffffffffffffffffffffffffffffffffff1673ffffffffffffffffffffffffffffffffffffffff168173ffffffffffffffffffffffffffffffffffffffff1614611079576040517f08c379a0000000000000000000000000000000000000000000000000000000008152600401611070906145c5565b60405180910390fd5b61012e73__TicketManager_________________________63a2a93cbf9091856040518363ffffffff1660e01b81526004016110b6929190614b76565b60006040518083038186803b1580156110ce57600080fd5b505af41580156110e2573d6000803e3d6000fd5b50505050505050565b61110683838360405180602001604052806000815250611838565b505050565b6000611115610e44565b8210611156576040517f08c379a000000000000000000000000000000000000000000000000000000000815260040161114d90614c18565b60405180910390fd5b60fd828154811061116a576111696148fd565b5b90600052602060002001549050919050565b60006060806101315461012e60010161012e60000181805480602002602001604051908101604052809291908181526020016000905b8282101561137257838290600052602060002090600502016040518060a00160405290816000820180546111e590614325565b80601f016020809104026020016040519081016040528092919081815260200182805461121190614325565b801561125e5780601f106112335761010080835404028352916020019161125e565b820191906000526020600020905b81548152906001019060200180831161124157829003601f168201915b505050505081526020016001820160009054906101000a900473ffffffffffffffffffffffffffffffffffffffff1673ffffffffffffffffffffffffffffffffffffffff1673ffffffffffffffffffffffffffffffffffffffff16815260200160028201548152602001600382015481526020016004820180546112e190614325565b80601f016020809104026020016040519081016040528092919081815260200182805461130d90614325565b801561135a5780601f1061132f5761010080835404028352916020019161135a565b820191906000526020600020905b81548152906001019060200180831161133d57829003601f168201915b505050505081525050815260200190600101906111b2565b50505050915080805480602002602001604051908101604052809291908181526020016000905b8282101561153e57838290600052602060002090600502016040518060a00160405290816000820180546113cc90614325565b80601f01602080910402602001604051908101604052809291908181526020018280546113f890614325565b80156114455780601f1061141a57610100808354040283529160200191611445565b820191906000526020600020905b81548152906001019060200180831161142857829003601f168201915b5050505050815260200160018201805461145e90614325565b80601f016020809104026020016040519081016040528092919081815260200182805461148a90614325565b80156114d75780601f106114ac576101008083540402835291602001916114d7565b820191906000526020600020905b8154815290600101906020018083116114ba57829003601f168201915b505050505081526020016002820160009054906101000a900460ff16600281111561150557611504613e19565b5b600281111561151757611516613e19565b5b81526020016003820154815260200160048201548152505081526020019060010190611399565b505050509050925092509250909192565b6000806067600084815260200190815260200160002060009054906101000a900473ffffffffffffffffffffffffffffffffffffffff169050600073ffffffffffffffffffffffffffffffffffffffff168173ffffffffffffffffffffffffffffffffffffffff16036115f7576040517f08c379a00000000000000000000000000000000000000000000000000000000081526004016115ee90614caa565b60405180910390fd5b80915050919050565b60008073ffffffffffffffffffffffffffffffffffffffff168273ffffffffffffffffffffffffffffffffffffffff1603611670576040517f08c379a000000000000000000000000000000000000000000000000000000000815260040161166790614d3c565b60405180910390fd5b606860008373ffffffffffffffffffffffffffffffffffffffff1673ffffffffffffffffffffffffffffffffffffffff168152602001908152602001600020549050919050565b6116bf611b80565b73ffffffffffffffffffffffffffffffffffffffff166116dd61173f565b73ffffffffffffffffffffffffffffffffffffffff1614611733576040517f08c379a000000000000000000000000000000000000000000000000000000000815260040161172a906142d6565b60405180910390fd5b61173d6000612460565b565b600060c960009054906101000a900473ffffffffffffffffffffffffffffffffffffffff16905090565b60606066805461177890614325565b80601f01602080910402602001604051908101604052809291908181526020018280546117a490614325565b80156117f15780601f106117c6576101008083540402835291602001916117f1565b820191906000526020600020905b8154815290600101906020018083116117d457829003601f168201915b5050505050905090565b61180d611806611b80565b8383612526565b5050565b61013060009054906101000a900473ffffffffffffffffffffffffffffffffffffffff1681565b611849611843611b80565b8361211c565b611888576040517f08c379a000000000000000000000000000000000000000000000000000000000815260040161187f9061499e565b60405180910390fd5b61189484848484612692565b50505050565b606060006118a783611600565b905060008167ffffffffffffffff8111156118c5576118c4613496565b5b6040519080825280602002602001820160405280156118f35781602001602082028036833780820191505090505b50905060008203611908578092505050611950565b60005b828110156119495761191d8582610eb1565b8282815181106119305761192f6148fd565b5b602002602001018181525050808060010191505061190b565b5080925050505b919050565b6060611960826126ee565b9050919050565b6000606a60008473ffffffffffffffffffffffffffffffffffffffff1673ffffffffffffffffffffffffffffffffffffffff16815260200190815260200160002060008373ffffffffffffffffffffffffffffffffffffffff1673ffffffffffffffffffffffffffffffffffffffff16815260200190815260200160002060009054906101000a900460ff16905092915050565b61013060149054906101000a900460ff1681565b611a17611b80565b73ffffffffffffffffffffffffffffffffffffffff16611a3561173f565b73ffffffffffffffffffffffffffffffffffffffff1614611a8b576040517f08c379a0000000000000000000000000000000000000000000000000000000008152600401611a82906142d6565b60405180910390fd5b600073ffffffffffffffffffffffffffffffffffffffff168173ffffffffffffffffffffffffffffffffffffffff1603611afa576040517f08c379a0000000000000000000000000000000000000000000000000000000008152600401611af190614dce565b60405180910390fd5b611b0381612460565b50565b60007f780e9d63000000000000000000000000000000000000000000000000000000007bffffffffffffffffffffffffffffffffffffffffffffffffffffffff1916827bffffffffffffffffffffffffffffffffffffffffffffffffffffffff19161480611b795750611b788261283f565b5b9050919050565b600033905090565b60008060019054906101000a900460ff1615611bff5760018260ff16148015611bb75750611bb530612921565b155b611bf6576040517f08c379a0000000000000000000000000000000000000000000000000000000008152600401611bed90614e60565b60405180910390fd5b60009050611c73565b8160ff1660008054906101000a900460ff1660ff1610611c54576040517f08c379a0000000000000000000000000000000000000000000000000000000008152600401611c4b90614e60565b60405180910390fd5b816000806101000a81548160ff021916908360ff160217905550600190505b919050565b600060019054906101000a900460ff16611cc7576040517f08c379a0000000000000000000000000000000000000000000000000000000008152600401611cbe90614ef2565b60405180910390fd5b611cd18282612944565b5050565b60008073ffffffffffffffffffffffffffffffffffffffff166067600084815260200190815260200160002060009054906101000a900473ffffffffffffffffffffffffffffffffffffffff1673ffffffffffffffffffffffffffffffffffffffff1614159050919050565b816069600083815260200190815260200160002060006101000a81548173ffffffffffffffffffffffffffffffffffffffff021916908373ffffffffffffffffffffffffffffffffffffffff160217905550808273ffffffffffffffffffffffffffffffffffffffff16611db48361154f565b73ffffffffffffffffffffffffffffffffffffffff167f8c5be1e5ebec7d5bd14f71427d1e84f3dd0314c0f7b2291e5b200ac8c7c3b92560405160405180910390a45050565b6000826000018281548110611e1257611e116148fd565b5b90600052602060002090600502016003015411611e64576040517f08c379a0000000000000000000000000000000000000000000000000000000008152600401611e5b90614f5e565b60405180910390fd5b5050565b600081600001549050919050565b600073ffffffffffffffffffffffffffffffffffffffff168273ffffffffffffffffffffffffffffffffffffffff1603611ee5576040517f08c379a0000000000000000000000000000000000000000000000000000000008152600401611edc90614fca565b60405180910390fd5b611eee81611cd5565b15611f2e576040517f08c379a0000000000000000000000000000000000000000000000000000000008152600401611f2590615036565b60405180910390fd5b611f3a600083836129c5565b6001606860008473ffffffffffffffffffffffffffffffffffffffff1673ffffffffffffffffffffffffffffffffffffffff1681526020019081526020016000206000828254611f8a919061483b565b92505081905550816067600083815260200190815260200160002060006101000a81548173ffffffffffffffffffffffffffffffffffffffff021916908373ffffffffffffffffffffffffffffffffffffffff160217905550808273ffffffffffffffffffffffffffffffffffffffff16600073ffffffffffffffffffffffffffffffffffffffff167fddf252ad1be2c89b69c2b068fc378daa952ba7f163c4a11628f55a4df523b3ef60405160405180910390a461204b600083836129d5565b5050565b6001826000018281548110612067576120666148fd565b5b906000526020600020906005020160030160008282546120879190615056565b925050819055505050565b6001816000016000828254019250508190555050565b6120b182611cd5565b6120f0576040517f08c379a00000000000000000000000000000000000000000000000000000000081526004016120e7906150fc565b60405180910390fd5b80609760008481526020019081526020016000209080519060200190612117929190613206565b505050565b600061212782611cd5565b612166576040517f08c379a000000000000000000000000000000000000000000000000000000000815260040161215d9061518e565b60405180910390fd5b60006121718361154f565b90508073ffffffffffffffffffffffffffffffffffffffff168473ffffffffffffffffffffffffffffffffffffffff1614806121b357506121b28185611967565b5b806121f157508373ffffffffffffffffffffffffffffffffffffffff166121d9846108f4565b73ffffffffffffffffffffffffffffffffffffffff16145b91505092915050565b8273ffffffffffffffffffffffffffffffffffffffff1661221a8261154f565b73ffffffffffffffffffffffffffffffffffffffff1614612270576040517f08c379a000000000000000000000000000000000000000000000000000000000815260040161226790615220565b60405180910390fd5b600073ffffffffffffffffffffffffffffffffffffffff168273ffffffffffffffffffffffffffffffffffffffff16036122df576040517f08c379a00000000000000000000000000000000000000000000000000000000081526004016122d6906152b2565b60405180910390fd5b6122ea8383836129c5565b6122f5600082611d41565b6001606860008573ffffffffffffffffffffffffffffffffffffffff1673ffffffffffffffffffffffffffffffffffffffff16815260200190815260200160002060008282546123459190615056565b925050819055506001606860008473ffffffffffffffffffffffffffffffffffffffff1673ffffffffffffffffffffffffffffffffffffffff168152602001908152602001600020600082825461239c919061483b565b92505081905550816067600083815260200190815260200160002060006101000a81548173ffffffffffffffffffffffffffffffffffffffff021916908373ffffffffffffffffffffffffffffffffffffffff160217905550808273ffffffffffffffffffffffffffffffffffffffff168473ffffffffffffffffffffffffffffffffffffffff167fddf252ad1be2c89b69c2b068fc378daa952ba7f163c4a11628f55a4df523b3ef60405160405180910390a461245b8383836129d5565b505050565b600060c960009054906101000a900473ffffffffffffffffffffffffffffffffffffffff1690508160c960006101000a81548173ffffffffffffffffffffffffffffffffffffffff021916908373ffffffffffffffffffffffffffffffffffffffff1602179055508173ffffffffffffffffffffffffffffffffffffffff168173ffffffffffffffffffffffffffffffffffffffff167f8be0079c531659141344cd1fd0a4f28419497f9722a3daafe3b4186f6b6457e060405160405180910390a35050565b8173ffffffffffffffffffffffffffffffffffffffff168373ffffffffffffffffffffffffffffffffffffffff1603612594576040517f08c379a000000000000000000000000000000000000000000000000000000000815260040161258b9061531e565b60405180910390fd5b80606a60008573ffffffffffffffffffffffffffffffffffffffff1673ffffffffffffffffffffffffffffffffffffffff16815260200190815260200160002060008473ffffffffffffffffffffffffffffffffffffffff1673ffffffffffffffffffffffffffffffffffffffff16815260200190815260200160002060006101000a81548160ff0219169083151502179055508173ffffffffffffffffffffffffffffffffffffffff168373ffffffffffffffffffffffffffffffffffffffff167f17307eab39ab6107e8899845ad3d59bd9653f200f220920489ca2b5937696c3183604051612685919061335d565b60405180910390a3505050565b61269d8484846121fa565b6126a9848484846129da565b6126e8576040517f08c379a00000000000000000000000000000000000000000000000000000000081526004016126df906153b0565b60405180910390fd5b50505050565b60606126f982611cd5565b612738576040517f08c379a000000000000000000000000000000000000000000000000000000000815260040161272f90615442565b60405180910390fd5b600060976000848152602001908152602001600020805461275890614325565b80601f016020809104026020016040519081016040528092919081815260200182805461278490614325565b80156127d15780601f106127a6576101008083540402835291602001916127d1565b820191906000526020600020905b8154815290600101906020018083116127b457829003601f168201915b5050505050905060006127e2612b61565b905060008151036127f757819250505061283a565b60008251111561282c57808260405160200161281492919061549e565b6040516020818303038152906040529250505061283a565b61283584612b78565b925050505b919050565b60007f80ac58cd000000000000000000000000000000000000000000000000000000007bffffffffffffffffffffffffffffffffffffffffffffffffffffffff1916827bffffffffffffffffffffffffffffffffffffffffffffffffffffffff1916148061290a57507f5b5e139f000000000000000000000000000000000000000000000000000000007bffffffffffffffffffffffffffffffffffffffffffffffffffffffff1916827bffffffffffffffffffffffffffffffffffffffffffffffffffffffff1916145b8061291a575061291982612c1f565b5b9050919050565b6000808273ffffffffffffffffffffffffffffffffffffffff163b119050919050565b600060019054906101000a900460ff16612993576040517f08c379a000000000000000000000000000000000000000000000000000000000815260040161298a90614ef2565b60405180910390fd5b81606590805190602001906129a9929190613206565b5080606690805190602001906129c0929190613206565b505050565b6129d0838383612c89565b505050565b505050565b60006129fb8473ffffffffffffffffffffffffffffffffffffffff16612921565b15612b54578373ffffffffffffffffffffffffffffffffffffffff1663150b7a02612a24611b80565b8786866040518563ffffffff1660e01b8152600401612a469493929190615517565b6020604051808303816000875af1925050508015612a8257506040513d601f19601f82011682018060405250810190612a7f9190615578565b60015b612b04573d8060008114612ab2576040519150601f19603f3d011682016040523d82523d6000602084013e612ab7565b606091505b506000815103612afc576040517f08c379a0000000000000000000000000000000000000000000000000000000008152600401612af3906153b0565b60405180910390fd5b805181602001fd5b63150b7a0260e01b7bffffffffffffffffffffffffffffffffffffffffffffffffffffffff1916817bffffffffffffffffffffffffffffffffffffffffffffffffffffffff191614915050612b59565b600190505b949350505050565b606060405180602001604052806000815250905090565b6060612b8382611cd5565b612bc2576040517f08c379a0000000000000000000000000000000000000000000000000000000008152600401612bb990615617565b60405180910390fd5b6000612bcc612b61565b90506000815111612bec5760405180602001604052806000815250612c17565b80612bf684612d9b565b604051602001612c0792919061549e565b6040516020818303038152906040525b915050919050565b60007f01ffc9a7000000000000000000000000000000000000000000000000000000007bffffffffffffffffffffffffffffffffffffffffffffffffffffffff1916827bffffffffffffffffffffffffffffffffffffffffffffffffffffffff1916149050919050565b612c94838383612efb565b600073ffffffffffffffffffffffffffffffffffffffff168373ffffffffffffffffffffffffffffffffffffffff1603612cd657612cd181612f00565b612d15565b8173ffffffffffffffffffffffffffffffffffffffff168373ffffffffffffffffffffffffffffffffffffffff1614612d1457612d138382612f49565b5b5b600073ffffffffffffffffffffffffffffffffffffffff168273ffffffffffffffffffffffffffffffffffffffff1603612d5757612d52816130b6565b612d96565b8273ffffffffffffffffffffffffffffffffffffffff168273ffffffffffffffffffffffffffffffffffffffff1614612d9557612d948282613187565b5b5b505050565b606060008203612de2576040518060400160405280600181526020017f30000000000000000000000000000000000000000000000000000000000000008152509050612ef6565b600082905060005b60008214612e14578080612dfd90615637565b915050600a82612e0d91906156ae565b9150612dea565b60008167ffffffffffffffff811115612e3057612e2f613496565b5b6040519080825280601f01601f191660200182016040528015612e625781602001600182028036833780820191505090505b5090505b60008514612eef57600182612e7b9190615056565b9150600a85612e8a91906156df565b6030612e96919061483b565b60f81b818381518110612eac57612eab6148fd565b5b60200101907effffffffffffffffffffffffffffffffffffffffffffffffffffffffffffff1916908160001a905350600a85612ee891906156ae565b9450612e66565b8093505050505b919050565b505050565b60fd8054905060fe60008381526020019081526020016000208190555060fd81908060018154018082558091505060019003906000526020600020016000909190919091505550565b60006001612f5684611600565b612f609190615056565b9050600060fc600084815260200190815260200160002054905081811461304557600060fb60008673ffffffffffffffffffffffffffffffffffffffff1673ffffffffffffffffffffffffffffffffffffffff16815260200190815260200160002060008481526020019081526020016000205490508060fb60008773ffffffffffffffffffffffffffffffffffffffff1673ffffffffffffffffffffffffffffffffffffffff1681526020019081526020016000206000848152602001908152602001600020819055508160fc600083815260200190815260200160002081905550505b60fc60008481526020019081526020016000206000905560fb60008573ffffffffffffffffffffffffffffffffffffffff1673ffffffffffffffffffffffffffffffffffffffff16815260200190815260200160002060008381526020019081526020016000206000905550505050565b6000600160fd805490506130ca9190615056565b9050600060fe6000848152602001908152602001600020549050600060fd83815481106130fa576130f96148fd565b5b906000526020600020015490508060fd838154811061311c5761311b6148fd565b5b90600052602060002001819055508160fe60008381526020019081526020016000208190555060fe60008581526020019081526020016000206000905560fd80548061316b5761316a615710565b5b6001900381819060005260206000200160009055905550505050565b600061319283611600565b90508160fb60008573ffffffffffffffffffffffffffffffffffffffff1673ffffffffffffffffffffffffffffffffffffffff1681526020019081526020016000206000838152602001908152602001600020819055508060fc600084815260200190815260200160002081905550505050565b82805461321290614325565b90600052602060002090601f016020900481019282613234576000855561327b565b82601f1061324d57805160ff191683800117855561327b565b8280016001018555821561327b579182015b8281111561327a57825182559160200191906001019061325f565b5b509050613288919061328c565b5090565b5b808211156132a557600081600090555060010161328d565b5090565b6000604051905090565b600080fd5b600080fd5b60007fffffffff0000000000000000000000000000000000000000000000000000000082169050919050565b6132f2816132bd565b81146132fd57600080fd5b50565b60008135905061330f816132e9565b92915050565b60006020828403121561332b5761332a6132b3565b5b600061333984828501613300565b91505092915050565b60008115159050919050565b61335781613342565b82525050565b6000602082019050613372600083018461334e565b92915050565b61338181613342565b811461338c57600080fd5b50565b60008135905061339e81613378565b92915050565b6000602082840312156133ba576133b96132b3565b5b60006133c88482850161338f565b91505092915050565b600081519050919050565b600082825260208201905092915050565b60005b8381101561340b5780820151818401526020810190506133f0565b8381111561341a576000848401525b50505050565b6000601f19601f8301169050919050565b600061343c826133d1565b61344681856133dc565b93506134568185602086016133ed565b61345f81613420565b840191505092915050565b600060208201905081810360008301526134848184613431565b905092915050565b600080fd5b600080fd5b7f4e487b7100000000000000000000000000000000000000000000000000000000600052604160045260246000fd5b6134ce82613420565b810181811067ffffffffffffffff821117156134ed576134ec613496565b5b80604052505050565b60006135006132a9565b905061350c82826134c5565b919050565b600067ffffffffffffffff82111561352c5761352b613496565b5b61353582613420565b9050602081019050919050565b82818337600083830152505050565b600061356461355f84613511565b6134f6565b9050828152602081018484840111156135805761357f613491565b5b61358b848285613542565b509392505050565b600082601f8301126135a8576135a761348c565b5b81356135b8848260208601613551565b91505092915050565b600073ffffffffffffffffffffffffffffffffffffffff82169050919050565b60006135ec826135c1565b9050919050565b6135fc816135e1565b811461360757600080fd5b50565b600081359050613619816135f3565b92915050565b600080600060608486031215613638576136376132b3565b5b600084013567ffffffffffffffff811115613656576136556132b8565b5b61366286828701613593565b935050602084013567ffffffffffffffff811115613683576136826132b8565b5b61368f86828701613593565b92505060406136a08682870161360a565b9150509250925092565b6000819050919050565b6136bd816136aa565b81146136c857600080fd5b50565b6000813590506136da816136b4565b92915050565b6000602082840312156136f6576136f56132b3565b5b6000613704848285016136cb565b91505092915050565b613716816135e1565b82525050565b6000602082019050613731600083018461370d565b92915050565b6000806040838503121561374e5761374d6132b3565b5b600061375c8582860161360a565b925050602061376d858286016136cb565b9150509250929050565b600067ffffffffffffffff82111561379257613791613496565b5b602082029050602081019050919050565b600080fd5b600080fd5b600080fd5b600060a082840312156137c8576137c76137a8565b5b6137d260a06134f6565b9050600082013567ffffffffffffffff8111156137f2576137f16137ad565b5b6137fe84828501613593565b6000830152506020613812848285016136cb565b602083015250604082013567ffffffffffffffff811115613836576138356137ad565b5b61384284828501613593565b60408301525060606138568482850161360a565b606083015250608082013567ffffffffffffffff81111561387a576138796137ad565b5b61388684828501613593565b60808301525092915050565b60006138a56138a084613777565b6134f6565b905080838252602082019050602084028301858111156138c8576138c76137a3565b5b835b8181101561390f57803567ffffffffffffffff8111156138ed576138ec61348c565b5b8086016138fa89826137b2565b855260208501945050506020810190506138ca565b5050509392505050565b600082601f83011261392e5761392d61348c565b5b813561393e848260208601613892565b91505092915050565b6000806040838503121561395e5761395d6132b3565b5b600083013567ffffffffffffffff81111561397c5761397b6132b8565b5b61398885828601613919565b9250506020613999858286016136cb565b9150509250929050565b6139ac816136aa565b82525050565b60006020820190506139c760008301846139a3565b92915050565b6000806000606084860312156139e6576139e56132b3565b5b60006139f48682870161360a565b9350506020613a058682870161360a565b9250506040613a16868287016136cb565b9150509250925092565b600067ffffffffffffffff821115613a3b57613a3a613496565b5b602082029050602081019050919050565b60038110613a5957600080fd5b50565b600081359050613a6b81613a4c565b92915050565b600060a08284031215613a8757613a866137a8565b5b613a9160a06134f6565b9050600082013567ffffffffffffffff811115613ab157613ab06137ad565b5b613abd84828501613593565b600083015250602082013567ffffffffffffffff811115613ae157613ae06137ad565b5b613aed84828501613593565b6020830152506040613b0184828501613a5c565b6040830152506060613b15848285016136cb565b6060830152506080613b29848285016136cb565b60808301525092915050565b6000613b48613b4384613a20565b6134f6565b90508083825260208201905060208402830185811115613b6b57613b6a6137a3565b5b835b81811015613bb257803567ffffffffffffffff811115613b9057613b8f61348c565b5b808601613b9d8982613a71565b85526020850194505050602081019050613b6d565b5050509392505050565b600082601f830112613bd157613bd061348c565b5b8135613be1848260208601613b35565b91505092915050565b60008060408385031215613c0157613c006132b3565b5b600083013567ffffffffffffffff811115613c1f57613c1e6132b8565b5b613c2b85828601613bbc565b9250506020613c3c8582860161360a565b9150509250929050565b600081519050919050565b600082825260208201905092915050565b6000819050602082019050919050565b600082825260208201905092915050565b6000613c8e826133d1565b613c988185613c72565b9350613ca88185602086016133ed565b613cb181613420565b840191505092915050565b613cc5816135e1565b82525050565b613cd4816136aa565b82525050565b600060a0830160008301518482036000860152613cf78282613c83565b9150506020830151613d0c6020860182613cbc565b506040830151613d1f6040860182613ccb565b506060830151613d326060860182613ccb565b5060808301518482036080860152613d4a8282613c83565b9150508091505092915050565b6000613d638383613cda565b905092915050565b6000602082019050919050565b6000613d8382613c46565b613d8d8185613c51565b935083602082028501613d9f85613c62565b8060005b85811015613ddb5784840389528151613dbc8582613d57565b9450613dc783613d6b565b925060208a01995050600181019050613da3565b50829750879550505050505092915050565b600081519050919050565b600082825260208201905092915050565b6000819050602082019050919050565b7f4e487b7100000000000000000000000000000000000000000000000000000000600052602160045260246000fd5b60038110613e5957613e58613e19565b5b50565b6000819050613e6a82613e48565b919050565b6000613e7a82613e5c565b9050919050565b613e8a81613e6f565b82525050565b600060a0830160008301518482036000860152613ead8282613c83565b91505060208301518482036020860152613ec78282613c83565b9150506040830151613edc6040860182613e81565b506060830151613eef6060860182613ccb565b506080830151613f026080860182613ccb565b508091505092915050565b6000613f198383613e90565b905092915050565b6000602082019050919050565b6000613f3982613ded565b613f438185613df8565b935083602082028501613f5585613e09565b8060005b85811015613f915784840389528151613f728582613f0d565b9450613f7d83613f21565b925060208a01995050600181019050613f59565b50829750879550505050505092915050565b6000606082019050613fb860008301866139a3565b8181036020830152613fca8185613d78565b90508181036040830152613fde8184613f2e565b9050949350505050565b600060208284031215613ffe57613ffd6132b3565b5b600061400c8482850161360a565b91505092915050565b6000806040838503121561402c5761402b6132b3565b5b600061403a8582860161360a565b925050602061404b8582860161338f565b9150509250929050565b600067ffffffffffffffff8211156140705761406f613496565b5b61407982613420565b9050602081019050919050565b600061409961409484614055565b6134f6565b9050828152602081018484840111156140b5576140b4613491565b5b6140c0848285613542565b509392505050565b600082601f8301126140dd576140dc61348c565b5b81356140ed848260208601614086565b91505092915050565b600080600080608085870312156141105761410f6132b3565b5b600061411e8782880161360a565b945050602061412f8782880161360a565b9350506040614140878288016136cb565b925050606085013567ffffffffffffffff811115614161576141606132b8565b5b61416d878288016140c8565b91505092959194509250565b600081519050919050565b600082825260208201905092915050565b6000819050602082019050919050565b60006141b18383613ccb565b60208301905092915050565b6000602082019050919050565b60006141d582614179565b6141df8185614184565b93506141ea83614195565b8060005b8381101561421b57815161420288826141a5565b975061420d836141bd565b9250506001810190506141ee565b5085935050505092915050565b6000602082019050818103600083015261424281846141ca565b905092915050565b60008060408385031215614261576142606132b3565b5b600061426f8582860161360a565b92505060206142808582860161360a565b9150509250929050565b7f4f776e61626c653a2063616c6c6572206973206e6f7420746865206f776e6572600082015250565b60006142c06020836133dc565b91506142cb8261428a565b602082019050919050565b600060208201905081810360008301526142ef816142b3565b9050919050565b7f4e487b7100000000000000000000000000000000000000000000000000000000600052602260045260246000fd5b6000600282049050600182168061433d57607f821691505b6020821081036143505761434f6142f6565b5b50919050565b6000819050919050565b600060ff82169050919050565b6000819050919050565b600061439261438d61438884614356565b61436d565b614360565b9050919050565b6143a281614377565b82525050565b60006020820190506143bd6000830184614399565b92915050565b7f4552433732313a20617070726f76656420717565727920666f72206e6f6e657860008201527f697374656e7420746f6b656e0000000000000000000000000000000000000000602082015250565b600061441f602c836133dc565b915061442a826143c3565b604082019050919050565b6000602082019050818103600083015261444e81614412565b9050919050565b7f4552433732313a20617070726f76616c20746f2063757272656e74206f776e6560008201527f7200000000000000000000000000000000000000000000000000000000000000602082015250565b60006144b16021836133dc565b91506144bc82614455565b604082019050919050565b600060208201905081810360008301526144e0816144a4565b9050919050565b7f4552433732313a20617070726f76652063616c6c6572206973206e6f74206f7760008201527f6e6572206e6f7220617070726f76656420666f7220616c6c0000000000000000602082015250565b60006145436038836133dc565b915061454e826144e7565b604082019050919050565b6000602082019050818103600083015261457281614536565b9050919050565b7f4552525f41434345535300000000000000000000000000000000000000000000600082015250565b60006145af600a836133dc565b91506145ba82614579565b602082019050919050565b600060208201905081810360008301526145de816145a2565b9050919050565b8082525050565b600081519050919050565b600082825260208201905092915050565b6000819050602082019050919050565b600082825260208201905092915050565b6000614634826133d1565b61463e8185614618565b935061464e8185602086016133ed565b61465781613420565b840191505092915050565b61466b816136aa565b82525050565b61467a816135e1565b82525050565b600060a083016000830151848203600086015261469d8282614629565b91505060208301516146b26020860182614662565b50604083015184820360408601526146ca8282614629565b91505060608301516146df6060860182614671565b50608083015184820360808601526146f78282614629565b9150508091505092915050565b60006147108383614680565b905092915050565b6000602082019050919050565b6000614730826145ec565b61473a81856145f7565b93508360208202850161474c85614608565b8060005b8581101561478857848403895281516147698582614704565b945061477483614718565b925060208a01995050600181019050614750565b50829750879550505050505092915050565b60006040820190506147af60008301856145e5565b81810360208301526147c18184614725565b90509392505050565b6000815190506147d9816136b4565b92915050565b6000602082840312156147f5576147f46132b3565b5b6000614803848285016147ca565b91505092915050565b7f4e487b7100000000000000000000000000000000000000000000000000000000600052601160045260246000fd5b6000614846826136aa565b9150614851836136aa565b9250827fffffffffffffffffffffffffffffffffffffffffffffffffffffffffffffffff038211156148865761488561480c565b5b828201905092915050565b7f4552525f554e4445525052494345440000000000000000000000000000000000600082015250565b60006148c7600f836133dc565b91506148d282614891565b602082019050919050565b600060208201905081810360008301526148f6816148ba565b9050919050565b7f4e487b7100000000000000000000000000000000000000000000000000000000600052603260045260246000fd5b7f4552433732313a207472616e736665722063616c6c6572206973206e6f74206f60008201527f776e6572206e6f7220617070726f766564000000000000000000000000000000602082015250565b60006149886031836133dc565b91506149938261492c565b604082019050919050565b600060208201905081810360008301526149b78161497b565b9050919050565b7f455243373231456e756d657261626c653a206f776e657220696e646578206f7560008201527f74206f6620626f756e6473000000000000000000000000000000000000000000602082015250565b6000614a1a602b836133dc565b9150614a25826149be565b604082019050919050565b60006020820190508181036000830152614a4981614a0d565b9050919050565b600082825260208201905092915050565b614a6a81613e6f565b82525050565b600060a0830160008301518482036000860152614a8d8282614629565b91505060208301518482036020860152614aa78282614629565b9150506040830151614abc6040860182614a61565b506060830151614acf6060860182614662565b506080830151614ae26080860182614662565b508091505092915050565b6000614af98383614a70565b905092915050565b6000614b0c82613ded565b614b168185614a50565b935083602082028501614b2885613e09565b8060005b85811015614b645784840389528151614b458582614aed565b9450614b5083613f21565b925060208a01995050600181019050614b2c565b50829750879550505050505092915050565b6000604082019050614b8b60008301856145e5565b8181036020830152614b9d8184614b01565b90509392505050565b7f455243373231456e756d657261626c653a20676c6f62616c20696e646578206f60008201527f7574206f6620626f756e64730000000000000000000000000000000000000000602082015250565b6000614c02602c836133dc565b9150614c0d82614ba6565b604082019050919050565b60006020820190508181036000830152614c3181614bf5565b9050919050565b7f4552433732313a206f776e657220717565727920666f72206e6f6e657869737460008201527f656e7420746f6b656e0000000000000000000000000000000000000000000000602082015250565b6000614c946029836133dc565b9150614c9f82614c38565b604082019050919050565b60006020820190508181036000830152614cc381614c87565b9050919050565b7f4552433732313a2062616c616e636520717565727920666f7220746865207a6560008201527f726f206164647265737300000000000000000000000000000000000000000000602082015250565b6000614d26602a836133dc565b9150614d3182614cca565b604082019050919050565b60006020820190508181036000830152614d5581614d19565b9050919050565b7f4f776e61626c653a206e6577206f776e657220697320746865207a65726f206160008201527f6464726573730000000000000000000000000000000000000000000000000000602082015250565b6000614db86026836133dc565b9150614dc382614d5c565b604082019050919050565b60006020820190508181036000830152614de781614dab565b9050919050565b7f496e697469616c697a61626c653a20636f6e747261637420697320616c72656160008201527f647920696e697469616c697a6564000000000000000000000000000000000000602082015250565b6000614e4a602e836133dc565b9150614e5582614dee565b604082019050919050565b60006020820190508181036000830152614e7981614e3d565b9050919050565b7f496e697469616c697a61626c653a20636f6e7472616374206973206e6f74206960008201527f6e697469616c697a696e67000000000000000000000000000000000000000000602082015250565b6000614edc602b836133dc565b9150614ee782614e80565b604082019050919050565b60006020820190508181036000830152614f0b81614ecf565b9050919050565b7f5449434b45545f534f4c445f4f55540000000000000000000000000000000000600082015250565b6000614f48600f836133dc565b9150614f5382614f12565b602082019050919050565b60006020820190508181036000830152614f7781614f3b565b9050919050565b7f4552433732313a206d696e7420746f20746865207a65726f2061646472657373600082015250565b6000614fb46020836133dc565b9150614fbf82614f7e565b602082019050919050565b60006020820190508181036000830152614fe381614fa7565b9050919050565b7f4552433732313a20746f6b656e20616c7265616479206d696e74656400000000600082015250565b6000615020601c836133dc565b915061502b82614fea565b602082019050919050565b6000602082019050818103600083015261504f81615013565b9050919050565b6000615061826136aa565b915061506c836136aa565b92508282101561507f5761507e61480c565b5b828203905092915050565b7f45524337323155524953746f726167653a2055524920736574206f66206e6f6e60008201527f6578697374656e7420746f6b656e000000000000000000000000000000000000602082015250565b60006150e6602e836133dc565b91506150f18261508a565b604082019050919050565b60006020820190508181036000830152615115816150d9565b9050919050565b7f4552433732313a206f70657261746f7220717565727920666f72206e6f6e657860008201527f697374656e7420746f6b656e0000000000000000000000000000000000000000602082015250565b6000615178602c836133dc565b91506151838261511c565b604082019050919050565b600060208201905081810360008301526151a78161516b565b9050919050565b7f4552433732313a207472616e736665722066726f6d20696e636f72726563742060008201527f6f776e6572000000000000000000000000000000000000000000000000000000602082015250565b600061520a6025836133dc565b9150615215826151ae565b604082019050919050565b60006020820190508181036000830152615239816151fd565b9050919050565b7f4552433732313a207472616e7366657220746f20746865207a65726f2061646460008201527f7265737300000000000000000000000000000000000000000000000000000000602082015250565b600061529c6024836133dc565b91506152a782615240565b604082019050919050565b600060208201905081810360008301526152cb8161528f565b9050919050565b7f4552433732313a20617070726f766520746f2063616c6c657200000000000000600082015250565b60006153086019836133dc565b9150615313826152d2565b602082019050919050565b60006020820190508181036000830152615337816152fb565b9050919050565b7f4552433732313a207472616e7366657220746f206e6f6e20455243373231526560008201527f63656976657220696d706c656d656e7465720000000000000000000000000000602082015250565b600061539a6032836133dc565b91506153a58261533e565b604082019050919050565b600060208201905081810360008301526153c98161538d565b9050919050565b7f45524337323155524953746f726167653a2055524920717565727920666f722060008201527f6e6f6e6578697374656e7420746f6b656e000000000000000000000000000000602082015250565b600061542c6031836133dc565b9150615437826153d0565b604082019050919050565b6000602082019050818103600083015261545b8161541f565b9050919050565b600081905092915050565b6000615478826133d1565b6154828185615462565b93506154928185602086016133ed565b80840191505092915050565b60006154aa828561546d565b91506154b6828461546d565b91508190509392505050565b600081519050919050565b600082825260208201905092915050565b60006154e9826154c2565b6154f381856154cd565b93506155038185602086016133ed565b61550c81613420565b840191505092915050565b600060808201905061552c600083018761370d565b615539602083018661370d565b61554660408301856139a3565b818103606083015261555881846154de565b905095945050505050565b600081519050615572816132e9565b92915050565b60006020828403121561558e5761558d6132b3565b5b600061559c84828501615563565b91505092915050565b7f4552433732314d657461646174613a2055524920717565727920666f72206e6f60008201527f6e6578697374656e7420746f6b656e0000000000000000000000000000000000602082015250565b6000615601602f836133dc565b915061560c826155a5565b604082019050919050565b60006020820190508181036000830152615630816155f4565b9050919050565b6000615642826136aa565b91507fffffffffffffffffffffffffffffffffffffffffffffffffffffffffffffffff82036156745761567361480c565b5b600182019050919050565b7f4e487b7100000000000000000000000000000000000000000000000000000000600052601260045260246000fd5b60006156b9826136aa565b91506156c4836136aa565b9250826156d4576156d361567f565b5b828204905092915050565b60006156ea826136aa565b91506156f5836136aa565b9250826157055761570461567f565b5b828206905092915050565b7f4e487b7100000000000000000000000000000000000000000000000000000000600052603160045260246000fdfea2646970667358221220b8260d8c3485fe73df5d9a7c32110f41526cdfd5f6f40385b88ee2a0ee4b030964736f6c634300080d0033",
  "immutableReferences": {},
  "source": "// SPDX-License-Identifier: GPL-3.0\npragma solidity >=0.6.0 <0.9.0;\n\nimport \"@openzeppelin/contracts-upgradeable/token/ERC721/ERC721Upgradeable.sol\";\nimport \"@openzeppelin/contracts-upgradeable/token/ERC721/extensions/ERC721URIStorageUpgradeable.sol\";\nimport \"@openzeppelin/contracts/utils/Counters.sol\";\nimport \"./TicketManager.sol\";\nimport \"./BlocTick.sol\";\nimport \"@openzeppelin/contracts-upgradeable/access/OwnableUpgradeable.sol\";\nimport \"@openzeppelin/contracts-upgradeable/proxy/utils/Initializable.sol\";\nimport \"@openzeppelin/contracts-upgradeable/token/ERC721/extensions/ERC721EnumerableUpgradeable.sol\";\n\ncontract Event is\n    ERC721URIStorageUpgradeable,\n    OwnableUpgradeable,\n    ERC721EnumerableUpgradeable\n{\n    using Counters for Counters.Counter;\n    using TicketManager for TicketManager.Manager;\n    Counters.Counter private tokenCounter;\n    TicketManager.Manager private ticketManager;\n\n    address public _owner;\n    bool public saleIsActive = true;\n    uint256 private totalSold;\n    address private _factory;\n\n    modifier onlyFactory() {\n        require(msg.sender == _factory, \"ERR_ACCESS\");\n        _;\n    }\n\n    modifier onlyEventCreator(address caller) {\n        require(caller == _owner, \"ERR_ACCESS\");\n        _;\n    }\n\n    function initialize(\n        string memory name,\n        string memory symbol,\n        address __owner\n    ) public initializer {\n        _factory = msg.sender;\n        _owner = __owner;\n        __ERC721_init(name, symbol);\n    }\n\n    function purchaseTickets(\n        BlocTick.TicketPurchase[] memory purchases,\n        uint256 platform_fee\n    ) external payable onlyFactory {\n        require(saleIsActive);\n        require(\n            msg.value + platform_fee >= ticketManager.getTotalCost(purchases),\n            \"ERR_UNDERPRICED\"\n        );\n        for (uint256 i = 0; i < purchases.length; ) {\n            BlocTick.TicketPurchase memory purchase = purchases[i];\n            ticketManager.stillAvailable(purchase.ticketId);\n            uint256 _tokenId = tokenCounter.current();\n            _mint(purchase.buyer, _tokenId);\n            ticketManager.reduceQty(purchase.ticketId);\n            tokenCounter.increment();\n            _setTokenURI(_tokenId, purchase.tokenURI);\n            ticketManager._sales.push(\n                BlocTick.SuccessfulPurchase(\n                    purchase.purchaseId,\n                    purchase.buyer,\n                    _tokenId,\n                    purchase.ticketId,\n                    purchase.cost\n                )\n            );\n            unchecked {\n                i++;\n            }\n        }\n        payable(_owner).transfer(msg.value);\n        totalSold += msg.value;\n    }\n\n    function _beforeTokenTransfer(\n        address from,\n        address to,\n        uint256 tokenId\n    ) internal override(ERC721Upgradeable, ERC721EnumerableUpgradeable) {\n        super._beforeTokenTransfer(from, to, tokenId);\n    }\n\n    function _burn(uint256 tokenId)\n        internal\n        override(ERC721Upgradeable, ERC721URIStorageUpgradeable)\n    {\n        super._burn(tokenId);\n    }\n\n    function tokenURI(uint256 tokenId)\n        public\n        view\n        override(ERC721Upgradeable, ERC721URIStorageUpgradeable)\n        returns (string memory)\n    {\n        return super.tokenURI(tokenId);\n    }\n\n    function supportsInterface(bytes4 interfaceId)\n        public\n        view\n        override(ERC721Upgradeable, ERC721EnumerableUpgradeable)\n        returns (bool)\n    {\n        return super.supportsInterface(interfaceId);\n    }\n\n    function getInfo()\n        external\n        view\n        returns (uint256, BlocTick.SuccessfulPurchase[] memory, BlocTick.Ticket[] memory)\n    {\n        return (totalSold, ticketManager._sales, ticketManager._tickets);\n    }\n\n    function storeTickets(BlocTick.Ticket[] memory tickets, address caller)\n        external\n        onlyFactory\n        onlyEventCreator(caller)\n    {\n        ticketManager._storeTickets(tickets);\n    }\n\n    function setSaleIsActive(bool _saleIsActive) external onlyOwner {\n        saleIsActive = _saleIsActive;\n    }\n\n    function ownerTokens(address caller)\n        external\n        view\n        returns (uint256[] memory)\n    {\n        uint256 ownerBalance = balanceOf(caller);\n        uint256[] memory result = new uint256[](ownerBalance);\n        if (ownerBalance == 0) {\n            return result;\n        }\n        for (uint256 i = 0; i < ownerBalance; ) {\n            result[i] = tokenOfOwnerByIndex(caller, i);\n            unchecked {\n                i++;\n            }\n        }\n        return result;\n    }\n}\n",
  "sourcePath": "/workspace/blocticks-contracts/backend/contracts/Event.sol",
  "compiler": {
    "name": "solc",
    "version": "0.8.13+commit.abaa5c0e.Emscripten.clang"
  },
  "schemaVersion": "3.4.7",
  "updatedAt": "2022-05-12T16:01:45.120Z",
  "devdoc": {
    "kind": "dev",
    "methods": {
      "approve(address,uint256)": {
        "details": "See {IERC721-approve}."
      },
      "balanceOf(address)": {
        "details": "See {IERC721-balanceOf}."
      },
      "getApproved(uint256)": {
        "details": "See {IERC721-getApproved}."
      },
      "isApprovedForAll(address,address)": {
        "details": "See {IERC721-isApprovedForAll}."
      },
      "name()": {
        "details": "See {IERC721Metadata-name}."
      },
      "owner()": {
        "details": "Returns the address of the current owner."
      },
      "ownerOf(uint256)": {
        "details": "See {IERC721-ownerOf}."
      },
      "renounceOwnership()": {
        "details": "Leaves the contract without owner. It will not be possible to call `onlyOwner` functions anymore. Can only be called by the current owner. NOTE: Renouncing ownership will leave the contract without an owner, thereby removing any functionality that is only available to the owner."
      },
      "safeTransferFrom(address,address,uint256)": {
        "details": "See {IERC721-safeTransferFrom}."
      },
      "safeTransferFrom(address,address,uint256,bytes)": {
        "details": "See {IERC721-safeTransferFrom}."
      },
      "setApprovalForAll(address,bool)": {
        "details": "See {IERC721-setApprovalForAll}."
      },
      "symbol()": {
        "details": "See {IERC721Metadata-symbol}."
      },
      "tokenByIndex(uint256)": {
        "details": "See {IERC721Enumerable-tokenByIndex}."
      },
      "tokenOfOwnerByIndex(address,uint256)": {
        "details": "See {IERC721Enumerable-tokenOfOwnerByIndex}."
      },
      "totalSupply()": {
        "details": "See {IERC721Enumerable-totalSupply}."
      },
      "transferFrom(address,address,uint256)": {
        "details": "See {IERC721-transferFrom}."
      },
      "transferOwnership(address)": {
        "details": "Transfers ownership of the contract to a new account (`newOwner`). Can only be called by the current owner."
      }
    },
    "version": 1
  },
  "userdoc": {
    "kind": "user",
    "methods": {},
    "version": 1
  }
}