{
  "contractName": "EventFactory",
  "abi": [
    {
      "inputs": [
        {
          "internalType": "uint256",
          "name": "",
          "type": "uint256"
        }
      ],
      "name": "_events",
      "outputs": [
        {
          "internalType": "contract Event",
          "name": "",
          "type": "address"
        }
      ],
      "stateMutability": "view",
      "type": "function"
    },
    {
      "inputs": [],
      "name": "allEvents",
      "outputs": [
        {
          "internalType": "contract Event[]",
          "name": "",
          "type": "address[]"
        }
      ],
      "stateMutability": "view",
      "type": "function"
    },
    {
      "inputs": [
        {
          "components": [
            {
              "internalType": "string",
              "name": "name",
              "type": "string"
            },
            {
              "internalType": "string",
              "name": "ticker",
              "type": "string"
            },
            {
              "internalType": "string",
              "name": "host_name",
              "type": "string"
            },
            {
              "internalType": "string",
              "name": "starts_on",
              "type": "string"
            },
            {
              "internalType": "string",
              "name": "ends_on",
              "type": "string"
            },
            {
              "internalType": "string",
              "name": "category",
              "type": "string"
            },
            {
              "internalType": "string",
              "name": "description",
              "type": "string"
            },
            {
              "internalType": "enum BlocTick.EventVisibility",
              "name": "visibility",
              "type": "uint8"
            },
            {
              "internalType": "enum BlocTick.VenueType",
              "name": "venue_type",
              "type": "uint8"
            },
            {
              "internalType": "string",
              "name": "venue",
              "type": "string"
            },
            {
              "internalType": "string",
              "name": "cover_image_url",
              "type": "string"
            }
          ],
          "internalType": "struct BlocTick.EventData",
          "name": "eventData",
          "type": "tuple"
        },
        {
          "components": [
            {
              "internalType": "string",
              "name": "name",
              "type": "string"
            },
            {
              "internalType": "string",
              "name": "description",
              "type": "string"
            },
            {
              "internalType": "enum BlocTick.TicketType",
              "name": "ticket_type",
              "type": "uint8"
            },
            {
              "internalType": "uint256",
              "name": "quantity_available",
              "type": "uint256"
            },
            {
              "internalType": "uint256",
              "name": "max_per_order",
              "type": "uint256"
            },
            {
              "internalType": "uint256",
              "name": "price",
              "type": "uint256"
            }
          ],
          "internalType": "struct BlocTick.Ticket[]",
          "name": "tickets",
          "type": "tuple[]"
        }
      ],
      "name": "addEvent",
      "outputs": [
        {
          "internalType": "contract Event",
          "name": "",
          "type": "address"
        }
      ],
      "stateMutability": "nonpayable",
      "type": "function"
    }
  ],
  "bytecode": "0x608060405234801561001057600080fd5b50616e11806100206000396000f3fe60806040523480156200001157600080fd5b5060043610620000465760003560e01c806314d7c375146200004b578063bf3a651b146200006d578063f040d0f214620000a3575b600080fd5b62000055620000d9565b60405162000064919062000540565b60405180910390f35b6200008b600480360381019062000085919062000bc0565b62000169565b6040516200009a919062000c56565b60405180910390f35b620000c16004803603810190620000bb919062000c73565b620003aa565b604051620000d0919062000c56565b60405180910390f35b606060008054806020026020016040519081016040528092919081815260200182805480156200015f57602002820191906000526020600020905b8160009054906101000a900473ffffffffffffffffffffffffffffffffffffffff1673ffffffffffffffffffffffffffffffffffffffff168152602001906001019080831162000114575b5050505050905090565b600080600181111562000181576200018062000ca5565b5b8360e0015160018111156200019b576200019a62000ca5565b5b108015620001d65750600180811115620001ba57620001b962000ca5565b5b8360e001516001811115620001d457620001d362000ca5565b5b115b15620002145760018360e001906001811115620001f857620001f762000ca5565b5b908160018111156200020f576200020e62000ca5565b5b815250505b600083600001518460200151336040516200022f90620003ea565b6200023d9392919062000d8c565b604051809103906000f0801580156200025a573d6000803e3d6000fd5b5090508073ffffffffffffffffffffffffffffffffffffffff16637c9660de84336040518363ffffffff1660e01b81526004016200029a92919062000ff7565b600060405180830381600087803b158015620002b557600080fd5b505af1158015620002ca573d6000803e3d6000fd5b505050508073ffffffffffffffffffffffffffffffffffffffff16636f269226856040518263ffffffff1660e01b81526004016200030991906200120a565b600060405180830381600087803b1580156200032457600080fd5b505af115801562000339573d6000803e3d6000fd5b505050506000819080600181540180825580915050600190039060005260206000200160009091909190916101000a81548173ffffffffffffffffffffffffffffffffffffffff021916908373ffffffffffffffffffffffffffffffffffffffff1602179055508091505092915050565b60008181548110620003bb57600080fd5b906000526020600020016000915054906101000a900473ffffffffffffffffffffffffffffffffffffffff1681565b615bad806200122f83390190565b600081519050919050565b600082825260208201905092915050565b6000819050602082019050919050565b600073ffffffffffffffffffffffffffffffffffffffff82169050919050565b6000819050919050565b60006200046f62000469620004638462000424565b62000444565b62000424565b9050919050565b600062000483826200044e565b9050919050565b6000620004978262000476565b9050919050565b620004a9816200048a565b82525050565b6000620004bd83836200049e565b60208301905092915050565b6000602082019050919050565b6000620004e382620003f8565b620004ef818562000403565b9350620004fc8362000414565b8060005b8381101562000533578151620005178882620004af565b97506200052483620004c9565b92505060018101905062000500565b5085935050505092915050565b600060208201905081810360008301526200055c8184620004d6565b905092915050565b6000604051905090565b600080fd5b600080fd5b600080fd5b6000601f19601f8301169050919050565b7f4e487b7100000000000000000000000000000000000000000000000000000000600052604160045260246000fd5b620005c8826200057d565b810181811067ffffffffffffffff82111715620005ea57620005e96200058e565b5b80604052505050565b6000620005ff62000564565b90506200060d8282620005bd565b919050565b600080fd5b600080fd5b600080fd5b600067ffffffffffffffff8211156200063f576200063e6200058e565b5b6200064a826200057d565b9050602081019050919050565b82818337600083830152505050565b60006200067d620006778462000621565b620005f3565b9050828152602081018484840111156200069c576200069b6200061c565b5b620006a984828562000657565b509392505050565b600082601f830112620006c957620006c862000617565b5b8135620006db84826020860162000666565b91505092915050565b60028110620006f257600080fd5b50565b6000813590506200070681620006e4565b92915050565b600281106200071a57600080fd5b50565b6000813590506200072e816200070c565b92915050565b600061016082840312156200074e576200074d62000578565b5b6200075b610160620005f3565b9050600082013567ffffffffffffffff8111156200077e576200077d62000612565b5b6200078c84828501620006b1565b600083015250602082013567ffffffffffffffff811115620007b357620007b262000612565b5b620007c184828501620006b1565b602083015250604082013567ffffffffffffffff811115620007e857620007e762000612565b5b620007f684828501620006b1565b604083015250606082013567ffffffffffffffff8111156200081d576200081c62000612565b5b6200082b84828501620006b1565b606083015250608082013567ffffffffffffffff81111562000852576200085162000612565b5b6200086084828501620006b1565b60808301525060a082013567ffffffffffffffff81111562000887576200088662000612565b5b6200089584828501620006b1565b60a08301525060c082013567ffffffffffffffff811115620008bc57620008bb62000612565b5b620008ca84828501620006b1565b60c08301525060e0620008e084828501620006f5565b60e083015250610100620008f7848285016200071d565b6101008301525061012082013567ffffffffffffffff81111562000920576200091f62000612565b5b6200092e84828501620006b1565b6101208301525061014082013567ffffffffffffffff81111562000957576200095662000612565b5b6200096584828501620006b1565b6101408301525092915050565b600067ffffffffffffffff82111562000990576200098f6200058e565b5b602082029050602081019050919050565b600080fd5b60038110620009b457600080fd5b50565b600081359050620009c881620009a6565b92915050565b6000819050919050565b620009e381620009ce565b8114620009ef57600080fd5b50565b60008135905062000a0381620009d8565b92915050565b600060c0828403121562000a225762000a2162000578565b5b62000a2e60c0620005f3565b9050600082013567ffffffffffffffff81111562000a515762000a5062000612565b5b62000a5f84828501620006b1565b600083015250602082013567ffffffffffffffff81111562000a865762000a8562000612565b5b62000a9484828501620006b1565b602083015250604062000aaa84828501620009b7565b604083015250606062000ac084828501620009f2565b606083015250608062000ad684828501620009f2565b60808301525060a062000aec84828501620009f2565b60a08301525092915050565b600062000b0f62000b098462000972565b620005f3565b9050808382526020820190506020840283018581111562000b355762000b34620009a1565b5b835b8181101562000b8357803567ffffffffffffffff81111562000b5e5762000b5d62000617565b5b80860162000b6d898262000a09565b8552602085019450505060208101905062000b37565b5050509392505050565b600082601f83011262000ba55762000ba462000617565b5b813562000bb784826020860162000af8565b91505092915050565b6000806040838503121562000bda5762000bd96200056e565b5b600083013567ffffffffffffffff81111562000bfb5762000bfa62000573565b5b62000c098582860162000734565b925050602083013567ffffffffffffffff81111562000c2d5762000c2c62000573565b5b62000c3b8582860162000b8d565b9150509250929050565b62000c50816200048a565b82525050565b600060208201905062000c6d600083018462000c45565b92915050565b60006020828403121562000c8c5762000c8b6200056e565b5b600062000c9c84828501620009f2565b91505092915050565b7f4e487b7100000000000000000000000000000000000000000000000000000000600052602160045260246000fd5b600081519050919050565b600082825260208201905092915050565b60005b8381101562000d1057808201518184015260208101905062000cf3565b8381111562000d20576000848401525b50505050565b600062000d338262000cd4565b62000d3f818562000cdf565b935062000d5181856020860162000cf0565b62000d5c816200057d565b840191505092915050565b600062000d748262000424565b9050919050565b62000d868162000d67565b82525050565b6000606082019050818103600083015262000da8818662000d26565b9050818103602083015262000dbe818562000d26565b905062000dcf604083018462000d7b565b949350505050565b600081519050919050565b600082825260208201905092915050565b6000819050602082019050919050565b600082825260208201905092915050565b600062000e218262000cd4565b62000e2d818562000e03565b935062000e3f81856020860162000cf0565b62000e4a816200057d565b840191505092915050565b6003811062000e695762000e6862000ca5565b5b50565b600081905062000e7c8262000e55565b919050565b600062000e8e8262000e6c565b9050919050565b62000ea08162000e81565b82525050565b62000eb181620009ce565b82525050565b600060c083016000830151848203600086015262000ed6828262000e14565b9150506020830151848203602086015262000ef2828262000e14565b915050604083015162000f09604086018262000e95565b50606083015162000f1e606086018262000ea6565b50608083015162000f33608086018262000ea6565b5060a083015162000f4860a086018262000ea6565b508091505092915050565b600062000f61838362000eb7565b905092915050565b6000602082019050919050565b600062000f838262000dd7565b62000f8f818562000de2565b93508360208202850162000fa38562000df3565b8060005b8581101562000fe5578484038952815162000fc3858262000f53565b945062000fd08362000f69565b925060208a0199505060018101905062000fa7565b50829750879550505050505092915050565b6000604082019050818103600083015262001013818562000f76565b905062001024602083018462000d7b565b9392505050565b600281106200103f576200103e62000ca5565b5b50565b600081905062001052826200102b565b919050565b6000620010648262001042565b9050919050565b620010768162001057565b82525050565b6002811062001090576200108f62000ca5565b5b50565b6000819050620010a3826200107c565b919050565b6000620010b58262001093565b9050919050565b620010c781620010a8565b82525050565b6000610160830160008301518482036000860152620010ed828262000e14565b9150506020830151848203602086015262001109828262000e14565b9150506040830151848203604086015262001125828262000e14565b9150506060830151848203606086015262001141828262000e14565b915050608083015184820360808601526200115d828262000e14565b91505060a083015184820360a086015262001179828262000e14565b91505060c083015184820360c086015262001195828262000e14565b91505060e0830151620011ac60e08601826200106b565b50610100830151620011c3610100860182620010bc565b50610120830151848203610120860152620011df828262000e14565b915050610140830151848203610140860152620011fd828262000e14565b9150508091505092915050565b60006020820190508181036000830152620012268184620010cd565b90509291505056fe60806040523480156200001157600080fd5b5060405162005bad38038062005bad8339818101604052810190620000379190620003aa565b8282816000908051906020019062000051929190620000f8565b5080600190805190602001906200006a929190620000f8565b50505033600b60006101000a81548173ffffffffffffffffffffffffffffffffffffffff021916908373ffffffffffffffffffffffffffffffffffffffff16021790555080600860006101000a81548173ffffffffffffffffffffffffffffffffffffffff021916908373ffffffffffffffffffffffffffffffffffffffff160217905550505050620004a8565b828054620001069062000473565b90600052602060002090601f0160209004810192826200012a576000855562000176565b82601f106200014557805160ff191683800117855562000176565b8280016001018555821562000176579182015b828111156200017557825182559160200191906001019062000158565b5b50905062000185919062000189565b5090565b5b80821115620001a45760008160009055506001016200018a565b5090565b6000604051905090565b600080fd5b600080fd5b600080fd5b600080fd5b6000601f19601f8301169050919050565b7f4e487b7100000000000000000000000000000000000000000000000000000000600052604160045260246000fd5b6200021182620001c6565b810181811067ffffffffffffffff82111715620002335762000232620001d7565b5b80604052505050565b600062000248620001a8565b905062000256828262000206565b919050565b600067ffffffffffffffff821115620002795762000278620001d7565b5b6200028482620001c6565b9050602081019050919050565b60005b83811015620002b157808201518184015260208101905062000294565b83811115620002c1576000848401525b50505050565b6000620002de620002d8846200025b565b6200023c565b905082815260208101848484011115620002fd57620002fc620001c1565b5b6200030a84828562000291565b509392505050565b600082601f8301126200032a5762000329620001bc565b5b81516200033c848260208601620002c7565b91505092915050565b600073ffffffffffffffffffffffffffffffffffffffff82169050919050565b6000620003728262000345565b9050919050565b620003848162000365565b81146200039057600080fd5b50565b600081519050620003a48162000379565b92915050565b600080600060608486031215620003c657620003c5620001b2565b5b600084015167ffffffffffffffff811115620003e757620003e6620001b7565b5b620003f58682870162000312565b935050602084015167ffffffffffffffff811115620004195762000418620001b7565b5b620004278682870162000312565b92505060406200043a8682870162000393565b9150509250925092565b7f4e487b7100000000000000000000000000000000000000000000000000000000600052602260045260246000fd5b600060028204905060018216806200048c57607f821691505b602082108103620004a257620004a162000444565b5b50919050565b6156f580620004b86000396000f3fe60806040526004361061014b5760003560e01c80637c9660de116100b6578063b88d4fde1161006f578063b88d4fde146104c3578063c63197ce146104ec578063c87b56dd14610508578063d0f4fc0214610545578063e985e9c514610586578063f8547079146105c35761014b565b80637c9660de146103b55780637d2211d6146103de5780638aaf26861461040757806395d89b4114610444578063a22cb4651461046f578063b2bdfa7b146104985761014b565b80633d90cdaa116101085780633d90cdaa1461027257806342842e0e146102a75780636352211e146102d05780636f2692261461030d57806370a082311461033657806378a2db88146103735761014b565b806301ffc9a71461015057806306fdde031461018d578063081812fc146101b8578063095ea7b3146101f55780630fb3844c1461021e57806323b872dd14610249575b600080fd5b34801561015c57600080fd5b5061017760048036038101906101729190613631565b6105ee565b6040516101849190613679565b60405180910390f35b34801561019957600080fd5b506101a26106d0565b6040516101af919061372d565b60405180910390f35b3480156101c457600080fd5b506101df60048036038101906101da9190613785565b610762565b6040516101ec91906137f3565b60405180910390f35b34801561020157600080fd5b5061021c6004803603810190610217919061383a565b6107e7565b005b34801561022a57600080fd5b506102336108fe565b604051610240919061372d565b60405180910390f35b34801561025557600080fd5b50610270600480360381019061026b919061387a565b61098c565b005b34801561027e57600080fd5b506102876109ec565b60405161029e9b9a9998979695949392919061398c565b60405180910390f35b3480156102b357600080fd5b506102ce60048036038101906102c9919061387a565b610f16565b005b3480156102dc57600080fd5b506102f760048036038101906102f29190613785565b610f36565b60405161030491906137f3565b60405180910390f35b34801561031957600080fd5b50610334600480360381019061032f9190613e07565b610fe7565b005b34801561034257600080fd5b5061035d60048036038101906103589190613e50565b611158565b60405161036a9190613e8c565b60405180910390f35b34801561037f57600080fd5b5061039a60048036038101906103959190613785565b61120f565b6040516103ac96959493929190613eef565b60405180910390f35b3480156103c157600080fd5b506103dc60048036038101906103d79190614141565b611378565b005b3480156103ea57600080fd5b506104056004803603810190610400919061419d565b6116bc565b005b34801561041357600080fd5b5061042e60048036038101906104299190613e50565b611766565b60405161043b919061442c565b60405180910390f35b34801561045057600080fd5b50610459611b21565b604051610466919061372d565b60405180910390f35b34801561047b57600080fd5b506104966004803603810190610491919061447a565b611bb3565b005b3480156104a457600080fd5b506104ad611bc9565b6040516104ba91906137f3565b60405180910390f35b3480156104cf57600080fd5b506104ea60048036038101906104e5919061455b565b611bef565b005b61050660048036038101906105019190614783565b611c51565b005b34801561051457600080fd5b5061052f600480360381019061052a9190613785565b6120d6565b60405161053c919061372d565b60405180910390f35b34801561055157600080fd5b5061056c60048036038101906105679190613785565b612227565b60405161057d95949392919061485c565b60405180910390f35b34801561059257600080fd5b506105ad60048036038101906105a891906148bd565b61248c565b6040516105ba9190613679565b60405180910390f35b3480156105cf57600080fd5b506105d8612520565b6040516105e59190613e8c565b60405180910390f35b60007f80ac58cd000000000000000000000000000000000000000000000000000000007bffffffffffffffffffffffffffffffffffffffffffffffffffffffff1916827bffffffffffffffffffffffffffffffffffffffffffffffffffffffff191614806106b957507f5b5e139f000000000000000000000000000000000000000000000000000000007bffffffffffffffffffffffffffffffffffffffffffffffffffffffff1916827bffffffffffffffffffffffffffffffffffffffffffffffffffffffff1916145b806106c957506106c882612526565b5b9050919050565b6060600080546106df9061492c565b80601f016020809104026020016040519081016040528092919081815260200182805461070b9061492c565b80156107585780601f1061072d57610100808354040283529160200191610758565b820191906000526020600020905b81548152906001019060200180831161073b57829003601f168201915b5050505050905090565b600061076d82612590565b6107ac576040517f08c379a00000000000000000000000000000000000000000000000000000000081526004016107a3906149cf565b60405180910390fd5b6004600083815260200190815260200160002060009054906101000a900473ffffffffffffffffffffffffffffffffffffffff169050919050565b60006107f282610f36565b90508073ffffffffffffffffffffffffffffffffffffffff168373ffffffffffffffffffffffffffffffffffffffff1603610862576040517f08c379a000000000000000000000000000000000000000000000000000000000815260040161085990614a61565b60405180910390fd5b8073ffffffffffffffffffffffffffffffffffffffff166108816125fc565b73ffffffffffffffffffffffffffffffffffffffff1614806108b057506108af816108aa6125fc565b61248c565b5b6108ef576040517f08c379a00000000000000000000000000000000000000000000000000000000081526004016108e690614af3565b60405180910390fd5b6108f98383612604565b505050565b600a805461090b9061492c565b80601f01602080910402602001604051908101604052809291908181526020018280546109379061492c565b80156109845780601f1061095957610100808354040283529160200191610984565b820191906000526020600020905b81548152906001019060200180831161096757829003601f168201915b505050505081565b61099d6109976125fc565b826126bd565b6109dc576040517f08c379a00000000000000000000000000000000000000000000000000000000081526004016109d390614b85565b60405180910390fd5b6109e783838361279b565b505050565b600e8060000180546109fd9061492c565b80601f0160208091040260200160405190810160405280929190818152602001828054610a299061492c565b8015610a765780601f10610a4b57610100808354040283529160200191610a76565b820191906000526020600020905b815481529060010190602001808311610a5957829003601f168201915b505050505090806001018054610a8b9061492c565b80601f0160208091040260200160405190810160405280929190818152602001828054610ab79061492c565b8015610b045780601f10610ad957610100808354040283529160200191610b04565b820191906000526020600020905b815481529060010190602001808311610ae757829003601f168201915b505050505090806002018054610b199061492c565b80601f0160208091040260200160405190810160405280929190818152602001828054610b459061492c565b8015610b925780601f10610b6757610100808354040283529160200191610b92565b820191906000526020600020905b815481529060010190602001808311610b7557829003601f168201915b505050505090806003018054610ba79061492c565b80601f0160208091040260200160405190810160405280929190818152602001828054610bd39061492c565b8015610c205780601f10610bf557610100808354040283529160200191610c20565b820191906000526020600020905b815481529060010190602001808311610c0357829003601f168201915b505050505090806004018054610c359061492c565b80601f0160208091040260200160405190810160405280929190818152602001828054610c619061492c565b8015610cae5780601f10610c8357610100808354040283529160200191610cae565b820191906000526020600020905b815481529060010190602001808311610c9157829003601f168201915b505050505090806005018054610cc39061492c565b80601f0160208091040260200160405190810160405280929190818152602001828054610cef9061492c565b8015610d3c5780601f10610d1157610100808354040283529160200191610d3c565b820191906000526020600020905b815481529060010190602001808311610d1f57829003601f168201915b505050505090806006018054610d519061492c565b80601f0160208091040260200160405190810160405280929190818152602001828054610d7d9061492c565b8015610dca5780601f10610d9f57610100808354040283529160200191610dca565b820191906000526020600020905b815481529060010190602001808311610dad57829003601f168201915b5050505050908060070160009054906101000a900460ff16908060070160019054906101000a900460ff1690806008018054610e059061492c565b80601f0160208091040260200160405190810160405280929190818152602001828054610e319061492c565b8015610e7e5780601f10610e5357610100808354040283529160200191610e7e565b820191906000526020600020905b815481529060010190602001808311610e6157829003601f168201915b505050505090806009018054610e939061492c565b80601f0160208091040260200160405190810160405280929190818152602001828054610ebf9061492c565b8015610f0c5780601f10610ee157610100808354040283529160200191610f0c565b820191906000526020600020905b815481529060010190602001808311610eef57829003601f168201915b505050505090508b565b610f3183838360405180602001604052806000815250611bef565b505050565b6000806002600084815260200190815260200160002060009054906101000a900473ffffffffffffffffffffffffffffffffffffffff169050600073ffffffffffffffffffffffffffffffffffffffff168173ffffffffffffffffffffffffffffffffffffffff1603610fde576040517f08c379a0000000000000000000000000000000000000000000000000000000008152600401610fd590614c17565b60405180910390fd5b80915050919050565b80600e600082015181600001908051906020019061100692919061348f565b50602082015181600101908051906020019061102392919061348f565b50604082015181600201908051906020019061104092919061348f565b50606082015181600301908051906020019061105d92919061348f565b50608082015181600401908051906020019061107a92919061348f565b5060a082015181600501908051906020019061109792919061348f565b5060c08201518160060190805190602001906110b492919061348f565b5060e08201518160070160006101000a81548160ff021916908360018111156110e0576110df6138cd565b5b02179055506101008201518160070160016101000a81548160ff02191690836001811115611111576111106138cd565b5b021790555061012082015181600801908051906020019061113392919061348f565b5061014082015181600901908051906020019061115192919061348f565b5090505050565b60008073ffffffffffffffffffffffffffffffffffffffff168273ffffffffffffffffffffffffffffffffffffffff16036111c8576040517f08c379a00000000000000000000000000000000000000000000000000000000081526004016111bf90614ca9565b60405180910390fd5b600360008373ffffffffffffffffffffffffffffffffffffffff1673ffffffffffffffffffffffffffffffffffffffff168152602001908152602001600020549050919050565b600c818154811061121f57600080fd5b90600052602060002090600602016000915090508060000180546112429061492c565b80601f016020809104026020016040519081016040528092919081815260200182805461126e9061492c565b80156112bb5780601f10611290576101008083540402835291602001916112bb565b820191906000526020600020905b81548152906001019060200180831161129e57829003601f168201915b5050505050908060010180546112d09061492c565b80601f01602080910402602001604051908101604052809291908181526020018280546112fc9061492c565b80156113495780601f1061131e57610100808354040283529160200191611349565b820191906000526020600020905b81548152906001019060200180831161132c57829003601f168201915b5050505050908060020160009054906101000a900460ff16908060030154908060040154908060050154905086565b600b60009054906101000a900473ffffffffffffffffffffffffffffffffffffffff1673ffffffffffffffffffffffffffffffffffffffff163373ffffffffffffffffffffffffffffffffffffffff1614611408576040517f08c379a00000000000000000000000000000000000000000000000000000000081526004016113ff90614d15565b60405180910390fd5b80600860009054906101000a900473ffffffffffffffffffffffffffffffffffffffff1673ffffffffffffffffffffffffffffffffffffffff168173ffffffffffffffffffffffffffffffffffffffff1614611499576040517f08c379a000000000000000000000000000000000000000000000000000000000815260040161149090614d81565b60405180910390fd5b60005b83518110156116b65760008482815181106114ba576114b9614da1565b5b60200260200101519050600060028111156114d8576114d76138cd565b5b816040015160028111156114ef576114ee6138cd565b5b108015611523575060028081111561150a576115096138cd565b5b81604001516002811115611521576115206138cd565b5b115b1561155a57600081604001906002811115611541576115406138cd565b5b90816002811115611555576115546138cd565b5b815250505b6000600281111561156e5761156d6138cd565b5b81604001516002811115611585576115846138cd565b5b036115965760008160a00181815250505b600c6040518060c001604052808360000151815260200183602001518152602001836040015160028111156115ce576115cd6138cd565b5b815260200183606001518152602001836080015181526020018360a001518152509080600181540180825580915050600190039060005260206000209060060201600090919091909150600082015181600001908051906020019061163492919061348f565b50602082015181600101908051906020019061165192919061348f565b5060408201518160020160006101000a81548160ff0219169083600281111561167d5761167c6138cd565b5b0217905550606082015181600301556080820151816004015560a0820151816005015550505080806116ae90614dff565b91505061149c565b50505050565b600b60009054906101000a900473ffffffffffffffffffffffffffffffffffffffff1673ffffffffffffffffffffffffffffffffffffffff163373ffffffffffffffffffffffffffffffffffffffff161461174c576040517f08c379a000000000000000000000000000000000000000000000000000000000815260040161174390614d15565b60405180910390fd5b80600a908051906020019061176292919061348f565b5050565b6060600061177383611158565b67ffffffffffffffff81111561178c5761178b613a7b565b5b6040519080825280602002602001820160405280156117c557816020015b6117b2613515565b8152602001906001900390816117aa5790505b5090506000806117d485611158565b036117e3578192505050611b1c565b60005b6007548111611b15578473ffffffffffffffffffffffffffffffffffffffff1661180f82610f36565b73ffffffffffffffffffffffffffffffffffffffff1603611b0257600d60008281526020019081526020016000206040518060a00160405290816000820180546118589061492c565b80601f01602080910402602001604051908101604052809291908181526020018280546118849061492c565b80156118d15780601f106118a6576101008083540402835291602001916118d1565b820191906000526020600020905b8154815290600101906020018083116118b457829003601f168201915b505050505081526020016001820160009054906101000a900473ffffffffffffffffffffffffffffffffffffffff1673ffffffffffffffffffffffffffffffffffffffff1673ffffffffffffffffffffffffffffffffffffffff16815260200160028201548152602001600382016040518060c001604052908160008201805461195a9061492c565b80601f01602080910402602001604051908101604052809291908181526020018280546119869061492c565b80156119d35780601f106119a8576101008083540402835291602001916119d3565b820191906000526020600020905b8154815290600101906020018083116119b657829003601f168201915b505050505081526020016001820180546119ec9061492c565b80601f0160208091040260200160405190810160405280929190818152602001828054611a189061492c565b8015611a655780601f10611a3a57610100808354040283529160200191611a65565b820191906000526020600020905b815481529060010190602001808311611a4857829003601f168201915b505050505081526020016002820160009054906101000a900460ff166002811115611a9357611a926138cd565b5b6002811115611aa557611aa46138cd565b5b815260200160038201548152602001600482015481526020016005820154815250508152602001600982015481525050838381518110611ae857611ae7614da1565b5b60200260200101819052508180611afe90614dff565b9250505b8080611b0d90614dff565b9150506117e6565b5081925050505b919050565b606060018054611b309061492c565b80601f0160208091040260200160405190810160405280929190818152602001828054611b5c9061492c565b8015611ba95780601f10611b7e57610100808354040283529160200191611ba9565b820191906000526020600020905b815481529060010190602001808311611b8c57829003601f168201915b5050505050905090565b611bc5611bbe6125fc565b8383612a01565b5050565b600860009054906101000a900473ffffffffffffffffffffffffffffffffffffffff1681565b611c00611bfa6125fc565b836126bd565b611c3f576040517f08c379a0000000000000000000000000000000000000000000000000000000008152600401611c3690614b85565b60405180910390fd5b611c4b84848484612b6d565b50505050565b600b60009054906101000a900473ffffffffffffffffffffffffffffffffffffffff1673ffffffffffffffffffffffffffffffffffffffff163373ffffffffffffffffffffffffffffffffffffffff1614611ce1576040517f08c379a0000000000000000000000000000000000000000000000000000000008152600401611cd890614d15565b60405180910390fd5b611cea81612bc9565b341015611d2c576040517f08c379a0000000000000000000000000000000000000000000000000000000008152600401611d2390614e93565b60405180910390fd5b60005b81518110156120d2576000828281518110611d4d57611d4c614da1565b5b6020026020010151905060006007549050611d683082612e0e565b60076000815480929190611d7b90614dff565b9190505550611d8e818360400151612fe7565b6040518060a0016040528083600001518152602001836060015173ffffffffffffffffffffffffffffffffffffffff168152602001828152602001600c846020015181548110611de157611de0614da1565b5b90600052602060002090600602016040518060c0016040529081600082018054611e0a9061492c565b80601f0160208091040260200160405190810160405280929190818152602001828054611e369061492c565b8015611e835780601f10611e5857610100808354040283529160200191611e83565b820191906000526020600020905b815481529060010190602001808311611e6657829003601f168201915b50505050508152602001600182018054611e9c9061492c565b80601f0160208091040260200160405190810160405280929190818152602001828054611ec89061492c565b8015611f155780601f10611eea57610100808354040283529160200191611f15565b820191906000526020600020905b815481529060010190602001808311611ef857829003601f168201915b505050505081526020016002820160009054906101000a900460ff166002811115611f4357611f426138cd565b5b6002811115611f5557611f546138cd565b5b8152602001600382015481526020016004820154815260200160058201548152505081526020018360800151815250600d60008381526020019081526020016000206000820151816000019080519060200190611fb392919061348f565b5060208201518160010160006101000a81548173ffffffffffffffffffffffffffffffffffffffff021916908373ffffffffffffffffffffffffffffffffffffffff16021790555060408201518160020155606082015181600301600082015181600001908051906020019061202a92919061348f565b50602082015181600101908051906020019061204792919061348f565b5060408201518160020160006101000a81548160ff02191690836002811115612073576120726138cd565b5b0217905550606082015181600301556080820151816004015560a082015181600501555050608082015181600901559050506120ae8161305b565b506120bd8183606001516130ae565b505080806120ca90614dff565b915050611d2f565b5050565b60606120e182612590565b612120576040517f08c379a000000000000000000000000000000000000000000000000000000000815260040161211790614f25565b60405180910390fd5b60006006600084815260200190815260200160002080546121409061492c565b80601f016020809104026020016040519081016040528092919081815260200182805461216c9061492c565b80156121b95780601f1061218e576101008083540402835291602001916121b9565b820191906000526020600020905b81548152906001019060200180831161219c57829003601f168201915b5050505050905060006121ca6130bd565b905060008151036121df578192505050612222565b6000825111156122145780826040516020016121fc929190614f81565b60405160208183030381529060405292505050612222565b61221d846130d4565b925050505b919050565b600d60205280600052604060002060009150905080600001805461224a9061492c565b80601f01602080910402602001604051908101604052809291908181526020018280546122769061492c565b80156122c35780601f10612298576101008083540402835291602001916122c3565b820191906000526020600020905b8154815290600101906020018083116122a657829003601f168201915b5050505050908060010160009054906101000a900473ffffffffffffffffffffffffffffffffffffffff1690806002015490806003016040518060c00160405290816000820180546123149061492c565b80601f01602080910402602001604051908101604052809291908181526020018280546123409061492c565b801561238d5780601f106123625761010080835404028352916020019161238d565b820191906000526020600020905b81548152906001019060200180831161237057829003601f168201915b505050505081526020016001820180546123a69061492c565b80601f01602080910402602001604051908101604052809291908181526020018280546123d29061492c565b801561241f5780601f106123f45761010080835404028352916020019161241f565b820191906000526020600020905b81548152906001019060200180831161240257829003601f168201915b505050505081526020016002820160009054906101000a900460ff16600281111561244d5761244c6138cd565b5b600281111561245f5761245e6138cd565b5b81526020016003820154815260200160048201548152602001600582015481525050908060090154905085565b6000600560008473ffffffffffffffffffffffffffffffffffffffff1673ffffffffffffffffffffffffffffffffffffffff16815260200190815260200160002060008373ffffffffffffffffffffffffffffffffffffffff1673ffffffffffffffffffffffffffffffffffffffff16815260200190815260200160002060009054906101000a900460ff16905092915050565b60095481565b60007f01ffc9a7000000000000000000000000000000000000000000000000000000007bffffffffffffffffffffffffffffffffffffffffffffffffffffffff1916827bffffffffffffffffffffffffffffffffffffffffffffffffffffffff1916149050919050565b60008073ffffffffffffffffffffffffffffffffffffffff166002600084815260200190815260200160002060009054906101000a900473ffffffffffffffffffffffffffffffffffffffff1673ffffffffffffffffffffffffffffffffffffffff1614159050919050565b600033905090565b816004600083815260200190815260200160002060006101000a81548173ffffffffffffffffffffffffffffffffffffffff021916908373ffffffffffffffffffffffffffffffffffffffff160217905550808273ffffffffffffffffffffffffffffffffffffffff1661267783610f36565b73ffffffffffffffffffffffffffffffffffffffff167f8c5be1e5ebec7d5bd14f71427d1e84f3dd0314c0f7b2291e5b200ac8c7c3b92560405160405180910390a45050565b60006126c882612590565b612707576040517f08c379a00000000000000000000000000000000000000000000000000000000081526004016126fe90615017565b60405180910390fd5b600061271283610f36565b90508073ffffffffffffffffffffffffffffffffffffffff168473ffffffffffffffffffffffffffffffffffffffff16148061278157508373ffffffffffffffffffffffffffffffffffffffff1661276984610762565b73ffffffffffffffffffffffffffffffffffffffff16145b806127925750612791818561248c565b5b91505092915050565b8273ffffffffffffffffffffffffffffffffffffffff166127bb82610f36565b73ffffffffffffffffffffffffffffffffffffffff1614612811576040517f08c379a0000000000000000000000000000000000000000000000000000000008152600401612808906150a9565b60405180910390fd5b600073ffffffffffffffffffffffffffffffffffffffff168273ffffffffffffffffffffffffffffffffffffffff1603612880576040517f08c379a00000000000000000000000000000000000000000000000000000000081526004016128779061513b565b60405180910390fd5b61288b83838361317b565b612896600082612604565b6001600360008573ffffffffffffffffffffffffffffffffffffffff1673ffffffffffffffffffffffffffffffffffffffff16815260200190815260200160002060008282546128e6919061515b565b925050819055506001600360008473ffffffffffffffffffffffffffffffffffffffff1673ffffffffffffffffffffffffffffffffffffffff168152602001908152602001600020600082825461293d919061518f565b92505081905550816002600083815260200190815260200160002060006101000a81548173ffffffffffffffffffffffffffffffffffffffff021916908373ffffffffffffffffffffffffffffffffffffffff160217905550808273ffffffffffffffffffffffffffffffffffffffff168473ffffffffffffffffffffffffffffffffffffffff167fddf252ad1be2c89b69c2b068fc378daa952ba7f163c4a11628f55a4df523b3ef60405160405180910390a46129fc838383613180565b505050565b8173ffffffffffffffffffffffffffffffffffffffff168373ffffffffffffffffffffffffffffffffffffffff1603612a6f576040517f08c379a0000000000000000000000000000000000000000000000000000000008152600401612a6690615231565b60405180910390fd5b80600560008573ffffffffffffffffffffffffffffffffffffffff1673ffffffffffffffffffffffffffffffffffffffff16815260200190815260200160002060008473ffffffffffffffffffffffffffffffffffffffff1673ffffffffffffffffffffffffffffffffffffffff16815260200190815260200160002060006101000a81548160ff0219169083151502179055508173ffffffffffffffffffffffffffffffffffffffff168373ffffffffffffffffffffffffffffffffffffffff167f17307eab39ab6107e8899845ad3d59bd9653f200f220920489ca2b5937696c3183604051612b609190613679565b60405180910390a3505050565b612b7884848461279b565b612b8484848484613185565b612bc3576040517f08c379a0000000000000000000000000000000000000000000000000000000008152600401612bba906152c3565b60405180910390fd5b50505050565b6000806000905060005b8351811015612e04576000600c858381518110612bf357612bf2614da1565b5b60200260200101516020015181548110612c1057612c0f614da1565b5b90600052602060002090600602016040518060c0016040529081600082018054612c399061492c565b80601f0160208091040260200160405190810160405280929190818152602001828054612c659061492c565b8015612cb25780601f10612c8757610100808354040283529160200191612cb2565b820191906000526020600020905b815481529060010190602001808311612c9557829003601f168201915b50505050508152602001600182018054612ccb9061492c565b80601f0160208091040260200160405190810160405280929190818152602001828054612cf79061492c565b8015612d445780601f10612d1957610100808354040283529160200191612d44565b820191906000526020600020905b815481529060010190602001808311612d2757829003601f168201915b505050505081526020016002820160009054906101000a900460ff166002811115612d7257612d716138cd565b5b6002811115612d8457612d836138cd565b5b815260200160038201548152602001600482015481526020016005820154815250509050600280811115612dbb57612dba6138cd565b5b81604001516002811115612dd257612dd16138cd565b5b03612ddd5750612df1565b8060a0015183612ded919061518f565b9250505b8080612dfc90614dff565b915050612bd3565b5080915050919050565b600073ffffffffffffffffffffffffffffffffffffffff168273ffffffffffffffffffffffffffffffffffffffff1603612e7d576040517f08c379a0000000000000000000000000000000000000000000000000000000008152600401612e749061532f565b60405180910390fd5b612e8681612590565b15612ec6576040517f08c379a0000000000000000000000000000000000000000000000000000000008152600401612ebd9061539b565b60405180910390fd5b612ed26000838361317b565b6001600360008473ffffffffffffffffffffffffffffffffffffffff1673ffffffffffffffffffffffffffffffffffffffff1681526020019081526020016000206000828254612f22919061518f565b92505081905550816002600083815260200190815260200160002060006101000a81548173ffffffffffffffffffffffffffffffffffffffff021916908373ffffffffffffffffffffffffffffffffffffffff160217905550808273ffffffffffffffffffffffffffffffffffffffff16600073ffffffffffffffffffffffffffffffffffffffff167fddf252ad1be2c89b69c2b068fc378daa952ba7f163c4a11628f55a4df523b3ef60405160405180910390a4612fe360008383613180565b5050565b612ff082612590565b61302f576040517f08c379a00000000000000000000000000000000000000000000000000000000081526004016130269061542d565b60405180910390fd5b8060066000848152602001908152602001600020908051906020019061305692919061348f565b505050565b600061306682612590565b6130a5576040517f08c379a000000000000000000000000000000000000000000000000000000000815260040161309c90615499565b60405180910390fd5b60019050919050565b6130b930828461279b565b5050565b606060405180602001604052806000815250905090565b60606130df82612590565b61311e576040517f08c379a00000000000000000000000000000000000000000000000000000000081526004016131159061552b565b60405180910390fd5b60006131286130bd565b905060008151116131485760405180602001604052806000815250613173565b806131528461330c565b604051602001613163929190614f81565b6040516020818303038152906040525b915050919050565b505050565b505050565b60006131a68473ffffffffffffffffffffffffffffffffffffffff1661346c565b156132ff578373ffffffffffffffffffffffffffffffffffffffff1663150b7a026131cf6125fc565b8786866040518563ffffffff1660e01b81526004016131f194939291906155a0565b6020604051808303816000875af192505050801561322d57506040513d601f19601f8201168201806040525081019061322a9190615601565b60015b6132af573d806000811461325d576040519150601f19603f3d011682016040523d82523d6000602084013e613262565b606091505b5060008151036132a7576040517f08c379a000000000000000000000000000000000000000000000000000000000815260040161329e906152c3565b60405180910390fd5b805181602001fd5b63150b7a0260e01b7bffffffffffffffffffffffffffffffffffffffffffffffffffffffff1916817bffffffffffffffffffffffffffffffffffffffffffffffffffffffff191614915050613304565b600190505b949350505050565b606060008203613353576040518060400160405280600181526020017f30000000000000000000000000000000000000000000000000000000000000008152509050613467565b600082905060005b6000821461338557808061336e90614dff565b915050600a8261337e919061565d565b915061335b565b60008167ffffffffffffffff8111156133a1576133a0613a7b565b5b6040519080825280601f01601f1916602001820160405280156133d35781602001600182028036833780820191505090505b5090505b60008514613460576001826133ec919061515b565b9150600a856133fb919061568e565b6030613407919061518f565b60f81b81838151811061341d5761341c614da1565b5b60200101907effffffffffffffffffffffffffffffffffffffffffffffffffffffffffffff1916908160001a905350600a85613459919061565d565b94506133d7565b8093505050505b919050565b6000808273ffffffffffffffffffffffffffffffffffffffff163b119050919050565b82805461349b9061492c565b90600052602060002090601f0160209004810192826134bd5760008555613504565b82601f106134d657805160ff1916838001178555613504565b82800160010185558215613504579182015b828111156135035782518255916020019190600101906134e8565b5b5090506135119190613560565b5090565b6040518060a0016040528060608152602001600073ffffffffffffffffffffffffffffffffffffffff1681526020016000815260200161355361357d565b8152602001600081525090565b5b80821115613579576000816000905550600101613561565b5090565b6040518060c001604052806060815260200160608152602001600060028111156135aa576135a96138cd565b5b81526020016000815260200160008152602001600081525090565b6000604051905090565b600080fd5b600080fd5b60007fffffffff0000000000000000000000000000000000000000000000000000000082169050919050565b61360e816135d9565b811461361957600080fd5b50565b60008135905061362b81613605565b92915050565b600060208284031215613647576136466135cf565b5b60006136558482850161361c565b91505092915050565b60008115159050919050565b6136738161365e565b82525050565b600060208201905061368e600083018461366a565b92915050565b600081519050919050565b600082825260208201905092915050565b60005b838110156136ce5780820151818401526020810190506136b3565b838111156136dd576000848401525b50505050565b6000601f19601f8301169050919050565b60006136ff82613694565b613709818561369f565b93506137198185602086016136b0565b613722816136e3565b840191505092915050565b6000602082019050818103600083015261374781846136f4565b905092915050565b6000819050919050565b6137628161374f565b811461376d57600080fd5b50565b60008135905061377f81613759565b92915050565b60006020828403121561379b5761379a6135cf565b5b60006137a984828501613770565b91505092915050565b600073ffffffffffffffffffffffffffffffffffffffff82169050919050565b60006137dd826137b2565b9050919050565b6137ed816137d2565b82525050565b600060208201905061380860008301846137e4565b92915050565b613817816137d2565b811461382257600080fd5b50565b6000813590506138348161380e565b92915050565b60008060408385031215613851576138506135cf565b5b600061385f85828601613825565b925050602061387085828601613770565b9150509250929050565b600080600060608486031215613893576138926135cf565b5b60006138a186828701613825565b93505060206138b286828701613825565b92505060406138c386828701613770565b9150509250925092565b7f4e487b7100000000000000000000000000000000000000000000000000000000600052602160045260246000fd5b6002811061390d5761390c6138cd565b5b50565b600081905061391e826138fc565b919050565b600061392e82613910565b9050919050565b61393e81613923565b82525050565b60028110613955576139546138cd565b5b50565b600081905061396682613944565b919050565b600061397682613958565b9050919050565b6139868161396b565b82525050565b60006101608201905081810360008301526139a7818e6136f4565b905081810360208301526139bb818d6136f4565b905081810360408301526139cf818c6136f4565b905081810360608301526139e3818b6136f4565b905081810360808301526139f7818a6136f4565b905081810360a0830152613a0b81896136f4565b905081810360c0830152613a1f81886136f4565b9050613a2e60e0830187613935565b613a3c61010083018661397d565b818103610120830152613a4f81856136f4565b9050818103610140830152613a6481846136f4565b90509c9b505050505050505050505050565b600080fd5b7f4e487b7100000000000000000000000000000000000000000000000000000000600052604160045260246000fd5b613ab3826136e3565b810181811067ffffffffffffffff82111715613ad257613ad1613a7b565b5b80604052505050565b6000613ae56135c5565b9050613af18282613aaa565b919050565b600080fd5b600080fd5b600080fd5b600067ffffffffffffffff821115613b2057613b1f613a7b565b5b613b29826136e3565b9050602081019050919050565b82818337600083830152505050565b6000613b58613b5384613b05565b613adb565b905082815260208101848484011115613b7457613b73613b00565b5b613b7f848285613b36565b509392505050565b600082601f830112613b9c57613b9b613afb565b5b8135613bac848260208601613b45565b91505092915050565b60028110613bc257600080fd5b50565b600081359050613bd481613bb5565b92915050565b60028110613be757600080fd5b50565b600081359050613bf981613bda565b92915050565b60006101608284031215613c1657613c15613a76565b5b613c21610160613adb565b9050600082013567ffffffffffffffff811115613c4157613c40613af6565b5b613c4d84828501613b87565b600083015250602082013567ffffffffffffffff811115613c7157613c70613af6565b5b613c7d84828501613b87565b602083015250604082013567ffffffffffffffff811115613ca157613ca0613af6565b5b613cad84828501613b87565b604083015250606082013567ffffffffffffffff811115613cd157613cd0613af6565b5b613cdd84828501613b87565b606083015250608082013567ffffffffffffffff811115613d0157613d00613af6565b5b613d0d84828501613b87565b60808301525060a082013567ffffffffffffffff811115613d3157613d30613af6565b5b613d3d84828501613b87565b60a08301525060c082013567ffffffffffffffff811115613d6157613d60613af6565b5b613d6d84828501613b87565b60c08301525060e0613d8184828501613bc5565b60e083015250610100613d9684828501613bea565b6101008301525061012082013567ffffffffffffffff811115613dbc57613dbb613af6565b5b613dc884828501613b87565b6101208301525061014082013567ffffffffffffffff811115613dee57613ded613af6565b5b613dfa84828501613b87565b6101408301525092915050565b600060208284031215613e1d57613e1c6135cf565b5b600082013567ffffffffffffffff811115613e3b57613e3a6135d4565b5b613e4784828501613bff565b91505092915050565b600060208284031215613e6657613e656135cf565b5b6000613e7484828501613825565b91505092915050565b613e868161374f565b82525050565b6000602082019050613ea16000830184613e7d565b92915050565b60038110613eb857613eb76138cd565b5b50565b6000819050613ec982613ea7565b919050565b6000613ed982613ebb565b9050919050565b613ee981613ece565b82525050565b600060c0820190508181036000830152613f0981896136f4565b90508181036020830152613f1d81886136f4565b9050613f2c6040830187613ee0565b613f396060830186613e7d565b613f466080830185613e7d565b613f5360a0830184613e7d565b979650505050505050565b600067ffffffffffffffff821115613f7957613f78613a7b565b5b602082029050602081019050919050565b600080fd5b60038110613f9c57600080fd5b50565b600081359050613fae81613f8f565b92915050565b600060c08284031215613fca57613fc9613a76565b5b613fd460c0613adb565b9050600082013567ffffffffffffffff811115613ff457613ff3613af6565b5b61400084828501613b87565b600083015250602082013567ffffffffffffffff81111561402457614023613af6565b5b61403084828501613b87565b602083015250604061404484828501613f9f565b604083015250606061405884828501613770565b606083015250608061406c84828501613770565b60808301525060a061408084828501613770565b60a08301525092915050565b600061409f61409a84613f5e565b613adb565b905080838252602082019050602084028301858111156140c2576140c1613f8a565b5b835b8181101561410957803567ffffffffffffffff8111156140e7576140e6613afb565b5b8086016140f48982613fb4565b855260208501945050506020810190506140c4565b5050509392505050565b600082601f83011261412857614127613afb565b5b813561413884826020860161408c565b91505092915050565b60008060408385031215614158576141576135cf565b5b600083013567ffffffffffffffff811115614176576141756135d4565b5b61418285828601614113565b925050602061419385828601613825565b9150509250929050565b6000602082840312156141b3576141b26135cf565b5b600082013567ffffffffffffffff8111156141d1576141d06135d4565b5b6141dd84828501613b87565b91505092915050565b600081519050919050565b600082825260208201905092915050565b6000819050602082019050919050565b600082825260208201905092915050565b600061422e82613694565b6142388185614212565b93506142488185602086016136b0565b614251816136e3565b840191505092915050565b614265816137d2565b82525050565b6142748161374f565b82525050565b61428381613ece565b82525050565b600060c08301600083015184820360008601526142a68282614223565b915050602083015184820360208601526142c08282614223565b91505060408301516142d5604086018261427a565b5060608301516142e8606086018261426b565b5060808301516142fb608086018261426b565b5060a083015161430e60a086018261426b565b508091505092915050565b600060a08301600083015184820360008601526143368282614223565b915050602083015161434b602086018261425c565b50604083015161435e604086018261426b565b50606083015184820360608601526143768282614289565b915050608083015161438b608086018261426b565b508091505092915050565b60006143a28383614319565b905092915050565b6000602082019050919050565b60006143c2826141e6565b6143cc81856141f1565b9350836020820285016143de85614202565b8060005b8581101561441a57848403895281516143fb8582614396565b9450614406836143aa565b925060208a019950506001810190506143e2565b50829750879550505050505092915050565b6000602082019050818103600083015261444681846143b7565b905092915050565b6144578161365e565b811461446257600080fd5b50565b6000813590506144748161444e565b92915050565b60008060408385031215614491576144906135cf565b5b600061449f85828601613825565b92505060206144b085828601614465565b9150509250929050565b600067ffffffffffffffff8211156144d5576144d4613a7b565b5b6144de826136e3565b9050602081019050919050565b60006144fe6144f9846144ba565b613adb565b90508281526020810184848401111561451a57614519613b00565b5b614525848285613b36565b509392505050565b600082601f83011261454257614541613afb565b5b81356145528482602086016144eb565b91505092915050565b60008060008060808587031215614575576145746135cf565b5b600061458387828801613825565b945050602061459487828801613825565b93505060406145a587828801613770565b925050606085013567ffffffffffffffff8111156145c6576145c56135d4565b5b6145d28782880161452d565b91505092959194509250565b600067ffffffffffffffff8211156145f9576145f8613a7b565b5b602082029050602081019050919050565b600060a082840312156146205761461f613a76565b5b61462a60a0613adb565b9050600082013567ffffffffffffffff81111561464a57614649613af6565b5b61465684828501613b87565b600083015250602061466a84828501613770565b602083015250604082013567ffffffffffffffff81111561468e5761468d613af6565b5b61469a84828501613b87565b60408301525060606146ae84828501613825565b60608301525060806146c284828501613770565b60808301525092915050565b60006146e16146dc846145de565b613adb565b9050808382526020820190506020840283018581111561470457614703613f8a565b5b835b8181101561474b57803567ffffffffffffffff81111561472957614728613afb565b5b808601614736898261460a565b85526020850194505050602081019050614706565b5050509392505050565b600082601f83011261476a57614769613afb565b5b813561477a8482602086016146ce565b91505092915050565b600060208284031215614799576147986135cf565b5b600082013567ffffffffffffffff8111156147b7576147b66135d4565b5b6147c384828501614755565b91505092915050565b600060c08301600083015184820360008601526147e98282614223565b915050602083015184820360208601526148038282614223565b9150506040830151614818604086018261427a565b50606083015161482b606086018261426b565b50608083015161483e608086018261426b565b5060a083015161485160a086018261426b565b508091505092915050565b600060a082019050818103600083015261487681886136f4565b905061488560208301876137e4565b6148926040830186613e7d565b81810360608301526148a481856147cc565b90506148b36080830184613e7d565b9695505050505050565b600080604083850312156148d4576148d36135cf565b5b60006148e285828601613825565b92505060206148f385828601613825565b9150509250929050565b7f4e487b7100000000000000000000000000000000000000000000000000000000600052602260045260246000fd5b6000600282049050600182168061494457607f821691505b602082108103614957576149566148fd565b5b50919050565b7f4552433732313a20617070726f76656420717565727920666f72206e6f6e657860008201527f697374656e7420746f6b656e0000000000000000000000000000000000000000602082015250565b60006149b9602c8361369f565b91506149c48261495d565b604082019050919050565b600060208201905081810360008301526149e8816149ac565b9050919050565b7f4552433732313a20617070726f76616c20746f2063757272656e74206f776e6560008201527f7200000000000000000000000000000000000000000000000000000000000000602082015250565b6000614a4b60218361369f565b9150614a56826149ef565b604082019050919050565b60006020820190508181036000830152614a7a81614a3e565b9050919050565b7f4552433732313a20617070726f76652063616c6c6572206973206e6f74206f7760008201527f6e6572206e6f7220617070726f76656420666f7220616c6c0000000000000000602082015250565b6000614add60388361369f565b9150614ae882614a81565b604082019050919050565b60006020820190508181036000830152614b0c81614ad0565b9050919050565b7f4552433732313a207472616e736665722063616c6c6572206973206e6f74206f60008201527f776e6572206e6f7220617070726f766564000000000000000000000000000000602082015250565b6000614b6f60318361369f565b9150614b7a82614b13565b604082019050919050565b60006020820190508181036000830152614b9e81614b62565b9050919050565b7f4552433732313a206f776e657220717565727920666f72206e6f6e657869737460008201527f656e7420746f6b656e0000000000000000000000000000000000000000000000602082015250565b6000614c0160298361369f565b9150614c0c82614ba5565b604082019050919050565b60006020820190508181036000830152614c3081614bf4565b9050919050565b7f4552433732313a2062616c616e636520717565727920666f7220746865207a6560008201527f726f206164647265737300000000000000000000000000000000000000000000602082015250565b6000614c93602a8361369f565b9150614c9e82614c37565b604082019050919050565b60006020820190508181036000830152614cc281614c86565b9050919050565b7f596f75206e65656420746f207573652074686520666163746f72790000000000600082015250565b6000614cff601b8361369f565b9150614d0a82614cc9565b602082019050919050565b60006020820190508181036000830152614d2e81614cf2565b9050919050565b7f4163636573732072657374726963746564210000000000000000000000000000600082015250565b6000614d6b60128361369f565b9150614d7682614d35565b602082019050919050565b60006020820190508181036000830152614d9a81614d5e565b9050919050565b7f4e487b7100000000000000000000000000000000000000000000000000000000600052603260045260246000fd5b7f4e487b7100000000000000000000000000000000000000000000000000000000600052601160045260246000fd5b6000614e0a8261374f565b91507fffffffffffffffffffffffffffffffffffffffffffffffffffffffffffffffff8203614e3c57614e3b614dd0565b5b600182019050919050565b7f546865207469636b65747320636f7374206d6f72650000000000000000000000600082015250565b6000614e7d60158361369f565b9150614e8882614e47565b602082019050919050565b60006020820190508181036000830152614eac81614e70565b9050919050565b7f45524337323155524953746f726167653a2055524920717565727920666f722060008201527f6e6f6e6578697374656e7420746f6b656e000000000000000000000000000000602082015250565b6000614f0f60318361369f565b9150614f1a82614eb3565b604082019050919050565b60006020820190508181036000830152614f3e81614f02565b9050919050565b600081905092915050565b6000614f5b82613694565b614f658185614f45565b9350614f758185602086016136b0565b80840191505092915050565b6000614f8d8285614f50565b9150614f998284614f50565b91508190509392505050565b7f4552433732313a206f70657261746f7220717565727920666f72206e6f6e657860008201527f697374656e7420746f6b656e0000000000000000000000000000000000000000602082015250565b6000615001602c8361369f565b915061500c82614fa5565b604082019050919050565b6000602082019050818103600083015261503081614ff4565b9050919050565b7f4552433732313a207472616e736665722066726f6d20696e636f72726563742060008201527f6f776e6572000000000000000000000000000000000000000000000000000000602082015250565b600061509360258361369f565b915061509e82615037565b604082019050919050565b600060208201905081810360008301526150c281615086565b9050919050565b7f4552433732313a207472616e7366657220746f20746865207a65726f2061646460008201527f7265737300000000000000000000000000000000000000000000000000000000602082015250565b600061512560248361369f565b9150615130826150c9565b604082019050919050565b6000602082019050818103600083015261515481615118565b9050919050565b60006151668261374f565b91506151718361374f565b92508282101561518457615183614dd0565b5b828203905092915050565b600061519a8261374f565b91506151a58361374f565b9250827fffffffffffffffffffffffffffffffffffffffffffffffffffffffffffffffff038211156151da576151d9614dd0565b5b828201905092915050565b7f4552433732313a20617070726f766520746f2063616c6c657200000000000000600082015250565b600061521b60198361369f565b9150615226826151e5565b602082019050919050565b6000602082019050818103600083015261524a8161520e565b9050919050565b7f4552433732313a207472616e7366657220746f206e6f6e20455243373231526560008201527f63656976657220696d706c656d656e7465720000000000000000000000000000602082015250565b60006152ad60328361369f565b91506152b882615251565b604082019050919050565b600060208201905081810360008301526152dc816152a0565b9050919050565b7f4552433732313a206d696e7420746f20746865207a65726f2061646472657373600082015250565b600061531960208361369f565b9150615324826152e3565b602082019050919050565b600060208201905081810360008301526153488161530c565b9050919050565b7f4552433732313a20746f6b656e20616c7265616479206d696e74656400000000600082015250565b6000615385601c8361369f565b91506153908261534f565b602082019050919050565b600060208201905081810360008301526153b481615378565b9050919050565b7f45524337323155524953746f726167653a2055524920736574206f66206e6f6e60008201527f6578697374656e7420746f6b656e000000000000000000000000000000000000602082015250565b6000615417602e8361369f565b9150615422826153bb565b604082019050919050565b600060208201905081810360008301526154468161540a565b9050919050565b7f4572726f722c2077726f6e6720546f6b656e2069640000000000000000000000600082015250565b600061548360158361369f565b915061548e8261544d565b602082019050919050565b600060208201905081810360008301526154b281615476565b9050919050565b7f4552433732314d657461646174613a2055524920717565727920666f72206e6f60008201527f6e6578697374656e7420746f6b656e0000000000000000000000000000000000602082015250565b6000615515602f8361369f565b9150615520826154b9565b604082019050919050565b6000602082019050818103600083015261554481615508565b9050919050565b600081519050919050565b600082825260208201905092915050565b60006155728261554b565b61557c8185615556565b935061558c8185602086016136b0565b615595816136e3565b840191505092915050565b60006080820190506155b560008301876137e4565b6155c260208301866137e4565b6155cf6040830185613e7d565b81810360608301526155e18184615567565b905095945050505050565b6000815190506155fb81613605565b92915050565b600060208284031215615617576156166135cf565b5b6000615625848285016155ec565b91505092915050565b7f4e487b7100000000000000000000000000000000000000000000000000000000600052601260045260246000fd5b60006156688261374f565b91506156738361374f565b9250826156835761568261562e565b5b828204905092915050565b60006156998261374f565b91506156a48361374f565b9250826156b4576156b361562e565b5b82820690509291505056fea2646970667358221220b1d1843f77cc1f5cdbd77412862e5983ef7321348ad0a187736103df715eee4064736f6c634300080d0033a26469706673582212204fafbc34bd661f11463c953ada73605ea3e51b0bd0c2d3fe615badf01860cbb264736f6c634300080d0033",
  "immutableReferences": {},
  "source": "// SPDX-License-Identifier: GPL-3.0\npragma solidity >=0.6.0 <0.9.0;\n\nimport \"./Event.sol\";\n\ncontract EventFactory {\n    Event[] public _events;\n    uint256 EVENT_COUNTER;\n\n    function allEvents() public view returns (Event[] memory) {\n        return _events;\n    }\n\n    function addEvent(\n        BlocTick.EventData memory eventData,\n        BlocTick.Ticket[] memory tickets\n    ) external returns (Event) {\n        if (\n            eventData.visibility < BlocTick.EventVisibility.Private &&\n            eventData.visibility > BlocTick.EventVisibility.Public\n        ) {\n            eventData.visibility = BlocTick.EventVisibility.Public;\n        }\n        Event e = new Event(eventData.name, eventData.ticker, msg.sender);\n        e.storeTickets(tickets, msg.sender);\n        e.setEventData(eventData);\n        _events.push(e);\n        return e;\n    }\n}\n",
  "sourcePath": "/workspace/nft-ticketting-contracts/backend/contracts/EventFactory.sol",
  "compiler": {
    "name": "solc",
    "version": "0.8.13+commit.abaa5c0e.Emscripten.clang"
  },
  "schemaVersion": "3.4.7",
  "updatedAt": "2022-04-11T07:15:28.636Z",
  "devdoc": {
    "kind": "dev",
    "methods": {},
    "version": 1
  },
  "userdoc": {
    "kind": "user",
    "methods": {},
    "version": 1
  }
}