{
  "contractName": "Event",
  "abi": [
    {
      "inputs": [
        {
          "internalType": "string",
          "name": "name",
          "type": "string"
        },
        {
          "internalType": "string",
          "name": "symbol",
          "type": "string"
        },
        {
          "internalType": "address",
          "name": "__owner",
          "type": "address"
        }
      ],
      "stateMutability": "nonpayable",
      "type": "constructor"
    },
    {
      "anonymous": false,
      "inputs": [
        {
          "indexed": true,
          "internalType": "address",
          "name": "owner",
          "type": "address"
        },
        {
          "indexed": true,
          "internalType": "address",
          "name": "approved",
          "type": "address"
        },
        {
          "indexed": true,
          "internalType": "uint256",
          "name": "tokenId",
          "type": "uint256"
        }
      ],
      "name": "Approval",
      "type": "event"
    },
    {
      "anonymous": false,
      "inputs": [
        {
          "indexed": true,
          "internalType": "address",
          "name": "owner",
          "type": "address"
        },
        {
          "indexed": true,
          "internalType": "address",
          "name": "operator",
          "type": "address"
        },
        {
          "indexed": false,
          "internalType": "bool",
          "name": "approved",
          "type": "bool"
        }
      ],
      "name": "ApprovalForAll",
      "type": "event"
    },
    {
      "anonymous": false,
      "inputs": [
        {
          "indexed": true,
          "internalType": "address",
          "name": "from",
          "type": "address"
        },
        {
          "indexed": true,
          "internalType": "address",
          "name": "to",
          "type": "address"
        },
        {
          "indexed": true,
          "internalType": "uint256",
          "name": "tokenId",
          "type": "uint256"
        }
      ],
      "name": "Transfer",
      "type": "event"
    },
    {
      "inputs": [],
      "name": "_owner",
      "outputs": [
        {
          "internalType": "address",
          "name": "",
          "type": "address"
        }
      ],
      "stateMutability": "view",
      "type": "function"
    },
    {
      "inputs": [
        {
          "internalType": "address",
          "name": "to",
          "type": "address"
        },
        {
          "internalType": "uint256",
          "name": "tokenId",
          "type": "uint256"
        }
      ],
      "name": "approve",
      "outputs": [],
      "stateMutability": "nonpayable",
      "type": "function"
    },
    {
      "inputs": [
        {
          "internalType": "address",
          "name": "owner",
          "type": "address"
        }
      ],
      "name": "balanceOf",
      "outputs": [
        {
          "internalType": "uint256",
          "name": "",
          "type": "uint256"
        }
      ],
      "stateMutability": "view",
      "type": "function"
    },
    {
      "inputs": [
        {
          "internalType": "uint256",
          "name": "tokenId",
          "type": "uint256"
        }
      ],
      "name": "getApproved",
      "outputs": [
        {
          "internalType": "address",
          "name": "",
          "type": "address"
        }
      ],
      "stateMutability": "view",
      "type": "function"
    },
    {
      "inputs": [
        {
          "internalType": "address",
          "name": "owner",
          "type": "address"
        },
        {
          "internalType": "address",
          "name": "operator",
          "type": "address"
        }
      ],
      "name": "isApprovedForAll",
      "outputs": [
        {
          "internalType": "bool",
          "name": "",
          "type": "bool"
        }
      ],
      "stateMutability": "view",
      "type": "function"
    },
    {
      "inputs": [],
      "name": "name",
      "outputs": [
        {
          "internalType": "string",
          "name": "",
          "type": "string"
        }
      ],
      "stateMutability": "view",
      "type": "function"
    },
    {
      "inputs": [
        {
          "internalType": "uint256",
          "name": "tokenId",
          "type": "uint256"
        }
      ],
      "name": "ownerOf",
      "outputs": [
        {
          "internalType": "address",
          "name": "",
          "type": "address"
        }
      ],
      "stateMutability": "view",
      "type": "function"
    },
    {
      "inputs": [
        {
          "internalType": "address",
          "name": "from",
          "type": "address"
        },
        {
          "internalType": "address",
          "name": "to",
          "type": "address"
        },
        {
          "internalType": "uint256",
          "name": "tokenId",
          "type": "uint256"
        }
      ],
      "name": "safeTransferFrom",
      "outputs": [],
      "stateMutability": "nonpayable",
      "type": "function"
    },
    {
      "inputs": [
        {
          "internalType": "address",
          "name": "from",
          "type": "address"
        },
        {
          "internalType": "address",
          "name": "to",
          "type": "address"
        },
        {
          "internalType": "uint256",
          "name": "tokenId",
          "type": "uint256"
        },
        {
          "internalType": "bytes",
          "name": "_data",
          "type": "bytes"
        }
      ],
      "name": "safeTransferFrom",
      "outputs": [],
      "stateMutability": "nonpayable",
      "type": "function"
    },
    {
      "inputs": [],
      "name": "saleIsActive",
      "outputs": [
        {
          "internalType": "bool",
          "name": "",
          "type": "bool"
        }
      ],
      "stateMutability": "view",
      "type": "function"
    },
    {
      "inputs": [
        {
          "internalType": "address",
          "name": "operator",
          "type": "address"
        },
        {
          "internalType": "bool",
          "name": "approved",
          "type": "bool"
        }
      ],
      "name": "setApprovalForAll",
      "outputs": [],
      "stateMutability": "nonpayable",
      "type": "function"
    },
    {
      "inputs": [
        {
          "internalType": "bytes4",
          "name": "interfaceId",
          "type": "bytes4"
        }
      ],
      "name": "supportsInterface",
      "outputs": [
        {
          "internalType": "bool",
          "name": "",
          "type": "bool"
        }
      ],
      "stateMutability": "view",
      "type": "function"
    },
    {
      "inputs": [],
      "name": "symbol",
      "outputs": [
        {
          "internalType": "string",
          "name": "",
          "type": "string"
        }
      ],
      "stateMutability": "view",
      "type": "function"
    },
    {
      "inputs": [
        {
          "internalType": "uint256",
          "name": "tokenId",
          "type": "uint256"
        }
      ],
      "name": "tokenURI",
      "outputs": [
        {
          "internalType": "string",
          "name": "",
          "type": "string"
        }
      ],
      "stateMutability": "view",
      "type": "function"
    },
    {
      "inputs": [
        {
          "internalType": "address",
          "name": "from",
          "type": "address"
        },
        {
          "internalType": "address",
          "name": "to",
          "type": "address"
        },
        {
          "internalType": "uint256",
          "name": "tokenId",
          "type": "uint256"
        }
      ],
      "name": "transferFrom",
      "outputs": [],
      "stateMutability": "nonpayable",
      "type": "function"
    },
    {
      "inputs": [
        {
          "components": [
            {
              "internalType": "string",
              "name": "purchaseId",
              "type": "string"
            },
            {
              "internalType": "uint256",
              "name": "ticketId",
              "type": "uint256"
            },
            {
              "internalType": "string",
              "name": "tokenURI",
              "type": "string"
            },
            {
              "internalType": "address",
              "name": "buyer",
              "type": "address"
            },
            {
              "internalType": "string",
              "name": "cost",
              "type": "string"
            }
          ],
          "internalType": "struct BlocTick.TicketPurchase[]",
          "name": "purchases",
          "type": "tuple[]"
        },
        {
          "internalType": "uint256",
          "name": "platform_fee",
          "type": "uint256"
        }
      ],
      "name": "purchaseTickets",
      "outputs": [],
      "stateMutability": "payable",
      "type": "function"
    },
    {
      "inputs": [],
      "name": "getInfo",
      "outputs": [
        {
          "internalType": "uint256",
          "name": "",
          "type": "uint256"
        },
        {
          "components": [
            {
              "internalType": "string",
              "name": "purchaseId",
              "type": "string"
            },
            {
              "internalType": "address",
              "name": "buyer",
              "type": "address"
            },
            {
              "internalType": "uint256",
              "name": "tokenId",
              "type": "uint256"
            },
            {
              "internalType": "uint256",
              "name": "ticketId",
              "type": "uint256"
            },
            {
              "internalType": "string",
              "name": "cost",
              "type": "string"
            }
          ],
          "internalType": "struct BlocTick.SuccessfulPurchase[]",
          "name": "",
          "type": "tuple[]"
        }
      ],
      "stateMutability": "view",
      "type": "function"
    },
    {
      "inputs": [
        {
          "components": [
            {
              "internalType": "string",
              "name": "name",
              "type": "string"
            },
            {
              "internalType": "string",
              "name": "description",
              "type": "string"
            },
            {
              "internalType": "enum BlocTick.TicketType",
              "name": "ticket_type",
              "type": "uint8"
            },
            {
              "internalType": "uint256",
              "name": "quantity_available",
              "type": "uint256"
            },
            {
              "internalType": "uint256",
              "name": "price",
              "type": "uint256"
            }
          ],
          "internalType": "struct BlocTick.Ticket[]",
          "name": "tickets",
          "type": "tuple[]"
        },
        {
          "internalType": "address",
          "name": "caller",
          "type": "address"
        }
      ],
      "name": "storeTickets",
      "outputs": [],
      "stateMutability": "nonpayable",
      "type": "function"
    },
    {
      "inputs": [
        {
          "internalType": "bool",
          "name": "_saleIsActive",
          "type": "bool"
        }
      ],
      "name": "setSaleIsActive",
      "outputs": [],
      "stateMutability": "nonpayable",
      "type": "function"
    },
    {
      "inputs": [
        {
          "internalType": "address",
          "name": "caller",
          "type": "address"
        }
      ],
      "name": "ownerTokens",
      "outputs": [
        {
          "internalType": "uint256[]",
          "name": "",
          "type": "uint256[]"
        }
      ],
      "stateMutability": "view",
      "type": "function"
    }
  ],
  "bytecode": "0x60806040526001600c60146101000a81548160ff0219169083151502179055503480156200002c57600080fd5b5060405162004a1838038062004a188339818101604052810190620000529190620003c5565b828281600090805190602001906200006c92919062000113565b5080600190805190602001906200008592919062000113565b50505033600e60006101000a81548173ffffffffffffffffffffffffffffffffffffffff021916908373ffffffffffffffffffffffffffffffffffffffff16021790555080600c60006101000a81548173ffffffffffffffffffffffffffffffffffffffff021916908373ffffffffffffffffffffffffffffffffffffffff160217905550505050620004c3565b82805462000121906200048e565b90600052602060002090601f01602090048101928262000145576000855562000191565b82601f106200016057805160ff191683800117855562000191565b8280016001018555821562000191579182015b828111156200019057825182559160200191906001019062000173565b5b509050620001a09190620001a4565b5090565b5b80821115620001bf576000816000905550600101620001a5565b5090565b6000604051905090565b600080fd5b600080fd5b600080fd5b600080fd5b6000601f19601f8301169050919050565b7f4e487b7100000000000000000000000000000000000000000000000000000000600052604160045260246000fd5b6200022c82620001e1565b810181811067ffffffffffffffff821117156200024e576200024d620001f2565b5b80604052505050565b600062000263620001c3565b905062000271828262000221565b919050565b600067ffffffffffffffff821115620002945762000293620001f2565b5b6200029f82620001e1565b9050602081019050919050565b60005b83811015620002cc578082015181840152602081019050620002af565b83811115620002dc576000848401525b50505050565b6000620002f9620002f38462000276565b62000257565b905082815260208101848484011115620003185762000317620001dc565b5b62000325848285620002ac565b509392505050565b600082601f830112620003455762000344620001d7565b5b815162000357848260208601620002e2565b91505092915050565b600073ffffffffffffffffffffffffffffffffffffffff82169050919050565b60006200038d8262000360565b9050919050565b6200039f8162000380565b8114620003ab57600080fd5b50565b600081519050620003bf8162000394565b92915050565b600080600060608486031215620003e157620003e0620001cd565b5b600084015167ffffffffffffffff811115620004025762000401620001d2565b5b62000410868287016200032d565b935050602084015167ffffffffffffffff811115620004345762000433620001d2565b5b62000442868287016200032d565b92505060406200045586828701620003ae565b9150509250925092565b7f4e487b7100000000000000000000000000000000000000000000000000000000600052602260045260246000fd5b60006002820490506001821680620004a757607f821691505b602082108103620004bd57620004bc6200045f565b5b50919050565b61454580620004d36000396000f3fe60806040526004361061011f5760003560e01c80636352211e116100a0578063b88d4fde11610064578063b88d4fde146103d7578063bba7723e14610400578063c87b56dd1461043d578063e985e9c51461047a578063eb8d2444146104b75761011f565b80636352211e146102de57806370a082311461031b57806395d89b4114610358578063a22cb46514610383578063b2bdfa7b146103ac5761011f565b80630a967bc6116100e75780630a967bc61461021b57806323b872dd146102375780633d181c7e1461026057806342842e0e146102895780635a9b0b89146102b25761011f565b806301ffc9a71461012457806302c889891461016157806306fdde031461018a578063081812fc146101b5578063095ea7b3146101f2575b600080fd5b34801561013057600080fd5b5061014b60048036038101906101469190612611565b6104e2565b6040516101589190612659565b60405180910390f35b34801561016d57600080fd5b50610188600480360381019061018391906126a0565b6105c4565b005b34801561019657600080fd5b5061019f610673565b6040516101ac9190612766565b60405180910390f35b3480156101c157600080fd5b506101dc60048036038101906101d791906127be565b610705565b6040516101e9919061282c565b60405180910390f35b3480156101fe57600080fd5b5061021960048036038101906102149190612873565b61078a565b005b61023560048036038101906102309190612bb8565b6108a1565b005b34801561024357600080fd5b5061025e60048036038101906102599190612c14565b610c26565b005b34801561026c57600080fd5b5061028760048036038101906102829190612e31565b610c86565b005b34801561029557600080fd5b506102b060048036038101906102ab9190612c14565b610e18565b005b3480156102be57600080fd5b506102c7610e38565b6040516102d5929190613043565b60405180910390f35b3480156102ea57600080fd5b50610305600480360381019061030091906127be565b6110a9565b604051610312919061282c565b60405180910390f35b34801561032757600080fd5b50610342600480360381019061033d9190613073565b61115a565b60405161034f91906130a0565b60405180910390f35b34801561036457600080fd5b5061036d611211565b60405161037a9190612766565b60405180910390f35b34801561038f57600080fd5b506103aa60048036038101906103a591906130bb565b6112a3565b005b3480156103b857600080fd5b506103c16112b9565b6040516103ce919061282c565b60405180910390f35b3480156103e357600080fd5b506103fe60048036038101906103f9919061319c565b6112df565b005b34801561040c57600080fd5b5061042760048036038101906104229190613073565b611341565b60405161043491906132ce565b60405180910390f35b34801561044957600080fd5b50610464600480360381019061045f91906127be565b611446565b6040516104719190612766565b60405180910390f35b34801561048657600080fd5b506104a1600480360381019061049c91906132f0565b611597565b6040516104ae9190612659565b60405180910390f35b3480156104c357600080fd5b506104cc61162b565b6040516104d99190612659565b60405180910390f35b60007f80ac58cd000000000000000000000000000000000000000000000000000000007bffffffffffffffffffffffffffffffffffffffffffffffffffffffff1916827bffffffffffffffffffffffffffffffffffffffffffffffffffffffff191614806105ad57507f5b5e139f000000000000000000000000000000000000000000000000000000007bffffffffffffffffffffffffffffffffffffffffffffffffffffffff1916827bffffffffffffffffffffffffffffffffffffffffffffffffffffffff1916145b806105bd57506105bc8261163e565b5b9050919050565b33600c60009054906101000a900473ffffffffffffffffffffffffffffffffffffffff1673ffffffffffffffffffffffffffffffffffffffff168173ffffffffffffffffffffffffffffffffffffffff1614610655576040517f08c379a000000000000000000000000000000000000000000000000000000000815260040161064c9061337c565b60405180910390fd5b81600c60146101000a81548160ff0219169083151502179055505050565b606060008054610682906133cb565b80601f01602080910402602001604051908101604052809291908181526020018280546106ae906133cb565b80156106fb5780601f106106d0576101008083540402835291602001916106fb565b820191906000526020600020905b8154815290600101906020018083116106de57829003601f168201915b5050505050905090565b6000610710826116a8565b61074f576040517f08c379a00000000000000000000000000000000000000000000000000000000081526004016107469061346e565b60405180910390fd5b6004600083815260200190815260200160002060009054906101000a900473ffffffffffffffffffffffffffffffffffffffff169050919050565b6000610795826110a9565b90508073ffffffffffffffffffffffffffffffffffffffff168373ffffffffffffffffffffffffffffffffffffffff1603610805576040517f08c379a00000000000000000000000000000000000000000000000000000000081526004016107fc90613500565b60405180910390fd5b8073ffffffffffffffffffffffffffffffffffffffff16610824611714565b73ffffffffffffffffffffffffffffffffffffffff16148061085357506108528161084d611714565b611597565b5b610892576040517f08c379a000000000000000000000000000000000000000000000000000000000815260040161088990613592565b60405180910390fd5b61089c838361171c565b505050565b600e60009054906101000a900473ffffffffffffffffffffffffffffffffffffffff1673ffffffffffffffffffffffffffffffffffffffff163373ffffffffffffffffffffffffffffffffffffffff1614610931576040517f08c379a00000000000000000000000000000000000000000000000000000000081526004016109289061337c565b60405180910390fd5b600c60149054906101000a900460ff1661094a57600080fd5b600873__TicketManager_________________________6341023a1e9091846040518363ffffffff1660e01b8152600401610986929190613767565b602060405180830381865af41580156109a3573d6000803e3d6000fd5b505050506040513d601f19601f820116820180604052508101906109c791906137ac565b81346109d39190613808565b1015610a14576040517f08c379a0000000000000000000000000000000000000000000000000000000008152600401610a0b906138aa565b60405180910390fd5b60005b8251811015610b9f576000838281518110610a3557610a346138ca565b5b602002602001015190506000610a4b60076117d5565b9050610a5730826117e3565b610a6160076119bc565b610a6f8183604001516119d2565b610a7e30836060015183611a46565b60086001016040518060a0016040528084600001518152602001846060015173ffffffffffffffffffffffffffffffffffffffff16815260200183815260200184602001518152602001846080015181525090806001815401808255809150506001900390600052602060002090600502016000909190919091506000820151816000019080519060200190610b15929190612502565b5060208201518160010160006101000a81548173ffffffffffffffffffffffffffffffffffffffff021916908373ffffffffffffffffffffffffffffffffffffffff16021790555060408201518160020155606082015181600301556080820151816004019080519060200190610b8d929190612502565b50505082806001019350505050610a17565b50600c60009054906101000a900473ffffffffffffffffffffffffffffffffffffffff1673ffffffffffffffffffffffffffffffffffffffff166108fc349081150290604051600060405180830381858888f19350505050158015610c08573d6000803e3d6000fd5b5034600d6000828254610c1b9190613808565b925050819055505050565b610c37610c31611714565b82611cac565b610c76576040517f08c379a0000000000000000000000000000000000000000000000000000000008152600401610c6d9061396b565b60405180910390fd5b610c81838383611a46565b505050565b600e60009054906101000a900473ffffffffffffffffffffffffffffffffffffffff1673ffffffffffffffffffffffffffffffffffffffff163373ffffffffffffffffffffffffffffffffffffffff1614610d16576040517f08c379a0000000000000000000000000000000000000000000000000000000008152600401610d0d9061337c565b60405180910390fd5b80600c60009054906101000a900473ffffffffffffffffffffffffffffffffffffffff1673ffffffffffffffffffffffffffffffffffffffff168173ffffffffffffffffffffffffffffffffffffffff1614610da7576040517f08c379a0000000000000000000000000000000000000000000000000000000008152600401610d9e9061337c565b60405180910390fd5b600873__TicketManager_________________________63a2a93cbf9091856040518363ffffffff1660e01b8152600401610de3929190613b41565b60006040518083038186803b158015610dfb57600080fd5b505af4158015610e0f573d6000803e3d6000fd5b50505050505050565b610e33838383604051806020016040528060008152506112df565b505050565b60006060600d54600873__TicketManager_________________________63957f0c8c90916040518263ffffffff1660e01b8152600401610e799190613b71565b602060405180830381865af4158015610e96573d6000803e3d6000fd5b505050506040513d601f19601f82011682018060405250810190610eba9190613bc2565b80805480602002602001604051908101604052809291908181526020016000905b8282101561109b57838290600052602060002090600502016040518060a0016040529081600082018054610f0e906133cb565b80601f0160208091040260200160405190810160405280929190818152602001828054610f3a906133cb565b8015610f875780601f10610f5c57610100808354040283529160200191610f87565b820191906000526020600020905b815481529060010190602001808311610f6a57829003601f168201915b505050505081526020016001820160009054906101000a900473ffffffffffffffffffffffffffffffffffffffff1673ffffffffffffffffffffffffffffffffffffffff1673ffffffffffffffffffffffffffffffffffffffff168152602001600282015481526020016003820154815260200160048201805461100a906133cb565b80601f0160208091040260200160405190810160405280929190818152602001828054611036906133cb565b80156110835780601f1061105857610100808354040283529160200191611083565b820191906000526020600020905b81548152906001019060200180831161106657829003601f168201915b50505050508152505081526020019060010190610edb565b505050509050915091509091565b6000806002600084815260200190815260200160002060009054906101000a900473ffffffffffffffffffffffffffffffffffffffff169050600073ffffffffffffffffffffffffffffffffffffffff168173ffffffffffffffffffffffffffffffffffffffff1603611151576040517f08c379a000000000000000000000000000000000000000000000000000000000815260040161114890613c61565b60405180910390fd5b80915050919050565b60008073ffffffffffffffffffffffffffffffffffffffff168273ffffffffffffffffffffffffffffffffffffffff16036111ca576040517f08c379a00000000000000000000000000000000000000000000000000000000081526004016111c190613cf3565b60405180910390fd5b600360008373ffffffffffffffffffffffffffffffffffffffff1673ffffffffffffffffffffffffffffffffffffffff168152602001908152602001600020549050919050565b606060018054611220906133cb565b80601f016020809104026020016040519081016040528092919081815260200182805461124c906133cb565b80156112995780601f1061126e57610100808354040283529160200191611299565b820191906000526020600020905b81548152906001019060200180831161127c57829003601f168201915b5050505050905090565b6112b56112ae611714565b8383611d8a565b5050565b600c60009054906101000a900473ffffffffffffffffffffffffffffffffffffffff1681565b6112f06112ea611714565b83611cac565b61132f576040517f08c379a00000000000000000000000000000000000000000000000000000000081526004016113269061396b565b60405180910390fd5b61133b84848484611ef6565b50505050565b6060600061134e8361115a565b905060008167ffffffffffffffff81111561136c5761136b6128b8565b5b60405190808252806020026020018201604052801561139a5781602001602082028036833780820191505090505b509050600082036113af578092505050611441565b60005b8281101561143a57600a60000160008673ffffffffffffffffffffffffffffffffffffffff1673ffffffffffffffffffffffffffffffffffffffff168152602001908152602001600020600082815260200190815260200160002054828281518110611421576114206138ca565b5b60200260200101818152505080806001019150506113b2565b5080925050505b919050565b6060611451826116a8565b611490576040517f08c379a000000000000000000000000000000000000000000000000000000000815260040161148790613d85565b60405180910390fd5b60006006600084815260200190815260200160002080546114b0906133cb565b80601f01602080910402602001604051908101604052809291908181526020018280546114dc906133cb565b80156115295780601f106114fe57610100808354040283529160200191611529565b820191906000526020600020905b81548152906001019060200180831161150c57829003601f168201915b50505050509050600061153a611f52565b9050600081510361154f578192505050611592565b60008251111561158457808260405160200161156c929190613de1565b60405160208183030381529060405292505050611592565b61158d84611f69565b925050505b919050565b6000600560008473ffffffffffffffffffffffffffffffffffffffff1673ffffffffffffffffffffffffffffffffffffffff16815260200190815260200160002060008373ffffffffffffffffffffffffffffffffffffffff1673ffffffffffffffffffffffffffffffffffffffff16815260200190815260200160002060009054906101000a900460ff16905092915050565b600c60149054906101000a900460ff1681565b60007f01ffc9a7000000000000000000000000000000000000000000000000000000007bffffffffffffffffffffffffffffffffffffffffffffffffffffffff1916827bffffffffffffffffffffffffffffffffffffffffffffffffffffffff1916149050919050565b60008073ffffffffffffffffffffffffffffffffffffffff166002600084815260200190815260200160002060009054906101000a900473ffffffffffffffffffffffffffffffffffffffff1673ffffffffffffffffffffffffffffffffffffffff1614159050919050565b600033905090565b816004600083815260200190815260200160002060006101000a81548173ffffffffffffffffffffffffffffffffffffffff021916908373ffffffffffffffffffffffffffffffffffffffff160217905550808273ffffffffffffffffffffffffffffffffffffffff1661178f836110a9565b73ffffffffffffffffffffffffffffffffffffffff167f8c5be1e5ebec7d5bd14f71427d1e84f3dd0314c0f7b2291e5b200ac8c7c3b92560405160405180910390a45050565b600081600001549050919050565b600073ffffffffffffffffffffffffffffffffffffffff168273ffffffffffffffffffffffffffffffffffffffff1603611852576040517f08c379a000000000000000000000000000000000000000000000000000000000815260040161184990613e51565b60405180910390fd5b61185b816116a8565b1561189b576040517f08c379a000000000000000000000000000000000000000000000000000000000815260040161189290613ebd565b60405180910390fd5b6118a760008383612010565b6001600360008473ffffffffffffffffffffffffffffffffffffffff1673ffffffffffffffffffffffffffffffffffffffff16815260200190815260200160002060008282546118f79190613808565b92505081905550816002600083815260200190815260200160002060006101000a81548173ffffffffffffffffffffffffffffffffffffffff021916908373ffffffffffffffffffffffffffffffffffffffff160217905550808273ffffffffffffffffffffffffffffffffffffffff16600073ffffffffffffffffffffffffffffffffffffffff167fddf252ad1be2c89b69c2b068fc378daa952ba7f163c4a11628f55a4df523b3ef60405160405180910390a46119b8600083836121ee565b5050565b6001816000016000828254019250508190555050565b6119db826116a8565b611a1a576040517f08c379a0000000000000000000000000000000000000000000000000000000008152600401611a1190613f4f565b60405180910390fd5b80600660008481526020019081526020016000209080519060200190611a41929190612502565b505050565b8273ffffffffffffffffffffffffffffffffffffffff16611a66826110a9565b73ffffffffffffffffffffffffffffffffffffffff1614611abc576040517f08c379a0000000000000000000000000000000000000000000000000000000008152600401611ab390613fe1565b60405180910390fd5b600073ffffffffffffffffffffffffffffffffffffffff168273ffffffffffffffffffffffffffffffffffffffff1603611b2b576040517f08c379a0000000000000000000000000000000000000000000000000000000008152600401611b2290614073565b60405180910390fd5b611b36838383612010565b611b4160008261171c565b6001600360008573ffffffffffffffffffffffffffffffffffffffff1673ffffffffffffffffffffffffffffffffffffffff1681526020019081526020016000206000828254611b919190614093565b925050819055506001600360008473ffffffffffffffffffffffffffffffffffffffff1673ffffffffffffffffffffffffffffffffffffffff1681526020019081526020016000206000828254611be89190613808565b92505081905550816002600083815260200190815260200160002060006101000a81548173ffffffffffffffffffffffffffffffffffffffff021916908373ffffffffffffffffffffffffffffffffffffffff160217905550808273ffffffffffffffffffffffffffffffffffffffff168473ffffffffffffffffffffffffffffffffffffffff167fddf252ad1be2c89b69c2b068fc378daa952ba7f163c4a11628f55a4df523b3ef60405160405180910390a4611ca78383836121ee565b505050565b6000611cb7826116a8565b611cf6576040517f08c379a0000000000000000000000000000000000000000000000000000000008152600401611ced90614139565b60405180910390fd5b6000611d01836110a9565b90508073ffffffffffffffffffffffffffffffffffffffff168473ffffffffffffffffffffffffffffffffffffffff161480611d435750611d428185611597565b5b80611d8157508373ffffffffffffffffffffffffffffffffffffffff16611d6984610705565b73ffffffffffffffffffffffffffffffffffffffff16145b91505092915050565b8173ffffffffffffffffffffffffffffffffffffffff168373ffffffffffffffffffffffffffffffffffffffff1603611df8576040517f08c379a0000000000000000000000000000000000000000000000000000000008152600401611def906141a5565b60405180910390fd5b80600560008573ffffffffffffffffffffffffffffffffffffffff1673ffffffffffffffffffffffffffffffffffffffff16815260200190815260200160002060008473ffffffffffffffffffffffffffffffffffffffff1673ffffffffffffffffffffffffffffffffffffffff16815260200190815260200160002060006101000a81548160ff0219169083151502179055508173ffffffffffffffffffffffffffffffffffffffff168373ffffffffffffffffffffffffffffffffffffffff167f17307eab39ab6107e8899845ad3d59bd9653f200f220920489ca2b5937696c3183604051611ee99190612659565b60405180910390a3505050565b611f01848484611a46565b611f0d848484846121f3565b611f4c576040517f08c379a0000000000000000000000000000000000000000000000000000000008152600401611f4390614237565b60405180910390fd5b50505050565b606060405180602001604052806000815250905090565b6060611f74826116a8565b611fb3576040517f08c379a0000000000000000000000000000000000000000000000000000000008152600401611faa906142c9565b60405180910390fd5b6000611fbd611f52565b90506000815111611fdd5760405180602001604052806000815250612008565b80611fe78461237a565b604051602001611ff8929190613de1565b6040516020818303038152906040525b915050919050565b61201b8383836124da565b8173ffffffffffffffffffffffffffffffffffffffff168373ffffffffffffffffffffffffffffffffffffffff16141580156120845750600073ffffffffffffffffffffffffffffffffffffffff168373ffffffffffffffffffffffffffffffffffffffff1614155b1561210257600a73__Enumerable____________________________630c7a534b909185846120b28861115a565b6040518563ffffffff1660e01b81526004016120d1949392919061430e565b60006040518083038186803b1580156120e957600080fd5b505af41580156120fd573d6000803e3d6000fd5b505050505b8273ffffffffffffffffffffffffffffffffffffffff168273ffffffffffffffffffffffffffffffffffffffff161415801561216b5750600073ffffffffffffffffffffffffffffffffffffffff168273ffffffffffffffffffffffffffffffffffffffff1614155b156121e957600a73__Enumerable____________________________6353f1b6a5909184846121998761115a565b6040518563ffffffff1660e01b81526004016121b8949392919061430e565b60006040518083038186803b1580156121d057600080fd5b505af41580156121e4573d6000803e3d6000fd5b505050505b505050565b505050565b60006122148473ffffffffffffffffffffffffffffffffffffffff166124df565b1561236d578373ffffffffffffffffffffffffffffffffffffffff1663150b7a0261223d611714565b8786866040518563ffffffff1660e01b815260040161225f94939291906143a8565b6020604051808303816000875af192505050801561229b57506040513d601f19601f820116820180604052508101906122989190614409565b60015b61231d573d80600081146122cb576040519150601f19603f3d011682016040523d82523d6000602084013e6122d0565b606091505b506000815103612315576040517f08c379a000000000000000000000000000000000000000000000000000000000815260040161230c90614237565b60405180910390fd5b805181602001fd5b63150b7a0260e01b7bffffffffffffffffffffffffffffffffffffffffffffffffffffffff1916817bffffffffffffffffffffffffffffffffffffffffffffffffffffffff191614915050612372565b600190505b949350505050565b6060600082036123c1576040518060400160405280600181526020017f300000000000000000000000000000000000000000000000000000000000000081525090506124d5565b600082905060005b600082146123f35780806123dc90614436565b915050600a826123ec91906144ad565b91506123c9565b60008167ffffffffffffffff81111561240f5761240e6128b8565b5b6040519080825280601f01601f1916602001820160405280156124415781602001600182028036833780820191505090505b5090505b600085146124ce5760018261245a9190614093565b9150600a8561246991906144de565b60306124759190613808565b60f81b81838151811061248b5761248a6138ca565b5b60200101907effffffffffffffffffffffffffffffffffffffffffffffffffffffffffffff1916908160001a905350600a856124c791906144ad565b9450612445565b8093505050505b919050565b505050565b6000808273ffffffffffffffffffffffffffffffffffffffff163b119050919050565b82805461250e906133cb565b90600052602060002090601f0160209004810192826125305760008555612577565b82601f1061254957805160ff1916838001178555612577565b82800160010185558215612577579182015b8281111561257657825182559160200191906001019061255b565b5b5090506125849190612588565b5090565b5b808211156125a1576000816000905550600101612589565b5090565b6000604051905090565b600080fd5b600080fd5b60007fffffffff0000000000000000000000000000000000000000000000000000000082169050919050565b6125ee816125b9565b81146125f957600080fd5b50565b60008135905061260b816125e5565b92915050565b600060208284031215612627576126266125af565b5b6000612635848285016125fc565b91505092915050565b60008115159050919050565b6126538161263e565b82525050565b600060208201905061266e600083018461264a565b92915050565b61267d8161263e565b811461268857600080fd5b50565b60008135905061269a81612674565b92915050565b6000602082840312156126b6576126b56125af565b5b60006126c48482850161268b565b91505092915050565b600081519050919050565b600082825260208201905092915050565b60005b838110156127075780820151818401526020810190506126ec565b83811115612716576000848401525b50505050565b6000601f19601f8301169050919050565b6000612738826126cd565b61274281856126d8565b93506127528185602086016126e9565b61275b8161271c565b840191505092915050565b60006020820190508181036000830152612780818461272d565b905092915050565b6000819050919050565b61279b81612788565b81146127a657600080fd5b50565b6000813590506127b881612792565b92915050565b6000602082840312156127d4576127d36125af565b5b60006127e2848285016127a9565b91505092915050565b600073ffffffffffffffffffffffffffffffffffffffff82169050919050565b6000612816826127eb565b9050919050565b6128268161280b565b82525050565b6000602082019050612841600083018461281d565b92915050565b6128508161280b565b811461285b57600080fd5b50565b60008135905061286d81612847565b92915050565b6000806040838503121561288a576128896125af565b5b60006128988582860161285e565b92505060206128a9858286016127a9565b9150509250929050565b600080fd5b7f4e487b7100000000000000000000000000000000000000000000000000000000600052604160045260246000fd5b6128f08261271c565b810181811067ffffffffffffffff8211171561290f5761290e6128b8565b5b80604052505050565b60006129226125a5565b905061292e82826128e7565b919050565b600067ffffffffffffffff82111561294e5761294d6128b8565b5b602082029050602081019050919050565b600080fd5b600080fd5b600080fd5b600080fd5b600067ffffffffffffffff82111561298e5761298d6128b8565b5b6129978261271c565b9050602081019050919050565b82818337600083830152505050565b60006129c66129c184612973565b612918565b9050828152602081018484840111156129e2576129e161296e565b5b6129ed8482856129a4565b509392505050565b600082601f830112612a0a57612a096128b3565b5b8135612a1a8482602086016129b3565b91505092915050565b600060a08284031215612a3957612a38612964565b5b612a4360a0612918565b9050600082013567ffffffffffffffff811115612a6357612a62612969565b5b612a6f848285016129f5565b6000830152506020612a83848285016127a9565b602083015250604082013567ffffffffffffffff811115612aa757612aa6612969565b5b612ab3848285016129f5565b6040830152506060612ac78482850161285e565b606083015250608082013567ffffffffffffffff811115612aeb57612aea612969565b5b612af7848285016129f5565b60808301525092915050565b6000612b16612b1184612933565b612918565b90508083825260208201905060208402830185811115612b3957612b3861295f565b5b835b81811015612b8057803567ffffffffffffffff811115612b5e57612b5d6128b3565b5b808601612b6b8982612a23565b85526020850194505050602081019050612b3b565b5050509392505050565b600082601f830112612b9f57612b9e6128b3565b5b8135612baf848260208601612b03565b91505092915050565b60008060408385031215612bcf57612bce6125af565b5b600083013567ffffffffffffffff811115612bed57612bec6125b4565b5b612bf985828601612b8a565b9250506020612c0a858286016127a9565b9150509250929050565b600080600060608486031215612c2d57612c2c6125af565b5b6000612c3b8682870161285e565b9350506020612c4c8682870161285e565b9250506040612c5d868287016127a9565b9150509250925092565b600067ffffffffffffffff821115612c8257612c816128b8565b5b602082029050602081019050919050565b60038110612ca057600080fd5b50565b600081359050612cb281612c93565b92915050565b600060a08284031215612cce57612ccd612964565b5b612cd860a0612918565b9050600082013567ffffffffffffffff811115612cf857612cf7612969565b5b612d04848285016129f5565b600083015250602082013567ffffffffffffffff811115612d2857612d27612969565b5b612d34848285016129f5565b6020830152506040612d4884828501612ca3565b6040830152506060612d5c848285016127a9565b6060830152506080612d70848285016127a9565b60808301525092915050565b6000612d8f612d8a84612c67565b612918565b90508083825260208201905060208402830185811115612db257612db161295f565b5b835b81811015612df957803567ffffffffffffffff811115612dd757612dd66128b3565b5b808601612de48982612cb8565b85526020850194505050602081019050612db4565b5050509392505050565b600082601f830112612e1857612e176128b3565b5b8135612e28848260208601612d7c565b91505092915050565b60008060408385031215612e4857612e476125af565b5b600083013567ffffffffffffffff811115612e6657612e656125b4565b5b612e7285828601612e03565b9250506020612e838582860161285e565b9150509250929050565b612e9681612788565b82525050565b600081519050919050565b600082825260208201905092915050565b6000819050602082019050919050565b600082825260208201905092915050565b6000612ee4826126cd565b612eee8185612ec8565b9350612efe8185602086016126e9565b612f078161271c565b840191505092915050565b612f1b8161280b565b82525050565b612f2a81612788565b82525050565b600060a0830160008301518482036000860152612f4d8282612ed9565b9150506020830151612f626020860182612f12565b506040830151612f756040860182612f21565b506060830151612f886060860182612f21565b5060808301518482036080860152612fa08282612ed9565b9150508091505092915050565b6000612fb98383612f30565b905092915050565b6000602082019050919050565b6000612fd982612e9c565b612fe38185612ea7565b935083602082028501612ff585612eb8565b8060005b8581101561303157848403895281516130128582612fad565b945061301d83612fc1565b925060208a01995050600181019050612ff9565b50829750879550505050505092915050565b60006040820190506130586000830185612e8d565b818103602083015261306a8184612fce565b90509392505050565b600060208284031215613089576130886125af565b5b60006130978482850161285e565b91505092915050565b60006020820190506130b56000830184612e8d565b92915050565b600080604083850312156130d2576130d16125af565b5b60006130e08582860161285e565b92505060206130f18582860161268b565b9150509250929050565b600067ffffffffffffffff821115613116576131156128b8565b5b61311f8261271c565b9050602081019050919050565b600061313f61313a846130fb565b612918565b90508281526020810184848401111561315b5761315a61296e565b5b6131668482856129a4565b509392505050565b600082601f830112613183576131826128b3565b5b813561319384826020860161312c565b91505092915050565b600080600080608085870312156131b6576131b56125af565b5b60006131c48782880161285e565b94505060206131d58782880161285e565b93505060406131e6878288016127a9565b925050606085013567ffffffffffffffff811115613207576132066125b4565b5b6132138782880161316e565b91505092959194509250565b600081519050919050565b600082825260208201905092915050565b6000819050602082019050919050565b60006132578383612f21565b60208301905092915050565b6000602082019050919050565b600061327b8261321f565b613285818561322a565b93506132908361323b565b8060005b838110156132c15781516132a8888261324b565b97506132b383613263565b925050600181019050613294565b5085935050505092915050565b600060208201905081810360008301526132e88184613270565b905092915050565b60008060408385031215613307576133066125af565b5b60006133158582860161285e565b92505060206133268582860161285e565b9150509250929050565b7f4163636573732064656e69656400000000000000000000000000000000000000600082015250565b6000613366600d836126d8565b915061337182613330565b602082019050919050565b6000602082019050818103600083015261339581613359565b9050919050565b7f4e487b7100000000000000000000000000000000000000000000000000000000600052602260045260246000fd5b600060028204905060018216806133e357607f821691505b6020821081036133f6576133f561339c565b5b50919050565b7f4552433732313a20617070726f76656420717565727920666f72206e6f6e657860008201527f697374656e7420746f6b656e0000000000000000000000000000000000000000602082015250565b6000613458602c836126d8565b9150613463826133fc565b604082019050919050565b600060208201905081810360008301526134878161344b565b9050919050565b7f4552433732313a20617070726f76616c20746f2063757272656e74206f776e6560008201527f7200000000000000000000000000000000000000000000000000000000000000602082015250565b60006134ea6021836126d8565b91506134f58261348e565b604082019050919050565b60006020820190508181036000830152613519816134dd565b9050919050565b7f4552433732313a20617070726f76652063616c6c6572206973206e6f74206f7760008201527f6e6572206e6f7220617070726f76656420666f7220616c6c0000000000000000602082015250565b600061357c6038836126d8565b915061358782613520565b604082019050919050565b600060208201905081810360008301526135ab8161356f565b9050919050565b8082525050565b600081519050919050565b600082825260208201905092915050565b6000819050602082019050919050565b600082825260208201905092915050565b6000613601826126cd565b61360b81856135e5565b935061361b8185602086016126e9565b6136248161271c565b840191505092915050565b61363881612788565b82525050565b6136478161280b565b82525050565b600060a083016000830151848203600086015261366a82826135f6565b915050602083015161367f602086018261362f565b506040830151848203604086015261369782826135f6565b91505060608301516136ac606086018261363e565b50608083015184820360808601526136c482826135f6565b9150508091505092915050565b60006136dd838361364d565b905092915050565b6000602082019050919050565b60006136fd826135b9565b61370781856135c4565b935083602082028501613719856135d5565b8060005b85811015613755578484038952815161373685826136d1565b9450613741836136e5565b925060208a0199505060018101905061371d565b50829750879550505050505092915050565b600060408201905061377c60008301856135b2565b818103602083015261378e81846136f2565b90509392505050565b6000815190506137a681612792565b92915050565b6000602082840312156137c2576137c16125af565b5b60006137d084828501613797565b91505092915050565b7f4e487b7100000000000000000000000000000000000000000000000000000000600052601160045260246000fd5b600061381382612788565b915061381e83612788565b9250827fffffffffffffffffffffffffffffffffffffffffffffffffffffffffffffffff03821115613853576138526137d9565b5b828201905092915050565b7f4c65737300000000000000000000000000000000000000000000000000000000600082015250565b60006138946004836126d8565b915061389f8261385e565b602082019050919050565b600060208201905081810360008301526138c381613887565b9050919050565b7f4e487b7100000000000000000000000000000000000000000000000000000000600052603260045260246000fd5b7f4552433732313a207472616e736665722063616c6c6572206973206e6f74206f60008201527f776e6572206e6f7220617070726f766564000000000000000000000000000000602082015250565b60006139556031836126d8565b9150613960826138f9565b604082019050919050565b6000602082019050818103600083015261398481613948565b9050919050565b600081519050919050565b600082825260208201905092915050565b6000819050602082019050919050565b7f4e487b7100000000000000000000000000000000000000000000000000000000600052602160045260246000fd5b600381106139f7576139f66139b7565b5b50565b6000819050613a08826139e6565b919050565b6000613a18826139fa565b9050919050565b613a2881613a0d565b82525050565b600060a0830160008301518482036000860152613a4b82826135f6565b91505060208301518482036020860152613a6582826135f6565b9150506040830151613a7a6040860182613a1f565b506060830151613a8d606086018261362f565b506080830151613aa0608086018261362f565b508091505092915050565b6000613ab78383613a2e565b905092915050565b6000602082019050919050565b6000613ad78261398b565b613ae18185613996565b935083602082028501613af3856139a7565b8060005b85811015613b2f5784840389528151613b108582613aab565b9450613b1b83613abf565b925060208a01995050600181019050613af7565b50829750879550505050505092915050565b6000604082019050613b5660008301856135b2565b8181036020830152613b688184613acc565b90509392505050565b6000602082019050613b8660008301846135b2565b92915050565b6000819050919050565b613b9f81613b8c565b8114613baa57600080fd5b50565b600081519050613bbc81613b96565b92915050565b600060208284031215613bd857613bd76125af565b5b6000613be684828501613bad565b91505092915050565b7f4552433732313a206f776e657220717565727920666f72206e6f6e657869737460008201527f656e7420746f6b656e0000000000000000000000000000000000000000000000602082015250565b6000613c4b6029836126d8565b9150613c5682613bef565b604082019050919050565b60006020820190508181036000830152613c7a81613c3e565b9050919050565b7f4552433732313a2062616c616e636520717565727920666f7220746865207a6560008201527f726f206164647265737300000000000000000000000000000000000000000000602082015250565b6000613cdd602a836126d8565b9150613ce882613c81565b604082019050919050565b60006020820190508181036000830152613d0c81613cd0565b9050919050565b7f45524337323155524953746f726167653a2055524920717565727920666f722060008201527f6e6f6e6578697374656e7420746f6b656e000000000000000000000000000000602082015250565b6000613d6f6031836126d8565b9150613d7a82613d13565b604082019050919050565b60006020820190508181036000830152613d9e81613d62565b9050919050565b600081905092915050565b6000613dbb826126cd565b613dc58185613da5565b9350613dd58185602086016126e9565b80840191505092915050565b6000613ded8285613db0565b9150613df98284613db0565b91508190509392505050565b7f4552433732313a206d696e7420746f20746865207a65726f2061646472657373600082015250565b6000613e3b6020836126d8565b9150613e4682613e05565b602082019050919050565b60006020820190508181036000830152613e6a81613e2e565b9050919050565b7f4552433732313a20746f6b656e20616c7265616479206d696e74656400000000600082015250565b6000613ea7601c836126d8565b9150613eb282613e71565b602082019050919050565b60006020820190508181036000830152613ed681613e9a565b9050919050565b7f45524337323155524953746f726167653a2055524920736574206f66206e6f6e60008201527f6578697374656e7420746f6b656e000000000000000000000000000000000000602082015250565b6000613f39602e836126d8565b9150613f4482613edd565b604082019050919050565b60006020820190508181036000830152613f6881613f2c565b9050919050565b7f4552433732313a207472616e736665722066726f6d20696e636f72726563742060008201527f6f776e6572000000000000000000000000000000000000000000000000000000602082015250565b6000613fcb6025836126d8565b9150613fd682613f6f565b604082019050919050565b60006020820190508181036000830152613ffa81613fbe565b9050919050565b7f4552433732313a207472616e7366657220746f20746865207a65726f2061646460008201527f7265737300000000000000000000000000000000000000000000000000000000602082015250565b600061405d6024836126d8565b915061406882614001565b604082019050919050565b6000602082019050818103600083015261408c81614050565b9050919050565b600061409e82612788565b91506140a983612788565b9250828210156140bc576140bb6137d9565b5b828203905092915050565b7f4552433732313a206f70657261746f7220717565727920666f72206e6f6e657860008201527f697374656e7420746f6b656e0000000000000000000000000000000000000000602082015250565b6000614123602c836126d8565b915061412e826140c7565b604082019050919050565b6000602082019050818103600083015261415281614116565b9050919050565b7f4552433732313a20617070726f766520746f2063616c6c657200000000000000600082015250565b600061418f6019836126d8565b915061419a82614159565b602082019050919050565b600060208201905081810360008301526141be81614182565b9050919050565b7f4552433732313a207472616e7366657220746f206e6f6e20455243373231526560008201527f63656976657220696d706c656d656e7465720000000000000000000000000000602082015250565b60006142216032836126d8565b915061422c826141c5565b604082019050919050565b6000602082019050818103600083015261425081614214565b9050919050565b7f4552433732314d657461646174613a2055524920717565727920666f72206e6f60008201527f6e6578697374656e7420746f6b656e0000000000000000000000000000000000602082015250565b60006142b3602f836126d8565b91506142be82614257565b604082019050919050565b600060208201905081810360008301526142e2816142a6565b9050919050565b8082525050565b6142f98161280b565b82525050565b61430881612788565b82525050565b600060808201905061432360008301876142e9565b61433060208301866142f0565b61433d60408301856142ff565b61434a60608301846142ff565b95945050505050565b600081519050919050565b600082825260208201905092915050565b600061437a82614353565b614384818561435e565b93506143948185602086016126e9565b61439d8161271c565b840191505092915050565b60006080820190506143bd600083018761281d565b6143ca602083018661281d565b6143d76040830185612e8d565b81810360608301526143e9818461436f565b905095945050505050565b600081519050614403816125e5565b92915050565b60006020828403121561441f5761441e6125af565b5b600061442d848285016143f4565b91505092915050565b600061444182612788565b91507fffffffffffffffffffffffffffffffffffffffffffffffffffffffffffffffff8203614473576144726137d9565b5b600182019050919050565b7f4e487b7100000000000000000000000000000000000000000000000000000000600052601260045260246000fd5b60006144b882612788565b91506144c383612788565b9250826144d3576144d261447e565b5b828204905092915050565b60006144e982612788565b91506144f483612788565b9250826145045761450361447e565b5b82820690509291505056fea2646970667358221220849efff147b6c2fee64086fca99bab9e7a716f9138ceb1b82d7b592a242fa05a64736f6c634300080d0033",
  "immutableReferences": {},
  "source": "// SPDX-License-Identifier: GPL-3.0\npragma solidity >=0.6.0 <0.9.0;\n\nimport \"@openzeppelin/contracts/token/ERC721/ERC721.sol\";\nimport \"@openzeppelin/contracts/token/ERC721/extensions/ERC721URIStorage.sol\";\nimport \"@openzeppelin/contracts/utils/Counters.sol\";\nimport \"./TicketManager.sol\";\nimport \"./BlocTick.sol\";\nimport \"./Enumerable.sol\";\n\ncontract Event is ERC721URIStorage {\n    using Counters for Counters.Counter;\n    using TicketManager for TicketManager.Manager;\n    using Enumerable for Enumerable.Enumerator;\n    Counters.Counter private tokenCounter;\n    TicketManager.Manager private ticketManager;\n    Enumerable.Enumerator private enumerator;\n\n    address public _owner;\n    bool public saleIsActive = true;\n    uint256 private totalSold;\n    address private _factory;\n\n    modifier onlyFactory() {\n        require(msg.sender == _factory, \"Access denied\");\n        _;\n    }\n\n    modifier onlyEventCreator(address caller) {\n        require(caller == _owner, \"Access denied\");\n        _;\n    }\n\n    constructor(\n        string memory name,\n        string memory symbol,\n        address __owner\n    ) ERC721(name, symbol) {\n        _factory = msg.sender;\n        _owner = __owner;\n    }\n\n    function purchaseTickets(\n        BlocTick.TicketPurchase[] memory purchases,\n        uint256 platform_fee\n    ) external payable onlyFactory {\n        require(saleIsActive);\n        require(\n            msg.value + platform_fee >= ticketManager.getTotalCost(purchases),\n            \"Less\"\n        );\n        for (uint256 i = 0; i < purchases.length; ) {\n            BlocTick.TicketPurchase memory purchase = purchases[i];\n            uint256 _tokenId = tokenCounter.current();\n            _mint(address(this), _tokenId);\n            tokenCounter.increment();\n            _setTokenURI(_tokenId, purchase.tokenURI);\n            _transfer(address(this), purchase.buyer, _tokenId); //nft to user\n            ticketManager._sales.push(\n                BlocTick.SuccessfulPurchase(\n                    purchase.purchaseId,\n                    purchase.buyer,\n                    _tokenId,\n                    purchase.ticketId,\n                    purchase.cost\n                )\n            );\n            unchecked {\n                i++;\n            }\n        }\n        payable(_owner).transfer(msg.value);\n        totalSold += msg.value;\n    }\n\n    function _beforeTokenTransfer(\n        address from,\n        address to,\n        uint256 tokenId\n    ) internal virtual override {\n        super._beforeTokenTransfer(from, to, tokenId);\n\n        if (from != to && from != address(0)) {\n            enumerator._removeTokenFromOwnerEnumeration(\n                from,\n                tokenId,\n                balanceOf(from)\n            );\n        }\n        if (to != from && to != address(0)) {\n            enumerator._addTokenToOwnerEnumeration(to, tokenId, balanceOf(to));\n        }\n    }\n\n    function getInfo()\n        external\n        view\n        returns (uint256, BlocTick.SuccessfulPurchase[] memory)\n    {\n        return (totalSold, ticketManager.getSales());\n    }\n\n    function storeTickets(BlocTick.Ticket[] memory tickets, address caller)\n        external\n        onlyFactory\n        onlyEventCreator(caller)\n    {\n        ticketManager._storeTickets(tickets);\n    }\n\n    function setSaleIsActive(bool _saleIsActive)\n        external\n        onlyEventCreator(msg.sender)\n    {\n        saleIsActive = _saleIsActive;\n    }\n\n    function ownerTokens(address caller)\n        external\n        view\n        returns (uint256[] memory)\n    {\n        uint256 callerBalance = balanceOf(caller);\n        uint256[] memory result = new uint256[](callerBalance);\n        if (callerBalance == 0) {\n            return result;\n        }\n        for (uint256 i = 0; i < callerBalance; ) {\n            result[i] = enumerator._ownedTokens[caller][i];\n            unchecked {\n                i++;\n            }\n        }\n        return result;\n    }\n}\n",
  "sourcePath": "/workspace/blocticks-contracts/backend/contracts/Event.sol",
  "compiler": {
    "name": "solc",
    "version": "0.8.13+commit.abaa5c0e.Emscripten.clang"
  },
  "schemaVersion": "3.4.7",
  "updatedAt": "2022-05-04T10:23:34.324Z",
  "devdoc": {
    "kind": "dev",
    "methods": {
      "approve(address,uint256)": {
        "details": "See {IERC721-approve}."
      },
      "balanceOf(address)": {
        "details": "See {IERC721-balanceOf}."
      },
      "getApproved(uint256)": {
        "details": "See {IERC721-getApproved}."
      },
      "isApprovedForAll(address,address)": {
        "details": "See {IERC721-isApprovedForAll}."
      },
      "name()": {
        "details": "See {IERC721Metadata-name}."
      },
      "ownerOf(uint256)": {
        "details": "See {IERC721-ownerOf}."
      },
      "safeTransferFrom(address,address,uint256)": {
        "details": "See {IERC721-safeTransferFrom}."
      },
      "safeTransferFrom(address,address,uint256,bytes)": {
        "details": "See {IERC721-safeTransferFrom}."
      },
      "setApprovalForAll(address,bool)": {
        "details": "See {IERC721-setApprovalForAll}."
      },
      "supportsInterface(bytes4)": {
        "details": "See {IERC165-supportsInterface}."
      },
      "symbol()": {
        "details": "See {IERC721Metadata-symbol}."
      },
      "tokenURI(uint256)": {
        "details": "See {IERC721Metadata-tokenURI}."
      },
      "transferFrom(address,address,uint256)": {
        "details": "See {IERC721-transferFrom}."
      }
    },
    "version": 1
  },
  "userdoc": {
    "kind": "user",
    "methods": {},
    "version": 1
  }
}