{
  "contractName": "Event",
  "abi": [
    {
      "inputs": [
        {
          "internalType": "string",
          "name": "name",
          "type": "string"
        },
        {
          "internalType": "string",
          "name": "symbol",
          "type": "string"
        },
        {
          "internalType": "address",
          "name": "__owner",
          "type": "address"
        }
      ],
      "stateMutability": "nonpayable",
      "type": "constructor"
    },
    {
      "anonymous": false,
      "inputs": [
        {
          "indexed": true,
          "internalType": "address",
          "name": "owner",
          "type": "address"
        },
        {
          "indexed": true,
          "internalType": "address",
          "name": "approved",
          "type": "address"
        },
        {
          "indexed": true,
          "internalType": "uint256",
          "name": "tokenId",
          "type": "uint256"
        }
      ],
      "name": "Approval",
      "type": "event"
    },
    {
      "anonymous": false,
      "inputs": [
        {
          "indexed": true,
          "internalType": "address",
          "name": "owner",
          "type": "address"
        },
        {
          "indexed": true,
          "internalType": "address",
          "name": "operator",
          "type": "address"
        },
        {
          "indexed": false,
          "internalType": "bool",
          "name": "approved",
          "type": "bool"
        }
      ],
      "name": "ApprovalForAll",
      "type": "event"
    },
    {
      "anonymous": false,
      "inputs": [
        {
          "indexed": true,
          "internalType": "address",
          "name": "from",
          "type": "address"
        },
        {
          "indexed": true,
          "internalType": "address",
          "name": "to",
          "type": "address"
        },
        {
          "indexed": true,
          "internalType": "uint256",
          "name": "tokenId",
          "type": "uint256"
        }
      ],
      "name": "Transfer",
      "type": "event"
    },
    {
      "inputs": [],
      "name": "_owner",
      "outputs": [
        {
          "internalType": "address",
          "name": "",
          "type": "address"
        }
      ],
      "stateMutability": "view",
      "type": "function"
    },
    {
      "inputs": [
        {
          "internalType": "address",
          "name": "to",
          "type": "address"
        },
        {
          "internalType": "uint256",
          "name": "tokenId",
          "type": "uint256"
        }
      ],
      "name": "approve",
      "outputs": [],
      "stateMutability": "nonpayable",
      "type": "function"
    },
    {
      "inputs": [
        {
          "internalType": "address",
          "name": "owner",
          "type": "address"
        }
      ],
      "name": "balanceOf",
      "outputs": [
        {
          "internalType": "uint256",
          "name": "",
          "type": "uint256"
        }
      ],
      "stateMutability": "view",
      "type": "function"
    },
    {
      "inputs": [
        {
          "internalType": "uint256",
          "name": "tokenId",
          "type": "uint256"
        }
      ],
      "name": "getApproved",
      "outputs": [
        {
          "internalType": "address",
          "name": "",
          "type": "address"
        }
      ],
      "stateMutability": "view",
      "type": "function"
    },
    {
      "inputs": [
        {
          "internalType": "address",
          "name": "owner",
          "type": "address"
        },
        {
          "internalType": "address",
          "name": "operator",
          "type": "address"
        }
      ],
      "name": "isApprovedForAll",
      "outputs": [
        {
          "internalType": "bool",
          "name": "",
          "type": "bool"
        }
      ],
      "stateMutability": "view",
      "type": "function"
    },
    {
      "inputs": [],
      "name": "name",
      "outputs": [
        {
          "internalType": "string",
          "name": "",
          "type": "string"
        }
      ],
      "stateMutability": "view",
      "type": "function"
    },
    {
      "inputs": [
        {
          "internalType": "address",
          "name": "",
          "type": "address"
        },
        {
          "internalType": "address",
          "name": "",
          "type": "address"
        },
        {
          "internalType": "uint256",
          "name": "",
          "type": "uint256"
        },
        {
          "internalType": "bytes",
          "name": "",
          "type": "bytes"
        }
      ],
      "name": "onERC721Received",
      "outputs": [
        {
          "internalType": "bytes4",
          "name": "",
          "type": "bytes4"
        }
      ],
      "stateMutability": "nonpayable",
      "type": "function"
    },
    {
      "inputs": [
        {
          "internalType": "uint256",
          "name": "tokenId",
          "type": "uint256"
        }
      ],
      "name": "ownerOf",
      "outputs": [
        {
          "internalType": "address",
          "name": "",
          "type": "address"
        }
      ],
      "stateMutability": "view",
      "type": "function"
    },
    {
      "inputs": [
        {
          "internalType": "address",
          "name": "from",
          "type": "address"
        },
        {
          "internalType": "address",
          "name": "to",
          "type": "address"
        },
        {
          "internalType": "uint256",
          "name": "tokenId",
          "type": "uint256"
        }
      ],
      "name": "safeTransferFrom",
      "outputs": [],
      "stateMutability": "nonpayable",
      "type": "function"
    },
    {
      "inputs": [
        {
          "internalType": "address",
          "name": "from",
          "type": "address"
        },
        {
          "internalType": "address",
          "name": "to",
          "type": "address"
        },
        {
          "internalType": "uint256",
          "name": "tokenId",
          "type": "uint256"
        },
        {
          "internalType": "bytes",
          "name": "_data",
          "type": "bytes"
        }
      ],
      "name": "safeTransferFrom",
      "outputs": [],
      "stateMutability": "nonpayable",
      "type": "function"
    },
    {
      "inputs": [],
      "name": "saleIsActive",
      "outputs": [
        {
          "internalType": "bool",
          "name": "",
          "type": "bool"
        }
      ],
      "stateMutability": "view",
      "type": "function"
    },
    {
      "inputs": [
        {
          "internalType": "address",
          "name": "operator",
          "type": "address"
        },
        {
          "internalType": "bool",
          "name": "approved",
          "type": "bool"
        }
      ],
      "name": "setApprovalForAll",
      "outputs": [],
      "stateMutability": "nonpayable",
      "type": "function"
    },
    {
      "inputs": [
        {
          "internalType": "bytes4",
          "name": "interfaceId",
          "type": "bytes4"
        }
      ],
      "name": "supportsInterface",
      "outputs": [
        {
          "internalType": "bool",
          "name": "",
          "type": "bool"
        }
      ],
      "stateMutability": "view",
      "type": "function"
    },
    {
      "inputs": [],
      "name": "symbol",
      "outputs": [
        {
          "internalType": "string",
          "name": "",
          "type": "string"
        }
      ],
      "stateMutability": "view",
      "type": "function"
    },
    {
      "inputs": [
        {
          "internalType": "uint256",
          "name": "tokenId",
          "type": "uint256"
        }
      ],
      "name": "tokenURI",
      "outputs": [
        {
          "internalType": "string",
          "name": "",
          "type": "string"
        }
      ],
      "stateMutability": "view",
      "type": "function"
    },
    {
      "inputs": [
        {
          "internalType": "address",
          "name": "from",
          "type": "address"
        },
        {
          "internalType": "address",
          "name": "to",
          "type": "address"
        },
        {
          "internalType": "uint256",
          "name": "tokenId",
          "type": "uint256"
        }
      ],
      "name": "transferFrom",
      "outputs": [],
      "stateMutability": "nonpayable",
      "type": "function"
    },
    {
      "inputs": [
        {
          "components": [
            {
              "internalType": "string",
              "name": "purchaseId",
              "type": "string"
            },
            {
              "internalType": "uint256",
              "name": "ticketId",
              "type": "uint256"
            },
            {
              "internalType": "string",
              "name": "tokenURI",
              "type": "string"
            },
            {
              "internalType": "address",
              "name": "buyer",
              "type": "address"
            },
            {
              "internalType": "string",
              "name": "cost",
              "type": "string"
            }
          ],
          "internalType": "struct BlocTick.TicketPurchase[]",
          "name": "purchases",
          "type": "tuple[]"
        }
      ],
      "name": "purchaseTickets",
      "outputs": [],
      "stateMutability": "payable",
      "type": "function"
    },
    {
      "inputs": [],
      "name": "getInfo",
      "outputs": [
        {
          "internalType": "uint256",
          "name": "",
          "type": "uint256"
        },
        {
          "components": [
            {
              "internalType": "string",
              "name": "purchaseId",
              "type": "string"
            },
            {
              "internalType": "address",
              "name": "buyer",
              "type": "address"
            },
            {
              "internalType": "uint256",
              "name": "tokenId",
              "type": "uint256"
            },
            {
              "internalType": "uint256",
              "name": "ticketId",
              "type": "uint256"
            },
            {
              "internalType": "string",
              "name": "cost",
              "type": "string"
            }
          ],
          "internalType": "struct BlocTick.SuccessfulPurchase[]",
          "name": "",
          "type": "tuple[]"
        }
      ],
      "stateMutability": "view",
      "type": "function"
    },
    {
      "inputs": [
        {
          "components": [
            {
              "internalType": "string",
              "name": "name",
              "type": "string"
            },
            {
              "internalType": "string",
              "name": "description",
              "type": "string"
            },
            {
              "internalType": "enum BlocTick.TicketType",
              "name": "ticket_type",
              "type": "uint8"
            },
            {
              "internalType": "uint256",
              "name": "quantity_available",
              "type": "uint256"
            },
            {
              "internalType": "uint256",
              "name": "price",
              "type": "uint256"
            }
          ],
          "internalType": "struct BlocTick.Ticket[]",
          "name": "tickets",
          "type": "tuple[]"
        },
        {
          "internalType": "address",
          "name": "caller",
          "type": "address"
        }
      ],
      "name": "storeTickets",
      "outputs": [],
      "stateMutability": "nonpayable",
      "type": "function"
    },
    {
      "inputs": [],
      "name": "openSale",
      "outputs": [],
      "stateMutability": "nonpayable",
      "type": "function"
    },
    {
      "inputs": [],
      "name": "closeSale",
      "outputs": [],
      "stateMutability": "nonpayable",
      "type": "function"
    },
    {
      "inputs": [
        {
          "internalType": "address",
          "name": "caller",
          "type": "address"
        }
      ],
      "name": "getTickets",
      "outputs": [
        {
          "components": [
            {
              "internalType": "string",
              "name": "purchaseId",
              "type": "string"
            },
            {
              "internalType": "address",
              "name": "buyer",
              "type": "address"
            },
            {
              "internalType": "uint256",
              "name": "tokenId",
              "type": "uint256"
            },
            {
              "internalType": "uint256",
              "name": "ticketId",
              "type": "uint256"
            },
            {
              "internalType": "string",
              "name": "cost",
              "type": "string"
            }
          ],
          "internalType": "struct BlocTick.SuccessfulPurchase[]",
          "name": "result",
          "type": "tuple[]"
        }
      ],
      "stateMutability": "view",
      "type": "function"
    }
  ],
  "bytecode": "0x60806040526001600a60146101000a81548160ff0219169083151502179055503480156200002c57600080fd5b506040516200497f3803806200497f8339818101604052810190620000529190620003c5565b828281600090805190602001906200006c92919062000113565b5080600190805190602001906200008592919062000113565b50505033600c60006101000a81548173ffffffffffffffffffffffffffffffffffffffff021916908373ffffffffffffffffffffffffffffffffffffffff16021790555080600a60006101000a81548173ffffffffffffffffffffffffffffffffffffffff021916908373ffffffffffffffffffffffffffffffffffffffff160217905550505050620004c3565b82805462000121906200048e565b90600052602060002090601f01602090048101928262000145576000855562000191565b82601f106200016057805160ff191683800117855562000191565b8280016001018555821562000191579182015b828111156200019057825182559160200191906001019062000173565b5b509050620001a09190620001a4565b5090565b5b80821115620001bf576000816000905550600101620001a5565b5090565b6000604051905090565b600080fd5b600080fd5b600080fd5b600080fd5b6000601f19601f8301169050919050565b7f4e487b7100000000000000000000000000000000000000000000000000000000600052604160045260246000fd5b6200022c82620001e1565b810181811067ffffffffffffffff821117156200024e576200024d620001f2565b5b80604052505050565b600062000263620001c3565b905062000271828262000221565b919050565b600067ffffffffffffffff821115620002945762000293620001f2565b5b6200029f82620001e1565b9050602081019050919050565b60005b83811015620002cc578082015181840152602081019050620002af565b83811115620002dc576000848401525b50505050565b6000620002f9620002f38462000276565b62000257565b905082815260208101848484011115620003185762000317620001dc565b5b62000325848285620002ac565b509392505050565b600082601f830112620003455762000344620001d7565b5b815162000357848260208601620002e2565b91505092915050565b600073ffffffffffffffffffffffffffffffffffffffff82169050919050565b60006200038d8262000360565b9050919050565b6200039f8162000380565b8114620003ab57600080fd5b50565b600081519050620003bf8162000394565b92915050565b600080600060608486031215620003e157620003e0620001cd565b5b600084015167ffffffffffffffff811115620004025762000401620001d2565b5b62000410868287016200032d565b935050602084015167ffffffffffffffff811115620004345762000433620001d2565b5b62000442868287016200032d565b92505060406200045586828701620003ae565b9150509250925092565b7f4e487b7100000000000000000000000000000000000000000000000000000000600052602260045260246000fd5b60006002820490506001821680620004a757607f821691505b602082108103620004bd57620004bc6200045f565b5b50919050565b6144ac80620004d36000396000f3fe6080604052600436106101355760003560e01c80635a9b0b89116100ab578063b2bdfa7b1161006f578063b2bdfa7b1461042a578063b88d4fde14610455578063c87b56dd1461047e578063e985e9c5146104bb578063eb8d2444146104f8578063ee55efee1461052357610135565b80635a9b0b89146103305780636352211e1461035c57806370a082311461039957806395d89b41146103d6578063a22cb4651461040157610135565b8063150b7a02116100fd578063150b7a0214610245578063167ff46f1461028257806323b872dd146102995780633d181c7e146102c257806342842e0e146102eb5780634b2e5dca1461031457610135565b806301ffc9a71461013a57806306fdde0314610177578063081812fc146101a2578063095ea7b3146101df5780630ad182bc14610208575b600080fd5b34801561014657600080fd5b50610161600480360381019061015c919061263b565b61053a565b60405161016e9190612683565b60405180910390f35b34801561018357600080fd5b5061018c61061c565b6040516101999190612737565b60405180910390f35b3480156101ae57600080fd5b506101c960048036038101906101c4919061278f565b6106ae565b6040516101d691906127fd565b60405180910390f35b3480156101eb57600080fd5b5061020660048036038101906102019190612844565b610733565b005b34801561021457600080fd5b5061022f600480360381019061022a9190612884565b61084a565b60405161023c9190612a58565b60405180910390f35b34801561025157600080fd5b5061026c60048036038101906102679190612baf565b610ab5565b6040516102799190612c41565b60405180910390f35b34801561028e57600080fd5b50610297610ac9565b005b3480156102a557600080fd5b506102c060048036038101906102bb9190612c5c565b610b78565b005b3480156102ce57600080fd5b506102e960048036038101906102e49190612f29565b610bd8565b005b3480156102f757600080fd5b50610312600480360381019061030d9190612c5c565b610d6a565b005b61032e60048036038101906103299190613146565b610d8a565b005b34801561033c57600080fd5b50610345611096565b60405161035392919061319e565b60405180910390f35b34801561036857600080fd5b50610383600480360381019061037e919061278f565b611307565b60405161039091906127fd565b60405180910390f35b3480156103a557600080fd5b506103c060048036038101906103bb9190612884565b6113b8565b6040516103cd91906131ce565b60405180910390f35b3480156103e257600080fd5b506103eb61146f565b6040516103f89190612737565b60405180910390f35b34801561040d57600080fd5b5061042860048036038101906104239190613215565b611501565b005b34801561043657600080fd5b5061043f611517565b60405161044c91906127fd565b60405180910390f35b34801561046157600080fd5b5061047c60048036038101906104779190612baf565b61153d565b005b34801561048a57600080fd5b506104a560048036038101906104a0919061278f565b61159f565b6040516104b29190612737565b60405180910390f35b3480156104c757600080fd5b506104e260048036038101906104dd9190613255565b6116f0565b6040516104ef9190612683565b60405180910390f35b34801561050457600080fd5b5061050d611784565b60405161051a9190612683565b60405180910390f35b34801561052f57600080fd5b50610538611797565b005b60007f80ac58cd000000000000000000000000000000000000000000000000000000007bffffffffffffffffffffffffffffffffffffffffffffffffffffffff1916827bffffffffffffffffffffffffffffffffffffffffffffffffffffffff1916148061060557507f5b5e139f000000000000000000000000000000000000000000000000000000007bffffffffffffffffffffffffffffffffffffffffffffffffffffffff1916827bffffffffffffffffffffffffffffffffffffffffffffffffffffffff1916145b80610615575061061482611846565b5b9050919050565b60606000805461062b906132c4565b80601f0160208091040260200160405190810160405280929190818152602001828054610657906132c4565b80156106a45780601f10610679576101008083540402835291602001916106a4565b820191906000526020600020905b81548152906001019060200180831161068757829003601f168201915b5050505050905090565b60006106b9826118b0565b6106f8576040517f08c379a00000000000000000000000000000000000000000000000000000000081526004016106ef90613367565b60405180910390fd5b6004600083815260200190815260200160002060009054906101000a900473ffffffffffffffffffffffffffffffffffffffff169050919050565b600061073e82611307565b90508073ffffffffffffffffffffffffffffffffffffffff168373ffffffffffffffffffffffffffffffffffffffff16036107ae576040517f08c379a00000000000000000000000000000000000000000000000000000000081526004016107a5906133f9565b60405180910390fd5b8073ffffffffffffffffffffffffffffffffffffffff166107cd61191c565b73ffffffffffffffffffffffffffffffffffffffff1614806107fc57506107fb816107f661191c565b6116f0565b5b61083b576040517f08c379a00000000000000000000000000000000000000000000000000000000081526004016108329061348b565b60405180910390fd5b6108458383611924565b505050565b6060600080610858846113b8565b036108635750610ab0565b60005b61087060076119dd565b8111610aad5760006008600101828154811061088f5761088e6134ab565b5b90600052602060002090600502016040518060a00160405290816000820180546108b8906132c4565b80601f01602080910402602001604051908101604052809291908181526020018280546108e4906132c4565b80156109315780601f1061090657610100808354040283529160200191610931565b820191906000526020600020905b81548152906001019060200180831161091457829003601f168201915b505050505081526020016001820160009054906101000a900473ffffffffffffffffffffffffffffffffffffffff1673ffffffffffffffffffffffffffffffffffffffff1673ffffffffffffffffffffffffffffffffffffffff16815260200160028201548152602001600382015481526020016004820180546109b4906132c4565b80601f01602080910402602001604051908101604052809291908181526020018280546109e0906132c4565b8015610a2d5780601f10610a0257610100808354040283529160200191610a2d565b820191906000526020600020905b815481529060010190602001808311610a1057829003601f168201915b50505050508152505090508473ffffffffffffffffffffffffffffffffffffffff16610a5c8260400151611307565b73ffffffffffffffffffffffffffffffffffffffff1603610a9f5780848481518110610a8b57610a8a6134ab565b5b602002602001018190525082806001019350505b818060010192505050610866565b50505b919050565b600063150b7a0260e01b9050949350505050565b33600a60009054906101000a900473ffffffffffffffffffffffffffffffffffffffff1673ffffffffffffffffffffffffffffffffffffffff168173ffffffffffffffffffffffffffffffffffffffff1614610b5a576040517f08c379a0000000000000000000000000000000000000000000000000000000008152600401610b5190613526565b60405180910390fd5b6001600a60146101000a81548160ff02191690831515021790555050565b610b89610b8361191c565b826119eb565b610bc8576040517f08c379a0000000000000000000000000000000000000000000000000000000008152600401610bbf906135b8565b60405180910390fd5b610bd3838383611ac9565b505050565b600c60009054906101000a900473ffffffffffffffffffffffffffffffffffffffff1673ffffffffffffffffffffffffffffffffffffffff163373ffffffffffffffffffffffffffffffffffffffff1614610c68576040517f08c379a0000000000000000000000000000000000000000000000000000000008152600401610c5f90613624565b60405180910390fd5b80600a60009054906101000a900473ffffffffffffffffffffffffffffffffffffffff1673ffffffffffffffffffffffffffffffffffffffff168173ffffffffffffffffffffffffffffffffffffffff1614610cf9576040517f08c379a0000000000000000000000000000000000000000000000000000000008152600401610cf090613526565b60405180910390fd5b600873__TicketManager_________________________63a2a93cbf9091856040518363ffffffff1660e01b8152600401610d3592919061385a565b60006040518083038186803b158015610d4d57600080fd5b505af4158015610d61573d6000803e3d6000fd5b50505050505050565b610d858383836040518060200160405280600081525061153d565b505050565b600c60009054906101000a900473ffffffffffffffffffffffffffffffffffffffff1673ffffffffffffffffffffffffffffffffffffffff163373ffffffffffffffffffffffffffffffffffffffff1614610e1a576040517f08c379a0000000000000000000000000000000000000000000000000000000008152600401610e1190613624565b60405180910390fd5b600a60149054906101000a900460ff16610e3357600080fd5b600873__TicketManager_________________________6341023a1e9091836040518363ffffffff1660e01b8152600401610e6f9291906139df565b602060405180830381865af4158015610e8c573d6000803e3d6000fd5b505050506040513d601f19601f82011682018060405250810190610eb09190613a24565b341015610ef2576040517f08c379a0000000000000000000000000000000000000000000000000000000008152600401610ee990613a9d565b60405180910390fd5b60005b8151811015611079576000828281518110610f1357610f126134ab565b5b602002602001015190506000610f2960076119dd565b9050610f353082611d2f565b610f3f6007611f08565b610f4d818360400151611f1e565b610f58303383611ac9565b60086001016040518060a0016040528084600001518152602001846060015173ffffffffffffffffffffffffffffffffffffffff16815260200183815260200184602001518152602001846080015181525090806001815401808255809150506001900390600052602060002090600502016000909190919091506000820151816000019080519060200190610fef92919061252c565b5060208201518160010160006101000a81548173ffffffffffffffffffffffffffffffffffffffff021916908373ffffffffffffffffffffffffffffffffffffffff1602179055506040820151816002015560608201518160030155608082015181600401908051906020019061106792919061252c565b50505082806001019350505050610ef5565b5034600b600082825461108c9190613aec565b9250508190555050565b60006060600b54600873__TicketManager_________________________63957f0c8c90916040518263ffffffff1660e01b81526004016110d79190613b42565b602060405180830381865af41580156110f4573d6000803e3d6000fd5b505050506040513d601f19601f820116820180604052508101906111189190613b93565b80805480602002602001604051908101604052809291908181526020016000905b828210156112f957838290600052602060002090600502016040518060a001604052908160008201805461116c906132c4565b80601f0160208091040260200160405190810160405280929190818152602001828054611198906132c4565b80156111e55780601f106111ba576101008083540402835291602001916111e5565b820191906000526020600020905b8154815290600101906020018083116111c857829003601f168201915b505050505081526020016001820160009054906101000a900473ffffffffffffffffffffffffffffffffffffffff1673ffffffffffffffffffffffffffffffffffffffff1673ffffffffffffffffffffffffffffffffffffffff1681526020016002820154815260200160038201548152602001600482018054611268906132c4565b80601f0160208091040260200160405190810160405280929190818152602001828054611294906132c4565b80156112e15780601f106112b6576101008083540402835291602001916112e1565b820191906000526020600020905b8154815290600101906020018083116112c457829003601f168201915b50505050508152505081526020019060010190611139565b505050509050915091509091565b6000806002600084815260200190815260200160002060009054906101000a900473ffffffffffffffffffffffffffffffffffffffff169050600073ffffffffffffffffffffffffffffffffffffffff168173ffffffffffffffffffffffffffffffffffffffff16036113af576040517f08c379a00000000000000000000000000000000000000000000000000000000081526004016113a690613c32565b60405180910390fd5b80915050919050565b60008073ffffffffffffffffffffffffffffffffffffffff168273ffffffffffffffffffffffffffffffffffffffff1603611428576040517f08c379a000000000000000000000000000000000000000000000000000000000815260040161141f90613cc4565b60405180910390fd5b600360008373ffffffffffffffffffffffffffffffffffffffff1673ffffffffffffffffffffffffffffffffffffffff168152602001908152602001600020549050919050565b60606001805461147e906132c4565b80601f01602080910402602001604051908101604052809291908181526020018280546114aa906132c4565b80156114f75780601f106114cc576101008083540402835291602001916114f7565b820191906000526020600020905b8154815290600101906020018083116114da57829003601f168201915b5050505050905090565b61151361150c61191c565b8383611f92565b5050565b600a60009054906101000a900473ffffffffffffffffffffffffffffffffffffffff1681565b61154e61154861191c565b836119eb565b61158d576040517f08c379a0000000000000000000000000000000000000000000000000000000008152600401611584906135b8565b60405180910390fd5b611599848484846120fe565b50505050565b60606115aa826118b0565b6115e9576040517f08c379a00000000000000000000000000000000000000000000000000000000081526004016115e090613d56565b60405180910390fd5b6000600660008481526020019081526020016000208054611609906132c4565b80601f0160208091040260200160405190810160405280929190818152602001828054611635906132c4565b80156116825780601f1061165757610100808354040283529160200191611682565b820191906000526020600020905b81548152906001019060200180831161166557829003601f168201915b50505050509050600061169361215a565b905060008151036116a85781925050506116eb565b6000825111156116dd5780826040516020016116c5929190613db2565b604051602081830303815290604052925050506116eb565b6116e684612171565b925050505b919050565b6000600560008473ffffffffffffffffffffffffffffffffffffffff1673ffffffffffffffffffffffffffffffffffffffff16815260200190815260200160002060008373ffffffffffffffffffffffffffffffffffffffff1673ffffffffffffffffffffffffffffffffffffffff16815260200190815260200160002060009054906101000a900460ff16905092915050565b600a60149054906101000a900460ff1681565b33600a60009054906101000a900473ffffffffffffffffffffffffffffffffffffffff1673ffffffffffffffffffffffffffffffffffffffff168173ffffffffffffffffffffffffffffffffffffffff1614611828576040517f08c379a000000000000000000000000000000000000000000000000000000000815260040161181f90613526565b60405180910390fd5b6000600a60146101000a81548160ff02191690831515021790555050565b60007f01ffc9a7000000000000000000000000000000000000000000000000000000007bffffffffffffffffffffffffffffffffffffffffffffffffffffffff1916827bffffffffffffffffffffffffffffffffffffffffffffffffffffffff1916149050919050565b60008073ffffffffffffffffffffffffffffffffffffffff166002600084815260200190815260200160002060009054906101000a900473ffffffffffffffffffffffffffffffffffffffff1673ffffffffffffffffffffffffffffffffffffffff1614159050919050565b600033905090565b816004600083815260200190815260200160002060006101000a81548173ffffffffffffffffffffffffffffffffffffffff021916908373ffffffffffffffffffffffffffffffffffffffff160217905550808273ffffffffffffffffffffffffffffffffffffffff1661199783611307565b73ffffffffffffffffffffffffffffffffffffffff167f8c5be1e5ebec7d5bd14f71427d1e84f3dd0314c0f7b2291e5b200ac8c7c3b92560405160405180910390a45050565b600081600001549050919050565b60006119f6826118b0565b611a35576040517f08c379a0000000000000000000000000000000000000000000000000000000008152600401611a2c90613e48565b60405180910390fd5b6000611a4083611307565b90508073ffffffffffffffffffffffffffffffffffffffff168473ffffffffffffffffffffffffffffffffffffffff161480611a825750611a8181856116f0565b5b80611ac057508373ffffffffffffffffffffffffffffffffffffffff16611aa8846106ae565b73ffffffffffffffffffffffffffffffffffffffff16145b91505092915050565b8273ffffffffffffffffffffffffffffffffffffffff16611ae982611307565b73ffffffffffffffffffffffffffffffffffffffff1614611b3f576040517f08c379a0000000000000000000000000000000000000000000000000000000008152600401611b3690613eda565b60405180910390fd5b600073ffffffffffffffffffffffffffffffffffffffff168273ffffffffffffffffffffffffffffffffffffffff1603611bae576040517f08c379a0000000000000000000000000000000000000000000000000000000008152600401611ba590613f6c565b60405180910390fd5b611bb9838383612218565b611bc4600082611924565b6001600360008573ffffffffffffffffffffffffffffffffffffffff1673ffffffffffffffffffffffffffffffffffffffff1681526020019081526020016000206000828254611c149190613f8c565b925050819055506001600360008473ffffffffffffffffffffffffffffffffffffffff1673ffffffffffffffffffffffffffffffffffffffff1681526020019081526020016000206000828254611c6b9190613aec565b92505081905550816002600083815260200190815260200160002060006101000a81548173ffffffffffffffffffffffffffffffffffffffff021916908373ffffffffffffffffffffffffffffffffffffffff160217905550808273ffffffffffffffffffffffffffffffffffffffff168473ffffffffffffffffffffffffffffffffffffffff167fddf252ad1be2c89b69c2b068fc378daa952ba7f163c4a11628f55a4df523b3ef60405160405180910390a4611d2a83838361221d565b505050565b600073ffffffffffffffffffffffffffffffffffffffff168273ffffffffffffffffffffffffffffffffffffffff1603611d9e576040517f08c379a0000000000000000000000000000000000000000000000000000000008152600401611d959061400c565b60405180910390fd5b611da7816118b0565b15611de7576040517f08c379a0000000000000000000000000000000000000000000000000000000008152600401611dde90614078565b60405180910390fd5b611df360008383612218565b6001600360008473ffffffffffffffffffffffffffffffffffffffff1673ffffffffffffffffffffffffffffffffffffffff1681526020019081526020016000206000828254611e439190613aec565b92505081905550816002600083815260200190815260200160002060006101000a81548173ffffffffffffffffffffffffffffffffffffffff021916908373ffffffffffffffffffffffffffffffffffffffff160217905550808273ffffffffffffffffffffffffffffffffffffffff16600073ffffffffffffffffffffffffffffffffffffffff167fddf252ad1be2c89b69c2b068fc378daa952ba7f163c4a11628f55a4df523b3ef60405160405180910390a4611f046000838361221d565b5050565b6001816000016000828254019250508190555050565b611f27826118b0565b611f66576040517f08c379a0000000000000000000000000000000000000000000000000000000008152600401611f5d9061410a565b60405180910390fd5b80600660008481526020019081526020016000209080519060200190611f8d92919061252c565b505050565b8173ffffffffffffffffffffffffffffffffffffffff168373ffffffffffffffffffffffffffffffffffffffff1603612000576040517f08c379a0000000000000000000000000000000000000000000000000000000008152600401611ff790614176565b60405180910390fd5b80600560008573ffffffffffffffffffffffffffffffffffffffff1673ffffffffffffffffffffffffffffffffffffffff16815260200190815260200160002060008473ffffffffffffffffffffffffffffffffffffffff1673ffffffffffffffffffffffffffffffffffffffff16815260200190815260200160002060006101000a81548160ff0219169083151502179055508173ffffffffffffffffffffffffffffffffffffffff168373ffffffffffffffffffffffffffffffffffffffff167f17307eab39ab6107e8899845ad3d59bd9653f200f220920489ca2b5937696c31836040516120f19190612683565b60405180910390a3505050565b612109848484611ac9565b61211584848484612222565b612154576040517f08c379a000000000000000000000000000000000000000000000000000000000815260040161214b90614208565b60405180910390fd5b50505050565b606060405180602001604052806000815250905090565b606061217c826118b0565b6121bb576040517f08c379a00000000000000000000000000000000000000000000000000000000081526004016121b29061429a565b60405180910390fd5b60006121c561215a565b905060008151116121e55760405180602001604052806000815250612210565b806121ef846123a9565b604051602001612200929190613db2565b6040516020818303038152906040525b915050919050565b505050565b505050565b60006122438473ffffffffffffffffffffffffffffffffffffffff16612509565b1561239c578373ffffffffffffffffffffffffffffffffffffffff1663150b7a0261226c61191c565b8786866040518563ffffffff1660e01b815260040161228e949392919061430f565b6020604051808303816000875af19250505080156122ca57506040513d601f19601f820116820180604052508101906122c79190614370565b60015b61234c573d80600081146122fa576040519150601f19603f3d011682016040523d82523d6000602084013e6122ff565b606091505b506000815103612344576040517f08c379a000000000000000000000000000000000000000000000000000000000815260040161233b90614208565b60405180910390fd5b805181602001fd5b63150b7a0260e01b7bffffffffffffffffffffffffffffffffffffffffffffffffffffffff1916817bffffffffffffffffffffffffffffffffffffffffffffffffffffffff1916149150506123a1565b600190505b949350505050565b6060600082036123f0576040518060400160405280600181526020017f30000000000000000000000000000000000000000000000000000000000000008152509050612504565b600082905060005b6000821461242257808061240b9061439d565b915050600a8261241b9190614414565b91506123f8565b60008167ffffffffffffffff81111561243e5761243d612a84565b5b6040519080825280601f01601f1916602001820160405280156124705781602001600182028036833780820191505090505b5090505b600085146124fd576001826124899190613f8c565b9150600a856124989190614445565b60306124a49190613aec565b60f81b8183815181106124ba576124b96134ab565b5b60200101907effffffffffffffffffffffffffffffffffffffffffffffffffffffffffffff1916908160001a905350600a856124f69190614414565b9450612474565b8093505050505b919050565b6000808273ffffffffffffffffffffffffffffffffffffffff163b119050919050565b828054612538906132c4565b90600052602060002090601f01602090048101928261255a57600085556125a1565b82601f1061257357805160ff19168380011785556125a1565b828001600101855582156125a1579182015b828111156125a0578251825591602001919060010190612585565b5b5090506125ae91906125b2565b5090565b5b808211156125cb5760008160009055506001016125b3565b5090565b6000604051905090565b600080fd5b600080fd5b60007fffffffff0000000000000000000000000000000000000000000000000000000082169050919050565b612618816125e3565b811461262357600080fd5b50565b6000813590506126358161260f565b92915050565b600060208284031215612651576126506125d9565b5b600061265f84828501612626565b91505092915050565b60008115159050919050565b61267d81612668565b82525050565b60006020820190506126986000830184612674565b92915050565b600081519050919050565b600082825260208201905092915050565b60005b838110156126d85780820151818401526020810190506126bd565b838111156126e7576000848401525b50505050565b6000601f19601f8301169050919050565b60006127098261269e565b61271381856126a9565b93506127238185602086016126ba565b61272c816126ed565b840191505092915050565b6000602082019050818103600083015261275181846126fe565b905092915050565b6000819050919050565b61276c81612759565b811461277757600080fd5b50565b60008135905061278981612763565b92915050565b6000602082840312156127a5576127a46125d9565b5b60006127b38482850161277a565b91505092915050565b600073ffffffffffffffffffffffffffffffffffffffff82169050919050565b60006127e7826127bc565b9050919050565b6127f7816127dc565b82525050565b600060208201905061281260008301846127ee565b92915050565b612821816127dc565b811461282c57600080fd5b50565b60008135905061283e81612818565b92915050565b6000806040838503121561285b5761285a6125d9565b5b60006128698582860161282f565b925050602061287a8582860161277a565b9150509250929050565b60006020828403121561289a576128996125d9565b5b60006128a88482850161282f565b91505092915050565b600081519050919050565b600082825260208201905092915050565b6000819050602082019050919050565b600082825260208201905092915050565b60006128f98261269e565b61290381856128dd565b93506129138185602086016126ba565b61291c816126ed565b840191505092915050565b612930816127dc565b82525050565b61293f81612759565b82525050565b600060a083016000830151848203600086015261296282826128ee565b91505060208301516129776020860182612927565b50604083015161298a6040860182612936565b50606083015161299d6060860182612936565b50608083015184820360808601526129b582826128ee565b9150508091505092915050565b60006129ce8383612945565b905092915050565b6000602082019050919050565b60006129ee826128b1565b6129f881856128bc565b935083602082028501612a0a856128cd565b8060005b85811015612a465784840389528151612a2785826129c2565b9450612a32836129d6565b925060208a01995050600181019050612a0e565b50829750879550505050505092915050565b60006020820190508181036000830152612a7281846129e3565b905092915050565b600080fd5b600080fd5b7f4e487b7100000000000000000000000000000000000000000000000000000000600052604160045260246000fd5b612abc826126ed565b810181811067ffffffffffffffff82111715612adb57612ada612a84565b5b80604052505050565b6000612aee6125cf565b9050612afa8282612ab3565b919050565b600067ffffffffffffffff821115612b1a57612b19612a84565b5b612b23826126ed565b9050602081019050919050565b82818337600083830152505050565b6000612b52612b4d84612aff565b612ae4565b905082815260208101848484011115612b6e57612b6d612a7f565b5b612b79848285612b30565b509392505050565b600082601f830112612b9657612b95612a7a565b5b8135612ba6848260208601612b3f565b91505092915050565b60008060008060808587031215612bc957612bc86125d9565b5b6000612bd78782880161282f565b9450506020612be88782880161282f565b9350506040612bf98782880161277a565b925050606085013567ffffffffffffffff811115612c1a57612c196125de565b5b612c2687828801612b81565b91505092959194509250565b612c3b816125e3565b82525050565b6000602082019050612c566000830184612c32565b92915050565b600080600060608486031215612c7557612c746125d9565b5b6000612c838682870161282f565b9350506020612c948682870161282f565b9250506040612ca58682870161277a565b9150509250925092565b600067ffffffffffffffff821115612cca57612cc9612a84565b5b602082029050602081019050919050565b600080fd5b600080fd5b600080fd5b600067ffffffffffffffff821115612d0557612d04612a84565b5b612d0e826126ed565b9050602081019050919050565b6000612d2e612d2984612cea565b612ae4565b905082815260208101848484011115612d4a57612d49612a7f565b5b612d55848285612b30565b509392505050565b600082601f830112612d7257612d71612a7a565b5b8135612d82848260208601612d1b565b91505092915050565b60038110612d9857600080fd5b50565b600081359050612daa81612d8b565b92915050565b600060a08284031215612dc657612dc5612ce0565b5b612dd060a0612ae4565b9050600082013567ffffffffffffffff811115612df057612def612ce5565b5b612dfc84828501612d5d565b600083015250602082013567ffffffffffffffff811115612e2057612e1f612ce5565b5b612e2c84828501612d5d565b6020830152506040612e4084828501612d9b565b6040830152506060612e548482850161277a565b6060830152506080612e688482850161277a565b60808301525092915050565b6000612e87612e8284612caf565b612ae4565b90508083825260208201905060208402830185811115612eaa57612ea9612cdb565b5b835b81811015612ef157803567ffffffffffffffff811115612ecf57612ece612a7a565b5b808601612edc8982612db0565b85526020850194505050602081019050612eac565b5050509392505050565b600082601f830112612f1057612f0f612a7a565b5b8135612f20848260208601612e74565b91505092915050565b60008060408385031215612f4057612f3f6125d9565b5b600083013567ffffffffffffffff811115612f5e57612f5d6125de565b5b612f6a85828601612efb565b9250506020612f7b8582860161282f565b9150509250929050565b600067ffffffffffffffff821115612fa057612f9f612a84565b5b602082029050602081019050919050565b600060a08284031215612fc757612fc6612ce0565b5b612fd160a0612ae4565b9050600082013567ffffffffffffffff811115612ff157612ff0612ce5565b5b612ffd84828501612d5d565b60008301525060206130118482850161277a565b602083015250604082013567ffffffffffffffff81111561303557613034612ce5565b5b61304184828501612d5d565b60408301525060606130558482850161282f565b606083015250608082013567ffffffffffffffff81111561307957613078612ce5565b5b61308584828501612d5d565b60808301525092915050565b60006130a461309f84612f85565b612ae4565b905080838252602082019050602084028301858111156130c7576130c6612cdb565b5b835b8181101561310e57803567ffffffffffffffff8111156130ec576130eb612a7a565b5b8086016130f98982612fb1565b855260208501945050506020810190506130c9565b5050509392505050565b600082601f83011261312d5761312c612a7a565b5b813561313d848260208601613091565b91505092915050565b60006020828403121561315c5761315b6125d9565b5b600082013567ffffffffffffffff81111561317a576131796125de565b5b61318684828501613118565b91505092915050565b61319881612759565b82525050565b60006040820190506131b3600083018561318f565b81810360208301526131c581846129e3565b90509392505050565b60006020820190506131e3600083018461318f565b92915050565b6131f281612668565b81146131fd57600080fd5b50565b60008135905061320f816131e9565b92915050565b6000806040838503121561322c5761322b6125d9565b5b600061323a8582860161282f565b925050602061324b85828601613200565b9150509250929050565b6000806040838503121561326c5761326b6125d9565b5b600061327a8582860161282f565b925050602061328b8582860161282f565b9150509250929050565b7f4e487b7100000000000000000000000000000000000000000000000000000000600052602260045260246000fd5b600060028204905060018216806132dc57607f821691505b6020821081036132ef576132ee613295565b5b50919050565b7f4552433732313a20617070726f76656420717565727920666f72206e6f6e657860008201527f697374656e7420746f6b656e0000000000000000000000000000000000000000602082015250565b6000613351602c836126a9565b915061335c826132f5565b604082019050919050565b6000602082019050818103600083015261338081613344565b9050919050565b7f4552433732313a20617070726f76616c20746f2063757272656e74206f776e6560008201527f7200000000000000000000000000000000000000000000000000000000000000602082015250565b60006133e36021836126a9565b91506133ee82613387565b604082019050919050565b60006020820190508181036000830152613412816133d6565b9050919050565b7f4552433732313a20617070726f76652063616c6c6572206973206e6f74206f7760008201527f6e6572206e6f7220617070726f76656420666f7220616c6c0000000000000000602082015250565b60006134756038836126a9565b915061348082613419565b604082019050919050565b600060208201905081810360008301526134a481613468565b9050919050565b7f4e487b7100000000000000000000000000000000000000000000000000000000600052603260045260246000fd5b7f4163636573732072657374726963746564210000000000000000000000000000600082015250565b60006135106012836126a9565b915061351b826134da565b602082019050919050565b6000602082019050818103600083015261353f81613503565b9050919050565b7f4552433732313a207472616e736665722063616c6c6572206973206e6f74206f60008201527f776e6572206e6f7220617070726f766564000000000000000000000000000000602082015250565b60006135a26031836126a9565b91506135ad82613546565b604082019050919050565b600060208201905081810360008301526135d181613595565b9050919050565b7f596f75206e65656420746f207573652074686520666163746f72790000000000600082015250565b600061360e601b836126a9565b9150613619826135d8565b602082019050919050565b6000602082019050818103600083015261363d81613601565b9050919050565b8082525050565b600081519050919050565b600082825260208201905092915050565b6000819050602082019050919050565b600082825260208201905092915050565b60006136938261269e565b61369d8185613677565b93506136ad8185602086016126ba565b6136b6816126ed565b840191505092915050565b7f4e487b7100000000000000000000000000000000000000000000000000000000600052602160045260246000fd5b60038110613701576137006136c1565b5b50565b6000819050613712826136f0565b919050565b600061372282613704565b9050919050565b61373281613717565b82525050565b61374181612759565b82525050565b600060a08301600083015184820360008601526137648282613688565b9150506020830151848203602086015261377e8282613688565b91505060408301516137936040860182613729565b5060608301516137a66060860182613738565b5060808301516137b96080860182613738565b508091505092915050565b60006137d08383613747565b905092915050565b6000602082019050919050565b60006137f08261364b565b6137fa8185613656565b93508360208202850161380c85613667565b8060005b85811015613848578484038952815161382985826137c4565b9450613834836137d8565b925060208a01995050600181019050613810565b50829750879550505050505092915050565b600060408201905061386f6000830185613644565b818103602083015261388181846137e5565b90509392505050565b600081519050919050565b600082825260208201905092915050565b6000819050602082019050919050565b6138bf816127dc565b82525050565b600060a08301600083015184820360008601526138e28282613688565b91505060208301516138f76020860182613738565b506040830151848203604086015261390f8282613688565b915050606083015161392460608601826138b6565b506080830151848203608086015261393c8282613688565b9150508091505092915050565b600061395583836138c5565b905092915050565b6000602082019050919050565b60006139758261388a565b61397f8185613895565b935083602082028501613991856138a6565b8060005b858110156139cd57848403895281516139ae8582613949565b94506139b98361395d565b925060208a01995050600181019050613995565b50829750879550505050505092915050565b60006040820190506139f46000830185613644565b8181036020830152613a06818461396a565b90509392505050565b600081519050613a1e81612763565b92915050565b600060208284031215613a3a57613a396125d9565b5b6000613a4884828501613a0f565b91505092915050565b7f546865207469636b65747320636f7374206d6f72650000000000000000000000600082015250565b6000613a876015836126a9565b9150613a9282613a51565b602082019050919050565b60006020820190508181036000830152613ab681613a7a565b9050919050565b7f4e487b7100000000000000000000000000000000000000000000000000000000600052601160045260246000fd5b6000613af782612759565b9150613b0283612759565b9250827fffffffffffffffffffffffffffffffffffffffffffffffffffffffffffffffff03821115613b3757613b36613abd565b5b828201905092915050565b6000602082019050613b576000830184613644565b92915050565b6000819050919050565b613b7081613b5d565b8114613b7b57600080fd5b50565b600081519050613b8d81613b67565b92915050565b600060208284031215613ba957613ba86125d9565b5b6000613bb784828501613b7e565b91505092915050565b7f4552433732313a206f776e657220717565727920666f72206e6f6e657869737460008201527f656e7420746f6b656e0000000000000000000000000000000000000000000000602082015250565b6000613c1c6029836126a9565b9150613c2782613bc0565b604082019050919050565b60006020820190508181036000830152613c4b81613c0f565b9050919050565b7f4552433732313a2062616c616e636520717565727920666f7220746865207a6560008201527f726f206164647265737300000000000000000000000000000000000000000000602082015250565b6000613cae602a836126a9565b9150613cb982613c52565b604082019050919050565b60006020820190508181036000830152613cdd81613ca1565b9050919050565b7f45524337323155524953746f726167653a2055524920717565727920666f722060008201527f6e6f6e6578697374656e7420746f6b656e000000000000000000000000000000602082015250565b6000613d406031836126a9565b9150613d4b82613ce4565b604082019050919050565b60006020820190508181036000830152613d6f81613d33565b9050919050565b600081905092915050565b6000613d8c8261269e565b613d968185613d76565b9350613da68185602086016126ba565b80840191505092915050565b6000613dbe8285613d81565b9150613dca8284613d81565b91508190509392505050565b7f4552433732313a206f70657261746f7220717565727920666f72206e6f6e657860008201527f697374656e7420746f6b656e0000000000000000000000000000000000000000602082015250565b6000613e32602c836126a9565b9150613e3d82613dd6565b604082019050919050565b60006020820190508181036000830152613e6181613e25565b9050919050565b7f4552433732313a207472616e736665722066726f6d20696e636f72726563742060008201527f6f776e6572000000000000000000000000000000000000000000000000000000602082015250565b6000613ec46025836126a9565b9150613ecf82613e68565b604082019050919050565b60006020820190508181036000830152613ef381613eb7565b9050919050565b7f4552433732313a207472616e7366657220746f20746865207a65726f2061646460008201527f7265737300000000000000000000000000000000000000000000000000000000602082015250565b6000613f566024836126a9565b9150613f6182613efa565b604082019050919050565b60006020820190508181036000830152613f8581613f49565b9050919050565b6000613f9782612759565b9150613fa283612759565b925082821015613fb557613fb4613abd565b5b828203905092915050565b7f4552433732313a206d696e7420746f20746865207a65726f2061646472657373600082015250565b6000613ff66020836126a9565b915061400182613fc0565b602082019050919050565b6000602082019050818103600083015261402581613fe9565b9050919050565b7f4552433732313a20746f6b656e20616c7265616479206d696e74656400000000600082015250565b6000614062601c836126a9565b915061406d8261402c565b602082019050919050565b6000602082019050818103600083015261409181614055565b9050919050565b7f45524337323155524953746f726167653a2055524920736574206f66206e6f6e60008201527f6578697374656e7420746f6b656e000000000000000000000000000000000000602082015250565b60006140f4602e836126a9565b91506140ff82614098565b604082019050919050565b60006020820190508181036000830152614123816140e7565b9050919050565b7f4552433732313a20617070726f766520746f2063616c6c657200000000000000600082015250565b60006141606019836126a9565b915061416b8261412a565b602082019050919050565b6000602082019050818103600083015261418f81614153565b9050919050565b7f4552433732313a207472616e7366657220746f206e6f6e20455243373231526560008201527f63656976657220696d706c656d656e7465720000000000000000000000000000602082015250565b60006141f26032836126a9565b91506141fd82614196565b604082019050919050565b60006020820190508181036000830152614221816141e5565b9050919050565b7f4552433732314d657461646174613a2055524920717565727920666f72206e6f60008201527f6e6578697374656e7420746f6b656e0000000000000000000000000000000000602082015250565b6000614284602f836126a9565b915061428f82614228565b604082019050919050565b600060208201905081810360008301526142b381614277565b9050919050565b600081519050919050565b600082825260208201905092915050565b60006142e1826142ba565b6142eb81856142c5565b93506142fb8185602086016126ba565b614304816126ed565b840191505092915050565b600060808201905061432460008301876127ee565b61433160208301866127ee565b61433e604083018561318f565b818103606083015261435081846142d6565b905095945050505050565b60008151905061436a8161260f565b92915050565b600060208284031215614386576143856125d9565b5b60006143948482850161435b565b91505092915050565b60006143a882612759565b91507fffffffffffffffffffffffffffffffffffffffffffffffffffffffffffffffff82036143da576143d9613abd565b5b600182019050919050565b7f4e487b7100000000000000000000000000000000000000000000000000000000600052601260045260246000fd5b600061441f82612759565b915061442a83612759565b92508261443a576144396143e5565b5b828204905092915050565b600061445082612759565b915061445b83612759565b92508261446b5761446a6143e5565b5b82820690509291505056fea26469706673582212203255627f551818c6b3101ffe8252d5e70b2e2e6e8e4d4ba5ddb7eafe45e7148b64736f6c634300080d0033",
  "immutableReferences": {},
  "source": "// SPDX-License-Identifier: GPL-3.0\npragma solidity >=0.6.0 <0.9.0;\n\nimport \"@openzeppelin/contracts/token/ERC721/ERC721.sol\";\nimport \"@openzeppelin/contracts/token/ERC721/extensions/ERC721URIStorage.sol\";\nimport \"@openzeppelin/contracts/utils/Counters.sol\";\nimport \"@openzeppelin/contracts/token/ERC721/utils/ERC721Holder.sol\";\nimport \"@openzeppelin/contracts/token/ERC721/extensions/ERC721Royalty.sol\";\nimport \"./TicketManager.sol\";\nimport \"./BlocTick.sol\";\n\ncontract Event is ERC721URIStorage, ERC721Holder {\n    using Counters for Counters.Counter;\n    using TicketManager for TicketManager.Manager;\n    Counters.Counter private tokenCounter;\n    TicketManager.Manager private ticketManager;\n\n    address public _owner;\n    bool public saleIsActive = true;\n    uint256 private totalSold;\n    address private _factory;\n\n    modifier onlyFactory() {\n        require(msg.sender == _factory, \"You need to use the factory\");\n        _;\n    }\n\n    modifier onlyEventCreator(address caller) {\n        require(caller == _owner, \"Access restricted!\");\n        _;\n    }\n\n    constructor(\n        string memory name,\n        string memory symbol,\n        address __owner\n    ) ERC721(name, symbol) {\n        _factory = msg.sender;\n        _owner = __owner;\n    }\n\n    function purchaseTickets(BlocTick.TicketPurchase[] memory purchases)\n        external\n        payable\n        onlyFactory\n    {\n        require(saleIsActive);\n        require(\n            msg.value >= ticketManager.getTotalCost(purchases),\n            \"The tickets cost more\"\n        );\n        for (uint256 i = 0; i < purchases.length; ) {\n            BlocTick.TicketPurchase memory purchase = purchases[i];\n            uint256 _tokenId = tokenCounter.current();\n            _mint(address(this), _tokenId);\n            tokenCounter.increment();\n            _setTokenURI(_tokenId, purchase.tokenURI);\n            _transfer(address(this), msg.sender, _tokenId); //nft to user\n            ticketManager._sales.push(\n                BlocTick.SuccessfulPurchase(\n                    purchase.purchaseId,\n                    purchase.buyer,\n                    _tokenId,\n                    purchase.ticketId,\n                    purchase.cost\n                )\n            );\n            unchecked {\n                i++;\n            }\n        }\n        totalSold += msg.value;\n    }\n\n    function getInfo()\n        external\n        view\n        returns (uint256, BlocTick.SuccessfulPurchase[] memory)\n    {\n        return (totalSold, ticketManager.getSales());\n    }\n\n    function storeTickets(BlocTick.Ticket[] memory tickets, address caller)\n        external\n        onlyFactory\n        onlyEventCreator(caller)\n    {\n        ticketManager._storeTickets(tickets);\n    }\n\n    function openSale() external onlyEventCreator(msg.sender) {\n        saleIsActive = true;\n    }\n\n    function closeSale() external onlyEventCreator(msg.sender) {\n        saleIsActive = false;\n    }\n\n    function getTickets(address caller)\n        external\n        view\n        returns (BlocTick.SuccessfulPurchase[] memory result)\n    {\n        uint256 counter = 0;\n        if (balanceOf(caller) == 0) {\n            return result;\n        }\n        for (uint256 i = 0; i <= tokenCounter.current(); ) {\n            BlocTick.SuccessfulPurchase memory sale = ticketManager._sales[i];\n            if (ownerOf(sale.tokenId) == caller) {\n                result[counter] = sale;\n                unchecked {\n                    counter++;\n                }\n            }\n            unchecked {\n                i++;\n            }\n        }\n        return result;\n    }\n}\n",
  "sourcePath": "/Users/devjosh/Documents/Build/Blocverse/BlocTicks/blocticks-contracts/backend/contracts/Event.sol",
  "compiler": {
    "name": "solc",
    "version": "0.8.13+commit.abaa5c0e.Emscripten.clang"
  },
  "schemaVersion": "3.4.7",
  "updatedAt": "2022-04-29T18:20:23.603Z",
  "devdoc": {
    "kind": "dev",
    "methods": {
      "approve(address,uint256)": {
        "details": "See {IERC721-approve}."
      },
      "balanceOf(address)": {
        "details": "See {IERC721-balanceOf}."
      },
      "getApproved(uint256)": {
        "details": "See {IERC721-getApproved}."
      },
      "isApprovedForAll(address,address)": {
        "details": "See {IERC721-isApprovedForAll}."
      },
      "name()": {
        "details": "See {IERC721Metadata-name}."
      },
      "onERC721Received(address,address,uint256,bytes)": {
        "details": "See {IERC721Receiver-onERC721Received}. Always returns `IERC721Receiver.onERC721Received.selector`."
      },
      "ownerOf(uint256)": {
        "details": "See {IERC721-ownerOf}."
      },
      "safeTransferFrom(address,address,uint256)": {
        "details": "See {IERC721-safeTransferFrom}."
      },
      "safeTransferFrom(address,address,uint256,bytes)": {
        "details": "See {IERC721-safeTransferFrom}."
      },
      "setApprovalForAll(address,bool)": {
        "details": "See {IERC721-setApprovalForAll}."
      },
      "supportsInterface(bytes4)": {
        "details": "See {IERC165-supportsInterface}."
      },
      "symbol()": {
        "details": "See {IERC721Metadata-symbol}."
      },
      "tokenURI(uint256)": {
        "details": "See {IERC721Metadata-tokenURI}."
      },
      "transferFrom(address,address,uint256)": {
        "details": "See {IERC721-transferFrom}."
      }
    },
    "version": 1
  },
  "userdoc": {
    "kind": "user",
    "methods": {},
    "version": 1
  }
}