{
  "contractName": "Event",
  "abi": [
    {
      "anonymous": false,
      "inputs": [
        {
          "indexed": true,
          "internalType": "address",
          "name": "owner",
          "type": "address"
        },
        {
          "indexed": true,
          "internalType": "address",
          "name": "approved",
          "type": "address"
        },
        {
          "indexed": true,
          "internalType": "uint256",
          "name": "tokenId",
          "type": "uint256"
        }
      ],
      "name": "Approval",
      "type": "event"
    },
    {
      "anonymous": false,
      "inputs": [
        {
          "indexed": true,
          "internalType": "address",
          "name": "owner",
          "type": "address"
        },
        {
          "indexed": true,
          "internalType": "address",
          "name": "operator",
          "type": "address"
        },
        {
          "indexed": false,
          "internalType": "bool",
          "name": "approved",
          "type": "bool"
        }
      ],
      "name": "ApprovalForAll",
      "type": "event"
    },
    {
      "anonymous": false,
      "inputs": [
        {
          "indexed": false,
          "internalType": "uint8",
          "name": "version",
          "type": "uint8"
        }
      ],
      "name": "Initialized",
      "type": "event"
    },
    {
      "anonymous": false,
      "inputs": [
        {
          "indexed": true,
          "internalType": "address",
          "name": "previousOwner",
          "type": "address"
        },
        {
          "indexed": true,
          "internalType": "address",
          "name": "newOwner",
          "type": "address"
        }
      ],
      "name": "OwnershipTransferred",
      "type": "event"
    },
    {
      "anonymous": false,
      "inputs": [
        {
          "indexed": true,
          "internalType": "address",
          "name": "from",
          "type": "address"
        },
        {
          "indexed": true,
          "internalType": "address",
          "name": "to",
          "type": "address"
        },
        {
          "indexed": true,
          "internalType": "uint256",
          "name": "tokenId",
          "type": "uint256"
        }
      ],
      "name": "Transfer",
      "type": "event"
    },
    {
      "inputs": [],
      "name": "_owner",
      "outputs": [
        {
          "internalType": "address",
          "name": "",
          "type": "address"
        }
      ],
      "stateMutability": "view",
      "type": "function",
      "constant": true
    },
    {
      "inputs": [
        {
          "internalType": "address",
          "name": "to",
          "type": "address"
        },
        {
          "internalType": "uint256",
          "name": "tokenId",
          "type": "uint256"
        }
      ],
      "name": "approve",
      "outputs": [],
      "stateMutability": "nonpayable",
      "type": "function"
    },
    {
      "inputs": [
        {
          "internalType": "address",
          "name": "owner",
          "type": "address"
        }
      ],
      "name": "balanceOf",
      "outputs": [
        {
          "internalType": "uint256",
          "name": "",
          "type": "uint256"
        }
      ],
      "stateMutability": "view",
      "type": "function",
      "constant": true
    },
    {
      "inputs": [
        {
          "internalType": "uint256",
          "name": "tokenId",
          "type": "uint256"
        }
      ],
      "name": "getApproved",
      "outputs": [
        {
          "internalType": "address",
          "name": "",
          "type": "address"
        }
      ],
      "stateMutability": "view",
      "type": "function",
      "constant": true
    },
    {
      "inputs": [
        {
          "internalType": "address",
          "name": "owner",
          "type": "address"
        },
        {
          "internalType": "address",
          "name": "operator",
          "type": "address"
        }
      ],
      "name": "isApprovedForAll",
      "outputs": [
        {
          "internalType": "bool",
          "name": "",
          "type": "bool"
        }
      ],
      "stateMutability": "view",
      "type": "function",
      "constant": true
    },
    {
      "inputs": [],
      "name": "name",
      "outputs": [
        {
          "internalType": "string",
          "name": "",
          "type": "string"
        }
      ],
      "stateMutability": "view",
      "type": "function",
      "constant": true
    },
    {
      "inputs": [],
      "name": "owner",
      "outputs": [
        {
          "internalType": "address",
          "name": "",
          "type": "address"
        }
      ],
      "stateMutability": "view",
      "type": "function",
      "constant": true
    },
    {
      "inputs": [
        {
          "internalType": "uint256",
          "name": "tokenId",
          "type": "uint256"
        }
      ],
      "name": "ownerOf",
      "outputs": [
        {
          "internalType": "address",
          "name": "",
          "type": "address"
        }
      ],
      "stateMutability": "view",
      "type": "function",
      "constant": true
    },
    {
      "inputs": [],
      "name": "renounceOwnership",
      "outputs": [],
      "stateMutability": "nonpayable",
      "type": "function"
    },
    {
      "inputs": [
        {
          "internalType": "address",
          "name": "from",
          "type": "address"
        },
        {
          "internalType": "address",
          "name": "to",
          "type": "address"
        },
        {
          "internalType": "uint256",
          "name": "tokenId",
          "type": "uint256"
        }
      ],
      "name": "safeTransferFrom",
      "outputs": [],
      "stateMutability": "nonpayable",
      "type": "function"
    },
    {
      "inputs": [
        {
          "internalType": "address",
          "name": "from",
          "type": "address"
        },
        {
          "internalType": "address",
          "name": "to",
          "type": "address"
        },
        {
          "internalType": "uint256",
          "name": "tokenId",
          "type": "uint256"
        },
        {
          "internalType": "bytes",
          "name": "_data",
          "type": "bytes"
        }
      ],
      "name": "safeTransferFrom",
      "outputs": [],
      "stateMutability": "nonpayable",
      "type": "function"
    },
    {
      "inputs": [],
      "name": "saleIsActive",
      "outputs": [
        {
          "internalType": "bool",
          "name": "",
          "type": "bool"
        }
      ],
      "stateMutability": "view",
      "type": "function",
      "constant": true
    },
    {
      "inputs": [
        {
          "internalType": "address",
          "name": "operator",
          "type": "address"
        },
        {
          "internalType": "bool",
          "name": "approved",
          "type": "bool"
        }
      ],
      "name": "setApprovalForAll",
      "outputs": [],
      "stateMutability": "nonpayable",
      "type": "function"
    },
    {
      "inputs": [],
      "name": "symbol",
      "outputs": [
        {
          "internalType": "string",
          "name": "",
          "type": "string"
        }
      ],
      "stateMutability": "view",
      "type": "function",
      "constant": true
    },
    {
      "inputs": [
        {
          "internalType": "uint256",
          "name": "index",
          "type": "uint256"
        }
      ],
      "name": "tokenByIndex",
      "outputs": [
        {
          "internalType": "uint256",
          "name": "",
          "type": "uint256"
        }
      ],
      "stateMutability": "view",
      "type": "function",
      "constant": true
    },
    {
      "inputs": [
        {
          "internalType": "address",
          "name": "owner",
          "type": "address"
        },
        {
          "internalType": "uint256",
          "name": "index",
          "type": "uint256"
        }
      ],
      "name": "tokenOfOwnerByIndex",
      "outputs": [
        {
          "internalType": "uint256",
          "name": "",
          "type": "uint256"
        }
      ],
      "stateMutability": "view",
      "type": "function",
      "constant": true
    },
    {
      "inputs": [],
      "name": "totalSupply",
      "outputs": [
        {
          "internalType": "uint256",
          "name": "",
          "type": "uint256"
        }
      ],
      "stateMutability": "view",
      "type": "function",
      "constant": true
    },
    {
      "inputs": [
        {
          "internalType": "address",
          "name": "from",
          "type": "address"
        },
        {
          "internalType": "address",
          "name": "to",
          "type": "address"
        },
        {
          "internalType": "uint256",
          "name": "tokenId",
          "type": "uint256"
        }
      ],
      "name": "transferFrom",
      "outputs": [],
      "stateMutability": "nonpayable",
      "type": "function"
    },
    {
      "inputs": [
        {
          "internalType": "address",
          "name": "newOwner",
          "type": "address"
        }
      ],
      "name": "transferOwnership",
      "outputs": [],
      "stateMutability": "nonpayable",
      "type": "function"
    },
    {
      "inputs": [
        {
          "internalType": "string",
          "name": "_name",
          "type": "string"
        },
        {
          "internalType": "string",
          "name": "_symbol",
          "type": "string"
        },
        {
          "internalType": "address",
          "name": "__owner",
          "type": "address"
        }
      ],
      "name": "initialize",
      "outputs": [],
      "stateMutability": "nonpayable",
      "type": "function"
    },
    {
      "inputs": [
        {
          "components": [
            {
              "internalType": "string",
              "name": "purchaseId",
              "type": "string"
            },
            {
              "internalType": "uint256",
              "name": "ticketId",
              "type": "uint256"
            },
            {
              "internalType": "string",
              "name": "tokenURI",
              "type": "string"
            },
            {
              "internalType": "address",
              "name": "buyer",
              "type": "address"
            },
            {
              "internalType": "uint256",
              "name": "cost",
              "type": "uint256"
            }
          ],
          "internalType": "struct BlocTick.TicketPurchase[]",
          "name": "purchases",
          "type": "tuple[]"
        }
      ],
      "name": "purchaseTickets",
      "outputs": [
        {
          "internalType": "uint256",
          "name": "",
          "type": "uint256"
        }
      ],
      "stateMutability": "payable",
      "type": "function",
      "payable": true
    },
    {
      "inputs": [
        {
          "internalType": "uint256",
          "name": "tokenId",
          "type": "uint256"
        }
      ],
      "name": "tokenURI",
      "outputs": [
        {
          "internalType": "string",
          "name": "",
          "type": "string"
        }
      ],
      "stateMutability": "view",
      "type": "function",
      "constant": true
    },
    {
      "inputs": [
        {
          "internalType": "bytes4",
          "name": "interfaceId",
          "type": "bytes4"
        }
      ],
      "name": "supportsInterface",
      "outputs": [
        {
          "internalType": "bool",
          "name": "",
          "type": "bool"
        }
      ],
      "stateMutability": "view",
      "type": "function",
      "constant": true
    },
    {
      "inputs": [],
      "name": "getInfo",
      "outputs": [
        {
          "internalType": "uint256",
          "name": "",
          "type": "uint256"
        },
        {
          "components": [
            {
              "internalType": "string",
              "name": "purchaseId",
              "type": "string"
            },
            {
              "internalType": "address",
              "name": "buyer",
              "type": "address"
            },
            {
              "internalType": "uint256",
              "name": "tokenId",
              "type": "uint256"
            },
            {
              "internalType": "uint256",
              "name": "ticketId",
              "type": "uint256"
            },
            {
              "internalType": "uint256",
              "name": "cost",
              "type": "uint256"
            }
          ],
          "internalType": "struct BlocTick.SuccessfulPurchase[]",
          "name": "",
          "type": "tuple[]"
        },
        {
          "components": [
            {
              "internalType": "string",
              "name": "name",
              "type": "string"
            },
            {
              "internalType": "string",
              "name": "description",
              "type": "string"
            },
            {
              "internalType": "enum BlocTick.TicketType",
              "name": "ticket_type",
              "type": "uint8"
            },
            {
              "internalType": "uint256",
              "name": "quantity_available",
              "type": "uint256"
            },
            {
              "internalType": "uint256",
              "name": "price",
              "type": "uint256"
            }
          ],
          "internalType": "struct BlocTick.Ticket[]",
          "name": "",
          "type": "tuple[]"
        }
      ],
      "stateMutability": "view",
      "type": "function",
      "constant": true
    },
    {
      "inputs": [
        {
          "components": [
            {
              "internalType": "string",
              "name": "name",
              "type": "string"
            },
            {
              "internalType": "string",
              "name": "description",
              "type": "string"
            },
            {
              "internalType": "enum BlocTick.TicketType",
              "name": "ticket_type",
              "type": "uint8"
            },
            {
              "internalType": "uint256",
              "name": "quantity_available",
              "type": "uint256"
            },
            {
              "internalType": "uint256",
              "name": "price",
              "type": "uint256"
            }
          ],
          "internalType": "struct BlocTick.Ticket[]",
          "name": "tickets",
          "type": "tuple[]"
        },
        {
          "internalType": "address",
          "name": "caller",
          "type": "address"
        }
      ],
      "name": "storeTickets",
      "outputs": [],
      "stateMutability": "nonpayable",
      "type": "function"
    },
    {
      "inputs": [
        {
          "internalType": "bool",
          "name": "_saleIsActive",
          "type": "bool"
        }
      ],
      "name": "setSaleIsActive",
      "outputs": [],
      "stateMutability": "nonpayable",
      "type": "function"
    },
    {
      "inputs": [
        {
          "internalType": "address",
          "name": "caller",
          "type": "address"
        }
      ],
      "name": "ownerTokens",
      "outputs": [
        {
          "internalType": "uint256[]",
          "name": "",
          "type": "uint256[]"
        }
      ],
      "stateMutability": "view",
      "type": "function",
      "constant": true
    }
  ],
  "bytecode": "0x608060405234801561001057600080fd5b50615ade80620000216000396000f3fe60806040526004361061019c5760003560e01c80636352211e116100ec578063b88d4fde1161008a578063c87b56dd11610064578063c87b56dd146105df578063e985e9c51461061c578063eb8d244414610659578063f2fde38b146106845761019c565b8063b88d4fde14610549578063bba7723e14610572578063c63197ce146105af5761019c565b80638da5cb5b116100c65780638da5cb5b1461049f57806395d89b41146104ca578063a22cb465146104f5578063b2bdfa7b1461051e5761019c565b80636352211e1461040e57806370a082311461044b578063715018a6146104885761019c565b806318160ddd116101595780633d181c7e116101335780633d181c7e1461035257806342842e0e1461037b5780634f6ccce7146103a45780635a9b0b89146103e15761019c565b806318160ddd146102c157806323b872dd146102ec5780632f745c59146103155761019c565b806301ffc9a7146101a157806302c88989146101de57806306fdde0314610207578063077f224a14610232578063081812fc1461025b578063095ea7b314610298575b600080fd5b3480156101ad57600080fd5b506101c860048036038101906101c3919061368b565b6106ad565b6040516101d591906136d3565b60405180910390f35b3480156101ea57600080fd5b506102056004803603810190610200919061371a565b6106bf565b005b34801561021357600080fd5b5061021c610759565b60405161022991906137e0565b60405180910390f35b34801561023e57600080fd5b5061025960048036038101906102549190613995565b6107eb565b005b34801561026757600080fd5b50610282600480360381019061027d9190613a56565b61093f565b60405161028f9190613a92565b60405180910390f35b3480156102a457600080fd5b506102bf60048036038101906102ba9190613aad565b6109c4565b005b3480156102cd57600080fd5b506102d6610adb565b6040516102e39190613afc565b60405180910390f35b3480156102f857600080fd5b50610313600480360381019061030e9190613b17565b610ae8565b005b34801561032157600080fd5b5061033c60048036038101906103379190613aad565b610b48565b6040516103499190613afc565b60405180910390f35b34801561035e57600080fd5b5061037960048036038101906103749190613d43565b610bed565b005b34801561038757600080fd5b506103a2600480360381019061039d9190613b17565b610d82565b005b3480156103b057600080fd5b506103cb60048036038101906103c69190613a56565b610da2565b6040516103d89190613afc565b60405180910390f35b3480156103ed57600080fd5b506103f6610e13565b604051610405939291906140f5565b60405180910390f35b34801561041a57600080fd5b5061043560048036038101906104309190613a56565b61115e565b6040516104429190613a92565b60405180910390f35b34801561045757600080fd5b50610472600480360381019061046d919061413a565b61120f565b60405161047f9190613afc565b60405180910390f35b34801561049457600080fd5b5061049d6112c6565b005b3480156104ab57600080fd5b506104b461134e565b6040516104c19190613a92565b60405180910390f35b3480156104d657600080fd5b506104df611378565b6040516104ec91906137e0565b60405180910390f35b34801561050157600080fd5b5061051c60048036038101906105179190614167565b61140a565b005b34801561052a57600080fd5b50610533611420565b6040516105409190613a92565b60405180910390f35b34801561055557600080fd5b50610570600480360381019061056b9190614248565b611447565b005b34801561057e57600080fd5b506105996004803603810190610594919061413a565b6114a9565b6040516105a6919061437a565b60405180910390f35b6105c960048036038101906105c49190614541565b611564565b6040516105d69190613afc565b60405180910390f35b3480156105eb57600080fd5b5061060660048036038101906106019190613a56565b611b4e565b60405161061391906137e0565b60405180910390f35b34801561062857600080fd5b50610643600480360381019061063e919061458a565b611b60565b60405161065091906136d3565b60405180910390f35b34801561066557600080fd5b5061066e611bf4565b60405161067b91906136d3565b60405180910390f35b34801561069057600080fd5b506106ab60048036038101906106a6919061413a565b611c08565b005b60006106b882611cff565b9050919050565b6106c7611d79565b73ffffffffffffffffffffffffffffffffffffffff166106e561134e565b73ffffffffffffffffffffffffffffffffffffffff161461073b576040517f08c379a000000000000000000000000000000000000000000000000000000000815260040161073290614616565b60405180910390fd5b8061013160146101000a81548160ff02191690831515021790555050565b60606065805461076890614665565b80601f016020809104026020016040519081016040528092919081815260200182805461079490614665565b80156107e15780601f106107b6576101008083540402835291602001916107e1565b820191906000526020600020905b8154815290600101906020018083116107c457829003601f168201915b5050505050905090565b60006107f76001611d81565b9050801561081b576001600060016101000a81548160ff0219169083151502179055505b6108258484611e71565b3361013360006101000a81548173ffffffffffffffffffffffffffffffffffffffff021916908373ffffffffffffffffffffffffffffffffffffffff1602179055508161013160006101000a81548173ffffffffffffffffffffffffffffffffffffffff021916908373ffffffffffffffffffffffffffffffffffffffff1602179055506103e861013081905550600161013160146101000a81548160ff0219169083151502179055506108d7611ece565b6108e082611c08565b80156109395760008060016101000a81548160ff0219169083151502179055507f7f26b83ff96e1f2b6a682f133852f6798a09c465da95921460cefb3847402498600160405161093091906146e8565b60405180910390a15b50505050565b600061094a82611f27565b610989576040517f08c379a000000000000000000000000000000000000000000000000000000000815260040161098090614775565b60405180910390fd5b6069600083815260200190815260200160002060009054906101000a900473ffffffffffffffffffffffffffffffffffffffff169050919050565b60006109cf8261115e565b90508073ffffffffffffffffffffffffffffffffffffffff168373ffffffffffffffffffffffffffffffffffffffff1603610a3f576040517f08c379a0000000000000000000000000000000000000000000000000000000008152600401610a3690614807565b60405180910390fd5b8073ffffffffffffffffffffffffffffffffffffffff16610a5e611d79565b73ffffffffffffffffffffffffffffffffffffffff161480610a8d5750610a8c81610a87611d79565b611b60565b5b610acc576040517f08c379a0000000000000000000000000000000000000000000000000000000008152600401610ac390614899565b60405180910390fd5b610ad68383611f93565b505050565b600060fd80549050905090565b610af9610af3611d79565b8261204c565b610b38576040517f08c379a0000000000000000000000000000000000000000000000000000000008152600401610b2f9061492b565b60405180910390fd5b610b4383838361212a565b505050565b6000610b538361120f565b8210610b94576040517f08c379a0000000000000000000000000000000000000000000000000000000008152600401610b8b906149bd565b60405180910390fd5b60fb60008473ffffffffffffffffffffffffffffffffffffffff1673ffffffffffffffffffffffffffffffffffffffff168152602001908152602001600020600083815260200190815260200160002054905092915050565b61013360009054906101000a900473ffffffffffffffffffffffffffffffffffffffff1673ffffffffffffffffffffffffffffffffffffffff163373ffffffffffffffffffffffffffffffffffffffff1614610c7e576040517f08c379a0000000000000000000000000000000000000000000000000000000008152600401610c7590614a29565b60405180910390fd5b8061013160009054906101000a900473ffffffffffffffffffffffffffffffffffffffff1673ffffffffffffffffffffffffffffffffffffffff168173ffffffffffffffffffffffffffffffffffffffff1614610d10576040517f08c379a0000000000000000000000000000000000000000000000000000000008152600401610d0790614a29565b60405180910390fd5b61012e73__TicketManager_________________________63a2a93cbf9091856040518363ffffffff1660e01b8152600401610d4d929190614bcf565b60006040518083038186803b158015610d6557600080fd5b505af4158015610d79573d6000803e3d6000fd5b50505050505050565b610d9d83838360405180602001604052806000815250611447565b505050565b6000610dac610adb565b8210610ded576040517f08c379a0000000000000000000000000000000000000000000000000000000008152600401610de490614c71565b60405180910390fd5b60fd8281548110610e0157610e00614c91565b5b90600052602060002001549050919050565b60006060806101325461012e60010161012e60000181805480602002602001604051908101604052809291908181526020016000905b82821015610f8157838290600052602060002090600502016040518060a0016040529081600082018054610e7c90614665565b80601f0160208091040260200160405190810160405280929190818152602001828054610ea890614665565b8015610ef55780601f10610eca57610100808354040283529160200191610ef5565b820191906000526020600020905b815481529060010190602001808311610ed857829003601f168201915b505050505081526020016001820160009054906101000a900473ffffffffffffffffffffffffffffffffffffffff1673ffffffffffffffffffffffffffffffffffffffff1673ffffffffffffffffffffffffffffffffffffffff168152602001600282015481526020016003820154815260200160048201548152505081526020019060010190610e49565b50505050915080805480602002602001604051908101604052809291908181526020016000905b8282101561114d57838290600052602060002090600502016040518060a0016040529081600082018054610fdb90614665565b80601f016020809104026020016040519081016040528092919081815260200182805461100790614665565b80156110545780601f1061102957610100808354040283529160200191611054565b820191906000526020600020905b81548152906001019060200180831161103757829003601f168201915b5050505050815260200160018201805461106d90614665565b80601f016020809104026020016040519081016040528092919081815260200182805461109990614665565b80156110e65780601f106110bb576101008083540402835291602001916110e6565b820191906000526020600020905b8154815290600101906020018083116110c957829003601f168201915b505050505081526020016002820160009054906101000a900460ff16600281111561111457611113613f6b565b5b600281111561112657611125613f6b565b5b81526020016003820154815260200160048201548152505081526020019060010190610fa8565b505050509050925092509250909192565b6000806067600084815260200190815260200160002060009054906101000a900473ffffffffffffffffffffffffffffffffffffffff169050600073ffffffffffffffffffffffffffffffffffffffff168173ffffffffffffffffffffffffffffffffffffffff1603611206576040517f08c379a00000000000000000000000000000000000000000000000000000000081526004016111fd90614d32565b60405180910390fd5b80915050919050565b60008073ffffffffffffffffffffffffffffffffffffffff168273ffffffffffffffffffffffffffffffffffffffff160361127f576040517f08c379a000000000000000000000000000000000000000000000000000000000815260040161127690614dc4565b60405180910390fd5b606860008373ffffffffffffffffffffffffffffffffffffffff1673ffffffffffffffffffffffffffffffffffffffff168152602001908152602001600020549050919050565b6112ce611d79565b73ffffffffffffffffffffffffffffffffffffffff166112ec61134e565b73ffffffffffffffffffffffffffffffffffffffff1614611342576040517f08c379a000000000000000000000000000000000000000000000000000000000815260040161133990614616565b60405180910390fd5b61134c6000612390565b565b600060c960009054906101000a900473ffffffffffffffffffffffffffffffffffffffff16905090565b60606066805461138790614665565b80601f01602080910402602001604051908101604052809291908181526020018280546113b390614665565b80156114005780601f106113d557610100808354040283529160200191611400565b820191906000526020600020905b8154815290600101906020018083116113e357829003601f168201915b5050505050905090565b61141c611415611d79565b8383612456565b5050565b61013160009054906101000a900473ffffffffffffffffffffffffffffffffffffffff1681565b611458611452611d79565b8361204c565b611497576040517f08c379a000000000000000000000000000000000000000000000000000000000815260040161148e9061492b565b60405180910390fd5b6114a3848484846125c2565b50505050565b606060006114b68361120f565b905060008167ffffffffffffffff8111156114d4576114d361380c565b5b6040519080825280602002602001820160405280156115025781602001602082028036833780820191505090505b5090506000820361151757809250505061155f565b60005b828110156115585761152c8582610b48565b82828151811061153f5761153e614c91565b5b602002602001018181525050808060010191505061151a565b5080925050505b919050565b600061013360009054906101000a900473ffffffffffffffffffffffffffffffffffffffff1673ffffffffffffffffffffffffffffffffffffffff163373ffffffffffffffffffffffffffffffffffffffff16146115f7576040517f08c379a00000000000000000000000000000000000000000000000000000000081526004016115ee90614a29565b60405180910390fd5b61013160149054906101000a900460ff1661161157600080fd5b600061012e73__TicketManager_________________________6341023a1e9091856040518363ffffffff1660e01b8152600401611650929190614f32565b602060405180830381865af415801561166d573d6000803e3d6000fd5b505050506040513d601f19601f820116820180604052508101906116919190614f77565b9050600061013360009054906101000a900473ffffffffffffffffffffffffffffffffffffffff169050600082341015611700576040517f08c379a00000000000000000000000000000000000000000000000000000000081526004016116f790614ff0565b60405180910390fd5b60005b8551811015611b4257600086828151811061172157611720614c91565b5b60200260200101519050611744816020015161012e61261e90919063ffffffff16565b61174e5750611b3d565b600061175b61012d612652565b90506000611778836020015161012e61266090919063ffffffff16565b9050600061013054828873ffffffffffffffffffffffffffffffffffffffff166378e2b4246040518163ffffffff1660e01b8152600401602060405180830381865afa1580156117cc573d6000803e3d6000fd5b505050506040513d601f19601f820116820180604052508101906117f09190614f77565b6117fa919061503f565b61180491906150c8565b90506000818361181491906150f9565b90506000833410158061183c575061183b866020015161012e61269290919063ffffffff16565b5b61184557600080fd5b61185e866020015161012e6126f790919063ffffffff16565b1561186c57600190506118a0565b611885866020015161012e61269290919063ffffffff16565b8015611895575083866080015110155b1561189f57600190505b5b80156119ee5761013160009054906101000a900473ffffffffffffffffffffffffffffffffffffffff1673ffffffffffffffffffffffffffffffffffffffff166108fc839081150290604051600060405180830381858888f1935050505015801561190f573d6000803e3d6000fd5b50816101326000828254611923919061512d565b925050819055508873ffffffffffffffffffffffffffffffffffffffff16638da5cb5b6040518163ffffffff1660e01b8152600401602060405180830381865afa158015611975573d6000803e3d6000fd5b505050506040513d601f19601f820116820180604052508101906119999190615198565b73ffffffffffffffffffffffffffffffffffffffff166108fc849081150290604051600060405180830381858888f193505050501580156119de573d6000803e3d6000fd5b5082886119eb919061512d565b97505b6119fc86606001518661275d565b611a15866020015161012e61293690919063ffffffff16565b611a2061012d612979565b611a2e85876040015161298f565b61012e6001016040518060a0016040528088600001518152602001886060015173ffffffffffffffffffffffffffffffffffffffff16815260200187815260200188602001518152602001886080015181525090806001815401808255809150506001900390600052602060002090600502016000909190919091506000820151816000019080519060200190611ac692919061357c565b5060208201518160010160006101000a81548173ffffffffffffffffffffffffffffffffffffffff021916908373ffffffffffffffffffffffffffffffffffffffff160217905550604082015181600201556060820151816003015560808201518160040155505086806001019750505050505050505b611703565b50809350505050919050565b6060611b5982612a03565b9050919050565b6000606a60008473ffffffffffffffffffffffffffffffffffffffff1673ffffffffffffffffffffffffffffffffffffffff16815260200190815260200160002060008373ffffffffffffffffffffffffffffffffffffffff1673ffffffffffffffffffffffffffffffffffffffff16815260200190815260200160002060009054906101000a900460ff16905092915050565b61013160149054906101000a900460ff1681565b611c10611d79565b73ffffffffffffffffffffffffffffffffffffffff16611c2e61134e565b73ffffffffffffffffffffffffffffffffffffffff1614611c84576040517f08c379a0000000000000000000000000000000000000000000000000000000008152600401611c7b90614616565b60405180910390fd5b600073ffffffffffffffffffffffffffffffffffffffff168173ffffffffffffffffffffffffffffffffffffffff1603611cf3576040517f08c379a0000000000000000000000000000000000000000000000000000000008152600401611cea90615237565b60405180910390fd5b611cfc81612390565b50565b60007f780e9d63000000000000000000000000000000000000000000000000000000007bffffffffffffffffffffffffffffffffffffffffffffffffffffffff1916827bffffffffffffffffffffffffffffffffffffffffffffffffffffffff19161480611d725750611d7182612b54565b5b9050919050565b600033905090565b60008060019054906101000a900460ff1615611df85760018260ff16148015611db05750611dae30612c36565b155b611def576040517f08c379a0000000000000000000000000000000000000000000000000000000008152600401611de6906152c9565b60405180910390fd5b60009050611e6c565b8160ff1660008054906101000a900460ff1660ff1610611e4d576040517f08c379a0000000000000000000000000000000000000000000000000000000008152600401611e44906152c9565b60405180910390fd5b816000806101000a81548160ff021916908360ff160217905550600190505b919050565b600060019054906101000a900460ff16611ec0576040517f08c379a0000000000000000000000000000000000000000000000000000000008152600401611eb79061535b565b60405180910390fd5b611eca8282612c59565b5050565b600060019054906101000a900460ff16611f1d576040517f08c379a0000000000000000000000000000000000000000000000000000000008152600401611f149061535b565b60405180910390fd5b611f25612cda565b565b60008073ffffffffffffffffffffffffffffffffffffffff166067600084815260200190815260200160002060009054906101000a900473ffffffffffffffffffffffffffffffffffffffff1673ffffffffffffffffffffffffffffffffffffffff1614159050919050565b816069600083815260200190815260200160002060006101000a81548173ffffffffffffffffffffffffffffffffffffffff021916908373ffffffffffffffffffffffffffffffffffffffff160217905550808273ffffffffffffffffffffffffffffffffffffffff166120068361115e565b73ffffffffffffffffffffffffffffffffffffffff167f8c5be1e5ebec7d5bd14f71427d1e84f3dd0314c0f7b2291e5b200ac8c7c3b92560405160405180910390a45050565b600061205782611f27565b612096576040517f08c379a000000000000000000000000000000000000000000000000000000000815260040161208d906153ed565b60405180910390fd5b60006120a18361115e565b90508073ffffffffffffffffffffffffffffffffffffffff168473ffffffffffffffffffffffffffffffffffffffff1614806120e357506120e28185611b60565b5b8061212157508373ffffffffffffffffffffffffffffffffffffffff166121098461093f565b73ffffffffffffffffffffffffffffffffffffffff16145b91505092915050565b8273ffffffffffffffffffffffffffffffffffffffff1661214a8261115e565b73ffffffffffffffffffffffffffffffffffffffff16146121a0576040517f08c379a00000000000000000000000000000000000000000000000000000000081526004016121979061547f565b60405180910390fd5b600073ffffffffffffffffffffffffffffffffffffffff168273ffffffffffffffffffffffffffffffffffffffff160361220f576040517f08c379a000000000000000000000000000000000000000000000000000000000815260040161220690615511565b60405180910390fd5b61221a838383612d3b565b612225600082611f93565b6001606860008573ffffffffffffffffffffffffffffffffffffffff1673ffffffffffffffffffffffffffffffffffffffff168152602001908152602001600020600082825461227591906150f9565b925050819055506001606860008473ffffffffffffffffffffffffffffffffffffffff1673ffffffffffffffffffffffffffffffffffffffff16815260200190815260200160002060008282546122cc919061512d565b92505081905550816067600083815260200190815260200160002060006101000a81548173ffffffffffffffffffffffffffffffffffffffff021916908373ffffffffffffffffffffffffffffffffffffffff160217905550808273ffffffffffffffffffffffffffffffffffffffff168473ffffffffffffffffffffffffffffffffffffffff167fddf252ad1be2c89b69c2b068fc378daa952ba7f163c4a11628f55a4df523b3ef60405160405180910390a461238b838383612d4b565b505050565b600060c960009054906101000a900473ffffffffffffffffffffffffffffffffffffffff1690508160c960006101000a81548173ffffffffffffffffffffffffffffffffffffffff021916908373ffffffffffffffffffffffffffffffffffffffff1602179055508173ffffffffffffffffffffffffffffffffffffffff168173ffffffffffffffffffffffffffffffffffffffff167f8be0079c531659141344cd1fd0a4f28419497f9722a3daafe3b4186f6b6457e060405160405180910390a35050565b8173ffffffffffffffffffffffffffffffffffffffff168373ffffffffffffffffffffffffffffffffffffffff16036124c4576040517f08c379a00000000000000000000000000000000000000000000000000000000081526004016124bb9061557d565b60405180910390fd5b80606a60008573ffffffffffffffffffffffffffffffffffffffff1673ffffffffffffffffffffffffffffffffffffffff16815260200190815260200160002060008473ffffffffffffffffffffffffffffffffffffffff1673ffffffffffffffffffffffffffffffffffffffff16815260200190815260200160002060006101000a81548160ff0219169083151502179055508173ffffffffffffffffffffffffffffffffffffffff168373ffffffffffffffffffffffffffffffffffffffff167f17307eab39ab6107e8899845ad3d59bd9653f200f220920489ca2b5937696c31836040516125b591906136d3565b60405180910390a3505050565b6125cd84848461212a565b6125d984848484612d50565b612618576040517f08c379a000000000000000000000000000000000000000000000000000000000815260040161260f9061560f565b60405180910390fd5b50505050565b60008083600001838154811061263757612636614c91565b5b90600052602060002090600502016003015411905092915050565b600081600001549050919050565b600082600001828154811061267857612677614c91565b5b906000526020600020906005020160040154905092915050565b60006002808111156126a7576126a6613f6b565b5b8360000183815481106126bd576126bc614c91565b5b906000526020600020906005020160020160009054906101000a900460ff1660028111156126ee576126ed613f6b565b5b14905092915050565b60006001600281111561270d5761270c613f6b565b5b83600001838154811061272357612722614c91565b5b906000526020600020906005020160020160009054906101000a900460ff16600281111561275457612753613f6b565b5b14905092915050565b600073ffffffffffffffffffffffffffffffffffffffff168273ffffffffffffffffffffffffffffffffffffffff16036127cc576040517f08c379a00000000000000000000000000000000000000000000000000000000081526004016127c39061567b565b60405180910390fd5b6127d581611f27565b15612815576040517f08c379a000000000000000000000000000000000000000000000000000000000815260040161280c906156e7565b60405180910390fd5b61282160008383612d3b565b6001606860008473ffffffffffffffffffffffffffffffffffffffff1673ffffffffffffffffffffffffffffffffffffffff1681526020019081526020016000206000828254612871919061512d565b92505081905550816067600083815260200190815260200160002060006101000a81548173ffffffffffffffffffffffffffffffffffffffff021916908373ffffffffffffffffffffffffffffffffffffffff160217905550808273ffffffffffffffffffffffffffffffffffffffff16600073ffffffffffffffffffffffffffffffffffffffff167fddf252ad1be2c89b69c2b068fc378daa952ba7f163c4a11628f55a4df523b3ef60405160405180910390a461293260008383612d4b565b5050565b600182600001828154811061294e5761294d614c91565b5b9060005260206000209060050201600301600082825461296e91906150f9565b925050819055505050565b6001816000016000828254019250508190555050565b61299882611f27565b6129d7576040517f08c379a00000000000000000000000000000000000000000000000000000000081526004016129ce90615779565b60405180910390fd5b806097600084815260200190815260200160002090805190602001906129fe92919061357c565b505050565b6060612a0e82611f27565b612a4d576040517f08c379a0000000000000000000000000000000000000000000000000000000008152600401612a449061580b565b60405180910390fd5b6000609760008481526020019081526020016000208054612a6d90614665565b80601f0160208091040260200160405190810160405280929190818152602001828054612a9990614665565b8015612ae65780601f10612abb57610100808354040283529160200191612ae6565b820191906000526020600020905b815481529060010190602001808311612ac957829003601f168201915b505050505090506000612af7612ed7565b90506000815103612b0c578192505050612b4f565b600082511115612b41578082604051602001612b29929190615867565b60405160208183030381529060405292505050612b4f565b612b4a84612eee565b925050505b919050565b60007f80ac58cd000000000000000000000000000000000000000000000000000000007bffffffffffffffffffffffffffffffffffffffffffffffffffffffff1916827bffffffffffffffffffffffffffffffffffffffffffffffffffffffff19161480612c1f57507f5b5e139f000000000000000000000000000000000000000000000000000000007bffffffffffffffffffffffffffffffffffffffffffffffffffffffff1916827bffffffffffffffffffffffffffffffffffffffffffffffffffffffff1916145b80612c2f5750612c2e82612f95565b5b9050919050565b6000808273ffffffffffffffffffffffffffffffffffffffff163b119050919050565b600060019054906101000a900460ff16612ca8576040517f08c379a0000000000000000000000000000000000000000000000000000000008152600401612c9f9061535b565b60405180910390fd5b8160659080519060200190612cbe92919061357c565b508060669080519060200190612cd592919061357c565b505050565b600060019054906101000a900460ff16612d29576040517f08c379a0000000000000000000000000000000000000000000000000000000008152600401612d209061535b565b60405180910390fd5b612d39612d34611d79565b612390565b565b612d46838383612fff565b505050565b505050565b6000612d718473ffffffffffffffffffffffffffffffffffffffff16612c36565b15612eca578373ffffffffffffffffffffffffffffffffffffffff1663150b7a02612d9a611d79565b8786866040518563ffffffff1660e01b8152600401612dbc94939291906158e0565b6020604051808303816000875af1925050508015612df857506040513d601f19601f82011682018060405250810190612df59190615941565b60015b612e7a573d8060008114612e28576040519150601f19603f3d011682016040523d82523d6000602084013e612e2d565b606091505b506000815103612e72576040517f08c379a0000000000000000000000000000000000000000000000000000000008152600401612e699061560f565b60405180910390fd5b805181602001fd5b63150b7a0260e01b7bffffffffffffffffffffffffffffffffffffffffffffffffffffffff1916817bffffffffffffffffffffffffffffffffffffffffffffffffffffffff191614915050612ecf565b600190505b949350505050565b606060405180602001604052806000815250905090565b6060612ef982611f27565b612f38576040517f08c379a0000000000000000000000000000000000000000000000000000000008152600401612f2f906159e0565b60405180910390fd5b6000612f42612ed7565b90506000815111612f625760405180602001604052806000815250612f8d565b80612f6c84613111565b604051602001612f7d929190615867565b6040516020818303038152906040525b915050919050565b60007f01ffc9a7000000000000000000000000000000000000000000000000000000007bffffffffffffffffffffffffffffffffffffffffffffffffffffffff1916827bffffffffffffffffffffffffffffffffffffffffffffffffffffffff1916149050919050565b61300a838383613271565b600073ffffffffffffffffffffffffffffffffffffffff168373ffffffffffffffffffffffffffffffffffffffff160361304c5761304781613276565b61308b565b8173ffffffffffffffffffffffffffffffffffffffff168373ffffffffffffffffffffffffffffffffffffffff161461308a5761308983826132bf565b5b5b600073ffffffffffffffffffffffffffffffffffffffff168273ffffffffffffffffffffffffffffffffffffffff16036130cd576130c88161342c565b61310c565b8273ffffffffffffffffffffffffffffffffffffffff168273ffffffffffffffffffffffffffffffffffffffff161461310b5761310a82826134fd565b5b5b505050565b606060008203613158576040518060400160405280600181526020017f3000000000000000000000000000000000000000000000000000000000000000815250905061326c565b600082905060005b6000821461318a57808061317390615a00565b915050600a8261318391906150c8565b9150613160565b60008167ffffffffffffffff8111156131a6576131a561380c565b5b6040519080825280601f01601f1916602001820160405280156131d85781602001600182028036833780820191505090505b5090505b60008514613265576001826131f191906150f9565b9150600a856132009190615a48565b603061320c919061512d565b60f81b81838151811061322257613221614c91565b5b60200101907effffffffffffffffffffffffffffffffffffffffffffffffffffffffffffff1916908160001a905350600a8561325e91906150c8565b94506131dc565b8093505050505b919050565b505050565b60fd8054905060fe60008381526020019081526020016000208190555060fd81908060018154018082558091505060019003906000526020600020016000909190919091505550565b600060016132cc8461120f565b6132d691906150f9565b9050600060fc60008481526020019081526020016000205490508181146133bb57600060fb60008673ffffffffffffffffffffffffffffffffffffffff1673ffffffffffffffffffffffffffffffffffffffff16815260200190815260200160002060008481526020019081526020016000205490508060fb60008773ffffffffffffffffffffffffffffffffffffffff1673ffffffffffffffffffffffffffffffffffffffff1681526020019081526020016000206000848152602001908152602001600020819055508160fc600083815260200190815260200160002081905550505b60fc60008481526020019081526020016000206000905560fb60008573ffffffffffffffffffffffffffffffffffffffff1673ffffffffffffffffffffffffffffffffffffffff16815260200190815260200160002060008381526020019081526020016000206000905550505050565b6000600160fd8054905061344091906150f9565b9050600060fe6000848152602001908152602001600020549050600060fd83815481106134705761346f614c91565b5b906000526020600020015490508060fd838154811061349257613491614c91565b5b90600052602060002001819055508160fe60008381526020019081526020016000208190555060fe60008581526020019081526020016000206000905560fd8054806134e1576134e0615a79565b5b6001900381819060005260206000200160009055905550505050565b60006135088361120f565b90508160fb60008573ffffffffffffffffffffffffffffffffffffffff1673ffffffffffffffffffffffffffffffffffffffff1681526020019081526020016000206000838152602001908152602001600020819055508060fc600084815260200190815260200160002081905550505050565b82805461358890614665565b90600052602060002090601f0160209004810192826135aa57600085556135f1565b82601f106135c357805160ff19168380011785556135f1565b828001600101855582156135f1579182015b828111156135f05782518255916020019190600101906135d5565b5b5090506135fe9190613602565b5090565b5b8082111561361b576000816000905550600101613603565b5090565b6000604051905090565b600080fd5b600080fd5b60007fffffffff0000000000000000000000000000000000000000000000000000000082169050919050565b61366881613633565b811461367357600080fd5b50565b6000813590506136858161365f565b92915050565b6000602082840312156136a1576136a0613629565b5b60006136af84828501613676565b91505092915050565b60008115159050919050565b6136cd816136b8565b82525050565b60006020820190506136e860008301846136c4565b92915050565b6136f7816136b8565b811461370257600080fd5b50565b600081359050613714816136ee565b92915050565b6000602082840312156137305761372f613629565b5b600061373e84828501613705565b91505092915050565b600081519050919050565b600082825260208201905092915050565b60005b83811015613781578082015181840152602081019050613766565b83811115613790576000848401525b50505050565b6000601f19601f8301169050919050565b60006137b282613747565b6137bc8185613752565b93506137cc818560208601613763565b6137d581613796565b840191505092915050565b600060208201905081810360008301526137fa81846137a7565b905092915050565b600080fd5b600080fd5b7f4e487b7100000000000000000000000000000000000000000000000000000000600052604160045260246000fd5b61384482613796565b810181811067ffffffffffffffff821117156138635761386261380c565b5b80604052505050565b600061387661361f565b9050613882828261383b565b919050565b600067ffffffffffffffff8211156138a2576138a161380c565b5b6138ab82613796565b9050602081019050919050565b82818337600083830152505050565b60006138da6138d584613887565b61386c565b9050828152602081018484840111156138f6576138f5613807565b5b6139018482856138b8565b509392505050565b600082601f83011261391e5761391d613802565b5b813561392e8482602086016138c7565b91505092915050565b600073ffffffffffffffffffffffffffffffffffffffff82169050919050565b600061396282613937565b9050919050565b61397281613957565b811461397d57600080fd5b50565b60008135905061398f81613969565b92915050565b6000806000606084860312156139ae576139ad613629565b5b600084013567ffffffffffffffff8111156139cc576139cb61362e565b5b6139d886828701613909565b935050602084013567ffffffffffffffff8111156139f9576139f861362e565b5b613a0586828701613909565b9250506040613a1686828701613980565b9150509250925092565b6000819050919050565b613a3381613a20565b8114613a3e57600080fd5b50565b600081359050613a5081613a2a565b92915050565b600060208284031215613a6c57613a6b613629565b5b6000613a7a84828501613a41565b91505092915050565b613a8c81613957565b82525050565b6000602082019050613aa76000830184613a83565b92915050565b60008060408385031215613ac457613ac3613629565b5b6000613ad285828601613980565b9250506020613ae385828601613a41565b9150509250929050565b613af681613a20565b82525050565b6000602082019050613b116000830184613aed565b92915050565b600080600060608486031215613b3057613b2f613629565b5b6000613b3e86828701613980565b9350506020613b4f86828701613980565b9250506040613b6086828701613a41565b9150509250925092565b600067ffffffffffffffff821115613b8557613b8461380c565b5b602082029050602081019050919050565b600080fd5b600080fd5b600080fd5b60038110613bb257600080fd5b50565b600081359050613bc481613ba5565b92915050565b600060a08284031215613be057613bdf613b9b565b5b613bea60a061386c565b9050600082013567ffffffffffffffff811115613c0a57613c09613ba0565b5b613c1684828501613909565b600083015250602082013567ffffffffffffffff811115613c3a57613c39613ba0565b5b613c4684828501613909565b6020830152506040613c5a84828501613bb5565b6040830152506060613c6e84828501613a41565b6060830152506080613c8284828501613a41565b60808301525092915050565b6000613ca1613c9c84613b6a565b61386c565b90508083825260208201905060208402830185811115613cc457613cc3613b96565b5b835b81811015613d0b57803567ffffffffffffffff811115613ce957613ce8613802565b5b808601613cf68982613bca565b85526020850194505050602081019050613cc6565b5050509392505050565b600082601f830112613d2a57613d29613802565b5b8135613d3a848260208601613c8e565b91505092915050565b60008060408385031215613d5a57613d59613629565b5b600083013567ffffffffffffffff811115613d7857613d7761362e565b5b613d8485828601613d15565b9250506020613d9585828601613980565b9150509250929050565b600081519050919050565b600082825260208201905092915050565b6000819050602082019050919050565b600082825260208201905092915050565b6000613de782613747565b613df18185613dcb565b9350613e01818560208601613763565b613e0a81613796565b840191505092915050565b613e1e81613957565b82525050565b613e2d81613a20565b82525050565b600060a0830160008301518482036000860152613e508282613ddc565b9150506020830151613e656020860182613e15565b506040830151613e786040860182613e24565b506060830151613e8b6060860182613e24565b506080830151613e9e6080860182613e24565b508091505092915050565b6000613eb58383613e33565b905092915050565b6000602082019050919050565b6000613ed582613d9f565b613edf8185613daa565b935083602082028501613ef185613dbb565b8060005b85811015613f2d5784840389528151613f0e8582613ea9565b9450613f1983613ebd565b925060208a01995050600181019050613ef5565b50829750879550505050505092915050565b600081519050919050565b600082825260208201905092915050565b6000819050602082019050919050565b7f4e487b7100000000000000000000000000000000000000000000000000000000600052602160045260246000fd5b60038110613fab57613faa613f6b565b5b50565b6000819050613fbc82613f9a565b919050565b6000613fcc82613fae565b9050919050565b613fdc81613fc1565b82525050565b600060a0830160008301518482036000860152613fff8282613ddc565b915050602083015184820360208601526140198282613ddc565b915050604083015161402e6040860182613fd3565b5060608301516140416060860182613e24565b5060808301516140546080860182613e24565b508091505092915050565b600061406b8383613fe2565b905092915050565b6000602082019050919050565b600061408b82613f3f565b6140958185613f4a565b9350836020820285016140a785613f5b565b8060005b858110156140e357848403895281516140c4858261405f565b94506140cf83614073565b925060208a019950506001810190506140ab565b50829750879550505050505092915050565b600060608201905061410a6000830186613aed565b818103602083015261411c8185613eca565b905081810360408301526141308184614080565b9050949350505050565b6000602082840312156141505761414f613629565b5b600061415e84828501613980565b91505092915050565b6000806040838503121561417e5761417d613629565b5b600061418c85828601613980565b925050602061419d85828601613705565b9150509250929050565b600067ffffffffffffffff8211156141c2576141c161380c565b5b6141cb82613796565b9050602081019050919050565b60006141eb6141e6846141a7565b61386c565b90508281526020810184848401111561420757614206613807565b5b6142128482856138b8565b509392505050565b600082601f83011261422f5761422e613802565b5b813561423f8482602086016141d8565b91505092915050565b6000806000806080858703121561426257614261613629565b5b600061427087828801613980565b945050602061428187828801613980565b935050604061429287828801613a41565b925050606085013567ffffffffffffffff8111156142b3576142b261362e565b5b6142bf8782880161421a565b91505092959194509250565b600081519050919050565b600082825260208201905092915050565b6000819050602082019050919050565b60006143038383613e24565b60208301905092915050565b6000602082019050919050565b6000614327826142cb565b61433181856142d6565b935061433c836142e7565b8060005b8381101561436d57815161435488826142f7565b975061435f8361430f565b925050600181019050614340565b5085935050505092915050565b60006020820190508181036000830152614394818461431c565b905092915050565b600067ffffffffffffffff8211156143b7576143b661380c565b5b602082029050602081019050919050565b600060a082840312156143de576143dd613b9b565b5b6143e860a061386c565b9050600082013567ffffffffffffffff81111561440857614407613ba0565b5b61441484828501613909565b600083015250602061442884828501613a41565b602083015250604082013567ffffffffffffffff81111561444c5761444b613ba0565b5b61445884828501613909565b604083015250606061446c84828501613980565b606083015250608061448084828501613a41565b60808301525092915050565b600061449f61449a8461439c565b61386c565b905080838252602082019050602084028301858111156144c2576144c1613b96565b5b835b8181101561450957803567ffffffffffffffff8111156144e7576144e6613802565b5b8086016144f489826143c8565b855260208501945050506020810190506144c4565b5050509392505050565b600082601f83011261452857614527613802565b5b813561453884826020860161448c565b91505092915050565b60006020828403121561455757614556613629565b5b600082013567ffffffffffffffff8111156145755761457461362e565b5b61458184828501614513565b91505092915050565b600080604083850312156145a1576145a0613629565b5b60006145af85828601613980565b92505060206145c085828601613980565b9150509250929050565b7f4f776e61626c653a2063616c6c6572206973206e6f7420746865206f776e6572600082015250565b6000614600602083613752565b915061460b826145ca565b602082019050919050565b6000602082019050818103600083015261462f816145f3565b9050919050565b7f4e487b7100000000000000000000000000000000000000000000000000000000600052602260045260246000fd5b6000600282049050600182168061467d57607f821691505b6020821081036146905761468f614636565b5b50919050565b6000819050919050565b600060ff82169050919050565b6000819050919050565b60006146d26146cd6146c884614696565b6146ad565b6146a0565b9050919050565b6146e2816146b7565b82525050565b60006020820190506146fd60008301846146d9565b92915050565b7f4552433732313a20617070726f76656420717565727920666f72206e6f6e657860008201527f697374656e7420746f6b656e0000000000000000000000000000000000000000602082015250565b600061475f602c83613752565b915061476a82614703565b604082019050919050565b6000602082019050818103600083015261478e81614752565b9050919050565b7f4552433732313a20617070726f76616c20746f2063757272656e74206f776e6560008201527f7200000000000000000000000000000000000000000000000000000000000000602082015250565b60006147f1602183613752565b91506147fc82614795565b604082019050919050565b60006020820190508181036000830152614820816147e4565b9050919050565b7f4552433732313a20617070726f76652063616c6c6572206973206e6f74206f7760008201527f6e6572206e6f7220617070726f76656420666f7220616c6c0000000000000000602082015250565b6000614883603883613752565b915061488e82614827565b604082019050919050565b600060208201905081810360008301526148b281614876565b9050919050565b7f4552433732313a207472616e736665722063616c6c6572206973206e6f74206f60008201527f776e6572206e6f7220617070726f766564000000000000000000000000000000602082015250565b6000614915603183613752565b9150614920826148b9565b604082019050919050565b6000602082019050818103600083015261494481614908565b9050919050565b7f455243373231456e756d657261626c653a206f776e657220696e646578206f7560008201527f74206f6620626f756e6473000000000000000000000000000000000000000000602082015250565b60006149a7602b83613752565b91506149b28261494b565b604082019050919050565b600060208201905081810360008301526149d68161499a565b9050919050565b7f4552525f41434345535300000000000000000000000000000000000000000000600082015250565b6000614a13600a83613752565b9150614a1e826149dd565b602082019050919050565b60006020820190508181036000830152614a4281614a06565b9050919050565b8082525050565b600082825260208201905092915050565b600082825260208201905092915050565b6000614a7d82613747565b614a878185614a61565b9350614a97818560208601613763565b614aa081613796565b840191505092915050565b614ab481613fc1565b82525050565b614ac381613a20565b82525050565b600060a0830160008301518482036000860152614ae68282614a72565b91505060208301518482036020860152614b008282614a72565b9150506040830151614b156040860182614aab565b506060830151614b286060860182614aba565b506080830151614b3b6080860182614aba565b508091505092915050565b6000614b528383614ac9565b905092915050565b6000614b6582613f3f565b614b6f8185614a50565b935083602082028501614b8185613f5b565b8060005b85811015614bbd5784840389528151614b9e8582614b46565b9450614ba983614073565b925060208a01995050600181019050614b85565b50829750879550505050505092915050565b6000604082019050614be46000830185614a49565b8181036020830152614bf68184614b5a565b90509392505050565b7f455243373231456e756d657261626c653a20676c6f62616c20696e646578206f60008201527f7574206f6620626f756e64730000000000000000000000000000000000000000602082015250565b6000614c5b602c83613752565b9150614c6682614bff565b604082019050919050565b60006020820190508181036000830152614c8a81614c4e565b9050919050565b7f4e487b7100000000000000000000000000000000000000000000000000000000600052603260045260246000fd5b7f4552433732313a206f776e657220717565727920666f72206e6f6e657869737460008201527f656e7420746f6b656e0000000000000000000000000000000000000000000000602082015250565b6000614d1c602983613752565b9150614d2782614cc0565b604082019050919050565b60006020820190508181036000830152614d4b81614d0f565b9050919050565b7f4552433732313a2062616c616e636520717565727920666f7220746865207a6560008201527f726f206164647265737300000000000000000000000000000000000000000000602082015250565b6000614dae602a83613752565b9150614db982614d52565b604082019050919050565b60006020820190508181036000830152614ddd81614da1565b9050919050565b600081519050919050565b600082825260208201905092915050565b6000819050602082019050919050565b614e1981613957565b82525050565b600060a0830160008301518482036000860152614e3c8282614a72565b9150506020830151614e516020860182614aba565b5060408301518482036040860152614e698282614a72565b9150506060830151614e7e6060860182614e10565b506080830151614e916080860182614aba565b508091505092915050565b6000614ea88383614e1f565b905092915050565b6000602082019050919050565b6000614ec882614de4565b614ed28185614def565b935083602082028501614ee485614e00565b8060005b85811015614f205784840389528151614f018582614e9c565b9450614f0c83614eb0565b925060208a01995050600181019050614ee8565b50829750879550505050505092915050565b6000604082019050614f476000830185614a49565b8181036020830152614f598184614ebd565b90509392505050565b600081519050614f7181613a2a565b92915050565b600060208284031215614f8d57614f8c613629565b5b6000614f9b84828501614f62565b91505092915050565b7f4552525f494e53554646494349454e545f46554e445300000000000000000000600082015250565b6000614fda601683613752565b9150614fe582614fa4565b602082019050919050565b6000602082019050818103600083015261500981614fcd565b9050919050565b7f4e487b7100000000000000000000000000000000000000000000000000000000600052601160045260246000fd5b600061504a82613a20565b915061505583613a20565b9250817fffffffffffffffffffffffffffffffffffffffffffffffffffffffffffffffff048311821515161561508e5761508d615010565b5b828202905092915050565b7f4e487b7100000000000000000000000000000000000000000000000000000000600052601260045260246000fd5b60006150d382613a20565b91506150de83613a20565b9250826150ee576150ed615099565b5b828204905092915050565b600061510482613a20565b915061510f83613a20565b92508282101561512257615121615010565b5b828203905092915050565b600061513882613a20565b915061514383613a20565b9250827fffffffffffffffffffffffffffffffffffffffffffffffffffffffffffffffff0382111561517857615177615010565b5b828201905092915050565b60008151905061519281613969565b92915050565b6000602082840312156151ae576151ad613629565b5b60006151bc84828501615183565b91505092915050565b7f4f776e61626c653a206e6577206f776e657220697320746865207a65726f206160008201527f6464726573730000000000000000000000000000000000000000000000000000602082015250565b6000615221602683613752565b915061522c826151c5565b604082019050919050565b6000602082019050818103600083015261525081615214565b9050919050565b7f496e697469616c697a61626c653a20636f6e747261637420697320616c72656160008201527f647920696e697469616c697a6564000000000000000000000000000000000000602082015250565b60006152b3602e83613752565b91506152be82615257565b604082019050919050565b600060208201905081810360008301526152e2816152a6565b9050919050565b7f496e697469616c697a61626c653a20636f6e7472616374206973206e6f74206960008201527f6e697469616c697a696e67000000000000000000000000000000000000000000602082015250565b6000615345602b83613752565b9150615350826152e9565b604082019050919050565b6000602082019050818103600083015261537481615338565b9050919050565b7f4552433732313a206f70657261746f7220717565727920666f72206e6f6e657860008201527f697374656e7420746f6b656e0000000000000000000000000000000000000000602082015250565b60006153d7602c83613752565b91506153e28261537b565b604082019050919050565b60006020820190508181036000830152615406816153ca565b9050919050565b7f4552433732313a207472616e736665722066726f6d20696e636f72726563742060008201527f6f776e6572000000000000000000000000000000000000000000000000000000602082015250565b6000615469602583613752565b91506154748261540d565b604082019050919050565b600060208201905081810360008301526154988161545c565b9050919050565b7f4552433732313a207472616e7366657220746f20746865207a65726f2061646460008201527f7265737300000000000000000000000000000000000000000000000000000000602082015250565b60006154fb602483613752565b91506155068261549f565b604082019050919050565b6000602082019050818103600083015261552a816154ee565b9050919050565b7f4552433732313a20617070726f766520746f2063616c6c657200000000000000600082015250565b6000615567601983613752565b915061557282615531565b602082019050919050565b600060208201905081810360008301526155968161555a565b9050919050565b7f4552433732313a207472616e7366657220746f206e6f6e20455243373231526560008201527f63656976657220696d706c656d656e7465720000000000000000000000000000602082015250565b60006155f9603283613752565b91506156048261559d565b604082019050919050565b60006020820190508181036000830152615628816155ec565b9050919050565b7f4552433732313a206d696e7420746f20746865207a65726f2061646472657373600082015250565b6000615665602083613752565b91506156708261562f565b602082019050919050565b6000602082019050818103600083015261569481615658565b9050919050565b7f4552433732313a20746f6b656e20616c7265616479206d696e74656400000000600082015250565b60006156d1601c83613752565b91506156dc8261569b565b602082019050919050565b60006020820190508181036000830152615700816156c4565b9050919050565b7f45524337323155524953746f726167653a2055524920736574206f66206e6f6e60008201527f6578697374656e7420746f6b656e000000000000000000000000000000000000602082015250565b6000615763602e83613752565b915061576e82615707565b604082019050919050565b6000602082019050818103600083015261579281615756565b9050919050565b7f45524337323155524953746f726167653a2055524920717565727920666f722060008201527f6e6f6e6578697374656e7420746f6b656e000000000000000000000000000000602082015250565b60006157f5603183613752565b915061580082615799565b604082019050919050565b60006020820190508181036000830152615824816157e8565b9050919050565b600081905092915050565b600061584182613747565b61584b818561582b565b935061585b818560208601613763565b80840191505092915050565b60006158738285615836565b915061587f8284615836565b91508190509392505050565b600081519050919050565b600082825260208201905092915050565b60006158b28261588b565b6158bc8185615896565b93506158cc818560208601613763565b6158d581613796565b840191505092915050565b60006080820190506158f56000830187613a83565b6159026020830186613a83565b61590f6040830185613aed565b818103606083015261592181846158a7565b905095945050505050565b60008151905061593b8161365f565b92915050565b60006020828403121561595757615956613629565b5b60006159658482850161592c565b91505092915050565b7f4552433732314d657461646174613a2055524920717565727920666f72206e6f60008201527f6e6578697374656e7420746f6b656e0000000000000000000000000000000000602082015250565b60006159ca602f83613752565b91506159d58261596e565b604082019050919050565b600060208201905081810360008301526159f9816159bd565b9050919050565b6000615a0b82613a20565b91507fffffffffffffffffffffffffffffffffffffffffffffffffffffffffffffffff8203615a3d57615a3c615010565b5b600182019050919050565b6000615a5382613a20565b9150615a5e83613a20565b925082615a6e57615a6d615099565b5b828206905092915050565b7f4e487b7100000000000000000000000000000000000000000000000000000000600052603160045260246000fdfea26469706673582212207b03e4355b838156caa392b150fbf51abfbd1a50dc1d48466d61ee7af782dbc264736f6c634300080d0033",
  "immutableReferences": {},
  "source": "// SPDX-License-Identifier: GPL-3.0\npragma solidity >=0.6.0 <0.9.0;\n\nimport \"@openzeppelin/contracts-upgradeable/token/ERC721/ERC721Upgradeable.sol\";\nimport \"@openzeppelin/contracts-upgradeable/token/ERC721/extensions/ERC721URIStorageUpgradeable.sol\";\nimport \"@openzeppelin/contracts/utils/Counters.sol\";\nimport \"./TicketManager.sol\";\nimport \"./BlocTick.sol\";\nimport \"@openzeppelin/contracts-upgradeable/access/OwnableUpgradeable.sol\";\nimport \"@openzeppelin/contracts-upgradeable/proxy/utils/Initializable.sol\";\nimport \"@openzeppelin/contracts-upgradeable/token/ERC721/extensions/ERC721EnumerableUpgradeable.sol\";\nimport \"./EventFactory.sol\";\n\ncontract Event is\n    Initializable,\n    ERC721URIStorageUpgradeable,\n    OwnableUpgradeable,\n    ERC721EnumerableUpgradeable\n{\n    using Counters for Counters.Counter;\n    using TicketManager for TicketManager.Manager;\n    Counters.Counter private tokenCounter;\n    TicketManager.Manager private ticketManager;\n    uint256 internal PERCENTS_DIVIDER;\n\n    address public _owner;\n    bool public saleIsActive;\n    uint256 private totalSold;\n    address private _factory;\n\n    modifier onlyFactory() {\n        require(msg.sender == _factory, \"ERR_ACCESS\");\n        _;\n    }\n\n    modifier onlyEventCreator(address caller) {\n        require(caller == _owner, \"ERR_ACCESS\");\n        _;\n    }\n\n    function initialize(\n        string memory _name,\n        string memory _symbol,\n        address __owner\n    ) public initializer {\n        __ERC721_init(_name, _symbol);\n        _factory = msg.sender;\n        _owner = __owner;\n        PERCENTS_DIVIDER = 1000;\n        saleIsActive = true;\n        __Ownable_init();\n        transferOwnership(__owner);\n    }\n\n    function purchaseTickets(BlocTick.TicketPurchase[] memory purchases)\n        external\n        payable\n        onlyFactory\n        returns (uint256)\n    {\n        require(saleIsActive);\n        uint256 totalCost = ticketManager.getTotalCost(purchases);\n        EventFactory factory = EventFactory(_factory);\n        uint256 feesEarned = 0;\n        require(msg.value >= totalCost, \"ERR_INSUFFICIENT_FUNDS\");\n        for (uint256 i = 0; i < purchases.length; ) {\n            BlocTick.TicketPurchase memory purchase = purchases[i];\n            if (!ticketManager.stillAvailable(purchase.ticketId)) continue;\n            uint256 _tokenId = tokenCounter.current();\n            uint256 ticketCost = ticketManager.getCost(purchase.ticketId);\n            uint256 platform_fee = (factory.platform_percent() * ticketCost) /\n                PERCENTS_DIVIDER;\n            uint256 creator_fee = ticketCost - platform_fee;\n            bool shouldPay = false;\n            require(\n                msg.value >= ticketCost ||\n                    ticketManager.isDonation(purchase.ticketId)\n            );\n            if (ticketManager.isPaid(purchase.ticketId)) {\n                shouldPay = true;\n            } else if (\n                ticketManager.isDonation(purchase.ticketId) &&\n                purchase.cost >= ticketCost\n            ) {\n                shouldPay = true;\n            }\n            if (shouldPay) {\n                payable(_owner).transfer(creator_fee);\n                totalSold += creator_fee;\n                payable(factory.owner()).transfer(platform_fee);\n                feesEarned += platform_fee;\n            }\n            _mint(purchase.buyer, _tokenId);\n            ticketManager.reduceQty(purchase.ticketId);\n            tokenCounter.increment();\n            _setTokenURI(_tokenId, purchase.tokenURI);\n            ticketManager._sales.push(\n                BlocTick.SuccessfulPurchase(\n                    purchase.purchaseId,\n                    purchase.buyer,\n                    _tokenId,\n                    purchase.ticketId,\n                    purchase.cost\n                )\n            );\n            unchecked {\n                i++;\n            }\n        }\n        return feesEarned;\n    }\n\n    function _beforeTokenTransfer(\n        address from,\n        address to,\n        uint256 tokenId\n    ) internal override(ERC721Upgradeable, ERC721EnumerableUpgradeable) {\n        super._beforeTokenTransfer(from, to, tokenId);\n    }\n\n    function _burn(uint256 tokenId)\n        internal\n        override(ERC721Upgradeable, ERC721URIStorageUpgradeable)\n    {\n        super._burn(tokenId);\n    }\n\n    function tokenURI(uint256 tokenId)\n        public\n        view\n        override(ERC721Upgradeable, ERC721URIStorageUpgradeable)\n        returns (string memory)\n    {\n        return super.tokenURI(tokenId);\n    }\n\n    function supportsInterface(bytes4 interfaceId)\n        public\n        view\n        override(ERC721Upgradeable, ERC721EnumerableUpgradeable)\n        returns (bool)\n    {\n        return super.supportsInterface(interfaceId);\n    }\n\n    function getInfo()\n        external\n        view\n        returns (\n            uint256,\n            BlocTick.SuccessfulPurchase[] memory,\n            BlocTick.Ticket[] memory\n        )\n    {\n        return (totalSold, ticketManager._sales, ticketManager._tickets);\n    }\n\n    function storeTickets(BlocTick.Ticket[] memory tickets, address caller)\n        external\n        onlyFactory\n        onlyEventCreator(caller)\n    {\n        ticketManager._storeTickets(tickets);\n    }\n\n    function setSaleIsActive(bool _saleIsActive) external onlyOwner {\n        saleIsActive = _saleIsActive;\n    }\n\n    function ownerTokens(address caller)\n        external\n        view\n        returns (uint256[] memory)\n    {\n        uint256 ownerBalance = balanceOf(caller);\n        uint256[] memory result = new uint256[](ownerBalance);\n        if (ownerBalance == 0) {\n            return result;\n        }\n        for (uint256 i = 0; i < ownerBalance; ) {\n            result[i] = tokenOfOwnerByIndex(caller, i);\n            unchecked {\n                i++;\n            }\n        }\n        return result;\n    }\n}\n",
  "sourcePath": "/Users/devjosh/Documents/Build/Blocverse/BlocTicks/blocticks-contracts/backend/contracts/Event.sol",
  "compiler": {
    "name": "solc",
    "version": "0.8.13+commit.abaa5c0e.Emscripten.clang"
  },
  "schemaVersion": "3.4.7",
  "updatedAt": "2022-05-13T23:23:37.824Z",
  "networkType": "ethereum",
  "devdoc": {
    "kind": "dev",
    "methods": {
      "approve(address,uint256)": {
        "details": "See {IERC721-approve}."
      },
      "balanceOf(address)": {
        "details": "See {IERC721-balanceOf}."
      },
      "getApproved(uint256)": {
        "details": "See {IERC721-getApproved}."
      },
      "isApprovedForAll(address,address)": {
        "details": "See {IERC721-isApprovedForAll}."
      },
      "name()": {
        "details": "See {IERC721Metadata-name}."
      },
      "owner()": {
        "details": "Returns the address of the current owner."
      },
      "ownerOf(uint256)": {
        "details": "See {IERC721-ownerOf}."
      },
      "renounceOwnership()": {
        "details": "Leaves the contract without owner. It will not be possible to call `onlyOwner` functions anymore. Can only be called by the current owner. NOTE: Renouncing ownership will leave the contract without an owner, thereby removing any functionality that is only available to the owner."
      },
      "safeTransferFrom(address,address,uint256)": {
        "details": "See {IERC721-safeTransferFrom}."
      },
      "safeTransferFrom(address,address,uint256,bytes)": {
        "details": "See {IERC721-safeTransferFrom}."
      },
      "setApprovalForAll(address,bool)": {
        "details": "See {IERC721-setApprovalForAll}."
      },
      "symbol()": {
        "details": "See {IERC721Metadata-symbol}."
      },
      "tokenByIndex(uint256)": {
        "details": "See {IERC721Enumerable-tokenByIndex}."
      },
      "tokenOfOwnerByIndex(address,uint256)": {
        "details": "See {IERC721Enumerable-tokenOfOwnerByIndex}."
      },
      "totalSupply()": {
        "details": "See {IERC721Enumerable-totalSupply}."
      },
      "transferFrom(address,address,uint256)": {
        "details": "See {IERC721-transferFrom}."
      },
      "transferOwnership(address)": {
        "details": "Transfers ownership of the contract to a new account (`newOwner`). Can only be called by the current owner."
      }
    },
    "version": 1
  },
  "userdoc": {
    "kind": "user",
    "methods": {},
    "version": 1
  }
}