{
  "contractName": "Event",
  "abi": [
    {
      "inputs": [
        {
          "internalType": "string",
          "name": "name",
          "type": "string"
        },
        {
          "internalType": "string",
          "name": "ticker",
          "type": "string"
        },
        {
          "internalType": "address",
          "name": "__owner",
          "type": "address"
        }
      ],
      "stateMutability": "nonpayable",
      "type": "constructor"
    },
    {
      "anonymous": false,
      "inputs": [
        {
          "indexed": true,
          "internalType": "address",
          "name": "owner",
          "type": "address"
        },
        {
          "indexed": true,
          "internalType": "address",
          "name": "approved",
          "type": "address"
        },
        {
          "indexed": true,
          "internalType": "uint256",
          "name": "tokenId",
          "type": "uint256"
        }
      ],
      "name": "Approval",
      "type": "event"
    },
    {
      "anonymous": false,
      "inputs": [
        {
          "indexed": true,
          "internalType": "address",
          "name": "owner",
          "type": "address"
        },
        {
          "indexed": true,
          "internalType": "address",
          "name": "operator",
          "type": "address"
        },
        {
          "indexed": false,
          "internalType": "bool",
          "name": "approved",
          "type": "bool"
        }
      ],
      "name": "ApprovalForAll",
      "type": "event"
    },
    {
      "anonymous": false,
      "inputs": [
        {
          "indexed": true,
          "internalType": "address",
          "name": "from",
          "type": "address"
        },
        {
          "indexed": true,
          "internalType": "address",
          "name": "to",
          "type": "address"
        },
        {
          "indexed": true,
          "internalType": "uint256",
          "name": "tokenId",
          "type": "uint256"
        }
      ],
      "name": "Transfer",
      "type": "event"
    },
    {
      "inputs": [],
      "name": "_created_at",
      "outputs": [
        {
          "internalType": "uint256",
          "name": "",
          "type": "uint256"
        }
      ],
      "stateMutability": "view",
      "type": "function"
    },
    {
      "inputs": [],
      "name": "_eventData",
      "outputs": [
        {
          "internalType": "string",
          "name": "name",
          "type": "string"
        },
        {
          "internalType": "string",
          "name": "ticker",
          "type": "string"
        },
        {
          "internalType": "string",
          "name": "host_name",
          "type": "string"
        },
        {
          "internalType": "uint256",
          "name": "networkId",
          "type": "uint256"
        },
        {
          "internalType": "uint256",
          "name": "event_time",
          "type": "uint256"
        },
        {
          "internalType": "string",
          "name": "category",
          "type": "string"
        },
        {
          "internalType": "string",
          "name": "description",
          "type": "string"
        },
        {
          "internalType": "uint256",
          "name": "visibility",
          "type": "uint256"
        },
        {
          "internalType": "string",
          "name": "cover_image_url",
          "type": "string"
        }
      ],
      "stateMutability": "view",
      "type": "function"
    },
    {
      "inputs": [],
      "name": "_owner",
      "outputs": [
        {
          "internalType": "address",
          "name": "",
          "type": "address"
        }
      ],
      "stateMutability": "view",
      "type": "function"
    },
    {
      "inputs": [
        {
          "internalType": "uint256",
          "name": "",
          "type": "uint256"
        }
      ],
      "name": "_sales",
      "outputs": [
        {
          "internalType": "uint256",
          "name": "id",
          "type": "uint256"
        },
        {
          "internalType": "address",
          "name": "owner",
          "type": "address"
        },
        {
          "internalType": "uint256",
          "name": "ticketId",
          "type": "uint256"
        }
      ],
      "stateMutability": "view",
      "type": "function"
    },
    {
      "inputs": [],
      "name": "_status",
      "outputs": [
        {
          "internalType": "string",
          "name": "",
          "type": "string"
        }
      ],
      "stateMutability": "view",
      "type": "function"
    },
    {
      "inputs": [
        {
          "internalType": "uint256",
          "name": "",
          "type": "uint256"
        }
      ],
      "name": "_tickets",
      "outputs": [
        {
          "internalType": "string",
          "name": "name",
          "type": "string"
        },
        {
          "internalType": "string",
          "name": "description",
          "type": "string"
        },
        {
          "internalType": "uint256",
          "name": "ticket_type",
          "type": "uint256"
        },
        {
          "internalType": "uint256",
          "name": "quantity_available",
          "type": "uint256"
        },
        {
          "internalType": "uint256",
          "name": "max_per_order",
          "type": "uint256"
        },
        {
          "internalType": "uint256",
          "name": "price",
          "type": "uint256"
        }
      ],
      "stateMutability": "view",
      "type": "function"
    },
    {
      "inputs": [
        {
          "internalType": "address",
          "name": "to",
          "type": "address"
        },
        {
          "internalType": "uint256",
          "name": "tokenId",
          "type": "uint256"
        }
      ],
      "name": "approve",
      "outputs": [],
      "stateMutability": "nonpayable",
      "type": "function"
    },
    {
      "inputs": [
        {
          "internalType": "address",
          "name": "owner",
          "type": "address"
        }
      ],
      "name": "balanceOf",
      "outputs": [
        {
          "internalType": "uint256",
          "name": "",
          "type": "uint256"
        }
      ],
      "stateMutability": "view",
      "type": "function"
    },
    {
      "inputs": [
        {
          "internalType": "uint256",
          "name": "tokenId",
          "type": "uint256"
        }
      ],
      "name": "getApproved",
      "outputs": [
        {
          "internalType": "address",
          "name": "",
          "type": "address"
        }
      ],
      "stateMutability": "view",
      "type": "function"
    },
    {
      "inputs": [
        {
          "internalType": "address",
          "name": "owner",
          "type": "address"
        },
        {
          "internalType": "address",
          "name": "operator",
          "type": "address"
        }
      ],
      "name": "isApprovedForAll",
      "outputs": [
        {
          "internalType": "bool",
          "name": "",
          "type": "bool"
        }
      ],
      "stateMutability": "view",
      "type": "function"
    },
    {
      "inputs": [],
      "name": "name",
      "outputs": [
        {
          "internalType": "string",
          "name": "",
          "type": "string"
        }
      ],
      "stateMutability": "view",
      "type": "function"
    },
    {
      "inputs": [
        {
          "internalType": "uint256",
          "name": "tokenId",
          "type": "uint256"
        }
      ],
      "name": "ownerOf",
      "outputs": [
        {
          "internalType": "address",
          "name": "",
          "type": "address"
        }
      ],
      "stateMutability": "view",
      "type": "function"
    },
    {
      "inputs": [
        {
          "internalType": "address",
          "name": "from",
          "type": "address"
        },
        {
          "internalType": "address",
          "name": "to",
          "type": "address"
        },
        {
          "internalType": "uint256",
          "name": "tokenId",
          "type": "uint256"
        }
      ],
      "name": "safeTransferFrom",
      "outputs": [],
      "stateMutability": "nonpayable",
      "type": "function"
    },
    {
      "inputs": [
        {
          "internalType": "address",
          "name": "from",
          "type": "address"
        },
        {
          "internalType": "address",
          "name": "to",
          "type": "address"
        },
        {
          "internalType": "uint256",
          "name": "tokenId",
          "type": "uint256"
        },
        {
          "internalType": "bytes",
          "name": "_data",
          "type": "bytes"
        }
      ],
      "name": "safeTransferFrom",
      "outputs": [],
      "stateMutability": "nonpayable",
      "type": "function"
    },
    {
      "inputs": [
        {
          "internalType": "address",
          "name": "operator",
          "type": "address"
        },
        {
          "internalType": "bool",
          "name": "approved",
          "type": "bool"
        }
      ],
      "name": "setApprovalForAll",
      "outputs": [],
      "stateMutability": "nonpayable",
      "type": "function"
    },
    {
      "inputs": [
        {
          "internalType": "bytes4",
          "name": "interfaceId",
          "type": "bytes4"
        }
      ],
      "name": "supportsInterface",
      "outputs": [
        {
          "internalType": "bool",
          "name": "",
          "type": "bool"
        }
      ],
      "stateMutability": "view",
      "type": "function"
    },
    {
      "inputs": [],
      "name": "symbol",
      "outputs": [
        {
          "internalType": "string",
          "name": "",
          "type": "string"
        }
      ],
      "stateMutability": "view",
      "type": "function"
    },
    {
      "inputs": [
        {
          "internalType": "uint256",
          "name": "tokenId",
          "type": "uint256"
        }
      ],
      "name": "tokenURI",
      "outputs": [
        {
          "internalType": "string",
          "name": "",
          "type": "string"
        }
      ],
      "stateMutability": "view",
      "type": "function"
    },
    {
      "inputs": [
        {
          "internalType": "address",
          "name": "from",
          "type": "address"
        },
        {
          "internalType": "address",
          "name": "to",
          "type": "address"
        },
        {
          "internalType": "uint256",
          "name": "tokenId",
          "type": "uint256"
        }
      ],
      "name": "transferFrom",
      "outputs": [],
      "stateMutability": "nonpayable",
      "type": "function"
    },
    {
      "inputs": [
        {
          "components": [
            {
              "internalType": "uint256",
              "name": "ticketId",
              "type": "uint256"
            },
            {
              "internalType": "string",
              "name": "tokenURI",
              "type": "string"
            },
            {
              "internalType": "address",
              "name": "owner",
              "type": "address"
            }
          ],
          "internalType": "struct BlocTick.TicketPurchase[]",
          "name": "purchases",
          "type": "tuple[]"
        }
      ],
      "name": "mint",
      "outputs": [],
      "stateMutability": "payable",
      "type": "function"
    },
    {
      "inputs": [
        {
          "components": [
            {
              "internalType": "string",
              "name": "name",
              "type": "string"
            },
            {
              "internalType": "string",
              "name": "description",
              "type": "string"
            },
            {
              "internalType": "uint256",
              "name": "ticket_type",
              "type": "uint256"
            },
            {
              "internalType": "uint256",
              "name": "quantity_available",
              "type": "uint256"
            },
            {
              "internalType": "uint256",
              "name": "max_per_order",
              "type": "uint256"
            },
            {
              "internalType": "uint256",
              "name": "price",
              "type": "uint256"
            }
          ],
          "internalType": "struct BlocTick.Ticket[]",
          "name": "tickets",
          "type": "tuple[]"
        },
        {
          "internalType": "address",
          "name": "caller",
          "type": "address"
        }
      ],
      "name": "storeTickets",
      "outputs": [],
      "stateMutability": "nonpayable",
      "type": "function"
    },
    {
      "inputs": [
        {
          "internalType": "string",
          "name": "__status",
          "type": "string"
        }
      ],
      "name": "setStatus",
      "outputs": [],
      "stateMutability": "nonpayable",
      "type": "function"
    },
    {
      "inputs": [
        {
          "internalType": "address",
          "name": "caller",
          "type": "address"
        }
      ],
      "name": "getMyTickets",
      "outputs": [
        {
          "components": [
            {
              "internalType": "uint256",
              "name": "id",
              "type": "uint256"
            },
            {
              "internalType": "address",
              "name": "owner",
              "type": "address"
            },
            {
              "internalType": "uint256",
              "name": "ticketId",
              "type": "uint256"
            }
          ],
          "internalType": "struct BlocTick.SuccessfulPurchase[]",
          "name": "",
          "type": "tuple[]"
        }
      ],
      "stateMutability": "view",
      "type": "function"
    }
  ],
  "bytecode": "0x60806040526000600c556001600d556002600e553480156200002057600080fd5b5060405162004a9f38038062004a9f8339818101604052810190620000469190620003f2565b828281600090805190602001906200006092919062000140565b5080600190805190602001906200007992919062000140565b50505033600b60006101000a81548173ffffffffffffffffffffffffffffffffffffffff021916908373ffffffffffffffffffffffffffffffffffffffff16021790555080600860006101000a81548173ffffffffffffffffffffffffffffffffffffffff021916908373ffffffffffffffffffffffffffffffffffffffff1602179055507f0227e3b2fb10ea87b3ce0fe9b23554ad992c666dd128c13c0a6ef2d73dd80ba0306040516200012f91906200049d565b60405180910390a15050506200051f565b8280546200014e90620004e9565b90600052602060002090601f016020900481019282620001725760008555620001be565b82601f106200018d57805160ff1916838001178555620001be565b82800160010185558215620001be579182015b82811115620001bd578251825591602001919060010190620001a0565b5b509050620001cd9190620001d1565b5090565b5b80821115620001ec576000816000905550600101620001d2565b5090565b6000604051905090565b600080fd5b600080fd5b600080fd5b600080fd5b6000601f19601f8301169050919050565b7f4e487b7100000000000000000000000000000000000000000000000000000000600052604160045260246000fd5b62000259826200020e565b810181811067ffffffffffffffff821117156200027b576200027a6200021f565b5b80604052505050565b600062000290620001f0565b90506200029e82826200024e565b919050565b600067ffffffffffffffff821115620002c157620002c06200021f565b5b620002cc826200020e565b9050602081019050919050565b60005b83811015620002f9578082015181840152602081019050620002dc565b8381111562000309576000848401525b50505050565b6000620003266200032084620002a3565b62000284565b90508281526020810184848401111562000345576200034462000209565b5b62000352848285620002d9565b509392505050565b600082601f83011262000372576200037162000204565b5b8151620003848482602086016200030f565b91505092915050565b600073ffffffffffffffffffffffffffffffffffffffff82169050919050565b6000620003ba826200038d565b9050919050565b620003cc81620003ad565b8114620003d857600080fd5b50565b600081519050620003ec81620003c1565b92915050565b6000806000606084860312156200040e576200040d620001fa565b5b600084015167ffffffffffffffff8111156200042f576200042e620001ff565b5b6200043d868287016200035a565b935050602084015167ffffffffffffffff811115620004615762000460620001ff565b5b6200046f868287016200035a565b92505060406200048286828701620003db565b9150509250925092565b6200049781620003ad565b82525050565b6000602082019050620004b460008301846200048c565b92915050565b7f4e487b7100000000000000000000000000000000000000000000000000000000600052602260045260246000fd5b600060028204905060018216806200050257607f821691505b60208210811415620005195762000518620004ba565b5b50919050565b614570806200052f6000396000f3fe6080604052600436106101405760003560e01c806378a2db88116100b6578063b2bdfa7b1161006f578063b2bdfa7b1461047e578063b88d4fde146104a9578063c87b56dd146104d2578063d0f4fc021461050f578063e985e9c51461054e578063f85470791461058b57610140565b806378a2db88146103595780637d2211d61461039b5780638aaf2686146103c457806395d89b4114610401578063a22cb4651461042c578063a26689451461045557610140565b806323b872dd1161010857806323b872dd1461023e5780633d90cdaa1461026757806342842e0e1461029a57806352cc6be6146102c35780636352211e146102df57806370a082311461031c57610140565b806301ffc9a71461014557806306fdde0314610182578063081812fc146101ad578063095ea7b3146101ea5780630fb3844c14610213575b600080fd5b34801561015157600080fd5b5061016c60048036038101906101679190612ad9565b6105b6565b6040516101799190612b21565b60405180910390f35b34801561018e57600080fd5b50610197610698565b6040516101a49190612bd5565b60405180910390f35b3480156101b957600080fd5b506101d460048036038101906101cf9190612c2d565b61072a565b6040516101e19190612c9b565b60405180910390f35b3480156101f657600080fd5b50610211600480360381019061020c9190612ce2565b6107af565b005b34801561021f57600080fd5b506102286108c7565b6040516102359190612bd5565b60405180910390f35b34801561024a57600080fd5b5061026560048036038101906102609190612d22565b610955565b005b34801561027357600080fd5b5061027c6109b5565b60405161029199989796959493929190612d84565b60405180910390f35b3480156102a657600080fd5b506102c160048036038101906102bc9190612d22565b610d21565b005b6102dd60048036038101906102d891906130e0565b610d41565b005b3480156102eb57600080fd5b5061030660048036038101906103019190612c2d565b610f70565b6040516103139190612c9b565b60405180910390f35b34801561032857600080fd5b50610343600480360381019061033e9190613129565b611022565b6040516103509190613156565b60405180910390f35b34801561036557600080fd5b50610380600480360381019061037b9190612c2d565b6110da565b60405161039296959493929190613171565b60405180910390f35b3480156103a757600080fd5b506103c260048036038101906103bd91906131e0565b611236565b005b3480156103d057600080fd5b506103eb60048036038101906103e69190613129565b6112e0565b6040516103f89190613338565b60405180910390f35b34801561040d57600080fd5b5061041661146d565b6040516104239190612bd5565b60405180910390f35b34801561043857600080fd5b50610453600480360381019061044e9190613386565b6114ff565b005b34801561046157600080fd5b5061047c6004803603810190610477919061357f565b611515565b005b34801561048a57600080fd5b506104936117a9565b6040516104a09190612c9b565b60405180910390f35b3480156104b557600080fd5b506104d060048036038101906104cb919061367c565b6117cf565b005b3480156104de57600080fd5b506104f960048036038101906104f49190612c2d565b611831565b6040516105069190612bd5565b60405180910390f35b34801561051b57600080fd5b5061053660048036038101906105319190612c2d565b611983565b604051610545939291906136ff565b60405180910390f35b34801561055a57600080fd5b5061057560048036038101906105709190613736565b6119dd565b6040516105829190612b21565b60405180910390f35b34801561059757600080fd5b506105a0611a71565b6040516105ad9190613156565b60405180910390f35b60007f80ac58cd000000000000000000000000000000000000000000000000000000007bffffffffffffffffffffffffffffffffffffffffffffffffffffffff1916827bffffffffffffffffffffffffffffffffffffffffffffffffffffffff1916148061068157507f5b5e139f000000000000000000000000000000000000000000000000000000007bffffffffffffffffffffffffffffffffffffffffffffffffffffffff1916827bffffffffffffffffffffffffffffffffffffffffffffffffffffffff1916145b80610691575061069082611a77565b5b9050919050565b6060600080546106a7906137a5565b80601f01602080910402602001604051908101604052809291908181526020018280546106d3906137a5565b80156107205780601f106106f557610100808354040283529160200191610720565b820191906000526020600020905b81548152906001019060200180831161070357829003601f168201915b5050505050905090565b600061073582611ae1565b610774576040517f08c379a000000000000000000000000000000000000000000000000000000000815260040161076b90613849565b60405180910390fd5b6004600083815260200190815260200160002060009054906101000a900473ffffffffffffffffffffffffffffffffffffffff169050919050565b60006107ba82610f70565b90508073ffffffffffffffffffffffffffffffffffffffff168373ffffffffffffffffffffffffffffffffffffffff16141561082b576040517f08c379a0000000000000000000000000000000000000000000000000000000008152600401610822906138db565b60405180910390fd5b8073ffffffffffffffffffffffffffffffffffffffff1661084a611b4d565b73ffffffffffffffffffffffffffffffffffffffff161480610879575061087881610873611b4d565b6119dd565b5b6108b8576040517f08c379a00000000000000000000000000000000000000000000000000000000081526004016108af9061396d565b60405180910390fd5b6108c28383611b55565b505050565b600a80546108d4906137a5565b80601f0160208091040260200160405190810160405280929190818152602001828054610900906137a5565b801561094d5780601f106109225761010080835404028352916020019161094d565b820191906000526020600020905b81548152906001019060200180831161093057829003601f168201915b505050505081565b610966610960611b4d565b82611c0e565b6109a5576040517f08c379a000000000000000000000000000000000000000000000000000000000815260040161099c906139ff565b60405180910390fd5b6109b0838383611cec565b505050565b60118060000180546109c6906137a5565b80601f01602080910402602001604051908101604052809291908181526020018280546109f2906137a5565b8015610a3f5780601f10610a1457610100808354040283529160200191610a3f565b820191906000526020600020905b815481529060010190602001808311610a2257829003601f168201915b505050505090806001018054610a54906137a5565b80601f0160208091040260200160405190810160405280929190818152602001828054610a80906137a5565b8015610acd5780601f10610aa257610100808354040283529160200191610acd565b820191906000526020600020905b815481529060010190602001808311610ab057829003601f168201915b505050505090806002018054610ae2906137a5565b80601f0160208091040260200160405190810160405280929190818152602001828054610b0e906137a5565b8015610b5b5780601f10610b3057610100808354040283529160200191610b5b565b820191906000526020600020905b815481529060010190602001808311610b3e57829003601f168201915b505050505090806003015490806004015490806005018054610b7c906137a5565b80601f0160208091040260200160405190810160405280929190818152602001828054610ba8906137a5565b8015610bf55780601f10610bca57610100808354040283529160200191610bf5565b820191906000526020600020905b815481529060010190602001808311610bd857829003601f168201915b505050505090806006018054610c0a906137a5565b80601f0160208091040260200160405190810160405280929190818152602001828054610c36906137a5565b8015610c835780601f10610c5857610100808354040283529160200191610c83565b820191906000526020600020905b815481529060010190602001808311610c6657829003601f168201915b505050505090806007015490806008018054610c9e906137a5565b80601f0160208091040260200160405190810160405280929190818152602001828054610cca906137a5565b8015610d175780601f10610cec57610100808354040283529160200191610d17565b820191906000526020600020905b815481529060010190602001808311610cfa57829003601f168201915b5050505050905089565b610d3c838383604051806020016040528060008152506117cf565b505050565b600b60009054906101000a900473ffffffffffffffffffffffffffffffffffffffff1673ffffffffffffffffffffffffffffffffffffffff163373ffffffffffffffffffffffffffffffffffffffff1614610dd1576040517f08c379a0000000000000000000000000000000000000000000000000000000008152600401610dc890613a6b565b60405180910390fd5b610dda81611f53565b341015610e1c576040517f08c379a0000000000000000000000000000000000000000000000000000000008152600401610e1390613ad7565b60405180910390fd5b60005b8151811015610f6c576000828281518110610e3d57610e3c613af7565b5b6020026020010151905060006007549050610e583082612146565b610e66818360200151612320565b60106040518060600160405280838152602001846040015173ffffffffffffffffffffffffffffffffffffffff168152602001846000015181525090806001815401808255809150506001900390600052602060002090600302016000909190919091506000820151816000015560208201518160010160006101000a81548173ffffffffffffffffffffffffffffffffffffffff021916908373ffffffffffffffffffffffffffffffffffffffff160217905550604082015181600201555050610f3081612394565b50610f3f8183604001516123e7565b60076000815480929190610f5290613b55565b919050555050508080610f6490613b55565b915050610e1f565b5050565b6000806002600084815260200190815260200160002060009054906101000a900473ffffffffffffffffffffffffffffffffffffffff169050600073ffffffffffffffffffffffffffffffffffffffff168173ffffffffffffffffffffffffffffffffffffffff161415611019576040517f08c379a000000000000000000000000000000000000000000000000000000000815260040161101090613c10565b60405180910390fd5b80915050919050565b60008073ffffffffffffffffffffffffffffffffffffffff168273ffffffffffffffffffffffffffffffffffffffff161415611093576040517f08c379a000000000000000000000000000000000000000000000000000000000815260040161108a90613ca2565b60405180910390fd5b600360008373ffffffffffffffffffffffffffffffffffffffff1673ffffffffffffffffffffffffffffffffffffffff168152602001908152602001600020549050919050565b600f81815481106110ea57600080fd5b906000526020600020906006020160009150905080600001805461110d906137a5565b80601f0160208091040260200160405190810160405280929190818152602001828054611139906137a5565b80156111865780601f1061115b57610100808354040283529160200191611186565b820191906000526020600020905b81548152906001019060200180831161116957829003601f168201915b50505050509080600101805461119b906137a5565b80601f01602080910402602001604051908101604052809291908181526020018280546111c7906137a5565b80156112145780601f106111e957610100808354040283529160200191611214565b820191906000526020600020905b8154815290600101906020018083116111f757829003601f168201915b5050505050908060020154908060030154908060040154908060050154905086565b600b60009054906101000a900473ffffffffffffffffffffffffffffffffffffffff1673ffffffffffffffffffffffffffffffffffffffff163373ffffffffffffffffffffffffffffffffffffffff16146112c6576040517f08c379a00000000000000000000000000000000000000000000000000000000081526004016112bd90613a6b565b60405180910390fd5b80600a90805190602001906112dc929190612993565b5050565b606060006112ed83611022565b67ffffffffffffffff81111561130657611305612e40565b5b60405190808252806020026020018201604052801561133f57816020015b61132c612a19565b8152602001906001900390816113245790505b5090506000805b6007548111611462578473ffffffffffffffffffffffffffffffffffffffff1661136f82610f70565b73ffffffffffffffffffffffffffffffffffffffff16141561144f576010818154811061139f5761139e613af7565b5b9060005260206000209060030201604051806060016040529081600082015481526020016001820160009054906101000a900473ffffffffffffffffffffffffffffffffffffffff1673ffffffffffffffffffffffffffffffffffffffff1673ffffffffffffffffffffffffffffffffffffffff16815260200160028201548152505083838151811061143557611434613af7565b5b6020026020010181905250818061144b90613b55565b9250505b808061145a90613b55565b915050611346565b508192505050919050565b60606001805461147c906137a5565b80601f01602080910402602001604051908101604052809291908181526020018280546114a8906137a5565b80156114f55780601f106114ca576101008083540402835291602001916114f5565b820191906000526020600020905b8154815290600101906020018083116114d857829003601f168201915b5050505050905090565b61151161150a611b4d565b83836123f6565b5050565b600b60009054906101000a900473ffffffffffffffffffffffffffffffffffffffff1673ffffffffffffffffffffffffffffffffffffffff163373ffffffffffffffffffffffffffffffffffffffff16146115a5576040517f08c379a000000000000000000000000000000000000000000000000000000000815260040161159c90613a6b565b60405180910390fd5b80600860009054906101000a900473ffffffffffffffffffffffffffffffffffffffff1673ffffffffffffffffffffffffffffffffffffffff168173ffffffffffffffffffffffffffffffffffffffff1614611636576040517f08c379a000000000000000000000000000000000000000000000000000000000815260040161162d90613d0e565b60405180910390fd5b60005b83518110156117a357600084828151811061165757611656613af7565b5b60200260200101519050600c5481604001511415801561167d5750600d54816040015114155b801561168f5750600e54816040015114155b156116a157600c548160400181815250505b600c54816040015114156116bb5760008160a00181815250505b600f6040518060c0016040528083600001518152602001836020015181526020018360400151815260200183606001518152602001836080015181526020018360a0015181525090806001815401808255809150506001900390600052602060002090600602016000909190919091506000820151816000019080519060200190611747929190612993565b506020820151816001019080519060200190611764929190612993565b5060408201518160020155606082015181600301556080820151816004015560a08201518160050155505050808061179b90613b55565b915050611639565b50505050565b600860009054906101000a900473ffffffffffffffffffffffffffffffffffffffff1681565b6117e06117da611b4d565b83611c0e565b61181f576040517f08c379a0000000000000000000000000000000000000000000000000000000008152600401611816906139ff565b60405180910390fd5b61182b84848484612563565b50505050565b606061183c82611ae1565b61187b576040517f08c379a000000000000000000000000000000000000000000000000000000000815260040161187290613da0565b60405180910390fd5b600060066000848152602001908152602001600020805461189b906137a5565b80601f01602080910402602001604051908101604052809291908181526020018280546118c7906137a5565b80156119145780601f106118e957610100808354040283529160200191611914565b820191906000526020600020905b8154815290600101906020018083116118f757829003601f168201915b5050505050905060006119256125bf565b905060008151141561193b57819250505061197e565b600082511115611970578082604051602001611958929190613dfc565b6040516020818303038152906040529250505061197e565b611979846125d6565b925050505b919050565b6010818154811061199357600080fd5b90600052602060002090600302016000915090508060000154908060010160009054906101000a900473ffffffffffffffffffffffffffffffffffffffff16908060020154905083565b6000600560008473ffffffffffffffffffffffffffffffffffffffff1673ffffffffffffffffffffffffffffffffffffffff16815260200190815260200160002060008373ffffffffffffffffffffffffffffffffffffffff1673ffffffffffffffffffffffffffffffffffffffff16815260200190815260200160002060009054906101000a900460ff16905092915050565b60095481565b60007f01ffc9a7000000000000000000000000000000000000000000000000000000007bffffffffffffffffffffffffffffffffffffffffffffffffffffffff1916827bffffffffffffffffffffffffffffffffffffffffffffffffffffffff1916149050919050565b60008073ffffffffffffffffffffffffffffffffffffffff166002600084815260200190815260200160002060009054906101000a900473ffffffffffffffffffffffffffffffffffffffff1673ffffffffffffffffffffffffffffffffffffffff1614159050919050565b600033905090565b816004600083815260200190815260200160002060006101000a81548173ffffffffffffffffffffffffffffffffffffffff021916908373ffffffffffffffffffffffffffffffffffffffff160217905550808273ffffffffffffffffffffffffffffffffffffffff16611bc883610f70565b73ffffffffffffffffffffffffffffffffffffffff167f8c5be1e5ebec7d5bd14f71427d1e84f3dd0314c0f7b2291e5b200ac8c7c3b92560405160405180910390a45050565b6000611c1982611ae1565b611c58576040517f08c379a0000000000000000000000000000000000000000000000000000000008152600401611c4f90613e92565b60405180910390fd5b6000611c6383610f70565b90508073ffffffffffffffffffffffffffffffffffffffff168473ffffffffffffffffffffffffffffffffffffffff161480611cd257508373ffffffffffffffffffffffffffffffffffffffff16611cba8461072a565b73ffffffffffffffffffffffffffffffffffffffff16145b80611ce35750611ce281856119dd565b5b91505092915050565b8273ffffffffffffffffffffffffffffffffffffffff16611d0c82610f70565b73ffffffffffffffffffffffffffffffffffffffff1614611d62576040517f08c379a0000000000000000000000000000000000000000000000000000000008152600401611d5990613f24565b60405180910390fd5b600073ffffffffffffffffffffffffffffffffffffffff168273ffffffffffffffffffffffffffffffffffffffff161415611dd2576040517f08c379a0000000000000000000000000000000000000000000000000000000008152600401611dc990613fb6565b60405180910390fd5b611ddd83838361267d565b611de8600082611b55565b6001600360008573ffffffffffffffffffffffffffffffffffffffff1673ffffffffffffffffffffffffffffffffffffffff1681526020019081526020016000206000828254611e389190613fd6565b925050819055506001600360008473ffffffffffffffffffffffffffffffffffffffff1673ffffffffffffffffffffffffffffffffffffffff1681526020019081526020016000206000828254611e8f919061400a565b92505081905550816002600083815260200190815260200160002060006101000a81548173ffffffffffffffffffffffffffffffffffffffff021916908373ffffffffffffffffffffffffffffffffffffffff160217905550808273ffffffffffffffffffffffffffffffffffffffff168473ffffffffffffffffffffffffffffffffffffffff167fddf252ad1be2c89b69c2b068fc378daa952ba7f163c4a11628f55a4df523b3ef60405160405180910390a4611f4e838383612682565b505050565b6000806000905060005b835181101561213c576000600f858381518110611f7d57611f7c613af7565b5b60200260200101516000015181548110611f9a57611f99613af7565b5b90600052602060002090600602016040518060c0016040529081600082018054611fc3906137a5565b80601f0160208091040260200160405190810160405280929190818152602001828054611fef906137a5565b801561203c5780601f106120115761010080835404028352916020019161203c565b820191906000526020600020905b81548152906001019060200180831161201f57829003601f168201915b50505050508152602001600182018054612055906137a5565b80601f0160208091040260200160405190810160405280929190818152602001828054612081906137a5565b80156120ce5780601f106120a3576101008083540402835291602001916120ce565b820191906000526020600020905b8154815290600101906020018083116120b157829003601f168201915b505050505081526020016002820154815260200160038201548152602001600482015481526020016005820154815250509050600e54816040015114156121155750612129565b8060a0015183612125919061400a565b9250505b808061213490613b55565b915050611f5d565b5080915050919050565b600073ffffffffffffffffffffffffffffffffffffffff168273ffffffffffffffffffffffffffffffffffffffff1614156121b6576040517f08c379a00000000000000000000000000000000000000000000000000000000081526004016121ad906140ac565b60405180910390fd5b6121bf81611ae1565b156121ff576040517f08c379a00000000000000000000000000000000000000000000000000000000081526004016121f690614118565b60405180910390fd5b61220b6000838361267d565b6001600360008473ffffffffffffffffffffffffffffffffffffffff1673ffffffffffffffffffffffffffffffffffffffff168152602001908152602001600020600082825461225b919061400a565b92505081905550816002600083815260200190815260200160002060006101000a81548173ffffffffffffffffffffffffffffffffffffffff021916908373ffffffffffffffffffffffffffffffffffffffff160217905550808273ffffffffffffffffffffffffffffffffffffffff16600073ffffffffffffffffffffffffffffffffffffffff167fddf252ad1be2c89b69c2b068fc378daa952ba7f163c4a11628f55a4df523b3ef60405160405180910390a461231c60008383612682565b5050565b61232982611ae1565b612368576040517f08c379a000000000000000000000000000000000000000000000000000000000815260040161235f906141aa565b60405180910390fd5b8060066000848152602001908152602001600020908051906020019061238f929190612993565b505050565b600061239f82611ae1565b6123de576040517f08c379a00000000000000000000000000000000000000000000000000000000081526004016123d590614216565b60405180910390fd5b60019050919050565b6123f2308284611cec565b5050565b8173ffffffffffffffffffffffffffffffffffffffff168373ffffffffffffffffffffffffffffffffffffffff161415612465576040517f08c379a000000000000000000000000000000000000000000000000000000000815260040161245c90614282565b60405180910390fd5b80600560008573ffffffffffffffffffffffffffffffffffffffff1673ffffffffffffffffffffffffffffffffffffffff16815260200190815260200160002060008473ffffffffffffffffffffffffffffffffffffffff1673ffffffffffffffffffffffffffffffffffffffff16815260200190815260200160002060006101000a81548160ff0219169083151502179055508173ffffffffffffffffffffffffffffffffffffffff168373ffffffffffffffffffffffffffffffffffffffff167f17307eab39ab6107e8899845ad3d59bd9653f200f220920489ca2b5937696c31836040516125569190612b21565b60405180910390a3505050565b61256e848484611cec565b61257a84848484612687565b6125b9576040517f08c379a00000000000000000000000000000000000000000000000000000000081526004016125b090614314565b60405180910390fd5b50505050565b606060405180602001604052806000815250905090565b60606125e182611ae1565b612620576040517f08c379a0000000000000000000000000000000000000000000000000000000008152600401612617906143a6565b60405180910390fd5b600061262a6125bf565b9050600081511161264a5760405180602001604052806000815250612675565b806126548461280f565b604051602001612665929190613dfc565b6040516020818303038152906040525b915050919050565b505050565b505050565b60006126a88473ffffffffffffffffffffffffffffffffffffffff16612970565b15612802578373ffffffffffffffffffffffffffffffffffffffff1663150b7a026126d1611b4d565b8786866040518563ffffffff1660e01b81526004016126f3949392919061441b565b6020604051808303816000875af192505050801561272f57506040513d601f19601f8201168201806040525081019061272c919061447c565b60015b6127b2573d806000811461275f576040519150601f19603f3d011682016040523d82523d6000602084013e612764565b606091505b506000815114156127aa576040517f08c379a00000000000000000000000000000000000000000000000000000000081526004016127a190614314565b60405180910390fd5b805181602001fd5b63150b7a0260e01b7bffffffffffffffffffffffffffffffffffffffffffffffffffffffff1916817bffffffffffffffffffffffffffffffffffffffffffffffffffffffff191614915050612807565b600190505b949350505050565b60606000821415612857576040518060400160405280600181526020017f3000000000000000000000000000000000000000000000000000000000000000815250905061296b565b600082905060005b6000821461288957808061287290613b55565b915050600a8261288291906144d8565b915061285f565b60008167ffffffffffffffff8111156128a5576128a4612e40565b5b6040519080825280601f01601f1916602001820160405280156128d75781602001600182028036833780820191505090505b5090505b60008514612964576001826128f09190613fd6565b9150600a856128ff9190614509565b603061290b919061400a565b60f81b81838151811061292157612920613af7565b5b60200101907effffffffffffffffffffffffffffffffffffffffffffffffffffffffffffff1916908160001a905350600a8561295d91906144d8565b94506128db565b8093505050505b919050565b6000808273ffffffffffffffffffffffffffffffffffffffff163b119050919050565b82805461299f906137a5565b90600052602060002090601f0160209004810192826129c15760008555612a08565b82601f106129da57805160ff1916838001178555612a08565b82800160010185558215612a08579182015b82811115612a075782518255916020019190600101906129ec565b5b509050612a159190612a50565b5090565b604051806060016040528060008152602001600073ffffffffffffffffffffffffffffffffffffffff168152602001600081525090565b5b80821115612a69576000816000905550600101612a51565b5090565b6000604051905090565b600080fd5b600080fd5b60007fffffffff0000000000000000000000000000000000000000000000000000000082169050919050565b612ab681612a81565b8114612ac157600080fd5b50565b600081359050612ad381612aad565b92915050565b600060208284031215612aef57612aee612a77565b5b6000612afd84828501612ac4565b91505092915050565b60008115159050919050565b612b1b81612b06565b82525050565b6000602082019050612b366000830184612b12565b92915050565b600081519050919050565b600082825260208201905092915050565b60005b83811015612b76578082015181840152602081019050612b5b565b83811115612b85576000848401525b50505050565b6000601f19601f8301169050919050565b6000612ba782612b3c565b612bb18185612b47565b9350612bc1818560208601612b58565b612bca81612b8b565b840191505092915050565b60006020820190508181036000830152612bef8184612b9c565b905092915050565b6000819050919050565b612c0a81612bf7565b8114612c1557600080fd5b50565b600081359050612c2781612c01565b92915050565b600060208284031215612c4357612c42612a77565b5b6000612c5184828501612c18565b91505092915050565b600073ffffffffffffffffffffffffffffffffffffffff82169050919050565b6000612c8582612c5a565b9050919050565b612c9581612c7a565b82525050565b6000602082019050612cb06000830184612c8c565b92915050565b612cbf81612c7a565b8114612cca57600080fd5b50565b600081359050612cdc81612cb6565b92915050565b60008060408385031215612cf957612cf8612a77565b5b6000612d0785828601612ccd565b9250506020612d1885828601612c18565b9150509250929050565b600080600060608486031215612d3b57612d3a612a77565b5b6000612d4986828701612ccd565b9350506020612d5a86828701612ccd565b9250506040612d6b86828701612c18565b9150509250925092565b612d7e81612bf7565b82525050565b6000610120820190508181036000830152612d9f818c612b9c565b90508181036020830152612db3818b612b9c565b90508181036040830152612dc7818a612b9c565b9050612dd66060830189612d75565b612de36080830188612d75565b81810360a0830152612df58187612b9c565b905081810360c0830152612e098186612b9c565b9050612e1860e0830185612d75565b818103610100830152612e2b8184612b9c565b90509a9950505050505050505050565b600080fd5b7f4e487b7100000000000000000000000000000000000000000000000000000000600052604160045260246000fd5b612e7882612b8b565b810181811067ffffffffffffffff82111715612e9757612e96612e40565b5b80604052505050565b6000612eaa612a6d565b9050612eb68282612e6f565b919050565b600067ffffffffffffffff821115612ed657612ed5612e40565b5b602082029050602081019050919050565b600080fd5b600080fd5b600080fd5b600080fd5b600067ffffffffffffffff821115612f1657612f15612e40565b5b612f1f82612b8b565b9050602081019050919050565b82818337600083830152505050565b6000612f4e612f4984612efb565b612ea0565b905082815260208101848484011115612f6a57612f69612ef6565b5b612f75848285612f2c565b509392505050565b600082601f830112612f9257612f91612e3b565b5b8135612fa2848260208601612f3b565b91505092915050565b600060608284031215612fc157612fc0612eec565b5b612fcb6060612ea0565b90506000612fdb84828501612c18565b600083015250602082013567ffffffffffffffff811115612fff57612ffe612ef1565b5b61300b84828501612f7d565b602083015250604061301f84828501612ccd565b60408301525092915050565b600061303e61303984612ebb565b612ea0565b9050808382526020820190506020840283018581111561306157613060612ee7565b5b835b818110156130a857803567ffffffffffffffff81111561308657613085612e3b565b5b8086016130938982612fab565b85526020850194505050602081019050613063565b5050509392505050565b600082601f8301126130c7576130c6612e3b565b5b81356130d784826020860161302b565b91505092915050565b6000602082840312156130f6576130f5612a77565b5b600082013567ffffffffffffffff81111561311457613113612a7c565b5b613120848285016130b2565b91505092915050565b60006020828403121561313f5761313e612a77565b5b600061314d84828501612ccd565b91505092915050565b600060208201905061316b6000830184612d75565b92915050565b600060c082019050818103600083015261318b8189612b9c565b9050818103602083015261319f8188612b9c565b90506131ae6040830187612d75565b6131bb6060830186612d75565b6131c86080830185612d75565b6131d560a0830184612d75565b979650505050505050565b6000602082840312156131f6576131f5612a77565b5b600082013567ffffffffffffffff81111561321457613213612a7c565b5b61322084828501612f7d565b91505092915050565b600081519050919050565b600082825260208201905092915050565b6000819050602082019050919050565b61325e81612bf7565b82525050565b61326d81612c7a565b82525050565b6060820160008201516132896000850182613255565b50602082015161329c6020850182613264565b5060408201516132af6040850182613255565b50505050565b60006132c18383613273565b60608301905092915050565b6000602082019050919050565b60006132e582613229565b6132ef8185613234565b93506132fa83613245565b8060005b8381101561332b57815161331288826132b5565b975061331d836132cd565b9250506001810190506132fe565b5085935050505092915050565b6000602082019050818103600083015261335281846132da565b905092915050565b61336381612b06565b811461336e57600080fd5b50565b6000813590506133808161335a565b92915050565b6000806040838503121561339d5761339c612a77565b5b60006133ab85828601612ccd565b92505060206133bc85828601613371565b9150509250929050565b600067ffffffffffffffff8211156133e1576133e0612e40565b5b602082029050602081019050919050565b600060c0828403121561340857613407612eec565b5b61341260c0612ea0565b9050600082013567ffffffffffffffff81111561343257613431612ef1565b5b61343e84828501612f7d565b600083015250602082013567ffffffffffffffff81111561346257613461612ef1565b5b61346e84828501612f7d565b602083015250604061348284828501612c18565b604083015250606061349684828501612c18565b60608301525060806134aa84828501612c18565b60808301525060a06134be84828501612c18565b60a08301525092915050565b60006134dd6134d8846133c6565b612ea0565b90508083825260208201905060208402830185811115613500576134ff612ee7565b5b835b8181101561354757803567ffffffffffffffff81111561352557613524612e3b565b5b80860161353289826133f2565b85526020850194505050602081019050613502565b5050509392505050565b600082601f83011261356657613565612e3b565b5b81356135768482602086016134ca565b91505092915050565b6000806040838503121561359657613595612a77565b5b600083013567ffffffffffffffff8111156135b4576135b3612a7c565b5b6135c085828601613551565b92505060206135d185828601612ccd565b9150509250929050565b600067ffffffffffffffff8211156135f6576135f5612e40565b5b6135ff82612b8b565b9050602081019050919050565b600061361f61361a846135db565b612ea0565b90508281526020810184848401111561363b5761363a612ef6565b5b613646848285612f2c565b509392505050565b600082601f83011261366357613662612e3b565b5b813561367384826020860161360c565b91505092915050565b6000806000806080858703121561369657613695612a77565b5b60006136a487828801612ccd565b94505060206136b587828801612ccd565b93505060406136c687828801612c18565b925050606085013567ffffffffffffffff8111156136e7576136e6612a7c565b5b6136f38782880161364e565b91505092959194509250565b60006060820190506137146000830186612d75565b6137216020830185612c8c565b61372e6040830184612d75565b949350505050565b6000806040838503121561374d5761374c612a77565b5b600061375b85828601612ccd565b925050602061376c85828601612ccd565b9150509250929050565b7f4e487b7100000000000000000000000000000000000000000000000000000000600052602260045260246000fd5b600060028204905060018216806137bd57607f821691505b602082108114156137d1576137d0613776565b5b50919050565b7f4552433732313a20617070726f76656420717565727920666f72206e6f6e657860008201527f697374656e7420746f6b656e0000000000000000000000000000000000000000602082015250565b6000613833602c83612b47565b915061383e826137d7565b604082019050919050565b6000602082019050818103600083015261386281613826565b9050919050565b7f4552433732313a20617070726f76616c20746f2063757272656e74206f776e6560008201527f7200000000000000000000000000000000000000000000000000000000000000602082015250565b60006138c5602183612b47565b91506138d082613869565b604082019050919050565b600060208201905081810360008301526138f4816138b8565b9050919050565b7f4552433732313a20617070726f76652063616c6c6572206973206e6f74206f7760008201527f6e6572206e6f7220617070726f76656420666f7220616c6c0000000000000000602082015250565b6000613957603883612b47565b9150613962826138fb565b604082019050919050565b600060208201905081810360008301526139868161394a565b9050919050565b7f4552433732313a207472616e736665722063616c6c6572206973206e6f74206f60008201527f776e6572206e6f7220617070726f766564000000000000000000000000000000602082015250565b60006139e9603183612b47565b91506139f48261398d565b604082019050919050565b60006020820190508181036000830152613a18816139dc565b9050919050565b7f596f75206e65656420746f207573652074686520666163746f72790000000000600082015250565b6000613a55601b83612b47565b9150613a6082613a1f565b602082019050919050565b60006020820190508181036000830152613a8481613a48565b9050919050565b7f546865207469636b65747320636f7374206d6f72650000000000000000000000600082015250565b6000613ac1601583612b47565b9150613acc82613a8b565b602082019050919050565b60006020820190508181036000830152613af081613ab4565b9050919050565b7f4e487b7100000000000000000000000000000000000000000000000000000000600052603260045260246000fd5b7f4e487b7100000000000000000000000000000000000000000000000000000000600052601160045260246000fd5b6000613b6082612bf7565b91507fffffffffffffffffffffffffffffffffffffffffffffffffffffffffffffffff821415613b9357613b92613b26565b5b600182019050919050565b7f4552433732313a206f776e657220717565727920666f72206e6f6e657869737460008201527f656e7420746f6b656e0000000000000000000000000000000000000000000000602082015250565b6000613bfa602983612b47565b9150613c0582613b9e565b604082019050919050565b60006020820190508181036000830152613c2981613bed565b9050919050565b7f4552433732313a2062616c616e636520717565727920666f7220746865207a6560008201527f726f206164647265737300000000000000000000000000000000000000000000602082015250565b6000613c8c602a83612b47565b9150613c9782613c30565b604082019050919050565b60006020820190508181036000830152613cbb81613c7f565b9050919050565b7f4163636573732072657374726963746564210000000000000000000000000000600082015250565b6000613cf8601283612b47565b9150613d0382613cc2565b602082019050919050565b60006020820190508181036000830152613d2781613ceb565b9050919050565b7f45524337323155524953746f726167653a2055524920717565727920666f722060008201527f6e6f6e6578697374656e7420746f6b656e000000000000000000000000000000602082015250565b6000613d8a603183612b47565b9150613d9582613d2e565b604082019050919050565b60006020820190508181036000830152613db981613d7d565b9050919050565b600081905092915050565b6000613dd682612b3c565b613de08185613dc0565b9350613df0818560208601612b58565b80840191505092915050565b6000613e088285613dcb565b9150613e148284613dcb565b91508190509392505050565b7f4552433732313a206f70657261746f7220717565727920666f72206e6f6e657860008201527f697374656e7420746f6b656e0000000000000000000000000000000000000000602082015250565b6000613e7c602c83612b47565b9150613e8782613e20565b604082019050919050565b60006020820190508181036000830152613eab81613e6f565b9050919050565b7f4552433732313a207472616e736665722066726f6d20696e636f72726563742060008201527f6f776e6572000000000000000000000000000000000000000000000000000000602082015250565b6000613f0e602583612b47565b9150613f1982613eb2565b604082019050919050565b60006020820190508181036000830152613f3d81613f01565b9050919050565b7f4552433732313a207472616e7366657220746f20746865207a65726f2061646460008201527f7265737300000000000000000000000000000000000000000000000000000000602082015250565b6000613fa0602483612b47565b9150613fab82613f44565b604082019050919050565b60006020820190508181036000830152613fcf81613f93565b9050919050565b6000613fe182612bf7565b9150613fec83612bf7565b925082821015613fff57613ffe613b26565b5b828203905092915050565b600061401582612bf7565b915061402083612bf7565b9250827fffffffffffffffffffffffffffffffffffffffffffffffffffffffffffffffff0382111561405557614054613b26565b5b828201905092915050565b7f4552433732313a206d696e7420746f20746865207a65726f2061646472657373600082015250565b6000614096602083612b47565b91506140a182614060565b602082019050919050565b600060208201905081810360008301526140c581614089565b9050919050565b7f4552433732313a20746f6b656e20616c7265616479206d696e74656400000000600082015250565b6000614102601c83612b47565b915061410d826140cc565b602082019050919050565b60006020820190508181036000830152614131816140f5565b9050919050565b7f45524337323155524953746f726167653a2055524920736574206f66206e6f6e60008201527f6578697374656e7420746f6b656e000000000000000000000000000000000000602082015250565b6000614194602e83612b47565b915061419f82614138565b604082019050919050565b600060208201905081810360008301526141c381614187565b9050919050565b7f4572726f722c2077726f6e6720546f6b656e2069640000000000000000000000600082015250565b6000614200601583612b47565b915061420b826141ca565b602082019050919050565b6000602082019050818103600083015261422f816141f3565b9050919050565b7f4552433732313a20617070726f766520746f2063616c6c657200000000000000600082015250565b600061426c601983612b47565b915061427782614236565b602082019050919050565b6000602082019050818103600083015261429b8161425f565b9050919050565b7f4552433732313a207472616e7366657220746f206e6f6e20455243373231526560008201527f63656976657220696d706c656d656e7465720000000000000000000000000000602082015250565b60006142fe603283612b47565b9150614309826142a2565b604082019050919050565b6000602082019050818103600083015261432d816142f1565b9050919050565b7f4552433732314d657461646174613a2055524920717565727920666f72206e6f60008201527f6e6578697374656e7420746f6b656e0000000000000000000000000000000000602082015250565b6000614390602f83612b47565b915061439b82614334565b604082019050919050565b600060208201905081810360008301526143bf81614383565b9050919050565b600081519050919050565b600082825260208201905092915050565b60006143ed826143c6565b6143f781856143d1565b9350614407818560208601612b58565b61441081612b8b565b840191505092915050565b60006080820190506144306000830187612c8c565b61443d6020830186612c8c565b61444a6040830185612d75565b818103606083015261445c81846143e2565b905095945050505050565b60008151905061447681612aad565b92915050565b60006020828403121561449257614491612a77565b5b60006144a084828501614467565b91505092915050565b7f4e487b7100000000000000000000000000000000000000000000000000000000600052601260045260246000fd5b60006144e382612bf7565b91506144ee83612bf7565b9250826144fe576144fd6144a9565b5b828204905092915050565b600061451482612bf7565b915061451f83612bf7565b92508261452f5761452e6144a9565b5b82820690509291505056fea26469706673582212208971aef4d934d417c1ae78599c0be85cc9b60f5b882ba3995421beb984700c9664736f6c634300080c0033",
  "immutableReferences": {},
  "source": "// SPDX-License-Identifier: GPL-3.0\npragma solidity >=0.6.0 <0.9.0;\n\nimport \"@openzeppelin/contracts/token/ERC721/ERC721.sol\";\nimport \"@openzeppelin/contracts/token/ERC721/extensions/ERC721URIStorage.sol\";\nimport \"./BlocTick.sol\";\n\ncontract Event is ERC721URIStorage {\n    uint256 private COUNTER;\n    address public _owner;\n    uint256 public _created_at;\n    string public _status;\n    address private _factory;\n    uint256 FREE_TICKET = 0;\n    uint256 PAID_TICKET = 1;\n    uint256 DONATION_TICKET = 2;\n    BlocTick.Ticket[] public _tickets;\n    BlocTick.SuccessfulPurchase[] public _sales;\n    BlocTick.EventData public _eventData;\n\n    modifier onlyFactory() {\n        require(msg.sender == _factory, \"You need to use the factory\");\n        _;\n    }\n\n    modifier onlyEventCreator(address caller) {\n        require(caller == _owner, \"Access restricted!\");\n        _;\n    }\n\n    constructor(\n        string memory name,\n        string memory ticker,\n        address __owner\n    ) ERC721(name, ticker) {\n        _factory = msg.sender;\n        _owner = __owner;\n        emit BlocTick.NewEvent(address(this));\n    }\n\n    function _trade(uint256 _id, address __owner) internal {\n        _transfer(address(this), __owner, _id); //nft to user\n    }\n\n    function mint(BlocTick.TicketPurchase[] memory purchases)\n        external\n        payable\n        onlyFactory\n    {\n        require(msg.value >= _getTotalCost(purchases), \"The tickets cost more\");\n        for (uint256 i = 0; i < purchases.length; i++) {\n            BlocTick.TicketPurchase memory purchase = purchases[i];\n            uint256 _tokenId = COUNTER;\n            _mint(address(this), _tokenId);\n            _setTokenURI(_tokenId, purchase.tokenURI);\n            _sales.push(\n                BlocTick.SuccessfulPurchase(\n                    _tokenId,\n                    purchase.owner,\n                    purchase.ticketId\n                )\n            );\n            _validate(_tokenId);\n            _trade(_tokenId, purchase.owner);\n            COUNTER++;\n        }\n    }\n\n    function _getTotalCost(BlocTick.TicketPurchase[] memory purchases)\n        internal\n        view\n        returns (uint256)\n    {\n        uint256 total = 0;\n        for (uint256 i = 0; i < purchases.length; i++) {\n            BlocTick.Ticket memory ticket = _tickets[purchases[i].ticketId];\n            if (ticket.ticket_type == DONATION_TICKET) {\n                continue;\n            }\n            total += ticket.price;\n        }\n        return total;\n    }\n\n    function storeTickets(BlocTick.Ticket[] memory tickets, address caller)\n        external\n        onlyFactory\n        onlyEventCreator(caller)\n    {\n        for (uint256 i = 0; i < tickets.length; i++) {\n            BlocTick.Ticket memory ticket = tickets[i];\n            if (\n                ticket.ticket_type != FREE_TICKET &&\n                ticket.ticket_type != PAID_TICKET &&\n                ticket.ticket_type != DONATION_TICKET\n            ) {\n                ticket.ticket_type = FREE_TICKET;\n            }\n            if (ticket.ticket_type == FREE_TICKET) {\n                ticket.price = 0;\n            }\n            _tickets.push(\n                BlocTick.Ticket(\n                    ticket.name,\n                    ticket.description,\n                    ticket.ticket_type,\n                    ticket.quantity_available,\n                    ticket.max_per_order,\n                    ticket.price\n                )\n            );\n        }\n    }\n\n    function setStatus(string memory __status) external onlyFactory {\n        _status = __status;\n    }\n\n    function _validate(uint256 _id) internal view returns (bool) {\n        require(_exists(_id), \"Error, wrong Token id\");\n        return true;\n    }\n\n    function getMyTickets(address caller)\n        external\n        view\n        returns (BlocTick.SuccessfulPurchase[] memory)\n    {\n        BlocTick.SuccessfulPurchase[]\n            memory result = new BlocTick.SuccessfulPurchase[](\n                balanceOf(caller)\n            );\n        uint256 counter = 0;\n        for (uint256 i = 0; i <= COUNTER; i++) {\n            if (ownerOf(i) == caller) {\n                result[counter] = _sales[i];\n                counter++;\n            }\n        }\n        return result;\n    }\n}\n",
  "sourcePath": "/workspace/nft-ticketting-contracts/backend/contracts/Event.sol",
  "compiler": {
    "name": "solc",
    "version": "0.8.12+commit.f00d7308.Emscripten.clang"
  },
  "schemaVersion": "3.4.5",
  "updatedAt": "2022-03-08T13:03:02.818Z",
  "devdoc": {
    "kind": "dev",
    "methods": {
      "approve(address,uint256)": {
        "details": "See {IERC721-approve}."
      },
      "balanceOf(address)": {
        "details": "See {IERC721-balanceOf}."
      },
      "getApproved(uint256)": {
        "details": "See {IERC721-getApproved}."
      },
      "isApprovedForAll(address,address)": {
        "details": "See {IERC721-isApprovedForAll}."
      },
      "name()": {
        "details": "See {IERC721Metadata-name}."
      },
      "ownerOf(uint256)": {
        "details": "See {IERC721-ownerOf}."
      },
      "safeTransferFrom(address,address,uint256)": {
        "details": "See {IERC721-safeTransferFrom}."
      },
      "safeTransferFrom(address,address,uint256,bytes)": {
        "details": "See {IERC721-safeTransferFrom}."
      },
      "setApprovalForAll(address,bool)": {
        "details": "See {IERC721-setApprovalForAll}."
      },
      "supportsInterface(bytes4)": {
        "details": "See {IERC165-supportsInterface}."
      },
      "symbol()": {
        "details": "See {IERC721Metadata-symbol}."
      },
      "tokenURI(uint256)": {
        "details": "See {IERC721Metadata-tokenURI}."
      },
      "transferFrom(address,address,uint256)": {
        "details": "See {IERC721-transferFrom}."
      }
    },
    "version": 1
  },
  "userdoc": {
    "kind": "user",
    "methods": {},
    "version": 1
  }
}