{
  "contractName": "Platform",
  "abi": [
    {
      "inputs": [
        {
          "internalType": "uint256",
          "name": "",
          "type": "uint256"
        }
      ],
      "name": "collections",
      "outputs": [
        {
          "internalType": "uint256",
          "name": "id",
          "type": "uint256"
        },
        {
          "internalType": "string",
          "name": "name",
          "type": "string"
        },
        {
          "internalType": "string",
          "name": "ticker",
          "type": "string"
        },
        {
          "internalType": "string",
          "name": "contractAddress",
          "type": "string"
        },
        {
          "internalType": "string",
          "name": "status",
          "type": "string"
        },
        {
          "internalType": "string",
          "name": "owner",
          "type": "string"
        }
      ],
      "stateMutability": "view",
      "type": "function"
    },
    {
      "inputs": [
        {
          "internalType": "string",
          "name": "name",
          "type": "string"
        },
        {
          "internalType": "string",
          "name": "ticker",
          "type": "string"
        },
        {
          "internalType": "string",
          "name": "contractAddress",
          "type": "string"
        },
        {
          "internalType": "string",
          "name": "owner",
          "type": "string"
        }
      ],
      "name": "addCollection",
      "outputs": [],
      "stateMutability": "nonpayable",
      "type": "function"
    },
    {
      "inputs": [],
      "name": "getCollections",
      "outputs": [
        {
          "components": [
            {
              "internalType": "uint256",
              "name": "id",
              "type": "uint256"
            },
            {
              "internalType": "string",
              "name": "name",
              "type": "string"
            },
            {
              "internalType": "string",
              "name": "ticker",
              "type": "string"
            },
            {
              "internalType": "string",
              "name": "contractAddress",
              "type": "string"
            },
            {
              "internalType": "string",
              "name": "status",
              "type": "string"
            },
            {
              "internalType": "string",
              "name": "owner",
              "type": "string"
            }
          ],
          "internalType": "struct Platform.TicketCollection[]",
          "name": "",
          "type": "tuple[]"
        }
      ],
      "stateMutability": "view",
      "type": "function"
    },
    {
      "inputs": [
        {
          "internalType": "uint256",
          "name": "_id",
          "type": "uint256"
        }
      ],
      "name": "getCollection",
      "outputs": [
        {
          "components": [
            {
              "internalType": "uint256",
              "name": "id",
              "type": "uint256"
            },
            {
              "internalType": "string",
              "name": "name",
              "type": "string"
            },
            {
              "internalType": "string",
              "name": "ticker",
              "type": "string"
            },
            {
              "internalType": "string",
              "name": "contractAddress",
              "type": "string"
            },
            {
              "internalType": "string",
              "name": "status",
              "type": "string"
            },
            {
              "internalType": "string",
              "name": "owner",
              "type": "string"
            }
          ],
          "internalType": "struct Platform.TicketCollection",
          "name": "",
          "type": "tuple"
        }
      ],
      "stateMutability": "view",
      "type": "function"
    }
  ],
  "bytecode": "0x608060405234801561001057600080fd5b5061143d806100206000396000f3fe608060405234801561001057600080fd5b506004361061004c5760003560e01c80634050683f1461005157806346e635861461006d5780635a1f3c281461008b578063fdbda0ec146100bb575b600080fd5b61006b60048036038101906100669190610e01565b6100f0565b005b610075610277565b60405161008291906110e0565b60405180910390f35b6100a560048036038101906100a0919061112e565b6105ba565b6040516100b29190611200565b60405180910390f35b6100d560048036038101906100d0919061112e565b6108da565b6040516100e79695949392919061127b565b60405180910390f35b3073ffffffffffffffffffffffffffffffffffffffff163373ffffffffffffffffffffffffffffffffffffffff161461012857600080fd5b60006040518060c0016040528060005481526020018681526020018581526020018481526020016040518060400160405280600681526020017f6163746976650000000000000000000000000000000000000000000000000000815250815260200183815250905060018190806001815401808255809150506001900390600052602060002090600602016000909190919091506000820151816000015560208201518160010190805190602001906101e2929190610bce565b5060408201518160020190805190602001906101ff929190610bce565b50606082015181600301908051906020019061021c929190610bce565b506080820151816004019080519060200190610239929190610bce565b5060a0820151816005019080519060200190610256929190610bce565b50505060008081548092919061026b9061132e565b91905055505050505050565b60606001805480602002602001604051908101604052809291908181526020016000905b828210156105b157838290600052602060002090600602016040518060c0016040529081600082015481526020016001820180546102d8906113a6565b80601f0160208091040260200160405190810160405280929190818152602001828054610304906113a6565b80156103515780601f1061032657610100808354040283529160200191610351565b820191906000526020600020905b81548152906001019060200180831161033457829003601f168201915b5050505050815260200160028201805461036a906113a6565b80601f0160208091040260200160405190810160405280929190818152602001828054610396906113a6565b80156103e35780601f106103b8576101008083540402835291602001916103e3565b820191906000526020600020905b8154815290600101906020018083116103c657829003601f168201915b505050505081526020016003820180546103fc906113a6565b80601f0160208091040260200160405190810160405280929190818152602001828054610428906113a6565b80156104755780601f1061044a57610100808354040283529160200191610475565b820191906000526020600020905b81548152906001019060200180831161045857829003601f168201915b5050505050815260200160048201805461048e906113a6565b80601f01602080910402602001604051908101604052809291908181526020018280546104ba906113a6565b80156105075780601f106104dc57610100808354040283529160200191610507565b820191906000526020600020905b8154815290600101906020018083116104ea57829003601f168201915b50505050508152602001600582018054610520906113a6565b80601f016020809104026020016040519081016040528092919081815260200182805461054c906113a6565b80156105995780601f1061056e57610100808354040283529160200191610599565b820191906000526020600020905b81548152906001019060200180831161057c57829003601f168201915b5050505050815250508152602001906001019061029b565b50505050905090565b6105c2610c54565b600182815481106105d6576105d56113d8565b5b90600052602060002090600602016040518060c001604052908160008201548152602001600182018054610609906113a6565b80601f0160208091040260200160405190810160405280929190818152602001828054610635906113a6565b80156106825780601f1061065757610100808354040283529160200191610682565b820191906000526020600020905b81548152906001019060200180831161066557829003601f168201915b5050505050815260200160028201805461069b906113a6565b80601f01602080910402602001604051908101604052809291908181526020018280546106c7906113a6565b80156107145780601f106106e957610100808354040283529160200191610714565b820191906000526020600020905b8154815290600101906020018083116106f757829003601f168201915b5050505050815260200160038201805461072d906113a6565b80601f0160208091040260200160405190810160405280929190818152602001828054610759906113a6565b80156107a65780601f1061077b576101008083540402835291602001916107a6565b820191906000526020600020905b81548152906001019060200180831161078957829003601f168201915b505050505081526020016004820180546107bf906113a6565b80601f01602080910402602001604051908101604052809291908181526020018280546107eb906113a6565b80156108385780601f1061080d57610100808354040283529160200191610838565b820191906000526020600020905b81548152906001019060200180831161081b57829003601f168201915b50505050508152602001600582018054610851906113a6565b80601f016020809104026020016040519081016040528092919081815260200182805461087d906113a6565b80156108ca5780601f1061089f576101008083540402835291602001916108ca565b820191906000526020600020905b8154815290600101906020018083116108ad57829003601f168201915b5050505050815250509050919050565b600181815481106108ea57600080fd5b9060005260206000209060060201600091509050806000015490806001018054610913906113a6565b80601f016020809104026020016040519081016040528092919081815260200182805461093f906113a6565b801561098c5780601f106109615761010080835404028352916020019161098c565b820191906000526020600020905b81548152906001019060200180831161096f57829003601f168201915b5050505050908060020180546109a1906113a6565b80601f01602080910402602001604051908101604052809291908181526020018280546109cd906113a6565b8015610a1a5780601f106109ef57610100808354040283529160200191610a1a565b820191906000526020600020905b8154815290600101906020018083116109fd57829003601f168201915b505050505090806003018054610a2f906113a6565b80601f0160208091040260200160405190810160405280929190818152602001828054610a5b906113a6565b8015610aa85780601f10610a7d57610100808354040283529160200191610aa8565b820191906000526020600020905b815481529060010190602001808311610a8b57829003601f168201915b505050505090806004018054610abd906113a6565b80601f0160208091040260200160405190810160405280929190818152602001828054610ae9906113a6565b8015610b365780601f10610b0b57610100808354040283529160200191610b36565b820191906000526020600020905b815481529060010190602001808311610b1957829003601f168201915b505050505090806005018054610b4b906113a6565b80601f0160208091040260200160405190810160405280929190818152602001828054610b77906113a6565b8015610bc45780601f10610b9957610100808354040283529160200191610bc4565b820191906000526020600020905b815481529060010190602001808311610ba757829003601f168201915b5050505050905086565b828054610bda906113a6565b90600052602060002090601f016020900481019282610bfc5760008555610c43565b82601f10610c1557805160ff1916838001178555610c43565b82800160010185558215610c43579182015b82811115610c42578251825591602001919060010190610c27565b5b509050610c509190610c8a565b5090565b6040518060c001604052806000815260200160608152602001606081526020016060815260200160608152602001606081525090565b5b80821115610ca3576000816000905550600101610c8b565b5090565b6000604051905090565b600080fd5b600080fd5b600080fd5b600080fd5b6000601f19601f8301169050919050565b7f4e487b7100000000000000000000000000000000000000000000000000000000600052604160045260246000fd5b610d0e82610cc5565b810181811067ffffffffffffffff82111715610d2d57610d2c610cd6565b5b80604052505050565b6000610d40610ca7565b9050610d4c8282610d05565b919050565b600067ffffffffffffffff821115610d6c57610d6b610cd6565b5b610d7582610cc5565b9050602081019050919050565b82818337600083830152505050565b6000610da4610d9f84610d51565b610d36565b905082815260208101848484011115610dc057610dbf610cc0565b5b610dcb848285610d82565b509392505050565b600082601f830112610de857610de7610cbb565b5b8135610df8848260208601610d91565b91505092915050565b60008060008060808587031215610e1b57610e1a610cb1565b5b600085013567ffffffffffffffff811115610e3957610e38610cb6565b5b610e4587828801610dd3565b945050602085013567ffffffffffffffff811115610e6657610e65610cb6565b5b610e7287828801610dd3565b935050604085013567ffffffffffffffff811115610e9357610e92610cb6565b5b610e9f87828801610dd3565b925050606085013567ffffffffffffffff811115610ec057610ebf610cb6565b5b610ecc87828801610dd3565b91505092959194509250565b600081519050919050565b600082825260208201905092915050565b6000819050602082019050919050565b6000819050919050565b610f1781610f04565b82525050565b600081519050919050565b600082825260208201905092915050565b60005b83811015610f57578082015181840152602081019050610f3c565b83811115610f66576000848401525b50505050565b6000610f7782610f1d565b610f818185610f28565b9350610f91818560208601610f39565b610f9a81610cc5565b840191505092915050565b600060c083016000830151610fbd6000860182610f0e565b5060208301518482036020860152610fd58282610f6c565b91505060408301518482036040860152610fef8282610f6c565b915050606083015184820360608601526110098282610f6c565b915050608083015184820360808601526110238282610f6c565b91505060a083015184820360a086015261103d8282610f6c565b9150508091505092915050565b60006110568383610fa5565b905092915050565b6000602082019050919050565b600061107682610ed8565b6110808185610ee3565b93508360208202850161109285610ef4565b8060005b858110156110ce57848403895281516110af858261104a565b94506110ba8361105e565b925060208a01995050600181019050611096565b50829750879550505050505092915050565b600060208201905081810360008301526110fa818461106b565b905092915050565b61110b81610f04565b811461111657600080fd5b50565b60008135905061112881611102565b92915050565b60006020828403121561114457611143610cb1565b5b600061115284828501611119565b91505092915050565b600060c0830160008301516111736000860182610f0e565b506020830151848203602086015261118b8282610f6c565b915050604083015184820360408601526111a58282610f6c565b915050606083015184820360608601526111bf8282610f6c565b915050608083015184820360808601526111d98282610f6c565b91505060a083015184820360a08601526111f38282610f6c565b9150508091505092915050565b6000602082019050818103600083015261121a818461115b565b905092915050565b61122b81610f04565b82525050565b600082825260208201905092915050565b600061124d82610f1d565b6112578185611231565b9350611267818560208601610f39565b61127081610cc5565b840191505092915050565b600060c0820190506112906000830189611222565b81810360208301526112a28188611242565b905081810360408301526112b68187611242565b905081810360608301526112ca8186611242565b905081810360808301526112de8185611242565b905081810360a08301526112f28184611242565b9050979650505050505050565b7f4e487b7100000000000000000000000000000000000000000000000000000000600052601160045260246000fd5b600061133982610f04565b91507fffffffffffffffffffffffffffffffffffffffffffffffffffffffffffffffff82141561136c5761136b6112ff565b5b600182019050919050565b7f4e487b7100000000000000000000000000000000000000000000000000000000600052602260045260246000fd5b600060028204905060018216806113be57607f821691505b602082108114156113d2576113d1611377565b5b50919050565b7f4e487b7100000000000000000000000000000000000000000000000000000000600052603260045260246000fdfea26469706673582212202fa59e26901cfaec1f10c7dc3c27056162eb3140a2a5a4ba30b9b5bcba9c2c3564736f6c634300080c0033",
  "immutableReferences": {},
  "source": "// SPDX-License-Identifier: GPL-3.0\npragma solidity >=0.6.0 <0.9.0;\n\ncontract Platform {\n    uint256 COUNTER;\n    struct TicketCollection{\n        uint256 id; \n        string name;\n        string ticker;\n        string contractAddress;\n        string status;\n        string owner;\n    }\n\n    TicketCollection[] public collections;\n\n    function addCollection(string memory name, string memory ticker, string memory contractAddress, string memory owner) public {\n        require(msg.sender == address(this));\n        TicketCollection memory newCollection = TicketCollection(COUNTER, name, ticker, contractAddress, \"active\", owner);\n        collections.push(newCollection);\n        COUNTER++;\n    }\n\n    function getCollections() public view returns (TicketCollection[] memory) {\n        return collections;\n    }\n\n    function getCollection(uint256 _id) public view returns (TicketCollection memory) {\n        return collections[_id];\n    }\n}",
  "sourcePath": "/workspace/nft-ticketting/backend/contracts/Platform.sol",
  "compiler": {
    "name": "solc",
    "version": "0.8.12+commit.f00d7308.Emscripten.clang"
  },
  "schemaVersion": "3.4.5",
  "updatedAt": "2022-02-22T23:30:01.776Z",
  "devdoc": {
    "kind": "dev",
    "methods": {},
    "version": 1
  },
  "userdoc": {
    "kind": "user",
    "methods": {},
    "version": 1
  }
}