{
  "contractName": "Platform",
  "abi": [
    {
      "inputs": [],
      "stateMutability": "nonpayable",
      "type": "constructor"
    },
    {
      "inputs": [],
      "name": "_owner",
      "outputs": [
        {
          "internalType": "address",
          "name": "",
          "type": "address"
        }
      ],
      "stateMutability": "view",
      "type": "function"
    },
    {
      "inputs": [
        {
          "internalType": "address",
          "name": "eventContract",
          "type": "address"
        },
        {
          "components": [
            {
              "internalType": "string",
              "name": "purchaseId",
              "type": "string"
            },
            {
              "internalType": "uint256",
              "name": "ticketId",
              "type": "uint256"
            },
            {
              "internalType": "string",
              "name": "tokenURI",
              "type": "string"
            },
            {
              "internalType": "address",
              "name": "owner",
              "type": "address"
            },
            {
              "internalType": "uint256",
              "name": "cost",
              "type": "uint256"
            }
          ],
          "internalType": "struct BlocTick.TicketPurchase[]",
          "name": "purchases",
          "type": "tuple[]"
        }
      ],
      "name": "mintTickets",
      "outputs": [],
      "stateMutability": "payable",
      "type": "function"
    },
    {
      "inputs": [
        {
          "internalType": "uint256",
          "name": "fee",
          "type": "uint256"
        }
      ],
      "name": "setPlatformPercent",
      "outputs": [],
      "stateMutability": "nonpayable",
      "type": "function"
    },
    {
      "inputs": [
        {
          "internalType": "address",
          "name": "eventContract",
          "type": "address"
        },
        {
          "internalType": "string",
          "name": "status",
          "type": "string"
        }
      ],
      "name": "setEventStatus",
      "outputs": [],
      "stateMutability": "nonpayable",
      "type": "function"
    }
  ],
  "bytecode": "0x6080604052600a60015534801561001557600080fd5b50336000806101000a81548173ffffffffffffffffffffffffffffffffffffffff021916908373ffffffffffffffffffffffffffffffffffffffff160217905550610d76806100656000396000f3fe60806040526004361061003f5760003560e01c806367962c2714610044578063b2bdfa7b1461006d578063e08aa14914610098578063ff001b32146100b4575b600080fd5b34801561005057600080fd5b5061006b60048036038101906100669190610609565b6100dd565b005b34801561007957600080fd5b506100826101da565b60405161008f9190610674565b60405180910390f35b6100b260048036038101906100ad9190610879565b6101fe565b005b3480156100c057600080fd5b506100db60048036038101906100d691906108d5565b6103b9565b005b60008054906101000a900473ffffffffffffffffffffffffffffffffffffffff1673ffffffffffffffffffffffffffffffffffffffff163373ffffffffffffffffffffffffffffffffffffffff161461016b576040517f08c379a00000000000000000000000000000000000000000000000000000000081526004016101629061095f565b60405180910390fd5b8173ffffffffffffffffffffffffffffffffffffffff16637d2211d6826040518263ffffffff1660e01b81526004016101a491906109f6565b600060405180830381600087803b1580156101be57600080fd5b505af11580156101d2573d6000803e3d6000fd5b505050505050565b60008054906101000a900473ffffffffffffffffffffffffffffffffffffffff1681565b60008290508073ffffffffffffffffffffffffffffffffffffffff1663c63197ce836040518263ffffffff1660e01b815260040161023c9190610bbf565b600060405180830381600087803b15801561025657600080fd5b505af115801561026a573d6000803e3d6000fd5b5050505060003460646001546102809190610c3f565b61028a9190610c70565b90508173ffffffffffffffffffffffffffffffffffffffff1663b2bdfa7b6040518163ffffffff1660e01b8152600401602060405180830381865afa1580156102d7573d6000803e3d6000fd5b505050506040513d601f19601f820116820180604052508101906102fb9190610cdf565b73ffffffffffffffffffffffffffffffffffffffff166108fc82346103209190610d0c565b9081150290604051600060405180830381858888f1935050505015801561034b573d6000803e3d6000fd5b5060008054906101000a900473ffffffffffffffffffffffffffffffffffffffff1673ffffffffffffffffffffffffffffffffffffffff166108fc829081150290604051600060405180830381858888f193505050501580156103b2573d6000803e3d6000fd5b5050505050565b60008054906101000a900473ffffffffffffffffffffffffffffffffffffffff1673ffffffffffffffffffffffffffffffffffffffff163373ffffffffffffffffffffffffffffffffffffffff1614610447576040517f08c379a000000000000000000000000000000000000000000000000000000000815260040161043e9061095f565b60405180910390fd5b8060018190555050565b6000604051905090565b600080fd5b600080fd5b600073ffffffffffffffffffffffffffffffffffffffff82169050919050565b600061049082610465565b9050919050565b6104a081610485565b81146104ab57600080fd5b50565b6000813590506104bd81610497565b92915050565b600080fd5b600080fd5b6000601f19601f8301169050919050565b7f4e487b7100000000000000000000000000000000000000000000000000000000600052604160045260246000fd5b610516826104cd565b810181811067ffffffffffffffff82111715610535576105346104de565b5b80604052505050565b6000610548610451565b9050610554828261050d565b919050565b600067ffffffffffffffff821115610574576105736104de565b5b61057d826104cd565b9050602081019050919050565b82818337600083830152505050565b60006105ac6105a784610559565b61053e565b9050828152602081018484840111156105c8576105c76104c8565b5b6105d384828561058a565b509392505050565b600082601f8301126105f0576105ef6104c3565b5b8135610600848260208601610599565b91505092915050565b600080604083850312156106205761061f61045b565b5b600061062e858286016104ae565b925050602083013567ffffffffffffffff81111561064f5761064e610460565b5b61065b858286016105db565b9150509250929050565b61066e81610485565b82525050565b60006020820190506106896000830184610665565b92915050565b600067ffffffffffffffff8211156106aa576106a96104de565b5b602082029050602081019050919050565b600080fd5b600080fd5b600080fd5b6000819050919050565b6106dd816106ca565b81146106e857600080fd5b50565b6000813590506106fa816106d4565b92915050565b600060a08284031215610716576107156106c0565b5b61072060a061053e565b9050600082013567ffffffffffffffff8111156107405761073f6106c5565b5b61074c848285016105db565b6000830152506020610760848285016106eb565b602083015250604082013567ffffffffffffffff811115610784576107836106c5565b5b610790848285016105db565b60408301525060606107a4848285016104ae565b60608301525060806107b8848285016106eb565b60808301525092915050565b60006107d76107d28461068f565b61053e565b905080838252602082019050602084028301858111156107fa576107f96106bb565b5b835b8181101561084157803567ffffffffffffffff81111561081f5761081e6104c3565b5b80860161082c8982610700565b855260208501945050506020810190506107fc565b5050509392505050565b600082601f8301126108605761085f6104c3565b5b81356108708482602086016107c4565b91505092915050565b600080604083850312156108905761088f61045b565b5b600061089e858286016104ae565b925050602083013567ffffffffffffffff8111156108bf576108be610460565b5b6108cb8582860161084b565b9150509250929050565b6000602082840312156108eb576108ea61045b565b5b60006108f9848285016106eb565b91505092915050565b600082825260208201905092915050565b7f4163636573732072657374726963746564210000000000000000000000000000600082015250565b6000610949601283610902565b915061095482610913565b602082019050919050565b600060208201905081810360008301526109788161093c565b9050919050565b600081519050919050565b60005b838110156109a857808201518184015260208101905061098d565b838111156109b7576000848401525b50505050565b60006109c88261097f565b6109d28185610902565b93506109e281856020860161098a565b6109eb816104cd565b840191505092915050565b60006020820190508181036000830152610a1081846109bd565b905092915050565b600081519050919050565b600082825260208201905092915050565b6000819050602082019050919050565b600082825260208201905092915050565b6000610a608261097f565b610a6a8185610a44565b9350610a7a81856020860161098a565b610a83816104cd565b840191505092915050565b610a97816106ca565b82525050565b610aa681610485565b82525050565b600060a0830160008301518482036000860152610ac98282610a55565b9150506020830151610ade6020860182610a8e565b5060408301518482036040860152610af68282610a55565b9150506060830151610b0b6060860182610a9d565b506080830151610b1e6080860182610a8e565b508091505092915050565b6000610b358383610aac565b905092915050565b6000602082019050919050565b6000610b5582610a18565b610b5f8185610a23565b935083602082028501610b7185610a34565b8060005b85811015610bad5784840389528151610b8e8582610b29565b9450610b9983610b3d565b925060208a01995050600181019050610b75565b50829750879550505050505092915050565b60006020820190508181036000830152610bd98184610b4a565b905092915050565b7f4e487b7100000000000000000000000000000000000000000000000000000000600052601260045260246000fd5b7f4e487b7100000000000000000000000000000000000000000000000000000000600052601160045260246000fd5b6000610c4a826106ca565b9150610c55836106ca565b925082610c6557610c64610be1565b5b828204905092915050565b6000610c7b826106ca565b9150610c86836106ca565b9250817fffffffffffffffffffffffffffffffffffffffffffffffffffffffffffffffff0483118215151615610cbf57610cbe610c10565b5b828202905092915050565b600081519050610cd981610497565b92915050565b600060208284031215610cf557610cf461045b565b5b6000610d0384828501610cca565b91505092915050565b6000610d17826106ca565b9150610d22836106ca565b925082821015610d3557610d34610c10565b5b82820390509291505056fea264697066735822122050e37ba127bb5b9b0bef199ca197eb18804cb01fc1fd07a8f04338c8f10b62e864736f6c634300080d0033",
  "immutableReferences": {},
  "source": "// SPDX-License-Identifier: GPL-3.0\npragma solidity >=0.6.0 <0.9.0;\n\nimport \"./EventFactory.sol\";\nimport \"./Administrator.sol\";\n\ncontract Platform is Administrator {\n    uint256 platform_percent = 10;\n\n    constructor() {\n        _owner = msg.sender;\n    }\n\n    function mintTickets(\n        address eventContract,\n        BlocTick.TicketPurchase[] memory purchases\n    ) external payable {\n        Event e = Event(eventContract);\n        e.purchaseTickets(purchases);\n        uint256 platform_fee = (platform_percent / 100) * msg.value;\n        payable(e._owner()).transfer(msg.value - platform_fee);\n        payable(_owner).transfer(platform_fee);\n    }\n\n    function setPlatformPercent(uint256 fee) external onlyAdministrator {\n        platform_percent = fee;\n    }\n\n    function setEventStatus(address eventContract, string memory status)\n        external\n        onlyAdministrator\n    {\n        Event(eventContract).setStatus(status);\n    }\n}\n",
  "sourcePath": "/workspace/nft-ticketting-contracts/backend/contracts/Platform.sol",
  "compiler": {
    "name": "solc",
    "version": "0.8.13+commit.abaa5c0e.Emscripten.clang"
  },
  "schemaVersion": "3.4.7",
  "updatedAt": "2022-04-11T07:15:28.654Z",
  "devdoc": {
    "kind": "dev",
    "methods": {},
    "version": 1
  },
  "userdoc": {
    "kind": "user",
    "methods": {},
    "version": 1
  }
}