{
  "contractName": "Platform",
  "abi": [
    {
      "inputs": [],
      "stateMutability": "nonpayable",
      "type": "constructor"
    },
    {
      "inputs": [],
      "name": "_owner",
      "outputs": [
        {
          "internalType": "address",
          "name": "",
          "type": "address"
        }
      ],
      "stateMutability": "view",
      "type": "function",
      "constant": true
    },
    {
      "inputs": [
        {
          "internalType": "address",
          "name": "eventContract",
          "type": "address"
        },
        {
          "components": [
            {
              "internalType": "string",
              "name": "purchaseId",
              "type": "string"
            },
            {
              "internalType": "uint8",
              "name": "ticketId",
              "type": "uint8"
            },
            {
              "internalType": "string",
              "name": "tokenURI",
              "type": "string"
            },
            {
              "internalType": "address",
              "name": "buyer",
              "type": "address"
            },
            {
              "internalType": "uint256",
              "name": "cost",
              "type": "uint256"
            }
          ],
          "internalType": "struct BlocTick.TicketPurchase[]",
          "name": "purchases",
          "type": "tuple[]"
        }
      ],
      "name": "mintTickets",
      "outputs": [],
      "stateMutability": "payable",
      "type": "function",
      "payable": true
    },
    {
      "inputs": [
        {
          "internalType": "uint256",
          "name": "fee",
          "type": "uint256"
        }
      ],
      "name": "setPlatformPercent",
      "outputs": [],
      "stateMutability": "nonpayable",
      "type": "function"
    },
    {
      "inputs": [
        {
          "internalType": "address",
          "name": "eventContract",
          "type": "address"
        },
        {
          "internalType": "string",
          "name": "status",
          "type": "string"
        }
      ],
      "name": "setEventStatus",
      "outputs": [],
      "stateMutability": "nonpayable",
      "type": "function"
    }
  ],
  "bytecode": "0x6080604052600a60015534801561001557600080fd5b50336000806101000a81548173ffffffffffffffffffffffffffffffffffffffff021916908373ffffffffffffffffffffffffffffffffffffffff160217905550610dbe806100656000396000f3fe60806040526004361061003f5760003560e01c806367962c27146100445780639d333f501461006d578063b2bdfa7b14610089578063ff001b32146100b4575b600080fd5b34801561005057600080fd5b5061006b60048036038101906100669190610609565b6100dd565b005b61008760048036038101906100829190610888565b6101da565b005b34801561009557600080fd5b5061009e610395565b6040516100ab91906108f3565b60405180910390f35b3480156100c057600080fd5b506100db60048036038101906100d6919061090e565b6103b9565b005b60008054906101000a900473ffffffffffffffffffffffffffffffffffffffff1673ffffffffffffffffffffffffffffffffffffffff163373ffffffffffffffffffffffffffffffffffffffff161461016b576040517f08c379a000000000000000000000000000000000000000000000000000000000815260040161016290610998565b60405180910390fd5b8173ffffffffffffffffffffffffffffffffffffffff16637d2211d6826040518263ffffffff1660e01b81526004016101a49190610a2f565b600060405180830381600087803b1580156101be57600080fd5b505af11580156101d2573d6000803e3d6000fd5b505050505050565b60008290508073ffffffffffffffffffffffffffffffffffffffff16631e02a4e3836040518263ffffffff1660e01b81526004016102189190610c07565b600060405180830381600087803b15801561023257600080fd5b505af1158015610246573d6000803e3d6000fd5b50505050600034606460015461025c9190610c87565b6102669190610cb8565b90508173ffffffffffffffffffffffffffffffffffffffff1663b2bdfa7b6040518163ffffffff1660e01b8152600401602060405180830381865afa1580156102b3573d6000803e3d6000fd5b505050506040513d601f19601f820116820180604052508101906102d79190610d27565b73ffffffffffffffffffffffffffffffffffffffff166108fc82346102fc9190610d54565b9081150290604051600060405180830381858888f19350505050158015610327573d6000803e3d6000fd5b5060008054906101000a900473ffffffffffffffffffffffffffffffffffffffff1673ffffffffffffffffffffffffffffffffffffffff166108fc829081150290604051600060405180830381858888f1935050505015801561038e573d6000803e3d6000fd5b5050505050565b60008054906101000a900473ffffffffffffffffffffffffffffffffffffffff1681565b60008054906101000a900473ffffffffffffffffffffffffffffffffffffffff1673ffffffffffffffffffffffffffffffffffffffff163373ffffffffffffffffffffffffffffffffffffffff1614610447576040517f08c379a000000000000000000000000000000000000000000000000000000000815260040161043e90610998565b60405180910390fd5b8060018190555050565b6000604051905090565b600080fd5b600080fd5b600073ffffffffffffffffffffffffffffffffffffffff82169050919050565b600061049082610465565b9050919050565b6104a081610485565b81146104ab57600080fd5b50565b6000813590506104bd81610497565b92915050565b600080fd5b600080fd5b6000601f19601f8301169050919050565b7f4e487b7100000000000000000000000000000000000000000000000000000000600052604160045260246000fd5b610516826104cd565b810181811067ffffffffffffffff82111715610535576105346104de565b5b80604052505050565b6000610548610451565b9050610554828261050d565b919050565b600067ffffffffffffffff821115610574576105736104de565b5b61057d826104cd565b9050602081019050919050565b82818337600083830152505050565b60006105ac6105a784610559565b61053e565b9050828152602081018484840111156105c8576105c76104c8565b5b6105d384828561058a565b509392505050565b600082601f8301126105f0576105ef6104c3565b5b8135610600848260208601610599565b91505092915050565b600080604083850312156106205761061f61045b565b5b600061062e858286016104ae565b925050602083013567ffffffffffffffff81111561064f5761064e610460565b5b61065b858286016105db565b9150509250929050565b600067ffffffffffffffff8211156106805761067f6104de565b5b602082029050602081019050919050565b600080fd5b600080fd5b600080fd5b600060ff82169050919050565b6106b6816106a0565b81146106c157600080fd5b50565b6000813590506106d3816106ad565b92915050565b6000819050919050565b6106ec816106d9565b81146106f757600080fd5b50565b600081359050610709816106e3565b92915050565b600060a0828403121561072557610724610696565b5b61072f60a061053e565b9050600082013567ffffffffffffffff81111561074f5761074e61069b565b5b61075b848285016105db565b600083015250602061076f848285016106c4565b602083015250604082013567ffffffffffffffff8111156107935761079261069b565b5b61079f848285016105db565b60408301525060606107b3848285016104ae565b60608301525060806107c7848285016106fa565b60808301525092915050565b60006107e66107e184610665565b61053e565b9050808382526020820190506020840283018581111561080957610808610691565b5b835b8181101561085057803567ffffffffffffffff81111561082e5761082d6104c3565b5b80860161083b898261070f565b8552602085019450505060208101905061080b565b5050509392505050565b600082601f83011261086f5761086e6104c3565b5b813561087f8482602086016107d3565b91505092915050565b6000806040838503121561089f5761089e61045b565b5b60006108ad858286016104ae565b925050602083013567ffffffffffffffff8111156108ce576108cd610460565b5b6108da8582860161085a565b9150509250929050565b6108ed81610485565b82525050565b600060208201905061090860008301846108e4565b92915050565b6000602082840312156109245761092361045b565b5b6000610932848285016106fa565b91505092915050565b600082825260208201905092915050565b7f4163636573732072657374726963746564210000000000000000000000000000600082015250565b600061098260128361093b565b915061098d8261094c565b602082019050919050565b600060208201905081810360008301526109b181610975565b9050919050565b600081519050919050565b60005b838110156109e15780820151818401526020810190506109c6565b838111156109f0576000848401525b50505050565b6000610a01826109b8565b610a0b818561093b565b9350610a1b8185602086016109c3565b610a24816104cd565b840191505092915050565b60006020820190508181036000830152610a4981846109f6565b905092915050565b600081519050919050565b600082825260208201905092915050565b6000819050602082019050919050565b600082825260208201905092915050565b6000610a99826109b8565b610aa38185610a7d565b9350610ab38185602086016109c3565b610abc816104cd565b840191505092915050565b610ad0816106a0565b82525050565b610adf81610485565b82525050565b610aee816106d9565b82525050565b600060a0830160008301518482036000860152610b118282610a8e565b9150506020830151610b266020860182610ac7565b5060408301518482036040860152610b3e8282610a8e565b9150506060830151610b536060860182610ad6565b506080830151610b666080860182610ae5565b508091505092915050565b6000610b7d8383610af4565b905092915050565b6000602082019050919050565b6000610b9d82610a51565b610ba78185610a5c565b935083602082028501610bb985610a6d565b8060005b85811015610bf55784840389528151610bd68582610b71565b9450610be183610b85565b925060208a01995050600181019050610bbd565b50829750879550505050505092915050565b60006020820190508181036000830152610c218184610b92565b905092915050565b7f4e487b7100000000000000000000000000000000000000000000000000000000600052601260045260246000fd5b7f4e487b7100000000000000000000000000000000000000000000000000000000600052601160045260246000fd5b6000610c92826106d9565b9150610c9d836106d9565b925082610cad57610cac610c29565b5b828204905092915050565b6000610cc3826106d9565b9150610cce836106d9565b9250817fffffffffffffffffffffffffffffffffffffffffffffffffffffffffffffffff0483118215151615610d0757610d06610c58565b5b828202905092915050565b600081519050610d2181610497565b92915050565b600060208284031215610d3d57610d3c61045b565b5b6000610d4b84828501610d12565b91505092915050565b6000610d5f826106d9565b9150610d6a836106d9565b925082821015610d7d57610d7c610c58565b5b82820390509291505056fea2646970667358221220ea8eaef33f4edf66172e3bc629f6bb11566df1be8dca431a3ac8cfdbf79f256464736f6c634300080d0033",
  "immutableReferences": {},
  "source": "// SPDX-License-Identifier: GPL-3.0\npragma solidity >=0.6.0 <0.9.0;\n\nimport \"./EventFactory.sol\";\nimport \"./Administrator.sol\";\n\ncontract Platform is Administrator {\n    uint256 platform_percent = 10;\n\n    constructor() {\n        _owner = msg.sender;\n    }\n\n    function mintTickets(\n        address eventContract,\n        BlocTick.TicketPurchase[] memory purchases\n    ) external payable {\n        Event e = Event(eventContract);\n        e.purchaseTickets(purchases);\n        uint256 platform_fee = (platform_percent / 100) * msg.value;\n        payable(e._owner()).transfer(msg.value - platform_fee);\n        payable(_owner).transfer(platform_fee);\n    }\n\n    function setPlatformPercent(uint256 fee) external onlyAdministrator {\n        platform_percent = fee;\n    }\n\n    function setEventStatus(address eventContract, string memory status)\n        external\n        onlyAdministrator\n    {\n        Event(eventContract).setStatus(status);\n    }\n}\n",
  "sourcePath": "/workspace/nft-ticketting-contracts/backend/contracts/Platform.sol",
  "compiler": {
    "name": "solc",
    "version": "0.8.13+commit.abaa5c0e.Emscripten.clang"
  },
  "schemaVersion": "3.4.7",
  "updatedAt": "2022-04-22T01:24:13.110Z",
  "networkType": "ethereum",
  "devdoc": {
    "kind": "dev",
    "methods": {},
    "version": 1
  },
  "userdoc": {
    "kind": "user",
    "methods": {},
    "version": 1
  }
}