{
  "contractName": "Platform",
  "abi": [
    {
      "inputs": [
        {
          "internalType": "uint256",
          "name": "",
          "type": "uint256"
        }
      ],
      "name": "collections",
      "outputs": [
        {
          "internalType": "uint256",
          "name": "id",
          "type": "uint256"
        },
        {
          "internalType": "string",
          "name": "name",
          "type": "string"
        },
        {
          "internalType": "string",
          "name": "ticker",
          "type": "string"
        },
        {
          "internalType": "string",
          "name": "contractAddress",
          "type": "string"
        },
        {
          "internalType": "string",
          "name": "status",
          "type": "string"
        },
        {
          "internalType": "string",
          "name": "owner",
          "type": "string"
        },
        {
          "internalType": "string",
          "name": "description",
          "type": "string"
        }
      ],
      "stateMutability": "view",
      "type": "function",
      "constant": true
    },
    {
      "inputs": [
        {
          "internalType": "string",
          "name": "name",
          "type": "string"
        },
        {
          "internalType": "string",
          "name": "ticker",
          "type": "string"
        },
        {
          "internalType": "string",
          "name": "contractAddress",
          "type": "string"
        },
        {
          "internalType": "string",
          "name": "owner",
          "type": "string"
        },
        {
          "internalType": "string",
          "name": "description",
          "type": "string"
        }
      ],
      "name": "addCollection",
      "outputs": [],
      "stateMutability": "nonpayable",
      "type": "function"
    },
    {
      "inputs": [],
      "name": "getCollections",
      "outputs": [
        {
          "components": [
            {
              "internalType": "uint256",
              "name": "id",
              "type": "uint256"
            },
            {
              "internalType": "string",
              "name": "name",
              "type": "string"
            },
            {
              "internalType": "string",
              "name": "ticker",
              "type": "string"
            },
            {
              "internalType": "string",
              "name": "contractAddress",
              "type": "string"
            },
            {
              "internalType": "string",
              "name": "status",
              "type": "string"
            },
            {
              "internalType": "string",
              "name": "owner",
              "type": "string"
            },
            {
              "internalType": "string",
              "name": "description",
              "type": "string"
            }
          ],
          "internalType": "struct Platform.TicketCollection[]",
          "name": "",
          "type": "tuple[]"
        }
      ],
      "stateMutability": "view",
      "type": "function",
      "constant": true
    },
    {
      "inputs": [
        {
          "internalType": "uint256",
          "name": "_id",
          "type": "uint256"
        }
      ],
      "name": "getCollection",
      "outputs": [
        {
          "components": [
            {
              "internalType": "uint256",
              "name": "id",
              "type": "uint256"
            },
            {
              "internalType": "string",
              "name": "name",
              "type": "string"
            },
            {
              "internalType": "string",
              "name": "ticker",
              "type": "string"
            },
            {
              "internalType": "string",
              "name": "contractAddress",
              "type": "string"
            },
            {
              "internalType": "string",
              "name": "status",
              "type": "string"
            },
            {
              "internalType": "string",
              "name": "owner",
              "type": "string"
            },
            {
              "internalType": "string",
              "name": "description",
              "type": "string"
            }
          ],
          "internalType": "struct Platform.TicketCollection",
          "name": "",
          "type": "tuple"
        }
      ],
      "stateMutability": "view",
      "type": "function",
      "constant": true
    }
  ],
  "bytecode": "0x608060405234801561001057600080fd5b50611694806100206000396000f3fe608060405234801561001057600080fd5b506004361061004c5760003560e01c806346e63586146100515780635a1f3c281461006f578063801873a11461009f578063fdbda0ec146100bb575b600080fd5b6100596100f1565b60405161006691906110b8565b60405180910390f35b6100896004803603810190610084919061111a565b6104c6565b6040516100969190611206565b60405180910390f35b6100b960048036038101906100b4919061135d565b610878565b005b6100d560048036038101906100d0919061111a565b610a23565b6040516100e897969594939291906114bd565b60405180910390f35b60606001805480602002602001604051908101604052809291908181526020016000905b828210156104bd57838290600052602060002090600702016040518060e00160405290816000820154815260200160018201805461015290611585565b80601f016020809104026020016040519081016040528092919081815260200182805461017e90611585565b80156101cb5780601f106101a0576101008083540402835291602001916101cb565b820191906000526020600020905b8154815290600101906020018083116101ae57829003601f168201915b505050505081526020016002820180546101e490611585565b80601f016020809104026020016040519081016040528092919081815260200182805461021090611585565b801561025d5780601f106102325761010080835404028352916020019161025d565b820191906000526020600020905b81548152906001019060200180831161024057829003601f168201915b5050505050815260200160038201805461027690611585565b80601f01602080910402602001604051908101604052809291908181526020018280546102a290611585565b80156102ef5780601f106102c4576101008083540402835291602001916102ef565b820191906000526020600020905b8154815290600101906020018083116102d257829003601f168201915b5050505050815260200160048201805461030890611585565b80601f016020809104026020016040519081016040528092919081815260200182805461033490611585565b80156103815780601f1061035657610100808354040283529160200191610381565b820191906000526020600020905b81548152906001019060200180831161036457829003601f168201915b5050505050815260200160058201805461039a90611585565b80601f01602080910402602001604051908101604052809291908181526020018280546103c690611585565b80156104135780601f106103e857610100808354040283529160200191610413565b820191906000526020600020905b8154815290600101906020018083116103f657829003601f168201915b5050505050815260200160068201805461042c90611585565b80601f016020809104026020016040519081016040528092919081815260200182805461045890611585565b80156104a55780601f1061047a576101008083540402835291602001916104a5565b820191906000526020600020905b81548152906001019060200180831161048857829003601f168201915b50505050508152505081526020019060010190610115565b50505050905090565b6104ce610da5565b600182815481106104e2576104e16115b7565b5b90600052602060002090600702016040518060e00160405290816000820154815260200160018201805461051590611585565b80601f016020809104026020016040519081016040528092919081815260200182805461054190611585565b801561058e5780601f106105635761010080835404028352916020019161058e565b820191906000526020600020905b81548152906001019060200180831161057157829003601f168201915b505050505081526020016002820180546105a790611585565b80601f01602080910402602001604051908101604052809291908181526020018280546105d390611585565b80156106205780601f106105f557610100808354040283529160200191610620565b820191906000526020600020905b81548152906001019060200180831161060357829003601f168201915b5050505050815260200160038201805461063990611585565b80601f016020809104026020016040519081016040528092919081815260200182805461066590611585565b80156106b25780601f10610687576101008083540402835291602001916106b2565b820191906000526020600020905b81548152906001019060200180831161069557829003601f168201915b505050505081526020016004820180546106cb90611585565b80601f01602080910402602001604051908101604052809291908181526020018280546106f790611585565b80156107445780601f1061071957610100808354040283529160200191610744565b820191906000526020600020905b81548152906001019060200180831161072757829003601f168201915b5050505050815260200160058201805461075d90611585565b80601f016020809104026020016040519081016040528092919081815260200182805461078990611585565b80156107d65780601f106107ab576101008083540402835291602001916107d6565b820191906000526020600020905b8154815290600101906020018083116107b957829003601f168201915b505050505081526020016006820180546107ef90611585565b80601f016020809104026020016040519081016040528092919081815260200182805461081b90611585565b80156108685780601f1061083d57610100808354040283529160200191610868565b820191906000526020600020905b81548152906001019060200180831161084b57829003601f168201915b5050505050815250509050919050565b3073ffffffffffffffffffffffffffffffffffffffff163373ffffffffffffffffffffffffffffffffffffffff16146108b057600080fd5b60006040518060e0016040528060005481526020018781526020018681526020018581526020016040518060400160405280600681526020017f616374697665000000000000000000000000000000000000000000000000000081525081526020018481526020018381525090506001819080600181540180825580915050600190039060005260206000209060070201600090919091909150600082015181600001556020820151816001019080519060200190610970929190610de2565b50604082015181600201908051906020019061098d929190610de2565b5060608201518160030190805190602001906109aa929190610de2565b5060808201518160040190805190602001906109c7929190610de2565b5060a08201518160050190805190602001906109e4929190610de2565b5060c0820151816006019080519060200190610a01929190610de2565b505050600080815480929190610a1690611615565b9190505550505050505050565b60018181548110610a3357600080fd5b9060005260206000209060070201600091509050806000015490806001018054610a5c90611585565b80601f0160208091040260200160405190810160405280929190818152602001828054610a8890611585565b8015610ad55780601f10610aaa57610100808354040283529160200191610ad5565b820191906000526020600020905b815481529060010190602001808311610ab857829003601f168201915b505050505090806002018054610aea90611585565b80601f0160208091040260200160405190810160405280929190818152602001828054610b1690611585565b8015610b635780601f10610b3857610100808354040283529160200191610b63565b820191906000526020600020905b815481529060010190602001808311610b4657829003601f168201915b505050505090806003018054610b7890611585565b80601f0160208091040260200160405190810160405280929190818152602001828054610ba490611585565b8015610bf15780601f10610bc657610100808354040283529160200191610bf1565b820191906000526020600020905b815481529060010190602001808311610bd457829003601f168201915b505050505090806004018054610c0690611585565b80601f0160208091040260200160405190810160405280929190818152602001828054610c3290611585565b8015610c7f5780601f10610c5457610100808354040283529160200191610c7f565b820191906000526020600020905b815481529060010190602001808311610c6257829003601f168201915b505050505090806005018054610c9490611585565b80601f0160208091040260200160405190810160405280929190818152602001828054610cc090611585565b8015610d0d5780601f10610ce257610100808354040283529160200191610d0d565b820191906000526020600020905b815481529060010190602001808311610cf057829003601f168201915b505050505090806006018054610d2290611585565b80601f0160208091040260200160405190810160405280929190818152602001828054610d4e90611585565b8015610d9b5780601f10610d7057610100808354040283529160200191610d9b565b820191906000526020600020905b815481529060010190602001808311610d7e57829003601f168201915b5050505050905087565b6040518060e00160405280600081526020016060815260200160608152602001606081526020016060815260200160608152602001606081525090565b828054610dee90611585565b90600052602060002090601f016020900481019282610e105760008555610e57565b82601f10610e2957805160ff1916838001178555610e57565b82800160010185558215610e57579182015b82811115610e56578251825591602001919060010190610e3b565b5b509050610e649190610e68565b5090565b5b80821115610e81576000816000905550600101610e69565b5090565b600081519050919050565b600082825260208201905092915050565b6000819050602082019050919050565b6000819050919050565b610ec481610eb1565b82525050565b600081519050919050565b600082825260208201905092915050565b60005b83811015610f04578082015181840152602081019050610ee9565b83811115610f13576000848401525b50505050565b6000601f19601f8301169050919050565b6000610f3582610eca565b610f3f8185610ed5565b9350610f4f818560208601610ee6565b610f5881610f19565b840191505092915050565b600060e083016000830151610f7b6000860182610ebb565b5060208301518482036020860152610f938282610f2a565b91505060408301518482036040860152610fad8282610f2a565b91505060608301518482036060860152610fc78282610f2a565b91505060808301518482036080860152610fe18282610f2a565b91505060a083015184820360a0860152610ffb8282610f2a565b91505060c083015184820360c08601526110158282610f2a565b9150508091505092915050565b600061102e8383610f63565b905092915050565b6000602082019050919050565b600061104e82610e85565b6110588185610e90565b93508360208202850161106a85610ea1565b8060005b858110156110a657848403895281516110878582611022565b945061109283611036565b925060208a0199505060018101905061106e565b50829750879550505050505092915050565b600060208201905081810360008301526110d28184611043565b905092915050565b6000604051905090565b600080fd5b600080fd5b6110f781610eb1565b811461110257600080fd5b50565b600081359050611114816110ee565b92915050565b6000602082840312156111305761112f6110e4565b5b600061113e84828501611105565b91505092915050565b600060e08301600083015161115f6000860182610ebb565b50602083015184820360208601526111778282610f2a565b915050604083015184820360408601526111918282610f2a565b915050606083015184820360608601526111ab8282610f2a565b915050608083015184820360808601526111c58282610f2a565b91505060a083015184820360a08601526111df8282610f2a565b91505060c083015184820360c08601526111f98282610f2a565b9150508091505092915050565b600060208201905081810360008301526112208184611147565b905092915050565b600080fd5b600080fd5b7f4e487b7100000000000000000000000000000000000000000000000000000000600052604160045260246000fd5b61126a82610f19565b810181811067ffffffffffffffff8211171561128957611288611232565b5b80604052505050565b600061129c6110da565b90506112a88282611261565b919050565b600067ffffffffffffffff8211156112c8576112c7611232565b5b6112d182610f19565b9050602081019050919050565b82818337600083830152505050565b60006113006112fb846112ad565b611292565b90508281526020810184848401111561131c5761131b61122d565b5b6113278482856112de565b509392505050565b600082601f83011261134457611343611228565b5b81356113548482602086016112ed565b91505092915050565b600080600080600060a08688031215611379576113786110e4565b5b600086013567ffffffffffffffff811115611397576113966110e9565b5b6113a38882890161132f565b955050602086013567ffffffffffffffff8111156113c4576113c36110e9565b5b6113d08882890161132f565b945050604086013567ffffffffffffffff8111156113f1576113f06110e9565b5b6113fd8882890161132f565b935050606086013567ffffffffffffffff81111561141e5761141d6110e9565b5b61142a8882890161132f565b925050608086013567ffffffffffffffff81111561144b5761144a6110e9565b5b6114578882890161132f565b9150509295509295909350565b61146d81610eb1565b82525050565b600082825260208201905092915050565b600061148f82610eca565b6114998185611473565b93506114a9818560208601610ee6565b6114b281610f19565b840191505092915050565b600060e0820190506114d2600083018a611464565b81810360208301526114e48189611484565b905081810360408301526114f88188611484565b9050818103606083015261150c8187611484565b905081810360808301526115208186611484565b905081810360a08301526115348185611484565b905081810360c08301526115488184611484565b905098975050505050505050565b7f4e487b7100000000000000000000000000000000000000000000000000000000600052602260045260246000fd5b6000600282049050600182168061159d57607f821691505b602082108114156115b1576115b0611556565b5b50919050565b7f4e487b7100000000000000000000000000000000000000000000000000000000600052603260045260246000fd5b7f4e487b7100000000000000000000000000000000000000000000000000000000600052601160045260246000fd5b600061162082610eb1565b91507fffffffffffffffffffffffffffffffffffffffffffffffffffffffffffffffff821415611653576116526115e6565b5b60018201905091905056fea26469706673582212202bd39432792e3a8fccd050defdfe022f13ec1955ca5b3feae2b9d1e74b1aba7164736f6c634300080c0033",
  "immutableReferences": {},
  "source": "// SPDX-License-Identifier: GPL-3.0\npragma solidity >=0.6.0 <0.9.0;\n\ncontract Platform {\n    uint256 COUNTER;\n    struct TicketCollection{\n        uint256 id; \n        string name;\n        string ticker;\n        string contractAddress;\n        string status;\n        string owner;\n        string description;\n    }\n\n    TicketCollection[] public collections;\n\n    function addCollection(string memory name, string memory ticker, string memory contractAddress, string memory owner, string memory description) public {\n        require(msg.sender == address(this));\n        TicketCollection memory newCollection = TicketCollection(COUNTER, name, ticker, contractAddress, \"active\", owner, description);\n        collections.push(newCollection);\n        COUNTER++;\n    }\n\n    function getCollections() public view returns (TicketCollection[] memory) {\n        return collections;\n    }\n\n    function getCollection(uint256 _id) public view returns (TicketCollection memory) {\n        return collections[_id];\n    }\n}",
  "sourcePath": "/workspace/nft-ticketting/backend/contracts/Platform.sol",
  "compiler": {
    "name": "solc",
    "version": "0.8.12+commit.f00d7308.Emscripten.clang"
  },
  "schemaVersion": "3.4.5",
  "updatedAt": "2022-02-23T01:33:33.442Z",
  "networkType": "ethereum",
  "devdoc": {
    "kind": "dev",
    "methods": {},
    "version": 1
  },
  "userdoc": {
    "kind": "user",
    "methods": {},
    "version": 1
  }
}