{
    "contractName": "EventFactory",
    "abi": [
        {
            "inputs": [
                {
                    "internalType": "uint256",
                    "name": "",
                    "type": "uint256"
                }
            ],
            "name": "_events",
            "outputs": [
                {
                    "internalType": "contract Event",
                    "name": "",
                    "type": "address"
                }
            ],
            "stateMutability": "view",
            "type": "function"
        },
        {
            "inputs": [],
            "name": "_owner",
            "outputs": [
                {
                    "internalType": "address",
                    "name": "",
                    "type": "address"
                }
            ],
            "stateMutability": "view",
            "type": "function"
        },
        {
            "inputs": [
                {
                    "components": [
                        {
                            "internalType": "string",
                            "name": "name",
                            "type": "string"
                        },
                        {
                            "internalType": "string",
                            "name": "ticker",
                            "type": "string"
                        },
                        {
                            "internalType": "string",
                            "name": "host_name",
                            "type": "string"
                        },
                        {
                            "internalType": "uint256",
                            "name": "networkId",
                            "type": "uint256"
                        },
                        {
                            "internalType": "uint256",
                            "name": "event_time",
                            "type": "uint256"
                        },
                        {
                            "internalType": "string",
                            "name": "category",
                            "type": "string"
                        },
                        {
                            "internalType": "string",
                            "name": "description",
                            "type": "string"
                        },
                        {
                            "internalType": "string",
                            "name": "visibility",
                            "type": "string"
                        },
                        {
                            "internalType": "string",
                            "name": "cover_image_url",
                            "type": "string"
                        }
                    ],
                    "internalType": "struct BlocTick.EventData",
                    "name": "eventData",
                    "type": "tuple"
                },
                {
                    "components": [
                        {
                            "internalType": "string",
                            "name": "name",
                            "type": "string"
                        },
                        {
                            "internalType": "string",
                            "name": "description",
                            "type": "string"
                        },
                        {
                            "internalType": "string",
                            "name": "ticket_type",
                            "type": "string"
                        },
                        {
                            "internalType": "uint256",
                            "name": "quantity_available",
                            "type": "uint256"
                        },
                        {
                            "internalType": "uint256",
                            "name": "max_per_order",
                            "type": "uint256"
                        },
                        {
                            "internalType": "uint256",
                            "name": "price",
                            "type": "uint256"
                        }
                    ],
                    "internalType": "struct BlocTick.Ticket[]",
                    "name": "_tickets",
                    "type": "tuple[]"
                }
            ],
            "name": "addEvent",
            "outputs": [],
            "stateMutability": "nonpayable",
            "type": "function"
        }
    ],
    "bytecode": "600660c0908152657075626c696360d01b60e05260809081526101406040526007610100908152667072697661746560c81b6101205260a052620000489060039060026200005d565b503480156200005657600080fd5b5062000203565b828054828255906000526020600020908101928215620000af579160200282015b82811115620000af57825180516200009e918491602090910190620000c1565b50916020019190600101906200007e565b50620000bd9291506200014c565b5090565b828054620000cf90620001c6565b90600052602060002090601f016020900481019282620000f357600085556200013e565b82601f106200010e57805160ff19168380011785556200013e565b828001600101855582156200013e579182015b828111156200013e57825182559160200191906001019062000121565b50620000bd9291506200016d565b80821115620000bd57600062000163828262000184565b506001016200014c565b5b80821115620000bd57600081556001016200016e565b5080546200019290620001c6565b6000825580601f10620001a3575050565b601f016020900490600052602060002090810190620001c391906200016d565b50565b600181811c90821680620001db57607f821691505b60208210811415620001fd57634e487b7160e01b600052602260045260246000fd5b50919050565b61451d80620002136000396000f3fe60806040523480156200001157600080fd5b5060043610620000465760003560e01c80632ca27751146200004b578063b2bdfa7b1462000064578063f040d0f21462000094575b600080fd5b620000626200005c36600462000465565b620000c0565b005b60005462000078906001600160a01b031681565b6040516001600160a01b03909116815260200160405180910390f35b62000078620000a536600462000605565b6001602052600090815260409020546001600160a01b031681565b60e082015160405163e92e5eaf60e01b815273__$984f9fa0ead94a96d2904f2651a8837e35$__9163e92e5eaf9162000100919060039060040162000680565b600060405180830381865af41580156200011e573d6000803e3d6000fd5b505050506040513d6000823e601f3d908101601f191682016040526200014891908101906200078c565b8260e001819052508133826040516200016190620001d5565b6200016f93929190620008c8565b604051809103906000f0801580156200018c573d6000803e3d6000fd5b5060028054600090815260016020526040812080546001600160a01b0319166001600160a01b039490941693909317909255805491620001cc83620009f4565b91905055505050565b613ac98062000a1f83390190565b634e487b7160e01b600052604160045260246000fd5b60405160c0810167ffffffffffffffff811182821017156200021f576200021f620001e3565b60405290565b604051610120810167ffffffffffffffff811182821017156200021f576200021f620001e3565b604051601f8201601f1916810167ffffffffffffffff81118282101715620002785762000278620001e3565b604052919050565b600067ffffffffffffffff8211156200029d576200029d620001e3565b50601f01601f191660200190565b600082601f830112620002bd57600080fd5b8135620002d4620002ce8262000280565b6200024c565b818152846020838601011115620002ea57600080fd5b816020850160208301376000918101602001919091529392505050565b600082601f8301126200031957600080fd5b8135602067ffffffffffffffff80831115620003395762000339620001e3565b8260051b6200034a8382016200024c565b93845285810183019383810190888611156200036557600080fd5b84880192505b858310156200045957823584811115620003855760008081fd5b880160c0818b03601f19018113156200039e5760008081fd5b620003a8620001f9565b8783013587811115620003bb5760008081fd5b620003cb8d8a83870101620002ab565b82525060408084013588811115620003e35760008081fd5b620003f38e8b83880101620002ab565b8a84015250606080850135898111156200040d5760008081fd5b6200041d8f8c83890101620002ab565b83850152506080915081850135818401525060a0808501358284015283850135818401525050808552505050848201915084830192506200036b565b98975050505050505050565b600080604083850312156200047957600080fd5b823567ffffffffffffffff808211156200049257600080fd5b908401906101208287031215620004a857600080fd5b620004b262000225565b823582811115620004c257600080fd5b620004d088828601620002ab565b825250602083013582811115620004e657600080fd5b620004f488828601620002ab565b6020830152506040830135828111156200050d57600080fd5b6200051b88828601620002ab565b604083015250606083013560608201526080830135608082015260a0830135828111156200054857600080fd5b6200055688828601620002ab565b60a08301525060c0830135828111156200056f57600080fd5b6200057d88828601620002ab565b60c08301525060e0830135828111156200059657600080fd5b620005a488828601620002ab565b60e0830152506101008084013583811115620005bf57600080fd5b620005cd89828701620002ab565b828401525050809450506020850135915080821115620005ec57600080fd5b50620005fb8582860162000307565b9150509250929050565b6000602082840312156200061857600080fd5b5035919050565b60005b838110156200063c57818101518382015260200162000622565b838111156200064c576000848401525b50505050565b600081518084526200066c8160208601602086016200061f565b601f01601f19169290920160200192915050565b60408152600062000695604083018562000652565b6020838203818501528185548084528284019150828160051b8501016000888152848120815b848110156200077c57878403601f1901865281548390600181811c9080831680620006e757607f831692505b8b83108114156200070657634e487b7160e01b88526022600452602488fd5b82895260208901818015620007245760018114620007365762000762565b60ff19861682528d8201965062000762565b6000898152602090208a5b868110156200075c57815484820152908501908f0162000741565b83019750505b505050988a019892965050509190910190600101620006bb565b50919a9950505050505050505050565b6000602082840312156200079f57600080fd5b815167ffffffffffffffff811115620007b757600080fd5b8201601f81018413620007c957600080fd5b8051620007da620002ce8262000280565b818152856020838501011115620007f057600080fd5b620008038260208301602086016200061f565b95945050505050565b600081518084526020808501808196508360051b8101915082860160005b85811015620008bb578284038952815160c081518187526200084f8288018262000652565b915050868201518682038888015262000869828262000652565b9150506040808301518783038289015262000885838262000652565b606085810151908a0152608080860151908a015260a094850151949098019390935250505097840197908401906001016200082a565b5091979650505050505050565b6060815260008451610120806060850152620008e961018085018362000652565b91506020870151605f198086850301608087015262000909848362000652565b935060408901519150808685030160a087015262000928848362000652565b9350606089015160c0870152608089015160e087015260a089015191506101008187860301818801526200095d858462000652565b945060c08a015192508187860301848801526200097b858462000652565b945060e08a0151935081878603016101408801526200099b858562000652565b9450808a015193505080868503016101608701525050620009bd828262000652565b915050620009d660208401866001600160a01b03169052565b8281036040840152620009ea81856200080c565b9695505050505050565b600060001982141562000a1757634e487b7160e01b600052601160045260246000fd5b506001019056fe600460e0818152636672656560e01b610100526080908152610120918252631c185a5960e21b6101405260a0919091526101a06040526008610160908152673237b730ba34b7b760c11b6101805260c0526200006090600d9060036200052a565b503480156200006e57600080fd5b5060405162003ac938038062003ac983398101604081905262000091916200094a565b825160208085015182519091620000ae916000918501906200058e565b508051620000c49060019060208401906200058e565b5050600c8054336001600160a01b031991821617909155600980549091166001600160a01b03851617815542600a5560408051808201909152818152681c1d589b1a5cda195960ba1b6020909101908152620001249250600b916200058e565b50825180518491601091620001419183916020909101906200058e565b5060208281015180516200015c92600185019201906200058e565b50604082015180516200017a9160028401916020909101906200058e565b50606082015160038201556080820151600482015560a08201518051620001ac9160058401916020909101906200058e565b5060c08201518051620001ca9160068401916020909101906200058e565b5060e08201518051620001e89160078401916020909101906200058e565b506101008201518051620002079160088401916020909101906200058e565b5050600c5462000223915082906001600160a01b03166200025f565b6040513081527f0227e3b2fb10ea87b3ce0fe9b23554ad992c666dd128c13c0a6ef2d73dd80ba09060200160405180910390a150505062000cfc565b600c546001600160a01b03163314620002bf5760405162461bcd60e51b815260206004820152601b60248201527f596f75206e65656420746f207573652074686520666163746f7279000000000060448201526064015b60405180910390fd5b60095481906001600160a01b03808316911614620003155760405162461bcd60e51b815260206004820152601260248201527141636365737320726573747269637465642160701b6044820152606401620002b6565b60005b83518110156200052457600084828151811062000339576200033962000afb565b6020026020010151905073__$984f9fa0ead94a96d2904f2651a8837e35$__63e92e5eaf8260400151600d6040518363ffffffff1660e01b81526004016200038392919062000b4e565b600060405180830381865af4158015620003a1573d6000803e3d6000fd5b505050506040513d6000823e601f3d908101601f19168201604052620003cb919081019062000c7c565b60408083019190915251636672656560e01b602082015260240160405160208183030381529060405280519060200120816040015160405160200162000412919062000cb4565b6040516020818303038152906040528051906020012014156200043757600060a08201525b6040805160c08101825282518152602080840151818301528383015182840152606080850151908301526080808501519083015260a080850151908301526008546000908152600e82529290922081518051929391926200049c92849201906200058e565b506020828101518051620004b792600185019201906200058e565b5060408201518051620004d59160028401916020909101906200058e565b50606082015160038201556080820151600482015560a09091015160059091015560088054906000620005088362000cd2565b91905055505080806200051b9062000cd2565b91505062000318565b50505050565b8280548282559060005260206000209081019282156200057c579160200282015b828111156200057c57825180516200056b9184916020909101906200058e565b50916020019190600101906200054b565b506200058a92915062000619565b5090565b8280546200059c9062000b11565b90600052602060002090601f016020900481019282620005c057600085556200060b565b82601f10620005db57805160ff19168380011785556200060b565b828001600101855582156200060b579182015b828111156200060b578251825591602001919060010190620005ee565b506200058a9291506200063a565b808211156200058a57600062000630828262000651565b5060010162000619565b5b808211156200058a57600081556001016200063b565b5080546200065f9062000b11565b6000825580601f1062000670575050565b601f0160209004906000526020600020908101906200069091906200063a565b50565b634e487b7160e01b600052604160045260246000fd5b60405160c081016001600160401b0381118282101715620006ce57620006ce62000693565b60405290565b60405161012081016001600160401b0381118282101715620006ce57620006ce62000693565b604051601f8201601f191681016001600160401b038111828210171562000725576200072562000693565b604052919050565b60005b838110156200074a57818101518382015260200162000730565b83811115620005245750506000910152565b600082601f8301126200076e57600080fd5b81516001600160401b038111156200078a576200078a62000693565b6200079f601f8201601f1916602001620006fa565b818152846020838601011115620007b557600080fd5b620007c88260208301602087016200072d565b949350505050565b80516001600160a01b0381168114620007e857600080fd5b919050565b600082601f830112620007ff57600080fd5b815160206001600160401b03808311156200081e576200081e62000693565b8260051b6200082f838201620006fa565b93845285810183019383810190888611156200084a57600080fd5b84880192505b858310156200093e578251848111156200086a5760008081fd5b880160c0818b03601f1901811315620008835760008081fd5b6200088d620006a9565b8783015187811115620008a05760008081fd5b620008b08d8a838701016200075c565b82525060408084015188811115620008c85760008081fd5b620008d88e8b838801016200075c565b8a8401525060608085015189811115620008f25760008081fd5b620009028f8c838901016200075c565b83850152506080915081850151818401525060a08085015182840152838501518184015250508085525050508482019150848301925062000850565b98975050505050505050565b6000806000606084860312156200096057600080fd5b83516001600160401b03808211156200097857600080fd5b9085019061012082880312156200098e57600080fd5b62000998620006d4565b825182811115620009a857600080fd5b620009b6898286016200075c565b825250602083015182811115620009cc57600080fd5b620009da898286016200075c565b602083015250604083015182811115620009f357600080fd5b62000a01898286016200075c565b604083015250606083015160608201526080830151608082015260a08301518281111562000a2e57600080fd5b62000a3c898286016200075c565b60a08301525060c08301518281111562000a5557600080fd5b62000a63898286016200075c565b60c08301525060e08301518281111562000a7c57600080fd5b62000a8a898286016200075c565b60e083015250610100808401518381111562000aa557600080fd5b62000ab38a8287016200075c565b8284015250508095505062000acb60208701620007d0565b9350604086015191508082111562000ae257600080fd5b5062000af186828701620007ed565b9150509250925092565b634e487b7160e01b600052603260045260246000fd5b600181811c9082168062000b2657607f821691505b6020821081141562000b4857634e487b7160e01b600052602260045260246000fd5b50919050565b6040815260008351806040840152602062000b7082606086018389016200072d565b601f19601f83011684019150606082016060858403018286015280865480835260808501915060808160051b86010192506000888152848120815b8381101562000c6c57878603607f1901855281548390600181811c908083168062000bd757607f831692505b8b831081141562000bf657634e487b7160e01b88526022600452602488fd5b828b5260208b0181801562000c14576001811462000c265762000c52565b60ff19861682528d8201965062000c52565b6000898152602090208a5b8681101562000c4c57815484820152908501908f0162000c31565b83019750505b50949a5050978a0197949094019350505060010162000bab565b50939a9950505050505050505050565b60006020828403121562000c8f57600080fd5b81516001600160401b0381111562000ca657600080fd5b620007c8848285016200075c565b6000825162000cc88184602087016200072d565b9190910192915050565b600060001982141562000cf557634e487b7160e01b600052601160045260246000fd5b5060010190565b612dbd8062000d0c6000396000f3fe60806040526004361061014b5760003560e01c806377830b5b116100b6578063b2bdfa7b1161006f578063b2bdfa7b146103d5578063b88d4fde146103f5578063c87b56dd14610415578063d0f4fc0214610435578063e985e9c51461049d578063f8547079146104e657600080fd5b806377830b5b1461030157806378a2db88146103215780637d2211d6146103535780638aaf26861461037357806395d89b41146103a0578063a22cb465146103b557600080fd5b806338f8ca991161010857806338f8ca99146102365780633d90cdaa1461025657806342842e0e1461028057806352cc6be6146102a05780636352211e146102b357806370a08231146102d357600080fd5b806301ffc9a71461015057806306fdde0314610185578063081812fc146101a7578063095ea7b3146101df5780630fb3844c1461020157806323b872dd14610216575b600080fd5b34801561015c57600080fd5b5061017061016b36600461223a565b6104fc565b60405190151581526020015b60405180910390f35b34801561019157600080fd5b5061019a61054e565b60405161017c91906122af565b3480156101b357600080fd5b506101c76101c23660046122c2565b6105e0565b6040516001600160a01b03909116815260200161017c565b3480156101eb57600080fd5b506101ff6101fa3660046122f7565b61066d565b005b34801561020d57600080fd5b5061019a610783565b34801561022257600080fd5b506101ff610231366004612321565b610811565b34801561024257600080fd5b506101ff61025136600461249a565b610842565b34801561026257600080fd5b5061026b610abe565b60405161017c99989796959493929190612604565b34801561028c57600080fd5b506101ff61029b366004612321565b610eb0565b6101ff6102ae3660046126ad565b610ecb565b3480156102bf57600080fd5b506101c76102ce3660046122c2565b611031565b3480156102df57600080fd5b506102f36102ee3660046127ad565b6110a8565b60405190815260200161017c565b34801561030d57600080fd5b506102f361031c3660046126ad565b61112f565b34801561032d57600080fd5b5061034161033c3660046122c2565b61137d565b60405161017c969594939291906127c8565b34801561035f57600080fd5b506101ff61036e366004612820565b611549565b34801561037f57600080fd5b5061039361038e3660046127ad565b611586565b60405161017c9190612855565b3480156103ac57600080fd5b5061019a6116c2565b3480156103c157600080fd5b506101ff6103d03660046128b7565b6116d1565b3480156103e157600080fd5b506009546101c7906001600160a01b031681565b34801561040157600080fd5b506101ff6104103660046128f3565b6116dc565b34801561042157600080fd5b5061019a6104303660046122c2565b61170e565b34801561044157600080fd5b5061047a6104503660046122c2565b600f6020526000908152604090208054600182015460029092015490916001600160a01b03169083565b604080519384526001600160a01b0390921660208401529082015260600161017c565b3480156104a957600080fd5b506101706104b836600461296f565b6001600160a01b03918216600090815260056020908152604080832093909416825291909152205460ff1690565b3480156104f257600080fd5b506102f3600a5481565b60006001600160e01b031982166380ac58cd60e01b148061052d57506001600160e01b03198216635b5e139f60e01b145b8061054857506301ffc9a760e01b6001600160e01b03198316145b92915050565b60606000805461055d906129a2565b80601f0160208091040260200160405190810160405280929190818152602001828054610589906129a2565b80156105d65780601f106105ab576101008083540402835291602001916105d6565b820191906000526020600020905b8154815290600101906020018083116105b957829003601f168201915b5050505050905090565b60006105eb82611885565b6106515760405162461bcd60e51b815260206004820152602c60248201527f4552433732313a20617070726f76656420717565727920666f72206e6f6e657860448201526b34b9ba32b73a103a37b5b2b760a11b60648201526084015b60405180910390fd5b506000908152600460205260409020546001600160a01b031690565b600061067882611031565b9050806001600160a01b0316836001600160a01b031614156106e65760405162461bcd60e51b815260206004820152602160248201527f4552433732313a20617070726f76616c20746f2063757272656e74206f776e656044820152603960f91b6064820152608401610648565b336001600160a01b0382161480610702575061070281336104b8565b6107745760405162461bcd60e51b815260206004820152603860248201527f4552433732313a20617070726f76652063616c6c6572206973206e6f74206f7760448201527f6e6572206e6f7220617070726f76656420666f7220616c6c00000000000000006064820152608401610648565b61077e83836118a2565b505050565b600b8054610790906129a2565b80601f01602080910402602001604051908101604052809291908181526020018280546107bc906129a2565b80156108095780601f106107de57610100808354040283529160200191610809565b820191906000526020600020905b8154815290600101906020018083116107ec57829003601f168201915b505050505081565b61081b3382611910565b6108375760405162461bcd60e51b8152600401610648906129dd565b61077e8383836119f6565b600c546001600160a01b0316331461086c5760405162461bcd60e51b815260040161064890612a2e565b60095481906001600160a01b038083169116146108c05760405162461bcd60e51b815260206004820152601260248201527141636365737320726573747269637465642160701b6044820152606401610648565b60005b8351811015610ab85760008482815181106108e0576108e0612a65565b6020026020010151905073__$984f9fa0ead94a96d2904f2651a8837e35$__63e92e5eaf8260400151600d6040518363ffffffff1660e01b8152600401610928929190612a7b565b600060405180830381865af4158015610945573d6000803e3d6000fd5b505050506040513d6000823e601f3d908101601f1916820160405261096d9190810190612b7b565b60408083019190915251636672656560e01b60208201526024016040516020818303038152906040528051906020012081604001516040516020016109b29190612bf2565b6040516020818303038152906040528051906020012014156109d657600060a08201525b6040805160c08101825282518152602080840151818301528383015182840152606080850151908301526080808501519083015260a080850151908301526008546000908152600e8252929092208151805192939192610a399284920190612188565b506020828101518051610a529260018501920190612188565b5060408201518051610a6e916002840191602090910190612188565b50606082015160038201556080820151600482015560a09091015160059091015560088054906000610a9f83612c24565b9190505550508080610ab090612c24565b9150506108c3565b50505050565b601080548190610acd906129a2565b80601f0160208091040260200160405190810160405280929190818152602001828054610af9906129a2565b8015610b465780601f10610b1b57610100808354040283529160200191610b46565b820191906000526020600020905b815481529060010190602001808311610b2957829003601f168201915b505050505090806001018054610b5b906129a2565b80601f0160208091040260200160405190810160405280929190818152602001828054610b87906129a2565b8015610bd45780601f10610ba957610100808354040283529160200191610bd4565b820191906000526020600020905b815481529060010190602001808311610bb757829003601f168201915b505050505090806002018054610be9906129a2565b80601f0160208091040260200160405190810160405280929190818152602001828054610c15906129a2565b8015610c625780601f10610c3757610100808354040283529160200191610c62565b820191906000526020600020905b815481529060010190602001808311610c4557829003601f168201915b505050505090806003015490806004015490806005018054610c83906129a2565b80601f0160208091040260200160405190810160405280929190818152602001828054610caf906129a2565b8015610cfc5780601f10610cd157610100808354040283529160200191610cfc565b820191906000526020600020905b815481529060010190602001808311610cdf57829003601f168201915b505050505090806006018054610d11906129a2565b80601f0160208091040260200160405190810160405280929190818152602001828054610d3d906129a2565b8015610d8a5780601f10610d5f57610100808354040283529160200191610d8a565b820191906000526020600020905b815481529060010190602001808311610d6d57829003601f168201915b505050505090806007018054610d9f906129a2565b80601f0160208091040260200160405190810160405280929190818152602001828054610dcb906129a2565b8015610e185780601f10610ded57610100808354040283529160200191610e18565b820191906000526020600020905b815481529060010190602001808311610dfb57829003601f168201915b505050505090806008018054610e2d906129a2565b80601f0160208091040260200160405190810160405280929190818152602001828054610e59906129a2565b8015610ea65780601f10610e7b57610100808354040283529160200191610ea6565b820191906000526020600020905b815481529060010190602001808311610e8957829003601f168201915b5050505050905089565b61077e838383604051806020016040528060008152506116dc565b600c546001600160a01b03163314610ef55760405162461bcd60e51b815260040161064890612a2e565b610efe8161112f565b341015610f455760405162461bcd60e51b8152602060048201526015602482015274546865207469636b65747320636f7374206d6f726560581b6044820152606401610648565b60005b815181101561102d576000828281518110610f6557610f65612a65565b6020026020010151905060006007549050610f803082611b92565b610f8e818360200151611cc5565b60408051606081018252828152838201516001600160a01b03908116602080840191825286518486019081526000878152600f90925294902092518355516001830180546001600160a01b031916919092161790559051600290910155610ff481611d50565b50611003818360400151611da7565b6007805490600061101383612c24565b91905055505050808061102590612c24565b915050610f48565b5050565b6000818152600260205260408120546001600160a01b0316806105485760405162461bcd60e51b815260206004820152602960248201527f4552433732313a206f776e657220717565727920666f72206e6f6e657869737460448201526832b73a103a37b5b2b760b91b6064820152608401610648565b60006001600160a01b0382166111135760405162461bcd60e51b815260206004820152602a60248201527f4552433732313a2062616c616e636520717565727920666f7220746865207a65604482015269726f206164647265737360b01b6064820152608401610648565b506001600160a01b031660009081526003602052604090205490565b600080805b8351811015611376576000600e600086848151811061115557611155612a65565b60200260200101516000015181526020019081526020016000206040518060c001604052908160008201805461118a906129a2565b80601f01602080910402602001604051908101604052809291908181526020018280546111b6906129a2565b80156112035780601f106111d857610100808354040283529160200191611203565b820191906000526020600020905b8154815290600101906020018083116111e657829003601f168201915b5050505050815260200160018201805461121c906129a2565b80601f0160208091040260200160405190810160405280929190818152602001828054611248906129a2565b80156112955780601f1061126a57610100808354040283529160200191611295565b820191906000526020600020905b81548152906001019060200180831161127857829003601f168201915b505050505081526020016002820180546112ae906129a2565b80601f01602080910402602001604051908101604052809291908181526020018280546112da906129a2565b80156113275780601f106112fc57610100808354040283529160200191611327565b820191906000526020600020905b81548152906001019060200180831161130a57829003601f168201915b50505050508152602001600382015481526020016004820154815260200160058201548152505090508060a00151836113609190612c3f565b925050808061136e90612c24565b915050611134565b5092915050565b600e60205260009081526040902080548190611398906129a2565b80601f01602080910402602001604051908101604052809291908181526020018280546113c4906129a2565b80156114115780601f106113e657610100808354040283529160200191611411565b820191906000526020600020905b8154815290600101906020018083116113f457829003601f168201915b505050505090806001018054611426906129a2565b80601f0160208091040260200160405190810160405280929190818152602001828054611452906129a2565b801561149f5780601f106114745761010080835404028352916020019161149f565b820191906000526020600020905b81548152906001019060200180831161148257829003601f168201915b5050505050908060020180546114b4906129a2565b80601f01602080910402602001604051908101604052809291908181526020018280546114e0906129a2565b801561152d5780601f106115025761010080835404028352916020019161152d565b820191906000526020600020905b81548152906001019060200180831161151057829003601f168201915b5050505050908060030154908060040154908060050154905086565b600c546001600160a01b031633146115735760405162461bcd60e51b815260040161064890612a2e565b805161102d90600b906020840190612188565b60606000611593836110a8565b67ffffffffffffffff8111156115ab576115ab61235d565b60405190808252806020026020018201604052801561160957816020015b6115f660405180606001604052806000815260200160006001600160a01b03168152602001600081525090565b8152602001906001900390816115c95790505b5090506000805b60075481116116b957846001600160a01b031661162c82611031565b6001600160a01b031614156116a7576000818152600f602090815260409182902082516060810184528154815260018201546001600160a01b0316928101929092526002015491810191909152835184908490811061168d5761168d612a65565b602002602001018190525081806116a390612c24565b9250505b806116b181612c24565b915050611610565b50909392505050565b60606001805461055d906129a2565b61102d338383611db2565b6116e63383611910565b6117025760405162461bcd60e51b8152600401610648906129dd565b610ab884848484611e81565b606061171982611885565b61177f5760405162461bcd60e51b815260206004820152603160248201527f45524337323155524953746f726167653a2055524920717565727920666f72206044820152703737b732bc34b9ba32b73a103a37b5b2b760791b6064820152608401610648565b60008281526006602052604081208054611798906129a2565b80601f01602080910402602001604051908101604052809291908181526020018280546117c4906129a2565b80156118115780601f106117e657610100808354040283529160200191611811565b820191906000526020600020905b8154815290600101906020018083116117f457829003601f168201915b50505050509050600061182f60408051602081019091526000815290565b9050805160001415611842575092915050565b81511561187457808260405160200161185c929190612c57565b60405160208183030381529060405292505050919050565b61187d84611eb4565b949350505050565b6000908152600260205260409020546001600160a01b0316151590565b600081815260046020526040902080546001600160a01b0319166001600160a01b03841690811790915581906118d782611031565b6001600160a01b03167f8c5be1e5ebec7d5bd14f71427d1e84f3dd0314c0f7b2291e5b200ac8c7c3b92560405160405180910390a45050565b600061191b82611885565b61197c5760405162461bcd60e51b815260206004820152602c60248201527f4552433732313a206f70657261746f7220717565727920666f72206e6f6e657860448201526b34b9ba32b73a103a37b5b2b760a11b6064820152608401610648565b600061198783611031565b9050806001600160a01b0316846001600160a01b031614806119c25750836001600160a01b03166119b7846105e0565b6001600160a01b0316145b8061187d57506001600160a01b0380821660009081526005602090815260408083209388168352929052205460ff1661187d565b826001600160a01b0316611a0982611031565b6001600160a01b031614611a6d5760405162461bcd60e51b815260206004820152602560248201527f4552433732313a207472616e736665722066726f6d20696e636f72726563742060448201526437bbb732b960d91b6064820152608401610648565b6001600160a01b038216611acf5760405162461bcd60e51b8152602060048201526024808201527f4552433732313a207472616e7366657220746f20746865207a65726f206164646044820152637265737360e01b6064820152608401610648565b611ada6000826118a2565b6001600160a01b0383166000908152600360205260408120805460019290611b03908490612c86565b90915550506001600160a01b0382166000908152600360205260408120805460019290611b31908490612c3f565b909155505060008181526002602052604080822080546001600160a01b0319166001600160a01b0386811691821790925591518493918716917fddf252ad1be2c89b69c2b068fc378daa952ba7f163c4a11628f55a4df523b3ef91a4505050565b6001600160a01b038216611be85760405162461bcd60e51b815260206004820181905260248201527f4552433732313a206d696e7420746f20746865207a65726f20616464726573736044820152606401610648565b611bf181611885565b15611c3e5760405162461bcd60e51b815260206004820152601c60248201527f4552433732313a20746f6b656e20616c7265616479206d696e746564000000006044820152606401610648565b6001600160a01b0382166000908152600360205260408120805460019290611c67908490612c3f565b909155505060008181526002602052604080822080546001600160a01b0319166001600160a01b03861690811790915590518392907fddf252ad1be2c89b69c2b068fc378daa952ba7f163c4a11628f55a4df523b3ef908290a45050565b611cce82611885565b611d315760405162461bcd60e51b815260206004820152602e60248201527f45524337323155524953746f726167653a2055524920736574206f66206e6f6e60448201526d32bc34b9ba32b73a103a37b5b2b760911b6064820152608401610648565b6000828152600660209081526040909120825161077e92840190612188565b6000611d5b82611885565b611d9f5760405162461bcd60e51b8152602060048201526015602482015274115c9c9bdc8b081ddc9bdb99c8151bdad95b881a59605a1b6044820152606401610648565b506001919050565b61102d3082846119f6565b816001600160a01b0316836001600160a01b03161415611e145760405162461bcd60e51b815260206004820152601960248201527f4552433732313a20617070726f766520746f2063616c6c6572000000000000006044820152606401610648565b6001600160a01b03838116600081815260056020908152604080832094871680845294825291829020805460ff191686151590811790915591519182527f17307eab39ab6107e8899845ad3d59bd9653f200f220920489ca2b5937696c31910160405180910390a3505050565b611e8c8484846119f6565b611e9884848484611f8c565b610ab85760405162461bcd60e51b815260040161064890612c9d565b6060611ebf82611885565b611f235760405162461bcd60e51b815260206004820152602f60248201527f4552433732314d657461646174613a2055524920717565727920666f72206e6f60448201526e3732bc34b9ba32b73a103a37b5b2b760891b6064820152608401610648565b6000611f3a60408051602081019091526000815290565b90506000815111611f5a5760405180602001604052806000815250611f85565b80611f648461208a565b604051602001611f75929190612c57565b6040516020818303038152906040525b9392505050565b60006001600160a01b0384163b1561207f57604051630a85bd0160e11b81526001600160a01b0385169063150b7a0290611fd0903390899088908890600401612cef565b6020604051808303816000875af192505050801561200b575060408051601f3d908101601f1916820190925261200891810190612d2c565b60015b612065573d808015612039576040519150601f19603f3d011682016040523d82523d6000602084013e61203e565b606091505b50805161205d5760405162461bcd60e51b815260040161064890612c9d565b805181602001fd5b6001600160e01b031916630a85bd0160e11b14905061187d565b506001949350505050565b6060816120ae5750506040805180820190915260018152600360fc1b602082015290565b8160005b81156120d857806120c281612c24565b91506120d19050600a83612d5f565b91506120b2565b60008167ffffffffffffffff8111156120f3576120f361235d565b6040519080825280601f01601f19166020018201604052801561211d576020820181803683370190505b5090505b841561187d57612132600183612c86565b915061213f600a86612d73565b61214a906030612c3f565b60f81b81838151811061215f5761215f612a65565b60200101906001600160f81b031916908160001a905350612181600a86612d5f565b9450612121565b828054612194906129a2565b90600052602060002090601f0160209004810192826121b657600085556121fc565b82601f106121cf57805160ff19168380011785556121fc565b828001600101855582156121fc579182015b828111156121fc5782518255916020019190600101906121e1565b5061220892915061220c565b5090565b5b80821115612208576000815560010161220d565b6001600160e01b03198116811461223757600080fd5b50565b60006020828403121561224c57600080fd5b8135611f8581612221565b60005b8381101561227257818101518382015260200161225a565b83811115610ab85750506000910152565b6000815180845261229b816020860160208601612257565b601f01601f19169290920160200192915050565b602081526000611f856020830184612283565b6000602082840312156122d457600080fd5b5035919050565b80356001600160a01b03811681146122f257600080fd5b919050565b6000806040838503121561230a57600080fd5b612313836122db565b946020939093013593505050565b60008060006060848603121561233657600080fd5b61233f846122db565b925061234d602085016122db565b9150604084013590509250925092565b634e487b7160e01b600052604160045260246000fd5b60405160c0810167ffffffffffffffff811182821017156123965761239661235d565b60405290565b6040516060810167ffffffffffffffff811182821017156123965761239661235d565b604051601f8201601f1916810167ffffffffffffffff811182821017156123e8576123e861235d565b604052919050565b600067ffffffffffffffff82111561240a5761240a61235d565b5060051b60200190565b600067ffffffffffffffff82111561242e5761242e61235d565b50601f01601f191660200190565b600061244f61244a84612414565b6123bf565b905082815283838301111561246357600080fd5b828260208301376000602084830101529392505050565b600082601f83011261248b57600080fd5b611f858383356020850161243c565b600080604083850312156124ad57600080fd5b823567ffffffffffffffff808211156124c557600080fd5b818501915085601f8301126124d957600080fd5b813560206124e961244a836123f0565b82815260059290921b8401810191818101908984111561250857600080fd5b8286015b848110156125e75780358681111561252357600080fd5b870160c0818d03601f1901121561253a5760008081fd5b612542612373565b85820135888111156125545760008081fd5b6125628e888386010161247a565b8252506040820135888111156125785760008081fd5b6125868e888386010161247a565b87830152506060808301358981111561259f5760008081fd5b6125ad8f898387010161247a565b6040840152506080838101359183019190915260a0808401359183019190915260c09092013591810191909152835291830191830161250c565b5096506125f790508782016122db565b9450505050509250929050565b60006101208083526126188184018d612283565b9050828103602084015261262c818c612283565b90508281036040840152612640818b612283565b905088606084015287608084015282810360a08401526126608188612283565b905082810360c08401526126748187612283565b905082810360e08401526126888186612283565b905082810361010084015261269d8185612283565b9c9b505050505050505050505050565b600060208083850312156126c057600080fd5b823567ffffffffffffffff808211156126d857600080fd5b818501915085601f8301126126ec57600080fd5b81356126fa61244a826123f0565b81815260059190911b8301840190848101908883111561271957600080fd5b8585015b838110156127a0578035858111156127355760008081fd5b86016060818c03601f190181131561274d5760008081fd5b61275561239c565b8983013581526040808401358981111561276f5760008081fd5b61277d8f8d8388010161247a565b8c8401525061278d8385016122db565b908201528552505091860191860161271d565b5098975050505050505050565b6000602082840312156127bf57600080fd5b611f85826122db565b60c0815260006127db60c0830189612283565b82810360208401526127ed8189612283565b905082810360408401526128018188612283565b60608401969096525050608081019290925260a0909101529392505050565b60006020828403121561283257600080fd5b813567ffffffffffffffff81111561284957600080fd5b61187d8482850161247a565b602080825282518282018190526000919060409081850190868401855b828110156128aa57815180518552868101516001600160a01b0316878601528501518585015260609093019290850190600101612872565b5091979650505050505050565b600080604083850312156128ca57600080fd5b6128d3836122db565b9150602083013580151581146128e857600080fd5b809150509250929050565b6000806000806080858703121561290957600080fd5b612912856122db565b9350612920602086016122db565b925060408501359150606085013567ffffffffffffffff81111561294357600080fd5b8501601f8101871361295457600080fd5b6129638782356020840161243c565b91505092959194509250565b6000806040838503121561298257600080fd5b61298b836122db565b9150612999602084016122db565b90509250929050565b600181811c908216806129b657607f821691505b602082108114156129d757634e487b7160e01b600052602260045260246000fd5b50919050565b60208082526031908201527f4552433732313a207472616e736665722063616c6c6572206973206e6f74206f6040820152701ddb995c881b9bdc88185c1c1c9bdd9959607a1b606082015260800190565b6020808252601b908201527f596f75206e65656420746f207573652074686520666163746f72790000000000604082015260600190565b634e487b7160e01b600052603260045260246000fd5b604081526000612a8e6040830185612283565b6020838203818501528185548084528284019150828160051b8501016000888152848120815b84811015612b6b57878403601f1901865281548390600181811c9080831680612ade57607f831692505b8b8310811415612afc57634e487b7160e01b88526022600452602488fd5b82895260208901818015612b175760018114612b2857612b52565b60ff19861682528d82019650612b52565b6000898152602090208a5b86811015612b4c57815484820152908501908f01612b33565b83019750505b505050988a019892965050509190910190600101612ab4565b50919a9950505050505050505050565b600060208284031215612b8d57600080fd5b815167ffffffffffffffff811115612ba457600080fd5b8201601f81018413612bb557600080fd5b8051612bc361244a82612414565b818152856020838501011115612bd857600080fd5b612be9826020830160208601612257565b95945050505050565b60008251612c04818460208701612257565b9190910192915050565b634e487b7160e01b600052601160045260246000fd5b6000600019821415612c3857612c38612c0e565b5060010190565b60008219821115612c5257612c52612c0e565b500190565b60008351612c69818460208801612257565b835190830190612c7d818360208801612257565b01949350505050565b600082821015612c9857612c98612c0e565b500390565b60208082526032908201527f4552433732313a207472616e7366657220746f206e6f6e20455243373231526560408201527131b2b4bb32b91034b6b83632b6b2b73a32b960711b606082015260800190565b6001600160a01b0385811682528416602082015260408101839052608060608201819052600090612d2290830184612283565b9695505050505050565b600060208284031215612d3e57600080fd5b8151611f8581612221565b634e487b7160e01b600052601260045260246000fd5b600082612d6e57612d6e612d49565b500490565b600082612d8257612d82612d49565b50069056fea2646970667358221220ac075241ff36b7914ad2ef53fdbbcdefaadc117b26111aa3d9f64437d12c327864736f6c634300080c0033a26469706673582212204cd3e5075fb0f977a729a990b6f6142da7aac2e681da6086c66ad8e4ddccb03364736f6c634300080c0033",
    "sourcePath": "/workspace/nft-ticketting-contracts/backend/contracts/EventFactory.sol",
    "compiler": {
        "name": "solc",
        "version": "0.8.12+commit.f00d7308"
    },
    "functionHashes": {
        "_events(uint256)": "f040d0f2",
        "_owner()": "b2bdfa7b",
        "addEvent((string,string,string,uint256,uint256,string,string,string,string),(string,string,string,uint256,uint256,uint256)[])": "2ca27751"
    },
    "gasEstimates": {
        "creation": {
            "codeDepositCost": "3538600",
            "executionCost": "infinite",
            "totalCost": "infinite"
        },
        "external": {
            "_events(uint256)": "2487",
            "_owner()": "2325",
            "addEvent((string,string,string,uint256,uint256,string,string,string,string),(string,string,string,uint256,uint256,uint256)[])": "infinite"
        }
    }
}